{
  "_format": "hh-sol-artifact-1",
  "contractName": "ChargeHandler",
  "sourceName": "contracts/ChargeHandler.sol",
  "abi": [
    {
      "inputs": [],
      "stateMutability": "nonpayable",
      "type": "constructor"
    },
    {
      "inputs": [
        {
          "internalType": "uint256",
          "name": "allowance",
          "type": "uint256"
        },
        {
          "internalType": "uint256",
          "name": "expectedAllowance",
          "type": "uint256"
        }
      ],
      "name": "Charge__IncorrectAllowance",
      "type": "error"
    },
    {
      "inputs": [
        {
          "internalType": "uint256",
          "name": "value",
          "type": "uint256"
        },
        {
          "internalType": "uint256",
          "name": "expectedValue",
          "type": "uint256"
        }
      ],
      "name": "Charge__InsufficientValue",
      "type": "error"
    },
    {
      "inputs": [
        {
          "internalType": "uint256",
          "name": "value",
          "type": "uint256"
        }
      ],
      "name": "Charge__TransferFailed",
      "type": "error"
    },
    {
      "inputs": [],
      "name": "Common__MissingAccount",
      "type": "error"
    },
    {
      "anonymous": false,
      "inputs": [
        {
          "indexed": false,
          "internalType": "address",
          "name": "previousAdmin",
          "type": "address"
        },
        {
          "indexed": false,
          "internalType": "address",
          "name": "newAdmin",
          "type": "address"
        }
      ],
      "name": "AdminChanged",
      "type": "event"
    },
    {
      "anonymous": false,
      "inputs": [
        {
          "indexed": false,
          "internalType": "address",
          "name": "gatewayTokenAddress",
          "type": "address"
        },
        {
          "indexed": false,
          "internalType": "address",
          "name": "tokenAddress",
          "type": "address"
        },
        {
          "indexed": false,
          "internalType": "uint256",
          "name": "tokens",
          "type": "uint256"
        },
        {
          "indexed": false,
          "internalType": "uint256",
          "name": "network",
          "type": "uint256"
        }
      ],
      "name": "ApprovalSet",
      "type": "event"
    },
    {
      "anonymous": false,
      "inputs": [
        {
          "indexed": true,
          "internalType": "address",
          "name": "beacon",
          "type": "address"
        }
      ],
      "name": "BeaconUpgraded",
      "type": "event"
    },
    {
      "anonymous": false,
      "inputs": [
        {
          "components": [
            {
              "internalType": "uint256",
              "name": "value",
              "type": "uint256"
            },
            {
              "internalType": "enum ChargeType",
              "name": "chargeType",
              "type": "uint8"
            },
            {
              "internalType": "address",
              "name": "token",
              "type": "address"
            },
            {
              "internalType": "address",
              "name": "tokenSender",
              "type": "address"
            },
            {
              "internalType": "address",
              "name": "recipient",
              "type": "address"
            }
          ],
          "indexed": false,
          "internalType": "struct Charge",
          "name": "",
          "type": "tuple"
        }
      ],
      "name": "ChargePaid",
      "type": "event"
    },
    {
      "anonymous": false,
      "inputs": [
        {
          "indexed": false,
          "internalType": "uint8",
          "name": "version",
          "type": "uint8"
        }
      ],
      "name": "Initialized",
      "type": "event"
    },
    {
      "anonymous": false,
      "inputs": [
        {
          "indexed": true,
          "internalType": "bytes32",
          "name": "role",
          "type": "bytes32"
        },
        {
          "indexed": true,
          "internalType": "bytes32",
          "name": "previousAdminRole",
          "type": "bytes32"
        },
        {
          "indexed": true,
          "internalType": "bytes32",
          "name": "newAdminRole",
          "type": "bytes32"
        }
      ],
      "name": "RoleAdminChanged",
      "type": "event"
    },
    {
      "anonymous": false,
      "inputs": [
        {
          "indexed": true,
          "internalType": "bytes32",
          "name": "role",
          "type": "bytes32"
        },
        {
          "indexed": true,
          "internalType": "address",
          "name": "account",
          "type": "address"
        },
        {
          "indexed": true,
          "internalType": "address",
          "name": "sender",
          "type": "address"
        }
      ],
      "name": "RoleGranted",
      "type": "event"
    },
    {
      "anonymous": false,
      "inputs": [
        {
          "indexed": true,
          "internalType": "bytes32",
          "name": "role",
          "type": "bytes32"
        },
        {
          "indexed": true,
          "internalType": "address",
          "name": "account",
          "type": "address"
        },
        {
          "indexed": true,
          "internalType": "address",
          "name": "sender",
          "type": "address"
        }
      ],
      "name": "RoleRevoked",
      "type": "event"
    },
    {
      "anonymous": false,
      "inputs": [
        {
          "indexed": true,
          "internalType": "address",
          "name": "implementation",
          "type": "address"
        }
      ],
      "name": "Upgraded",
      "type": "event"
    },
    {
      "inputs": [],
      "name": "CHARGE_CALLER_ROLE",
      "outputs": [
        {
          "internalType": "bytes32",
          "name": "",
          "type": "bytes32"
        }
      ],
      "stateMutability": "view",
      "type": "function"
    },
    {
      "inputs": [],
      "name": "DEFAULT_ADMIN_ROLE",
      "outputs": [
        {
          "internalType": "bytes32",
          "name": "",
          "type": "bytes32"
        }
      ],
      "stateMutability": "view",
      "type": "function"
    },
    {
      "inputs": [
        {
          "internalType": "bytes32",
          "name": "role",
          "type": "bytes32"
        }
      ],
      "name": "getRoleAdmin",
      "outputs": [
        {
          "internalType": "bytes32",
          "name": "",
          "type": "bytes32"
        }
      ],
      "stateMutability": "view",
      "type": "function"
    },
    {
      "inputs": [
        {
          "internalType": "bytes32",
          "name": "role",
          "type": "bytes32"
        },
        {
          "internalType": "address",
          "name": "account",
          "type": "address"
        }
      ],
      "name": "grantRole",
      "outputs": [],
      "stateMutability": "nonpayable",
      "type": "function"
    },
    {
      "inputs": [
        {
          "components": [
            {
              "internalType": "uint256",
              "name": "value",
              "type": "uint256"
            },
            {
              "internalType": "enum ChargeType",
              "name": "chargeType",
              "type": "uint8"
            },
            {
              "internalType": "address",
              "name": "token",
              "type": "address"
            },
            {
              "internalType": "address",
              "name": "tokenSender",
              "type": "address"
            },
            {
              "internalType": "address",
              "name": "recipient",
              "type": "address"
            }
          ],
          "internalType": "struct Charge",
          "name": "charge",
          "type": "tuple"
        },
        {
          "internalType": "uint256",
          "name": "network",
          "type": "uint256"
        }
      ],
      "name": "handleCharge",
      "outputs": [],
      "stateMutability": "payable",
      "type": "function"
    },
    {
      "inputs": [
        {
          "internalType": "bytes32",
          "name": "role",
          "type": "bytes32"
        },
        {
          "internalType": "address",
          "name": "account",
          "type": "address"
        }
      ],
      "name": "hasRole",
      "outputs": [
        {
          "internalType": "bool",
          "name": "",
          "type": "bool"
        }
      ],
      "stateMutability": "view",
      "type": "function"
    },
    {
      "inputs": [
        {
          "internalType": "address",
          "name": "owner",
          "type": "address"
        }
      ],
      "name": "initialize",
      "outputs": [],
      "stateMutability": "nonpayable",
      "type": "function"
    },
    {
      "inputs": [],
      "name": "proxiableUUID",
      "outputs": [
        {
          "internalType": "bytes32",
          "name": "",
          "type": "bytes32"
        }
      ],
      "stateMutability": "view",
      "type": "function"
    },
    {
      "inputs": [
        {
          "internalType": "bytes32",
          "name": "role",
          "type": "bytes32"
        },
        {
          "internalType": "address",
          "name": "account",
          "type": "address"
        }
      ],
      "name": "renounceRole",
      "outputs": [],
      "stateMutability": "nonpayable",
      "type": "function"
    },
    {
      "inputs": [
        {
          "internalType": "bytes32",
          "name": "role",
          "type": "bytes32"
        },
        {
          "internalType": "address",
          "name": "account",
          "type": "address"
        }
      ],
      "name": "revokeRole",
      "outputs": [],
      "stateMutability": "nonpayable",
      "type": "function"
    },
    {
      "inputs": [
        {
          "internalType": "address",
          "name": "gatewayTokenAddress",
          "type": "address"
        },
        {
          "internalType": "address",
          "name": "tokenAddress",
          "type": "address"
        },
        {
          "internalType": "uint256",
          "name": "tokens",
          "type": "uint256"
        },
        {
          "internalType": "uint256",
          "name": "network",
          "type": "uint256"
        }
      ],
      "name": "setApproval",
      "outputs": [],
      "stateMutability": "nonpayable",
      "type": "function"
    },
    {
      "inputs": [
        {
          "internalType": "bytes32",
          "name": "role",
          "type": "bytes32"
        },
        {
          "internalType": "address",
          "name": "recipient",
          "type": "address"
        }
      ],
      "name": "setRole",
      "outputs": [],
      "stateMutability": "nonpayable",
      "type": "function"
    },
    {
      "inputs": [
        {
          "internalType": "bytes4",
          "name": "interfaceId",
          "type": "bytes4"
        }
      ],
      "name": "supportsInterface",
      "outputs": [
        {
          "internalType": "bool",
          "name": "",
          "type": "bool"
        }
      ],
      "stateMutability": "view",
      "type": "function"
    },
    {
      "inputs": [
        {
          "internalType": "address",
          "name": "newImplementation",
          "type": "address"
        }
      ],
      "name": "upgradeTo",
      "outputs": [],
      "stateMutability": "nonpayable",
      "type": "function"
    },
    {
      "inputs": [
        {
          "internalType": "address",
          "name": "newImplementation",
          "type": "address"
        },
        {
          "internalType": "bytes",
          "name": "data",
          "type": "bytes"
        }
      ],
      "name": "upgradeToAndCall",
      "outputs": [],
      "stateMutability": "payable",
      "type": "function"
    }
  ],
  "bytecode": "0x60a06040523060805234801561001457600080fd5b5061001d610022565b6100e2565b600054610100900460ff161561008e5760405162461bcd60e51b815260206004820152602760248201527f496e697469616c697a61626c653a20636f6e747261637420697320696e697469604482015266616c697a696e6760c81b606482015260840160405180910390fd5b60005460ff90811610156100e0576000805460ff191660ff9081179091556040519081527f7f26b83ff96e1f2b6a682f133852f6798a09c465da95921460cefb38474024989060200160405180910390a15b565b608051611b80610119600039600081816103b4015281816103f40152818161047c015281816104bc01526105340152611b806000f3fe6080604052600436106100c85760003560e01c806391d148541161007a57806391d14854146101ca578063a217fddf146101ea578063a2793ecd146101ff578063c4d66de814610212578063d547741f14610232578063dce5535614610252578063dff8720314610286578063f4536007146102a657600080fd5b806301ffc9a7146100cd578063248a9ca3146101025780632f2ff15d1461014057806336568abe146101625780633659cfe6146101825780634f1ef286146101a257806352d1902d146101b5575b600080fd5b3480156100d957600080fd5b506100ed6100e836600461161c565b6102c6565b60405190151581526020015b60405180910390f35b34801561010e57600080fd5b5061013261011d366004611646565b600090815260c9602052604090206001015490565b6040519081526020016100f9565b34801561014c57600080fd5b5061016061015b36600461167b565b6102fd565b005b34801561016e57600080fd5b5061016061017d36600461167b565b610327565b34801561018e57600080fd5b5061016061019d3660046116a7565b6103aa565b6101606101b03660046116d8565b610472565b3480156101c157600080fd5b50610132610527565b3480156101d657600080fd5b506100ed6101e536600461167b565b6105d5565b3480156101f657600080fd5b50610132600081565b61016061020d36600461179a565b610600565b34801561021e57600080fd5b5061016061022d3660046116a7565b61090e565b34801561023e57600080fd5b5061016061024d36600461167b565b610a59565b34801561025e57600080fd5b506101327fe1388d384fa3f077843349f63aa6fc30015dd9877d66f232b921dd625892887f81565b34801561029257600080fd5b506101606102a136600461167b565b610a7e565b3480156102b257600080fd5b506101606102c13660046117cb565b610a93565b60006001600160e01b03198216637965db0b60e01b14806102f757506301ffc9a760e01b6001600160e01b03198316145b92915050565b600082815260c9602052604090206001015461031881610b25565b6103228383610b2f565b505050565b6001600160a01b038116331461039c5760405162461bcd60e51b815260206004820152602f60248201527f416363657373436f6e74726f6c3a2063616e206f6e6c792072656e6f756e636560448201526e103937b632b9903337b91039b2b63360891b60648201526084015b60405180910390fd5b6103a68282610bb5565b5050565b6001600160a01b037f00000000000000000000000000000000000000000000000000000000000000001630036103f25760405162461bcd60e51b81526004016103939061180d565b7f00000000000000000000000000000000000000000000000000000000000000006001600160a01b0316610424610c1c565b6001600160a01b03161461044a5760405162461bcd60e51b815260040161039390611859565b61045381610c38565b6040805160008082526020820190925261046f91839190610c43565b50565b6001600160a01b037f00000000000000000000000000000000000000000000000000000000000000001630036104ba5760405162461bcd60e51b81526004016103939061180d565b7f00000000000000000000000000000000000000000000000000000000000000006001600160a01b03166104ec610c1c565b6001600160a01b0316146105125760405162461bcd60e51b815260040161039390611859565b61051b82610c38565b6103a682826001610c43565b6000306001600160a01b037f000000000000000000000000000000000000000000000000000000000000000016146105c25760405162461bcd60e51b815260206004820152603860248201527f555550535570677261646561626c653a206d757374206e6f742062652063616c6044820152771b1959081d1a1c9bdd59da0819195b1959d85d1958d85b1b60421b6064820152608401610393565b50600080516020611b0483398151915290565b600091825260c9602090815260408084206001600160a01b0393909316845291905290205460ff1690565b7fe1388d384fa3f077843349f63aa6fc30015dd9877d66f232b921dd625892887f61062a81610b25565b600161063c60408501602086016118ca565b600281111561064d5761064d6118a5565b0361074457823534101561067d576040516365a2b20160e01b815234600482015283356024820152604401610393565b7f435e19089f6ae5362a112155f011980907d2ff69b4c2bb894f8324260650ee6a836040516106ac91906118e5565b60405180910390a160006106c660a08501608086016116a7565b6001600160a01b0316846000013560405160006040518083038185875af1925050503d8060008114610714576040519150601f19603f3d011682016040523d82523d6000602084013e610719565b606091505b505090508061073e57604051636d6cc4a760e01b815284356004820152602401610393565b50505050565b600261075660408501602086016118ca565b6002811115610767576107676118a5565b0361032257600061077e60608501604086016116a7565b905060006001600160a01b03821663dd62ed3e6107a160808801606089016116a7565b6040516001600160e01b031960e084901b1681526001600160a01b039091166004820152306024820152604401602060405180830381865afa1580156107eb573d6000803e3d6000fd5b505050506040513d601f19601f8201168201806040525081019061080f9190611966565b9050843581101561083d5760405163431cec8960e11b81526004810182905285356024820152604401610393565b60008061086c6108536080890160608a016116a7565b3361086460608b0160408c016116a7565b8a358a610dae565b91509150816108985760405163431cec8960e11b81526004810182905287356024820152604401610393565b7f435e19089f6ae5362a112155f011980907d2ff69b4c2bb894f8324260650ee6a876040516108c791906118e5565b60405180910390a16109056108e26080890160608a016116a7565b6108f260a08a0160808b016116a7565b6001600160a01b03871691908a35610ec8565b50505050505050565b600054610100900460ff161580801561092e5750600054600160ff909116105b806109485750303b158015610948575060005460ff166001145b6109ab5760405162461bcd60e51b815260206004820152602e60248201527f496e697469616c697a61626c653a20636f6e747261637420697320616c72656160448201526d191e481a5b9a5d1a585b1a5e995960921b6064820152608401610393565b6000805460ff1916600117905580156109ce576000805461ff0019166101001790555b6001600160a01b0382166109f557604051630ca2c90160e21b815260040160405180910390fd5b6109fd610f22565b610a05610f22565b610a10600083610f8f565b80156103a6576000805461ff0019169055604051600181527f7f26b83ff96e1f2b6a682f133852f6798a09c465da95921460cefb38474024989060200160405180910390a15050565b600082815260c96020526040902060010154610a7481610b25565b6103228383610bb5565b6000610a8981610b25565b6103228383610f8f565b33600090815260fb602090815260408083206001600160a01b038089168552908352818420908716845282528083208484529091529020829055604080516001600160a01b03808716825285166020820152908101839052606081018290527f37ca6fb8e5d1bbdc9b33c1e1ef3c2e98b97be1409fd474a8fdde0bf612b1be2f9060800160405180910390a150505050565b61046f8133610f99565b610b3982826105d5565b6103a657600082815260c9602090815260408083206001600160a01b03851684529091529020805460ff19166001179055610b713390565b6001600160a01b0316816001600160a01b0316837f2f8788117e7eff1d82e926ec794901d17c78024a50270940304540a733656f0d60405160405180910390a45050565b610bbf82826105d5565b156103a657600082815260c9602090815260408083206001600160a01b0385168085529252808320805460ff1916905551339285917ff6391f5c32d9c69d2a47ea670b442974b53935d1edc7fd64eb21e047a839171b9190a45050565b600080516020611b04833981519152546001600160a01b031690565b60006103a681610b25565b7f4910fdfa16fed3260ed0e7147f7cc6da11a60208b5b9406d12a635614ffd91435460ff1615610c765761032283610ff2565b826001600160a01b03166352d1902d6040518163ffffffff1660e01b8152600401602060405180830381865afa925050508015610cd0575060408051601f3d908101601f19168201909252610ccd91810190611966565b60015b610d335760405162461bcd60e51b815260206004820152602e60248201527f45524331393637557067726164653a206e657720696d706c656d656e7461746960448201526d6f6e206973206e6f74205555505360901b6064820152608401610393565b600080516020611b048339815191528114610da25760405162461bcd60e51b815260206004820152602960248201527f45524331393637557067726164653a20756e737570706f727465642070726f786044820152681a58589b195555525160ba1b6064820152608401610393565b5061032283838361108e565b6001600160a01b03808616600090815260fb602090815260408083208885168452825280832093871683529281528282208483529052908120548190841115610e325750506001600160a01b03808616600090815260fb60209081526040808320888516845282528083209387168352928152828220848352905290812054610ebe565b6001600160a01b03808816600090815260fb602090815260408083208a851684528252808320938916835292815282822086835290529081208054869290610e7b908490611995565b9091555050506001600160a01b03808716600090815260fb6020908152604080832089851684528252808320938816835292815282822085835290522054600191505b9550959350505050565b604080516001600160a01b0385811660248301528416604482015260648082018490528251808303909101815260849091019091526020810180516001600160e01b03166323b872dd60e01b17905261073e9085906110b3565b600054610100900460ff16610f8d5760405162461bcd60e51b815260206004820152602b60248201527f496e697469616c697a61626c653a20636f6e7472616374206973206e6f74206960448201526a6e697469616c697a696e6760a81b6064820152608401610393565b565b6103a68282610b2f565b610fa382826105d5565b6103a657610fb081611185565b610fbb836020611197565b604051602001610fcc9291906119cc565b60408051601f198184030181529082905262461bcd60e51b825261039391600401611a3b565b6001600160a01b0381163b61105f5760405162461bcd60e51b815260206004820152602d60248201527f455243313936373a206e657720696d706c656d656e746174696f6e206973206e60448201526c1bdd08184818dbdb9d1c9858dd609a1b6064820152608401610393565b600080516020611b0483398151915280546001600160a01b0319166001600160a01b0392909216919091179055565b6110978361133a565b6000825111806110a45750805b156103225761073e838361137a565b6000611108826040518060400160405280602081526020017f5361666545524332303a206c6f772d6c6576656c2063616c6c206661696c6564815250856001600160a01b031661146e9092919063ffffffff16565b80519091501561032257808060200190518101906111269190611a6e565b6103225760405162461bcd60e51b815260206004820152602a60248201527f5361666545524332303a204552433230206f7065726174696f6e20646964206e6044820152691bdd081cdd58d8d9595960b21b6064820152608401610393565b60606102f76001600160a01b03831660145b606060006111a6836002611a90565b6111b1906002611aa7565b67ffffffffffffffff8111156111c9576111c96116c2565b6040519080825280601f01601f1916602001820160405280156111f3576020820181803683370190505b509050600360fc1b8160008151811061120e5761120e611aba565b60200101906001600160f81b031916908160001a905350600f60fb1b8160018151811061123d5761123d611aba565b60200101906001600160f81b031916908160001a9053506000611261846002611a90565b61126c906001611aa7565b90505b60018111156112e4576f181899199a1a9b1b9c1cb0b131b232b360811b85600f16601081106112a0576112a0611aba565b1a60f81b8282815181106112b6576112b6611aba565b60200101906001600160f81b031916908160001a90535060049490941c936112dd81611ad0565b905061126f565b5083156113335760405162461bcd60e51b815260206004820181905260248201527f537472696e67733a20686578206c656e67746820696e73756666696369656e746044820152606401610393565b9392505050565b61134381610ff2565b6040516001600160a01b038216907fbc7cd75a20ee27fd9adebab32041f755214dbc6bffa90cc0225b39da2e5c2d3b90600090a250565b60606001600160a01b0383163b6113e25760405162461bcd60e51b815260206004820152602660248201527f416464726573733a2064656c65676174652063616c6c20746f206e6f6e2d636f6044820152651b9d1c9858dd60d21b6064820152608401610393565b600080846001600160a01b0316846040516113fd9190611ae7565b600060405180830381855af49150503d8060008114611438576040519150601f19603f3d011682016040523d82523d6000602084013e61143d565b606091505b50915091506114658282604051806060016040528060278152602001611b2460279139611485565b95945050505050565b606061147d848460008561149e565b949350505050565b60608315611494575081611333565b6113338383611579565b6060824710156114ff5760405162461bcd60e51b815260206004820152602660248201527f416464726573733a20696e73756666696369656e742062616c616e636520666f6044820152651c8818d85b1b60d21b6064820152608401610393565b600080866001600160a01b0316858760405161151b9190611ae7565b60006040518083038185875af1925050503d8060008114611558576040519150601f19603f3d011682016040523d82523d6000602084013e61155d565b606091505b509150915061156e878383876115a3565b979650505050505050565b8151156115895781518083602001fd5b8060405162461bcd60e51b81526004016103939190611a3b565b6060831561161257825160000361160b576001600160a01b0385163b61160b5760405162461bcd60e51b815260206004820152601d60248201527f416464726573733a2063616c6c20746f206e6f6e2d636f6e74726163740000006044820152606401610393565b508161147d565b61147d8383611579565b60006020828403121561162e57600080fd5b81356001600160e01b03198116811461133357600080fd5b60006020828403121561165857600080fd5b5035919050565b80356001600160a01b038116811461167657600080fd5b919050565b6000806040838503121561168e57600080fd5b8235915061169e6020840161165f565b90509250929050565b6000602082840312156116b957600080fd5b6113338261165f565b634e487b7160e01b600052604160045260246000fd5b600080604083850312156116eb57600080fd5b6116f48361165f565b9150602083013567ffffffffffffffff8082111561171157600080fd5b818501915085601f83011261172557600080fd5b813581811115611737576117376116c2565b604051601f8201601f19908116603f0116810190838211818310171561175f5761175f6116c2565b8160405282815288602084870101111561177857600080fd5b8260208601602083013760006020848301015280955050505050509250929050565b60008082840360c08112156117ae57600080fd5b60a08112156117bc57600080fd5b50919360a08501359350915050565b600080600080608085870312156117e157600080fd5b6117ea8561165f565b93506117f86020860161165f565b93969395505050506040820135916060013590565b6020808252602c908201527f46756e6374696f6e206d7573742062652063616c6c6564207468726f7567682060408201526b19195b1959d85d1958d85b1b60a21b606082015260800190565b6020808252602c908201527f46756e6374696f6e206d7573742062652063616c6c6564207468726f7567682060408201526b6163746976652070726f787960a01b606082015260800190565b634e487b7160e01b600052602160045260246000fd5b80356003811061167657600080fd5b6000602082840312156118dc57600080fd5b611333826118bb565b8135815260a081016118f9602084016118bb565b6003811061191757634e487b7160e01b600052602160045260246000fd5b60208301526119286040840161165f565b6001600160a01b038181166040850152806119456060870161165f565b166060850152806119586080870161165f565b166080850152505092915050565b60006020828403121561197857600080fd5b5051919050565b634e487b7160e01b600052601160045260246000fd5b818103818111156102f7576102f761197f565b60005b838110156119c35781810151838201526020016119ab565b50506000910152565b76020b1b1b2b9b9a1b7b73a3937b61d1030b1b1b7bab73a1604d1b8152600083516119fe8160178501602088016119a8565b7001034b99036b4b9b9b4b733903937b6329607d1b6017918401918201528351611a2f8160288401602088016119a8565b01602801949350505050565b6020815260008251806020840152611a5a8160408501602087016119a8565b601f01601f19169190910160400192915050565b600060208284031215611a8057600080fd5b8151801515811461133357600080fd5b80820281158282048414176102f7576102f761197f565b808201808211156102f7576102f761197f565b634e487b7160e01b600052603260045260246000fd5b600081611adf57611adf61197f565b506000190190565b60008251611af98184602087016119a8565b919091019291505056fe360894a13ba1a3210667c828492db98dca3e2076cc3735a920a3ca505d382bbc416464726573733a206c6f772d6c6576656c2064656c65676174652063616c6c206661696c6564a2646970667358221220509c4fa3bfd5f4975730661ad394b9dd7f66c6db18ff377a0e320fe8168bf73264736f6c63430008130033",
  "linkReferences": {},
  "deployedLinkReferences": {}
}