{
  "_format": "hh-sol-artifact-1",
  "contractName": "GatewayTokenUpgradeTest",
  "sourceName": "contracts/GatewayTokenUpgradeTest.sol",
  "abi": [
    {
      "inputs": [],
      "stateMutability": "nonpayable",
      "type": "constructor"
    },
    {
      "inputs": [],
      "name": "Common__MissingAccount",
      "type": "error"
    },
    {
      "inputs": [
        {
          "internalType": "address",
          "name": "account",
          "type": "address"
        }
      ],
      "name": "Common__NotContract",
      "type": "error"
    },
    {
      "inputs": [
        {
          "internalType": "address",
          "name": "account",
          "type": "address"
        }
      ],
      "name": "Common__NotSuperAdmin",
      "type": "error"
    },
    {
      "inputs": [
        {
          "internalType": "address",
          "name": "sender",
          "type": "address"
        },
        {
          "internalType": "uint256",
          "name": "domain",
          "type": "uint256"
        },
        {
          "internalType": "bytes32",
          "name": "role",
          "type": "bytes32"
        }
      ],
      "name": "Common__Unauthorized",
      "type": "error"
    },
    {
      "inputs": [
        {
          "internalType": "uint256",
          "name": "available",
          "type": "uint256"
        },
        {
          "internalType": "uint256",
          "name": "required",
          "type": "uint256"
        }
      ],
      "name": "GatewayToken__InsufficientFunds",
      "type": "error"
    },
    {
      "inputs": [
        {
          "internalType": "uint256",
          "name": "network",
          "type": "uint256"
        }
      ],
      "name": "GatewayToken__NetworkAlreadyExists",
      "type": "error"
    },
    {
      "inputs": [
        {
          "internalType": "uint256",
          "name": "network",
          "type": "uint256"
        }
      ],
      "name": "GatewayToken__NetworkDoesNotExist",
      "type": "error"
    },
    {
      "inputs": [
        {
          "internalType": "uint256",
          "name": "network",
          "type": "uint256"
        }
      ],
      "name": "GatewayToken__NotDAOGoverned",
      "type": "error"
    },
    {
      "inputs": [
        {
          "internalType": "uint256",
          "name": "tokenId",
          "type": "uint256"
        }
      ],
      "name": "GatewayToken__TokenDoesNotExist",
      "type": "error"
    },
    {
      "inputs": [
        {
          "internalType": "uint256",
          "name": "tokenId",
          "type": "uint256"
        },
        {
          "internalType": "bool",
          "name": "allowExpired",
          "type": "bool"
        }
      ],
      "name": "GatewayToken__TokenDoesNotExistOrIsInactive",
      "type": "error"
    },
    {
      "inputs": [
        {
          "internalType": "uint256",
          "name": "tokenId",
          "type": "uint256"
        },
        {
          "internalType": "enum IGatewayToken.TokenState",
          "name": "state",
          "type": "uint8"
        },
        {
          "internalType": "enum IGatewayToken.TokenState",
          "name": "expectedState",
          "type": "uint8"
        }
      ],
      "name": "GatewayToken__TokenInvalidStateForOperation",
      "type": "error"
    },
    {
      "inputs": [
        {
          "internalType": "bytes32",
          "name": "role",
          "type": "bytes32"
        },
        {
          "internalType": "address",
          "name": "account",
          "type": "address"
        }
      ],
      "name": "ParameterizedAccessControl__RenounceRoleNotForSelf",
      "type": "error"
    },
    {
      "anonymous": false,
      "inputs": [
        {
          "indexed": false,
          "internalType": "address",
          "name": "previousAdmin",
          "type": "address"
        },
        {
          "indexed": false,
          "internalType": "address",
          "name": "newAdmin",
          "type": "address"
        }
      ],
      "name": "AdminChanged",
      "type": "event"
    },
    {
      "anonymous": false,
      "inputs": [
        {
          "indexed": true,
          "internalType": "address",
          "name": "_owner",
          "type": "address"
        },
        {
          "indexed": true,
          "internalType": "address",
          "name": "_approved",
          "type": "address"
        },
        {
          "indexed": true,
          "internalType": "uint256",
          "name": "_tokenId",
          "type": "uint256"
        }
      ],
      "name": "Approval",
      "type": "event"
    },
    {
      "anonymous": false,
      "inputs": [
        {
          "indexed": true,
          "internalType": "address",
          "name": "_owner",
          "type": "address"
        },
        {
          "indexed": true,
          "internalType": "address",
          "name": "_operator",
          "type": "address"
        },
        {
          "indexed": false,
          "internalType": "bool",
          "name": "_approved",
          "type": "bool"
        }
      ],
      "name": "ApprovalForAll",
      "type": "event"
    },
    {
      "anonymous": false,
      "inputs": [
        {
          "indexed": true,
          "internalType": "uint256",
          "name": "_tokenId",
          "type": "uint256"
        },
        {
          "indexed": true,
          "internalType": "address",
          "name": "_operator",
          "type": "address"
        },
        {
          "indexed": false,
          "internalType": "uint256",
          "name": "_value",
          "type": "uint256"
        }
      ],
      "name": "ApprovalValue",
      "type": "event"
    },
    {
      "anonymous": false,
      "inputs": [
        {
          "indexed": true,
          "internalType": "address",
          "name": "beacon",
          "type": "address"
        }
      ],
      "name": "BeaconUpgraded",
      "type": "event"
    },
    {
      "anonymous": false,
      "inputs": [
        {
          "indexed": false,
          "internalType": "uint256",
          "name": "tokenId",
          "type": "uint256"
        },
        {
          "indexed": false,
          "internalType": "uint256",
          "name": "bitmask",
          "type": "uint256"
        }
      ],
      "name": "BitMaskUpdated",
      "type": "event"
    },
    {
      "anonymous": false,
      "inputs": [
        {
          "indexed": false,
          "internalType": "address",
          "name": "previousDAOManager",
          "type": "address"
        },
        {
          "indexed": false,
          "internalType": "address",
          "name": "newDAOManager",
          "type": "address"
        },
        {
          "indexed": false,
          "internalType": "uint256",
          "name": "network",
          "type": "uint256"
        }
      ],
      "name": "DAOManagerTransferred",
      "type": "event"
    },
    {
      "anonymous": false,
      "inputs": [
        {
          "indexed": true,
          "internalType": "uint256",
          "name": "tokenId",
          "type": "uint256"
        },
        {
          "indexed": false,
          "internalType": "uint256",
          "name": "timestamp",
          "type": "uint256"
        }
      ],
      "name": "Expiration",
      "type": "event"
    },
    {
      "anonymous": false,
      "inputs": [
        {
          "indexed": true,
          "internalType": "address",
          "name": "flagsStorage",
          "type": "address"
        }
      ],
      "name": "FlagsStorageUpdated",
      "type": "event"
    },
    {
      "anonymous": false,
      "inputs": [
        {
          "indexed": true,
          "internalType": "uint256",
          "name": "tokenId",
          "type": "uint256"
        }
      ],
      "name": "Freeze",
      "type": "event"
    },
    {
      "anonymous": false,
      "inputs": [
        {
          "indexed": false,
          "internalType": "uint8",
          "name": "version",
          "type": "uint8"
        }
      ],
      "name": "Initialized",
      "type": "event"
    },
    {
      "anonymous": false,
      "inputs": [
        {
          "indexed": true,
          "internalType": "uint256",
          "name": "tokenId",
          "type": "uint256"
        }
      ],
      "name": "Revoke",
      "type": "event"
    },
    {
      "anonymous": false,
      "inputs": [
        {
          "indexed": true,
          "internalType": "bytes32",
          "name": "role",
          "type": "bytes32"
        },
        {
          "indexed": false,
          "internalType": "uint256",
          "name": "domain",
          "type": "uint256"
        },
        {
          "indexed": true,
          "internalType": "bytes32",
          "name": "previousAdminRole",
          "type": "bytes32"
        },
        {
          "indexed": true,
          "internalType": "bytes32",
          "name": "newAdminRole",
          "type": "bytes32"
        }
      ],
      "name": "RoleAdminChanged",
      "type": "event"
    },
    {
      "anonymous": false,
      "inputs": [
        {
          "indexed": true,
          "internalType": "bytes32",
          "name": "role",
          "type": "bytes32"
        },
        {
          "indexed": false,
          "internalType": "uint256",
          "name": "domain",
          "type": "uint256"
        },
        {
          "indexed": true,
          "internalType": "address",
          "name": "account",
          "type": "address"
        },
        {
          "indexed": true,
          "internalType": "address",
          "name": "sender",
          "type": "address"
        }
      ],
      "name": "RoleGranted",
      "type": "event"
    },
    {
      "anonymous": false,
      "inputs": [
        {
          "indexed": true,
          "internalType": "bytes32",
          "name": "role",
          "type": "bytes32"
        },
        {
          "indexed": false,
          "internalType": "uint256",
          "name": "domain",
          "type": "uint256"
        },
        {
          "indexed": true,
          "internalType": "address",
          "name": "account",
          "type": "address"
        },
        {
          "indexed": true,
          "internalType": "address",
          "name": "sender",
          "type": "address"
        }
      ],
      "name": "RoleRevoked",
      "type": "event"
    },
    {
      "anonymous": false,
      "inputs": [
        {
          "indexed": true,
          "internalType": "address",
          "name": "metadataDescriptor",
          "type": "address"
        }
      ],
      "name": "SetMetadataDescriptor",
      "type": "event"
    },
    {
      "anonymous": false,
      "inputs": [
        {
          "indexed": true,
          "internalType": "uint256",
          "name": "_tokenId",
          "type": "uint256"
        },
        {
          "indexed": true,
          "internalType": "uint256",
          "name": "_oldSlot",
          "type": "uint256"
        },
        {
          "indexed": true,
          "internalType": "uint256",
          "name": "_newSlot",
          "type": "uint256"
        }
      ],
      "name": "SlotChanged",
      "type": "event"
    },
    {
      "anonymous": false,
      "inputs": [
        {
          "indexed": true,
          "internalType": "address",
          "name": "account",
          "type": "address"
        }
      ],
      "name": "SuperAdminAdded",
      "type": "event"
    },
    {
      "anonymous": false,
      "inputs": [
        {
          "indexed": true,
          "internalType": "address",
          "name": "account",
          "type": "address"
        }
      ],
      "name": "SuperAdminRemoved",
      "type": "event"
    },
    {
      "anonymous": false,
      "inputs": [
        {
          "indexed": true,
          "internalType": "address",
          "name": "_from",
          "type": "address"
        },
        {
          "indexed": true,
          "internalType": "address",
          "name": "_to",
          "type": "address"
        },
        {
          "indexed": true,
          "internalType": "uint256",
          "name": "_tokenId",
          "type": "uint256"
        }
      ],
      "name": "Transfer",
      "type": "event"
    },
    {
      "anonymous": false,
      "inputs": [
        {
          "indexed": true,
          "internalType": "uint256",
          "name": "_fromTokenId",
          "type": "uint256"
        },
        {
          "indexed": true,
          "internalType": "uint256",
          "name": "_toTokenId",
          "type": "uint256"
        },
        {
          "indexed": false,
          "internalType": "uint256",
          "name": "_value",
          "type": "uint256"
        }
      ],
      "name": "TransferValue",
      "type": "event"
    },
    {
      "anonymous": false,
      "inputs": [
        {
          "indexed": true,
          "internalType": "uint256",
          "name": "tokenId",
          "type": "uint256"
        }
      ],
      "name": "Unfreeze",
      "type": "event"
    },
    {
      "anonymous": false,
      "inputs": [
        {
          "indexed": true,
          "internalType": "address",
          "name": "implementation",
          "type": "address"
        }
      ],
      "name": "Upgraded",
      "type": "event"
    },
    {
      "inputs": [],
      "name": "DAO_MANAGER_ROLE",
      "outputs": [
        {
          "internalType": "bytes32",
          "name": "",
          "type": "bytes32"
        }
      ],
      "stateMutability": "view",
      "type": "function"
    },
    {
      "inputs": [],
      "name": "DEFAULT_ADMIN_ROLE",
      "outputs": [
        {
          "internalType": "bytes32",
          "name": "",
          "type": "bytes32"
        }
      ],
      "stateMutability": "view",
      "type": "function"
    },
    {
      "inputs": [],
      "name": "GATEKEEPER_ROLE",
      "outputs": [
        {
          "internalType": "bytes32",
          "name": "",
          "type": "bytes32"
        }
      ],
      "stateMutability": "view",
      "type": "function"
    },
    {
      "inputs": [],
      "name": "NETWORK_AUTHORITY_ROLE",
      "outputs": [
        {
          "internalType": "bytes32",
          "name": "",
          "type": "bytes32"
        }
      ],
      "stateMutability": "view",
      "type": "function"
    },
    {
      "inputs": [
        {
          "internalType": "address",
          "name": "forwarder",
          "type": "address"
        }
      ],
      "name": "addForwarder",
      "outputs": [],
      "stateMutability": "nonpayable",
      "type": "function"
    },
    {
      "inputs": [
        {
          "internalType": "address",
          "name": "gatekeeper",
          "type": "address"
        },
        {
          "internalType": "uint256",
          "name": "network",
          "type": "uint256"
        }
      ],
      "name": "addGatekeeper",
      "outputs": [],
      "stateMutability": "nonpayable",
      "type": "function"
    },
    {
      "inputs": [
        {
          "internalType": "address",
          "name": "authority",
          "type": "address"
        },
        {
          "internalType": "uint256",
          "name": "network",
          "type": "uint256"
        }
      ],
      "name": "addNetworkAuthority",
      "outputs": [],
      "stateMutability": "nonpayable",
      "type": "function"
    },
    {
      "inputs": [
        {
          "internalType": "uint256",
          "name": "tokenId_",
          "type": "uint256"
        },
        {
          "internalType": "address",
          "name": "operator_",
          "type": "address"
        }
      ],
      "name": "allowance",
      "outputs": [
        {
          "internalType": "uint256",
          "name": "",
          "type": "uint256"
        }
      ],
      "stateMutability": "view",
      "type": "function"
    },
    {
      "inputs": [
        {
          "internalType": "address",
          "name": "to_",
          "type": "address"
        },
        {
          "internalType": "uint256",
          "name": "tokenId_",
          "type": "uint256"
        }
      ],
      "name": "approve",
      "outputs": [],
      "stateMutability": "payable",
      "type": "function"
    },
    {
      "inputs": [
        {
          "internalType": "uint256",
          "name": "tokenId_",
          "type": "uint256"
        },
        {
          "internalType": "address",
          "name": "to_",
          "type": "address"
        },
        {
          "internalType": "uint256",
          "name": "value_",
          "type": "uint256"
        }
      ],
      "name": "approve",
      "outputs": [],
      "stateMutability": "payable",
      "type": "function"
    },
    {
      "inputs": [
        {
          "internalType": "address",
          "name": "owner_",
          "type": "address"
        }
      ],
      "name": "balanceOf",
      "outputs": [
        {
          "internalType": "uint256",
          "name": "balance",
          "type": "uint256"
        }
      ],
      "stateMutability": "view",
      "type": "function"
    },
    {
      "inputs": [
        {
          "internalType": "uint256",
          "name": "tokenId_",
          "type": "uint256"
        }
      ],
      "name": "balanceOf",
      "outputs": [
        {
          "internalType": "uint256",
          "name": "",
          "type": "uint256"
        }
      ],
      "stateMutability": "view",
      "type": "function"
    },
    {
      "inputs": [
        {
          "internalType": "uint256",
          "name": "tokenId",
          "type": "uint256"
        }
      ],
      "name": "burn",
      "outputs": [],
      "stateMutability": "nonpayable",
      "type": "function"
    },
    {
      "inputs": [],
      "name": "contractURI",
      "outputs": [
        {
          "internalType": "string",
          "name": "",
          "type": "string"
        }
      ],
      "stateMutability": "view",
      "type": "function"
    },
    {
      "inputs": [
        {
          "internalType": "uint256",
          "name": "network",
          "type": "uint256"
        },
        {
          "internalType": "string",
          "name": "name",
          "type": "string"
        },
        {
          "internalType": "bool",
          "name": "daoGoverned",
          "type": "bool"
        },
        {
          "internalType": "address",
          "name": "daoManager",
          "type": "address"
        }
      ],
      "name": "createNetwork",
      "outputs": [],
      "stateMutability": "nonpayable",
      "type": "function"
    },
    {
      "inputs": [],
      "name": "flagsStorage",
      "outputs": [
        {
          "internalType": "contract IFlagsStorage",
          "name": "",
          "type": "address"
        }
      ],
      "stateMutability": "view",
      "type": "function"
    },
    {
      "inputs": [
        {
          "internalType": "uint256",
          "name": "tokenId",
          "type": "uint256"
        }
      ],
      "name": "freeze",
      "outputs": [],
      "stateMutability": "nonpayable",
      "type": "function"
    },
    {
      "inputs": [
        {
          "internalType": "uint256",
          "name": "tokenId_",
          "type": "uint256"
        }
      ],
      "name": "getApproved",
      "outputs": [
        {
          "internalType": "address",
          "name": "",
          "type": "address"
        }
      ],
      "stateMutability": "view",
      "type": "function"
    },
    {
      "inputs": [
        {
          "internalType": "uint256",
          "name": "tokenId",
          "type": "uint256"
        }
      ],
      "name": "getExpiration",
      "outputs": [
        {
          "internalType": "uint256",
          "name": "",
          "type": "uint256"
        }
      ],
      "stateMutability": "view",
      "type": "function"
    },
    {
      "inputs": [
        {
          "internalType": "uint256",
          "name": "network",
          "type": "uint256"
        }
      ],
      "name": "getNetwork",
      "outputs": [
        {
          "internalType": "string",
          "name": "",
          "type": "string"
        }
      ],
      "stateMutability": "view",
      "type": "function"
    },
    {
      "inputs": [
        {
          "internalType": "bytes32",
          "name": "role",
          "type": "bytes32"
        },
        {
          "internalType": "uint256",
          "name": "domain",
          "type": "uint256"
        }
      ],
      "name": "getRoleAdmin",
      "outputs": [
        {
          "internalType": "bytes32",
          "name": "",
          "type": "bytes32"
        }
      ],
      "stateMutability": "view",
      "type": "function"
    },
    {
      "inputs": [
        {
          "internalType": "uint256",
          "name": "tokenId",
          "type": "uint256"
        }
      ],
      "name": "getToken",
      "outputs": [
        {
          "internalType": "address",
          "name": "owner",
          "type": "address"
        },
        {
          "internalType": "uint8",
          "name": "state",
          "type": "uint8"
        },
        {
          "internalType": "string",
          "name": "identity",
          "type": "string"
        },
        {
          "internalType": "uint256",
          "name": "expiration",
          "type": "uint256"
        },
        {
          "internalType": "uint256",
          "name": "bitmask",
          "type": "uint256"
        }
      ],
      "stateMutability": "view",
      "type": "function"
    },
    {
      "inputs": [
        {
          "internalType": "uint256",
          "name": "tokenId",
          "type": "uint256"
        }
      ],
      "name": "getTokenBitmask",
      "outputs": [
        {
          "internalType": "uint256",
          "name": "",
          "type": "uint256"
        }
      ],
      "stateMutability": "view",
      "type": "function"
    },
    {
      "inputs": [
        {
          "internalType": "address",
          "name": "owner",
          "type": "address"
        },
        {
          "internalType": "uint256",
          "name": "network",
          "type": "uint256"
        }
      ],
      "name": "getTokenIdsByOwnerAndNetwork",
      "outputs": [
        {
          "internalType": "uint256[]",
          "name": "",
          "type": "uint256[]"
        }
      ],
      "stateMutability": "view",
      "type": "function"
    },
    {
      "inputs": [
        {
          "internalType": "bytes32",
          "name": "role",
          "type": "bytes32"
        },
        {
          "internalType": "uint256",
          "name": "domain",
          "type": "uint256"
        },
        {
          "internalType": "address",
          "name": "account",
          "type": "address"
        }
      ],
      "name": "grantRole",
      "outputs": [],
      "stateMutability": "nonpayable",
      "type": "function"
    },
    {
      "inputs": [
        {
          "internalType": "bytes32",
          "name": "role",
          "type": "bytes32"
        },
        {
          "internalType": "uint256",
          "name": "domain",
          "type": "uint256"
        },
        {
          "internalType": "address",
          "name": "account",
          "type": "address"
        }
      ],
      "name": "hasRole",
      "outputs": [
        {
          "internalType": "bool",
          "name": "",
          "type": "bool"
        }
      ],
      "stateMutability": "view",
      "type": "function"
    },
    {
      "inputs": [
        {
          "internalType": "string",
          "name": "_name",
          "type": "string"
        },
        {
          "internalType": "string",
          "name": "_symbol",
          "type": "string"
        },
        {
          "internalType": "address",
          "name": "_superAdmin",
          "type": "address"
        },
        {
          "internalType": "address",
          "name": "_flagsStorage",
          "type": "address"
        },
        {
          "internalType": "address[]",
          "name": "_trustedForwarders",
          "type": "address[]"
        }
      ],
      "name": "initialize",
      "outputs": [],
      "stateMutability": "nonpayable",
      "type": "function"
    },
    {
      "inputs": [
        {
          "internalType": "address",
          "name": "owner_",
          "type": "address"
        },
        {
          "internalType": "address",
          "name": "operator_",
          "type": "address"
        }
      ],
      "name": "isApprovedForAll",
      "outputs": [
        {
          "internalType": "bool",
          "name": "",
          "type": "bool"
        }
      ],
      "stateMutability": "view",
      "type": "function"
    },
    {
      "inputs": [
        {
          "internalType": "address",
          "name": "gatekeeper",
          "type": "address"
        },
        {
          "internalType": "uint256",
          "name": "network",
          "type": "uint256"
        }
      ],
      "name": "isGatekeeper",
      "outputs": [
        {
          "internalType": "bool",
          "name": "",
          "type": "bool"
        }
      ],
      "stateMutability": "view",
      "type": "function"
    },
    {
      "inputs": [
        {
          "internalType": "address",
          "name": "authority",
          "type": "address"
        },
        {
          "internalType": "uint256",
          "name": "network",
          "type": "uint256"
        }
      ],
      "name": "isNetworkAuthority",
      "outputs": [
        {
          "internalType": "bool",
          "name": "",
          "type": "bool"
        }
      ],
      "stateMutability": "view",
      "type": "function"
    },
    {
      "inputs": [
        {
          "internalType": "uint256",
          "name": "",
          "type": "uint256"
        }
      ],
      "name": "isNetworkDAOGoverned",
      "outputs": [
        {
          "internalType": "bool",
          "name": "",
          "type": "bool"
        }
      ],
      "stateMutability": "view",
      "type": "function"
    },
    {
      "inputs": [
        {
          "internalType": "address",
          "name": "account",
          "type": "address"
        }
      ],
      "name": "isSuperAdmin",
      "outputs": [
        {
          "internalType": "bool",
          "name": "",
          "type": "bool"
        }
      ],
      "stateMutability": "view",
      "type": "function"
    },
    {
      "inputs": [
        {
          "internalType": "address",
          "name": "forwarder",
          "type": "address"
        }
      ],
      "name": "isTrustedForwarder",
      "outputs": [
        {
          "internalType": "bool",
          "name": "",
          "type": "bool"
        }
      ],
      "stateMutability": "view",
      "type": "function"
    },
    {
      "inputs": [],
      "name": "metadataDescriptor",
      "outputs": [
        {
          "internalType": "contract IERC3525MetadataDescriptorUpgradeable",
          "name": "",
          "type": "address"
        }
      ],
      "stateMutability": "view",
      "type": "function"
    },
    {
      "inputs": [
        {
          "internalType": "address",
          "name": "to",
          "type": "address"
        },
        {
          "internalType": "uint256",
          "name": "network",
          "type": "uint256"
        },
        {
          "internalType": "uint256",
          "name": "expiration",
          "type": "uint256"
        },
        {
          "internalType": "uint256",
          "name": "mask",
          "type": "uint256"
        },
        {
          "components": [
            {
              "internalType": "uint256",
              "name": "value",
              "type": "uint256"
            },
            {
              "internalType": "enum ChargeType",
              "name": "chargeType",
              "type": "uint8"
            },
            {
              "internalType": "address",
              "name": "token",
              "type": "address"
            },
            {
              "internalType": "address",
              "name": "recipient",
              "type": "address"
            }
          ],
          "internalType": "struct Charge",
          "name": "",
          "type": "tuple"
        }
      ],
      "name": "mint",
      "outputs": [],
      "stateMutability": "nonpayable",
      "type": "function"
    },
    {
      "inputs": [],
      "name": "name",
      "outputs": [
        {
          "internalType": "string",
          "name": "",
          "type": "string"
        }
      ],
      "stateMutability": "view",
      "type": "function"
    },
    {
      "inputs": [
        {
          "internalType": "uint256",
          "name": "tokenId_",
          "type": "uint256"
        }
      ],
      "name": "ownerOf",
      "outputs": [
        {
          "internalType": "address",
          "name": "owner_",
          "type": "address"
        }
      ],
      "stateMutability": "view",
      "type": "function"
    },
    {
      "inputs": [],
      "name": "proxiableUUID",
      "outputs": [
        {
          "internalType": "bytes32",
          "name": "",
          "type": "bytes32"
        }
      ],
      "stateMutability": "view",
      "type": "function"
    },
    {
      "inputs": [
        {
          "internalType": "address",
          "name": "forwarder",
          "type": "address"
        }
      ],
      "name": "removeForwarder",
      "outputs": [],
      "stateMutability": "nonpayable",
      "type": "function"
    },
    {
      "inputs": [
        {
          "internalType": "address",
          "name": "gatekeeper",
          "type": "address"
        },
        {
          "internalType": "uint256",
          "name": "network",
          "type": "uint256"
        }
      ],
      "name": "removeGatekeeper",
      "outputs": [],
      "stateMutability": "nonpayable",
      "type": "function"
    },
    {
      "inputs": [
        {
          "internalType": "address",
          "name": "authority",
          "type": "address"
        },
        {
          "internalType": "uint256",
          "name": "network",
          "type": "uint256"
        }
      ],
      "name": "removeNetworkAuthority",
      "outputs": [],
      "stateMutability": "nonpayable",
      "type": "function"
    },
    {
      "inputs": [
        {
          "internalType": "uint256",
          "name": "network",
          "type": "uint256"
        },
        {
          "internalType": "string",
          "name": "name",
          "type": "string"
        }
      ],
      "name": "renameNetwork",
      "outputs": [],
      "stateMutability": "nonpayable",
      "type": "function"
    },
    {
      "inputs": [
        {
          "internalType": "bytes32",
          "name": "role",
          "type": "bytes32"
        },
        {
          "internalType": "uint256",
          "name": "domain",
          "type": "uint256"
        },
        {
          "internalType": "address",
          "name": "account",
          "type": "address"
        }
      ],
      "name": "renounceRole",
      "outputs": [],
      "stateMutability": "nonpayable",
      "type": "function"
    },
    {
      "inputs": [
        {
          "internalType": "uint256",
          "name": "tokenId",
          "type": "uint256"
        }
      ],
      "name": "revoke",
      "outputs": [],
      "stateMutability": "nonpayable",
      "type": "function"
    },
    {
      "inputs": [
        {
          "internalType": "bytes32",
          "name": "role",
          "type": "bytes32"
        },
        {
          "internalType": "uint256",
          "name": "domain",
          "type": "uint256"
        },
        {
          "internalType": "address",
          "name": "account",
          "type": "address"
        }
      ],
      "name": "revokeRole",
      "outputs": [],
      "stateMutability": "nonpayable",
      "type": "function"
    },
    {
      "inputs": [
        {
          "internalType": "address",
          "name": "account",
          "type": "address"
        }
      ],
      "name": "revokeSuperAdmin",
      "outputs": [],
      "stateMutability": "nonpayable",
      "type": "function"
    },
    {
      "inputs": [
        {
          "internalType": "address",
          "name": "from_",
          "type": "address"
        },
        {
          "internalType": "address",
          "name": "to_",
          "type": "address"
        },
        {
          "internalType": "uint256",
          "name": "tokenId_",
          "type": "uint256"
        }
      ],
      "name": "safeTransferFrom",
      "outputs": [],
      "stateMutability": "payable",
      "type": "function"
    },
    {
      "inputs": [
        {
          "internalType": "address",
          "name": "from_",
          "type": "address"
        },
        {
          "internalType": "address",
          "name": "to_",
          "type": "address"
        },
        {
          "internalType": "uint256",
          "name": "tokenId_",
          "type": "uint256"
        },
        {
          "internalType": "bytes",
          "name": "data_",
          "type": "bytes"
        }
      ],
      "name": "safeTransferFrom",
      "outputs": [],
      "stateMutability": "payable",
      "type": "function"
    },
    {
      "inputs": [
        {
          "internalType": "address",
          "name": "operator_",
          "type": "address"
        },
        {
          "internalType": "bool",
          "name": "approved_",
          "type": "bool"
        }
      ],
      "name": "setApprovalForAll",
      "outputs": [],
      "stateMutability": "nonpayable",
      "type": "function"
    },
    {
      "inputs": [
        {
          "internalType": "uint256",
          "name": "tokenId",
          "type": "uint256"
        },
        {
          "internalType": "uint256",
          "name": "mask",
          "type": "uint256"
        }
      ],
      "name": "setBitmask",
      "outputs": [],
      "stateMutability": "nonpayable",
      "type": "function"
    },
    {
      "inputs": [
        {
          "internalType": "uint256",
          "name": "tokenId",
          "type": "uint256"
        },
        {
          "internalType": "uint256",
          "name": "timestamp",
          "type": "uint256"
        },
        {
          "components": [
            {
              "internalType": "uint256",
              "name": "value",
              "type": "uint256"
            },
            {
              "internalType": "enum ChargeType",
              "name": "chargeType",
              "type": "uint8"
            },
            {
              "internalType": "address",
              "name": "token",
              "type": "address"
            },
            {
              "internalType": "address",
              "name": "recipient",
              "type": "address"
            }
          ],
          "internalType": "struct Charge",
          "name": "",
          "type": "tuple"
        }
      ],
      "name": "setExpiration",
      "outputs": [],
      "stateMutability": "nonpayable",
      "type": "function"
    },
    {
      "inputs": [
        {
          "internalType": "address",
          "name": "_metadataDescriptor",
          "type": "address"
        }
      ],
      "name": "setMetadataDescriptor",
      "outputs": [],
      "stateMutability": "nonpayable",
      "type": "function"
    },
    {
      "inputs": [
        {
          "internalType": "address",
          "name": "account",
          "type": "address"
        }
      ],
      "name": "setSuperAdmin",
      "outputs": [],
      "stateMutability": "nonpayable",
      "type": "function"
    },
    {
      "inputs": [
        {
          "internalType": "uint256",
          "name": "tokenId_",
          "type": "uint256"
        }
      ],
      "name": "slotOf",
      "outputs": [
        {
          "internalType": "uint256",
          "name": "",
          "type": "uint256"
        }
      ],
      "stateMutability": "view",
      "type": "function"
    },
    {
      "inputs": [
        {
          "internalType": "uint256",
          "name": "slot_",
          "type": "uint256"
        }
      ],
      "name": "slotURI",
      "outputs": [
        {
          "internalType": "string",
          "name": "",
          "type": "string"
        }
      ],
      "stateMutability": "view",
      "type": "function"
    },
    {
      "inputs": [
        {
          "internalType": "bytes4",
          "name": "interfaceId",
          "type": "bytes4"
        }
      ],
      "name": "supportsInterface",
      "outputs": [
        {
          "internalType": "bool",
          "name": "",
          "type": "bool"
        }
      ],
      "stateMutability": "view",
      "type": "function"
    },
    {
      "inputs": [],
      "name": "symbol",
      "outputs": [
        {
          "internalType": "string",
          "name": "",
          "type": "string"
        }
      ],
      "stateMutability": "view",
      "type": "function"
    },
    {
      "inputs": [
        {
          "internalType": "uint256",
          "name": "index_",
          "type": "uint256"
        }
      ],
      "name": "tokenByIndex",
      "outputs": [
        {
          "internalType": "uint256",
          "name": "",
          "type": "uint256"
        }
      ],
      "stateMutability": "view",
      "type": "function"
    },
    {
      "inputs": [
        {
          "internalType": "address",
          "name": "owner_",
          "type": "address"
        },
        {
          "internalType": "uint256",
          "name": "index_",
          "type": "uint256"
        }
      ],
      "name": "tokenOfOwnerByIndex",
      "outputs": [
        {
          "internalType": "uint256",
          "name": "",
          "type": "uint256"
        }
      ],
      "stateMutability": "view",
      "type": "function"
    },
    {
      "inputs": [
        {
          "internalType": "uint256",
          "name": "tokenId_",
          "type": "uint256"
        }
      ],
      "name": "tokenURI",
      "outputs": [
        {
          "internalType": "string",
          "name": "",
          "type": "string"
        }
      ],
      "stateMutability": "view",
      "type": "function"
    },
    {
      "inputs": [],
      "name": "totalSupply",
      "outputs": [
        {
          "internalType": "uint256",
          "name": "",
          "type": "uint256"
        }
      ],
      "stateMutability": "view",
      "type": "function"
    },
    {
      "inputs": [
        {
          "internalType": "address",
          "name": "previousManager",
          "type": "address"
        },
        {
          "internalType": "address",
          "name": "newManager",
          "type": "address"
        },
        {
          "internalType": "uint256",
          "name": "network",
          "type": "uint256"
        }
      ],
      "name": "transferDAOManager",
      "outputs": [],
      "stateMutability": "nonpayable",
      "type": "function"
    },
    {
      "inputs": [
        {
          "internalType": "uint256",
          "name": "fromTokenId_",
          "type": "uint256"
        },
        {
          "internalType": "address",
          "name": "to_",
          "type": "address"
        },
        {
          "internalType": "uint256",
          "name": "value_",
          "type": "uint256"
        }
      ],
      "name": "transferFrom",
      "outputs": [
        {
          "internalType": "uint256",
          "name": "newTokenId",
          "type": "uint256"
        }
      ],
      "stateMutability": "payable",
      "type": "function"
    },
    {
      "inputs": [
        {
          "internalType": "address",
          "name": "from_",
          "type": "address"
        },
        {
          "internalType": "address",
          "name": "to_",
          "type": "address"
        },
        {
          "internalType": "uint256",
          "name": "tokenId_",
          "type": "uint256"
        }
      ],
      "name": "transferFrom",
      "outputs": [],
      "stateMutability": "payable",
      "type": "function"
    },
    {
      "inputs": [
        {
          "internalType": "uint256",
          "name": "fromTokenId_",
          "type": "uint256"
        },
        {
          "internalType": "uint256",
          "name": "toTokenId_",
          "type": "uint256"
        },
        {
          "internalType": "uint256",
          "name": "value_",
          "type": "uint256"
        }
      ],
      "name": "transferFrom",
      "outputs": [],
      "stateMutability": "payable",
      "type": "function"
    },
    {
      "inputs": [],
      "name": "transfersRestricted",
      "outputs": [
        {
          "internalType": "bool",
          "name": "",
          "type": "bool"
        }
      ],
      "stateMutability": "view",
      "type": "function"
    },
    {
      "inputs": [
        {
          "internalType": "uint256",
          "name": "tokenId",
          "type": "uint256"
        }
      ],
      "name": "unfreeze",
      "outputs": [],
      "stateMutability": "nonpayable",
      "type": "function"
    },
    {
      "inputs": [
        {
          "internalType": "address",
          "name": "flagsStorage",
          "type": "address"
        }
      ],
      "name": "updateFlagsStorage",
      "outputs": [],
      "stateMutability": "nonpayable",
      "type": "function"
    },
    {
      "inputs": [
        {
          "internalType": "address",
          "name": "newImplementation",
          "type": "address"
        }
      ],
      "name": "upgradeTo",
      "outputs": [],
      "stateMutability": "nonpayable",
      "type": "function"
    },
    {
      "inputs": [
        {
          "internalType": "address",
          "name": "newImplementation",
          "type": "address"
        },
        {
          "internalType": "bytes",
          "name": "data",
          "type": "bytes"
        }
      ],
      "name": "upgradeToAndCall",
      "outputs": [],
      "stateMutability": "payable",
      "type": "function"
    },
    {
      "inputs": [],
      "name": "valueDecimals",
      "outputs": [
        {
          "internalType": "uint8",
          "name": "",
          "type": "uint8"
        }
      ],
      "stateMutability": "view",
      "type": "function"
    },
    {
      "inputs": [
        {
          "internalType": "address",
          "name": "owner",
          "type": "address"
        },
        {
          "internalType": "uint256",
          "name": "network",
          "type": "uint256"
        }
      ],
      "name": "verifyToken",
      "outputs": [
        {
          "internalType": "bool",
          "name": "",
          "type": "bool"
        }
      ],
      "stateMutability": "view",
      "type": "function"
    },
    {
      "inputs": [
        {
          "internalType": "uint256",
          "name": "tokenId",
          "type": "uint256"
        }
      ],
      "name": "verifyToken",
      "outputs": [
        {
          "internalType": "bool",
          "name": "",
          "type": "bool"
        }
      ],
      "stateMutability": "view",
      "type": "function"
    },
    {
      "inputs": [
        {
          "internalType": "uint256",
          "name": "amount",
          "type": "uint256"
        }
      ],
      "name": "withdraw",
      "outputs": [
        {
          "internalType": "bool",
          "name": "",
          "type": "bool"
        }
      ],
      "stateMutability": "nonpayable",
      "type": "function"
    }
  ],
  "bytecode": "0x60a0604052306080523480156200001557600080fd5b50600054610100900460ff1615808015620000375750600054600160ff909116105b8062000067575062000054306200022060201b620025c11760201c565b15801562000067575060005460ff166001145b620000bf5760405162461bcd60e51b815260206004820152602e602482015260008051602062005bfa83398151915260448201526d191e481a5b9a5d1a585b1a5e995960921b60648201526084015b60405180910390fd5b6000805460ff191660011790558015620000e3576000805461ff0019166101001790555b801562000119576000805461ff00191690556040516001815260008051602062005c1a8339815191529060200160405180910390a15b50600054610100900460ff16158080156200013b5750600054600160ff909116105b806200016b575062000158306200022060201b620025c11760201c565b1580156200016b575060005460ff166001145b620001bf5760405162461bcd60e51b815260206004820152602e602482015260008051602062005bfa83398151915260448201526d191e481a5b9a5d1a585b1a5e995960921b6064820152608401620000b6565b6000805460ff191660011790558015620001e3576000805461ff0019166101001790555b801562000219576000805461ff00191690556040516001815260008051602062005c1a8339815191529060200160405180910390a15b506200022f565b6001600160a01b03163b151590565b60805161599362000267600039600081816115c701528181611607015281816117400152818161178001526118b301526159936000f3fe6080604052600436106103d15760003560e01c806370f08160116101f9578063b4bd85791161011e578063df2a7fe1116100b6578063e71fb1101161007a578063e71fb11014610c72578063e8a3d48514610c92578063e985e9c514610ca7578063ff17e23214610cf4578063ff85a97514610d1457600080fd5b8063df2a7fe114610ba8578063df7f453b14610bc8578063e0ed6a3114610c01578063e345e0bc14610c21578063e4b50cb814610c4157600080fd5b8063b4bd857914610a93578063b5d6163514610ab3578063b88d4fde14610ad3578063babb898d14610ae6578063c2a366fb14610b06578063c58dbbed14610b26578063c87b56dd14610b46578063d6fd317514610b66578063d7a78db814610b8857600080fd5b806395d89b411161019157806395d89b411461097957806395ea57171461098e5780639c7525e6146109ae5780639cc7f708146109ce578063a05b775f146109ee578063a217fddf14610a0e578063a22cb46514610a23578063a578c09314610a43578063a8fa8e0d14610a7357600080fd5b806370f08160146108705780637dbded281461089057806381e9ff19146108b057806382d66d5f146108d2578063840f7113146108f25780638423df79146109125780638cb0a511146109265780638eb7a7761461093957806390eddd521461095957600080fd5b80633568dd29116102fa57806351da912d116102925780636352211e116102565780636352211e146107ce5780636623fc46146107ee5780636dba27291461080e5780636f7caf411461082e57806370a082311461085057600080fd5b806351da912d1461072057806352d1902d14610740578063572b6c05146107555780635c41d2fe1461078e5780635e79b726146107ae57600080fd5b80633568dd29146106185780633659cfe61461063857806336e45041146106585780633e7e86691461067857806342842e0e1461069a57806342966c68146106ad5780634d93172d146106cd5780634f1ef286146106ed5780634f6ccce71461070057600080fd5b806320c5429b1161036d57806320c5429b1461051257806323b872dd14610532578063263f3e7e146105455780632d33d27a146105655780632e1a7d4d146105855780632f745c59146105a5578063310ed7f0146105c557806331416a29146105d857806334e37b8a146105f857600080fd5b806301ffc9a7146103d657806306fdde031461040b578063081812fc1461042d578063095ea7b31461045a57806309c3dd871461046f5780630f485c021461048f5780631442f521146104b057806315700052146104dd57806318160ddd146104fd575b600080fd5b3480156103e257600080fd5b506103f66103f1366004614c12565b610d34565b60405190151581526020015b60405180910390f35b34801561041757600080fd5b50610420610d95565b6040516104029190614c87565b34801561043957600080fd5b5061044d610448366004614c9a565b610e27565b6040516104029190614cb3565b61046d610468366004614cde565b610e79565b005b34801561047b57600080fd5b5061042061048a366004614c9a565b610f6c565b6104a261049d366004614d08565b61106d565b604051908152602001610402565b3480156104bc57600080fd5b506104d06104cb366004614cde565b6110ac565b6040516104029190614d3d565b3480156104e957600080fd5b5061046d6104f8366004614d81565b611163565b34801561050957600080fd5b50609d546104a2565b34801561051e57600080fd5b5061046d61052d366004614c9a565b6111c3565b61046d610540366004614d9c565b611217565b34801561055157600080fd5b506104a2610560366004614c9a565b61124f565b34801561057157600080fd5b5060cc5461044d906001600160a01b031681565b34801561059157600080fd5b506103f66105a0366004614c9a565b611297565b3480156105b157600080fd5b506104a26105c0366004614cde565b611316565b61046d6105d3366004614dc8565b6113b7565b3480156105e457600080fd5b5061046d6105f3366004614eb7565b6113d4565b34801561060457600080fd5b5061046d610613366004614d81565b61158b565b34801561062457600080fd5b5061046d610633366004614cde565b61159f565b34801561064457600080fd5b5061046d610653366004614d81565b6115bc565b34801561066457600080fd5b5061046d610673366004614fcc565b611682565b34801561068457600080fd5b50609a5460405160ff9091168152602001610402565b61046d6106a8366004614d9c565b6116d8565b3480156106b957600080fd5b5061046d6106c8366004614c9a565b6116f3565b3480156106d957600080fd5b5061046d6106e8366004614d81565b611708565b61046d6106fb366004615001565b611735565b34801561070c57600080fd5b506104a261071b366004614c9a565b6117eb565b34801561072c57600080fd5b5061046d61073b36600461504e565b61187c565b34801561074c57600080fd5b506104a26118a6565b34801561076157600080fd5b506103f6610770366004614d81565b6001600160a01b031660009081526097602052604090205460ff1690565b34801561079a57600080fd5b5061046d6107a9366004614d81565b611954565b3480156107ba57600080fd5b5061046d6107c9366004615088565b611984565b3480156107da57600080fd5b5061044d6107e9366004614c9a565b61199a565b3480156107fa57600080fd5b5061046d610809366004614c9a565b611a05565b34801561081a57600080fd5b506103f6610829366004614cde565b611a1a565b34801561083a57600080fd5b506104a26000805160206158d783398151915281565b34801561085c57600080fd5b506104a261086b366004614d81565b611a35565b34801561087c57600080fd5b5061046d61088b366004614cde565b611abd565b34801561089c57600080fd5b5061046d6108ab3660046150c3565b611ad6565b3480156108bc57600080fd5b506104a260008051602061585783398151915281565b3480156108de57600080fd5b5061046d6108ed366004614cde565b611ca3565b3480156108fe57600080fd5b5060a05461044d906001600160a01b031681565b34801561091e57600080fd5b5060016103f6565b61046d610934366004614d08565b611cbc565b34801561094557600080fd5b5061046d610954366004614fcc565b611d77565b34801561096557600080fd5b5061046d610974366004614cde565b611d9e565b34801561098557600080fd5b50610420611db7565b34801561099a57600080fd5b506104206109a9366004614c9a565b611dc6565b3480156109ba57600080fd5b5061046d6109c936600461512c565b611e68565b3480156109da57600080fd5b506104a26109e9366004614c9a565b611f17565b3480156109fa57600080fd5b506104a2610a09366004614c9a565b611f5f565b348015610a1a57600080fd5b506104a2600081565b348015610a2f57600080fd5b5061046d610a3e36600461515c565b611f7d565b348015610a4f57600080fd5b506103f6610a5e366004614c9a565b60ce6020526000908152604090205460ff1681565b348015610a7f57600080fd5b5061046d610a8e366004614d9c565b611f8f565b348015610a9f57600080fd5b506104a2610aae366004614c9a565b612107565b348015610abf57600080fd5b5061046d610ace366004614fcc565b61211b565b61046d610ae1366004615193565b61213b565b348015610af257600080fd5b506103f6610b01366004614fcc565b61216e565b348015610b1257600080fd5b506103f6610b21366004614cde565b61219f565b348015610b3257600080fd5b5061046d610b41366004614d81565b6121ba565b348015610b5257600080fd5b50610420610b61366004614c9a565b612217565b348015610b7257600080fd5b506104a260008051602061587783398151915281565b348015610b9457600080fd5b5061046d610ba3366004614c9a565b6122b6565b348015610bb457600080fd5b506104a2610bc336600461504e565b6122cb565b348015610bd457600080fd5b506103f6610be3366004614d81565b6001600160a01b0316600090815260cb602052604090205460ff1690565b348015610c0d57600080fd5b5061046d610c1c3660046151fa565b6122ea565b348015610c2d57600080fd5b506104a2610c3c36600461524c565b612374565b348015610c4d57600080fd5b50610c61610c5c366004614c9a565b6123a8565b604051610402959493929190615278565b348015610c7e57600080fd5b5061046d610c8d366004614d81565b612408565b348015610c9e57600080fd5b50610420612419565b348015610cb357600080fd5b506103f6610cc23660046152b9565b6001600160a01b039182166000908152609f602090815260408083209390941682526002909201909152205460ff1690565b348015610d0057600080fd5b506103f6610d0f366004614cde565b612522565b348015610d2057600080fd5b506103f6610d2f366004614c9a565b6125b4565b60006001600160e01b03198216630354d60560e61b1480610d6557506001600160e01b031982166380ac58cd60e01b145b80610d8057506001600160e01b031982166370b0048160e11b145b80610d8f5750610d8f826125d0565b92915050565b606060988054610da4906152e3565b80601f0160208091040260200160405190810160405280929190818152602001828054610dd0906152e3565b8015610e1d5780601f10610df257610100808354040283529160200191610e1d565b820191906000526020600020905b815481529060010190602001808311610e0057829003601f168201915b5050505050905090565b6000610e3282612605565b6000828152609e6020526040902054609d80549091908110610e5657610e56615318565b60009182526020909120600460069092020101546001600160a01b031692915050565b6000610e848261199a565b9050806001600160a01b0316836001600160a01b03161415610ec15760405162461bcd60e51b8152600401610eb89061532e565b60405180910390fd5b806001600160a01b0316610ed361262a565b6001600160a01b03161480610eef5750610eef81610cc261262a565b610f5d5760405162461bcd60e51b815260206004820152603960248201527f455243333532353a20617070726f76652063616c6c6572206973206e6f74206f6044820152781ddb995c881b9bdc88185c1c1c9bdd995908199bdc88185b1b603a1b6064820152608401610eb8565b610f678383612639565b505050565b60606000610f8560408051602081019091526000815290565b60a0549091506001600160a01b0316610fe5576000815111610fb65760405180602001604052806000815250611066565b80610fc0846126d0565b604051602001610fd1929190615370565b604051602081830303815290604052611066565b60a054604051633601bfc560e11b8152600481018590526001600160a01b0390911690636c037f8a906024015b60006040518083038186803b15801561102a57600080fd5b505afa15801561103e573d6000803e3d6000fd5b505050506040513d6000823e601f3d908101601f1916820160405261106691908101906153b0565b9392505050565b600061108161107a61262a565b858461276c565b61108a846127e7565b90506110a1838261109a8761124f565b60006127f1565b611066848284612913565b60606000806110bb8585612bf2565b915091506000816001600160401b038111156110d9576110d9614df4565b604051908082528060200260200182016040528015611102578160200160208202803683370190505b50905060005b828110156111595783818151811061112257611122615318565b602002602001015182828151811061113c5761113c615318565b60209081029190910101528061115181615433565b915050611108565b5095945050505050565b61116b612cb8565b6040516001600160a01b038216907f286f82d2b1e37b5e9f33e455d014b4a5f6c29388e6e41e1281d4c83e04f4265590600090a26001600160a01b0316600090815260cb60205260409020805460ff19166001179055565b6111d46111cf8261124f565b612cca565b600081815260cf6020526040808220805460ff191660021790555182917fdb43aa42235c8d63908794a952603e8d43a549383d13123c3d893a3fc2e6249591a250565b61122861122261262a565b50600090565b6112445760405162461bcd60e51b8152600401610eb890615464565b610f67838383612ce2565b600061125a82612605565b6000828152609e6020526040902054609d8054909190811061127e5761127e615318565b9060005260206000209060060201600101549050919050565b60006112a1612cb8565b478211156112cb5760405163c387351760e01b815247600482015260248101839052604401610eb8565b6112d361262a565b6001600160a01b03166108fc839081150290604051600060405180830381858888f1935050505015801561130b573d6000803e3d6000fd5b50600190505b919050565b600061132183611a35565b821061137a5760405162461bcd60e51b815260206004820152602260248201527f455243333532353a206f776e657220696e646578206f7574206f6620626f756e604482015261647360f01b6064820152608401610eb8565b6001600160a01b0383166000908152609f602052604090208054839081106113a4576113a4615318565b9060005260206000200154905092915050565b6113c96113c261262a565b848361276c565b610f67838383612913565b600054610100900460ff16158080156113f45750600054600160ff909116105b806114155750611403306125c1565b158015611415575060005460ff166001145b6114315760405162461bcd60e51b8152600401610eb8906154b6565b6000805460ff191660011790558015611454576000805461ff0019166101001790555b6001600160a01b03841661147b57604051630ca2c90160e21b815260040160405180910390fd5b6001600160a01b0383166114a257604051630ca2c90160e21b815260040160405180910390fd5b60005b825181101561150d5760006001600160a01b03168382815181106114cb576114cb615318565b60200260200101516001600160a01b031614156114fb57604051630ca2c90160e21b815260040160405180910390fd5b8061150581615433565b9150506114a5565b5061151a86866000612e31565b61152382612e63565b61152c83612f2c565b6001600160a01b038416600090815260cb60205260409020805460ff191660011790558015611583576000805461ff0019169055604051600181526000805160206158f78339815191529060200160405180910390a15b505050505050565b611593612cb8565b61159c81612f2c565b50565b6115b86000805160206158778339815191528284611d77565b5050565b306001600160a01b037f00000000000000000000000000000000000000000000000000000000000000001614156116055760405162461bcd60e51b8152600401610eb890615504565b7f00000000000000000000000000000000000000000000000000000000000000006001600160a01b0316611637612f76565b6001600160a01b03161461165d5760405162461bcd60e51b8152600401610eb890615550565b61166681612f92565b6040805160008082526020820190925261159c91839190612f9a565b61168a61262a565b6001600160a01b0316816001600160a01b0316146116cd576040516307ca099360e31b8152600481018490526001600160a01b0382166024820152604401610eb8565b610f67838383613114565b610f678383836040518060200160405280600081525061213b565b6116ff6111cf8261124f565b61159c816131b0565b611710612cb8565b61159c816001600160a01b03166000908152609760205260409020805460ff19169055565b306001600160a01b037f000000000000000000000000000000000000000000000000000000000000000016141561177e5760405162461bcd60e51b8152600401610eb890615504565b7f00000000000000000000000000000000000000000000000000000000000000006001600160a01b03166117b0612f76565b6001600160a01b0316146117d65760405162461bcd60e51b8152600401610eb890615550565b6117df82612f92565b6115b882826001612f9a565b60006117f6609d5490565b82106118505760405162461bcd60e51b815260206004820152602360248201527f455243333532353a20676c6f62616c20696e646578206f7574206f6620626f756044820152626e647360e81b6064820152608401610eb8565b609d828154811061186357611863615318565b9060005260206000209060060201600001549050919050565b61189c6000805160206158778339815191526118978461124f565b6132ad565b6115b882826132ba565b6000306001600160a01b037f000000000000000000000000000000000000000000000000000000000000000016146119415760405162461bcd60e51b815260206004820152603860248201527f555550535570677261646561626c653a206d757374206e6f742062652063616c6044820152771b1959081d1a1c9bdd59da0819195b1959d85d1958d85b1b60421b6064820152608401610eb8565b506000805160206158b783398151915290565b61195c612cb8565b61159c816001600160a01b03166000908152609760205260409020805460ff19166001179055565b6119906111cf8461124f565b610f678383613302565b60006119a582612605565b6000828152609e6020526040902054609d805490919081106119c9576119c9615318565b60009182526020909120600360069092020101546001600160a01b03169050806113115760405162461bcd60e51b8152600401610eb89061559c565b611a116111cf8261124f565b61159c8161335e565b6000611066600080516020615877833981519152838561216e565b60006001600160a01b038216611aa15760405162461bcd60e51b815260206004820152602b60248201527f455243333532353a2062616c616e636520717565727920666f7220746865207a60448201526a65726f206164647265737360a81b6064820152608401610eb8565b506001600160a01b03166000908152609f602052604090205490565b6115b8600080516020615877833981519152828461211b565b600084815260d1602052604090208054611aef906152e3565b159050611b1257604051636f55f62b60e01b815260048101859052602401610eb8565b600084815260d1602090815260409091208451611b3192860190614af0565b508115611c2f57600084815260ce60205260409020805460ff19168315151790556001600160a01b038116611b7957604051630ca2c90160e21b815260040160405180910390fd5b611b8b816001600160a01b03166125c1565b611baa578060405163d4daafa160e01b8152600401610eb89190614cb3565b611bc36000805160206158578339815191528583613405565b611bdc6000805160206158d78339815191528583613405565b611c036000805160206158d783398151915285600080516020615857833981519152613496565b611c2a60008051602061587783398151915285600080516020615857833981519152613496565b611c9d565b611c4f6000805160206158d783398151915285611c4a61262a565b613405565b611c766000805160206158d7833981519152856000805160206158d7833981519152613496565b611c9d600080516020615877833981519152856000805160206158d7833981519152613496565b50505050565b6115b86000805160206158d78339815191528284611d77565b6000611cc78461199a565b9050806001600160a01b0316836001600160a01b03161415611cfb5760405162461bcd60e51b8152600401610eb89061532e565b611d0661122261262a565b611d6c5760405162461bcd60e51b815260206004820152603160248201527f455243333532353a20617070726f76652063616c6c6572206973206e6f74206f6044820152701ddb995c881b9bdc88185c1c1c9bdd9959607a1b6064820152608401610eb8565b611c9d848484613501565b611d8183836122cb565b82611d8c82826132ad565b611d97858585613114565b5050505050565b6115b86000805160206158d7833981519152828461211b565b606060998054610da4906152e3565b600081815260d160205260409020805460609190611de3906152e3565b80601f0160208091040260200160405190810160405280929190818152602001828054611e0f906152e3565b8015611e5c5780601f10611e3157610100808354040283529160200191611e5c565b820191906000526020600020905b815481529060010190602001808311611e3f57829003601f168201915b50505050509050919050565b600082815260d1602052604090208054611e81906152e3565b15159050611ea557604051630817886d60e41b815260048101839052602401610eb8565b611ec06000805160206158d783398151915283610b0161262a565b611ef857611ecc61262a565b826000805160206158d783398151915260405163c8c801a760e01b8152600401610eb8939291906155cf565b600082815260d1602090815260409091208251610f6792840190614af0565b6000611f2282612605565b6000828152609e6020526040902054609d80549091908110611f4657611f46615318565b9060005260206000209060060201600201549050919050565b6000611f6a82613639565b50600090815260d0602052604090205490565b6115b8611f8861262a565b8383613662565b600081815260ce602052604090205460ff16611fc15760405163db53ce7160e01b815260048101829052602401610eb8565b611fda600080516020615857833981519152828561372d565b611ffa60008051602061585783398151915282611ff561262a565b61372d565b6001600160a01b03821661202157604051630ca2c90160e21b815260040160405180910390fd5b61203a600080516020615857833981519152828461211b565b6120536000805160206158d7833981519152828461211b565b61206c600080516020615877833981519152828461211b565b6120856000805160206158778339815191528285611d77565b61209e6000805160206158d78339815191528285611d77565b6120b76000805160206158578339815191528285611d77565b604080516001600160a01b038086168252841660208201529081018290527f744258a28673e8738e2812c0ab8e8dbd70352f8871b1febac0dd753d96d79f589060600160405180910390a1505050565b600081815260cd6020526040812054610d8f565b61212583836122cb565b8261213082826132ad565b611d97858585613405565b61214661122261262a565b6121625760405162461bcd60e51b8152600401610eb890615464565b611c9d8484848461375b565b600091825260ca602090815260408084209484529381528383206001600160a01b0392909216835252205460ff1690565b60006110666000805160206158d7833981519152838561216e565b6121c2612cb8565b6040516001600160a01b038216907ffb445f6ec07647d2bb7af72821e6b8b7303ec375e934d4a338d38ed5846c2d5690600090a26001600160a01b0316600090815260cb60205260409020805460ff19169055565b606061222282612605565b600061223960408051602081019091526000815290565b60a0549091506001600160a01b031661228557600081511161226a5760405180602001604052806000815250611066565b80612274846126d0565b604051602001610fd19291906155f0565b60a0546040516344a5a61760e11b8152600481018590526001600160a01b039091169063894b4c2e90602401611012565b6122c26111cf8261124f565b61159c816137ce565b600090815260ca60209081526040808320938352929052206001015490565b6122f384612cca565b60006123018686600161381c565b9050600084116123535760405162461bcd60e51b815260206004820181905260248201527f54455354204d4f44453a20457870697279206d757374206265203e207a65726f6044820152606401610eb8565b600081815260d06020526040902084905582156115835761158381846132ba565b600061237f83612605565b506000918252609c602090815260408084206001600160a01b0393909316845291905290205490565b60008060606000806123b98661199a565b600087815260cf602052604090205490955060ff1660028111156123df576123df61544e565b600096875260d0602090815260408089205460cd90925290972054959790969395939450915050565b612410612cb8565b61159c81613834565b6060600061243260408051602081019091526000815290565b60a0549091506001600160a01b0316612492576000815111612463576040518060200160405280600081525061251c565b8061246d3061387e565b60405160200161247e92919061561f565b60405160208183030381529060405261251c565b60a060009054906101000a90046001600160a01b03166001600160a01b031663725fa09c6040518163ffffffff1660e01b815260040160006040518083038186803b1580156124e057600080fd5b505afa1580156124f4573d6000803e3d6000fd5b505050506040513d6000823e601f3d908101601f1916820160405261251c91908101906153b0565b91505090565b60008060006125318585612bf2565b9150915060005b818110156125a85782818151811061255257612552615318565b60200260200101516000146125965761258583828151811061257657612576615318565b60200260200101516000613894565b156125965760019350505050610d8f565b806125a081615433565b915050612538565b50600095945050505050565b6000610d8f826000613894565b6001600160a01b03163b151590565b60006001600160e01b031982166333cb74f560e11b1480610d8f57506301ffc9a760e01b6001600160e01b0319831614610d8f565b61260e81613939565b61159c5760405162461bcd60e51b8152600401610eb89061559c565b6000612634613985565b905090565b6000818152609e6020526040902054609d8054849290811061265d5761265d615318565b6000918252602090912060069091020160040180546001600160a01b0319166001600160a01b03928316179055819083166126978261199a565b6001600160a01b03167f8c5be1e5ebec7d5bd14f71427d1e84f3dd0314c0f7b2291e5b200ac8c7c3b92560405160405180910390a45050565b606060006126dd836139af565b60010190506000816001600160401b038111156126fc576126fc614df4565b6040519080825280601f01601f191660200182016040528015612726576020820181803683370190505b5090508181016020015b600019016f181899199a1a9b1b9c1cb0b131b232b360811b600a86061a8153600a850494508461275f57612764565b612730565b509392505050565b60006127788385612374565b90506000198114611c9d57818110156127d35760405162461bcd60e51b815260206004820152601f60248201527f455243333532353a20696e73756666696369656e7420616c6c6f77616e6365006044820152606401610eb8565b611c9d83856127e28585615663565b613501565b6000610d8f613a87565b6001600160a01b0384166128515760405162461bcd60e51b815260206004820152602160248201527f455243333532353a206d696e7420746f20746865207a65726f206164647265736044820152607360f81b6064820152608401610eb8565b826128a85760405162461bcd60e51b815260206004820152602160248201527f455243333532353a2063616e6e6f74206d696e74207a65726f20746f6b656e496044820152601960fa1b6064820152608401610eb8565b6128b183613939565b156128fe5760405162461bcd60e51b815260206004820152601d60248201527f455243333532353a20746f6b656e20616c7265616479206d696e7465640000006044820152606401610eb8565b612909848484613a9e565b611c2a8382613b52565b61291c83613939565b6129785760405162461bcd60e51b815260206004820152602760248201527f455243333532353a207472616e736665722066726f6d20696e76616c696420746044820152661bdad95b88125160ca1b6064820152608401610eb8565b61298182613939565b6129db5760405162461bcd60e51b815260206004820152602560248201527f455243333532353a207472616e7366657220746f20696e76616c696420746f6b604482015264195b88125160da1b6064820152608401610eb8565b6000838152609e6020526040812054609d805490919081106129ff576129ff615318565b906000526020600020906006020190506000609d609e60008681526020019081526020016000205481548110612a3757612a37615318565b906000526020600020906006020190508282600201541015612aae5760405162461bcd60e51b815260206004820152602a60248201527f455243333532353a20696e73756666696369656e742062616c616e636520666f60448201526939103a3930b739b332b960b11b6064820152608401610eb8565b8060010154826001015414612b1c5760405162461bcd60e51b815260206004820152602e60248201527f455243333532353a207472616e7366657220746f20746f6b656e20776974682060448201526d191a5999995c995b9d081cdb1bdd60921b6064820152608401610eb8565b82826002016000828254612b309190615663565b9250508190555082816002016000828254612b4b919061567a565b9091555050604051838152849086906000805160206158978339815191529060200160405180910390a3612b9085858560405180602001604052806000815250613bc5565b611d975760405162461bcd60e51b815260206004820152602d60248201527f455243333532353a207472616e736665722072656a656374656420627920455260448201526c21999a991aa932b1b2b4bb32b960991b6064820152608401610eb8565b6060600080612c0085611a35565b6001600160401b03811115612c1757612c17614df4565b604051908082528060200260200182016040528015612c40578160200160208202803683370190505b5090506000805b8251811015612cac576000612c5c8883611316565b905086612c688261124f565b1415612c9957808484612c7a81615433565b955081518110612c8c57612c8c615318565b6020026020010181815250505b5080612ca481615433565b915050612c47565b50909590945092505050565b612cc8612cc361262a565b613d26565b565b61159c600080516020615877833981519152826132ad565b826001600160a01b0316612cf58261199a565b6001600160a01b031614612d575760405162461bcd60e51b8152602060048201526024808201527f455243333532353a207472616e736665722066726f6d20696e76616c6964206f6044820152633bb732b960e11b6064820152608401610eb8565b6001600160a01b038216612dbb5760405162461bcd60e51b815260206004820152602560248201527f455243333532353a207472616e7366657220746f20746865207a65726f206164604482015264647265737360d81b6064820152608401610eb8565b6000612dc68261124f565b90506000612dd383611f17565b9050612de0600084612639565b612de983613d61565b612df38584613e0c565b612dfd8484613f2d565b82846001600160a01b0316866001600160a01b031660008051602061593e83398151915260405160405180910390a4611d97565b600054610100900460ff16612e585760405162461bcd60e51b8152600401610eb890615692565b610f67838383613fb6565b600054610100900460ff1615808015612e835750600054600160ff909116105b80612ea45750612e92306125c1565b158015612ea4575060005460ff166001145b612ec05760405162461bcd60e51b8152600401610eb8906154b6565b6000805460ff191660011790558015612ee3576000805461ff0019166101001790555b612eeb61401d565b612ef482614044565b80156115b8576000805461ff0019169055604051600181526000805160206158f7833981519152906020015b60405180910390a15050565b60cc80546001600160a01b0319166001600160a01b0383169081179091556040517f5e4a30f4224898dbac86adca855a5edd3b8341a3aeb2b6ff0f0b5a82c013b65a90600090a250565b6000805160206158b7833981519152546001600160a01b031690565b61159c612cb8565b7f4910fdfa16fed3260ed0e7147f7cc6da11a60208b5b9406d12a635614ffd91435460ff1615612fcd57610f678361415d565b826001600160a01b03166352d1902d6040518163ffffffff1660e01b815260040160206040518083038186803b15801561300657600080fd5b505afa925050508015613036575060408051601f3d908101601f19168201909252613033918101906156dd565b60015b6130995760405162461bcd60e51b815260206004820152602e60248201527f45524331393637557067726164653a206e657720696d706c656d656e7461746960448201526d6f6e206973206e6f74205555505360901b6064820152608401610eb8565b6000805160206158b783398151915281146131085760405162461bcd60e51b815260206004820152602960248201527f45524331393637557067726164653a20756e737570706f727465642070726f786044820152681a58589b195555525160ba1b6064820152608401610eb8565b50610f678383836141f7565b61311f83838361216e565b15610f6757600082815260ca6020908152604080832086845282528083206001600160a01b03851684529091529020805460ff1916905561315e61262a565b6001600160a01b0316816001600160a01b0316847f6f9148fcdc32766ca802c14716295d56eab7ed848d0dba113966f40087c88390856040516131a391815260200190565b60405180910390a4505050565b6131b981612605565b6000818152609e6020526040812054609d805490919081106131dd576131dd615318565b60009182526020909120600691909102016003810154600182015460028301549293506001600160a01b039091169161321585613d61565b61321f8386613e0c565b6132288561421c565b6000856000805160206158978339815191528360405161324a91815260200190565b60405180910390a3600082867fe4f48c240d3b994948aa54f3e2f5fca59263dfe1d52b6e4cf39a5d249b5ccb6560405160405180910390a460405185906000906001600160a01b0386169060008051602061593e833981519152908390a4611d97565b6115b88282611ff561262a565b600082815260cd602090815260409182902083905581518481529081018390527f5e07998cef9cea674942c66f0ea7b0bce89ab9473ce240cc93d616c3491f8aeb9101612f20565b61330d82600161442a565b600082815260d06020526040908190208290555182907f1ebc57da8b3ebab98506502fbb73232ea29fbe86e4963a5a8c004810ad11190d906133529084815260200190565b60405180910390a25050565b61336781613639565b6001600082815260cf602052604090205460ff16600281111561338c5761338c61544e565b146133c557600081815260cf6020526040908190205490516308c9ef2d60e11b8152610eb891839160ff90911690600190600401615718565b600081815260cf6020526040808220805460ff191690555182917fe2babfd5e77285a3c3dbc4b25592cbe4a7a26e97a7ac63067a22ebdaa9b82add91a250565b61341083838361216e565b610f6757600082815260ca6020908152604080832086845282528083206001600160a01b03851684529091529020805460ff1916600117905561345161262a565b6001600160a01b0316816001600160a01b0316847f4dc88bd74ca601684356789d5b3dbc9cd44275b2544e8d35041203703b768232856040516131a391815260200190565b60006134a284846122cb565b600084815260ca6020908152604080832088845282529182902060010185905590518581529192508391839187917f15f4a36186b2284157fe71215a07487f6c8bdc1203b3307c3e1fd9693011d3d3910160405180910390a450505050565b6001600160a01b03821661356a5760405162461bcd60e51b815260206004820152602a60248201527f455243333532353a20617070726f76652076616c756520746f20746865207a65604482015269726f206164647265737360b01b6064820152608401610eb8565b613574828461445c565b6135da576000838152609e6020526040902054609d8054909190811061359c5761359c615318565b60009182526020808320600692909202909101600501805460018101825590835291200180546001600160a01b0319166001600160a01b0384161790555b6000838152609c602090815260408083206001600160a01b038616808552908352928190208490555183815285917f621b050de0ad08b51d19b48b3e6df75348c4de6bdd93e81b252ca62e28265b1b91015b60405180910390a3505050565b61364281613939565b61159c576040516321fbdd2b60e11b815260048101829052602401610eb8565b816001600160a01b0316836001600160a01b031614156136c45760405162461bcd60e51b815260206004820152601a60248201527f455243333532353a20617070726f766520746f2063616c6c65720000000000006044820152606401610eb8565b6001600160a01b038381166000818152609f602090815260408083209487168084526002909501825291829020805460ff191686151590811790915591519182527f17307eab39ab6107e8899845ad3d59bd9653f200f220920489ca2b5937696c31910161362c565b61373883838361216e565b610f675780828460405163c8c801a760e01b8152600401610eb8939291906155cf565b613766848484612ce2565b61377284848484614530565b611c9d5760405162461bcd60e51b815260206004820152602760248201527f455243333532353a207472616e7366657220746f206e6f6e204552433732315260448201526632b1b2b4bb32b960c91b6064820152608401610eb8565b6137d981600161442a565b600081815260cf6020526040808220805460ff191660011790555182917f779fbee689bbd6f006ecb329206d35c7db7380f9837a8826fb8dc5cfcd3d33dd91a250565b6000613826613a87565b9050611066848285856127f1565b60a080546001600160a01b0319166001600160a01b0383169081179091556040517f5252f52e45fc8ee6a7b43cef3645d23e9a470a34182b8b3a12627556635bfc9c90600090a250565b6060610d8f6001600160a01b0383166014614693565b600082815260cf602052604081205460ff16818160028111156138b9576138b961544e565b146138c8576000915050610d8f565b60006138d38561199a565b600086815260d06020526040902054909150158015906138f1575083155b15613925576001600160a01b0381161580159061391c5750600085815260d060205260409020544211155b92505050610d8f565b6001600160a01b031615159150610d8f9050565b609d5460009015801590610d8f57506000828152609e6020526040902054609d8054849290811061396c5761396c615318565b9060005260206000209060060201600001541492915050565b3360009081526097602052604081205460ff16156139aa575060131936013560601c90565b503390565b60008072184f03e93ff9f4daa797ed6e38ed64bf6a1f0160401b83106139ee5772184f03e93ff9f4daa797ed6e38ed64bf6a1f0160401b830492506040015b6d04ee2d6d415b85acef81000000008310613a1a576d04ee2d6d415b85acef8100000000830492506020015b662386f26fc100008310613a3857662386f26fc10000830492506010015b6305f5e1008310613a50576305f5e100830492506008015b6127108310613a6457612710830492506004015b60648310613a76576064830492506002015b600a8310610d8f5760010192915050565b6000613a97609b80546001019055565b50609b5490565b6040805160c081018252838152602080820184905260008284018190526001600160a01b038716606084015260808301819052835181815291820190935260a08201529050613aec8161482e565b613af68484613f2d565b60405183906001600160a01b0386169060009060008051602061593e833981519152908290a4816000847fe4f48c240d3b994948aa54f3e2f5fca59263dfe1d52b6e4cf39a5d249b5ccb6560405160405180910390a450505050565b6000828152609e6020526040902054609d80548392908110613b7657613b76615318565b90600052602060002090600602016002016000828254613b96919061567a565b909155505060405181815282906000906000805160206158978339815191529060200160405180910390a35050565b600080613bd18561199a565b9050613be5816001600160a01b03166125c1565b8015613c6957506040516301ffc9a760e01b8152629ce20b60e01b60048201526001600160a01b038216906301ffc9a79060240160206040518083038186803b158015613c3157600080fd5b505afa158015613c45573d6000803e3d6000fd5b505050506040513d601f19601f82011682018060405250810190613c699190615739565b15613d18576000816001600160a01b0316629ce20b613c8661262a565b898989896040518663ffffffff1660e01b8152600401613caa959493929190615756565b602060405180830381600087803b158015613cc457600080fd5b505af1158015613cd8573d6000803e3d6000fd5b505050506040513d601f19601f82011682018060405250810190613cfc9190615794565b6001600160e01b031916629ce20b60e01b149250613d1e915050565b60019150505b949350505050565b6001600160a01b038116600090815260cb602052604090205460ff1661159c5780604051632957ccdd60e21b8152600401610eb89190614cb3565b6000818152609e6020526040812054609d80549091908110613d8557613d85615318565b600091825260208220600560069092020190810154909250905b81811015613dfd576000836005018281548110613dbe57613dbe615318565b6000918252602080832090910154878352609c825260408084206001600160a01b03909216845291528120555080613df581615433565b915050613d9f565b50610f67600583016000614b74565b6000818152609e6020526040812054609d80549091908110613e3057613e30615318565b6000918252602080832060069290920290910160030180546001600160a01b0319166001600160a01b039485161790559184168152609f909152604081208054909190613e7f90600190615663565b90506000826000018281548110613e9857613e98615318565b90600052602060002001549050600083600101600086815260200190815260200160002054905081846000018281548110613ed557613ed5615318565b60009182526020808320909101929092558381526001860190915260408082208390558682528120558354849080613f0f57613f0f6157b1565b60019003818190600052602060002001600090559055505050505050565b6000818152609e6020526040902054609d80548492908110613f5157613f51615318565b6000918252602080832060069290920290910160030180546001600160a01b0319166001600160a01b03948516179055939091168152609f80845260408083208054858552600182810188529285208190559286529082018155825292902090910155565b600054610100900460ff16613fdd5760405162461bcd60e51b8152600401610eb890615692565b8251613ff0906098906020860190614af0565b508151614004906099906020850190614af0565b50609a805460ff191660ff929092169190911790555050565b600054610100900460ff16612cc85760405162461bcd60e51b8152600401610eb890615692565b600054610100900460ff16158080156140645750600054600160ff909116105b806140855750614073306125c1565b158015614085575060005460ff166001145b6140a15760405162461bcd60e51b8152600401610eb8906154b6565b6000805460ff1916600117905580156140c4576000805461ff0019166101001790555b60005b825181101561412c576001609760008584815181106140e8576140e8615318565b6020908102919091018101516001600160a01b03168252810191909152604001600020805460ff19169115159190911790558061412481615433565b9150506140c7565b5080156115b8576000805461ff0019169055604051600181526000805160206158f783398151915290602001612f20565b614166816125c1565b6141c85760405162461bcd60e51b815260206004820152602d60248201527f455243313936373a206e657720696d706c656d656e746174696f6e206973206e60448201526c1bdd08184818dbdb9d1c9858dd609a1b6064820152608401610eb8565b6000805160206158b783398151915280546001600160a01b0319166001600160a01b0392909216919091179055565b61420083614980565b60008251118061420d5750805b15610f6757611c9d83836149c0565b609d5460009061422e90600190615663565b6000838152609e6020526040812054609d805493945090928490811061425657614256615318565b60009182526020918290206040805160c08101825260069093029091018054835260018101548385015260028101548383015260038101546001600160a01b03908116606085015260048201541660808401526005810180548351818702810187019094528084529394919360a08601939283018282801561430157602002820191906000526020600020905b81546001600160a01b031681526001909101906020018083116142e3575b505050505081525050905080609d838154811061432057614320615318565b600091825260209182902083516006909202019081558282015160018201556040830151600282015560608301516003820180546001600160a01b039283166001600160a01b031991821617909155608085015160048401805491909316911617905560a08301518051919261439e92600585019290910190614b92565b505081516000908152609e602052604080822085905586825281205550609d8054806143cc576143cc6157b1565b60008281526020812060066000199093019283020181815560018101829055600281018290556003810180546001600160a01b03199081169091556004820180549091169055906144206005830182614b74565b5050905550505050565b6144348282613894565b6115b8576040516316af84a960e21b8152600481018390528115156024820152604401610eb8565b6000818152609e6020526040812054609d8054839290811061448057614480615318565b6000918252602082206005600690920201015491505b81811015614525576000848152609e6020526040902054609d80546001600160a01b038816929081106144cb576144cb615318565b906000526020600020906006020160050182815481106144ed576144ed615318565b6000918252602090912001546001600160a01b0316141561451357600192505050610d8f565b8061451d81615433565b915050614496565b506000949350505050565b6000614544846001600160a01b03166125c1565b1561468b57836001600160a01b031663150b7a0261456061262a565b8786866040518563ffffffff1660e01b815260040161458294939291906157c7565b602060405180830381600087803b15801561459c57600080fd5b505af19250505080156145cc575060408051601f3d908101601f191682019092526145c991810190615794565b60015b614671573d8080156145fa576040519150601f19603f3d011682016040523d82523d6000602084013e6145ff565b606091505b5080516146695760405162461bcd60e51b815260206004820152603260248201527f4552433732313a207472616e7366657220746f206e6f6e20455243373231526560448201527131b2b4bb32b91034b6b83632b6b2b73a32b960711b6064820152608401610eb8565b805181602001fd5b6001600160e01b031916630a85bd0160e11b149050613d1e565b506001613d1e565b606060006146a2836002615804565b6146ad90600261567a565b6001600160401b038111156146c4576146c4614df4565b6040519080825280601f01601f1916602001820160405280156146ee576020820181803683370190505b509050600360fc1b8160008151811061470957614709615318565b60200101906001600160f81b031916908160001a905350600f60fb1b8160018151811061473857614738615318565b60200101906001600160f81b031916908160001a905350600061475c846002615804565b61476790600161567a565b90505b60018111156147df576f181899199a1a9b1b9c1cb0b131b232b360811b85600f166010811061479b5761479b615318565b1a60f81b8282815181106147b1576147b1615318565b60200101906001600160f81b031916908160001a90535060049490941c936147d881615823565b905061476a565b5083156110665760405162461bcd60e51b815260206004820181905260248201527f537472696e67733a20686578206c656e67746820696e73756666696369656e746044820152606401610eb8565b609d805482516000908152609e6020908152604080832084905560018401855593909152835160069092027fd26e832454299e9fabb89e0e5fffdc046d4e14431bc1bf607ffb2e8a1ddecf7b8101928355818501517fd26e832454299e9fabb89e0e5fffdc046d4e14431bc1bf607ffb2e8a1ddecf7c820155928401517fd26e832454299e9fabb89e0e5fffdc046d4e14431bc1bf607ffb2e8a1ddecf7d84015560608401517fd26e832454299e9fabb89e0e5fffdc046d4e14431bc1bf607ffb2e8a1ddecf7e840180546001600160a01b039283166001600160a01b03199182161790915560808601517fd26e832454299e9fabb89e0e5fffdc046d4e14431bc1bf607ffb2e8a1ddecf7f8601805491909316911617905560a084015180518594611c9d937fd26e832454299e9fabb89e0e5fffdc046d4e14431bc1bf607ffb2e8a1ddecf80909101920190614b92565b6149898161415d565b6040516001600160a01b038216907fbc7cd75a20ee27fd9adebab32041f755214dbc6bffa90cc0225b39da2e5c2d3b90600090a250565b60606149cb836125c1565b614a265760405162461bcd60e51b815260206004820152602660248201527f416464726573733a2064656c65676174652063616c6c20746f206e6f6e2d636f6044820152651b9d1c9858dd60d21b6064820152608401610eb8565b600080846001600160a01b031684604051614a41919061583a565b600060405180830381855af49150503d8060008114614a7c576040519150601f19603f3d011682016040523d82523d6000602084013e614a81565b606091505b5091509150614aa9828260405180606001604052806027815260200161591760279139614ab2565b95945050505050565b60608315614ac1575081611066565b6110668383815115614ad65781518083602001fd5b8060405162461bcd60e51b8152600401610eb89190614c87565b828054614afc906152e3565b90600052602060002090601f016020900481019282614b1e5760008555614b64565b82601f10614b3757805160ff1916838001178555614b64565b82800160010185558215614b64579182015b82811115614b64578251825591602001919060010190614b49565b50614b70929150614be7565b5090565b508054600082559060005260206000209081019061159c9190614be7565b828054828255906000526020600020908101928215614b64579160200282015b82811115614b6457825182546001600160a01b0319166001600160a01b03909116178255602090920191600190910190614bb2565b5b80821115614b705760008155600101614be8565b6001600160e01b03198116811461159c57600080fd5b600060208284031215614c2457600080fd5b813561106681614bfc565b60005b83811015614c4a578181015183820152602001614c32565b83811115611c9d5750506000910152565b60008151808452614c73816020860160208601614c2f565b601f01601f19169290920160200192915050565b6020815260006110666020830184614c5b565b600060208284031215614cac57600080fd5b5035919050565b6001600160a01b0391909116815260200190565b80356001600160a01b038116811461131157600080fd5b60008060408385031215614cf157600080fd5b614cfa83614cc7565b946020939093013593505050565b600080600060608486031215614d1d57600080fd5b83359250614d2d60208501614cc7565b9150604084013590509250925092565b6020808252825182820181905260009190848201906040850190845b81811015614d7557835183529284019291840191600101614d59565b50909695505050505050565b600060208284031215614d9357600080fd5b61106682614cc7565b600080600060608486031215614db157600080fd5b614dba84614cc7565b9250614d2d60208501614cc7565b600080600060608486031215614ddd57600080fd5b505081359360208301359350604090920135919050565b634e487b7160e01b600052604160045260246000fd5b604051601f8201601f191681016001600160401b0381118282101715614e3257614e32614df4565b604052919050565b60006001600160401b03821115614e5357614e53614df4565b50601f01601f191660200190565b600082601f830112614e7257600080fd5b8135614e85614e8082614e3a565b614e0a565b818152846020838601011115614e9a57600080fd5b816020850160208301376000918101602001919091529392505050565b600080600080600060a08688031215614ecf57600080fd5b85356001600160401b0380821115614ee657600080fd5b614ef289838a01614e61565b9650602091508188013581811115614f0957600080fd5b614f158a828b01614e61565b965050614f2460408901614cc7565b9450614f3260608901614cc7565b9350608088013581811115614f4657600080fd5b8801601f81018a13614f5757600080fd5b803582811115614f6957614f69614df4565b8060051b9250614f7a848401614e0a565b818152928201840192848101908c851115614f9457600080fd5b928501925b84841015614fb957614faa84614cc7565b82529285019290850190614f99565b8096505050505050509295509295909350565b600080600060608486031215614fe157600080fd5b8335925060208401359150614ff860408501614cc7565b90509250925092565b6000806040838503121561501457600080fd5b61501d83614cc7565b915060208301356001600160401b0381111561503857600080fd5b61504485828601614e61565b9150509250929050565b6000806040838503121561506157600080fd5b50508035926020909101359150565b60006080828403121561508257600080fd5b50919050565b600080600060c0848603121561509d57600080fd5b8335925060208401359150614ff88560408601615070565b801515811461159c57600080fd5b600080600080608085870312156150d957600080fd5b8435935060208501356001600160401b038111156150f657600080fd5b61510287828801614e61565b9350506040850135615113816150b5565b915061512160608601614cc7565b905092959194509250565b6000806040838503121561513f57600080fd5b8235915060208301356001600160401b0381111561503857600080fd5b6000806040838503121561516f57600080fd5b61517883614cc7565b91506020830135615188816150b5565b809150509250929050565b600080600080608085870312156151a957600080fd5b6151b285614cc7565b93506151c060208601614cc7565b92506040850135915060608501356001600160401b038111156151e257600080fd5b6151ee87828801614e61565b91505092959194509250565b6000806000806000610100868803121561521357600080fd5b61521c86614cc7565b94506020860135935060408601359250606086013591506152408760808801615070565b90509295509295909350565b6000806040838503121561525f57600080fd5b8235915061526f60208401614cc7565b90509250929050565b6001600160a01b038616815260ff8516602082015260a0604082018190526000906152a590830186614c5b565b606083019490945250608001529392505050565b600080604083850312156152cc57600080fd5b6152d583614cc7565b915061526f60208401614cc7565b600181811c908216806152f757607f821691505b6020821081141561508257634e487b7160e01b600052602260045260246000fd5b634e487b7160e01b600052603260045260246000fd5b60208082526022908201527f455243333532353a20617070726f76616c20746f2063757272656e74206f776e60408201526132b960f11b606082015260800190565b60008351615382818460208801614c2f565b64736c6f742f60d81b90830190815283516153a4816005840160208801614c2f565b01600501949350505050565b6000602082840312156153c257600080fd5b81516001600160401b038111156153d857600080fd5b8201601f810184136153e957600080fd5b80516153f7614e8082614e3a565b81815285602083850101111561540c57600080fd5b614aa9826020830160208601614c2f565b634e487b7160e01b600052601160045260246000fd5b60006000198214156154475761544761541d565b5060010190565b634e487b7160e01b600052602160045260246000fd5b60208082526032908201527f455243333532353a207472616e736665722063616c6c6572206973206e6f74206040820152711bdddb995c881b9bdc88185c1c1c9bdd995960721b606082015260800190565b6020808252602e908201527f496e697469616c697a61626c653a20636f6e747261637420697320616c72656160408201526d191e481a5b9a5d1a585b1a5e995960921b606082015260800190565b6020808252602c908201527f46756e6374696f6e206d7573742062652063616c6c6564207468726f7567682060408201526b19195b1959d85d1958d85b1b60a21b606082015260800190565b6020808252602c908201527f46756e6374696f6e206d7573742062652063616c6c6564207468726f7567682060408201526b6163746976652070726f787960a01b606082015260800190565b602080825260199082015278115490cccd4c8d4e881a5b9d985b1a59081d1bdad95b881251603a1b604082015260600190565b6001600160a01b039390931683526020830191909152604082015260600190565b60008351615602818460208801614c2f565b835190830190615616818360208801614c2f565b01949350505050565b60008351615631818460208801614c2f565b68636f6e74726163742f60b81b9083019081528351615657816009840160208801614c2f565b01600901949350505050565b6000828210156156755761567561541d565b500390565b6000821982111561568d5761568d61541d565b500190565b6020808252602b908201527f496e697469616c697a61626c653a20636f6e7472616374206973206e6f74206960408201526a6e697469616c697a696e6760a81b606082015260800190565b6000602082840312156156ef57600080fd5b5051919050565b6003811061571457634e487b7160e01b600052602160045260246000fd5b9052565b8381526060810161572c60208301856156f6565b613d1e60408301846156f6565b60006020828403121561574b57600080fd5b8151611066816150b5565b60018060a01b038616815284602082015283604082015282606082015260a06080820152600061578960a0830184614c5b565b979650505050505050565b6000602082840312156157a657600080fd5b815161106681614bfc565b634e487b7160e01b600052603160045260246000fd5b6001600160a01b03858116825284166020820152604081018390526080606082018190526000906157fa90830184614c5b565b9695505050505050565b600081600019048311821515161561581e5761581e61541d565b500290565b6000816158325761583261541d565b506000190190565b6000825161584c818460208701614c2f565b919091019291505056fefca69b310bd19d275687ebe00b254b0772cf7a367c3f81a9a5a433f831fdc1dc3c63e605be3290ab6b04cfc46c6e1516e626d43236b034f09d7ede1d017beb0c0b2aac84f3ec956911fd78eae5311062972ff949f38412e8da39069d9f068cc6360894a13ba1a3210667c828492db98dca3e2076cc3735a920a3ca505d382bbc449b0a7e0acc0a95c71947cb19fdd122b42abca9bdfbd6707ca4f1e3fdaef05e7f26b83ff96e1f2b6a682f133852f6798a09c465da95921460cefb3847402498416464726573733a206c6f772d6c6576656c2064656c65676174652063616c6c206661696c6564ddf252ad1be2c89b69c2b068fc378daa952ba7f163c4a11628f55a4df523b3efa264697066735822122095a9b71e8283e5549fe027ff88a91ab78ac41544b7b94de56ad5a85d6821b20d64736f6c63430008090033496e697469616c697a61626c653a20636f6e747261637420697320616c7265617f26b83ff96e1f2b6a682f133852f6798a09c465da95921460cefb3847402498",
  "linkReferences": {},
  "deployedLinkReferences": {}
}