{
  "address": "0x65Bb8eb7c66c107e379C1C5781268393303E4b50",
  "abi": [
    {
      "inputs": [],
      "stateMutability": "nonpayable",
      "type": "constructor"
    },
    {
      "inputs": [],
      "name": "Common__MissingAccount",
      "type": "error"
    },
    {
      "inputs": [
        {
          "internalType": "address",
          "name": "account",
          "type": "address"
        }
      ],
      "name": "Common__NotContract",
      "type": "error"
    },
    {
      "inputs": [
        {
          "internalType": "address",
          "name": "account",
          "type": "address"
        }
      ],
      "name": "Common__NotSuperAdmin",
      "type": "error"
    },
    {
      "inputs": [
        {
          "internalType": "address",
          "name": "sender",
          "type": "address"
        },
        {
          "internalType": "uint256",
          "name": "domain",
          "type": "uint256"
        },
        {
          "internalType": "bytes32",
          "name": "role",
          "type": "bytes32"
        }
      ],
      "name": "Common__Unauthorized",
      "type": "error"
    },
    {
      "inputs": [
        {
          "internalType": "uint256",
          "name": "available",
          "type": "uint256"
        },
        {
          "internalType": "uint256",
          "name": "required",
          "type": "uint256"
        }
      ],
      "name": "GatewayToken__InsufficientFunds",
      "type": "error"
    },
    {
      "inputs": [
        {
          "internalType": "uint256",
          "name": "network",
          "type": "uint256"
        }
      ],
      "name": "GatewayToken__NetworkAlreadyExists",
      "type": "error"
    },
    {
      "inputs": [
        {
          "internalType": "uint256",
          "name": "network",
          "type": "uint256"
        }
      ],
      "name": "GatewayToken__NetworkDoesNotExist",
      "type": "error"
    },
    {
      "inputs": [
        {
          "internalType": "uint256",
          "name": "network",
          "type": "uint256"
        }
      ],
      "name": "GatewayToken__NotDAOGoverned",
      "type": "error"
    },
    {
      "inputs": [
        {
          "internalType": "uint256",
          "name": "tokenId",
          "type": "uint256"
        }
      ],
      "name": "GatewayToken__TokenDoesNotExist",
      "type": "error"
    },
    {
      "inputs": [
        {
          "internalType": "uint256",
          "name": "tokenId",
          "type": "uint256"
        },
        {
          "internalType": "bool",
          "name": "allowExpired",
          "type": "bool"
        }
      ],
      "name": "GatewayToken__TokenDoesNotExistOrIsInactive",
      "type": "error"
    },
    {
      "inputs": [
        {
          "internalType": "uint256",
          "name": "tokenId",
          "type": "uint256"
        },
        {
          "internalType": "enum IGatewayToken.TokenState",
          "name": "state",
          "type": "uint8"
        },
        {
          "internalType": "enum IGatewayToken.TokenState",
          "name": "expectedState",
          "type": "uint8"
        }
      ],
      "name": "GatewayToken__TokenInvalidStateForOperation",
      "type": "error"
    },
    {
      "inputs": [],
      "name": "GatewayToken__TransferDisabled",
      "type": "error"
    },
    {
      "inputs": [
        {
          "internalType": "bytes32",
          "name": "role",
          "type": "bytes32"
        },
        {
          "internalType": "address",
          "name": "account",
          "type": "address"
        }
      ],
      "name": "ParameterizedAccessControl__RenounceRoleNotForSelf",
      "type": "error"
    },
    {
      "anonymous": false,
      "inputs": [
        {
          "indexed": false,
          "internalType": "address",
          "name": "previousAdmin",
          "type": "address"
        },
        {
          "indexed": false,
          "internalType": "address",
          "name": "newAdmin",
          "type": "address"
        }
      ],
      "name": "AdminChanged",
      "type": "event"
    },
    {
      "anonymous": false,
      "inputs": [
        {
          "indexed": true,
          "internalType": "address",
          "name": "_owner",
          "type": "address"
        },
        {
          "indexed": true,
          "internalType": "address",
          "name": "_approved",
          "type": "address"
        },
        {
          "indexed": true,
          "internalType": "uint256",
          "name": "_tokenId",
          "type": "uint256"
        }
      ],
      "name": "Approval",
      "type": "event"
    },
    {
      "anonymous": false,
      "inputs": [
        {
          "indexed": true,
          "internalType": "address",
          "name": "_owner",
          "type": "address"
        },
        {
          "indexed": true,
          "internalType": "address",
          "name": "_operator",
          "type": "address"
        },
        {
          "indexed": false,
          "internalType": "bool",
          "name": "_approved",
          "type": "bool"
        }
      ],
      "name": "ApprovalForAll",
      "type": "event"
    },
    {
      "anonymous": false,
      "inputs": [
        {
          "indexed": true,
          "internalType": "uint256",
          "name": "_tokenId",
          "type": "uint256"
        },
        {
          "indexed": true,
          "internalType": "address",
          "name": "_operator",
          "type": "address"
        },
        {
          "indexed": false,
          "internalType": "uint256",
          "name": "_value",
          "type": "uint256"
        }
      ],
      "name": "ApprovalValue",
      "type": "event"
    },
    {
      "anonymous": false,
      "inputs": [
        {
          "indexed": true,
          "internalType": "address",
          "name": "beacon",
          "type": "address"
        }
      ],
      "name": "BeaconUpgraded",
      "type": "event"
    },
    {
      "anonymous": false,
      "inputs": [
        {
          "indexed": false,
          "internalType": "uint256",
          "name": "tokenId",
          "type": "uint256"
        },
        {
          "indexed": false,
          "internalType": "uint256",
          "name": "bitmask",
          "type": "uint256"
        }
      ],
      "name": "BitMaskUpdated",
      "type": "event"
    },
    {
      "anonymous": false,
      "inputs": [
        {
          "indexed": false,
          "internalType": "address",
          "name": "previousDAOManager",
          "type": "address"
        },
        {
          "indexed": false,
          "internalType": "address",
          "name": "newDAOManager",
          "type": "address"
        },
        {
          "indexed": false,
          "internalType": "uint256",
          "name": "network",
          "type": "uint256"
        }
      ],
      "name": "DAOManagerTransferred",
      "type": "event"
    },
    {
      "anonymous": false,
      "inputs": [
        {
          "indexed": true,
          "internalType": "uint256",
          "name": "tokenId",
          "type": "uint256"
        },
        {
          "indexed": false,
          "internalType": "uint256",
          "name": "timestamp",
          "type": "uint256"
        }
      ],
      "name": "Expiration",
      "type": "event"
    },
    {
      "anonymous": false,
      "inputs": [
        {
          "indexed": true,
          "internalType": "address",
          "name": "flagsStorage",
          "type": "address"
        }
      ],
      "name": "FlagsStorageUpdated",
      "type": "event"
    },
    {
      "anonymous": false,
      "inputs": [
        {
          "indexed": true,
          "internalType": "uint256",
          "name": "tokenId",
          "type": "uint256"
        }
      ],
      "name": "Freeze",
      "type": "event"
    },
    {
      "anonymous": false,
      "inputs": [
        {
          "indexed": false,
          "internalType": "uint8",
          "name": "version",
          "type": "uint8"
        }
      ],
      "name": "Initialized",
      "type": "event"
    },
    {
      "anonymous": false,
      "inputs": [
        {
          "indexed": true,
          "internalType": "uint256",
          "name": "tokenId",
          "type": "uint256"
        }
      ],
      "name": "Revoke",
      "type": "event"
    },
    {
      "anonymous": false,
      "inputs": [
        {
          "indexed": true,
          "internalType": "bytes32",
          "name": "role",
          "type": "bytes32"
        },
        {
          "indexed": false,
          "internalType": "uint256",
          "name": "domain",
          "type": "uint256"
        },
        {
          "indexed": true,
          "internalType": "bytes32",
          "name": "previousAdminRole",
          "type": "bytes32"
        },
        {
          "indexed": true,
          "internalType": "bytes32",
          "name": "newAdminRole",
          "type": "bytes32"
        }
      ],
      "name": "RoleAdminChanged",
      "type": "event"
    },
    {
      "anonymous": false,
      "inputs": [
        {
          "indexed": true,
          "internalType": "bytes32",
          "name": "role",
          "type": "bytes32"
        },
        {
          "indexed": false,
          "internalType": "uint256",
          "name": "domain",
          "type": "uint256"
        },
        {
          "indexed": true,
          "internalType": "address",
          "name": "account",
          "type": "address"
        },
        {
          "indexed": true,
          "internalType": "address",
          "name": "sender",
          "type": "address"
        }
      ],
      "name": "RoleGranted",
      "type": "event"
    },
    {
      "anonymous": false,
      "inputs": [
        {
          "indexed": true,
          "internalType": "bytes32",
          "name": "role",
          "type": "bytes32"
        },
        {
          "indexed": false,
          "internalType": "uint256",
          "name": "domain",
          "type": "uint256"
        },
        {
          "indexed": true,
          "internalType": "address",
          "name": "account",
          "type": "address"
        },
        {
          "indexed": true,
          "internalType": "address",
          "name": "sender",
          "type": "address"
        }
      ],
      "name": "RoleRevoked",
      "type": "event"
    },
    {
      "anonymous": false,
      "inputs": [
        {
          "indexed": true,
          "internalType": "address",
          "name": "metadataDescriptor",
          "type": "address"
        }
      ],
      "name": "SetMetadataDescriptor",
      "type": "event"
    },
    {
      "anonymous": false,
      "inputs": [
        {
          "indexed": true,
          "internalType": "uint256",
          "name": "_tokenId",
          "type": "uint256"
        },
        {
          "indexed": true,
          "internalType": "uint256",
          "name": "_oldSlot",
          "type": "uint256"
        },
        {
          "indexed": true,
          "internalType": "uint256",
          "name": "_newSlot",
          "type": "uint256"
        }
      ],
      "name": "SlotChanged",
      "type": "event"
    },
    {
      "anonymous": false,
      "inputs": [
        {
          "indexed": true,
          "internalType": "address",
          "name": "account",
          "type": "address"
        }
      ],
      "name": "SuperAdminAdded",
      "type": "event"
    },
    {
      "anonymous": false,
      "inputs": [
        {
          "indexed": true,
          "internalType": "address",
          "name": "account",
          "type": "address"
        }
      ],
      "name": "SuperAdminRemoved",
      "type": "event"
    },
    {
      "anonymous": false,
      "inputs": [
        {
          "indexed": true,
          "internalType": "address",
          "name": "_from",
          "type": "address"
        },
        {
          "indexed": true,
          "internalType": "address",
          "name": "_to",
          "type": "address"
        },
        {
          "indexed": true,
          "internalType": "uint256",
          "name": "_tokenId",
          "type": "uint256"
        }
      ],
      "name": "Transfer",
      "type": "event"
    },
    {
      "anonymous": false,
      "inputs": [
        {
          "indexed": true,
          "internalType": "uint256",
          "name": "_fromTokenId",
          "type": "uint256"
        },
        {
          "indexed": true,
          "internalType": "uint256",
          "name": "_toTokenId",
          "type": "uint256"
        },
        {
          "indexed": false,
          "internalType": "uint256",
          "name": "_value",
          "type": "uint256"
        }
      ],
      "name": "TransferValue",
      "type": "event"
    },
    {
      "anonymous": false,
      "inputs": [
        {
          "indexed": true,
          "internalType": "uint256",
          "name": "tokenId",
          "type": "uint256"
        }
      ],
      "name": "Unfreeze",
      "type": "event"
    },
    {
      "anonymous": false,
      "inputs": [
        {
          "indexed": true,
          "internalType": "address",
          "name": "implementation",
          "type": "address"
        }
      ],
      "name": "Upgraded",
      "type": "event"
    },
    {
      "inputs": [],
      "name": "DAO_MANAGER_ROLE",
      "outputs": [
        {
          "internalType": "bytes32",
          "name": "",
          "type": "bytes32"
        }
      ],
      "stateMutability": "view",
      "type": "function"
    },
    {
      "inputs": [],
      "name": "DEFAULT_ADMIN_ROLE",
      "outputs": [
        {
          "internalType": "bytes32",
          "name": "",
          "type": "bytes32"
        }
      ],
      "stateMutability": "view",
      "type": "function"
    },
    {
      "inputs": [],
      "name": "GATEKEEPER_ROLE",
      "outputs": [
        {
          "internalType": "bytes32",
          "name": "",
          "type": "bytes32"
        }
      ],
      "stateMutability": "view",
      "type": "function"
    },
    {
      "inputs": [],
      "name": "NETWORK_AUTHORITY_ROLE",
      "outputs": [
        {
          "internalType": "bytes32",
          "name": "",
          "type": "bytes32"
        }
      ],
      "stateMutability": "view",
      "type": "function"
    },
    {
      "inputs": [
        {
          "internalType": "address",
          "name": "forwarder",
          "type": "address"
        }
      ],
      "name": "addForwarder",
      "outputs": [],
      "stateMutability": "nonpayable",
      "type": "function"
    },
    {
      "inputs": [
        {
          "internalType": "address",
          "name": "gatekeeper",
          "type": "address"
        },
        {
          "internalType": "uint256",
          "name": "network",
          "type": "uint256"
        }
      ],
      "name": "addGatekeeper",
      "outputs": [],
      "stateMutability": "nonpayable",
      "type": "function"
    },
    {
      "inputs": [
        {
          "internalType": "address",
          "name": "authority",
          "type": "address"
        },
        {
          "internalType": "uint256",
          "name": "network",
          "type": "uint256"
        }
      ],
      "name": "addNetworkAuthority",
      "outputs": [],
      "stateMutability": "nonpayable",
      "type": "function"
    },
    {
      "inputs": [
        {
          "internalType": "uint256",
          "name": "tokenId_",
          "type": "uint256"
        },
        {
          "internalType": "address",
          "name": "operator_",
          "type": "address"
        }
      ],
      "name": "allowance",
      "outputs": [
        {
          "internalType": "uint256",
          "name": "",
          "type": "uint256"
        }
      ],
      "stateMutability": "view",
      "type": "function"
    },
    {
      "inputs": [
        {
          "internalType": "address",
          "name": "",
          "type": "address"
        },
        {
          "internalType": "uint256",
          "name": "",
          "type": "uint256"
        }
      ],
      "name": "approve",
      "outputs": [],
      "stateMutability": "payable",
      "type": "function"
    },
    {
      "inputs": [
        {
          "internalType": "uint256",
          "name": "",
          "type": "uint256"
        },
        {
          "internalType": "address",
          "name": "",
          "type": "address"
        },
        {
          "internalType": "uint256",
          "name": "",
          "type": "uint256"
        }
      ],
      "name": "approve",
      "outputs": [],
      "stateMutability": "payable",
      "type": "function"
    },
    {
      "inputs": [
        {
          "internalType": "address",
          "name": "owner_",
          "type": "address"
        }
      ],
      "name": "balanceOf",
      "outputs": [
        {
          "internalType": "uint256",
          "name": "balance",
          "type": "uint256"
        }
      ],
      "stateMutability": "view",
      "type": "function"
    },
    {
      "inputs": [
        {
          "internalType": "uint256",
          "name": "tokenId_",
          "type": "uint256"
        }
      ],
      "name": "balanceOf",
      "outputs": [
        {
          "internalType": "uint256",
          "name": "",
          "type": "uint256"
        }
      ],
      "stateMutability": "view",
      "type": "function"
    },
    {
      "inputs": [
        {
          "internalType": "uint256",
          "name": "tokenId",
          "type": "uint256"
        }
      ],
      "name": "burn",
      "outputs": [],
      "stateMutability": "nonpayable",
      "type": "function"
    },
    {
      "inputs": [],
      "name": "contractURI",
      "outputs": [
        {
          "internalType": "string",
          "name": "",
          "type": "string"
        }
      ],
      "stateMutability": "view",
      "type": "function"
    },
    {
      "inputs": [
        {
          "internalType": "uint256",
          "name": "network",
          "type": "uint256"
        },
        {
          "internalType": "string",
          "name": "name",
          "type": "string"
        },
        {
          "internalType": "bool",
          "name": "daoGoverned",
          "type": "bool"
        },
        {
          "internalType": "address",
          "name": "daoManager",
          "type": "address"
        }
      ],
      "name": "createNetwork",
      "outputs": [],
      "stateMutability": "nonpayable",
      "type": "function"
    },
    {
      "inputs": [],
      "name": "flagsStorage",
      "outputs": [
        {
          "internalType": "contract IFlagsStorage",
          "name": "",
          "type": "address"
        }
      ],
      "stateMutability": "view",
      "type": "function"
    },
    {
      "inputs": [
        {
          "internalType": "uint256",
          "name": "tokenId",
          "type": "uint256"
        }
      ],
      "name": "freeze",
      "outputs": [],
      "stateMutability": "nonpayable",
      "type": "function"
    },
    {
      "inputs": [
        {
          "internalType": "uint256",
          "name": "tokenId_",
          "type": "uint256"
        }
      ],
      "name": "getApproved",
      "outputs": [
        {
          "internalType": "address",
          "name": "",
          "type": "address"
        }
      ],
      "stateMutability": "view",
      "type": "function"
    },
    {
      "inputs": [
        {
          "internalType": "uint256",
          "name": "tokenId",
          "type": "uint256"
        }
      ],
      "name": "getExpiration",
      "outputs": [
        {
          "internalType": "uint256",
          "name": "",
          "type": "uint256"
        }
      ],
      "stateMutability": "view",
      "type": "function"
    },
    {
      "inputs": [
        {
          "internalType": "uint256",
          "name": "network",
          "type": "uint256"
        }
      ],
      "name": "getNetwork",
      "outputs": [
        {
          "internalType": "string",
          "name": "",
          "type": "string"
        }
      ],
      "stateMutability": "view",
      "type": "function"
    },
    {
      "inputs": [
        {
          "internalType": "bytes32",
          "name": "role",
          "type": "bytes32"
        },
        {
          "internalType": "uint256",
          "name": "domain",
          "type": "uint256"
        }
      ],
      "name": "getRoleAdmin",
      "outputs": [
        {
          "internalType": "bytes32",
          "name": "",
          "type": "bytes32"
        }
      ],
      "stateMutability": "view",
      "type": "function"
    },
    {
      "inputs": [
        {
          "internalType": "uint256",
          "name": "tokenId",
          "type": "uint256"
        }
      ],
      "name": "getToken",
      "outputs": [
        {
          "internalType": "address",
          "name": "owner",
          "type": "address"
        },
        {
          "internalType": "uint8",
          "name": "state",
          "type": "uint8"
        },
        {
          "internalType": "string",
          "name": "identity",
          "type": "string"
        },
        {
          "internalType": "uint256",
          "name": "expiration",
          "type": "uint256"
        },
        {
          "internalType": "uint256",
          "name": "bitmask",
          "type": "uint256"
        }
      ],
      "stateMutability": "view",
      "type": "function"
    },
    {
      "inputs": [
        {
          "internalType": "uint256",
          "name": "tokenId",
          "type": "uint256"
        }
      ],
      "name": "getTokenBitmask",
      "outputs": [
        {
          "internalType": "uint256",
          "name": "",
          "type": "uint256"
        }
      ],
      "stateMutability": "view",
      "type": "function"
    },
    {
      "inputs": [
        {
          "internalType": "address",
          "name": "owner",
          "type": "address"
        },
        {
          "internalType": "uint256",
          "name": "network",
          "type": "uint256"
        }
      ],
      "name": "getTokenIdsByOwnerAndNetwork",
      "outputs": [
        {
          "internalType": "uint256[]",
          "name": "",
          "type": "uint256[]"
        }
      ],
      "stateMutability": "view",
      "type": "function"
    },
    {
      "inputs": [
        {
          "internalType": "bytes32",
          "name": "role",
          "type": "bytes32"
        },
        {
          "internalType": "uint256",
          "name": "domain",
          "type": "uint256"
        },
        {
          "internalType": "address",
          "name": "account",
          "type": "address"
        }
      ],
      "name": "grantRole",
      "outputs": [],
      "stateMutability": "nonpayable",
      "type": "function"
    },
    {
      "inputs": [
        {
          "internalType": "bytes32",
          "name": "role",
          "type": "bytes32"
        },
        {
          "internalType": "uint256",
          "name": "domain",
          "type": "uint256"
        },
        {
          "internalType": "address",
          "name": "account",
          "type": "address"
        }
      ],
      "name": "hasRole",
      "outputs": [
        {
          "internalType": "bool",
          "name": "",
          "type": "bool"
        }
      ],
      "stateMutability": "view",
      "type": "function"
    },
    {
      "inputs": [
        {
          "internalType": "string",
          "name": "_name",
          "type": "string"
        },
        {
          "internalType": "string",
          "name": "_symbol",
          "type": "string"
        },
        {
          "internalType": "address",
          "name": "_superAdmin",
          "type": "address"
        },
        {
          "internalType": "address",
          "name": "_flagsStorage",
          "type": "address"
        },
        {
          "internalType": "address[]",
          "name": "_trustedForwarders",
          "type": "address[]"
        }
      ],
      "name": "initialize",
      "outputs": [],
      "stateMutability": "nonpayable",
      "type": "function"
    },
    {
      "inputs": [
        {
          "internalType": "address",
          "name": "owner_",
          "type": "address"
        },
        {
          "internalType": "address",
          "name": "operator_",
          "type": "address"
        }
      ],
      "name": "isApprovedForAll",
      "outputs": [
        {
          "internalType": "bool",
          "name": "",
          "type": "bool"
        }
      ],
      "stateMutability": "view",
      "type": "function"
    },
    {
      "inputs": [
        {
          "internalType": "address",
          "name": "gatekeeper",
          "type": "address"
        },
        {
          "internalType": "uint256",
          "name": "network",
          "type": "uint256"
        }
      ],
      "name": "isGatekeeper",
      "outputs": [
        {
          "internalType": "bool",
          "name": "",
          "type": "bool"
        }
      ],
      "stateMutability": "view",
      "type": "function"
    },
    {
      "inputs": [
        {
          "internalType": "address",
          "name": "authority",
          "type": "address"
        },
        {
          "internalType": "uint256",
          "name": "network",
          "type": "uint256"
        }
      ],
      "name": "isNetworkAuthority",
      "outputs": [
        {
          "internalType": "bool",
          "name": "",
          "type": "bool"
        }
      ],
      "stateMutability": "view",
      "type": "function"
    },
    {
      "inputs": [
        {
          "internalType": "uint256",
          "name": "",
          "type": "uint256"
        }
      ],
      "name": "isNetworkDAOGoverned",
      "outputs": [
        {
          "internalType": "bool",
          "name": "",
          "type": "bool"
        }
      ],
      "stateMutability": "view",
      "type": "function"
    },
    {
      "inputs": [
        {
          "internalType": "address",
          "name": "account",
          "type": "address"
        }
      ],
      "name": "isSuperAdmin",
      "outputs": [
        {
          "internalType": "bool",
          "name": "",
          "type": "bool"
        }
      ],
      "stateMutability": "view",
      "type": "function"
    },
    {
      "inputs": [
        {
          "internalType": "address",
          "name": "forwarder",
          "type": "address"
        }
      ],
      "name": "isTrustedForwarder",
      "outputs": [
        {
          "internalType": "bool",
          "name": "",
          "type": "bool"
        }
      ],
      "stateMutability": "view",
      "type": "function"
    },
    {
      "inputs": [],
      "name": "metadataDescriptor",
      "outputs": [
        {
          "internalType": "contract IERC3525MetadataDescriptorUpgradeable",
          "name": "",
          "type": "address"
        }
      ],
      "stateMutability": "view",
      "type": "function"
    },
    {
      "inputs": [
        {
          "internalType": "address",
          "name": "to",
          "type": "address"
        },
        {
          "internalType": "uint256",
          "name": "network",
          "type": "uint256"
        },
        {
          "internalType": "uint256",
          "name": "expiration",
          "type": "uint256"
        },
        {
          "internalType": "uint256",
          "name": "mask",
          "type": "uint256"
        },
        {
          "components": [
            {
              "internalType": "uint256",
              "name": "value",
              "type": "uint256"
            },
            {
              "internalType": "enum ChargeType",
              "name": "chargeType",
              "type": "uint8"
            },
            {
              "internalType": "address",
              "name": "token",
              "type": "address"
            },
            {
              "internalType": "address",
              "name": "recipient",
              "type": "address"
            }
          ],
          "internalType": "struct Charge",
          "name": "",
          "type": "tuple"
        }
      ],
      "name": "mint",
      "outputs": [],
      "stateMutability": "nonpayable",
      "type": "function"
    },
    {
      "inputs": [],
      "name": "name",
      "outputs": [
        {
          "internalType": "string",
          "name": "",
          "type": "string"
        }
      ],
      "stateMutability": "view",
      "type": "function"
    },
    {
      "inputs": [
        {
          "internalType": "uint256",
          "name": "tokenId_",
          "type": "uint256"
        }
      ],
      "name": "ownerOf",
      "outputs": [
        {
          "internalType": "address",
          "name": "owner_",
          "type": "address"
        }
      ],
      "stateMutability": "view",
      "type": "function"
    },
    {
      "inputs": [],
      "name": "proxiableUUID",
      "outputs": [
        {
          "internalType": "bytes32",
          "name": "",
          "type": "bytes32"
        }
      ],
      "stateMutability": "view",
      "type": "function"
    },
    {
      "inputs": [
        {
          "internalType": "address",
          "name": "forwarder",
          "type": "address"
        }
      ],
      "name": "removeForwarder",
      "outputs": [],
      "stateMutability": "nonpayable",
      "type": "function"
    },
    {
      "inputs": [
        {
          "internalType": "address",
          "name": "gatekeeper",
          "type": "address"
        },
        {
          "internalType": "uint256",
          "name": "network",
          "type": "uint256"
        }
      ],
      "name": "removeGatekeeper",
      "outputs": [],
      "stateMutability": "nonpayable",
      "type": "function"
    },
    {
      "inputs": [
        {
          "internalType": "address",
          "name": "authority",
          "type": "address"
        },
        {
          "internalType": "uint256",
          "name": "network",
          "type": "uint256"
        }
      ],
      "name": "removeNetworkAuthority",
      "outputs": [],
      "stateMutability": "nonpayable",
      "type": "function"
    },
    {
      "inputs": [
        {
          "internalType": "uint256",
          "name": "network",
          "type": "uint256"
        },
        {
          "internalType": "string",
          "name": "name",
          "type": "string"
        }
      ],
      "name": "renameNetwork",
      "outputs": [],
      "stateMutability": "nonpayable",
      "type": "function"
    },
    {
      "inputs": [
        {
          "internalType": "bytes32",
          "name": "role",
          "type": "bytes32"
        },
        {
          "internalType": "uint256",
          "name": "domain",
          "type": "uint256"
        },
        {
          "internalType": "address",
          "name": "account",
          "type": "address"
        }
      ],
      "name": "renounceRole",
      "outputs": [],
      "stateMutability": "nonpayable",
      "type": "function"
    },
    {
      "inputs": [
        {
          "internalType": "uint256",
          "name": "tokenId",
          "type": "uint256"
        }
      ],
      "name": "revoke",
      "outputs": [],
      "stateMutability": "nonpayable",
      "type": "function"
    },
    {
      "inputs": [
        {
          "internalType": "bytes32",
          "name": "role",
          "type": "bytes32"
        },
        {
          "internalType": "uint256",
          "name": "domain",
          "type": "uint256"
        },
        {
          "internalType": "address",
          "name": "account",
          "type": "address"
        }
      ],
      "name": "revokeRole",
      "outputs": [],
      "stateMutability": "nonpayable",
      "type": "function"
    },
    {
      "inputs": [
        {
          "internalType": "address",
          "name": "account",
          "type": "address"
        }
      ],
      "name": "revokeSuperAdmin",
      "outputs": [],
      "stateMutability": "nonpayable",
      "type": "function"
    },
    {
      "inputs": [
        {
          "internalType": "address",
          "name": "from_",
          "type": "address"
        },
        {
          "internalType": "address",
          "name": "to_",
          "type": "address"
        },
        {
          "internalType": "uint256",
          "name": "tokenId_",
          "type": "uint256"
        }
      ],
      "name": "safeTransferFrom",
      "outputs": [],
      "stateMutability": "payable",
      "type": "function"
    },
    {
      "inputs": [
        {
          "internalType": "address",
          "name": "from_",
          "type": "address"
        },
        {
          "internalType": "address",
          "name": "to_",
          "type": "address"
        },
        {
          "internalType": "uint256",
          "name": "tokenId_",
          "type": "uint256"
        },
        {
          "internalType": "bytes",
          "name": "data_",
          "type": "bytes"
        }
      ],
      "name": "safeTransferFrom",
      "outputs": [],
      "stateMutability": "payable",
      "type": "function"
    },
    {
      "inputs": [
        {
          "internalType": "address",
          "name": "operator_",
          "type": "address"
        },
        {
          "internalType": "bool",
          "name": "approved_",
          "type": "bool"
        }
      ],
      "name": "setApprovalForAll",
      "outputs": [],
      "stateMutability": "nonpayable",
      "type": "function"
    },
    {
      "inputs": [
        {
          "internalType": "uint256",
          "name": "tokenId",
          "type": "uint256"
        },
        {
          "internalType": "uint256",
          "name": "mask",
          "type": "uint256"
        }
      ],
      "name": "setBitmask",
      "outputs": [],
      "stateMutability": "nonpayable",
      "type": "function"
    },
    {
      "inputs": [
        {
          "internalType": "uint256",
          "name": "tokenId",
          "type": "uint256"
        },
        {
          "internalType": "uint256",
          "name": "timestamp",
          "type": "uint256"
        },
        {
          "components": [
            {
              "internalType": "uint256",
              "name": "value",
              "type": "uint256"
            },
            {
              "internalType": "enum ChargeType",
              "name": "chargeType",
              "type": "uint8"
            },
            {
              "internalType": "address",
              "name": "token",
              "type": "address"
            },
            {
              "internalType": "address",
              "name": "recipient",
              "type": "address"
            }
          ],
          "internalType": "struct Charge",
          "name": "",
          "type": "tuple"
        }
      ],
      "name": "setExpiration",
      "outputs": [],
      "stateMutability": "nonpayable",
      "type": "function"
    },
    {
      "inputs": [
        {
          "internalType": "address",
          "name": "_metadataDescriptor",
          "type": "address"
        }
      ],
      "name": "setMetadataDescriptor",
      "outputs": [],
      "stateMutability": "nonpayable",
      "type": "function"
    },
    {
      "inputs": [
        {
          "internalType": "address",
          "name": "account",
          "type": "address"
        }
      ],
      "name": "setSuperAdmin",
      "outputs": [],
      "stateMutability": "nonpayable",
      "type": "function"
    },
    {
      "inputs": [
        {
          "internalType": "uint256",
          "name": "tokenId_",
          "type": "uint256"
        }
      ],
      "name": "slotOf",
      "outputs": [
        {
          "internalType": "uint256",
          "name": "",
          "type": "uint256"
        }
      ],
      "stateMutability": "view",
      "type": "function"
    },
    {
      "inputs": [
        {
          "internalType": "uint256",
          "name": "slot_",
          "type": "uint256"
        }
      ],
      "name": "slotURI",
      "outputs": [
        {
          "internalType": "string",
          "name": "",
          "type": "string"
        }
      ],
      "stateMutability": "view",
      "type": "function"
    },
    {
      "inputs": [
        {
          "internalType": "bytes4",
          "name": "interfaceId",
          "type": "bytes4"
        }
      ],
      "name": "supportsInterface",
      "outputs": [
        {
          "internalType": "bool",
          "name": "",
          "type": "bool"
        }
      ],
      "stateMutability": "view",
      "type": "function"
    },
    {
      "inputs": [],
      "name": "symbol",
      "outputs": [
        {
          "internalType": "string",
          "name": "",
          "type": "string"
        }
      ],
      "stateMutability": "view",
      "type": "function"
    },
    {
      "inputs": [
        {
          "internalType": "uint256",
          "name": "index_",
          "type": "uint256"
        }
      ],
      "name": "tokenByIndex",
      "outputs": [
        {
          "internalType": "uint256",
          "name": "",
          "type": "uint256"
        }
      ],
      "stateMutability": "view",
      "type": "function"
    },
    {
      "inputs": [
        {
          "internalType": "address",
          "name": "owner_",
          "type": "address"
        },
        {
          "internalType": "uint256",
          "name": "index_",
          "type": "uint256"
        }
      ],
      "name": "tokenOfOwnerByIndex",
      "outputs": [
        {
          "internalType": "uint256",
          "name": "",
          "type": "uint256"
        }
      ],
      "stateMutability": "view",
      "type": "function"
    },
    {
      "inputs": [
        {
          "internalType": "uint256",
          "name": "tokenId_",
          "type": "uint256"
        }
      ],
      "name": "tokenURI",
      "outputs": [
        {
          "internalType": "string",
          "name": "",
          "type": "string"
        }
      ],
      "stateMutability": "view",
      "type": "function"
    },
    {
      "inputs": [],
      "name": "totalSupply",
      "outputs": [
        {
          "internalType": "uint256",
          "name": "",
          "type": "uint256"
        }
      ],
      "stateMutability": "view",
      "type": "function"
    },
    {
      "inputs": [
        {
          "internalType": "address",
          "name": "previousManager",
          "type": "address"
        },
        {
          "internalType": "address",
          "name": "newManager",
          "type": "address"
        },
        {
          "internalType": "uint256",
          "name": "network",
          "type": "uint256"
        }
      ],
      "name": "transferDAOManager",
      "outputs": [],
      "stateMutability": "nonpayable",
      "type": "function"
    },
    {
      "inputs": [
        {
          "internalType": "uint256",
          "name": "fromTokenId_",
          "type": "uint256"
        },
        {
          "internalType": "address",
          "name": "to_",
          "type": "address"
        },
        {
          "internalType": "uint256",
          "name": "value_",
          "type": "uint256"
        }
      ],
      "name": "transferFrom",
      "outputs": [
        {
          "internalType": "uint256",
          "name": "newTokenId",
          "type": "uint256"
        }
      ],
      "stateMutability": "payable",
      "type": "function"
    },
    {
      "inputs": [
        {
          "internalType": "address",
          "name": "from_",
          "type": "address"
        },
        {
          "internalType": "address",
          "name": "to_",
          "type": "address"
        },
        {
          "internalType": "uint256",
          "name": "tokenId_",
          "type": "uint256"
        }
      ],
      "name": "transferFrom",
      "outputs": [],
      "stateMutability": "payable",
      "type": "function"
    },
    {
      "inputs": [
        {
          "internalType": "uint256",
          "name": "fromTokenId_",
          "type": "uint256"
        },
        {
          "internalType": "uint256",
          "name": "toTokenId_",
          "type": "uint256"
        },
        {
          "internalType": "uint256",
          "name": "value_",
          "type": "uint256"
        }
      ],
      "name": "transferFrom",
      "outputs": [],
      "stateMutability": "payable",
      "type": "function"
    },
    {
      "inputs": [],
      "name": "transfersRestricted",
      "outputs": [
        {
          "internalType": "bool",
          "name": "",
          "type": "bool"
        }
      ],
      "stateMutability": "pure",
      "type": "function"
    },
    {
      "inputs": [
        {
          "internalType": "uint256",
          "name": "tokenId",
          "type": "uint256"
        }
      ],
      "name": "unfreeze",
      "outputs": [],
      "stateMutability": "nonpayable",
      "type": "function"
    },
    {
      "inputs": [
        {
          "internalType": "address",
          "name": "flagsStorage",
          "type": "address"
        }
      ],
      "name": "updateFlagsStorage",
      "outputs": [],
      "stateMutability": "nonpayable",
      "type": "function"
    },
    {
      "inputs": [
        {
          "internalType": "address",
          "name": "newImplementation",
          "type": "address"
        }
      ],
      "name": "upgradeTo",
      "outputs": [],
      "stateMutability": "nonpayable",
      "type": "function"
    },
    {
      "inputs": [
        {
          "internalType": "address",
          "name": "newImplementation",
          "type": "address"
        },
        {
          "internalType": "bytes",
          "name": "data",
          "type": "bytes"
        }
      ],
      "name": "upgradeToAndCall",
      "outputs": [],
      "stateMutability": "payable",
      "type": "function"
    },
    {
      "inputs": [],
      "name": "valueDecimals",
      "outputs": [
        {
          "internalType": "uint8",
          "name": "",
          "type": "uint8"
        }
      ],
      "stateMutability": "view",
      "type": "function"
    },
    {
      "inputs": [
        {
          "internalType": "address",
          "name": "owner",
          "type": "address"
        },
        {
          "internalType": "uint256",
          "name": "network",
          "type": "uint256"
        }
      ],
      "name": "verifyToken",
      "outputs": [
        {
          "internalType": "bool",
          "name": "",
          "type": "bool"
        }
      ],
      "stateMutability": "view",
      "type": "function"
    },
    {
      "inputs": [
        {
          "internalType": "uint256",
          "name": "tokenId",
          "type": "uint256"
        }
      ],
      "name": "verifyToken",
      "outputs": [
        {
          "internalType": "bool",
          "name": "",
          "type": "bool"
        }
      ],
      "stateMutability": "view",
      "type": "function"
    }
  ],
  "transactionHash": "0x1448c42fa109641286183e135fe0be92ce50dd343b5ddfd79043d7611fed7207",
  "args": [],
  "numDeployments": 1,
  "solcInputHash": "87b3170c5841073ac3f676d17cabccfa",
  "bytecode": "0x60a0604052306080523480156200001557600080fd5b506200002062000026565b620000e8565b600054610100900460ff1615620000935760405162461bcd60e51b815260206004820152602760248201527f496e697469616c697a61626c653a20636f6e747261637420697320696e697469604482015266616c697a696e6760c81b606482015260840160405180910390fd5b60005460ff9081161015620000e6576000805460ff191660ff9081179091556040519081527f7f26b83ff96e1f2b6a682f133852f6798a09c465da95921460cefb38474024989060200160405180910390a15b565b6080516157d162000120600039600081816114aa015281816114ea0152818161162301528181611663015261179601526157d16000f3fe6080604052600436106103b65760003560e01c806370f08160116101f9578063b4bd85791161011e578063df2a7fe1116100b6578063e71fb1101161007a578063e71fb11014610c32578063e8a3d48514610c52578063e985e9c514610c67578063ff17e23214610cb4578063ff85a97514610cd457600080fd5b8063df2a7fe114610b68578063df7f453b14610b88578063e0ed6a3114610bc1578063e345e0bc14610be1578063e4b50cb814610c0157600080fd5b8063b4bd857914610a53578063b5d6163514610a73578063b88d4fde14610a93578063babb898d14610aa6578063c2a366fb14610ac6578063c58dbbed14610ae6578063c87b56dd14610b06578063d6fd317514610b26578063d7a78db814610b4857600080fd5b806395d89b411161019157806395d89b411461093957806395ea57171461094e5780639c7525e61461096e5780639cc7f7081461098e578063a05b775f146109ae578063a217fddf146109ce578063a22cb465146109e3578063a578c09314610a03578063a8fa8e0d14610a3357600080fd5b806370f08160146108355780637dbded281461085557806381e9ff191461087557806382d66d5f14610897578063840f7113146108b75780638423df79146108d75780638cb0a511146108eb5780638eb7a776146108f957806390eddd521461091957600080fd5b80633659cfe6116102df57806352d1902d1161027757806352d1902d14610705578063572b6c051461071a5780635c41d2fe146107535780635e79b726146107735780636352211e146107935780636623fc46146107b35780636dba2729146107d35780636f7caf41146107f357806370a082311461081557600080fd5b80633659cfe6146105fd57806336e450411461061d5780633e7e86691461063d57806342842e0e1461065f57806342966c68146106725780634d93172d146106925780634f1ef286146106b25780634f6ccce7146106c557806351da912d146106e557600080fd5b806320c5429b1161035257806320c5429b146104f757806323b872dd14610517578063263f3e7e1461052a5780632d33d27a1461054a5780632f745c591461056a578063310ed7f01461058a57806331416a291461059d57806334e37b8a146105bd5780633568dd29146105dd57600080fd5b806301ffc9a7146103bb57806306fdde03146103f0578063081812fc14610412578063095ea7b31461043f57806309c3dd87146104545780630f485c02146104745780631442f5211461049557806315700052146104c257806318160ddd146104e2575b600080fd5b3480156103c757600080fd5b506103db6103d6366004614a64565b610cf4565b60405190151581526020015b60405180910390f35b3480156103fc57600080fd5b50610405610d55565b6040516103e79190614ad9565b34801561041e57600080fd5b5061043261042d366004614aec565b610de7565b6040516103e79190614b05565b61045261044d366004614b30565b610e39565b005b34801561046057600080fd5b5061040561046f366004614aec565b610e52565b610487610482366004614b5a565b610f53565b6040519081526020016103e7565b3480156104a157600080fd5b506104b56104b0366004614b30565b610f92565b6040516103e79190614b8f565b3480156104ce57600080fd5b506104526104dd366004614bd3565b611049565b3480156104ee57600080fd5b50609d54610487565b34801561050357600080fd5b50610452610512366004614aec565b6110a9565b610452610525366004614bee565b6110fd565b34801561053657600080fd5b50610487610545366004614aec565b611143565b34801561055657600080fd5b5060cc54610432906001600160a01b031681565b34801561057657600080fd5b50610487610585366004614b30565b61118b565b610452610598366004614c1a565b61122c565b3480156105a957600080fd5b506104526105b8366004614c87565b611249565b3480156105c957600080fd5b506104526105d8366004614bd3565b61146e565b3480156105e957600080fd5b506104526105f8366004614b30565b611482565b34801561060957600080fd5b50610452610618366004614bd3565b61149f565b34801561062957600080fd5b50610452610638366004614d74565b611565565b34801561064957600080fd5b50609a5460405160ff90911681526020016103e7565b61045261066d366004614bee565b6115bb565b34801561067e57600080fd5b5061045261068d366004614aec565b6115d6565b34801561069e57600080fd5b506104526106ad366004614bd3565b6115eb565b6104526106c0366004614e6c565b611618565b3480156106d157600080fd5b506104876106e0366004614aec565b6116ce565b3480156106f157600080fd5b50610452610700366004614eb9565b61175f565b34801561071157600080fd5b50610487611789565b34801561072657600080fd5b506103db610735366004614bd3565b6001600160a01b031660009081526097602052604090205460ff1690565b34801561075f57600080fd5b5061045261076e366004614bd3565b611837565b34801561077f57600080fd5b5061045261078e366004614ef3565b611867565b34801561079f57600080fd5b506104326107ae366004614aec565b61187d565b3480156107bf57600080fd5b506104526107ce366004614aec565b6118ed565b3480156107df57600080fd5b506103db6107ee366004614b30565b611902565b3480156107ff57600080fd5b5061048760008051602061571583398151915281565b34801561082157600080fd5b50610487610830366004614bd3565b61191d565b34801561084157600080fd5b50610452610850366004614b30565b6119a5565b34801561086157600080fd5b50610452610870366004614f2e565b6119be565b34801561088157600080fd5b5061048760008051602061569583398151915281565b3480156108a357600080fd5b506104526108b2366004614b30565b611bad565b3480156108c357600080fd5b5060a054610432906001600160a01b031681565b3480156108e357600080fd5b5060016103db565b61045261044d366004614b5a565b34801561090557600080fd5b50610452610914366004614d74565b611bc2565b34801561092557600080fd5b50610452610934366004614b30565b611be2565b34801561094557600080fd5b50610405611bfb565b34801561095a57600080fd5b50610405610969366004614aec565b611c0a565b34801561097a57600080fd5b50610452610989366004614f9d565b611cac565b34801561099a57600080fd5b506104876109a9366004614aec565b611d5b565b3480156109ba57600080fd5b506104876109c9366004614aec565b611da3565b3480156109da57600080fd5b50610487600081565b3480156109ef57600080fd5b506104526109fe366004614fe8565b611dc1565b348015610a0f57600080fd5b506103db610a1e366004614aec565b60ce6020526000908152604090205460ff1681565b348015610a3f57600080fd5b50610452610a4e366004614bee565b611dd3565b348015610a5f57600080fd5b50610487610a6e366004614aec565b611f2c565b348015610a7f57600080fd5b50610452610a8e366004614d74565b611f40565b610452610aa136600461501f565b611f60565b348015610ab257600080fd5b506103db610ac1366004614d74565b611f93565b348015610ad257600080fd5b506103db610ae1366004614b30565b611fc4565b348015610af257600080fd5b50610452610b01366004614bd3565b611fdf565b348015610b1257600080fd5b50610405610b21366004614aec565b61203c565b348015610b3257600080fd5b506104876000805160206156b583398151915281565b348015610b5457600080fd5b50610452610b63366004614aec565b6120db565b348015610b7457600080fd5b50610487610b83366004614eb9565b6120f0565b348015610b9457600080fd5b506103db610ba3366004614bd3565b6001600160a01b0316600090815260cb602052604090205460ff1690565b348015610bcd57600080fd5b50610452610bdc366004615086565b61210f565b348015610bed57600080fd5b50610487610bfc3660046150cc565b612158565b348015610c0d57600080fd5b50610c21610c1c366004614aec565b61218c565b6040516103e79594939291906150f8565b348015610c3e57600080fd5b50610452610c4d366004614bd3565b6121ec565b348015610c5e57600080fd5b506104056121fd565b348015610c7357600080fd5b506103db610c82366004615139565b6001600160a01b039182166000908152609f602090815260408083209390941682526002909201909152205460ff1690565b348015610cc057600080fd5b506103db610ccf366004614b30565b612306565b348015610ce057600080fd5b506103db610cef366004614aec565b612377565b60006001600160e01b03198216630354d60560e61b1480610d2557506001600160e01b031982166380ac58cd60e01b145b80610d4057506001600160e01b031982166370b0048160e11b145b80610d4f5750610d4f82612384565b92915050565b606060988054610d6490615163565b80601f0160208091040260200160405190810160405280929190818152602001828054610d9090615163565b8015610ddd5780601f10610db257610100808354040283529160200191610ddd565b820191906000526020600020905b815481529060010190602001808311610dc057829003601f168201915b5050505050905090565b6000610df2826123b9565b6000828152609e6020526040902054609d80549091908110610e1657610e16615198565b60009182526020909120600460069092020101546001600160a01b031692915050565b60405163c03a3ff560e01b815260040160405180910390fd5b60606000610e6b60408051602081019091526000815290565b60a0549091506001600160a01b0316610ecb576000815111610e9c5760405180602001604052806000815250610f4c565b80610ea6846123de565b604051602001610eb79291906151ae565b604051602081830303815290604052610f4c565b60a054604051633601bfc560e11b8152600481018590526001600160a01b0390911690636c037f8a906024015b60006040518083038186803b158015610f1057600080fd5b505afa158015610f24573d6000803e3d6000fd5b505050506040513d6000823e601f3d908101601f19168201604052610f4c91908101906151ee565b9392505050565b6000610f67610f6061247a565b8584612489565b610f7084612504565b9050610f878382610f8087611143565b600061250e565b610f4c848284612635565b6060600080610fa18585612914565b915091506000816001600160401b03811115610fbf57610fbf614da9565b604051908082528060200260200182016040528015610fe8578160200160208202803683370190505b50905060005b8281101561103f5783818151811061100857611008615198565b602002602001015182828151811061102257611022615198565b60209081029190910101528061103781615271565b915050610fee565b5095945050505050565b6110516129e1565b6040516001600160a01b038216907f286f82d2b1e37b5e9f33e455d014b4a5f6c29388e6e41e1281d4c83e04f4265590600090a26001600160a01b0316600090815260cb60205260409020805460ff19166001179055565b6110ba6110b582611143565b6129f3565b600081815260cf6020526040808220805460ff191660021790555182917fdb43aa42235c8d63908794a952603e8d43a549383d13123c3d893a3fc2e6249591a250565b61110e61110861247a565b50600090565b6111335760405162461bcd60e51b815260040161112a906152a2565b60405180910390fd5b61113e838383612a0b565b505050565b600061114e826123b9565b6000828152609e6020526040902054609d8054909190811061117257611172615198565b9060005260206000209060060201600101549050919050565b60006111968361191d565b82106111ef5760405162461bcd60e51b815260206004820152602260248201527f455243333532353a206f776e657220696e646578206f7574206f6620626f756e604482015261647360f01b606482015260840161112a565b6001600160a01b0383166000908152609f6020526040902080548390811061121957611219615198565b9060005260206000200154905092915050565b61123e61123761247a565b8483612489565b61113e838383612635565b600054610100900460ff16158080156112695750600054600160ff909116105b8061128a575061127830612b5a565b15801561128a575060005460ff166001145b6112a65760405162461bcd60e51b815260040161112a906152f4565b6000805460ff1916600117905580156112c9576000805461ff0019166101001790555b6001600160a01b0385166112f057604051630ca2c90160e21b815260040160405180910390fd5b6001600160a01b03841661131757604051630ca2c90160e21b815260040160405180910390fd5b60005b8281101561138557600084848381811061133657611336615198565b905060200201602081019061134b9190614bd3565b6001600160a01b0316141561137357604051630ca2c90160e21b815260040160405180910390fd5b8061137d81615271565b91505061131a565b506113f989898080601f01602080910402602001604051908101604052809392919081815260200183838082843760009201919091525050604080516020601f8d018190048102820181019092528b815292508b91508a908190840183828082843760009201829052509250612b69915050565b6114038383612b9b565b61140c84612c5d565b6001600160a01b038516600090815260cb60205260409020805460ff191660011790558015611463576000805461ff0019169055604051600181526000805160206157358339815191529060200160405180910390a15b505050505050505050565b6114766129e1565b61147f81612c5d565b50565b61149b6000805160206156b58339815191528284611bc2565b5050565b306001600160a01b037f00000000000000000000000000000000000000000000000000000000000000001614156114e85760405162461bcd60e51b815260040161112a90615342565b7f00000000000000000000000000000000000000000000000000000000000000006001600160a01b031661151a612ca7565b6001600160a01b0316146115405760405162461bcd60e51b815260040161112a9061538e565b61154981612cc3565b6040805160008082526020820190925261147f91839190612ccb565b61156d61247a565b6001600160a01b0316816001600160a01b0316146115b0576040516307ca099360e31b8152600481018490526001600160a01b038216602482015260440161112a565b61113e838383612e45565b61113e83838360405180602001604052806000815250611f60565b6115e26110b582611143565b61147f81612ee1565b6115f36129e1565b61147f816001600160a01b03166000908152609760205260409020805460ff19169055565b306001600160a01b037f00000000000000000000000000000000000000000000000000000000000000001614156116615760405162461bcd60e51b815260040161112a90615342565b7f00000000000000000000000000000000000000000000000000000000000000006001600160a01b0316611693612ca7565b6001600160a01b0316146116b95760405162461bcd60e51b815260040161112a9061538e565b6116c282612cc3565b61149b82826001612ccb565b60006116d9609d5490565b82106117335760405162461bcd60e51b815260206004820152602360248201527f455243333532353a20676c6f62616c20696e646578206f7574206f6620626f756044820152626e647360e81b606482015260840161112a565b609d828154811061174657611746615198565b9060005260206000209060060201600001549050919050565b61177f6000805160206156b583398151915261177a84611143565b612fde565b61149b8282612ff0565b6000306001600160a01b037f000000000000000000000000000000000000000000000000000000000000000016146118245760405162461bcd60e51b815260206004820152603860248201527f555550535570677261646561626c653a206d757374206e6f742062652063616c6044820152771b1959081d1a1c9bdd59da0819195b1959d85d1958d85b1b60421b606482015260840161112a565b506000805160206156f583398151915290565b61183f6129e1565b61147f816001600160a01b03166000908152609760205260409020805460ff19166001179055565b6118736110b584611143565b61113e838361303f565b6000611888826123b9565b6000828152609e6020526040902054609d805490919081106118ac576118ac615198565b60009182526020909120600360069092020101546001600160a01b03169050806118e85760405162461bcd60e51b815260040161112a906153da565b919050565b6118f96110b582611143565b61147f8161309b565b6000610f4c6000805160206156b58339815191528385611f93565b60006001600160a01b0382166119895760405162461bcd60e51b815260206004820152602b60248201527f455243333532353a2062616c616e636520717565727920666f7220746865207a60448201526a65726f206164647265737360a81b606482015260840161112a565b506001600160a01b03166000908152609f602052604090205490565b61149b6000805160206156b58339815191528284611f40565b600085815260d16020526040902080546119d790615163565b1590506119fa57604051636f55f62b60e01b81526004810186905260240161112a565b600085815260d160205260409020611a139085856148ce565b508115611b3857600085815260ce60205260409020805460ff19168315151790556001600160a01b038116611a5b57604051630ca2c90160e21b815260040160405180910390fd5b611a6d816001600160a01b0316612b5a565b611a8c578060405163d4daafa160e01b815260040161112a9190614b05565b611aa56000805160206156958339815191528683613142565b611abe6000805160206157158339815191528683613142565b611ae5600080516020615715833981519152866000805160206156958339815191526131d3565b611b0c6000805160206156b5833981519152866000805160206156958339815191526131d3565b611b33600080516020615695833981519152866000805160206156958339815191526131d3565b611ba6565b611b5860008051602061571583398151915286611b5361247a565b613142565b611b7f600080516020615715833981519152866000805160206157158339815191526131d3565b611ba66000805160206156b5833981519152866000805160206157158339815191526131d3565b5050505050565b61149b60008051602061571583398151915282845b611bcc83836120f0565b82611bd78282612fde565b611ba6858585612e45565b61149b6000805160206157158339815191528284611f40565b606060998054610d6490615163565b600081815260d160205260409020805460609190611c2790615163565b80601f0160208091040260200160405190810160405280929190818152602001828054611c5390615163565b8015611ca05780601f10611c7557610100808354040283529160200191611ca0565b820191906000526020600020905b815481529060010190602001808311611c8357829003601f168201915b50505050509050919050565b600083815260d1602052604090208054611cc590615163565b15159050611ce957604051630817886d60e41b81526004810184905260240161112a565b611d0460008051602061571583398151915284610ac161247a565b611d3c57611d1061247a565b8360008051602061571583398151915260405163c8c801a760e01b815260040161112a9392919061540d565b600083815260d160205260409020611d559083836148ce565b50505050565b6000611d66826123b9565b6000828152609e6020526040902054609d80549091908110611d8a57611d8a615198565b9060005260206000209060060201600201549050919050565b6000611dae8261323e565b50600090815260d0602052604090205490565b61149b611dcc61247a565b8383613267565b600081815260ce602052604090205460ff16611e055760405163db53ce7160e01b81526004810182905260240161112a565b611e1e600080516020615695833981519152828561333b565b6001600160a01b038216611e4557604051630ca2c90160e21b815260040160405180910390fd5b611e5e6000805160206156958339815191528284611f40565b611e776000805160206157158339815191528284611f40565b611e906000805160206156b58339815191528284611f40565b611ea96000805160206156b58339815191528285611bc2565b611ec26000805160206157158339815191528285611bc2565b611edb6000805160206156958339815191528285611bc2565b604080516001600160a01b038086168252841660208201529081018290527f744258a28673e8738e2812c0ab8e8dbd70352f8871b1febac0dd753d96d79f58906060015b60405180910390a1505050565b600081815260cd6020526040812054610d4f565b611f4a83836120f0565b82611f558282612fde565b611ba6858585613142565b611f6b61110861247a565b611f875760405162461bcd60e51b815260040161112a906152a2565b611d5584848484613369565b600091825260ca602090815260408084209484529381528383206001600160a01b0392909216835252205460ff1690565b6000610f4c6000805160206157158339815191528385611f93565b611fe76129e1565b6040516001600160a01b038216907ffb445f6ec07647d2bb7af72821e6b8b7303ec375e934d4a338d38ed5846c2d5690600090a26001600160a01b0316600090815260cb60205260409020805460ff19169055565b6060612047826123b9565b600061205e60408051602081019091526000815290565b60a0549091506001600160a01b03166120aa57600081511161208f5760405180602001604052806000815250610f4c565b80612099846123de565b604051602001610eb792919061542e565b60a0546040516344a5a61760e11b8152600481018590526001600160a01b039091169063894b4c2e90602401610ef8565b6120e76110b582611143565b61147f816133dc565b600090815260ca60209081526040808320938352929052206001015490565b612118846129f3565b60006121268686600161342a565b9050831561214057600081815260d0602052604090208490555b8215612150576121508184612ff0565b505050505050565b6000612163836123b9565b506000918252609c602090815260408084206001600160a01b0393909316845291905290205490565b600080606060008061219d8661187d565b600087815260cf602052604090205490955060ff1660028111156121c3576121c361528c565b600096875260d0602090815260408089205460cd90925290972054959790969395939450915050565b6121f46129e1565b61147f81613442565b6060600061221660408051602081019091526000815290565b60a0549091506001600160a01b03166122765760008151116122475760405180602001604052806000815250612300565b806122513061348c565b60405160200161226292919061545d565b604051602081830303815290604052612300565b60a060009054906101000a90046001600160a01b03166001600160a01b031663725fa09c6040518163ffffffff1660e01b815260040160006040518083038186803b1580156122c457600080fd5b505afa1580156122d8573d6000803e3d6000fd5b505050506040513d6000823e601f3d908101601f1916820160405261230091908101906151ee565b91505090565b60008060006123158585612914565b9150915060005b8181101561236b5761234883828151811061233957612339615198565b602002602001015160006134a2565b156123595760019350505050610d4f565b8061236381615271565b91505061231c565b50600095945050505050565b6000610d4f8260006134a2565b60006001600160e01b031982166333cb74f560e11b1480610d4f57506301ffc9a760e01b6001600160e01b0319831614610d4f565b6123c281613547565b61147f5760405162461bcd60e51b815260040161112a906153da565b606060006123eb83613593565b60010190506000816001600160401b0381111561240a5761240a614da9565b6040519080825280601f01601f191660200182016040528015612434576020820181803683370190505b5090508181016020015b600019016f181899199a1a9b1b9c1cb0b131b232b360811b600a86061a8153600a850494508461246d57612472565b61243e565b509392505050565b600061248461366b565b905090565b60006124958385612158565b90506000198114611d5557818110156124f05760405162461bcd60e51b815260206004820152601f60248201527f455243333532353a20696e73756666696369656e7420616c6c6f77616e636500604482015260640161112a565b611d5583856124ff85856154a1565b613695565b6000610d4f6137c4565b6001600160a01b03841661256e5760405162461bcd60e51b815260206004820152602160248201527f455243333532353a206d696e7420746f20746865207a65726f206164647265736044820152607360f81b606482015260840161112a565b826125c55760405162461bcd60e51b815260206004820152602160248201527f455243333532353a2063616e6e6f74206d696e74207a65726f20746f6b656e496044820152601960fa1b606482015260840161112a565b6125ce83613547565b1561261b5760405162461bcd60e51b815260206004820152601d60248201527f455243333532353a20746f6b656e20616c7265616479206d696e746564000000604482015260640161112a565b6126268484846137db565b612630838261388f565b611d55565b61263e83613547565b61269a5760405162461bcd60e51b815260206004820152602760248201527f455243333532353a207472616e736665722066726f6d20696e76616c696420746044820152661bdad95b88125160ca1b606482015260840161112a565b6126a382613547565b6126fd5760405162461bcd60e51b815260206004820152602560248201527f455243333532353a207472616e7366657220746f20696e76616c696420746f6b604482015264195b88125160da1b606482015260840161112a565b6000838152609e6020526040812054609d8054909190811061272157612721615198565b906000526020600020906006020190506000609d609e6000868152602001908152602001600020548154811061275957612759615198565b9060005260206000209060060201905082826002015410156127d05760405162461bcd60e51b815260206004820152602a60248201527f455243333532353a20696e73756666696369656e742062616c616e636520666f60448201526939103a3930b739b332b960b11b606482015260840161112a565b806001015482600101541461283e5760405162461bcd60e51b815260206004820152602e60248201527f455243333532353a207472616e7366657220746f20746f6b656e20776974682060448201526d191a5999995c995b9d081cdb1bdd60921b606482015260840161112a565b8282600201600082825461285291906154a1565b925050819055508281600201600082825461286d91906154b8565b9091555050604051838152849086906000805160206156d58339815191529060200160405180910390a36128b285858560405180602001604052806000815250613902565b611ba65760405162461bcd60e51b815260206004820152602d60248201527f455243333532353a207472616e736665722072656a656374656420627920455260448201526c21999a991aa932b1b2b4bb32b960991b606482015260840161112a565b60606000806129228561191d565b90506000816001600160401b0381111561293e5761293e614da9565b604051908082528060200260200182016040528015612967578160200160208202803683370190505b5090506000805b838110156129d2576000612982898361118b565b90508761298e82611143565b14156129bf578084846129a081615271565b9550815181106129b2576129b2615198565b6020026020010181815250505b50806129ca81615271565b91505061296e565b509093509150505b9250929050565b6129f16129ec61247a565b613a63565b565b61147f6000805160206156b583398151915282612fde565b826001600160a01b0316612a1e8261187d565b6001600160a01b031614612a805760405162461bcd60e51b8152602060048201526024808201527f455243333532353a207472616e736665722066726f6d20696e76616c6964206f6044820152633bb732b960e11b606482015260840161112a565b6001600160a01b038216612ae45760405162461bcd60e51b815260206004820152602560248201527f455243333532353a207472616e7366657220746f20746865207a65726f206164604482015264647265737360d81b606482015260840161112a565b6000612aef82611143565b90506000612afc83611d5b565b9050612b09600084613a9e565b612b1283613b35565b612b1c8584613be0565b612b268484613d01565b82846001600160a01b0316866001600160a01b031660008051602061577c83398151915260405160405180910390a4611ba6565b6001600160a01b03163b151590565b600054610100900460ff16612b905760405162461bcd60e51b815260040161112a906154d0565b61113e838383613d8a565b600054610100900460ff1615808015612bbb5750600054600160ff909116105b80612bdc5750612bca30612b5a565b158015612bdc575060005460ff166001145b612bf85760405162461bcd60e51b815260040161112a906152f4565b6000805460ff191660011790558015612c1b576000805461ff0019166101001790555b612c23613df1565b612c2d8383613e18565b801561113e576000805461ff00191690556040516001815260008051602061573583398151915290602001611f1f565b60cc80546001600160a01b0319166001600160a01b0383169081179091556040517f5e4a30f4224898dbac86adca855a5edd3b8341a3aeb2b6ff0f0b5a82c013b65a90600090a250565b6000805160206156f5833981519152546001600160a01b031690565b61147f6129e1565b7f4910fdfa16fed3260ed0e7147f7cc6da11a60208b5b9406d12a635614ffd91435460ff1615612cfe5761113e83613f3b565b826001600160a01b03166352d1902d6040518163ffffffff1660e01b815260040160206040518083038186803b158015612d3757600080fd5b505afa925050508015612d67575060408051601f3d908101601f19168201909252612d649181019061551b565b60015b612dca5760405162461bcd60e51b815260206004820152602e60248201527f45524331393637557067726164653a206e657720696d706c656d656e7461746960448201526d6f6e206973206e6f74205555505360901b606482015260840161112a565b6000805160206156f58339815191528114612e395760405162461bcd60e51b815260206004820152602960248201527f45524331393637557067726164653a20756e737570706f727465642070726f786044820152681a58589b195555525160ba1b606482015260840161112a565b5061113e838383613fd5565b612e50838383611f93565b1561113e57600082815260ca6020908152604080832086845282528083206001600160a01b03851684529091529020805460ff19169055612e8f61247a565b6001600160a01b0316816001600160a01b0316847f6f9148fcdc32766ca802c14716295d56eab7ed848d0dba113966f40087c8839085604051612ed491815260200190565b60405180910390a4505050565b612eea816123b9565b6000818152609e6020526040812054609d80549091908110612f0e57612f0e615198565b60009182526020909120600691909102016003810154600182015460028301549293506001600160a01b0390911691612f4685613b35565b612f508386613be0565b612f5985613ffa565b6000856000805160206156d583398151915283604051612f7b91815260200190565b60405180910390a3600082867fe4f48c240d3b994948aa54f3e2f5fca59263dfe1d52b6e4cf39a5d249b5ccb6560405160405180910390a460405185906000906001600160a01b0386169060008051602061577c833981519152908390a4611ba6565b61149b8282612feb61247a565b61333b565b600082815260cd602090815260409182902083905581518481529081018390527f5e07998cef9cea674942c66f0ea7b0bce89ab9473ce240cc93d616c3491f8aeb910160405180910390a15050565b61304a826001614208565b600082815260d06020526040908190208290555182907f1ebc57da8b3ebab98506502fbb73232ea29fbe86e4963a5a8c004810ad11190d9061308f9084815260200190565b60405180910390a25050565b6130a48161323e565b6001600082815260cf602052604090205460ff1660028111156130c9576130c961528c565b1461310257600081815260cf6020526040908190205490516308c9ef2d60e11b815261112a91839160ff90911690600190600401615556565b600081815260cf6020526040808220805460ff191690555182917fe2babfd5e77285a3c3dbc4b25592cbe4a7a26e97a7ac63067a22ebdaa9b82add91a250565b61314d838383611f93565b61113e57600082815260ca6020908152604080832086845282528083206001600160a01b03851684529091529020805460ff1916600117905561318e61247a565b6001600160a01b0316816001600160a01b0316847f4dc88bd74ca601684356789d5b3dbc9cd44275b2544e8d35041203703b76823285604051612ed491815260200190565b60006131df84846120f0565b600084815260ca6020908152604080832088845282529182902060010185905590518581529192508391839187917f15f4a36186b2284157fe71215a07487f6c8bdc1203b3307c3e1fd9693011d3d3910160405180910390a450505050565b61324781613547565b61147f576040516321fbdd2b60e11b81526004810182905260240161112a565b816001600160a01b0316836001600160a01b031614156132c95760405162461bcd60e51b815260206004820152601a60248201527f455243333532353a20617070726f766520746f2063616c6c6572000000000000604482015260640161112a565b6001600160a01b038381166000818152609f602090815260408083209487168084526002909501825291829020805460ff191686151590811790915591519182527f17307eab39ab6107e8899845ad3d59bd9653f200f220920489ca2b5937696c3191015b60405180910390a3505050565b613346838383611f93565b61113e5780828460405163c8c801a760e01b815260040161112a9392919061540d565b613374848484612a0b565b6133808484848461423a565b611d555760405162461bcd60e51b815260206004820152602760248201527f455243333532353a207472616e7366657220746f206e6f6e204552433732315260448201526632b1b2b4bb32b960c91b606482015260840161112a565b6133e7816001614208565b600081815260cf6020526040808220805460ff191660011790555182917f779fbee689bbd6f006ecb329206d35c7db7380f9837a8826fb8dc5cfcd3d33dd91a250565b60006134346137c4565b9050610f4c8482858561250e565b60a080546001600160a01b0319166001600160a01b0383169081179091556040517f5252f52e45fc8ee6a7b43cef3645d23e9a470a34182b8b3a12627556635bfc9c90600090a250565b6060610d4f6001600160a01b038316601461439d565b600082815260cf602052604081205460ff16818160028111156134c7576134c761528c565b146134d6576000915050610d4f565b60006134e18561187d565b600086815260d06020526040902054909150158015906134ff575083155b15613533576001600160a01b0381161580159061352a5750600085815260d060205260409020544211155b92505050610d4f565b6001600160a01b031615159150610d4f9050565b609d5460009015801590610d4f57506000828152609e6020526040902054609d8054849290811061357a5761357a615198565b9060005260206000209060060201600001541492915050565b60008072184f03e93ff9f4daa797ed6e38ed64bf6a1f0160401b83106135d25772184f03e93ff9f4daa797ed6e38ed64bf6a1f0160401b830492506040015b6d04ee2d6d415b85acef810000000083106135fe576d04ee2d6d415b85acef8100000000830492506020015b662386f26fc10000831061361c57662386f26fc10000830492506010015b6305f5e1008310613634576305f5e100830492506008015b612710831061364857612710830492506004015b6064831061365a576064830492506002015b600a8310610d4f5760010192915050565b3360009081526097602052604081205460ff1615613690575060131936013560601c90565b503390565b6001600160a01b0382166136fe5760405162461bcd60e51b815260206004820152602a60248201527f455243333532353a20617070726f76652076616c756520746f20746865207a65604482015269726f206164647265737360b01b606482015260840161112a565b6137088284614538565b61376e576000838152609e6020526040902054609d8054909190811061373057613730615198565b60009182526020808320600692909202909101600501805460018101825590835291200180546001600160a01b0319166001600160a01b0384161790555b6000838152609c602090815260408083206001600160a01b038616808552908352928190208490555183815285917f621b050de0ad08b51d19b48b3e6df75348c4de6bdd93e81b252ca62e28265b1b910161332e565b60006137d4609b80546001019055565b50609b5490565b6040805160c081018252838152602080820184905260008284018190526001600160a01b038716606084015260808301819052835181815291820190935260a082015290506138298161460c565b6138338484613d01565b60405183906001600160a01b0386169060009060008051602061577c833981519152908290a4816000847fe4f48c240d3b994948aa54f3e2f5fca59263dfe1d52b6e4cf39a5d249b5ccb6560405160405180910390a450505050565b6000828152609e6020526040902054609d805483929081106138b3576138b3615198565b906000526020600020906006020160020160008282546138d391906154b8565b909155505060405181815282906000906000805160206156d58339815191529060200160405180910390a35050565b60008061390e8561187d565b9050613922816001600160a01b0316612b5a565b80156139a657506040516301ffc9a760e01b8152629ce20b60e01b60048201526001600160a01b038216906301ffc9a79060240160206040518083038186803b15801561396e57600080fd5b505afa158015613982573d6000803e3d6000fd5b505050506040513d601f19601f820116820180604052508101906139a69190615577565b15613a55576000816001600160a01b0316629ce20b6139c361247a565b898989896040518663ffffffff1660e01b81526004016139e7959493929190615594565b602060405180830381600087803b158015613a0157600080fd5b505af1158015613a15573d6000803e3d6000fd5b505050506040513d601f19601f82011682018060405250810190613a3991906155d2565b6001600160e01b031916629ce20b60e01b149250613a5b915050565b60019150505b949350505050565b6001600160a01b038116600090815260cb602052604090205460ff1661147f5780604051632957ccdd60e21b815260040161112a9190614b05565b6000818152609e6020526040902054609d80548492908110613ac257613ac2615198565b6000918252602090912060069091020160040180546001600160a01b0319166001600160a01b0392831617905581908316613afc8261187d565b6001600160a01b03167f8c5be1e5ebec7d5bd14f71427d1e84f3dd0314c0f7b2291e5b200ac8c7c3b92560405160405180910390a45050565b6000818152609e6020526040812054609d80549091908110613b5957613b59615198565b600091825260208220600560069092020190810154909250905b81811015613bd1576000836005018281548110613b9257613b92615198565b6000918252602080832090910154878352609c825260408084206001600160a01b03909216845291528120555080613bc981615271565b915050613b73565b5061113e600583016000614952565b6000818152609e6020526040812054609d80549091908110613c0457613c04615198565b6000918252602080832060069290920290910160030180546001600160a01b0319166001600160a01b039485161790559184168152609f909152604081208054909190613c53906001906154a1565b90506000826000018281548110613c6c57613c6c615198565b90600052602060002001549050600083600101600086815260200190815260200160002054905081846000018281548110613ca957613ca9615198565b60009182526020808320909101929092558381526001860190915260408082208390558682528120558354849080613ce357613ce36155ef565b60019003818190600052602060002001600090559055505050505050565b6000818152609e6020526040902054609d80548492908110613d2557613d25615198565b6000918252602080832060069290920290910160030180546001600160a01b0319166001600160a01b03948516179055939091168152609f80845260408083208054858552600182810188529285208190559286529082018155825292902090910155565b600054610100900460ff16613db15760405162461bcd60e51b815260040161112a906154d0565b8251613dc4906098906020860190614970565b508151613dd8906099906020850190614970565b50609a805460ff191660ff929092169190911790555050565b600054610100900460ff166129f15760405162461bcd60e51b815260040161112a906154d0565b600054610100900460ff1615808015613e385750600054600160ff909116105b80613e595750613e4730612b5a565b158015613e59575060005460ff166001145b613e755760405162461bcd60e51b815260040161112a906152f4565b6000805460ff191660011790558015613e98576000805461ff0019166101001790555b60005b82811015613f0a57600160976000868685818110613ebb57613ebb615198565b9050602002016020810190613ed09190614bd3565b6001600160a01b031681526020810191909152604001600020805460ff191691151591909117905580613f0281615271565b915050613e9b565b50801561113e576000805461ff00191690556040516001815260008051602061573583398151915290602001611f1f565b613f4481612b5a565b613fa65760405162461bcd60e51b815260206004820152602d60248201527f455243313936373a206e657720696d706c656d656e746174696f6e206973206e60448201526c1bdd08184818dbdb9d1c9858dd609a1b606482015260840161112a565b6000805160206156f583398151915280546001600160a01b0319166001600160a01b0392909216919091179055565b613fde8361475e565b600082511180613feb5750805b1561113e57611d55838361479e565b609d5460009061400c906001906154a1565b6000838152609e6020526040812054609d805493945090928490811061403457614034615198565b60009182526020918290206040805160c08101825260069093029091018054835260018101548385015260028101548383015260038101546001600160a01b03908116606085015260048201541660808401526005810180548351818702810187019094528084529394919360a0860193928301828280156140df57602002820191906000526020600020905b81546001600160a01b031681526001909101906020018083116140c1575b505050505081525050905080609d83815481106140fe576140fe615198565b600091825260209182902083516006909202019081558282015160018201556040830151600282015560608301516003820180546001600160a01b039283166001600160a01b031991821617909155608085015160048401805491909316911617905560a08301518051919261417c926005850192909101906149e4565b505081516000908152609e602052604080822085905586825281205550609d8054806141aa576141aa6155ef565b60008281526020812060066000199093019283020181815560018101829055600281018290556003810180546001600160a01b03199081169091556004820180549091169055906141fe6005830182614952565b5050905550505050565b61421282826134a2565b61149b576040516316af84a960e21b815260048101839052811515602482015260440161112a565b600061424e846001600160a01b0316612b5a565b1561439557836001600160a01b031663150b7a0261426a61247a565b8786866040518563ffffffff1660e01b815260040161428c9493929190615605565b602060405180830381600087803b1580156142a657600080fd5b505af19250505080156142d6575060408051601f3d908101601f191682019092526142d3918101906155d2565b60015b61437b573d808015614304576040519150601f19603f3d011682016040523d82523d6000602084013e614309565b606091505b5080516143735760405162461bcd60e51b815260206004820152603260248201527f4552433732313a207472616e7366657220746f206e6f6e20455243373231526560448201527131b2b4bb32b91034b6b83632b6b2b73a32b960711b606482015260840161112a565b805181602001fd5b6001600160e01b031916630a85bd0160e11b149050613a5b565b506001613a5b565b606060006143ac836002615642565b6143b79060026154b8565b6001600160401b038111156143ce576143ce614da9565b6040519080825280601f01601f1916602001820160405280156143f8576020820181803683370190505b509050600360fc1b8160008151811061441357614413615198565b60200101906001600160f81b031916908160001a905350600f60fb1b8160018151811061444257614442615198565b60200101906001600160f81b031916908160001a9053506000614466846002615642565b6144719060016154b8565b90505b60018111156144e9576f181899199a1a9b1b9c1cb0b131b232b360811b85600f16601081106144a5576144a5615198565b1a60f81b8282815181106144bb576144bb615198565b60200101906001600160f81b031916908160001a90535060049490941c936144e281615661565b9050614474565b508315610f4c5760405162461bcd60e51b815260206004820181905260248201527f537472696e67733a20686578206c656e67746820696e73756666696369656e74604482015260640161112a565b6000818152609e6020526040812054609d8054839290811061455c5761455c615198565b6000918252602082206005600690920201015491505b81811015614601576000848152609e6020526040902054609d80546001600160a01b038816929081106145a7576145a7615198565b906000526020600020906006020160050182815481106145c9576145c9615198565b6000918252602090912001546001600160a01b031614156145ef57600192505050610d4f565b806145f981615271565b915050614572565b506000949350505050565b609d805482516000908152609e6020908152604080832084905560018401855593909152835160069092027fd26e832454299e9fabb89e0e5fffdc046d4e14431bc1bf607ffb2e8a1ddecf7b8101928355818501517fd26e832454299e9fabb89e0e5fffdc046d4e14431bc1bf607ffb2e8a1ddecf7c820155928401517fd26e832454299e9fabb89e0e5fffdc046d4e14431bc1bf607ffb2e8a1ddecf7d84015560608401517fd26e832454299e9fabb89e0e5fffdc046d4e14431bc1bf607ffb2e8a1ddecf7e840180546001600160a01b039283166001600160a01b03199182161790915560808601517fd26e832454299e9fabb89e0e5fffdc046d4e14431bc1bf607ffb2e8a1ddecf7f8601805491909316911617905560a084015180518594611d55937fd26e832454299e9fabb89e0e5fffdc046d4e14431bc1bf607ffb2e8a1ddecf809091019201906149e4565b61476781613f3b565b6040516001600160a01b038216907fbc7cd75a20ee27fd9adebab32041f755214dbc6bffa90cc0225b39da2e5c2d3b90600090a250565b60606147a983612b5a565b6148045760405162461bcd60e51b815260206004820152602660248201527f416464726573733a2064656c65676174652063616c6c20746f206e6f6e2d636f6044820152651b9d1c9858dd60d21b606482015260840161112a565b600080846001600160a01b03168460405161481f9190615678565b600060405180830381855af49150503d806000811461485a576040519150601f19603f3d011682016040523d82523d6000602084013e61485f565b606091505b5091509150614887828260405180606001604052806027815260200161575560279139614890565b95945050505050565b6060831561489f575081610f4c565b610f4c83838151156148b45781518083602001fd5b8060405162461bcd60e51b815260040161112a9190614ad9565b8280546148da90615163565b90600052602060002090601f0160209004810192826148fc5760008555614942565b82601f106149155782800160ff19823516178555614942565b82800160010185558215614942579182015b82811115614942578235825591602001919060010190614927565b5061494e929150614a39565b5090565b508054600082559060005260206000209081019061147f9190614a39565b82805461497c90615163565b90600052602060002090601f01602090048101928261499e5760008555614942565b82601f106149b757805160ff1916838001178555614942565b82800160010185558215614942579182015b828111156149425782518255916020019190600101906149c9565b828054828255906000526020600020908101928215614942579160200282015b8281111561494257825182546001600160a01b0319166001600160a01b03909116178255602090920191600190910190614a04565b5b8082111561494e5760008155600101614a3a565b6001600160e01b03198116811461147f57600080fd5b600060208284031215614a7657600080fd5b8135610f4c81614a4e565b60005b83811015614a9c578181015183820152602001614a84565b83811115611d555750506000910152565b60008151808452614ac5816020860160208601614a81565b601f01601f19169290920160200192915050565b602081526000610f4c6020830184614aad565b600060208284031215614afe57600080fd5b5035919050565b6001600160a01b0391909116815260200190565b80356001600160a01b03811681146118e857600080fd5b60008060408385031215614b4357600080fd5b614b4c83614b19565b946020939093013593505050565b600080600060608486031215614b6f57600080fd5b83359250614b7f60208501614b19565b9150604084013590509250925092565b6020808252825182820181905260009190848201906040850190845b81811015614bc757835183529284019291840191600101614bab565b50909695505050505050565b600060208284031215614be557600080fd5b610f4c82614b19565b600080600060608486031215614c0357600080fd5b614c0c84614b19565b9250614b7f60208501614b19565b600080600060608486031215614c2f57600080fd5b505081359360208301359350604090920135919050565b60008083601f840112614c5857600080fd5b5081356001600160401b03811115614c6f57600080fd5b6020830191508360208285010111156129da57600080fd5b60008060008060008060008060a0898b031215614ca357600080fd5b88356001600160401b0380821115614cba57600080fd5b614cc68c838d01614c46565b909a50985060208b0135915080821115614cdf57600080fd5b614ceb8c838d01614c46565b9098509650869150614cff60408c01614b19565b9550614d0d60608c01614b19565b945060808b0135915080821115614d2357600080fd5b818b0191508b601f830112614d3757600080fd5b813581811115614d4657600080fd5b8c60208260051b8501011115614d5b57600080fd5b6020830194508093505050509295985092959890939650565b600080600060608486031215614d8957600080fd5b8335925060208401359150614da060408501614b19565b90509250925092565b634e487b7160e01b600052604160045260246000fd5b604051601f8201601f191681016001600160401b0381118282101715614de757614de7614da9565b604052919050565b60006001600160401b03821115614e0857614e08614da9565b50601f01601f191660200190565b600082601f830112614e2757600080fd5b8135614e3a614e3582614def565b614dbf565b818152846020838601011115614e4f57600080fd5b816020850160208301376000918101602001919091529392505050565b60008060408385031215614e7f57600080fd5b614e8883614b19565b915060208301356001600160401b03811115614ea357600080fd5b614eaf85828601614e16565b9150509250929050565b60008060408385031215614ecc57600080fd5b50508035926020909101359150565b600060808284031215614eed57600080fd5b50919050565b600080600060c08486031215614f0857600080fd5b8335925060208401359150614da08560408601614edb565b801515811461147f57600080fd5b600080600080600060808688031215614f4657600080fd5b8535945060208601356001600160401b03811115614f6357600080fd5b614f6f88828901614c46565b9095509350506040860135614f8381614f20565b9150614f9160608701614b19565b90509295509295909350565b600080600060408486031215614fb257600080fd5b8335925060208401356001600160401b03811115614fcf57600080fd5b614fdb86828701614c46565b9497909650939450505050565b60008060408385031215614ffb57600080fd5b61500483614b19565b9150602083013561501481614f20565b809150509250929050565b6000806000806080858703121561503557600080fd5b61503e85614b19565b935061504c60208601614b19565b92506040850135915060608501356001600160401b0381111561506e57600080fd5b61507a87828801614e16565b91505092959194509250565b6000806000806000610100868803121561509f57600080fd5b6150a886614b19565b9450602086013593506040860135925060608601359150614f918760808801614edb565b600080604083850312156150df57600080fd5b823591506150ef60208401614b19565b90509250929050565b6001600160a01b038616815260ff8516602082015260a06040820181905260009061512590830186614aad565b606083019490945250608001529392505050565b6000806040838503121561514c57600080fd5b61515583614b19565b91506150ef60208401614b19565b600181811c9082168061517757607f821691505b60208210811415614eed57634e487b7160e01b600052602260045260246000fd5b634e487b7160e01b600052603260045260246000fd5b600083516151c0818460208801614a81565b64736c6f742f60d81b90830190815283516151e2816005840160208801614a81565b01600501949350505050565b60006020828403121561520057600080fd5b81516001600160401b0381111561521657600080fd5b8201601f8101841361522757600080fd5b8051615235614e3582614def565b81815285602083850101111561524a57600080fd5b614887826020830160208601614a81565b634e487b7160e01b600052601160045260246000fd5b60006000198214156152855761528561525b565b5060010190565b634e487b7160e01b600052602160045260246000fd5b60208082526032908201527f455243333532353a207472616e736665722063616c6c6572206973206e6f74206040820152711bdddb995c881b9bdc88185c1c1c9bdd995960721b606082015260800190565b6020808252602e908201527f496e697469616c697a61626c653a20636f6e747261637420697320616c72656160408201526d191e481a5b9a5d1a585b1a5e995960921b606082015260800190565b6020808252602c908201527f46756e6374696f6e206d7573742062652063616c6c6564207468726f7567682060408201526b19195b1959d85d1958d85b1b60a21b606082015260800190565b6020808252602c908201527f46756e6374696f6e206d7573742062652063616c6c6564207468726f7567682060408201526b6163746976652070726f787960a01b606082015260800190565b602080825260199082015278115490cccd4c8d4e881a5b9d985b1a59081d1bdad95b881251603a1b604082015260600190565b6001600160a01b039390931683526020830191909152604082015260600190565b60008351615440818460208801614a81565b835190830190615454818360208801614a81565b01949350505050565b6000835161546f818460208801614a81565b68636f6e74726163742f60b81b9083019081528351615495816009840160208801614a81565b01600901949350505050565b6000828210156154b3576154b361525b565b500390565b600082198211156154cb576154cb61525b565b500190565b6020808252602b908201527f496e697469616c697a61626c653a20636f6e7472616374206973206e6f74206960408201526a6e697469616c697a696e6760a81b606082015260800190565b60006020828403121561552d57600080fd5b5051919050565b6003811061555257634e487b7160e01b600052602160045260246000fd5b9052565b8381526060810161556a6020830185615534565b613a5b6040830184615534565b60006020828403121561558957600080fd5b8151610f4c81614f20565b60018060a01b038616815284602082015283604082015282606082015260a0608082015260006155c760a0830184614aad565b979650505050505050565b6000602082840312156155e457600080fd5b8151610f4c81614a4e565b634e487b7160e01b600052603160045260246000fd5b6001600160a01b038581168252841660208201526040810183905260806060820181905260009061563890830184614aad565b9695505050505050565b600081600019048311821515161561565c5761565c61525b565b500290565b6000816156705761567061525b565b506000190190565b6000825161568a818460208701614a81565b919091019291505056fefca69b310bd19d275687ebe00b254b0772cf7a367c3f81a9a5a433f831fdc1dc3c63e605be3290ab6b04cfc46c6e1516e626d43236b034f09d7ede1d017beb0c0b2aac84f3ec956911fd78eae5311062972ff949f38412e8da39069d9f068cc6360894a13ba1a3210667c828492db98dca3e2076cc3735a920a3ca505d382bbc449b0a7e0acc0a95c71947cb19fdd122b42abca9bdfbd6707ca4f1e3fdaef05e7f26b83ff96e1f2b6a682f133852f6798a09c465da95921460cefb3847402498416464726573733a206c6f772d6c6576656c2064656c65676174652063616c6c206661696c6564ddf252ad1be2c89b69c2b068fc378daa952ba7f163c4a11628f55a4df523b3efa2646970667358221220ead6216325538c621fa2da89aa6b41f76bb46c073e45678d8b50cdd05f141d4b64736f6c63430008090033",
  "devdoc": {
    "details": "Gateway Token contract is responsible for managing Identity.com KYC gateway tokens those tokens represent completed KYC with attached identity. Gateway tokens using ERC721 standard with custom extensions. Contract handles multiple levels of access such as Network Authority (may represent a specific regulator body) Gatekeepers (Identity.com network parties who can mint/burn/freeze gateway tokens) and overall system Admin who can add new Gatekeepers and Network Authorities",
    "errors": {
      "Common__NotContract(address)": [
        {
          "params": {
            "account": "address of the account."
          }
        }
      ],
      "Common__NotSuperAdmin(address)": [
        {
          "params": {
            "account": "address of the account."
          }
        }
      ],
      "Common__Unauthorized(address,uint256,bytes32)": [
        {
          "params": {
            "domain": "the domain to which the role applies.",
            "role": "role that is required.",
            "sender": "address of the sender."
          }
        }
      ],
      "GatewayToken__InsufficientFunds(uint256,uint256)": [
        {
          "params": {
            "available": "balance available.",
            "required": "requested amount to transfer."
          }
        }
      ],
      "GatewayToken__NetworkAlreadyExists(uint256)": [
        {
          "params": {
            "network": "gatekeeper network id."
          }
        }
      ],
      "GatewayToken__NetworkDoesNotExist(uint256)": [
        {
          "params": {
            "network": "gatekeeper network id."
          }
        }
      ],
      "GatewayToken__NotDAOGoverned(uint256)": [
        {
          "params": {
            "network": "gatekeeper network id."
          }
        }
      ],
      "GatewayToken__TokenDoesNotExist(uint256)": [
        {
          "params": {
            "tokenId": "token id."
          }
        }
      ],
      "GatewayToken__TokenDoesNotExistOrIsInactive(uint256,bool)": [
        {
          "params": {
            "allowExpired": "whether to allow expired tokens.",
            "tokenId": "token id."
          }
        }
      ],
      "GatewayToken__TokenInvalidStateForOperation(uint256,uint8,uint8)": [
        {
          "params": {
            "expectedState": "expected token state.",
            "state": "current token state.",
            "tokenId": "token id."
          }
        }
      ]
    },
    "kind": "dev",
    "methods": {
      "addGatekeeper(address,uint256)": {
        "details": "Triggers to add new gatekeeper into the system.",
        "params": {
          "gatekeeper": "Gatekeeper address"
        }
      },
      "addNetworkAuthority(address,uint256)": {
        "details": "Triggers to add new network authority into the system.",
        "params": {
          "authority": "Network Authority address"
        }
      },
      "approve(uint256,address,uint256)": {
        "details": "Transfers are disabled for Gateway Tokens - override ERC3525 approve functions to revert Note - transferFrom and safeTransferFrom are disabled indirectly with the _isApprovedOrOwner function"
      },
      "burn(uint256)": {
        "details": "Triggers to burn gateway token",
        "params": {
          "tokenId": "Gateway token id"
        }
      },
      "constructor": {
        "custom:oz-upgrades-unsafe-allow": "constructor"
      },
      "contractURI()": {
        "details": "This function SHOULD return the URI for this contract in JSON format, starting with  header `data:application/json;`.  See https://eips.ethereum.org/EIPS/eip-3525 for the JSON schema for contract URI.",
        "returns": {
          "_0": "The JSON formatted URI of the current ERC3525 contract"
        }
      },
      "freeze(uint256)": {
        "details": "Triggers to freeze gateway token",
        "params": {
          "tokenId": "Gateway token id"
        }
      },
      "getExpiration(uint256)": {
        "details": "Triggers to get specified `tokenId` expiration timestamp",
        "params": {
          "tokenId": "Gateway token id"
        }
      },
      "getRoleAdmin(bytes32,uint256)": {
        "details": "Returns the admin role that controls `role`. See {grantRole} and {revokeRole}. To change a role's admin, use {_setRoleAdmin}."
      },
      "getToken(uint256)": {
        "details": "Triggers to get all information gateway token related to specified `tokenId`",
        "params": {
          "tokenId": "Gateway token id"
        }
      },
      "getTokenBitmask(uint256)": {
        "details": "Triggers to get gateway token bitmask"
      },
      "grantRole(bytes32,uint256,address)": {
        "details": "Grants `role` to `account`. If `account` had not been already granted `role`, emits a {RoleGranted} event. Requirements: - the caller must have ``role``'s admin role. May emit a {RoleGranted} event."
      },
      "hasRole(bytes32,uint256,address)": {
        "details": "Returns `true` if `account` has been granted `role`."
      },
      "isGatekeeper(address,uint256)": {
        "details": "Triggers to verify if address has a GATEKEEPER role.",
        "params": {
          "gatekeeper": "Gatekeeper address"
        }
      },
      "isNetworkAuthority(address,uint256)": {
        "details": "Triggers to verify if authority has a NETWORK_AUTHORITY_ROLE role.",
        "params": {
          "authority": "Network Authority address"
        }
      },
      "mint(address,uint256,uint256,uint256,(uint256,uint8,address,address))": {
        "details": "Triggers to mint gateway token",
        "params": {
          "mask": "The bitmask for the token",
          "network": "Gateway token type",
          "to": "Gateway token owner"
        }
      },
      "name()": {
        "details": "Returns the token collection name."
      },
      "proxiableUUID()": {
        "details": "Implementation of the ERC1822 {proxiableUUID} function. This returns the storage slot used by the implementation. It is used to validate the implementation's compatibility when performing an upgrade. IMPORTANT: A proxy pointing at a proxiable contract should not be considered proxiable itself, because this risks bricking a proxy that upgrades to it, by delegating to itself until out of gas. Thus it is critical that this function revert if invoked through a proxy. This is guaranteed by the `notDelegated` modifier."
      },
      "removeGatekeeper(address,uint256)": {
        "details": "Triggers to remove existing gatekeeper from gateway token.",
        "params": {
          "gatekeeper": "Gatekeeper address"
        }
      },
      "removeNetworkAuthority(address,uint256)": {
        "details": "Triggers to remove existing network authority from gateway token.",
        "params": {
          "authority": "Network Authority address"
        }
      },
      "renounceRole(bytes32,uint256,address)": {
        "details": "Revokes `role` from the calling account. Roles are often managed via {grantRole} and {revokeRole}: this function's purpose is to provide a mechanism for accounts to lose their privileges if they are compromised (such as when a trusted device is misplaced). If the calling account had been revoked `role`, emits a {RoleRevoked} event. Requirements: - the caller must be `account`. May emit a {RoleRevoked} event."
      },
      "revoke(uint256)": {
        "details": "Triggers to revoke gateway token",
        "params": {
          "tokenId": "Gateway token id"
        }
      },
      "revokeRole(bytes32,uint256,address)": {
        "details": "Revokes `role` from `account`. If `account` had been granted `role`, emits a {RoleRevoked} event. Requirements: - the caller must have ``role``'s admin role. May emit a {RoleRevoked} event."
      },
      "setBitmask(uint256,uint256)": {
        "details": "Triggers to set full bitmask for gateway token with `tokenId`"
      },
      "setExpiration(uint256,uint256,(uint256,uint8,address,address))": {
        "details": "Triggers to set expiration for tokenId",
        "params": {
          "tokenId": "Gateway token id"
        }
      },
      "supportsInterface(bytes4)": {
        "details": "See {IERC165-supportsInterface}."
      },
      "symbol()": {
        "details": "Returns the token collection symbol."
      },
      "tokenURI(uint256)": {
        "details": "Returns the Uniform Resource Identifier (URI) for `tokenId` token."
      },
      "totalSupply()": {
        "returns": {
          "_0": "A count of valid NFTs tracked by this contract, where each one of  them has an assigned and queryable owner not equal to the zero address"
        }
      },
      "transferDAOManager(address,address,uint256)": {
        "details": "Transfers Gateway Token DAO Manager access from `previousManager` to `newManager` Only a current DAO Manager can do this. They can do this for any other DAO Manager. This is useful for two reasons: 1. Key rotation of the current (msg signer) DAO manager 2. Replacing a lost or compromised key of an existing DAO manager",
        "params": {
          "newManager": "Address to transfer DAO Manager role for."
        }
      },
      "transfersRestricted()": {
        "details": "Returns true if gateway token owner transfers restricted, and false otherwise."
      },
      "unfreeze(uint256)": {
        "details": "Triggers to unfreeze gateway token",
        "params": {
          "tokenId": "Gateway token id"
        }
      },
      "updateFlagsStorage(address)": {
        "details": "Triggers to update FlagsStorage contract address",
        "params": {
          "flagsStorage": "FlagsStorage contract address"
        }
      },
      "upgradeTo(address)": {
        "details": "Upgrade the implementation of the proxy to `newImplementation`. Calls {_authorizeUpgrade}. Emits an {Upgraded} event."
      },
      "upgradeToAndCall(address,bytes)": {
        "details": "Upgrade the implementation of the proxy to `newImplementation`, and subsequently execute the function call encoded in `data`. Calls {_authorizeUpgrade}. Emits an {Upgraded} event."
      },
      "valueDecimals()": {
        "details": "Returns the number of decimals the token uses for value."
      },
      "verifyToken(address,uint256)": {
        "details": "Triggered by external contract to verify the validity of the default token for `owner`. Checks owner has any token on gateway token contract, `tokenId` still active, and not expired."
      },
      "verifyToken(uint256)": {
        "details": "Triggered by external contract to verify the validity of the default token for `owner`. Checks owner has any token on gateway token contract, `tokenId` still active, and not expired."
      }
    },
    "version": 1
  },
  "userdoc": {
    "errors": {
      "Common__MissingAccount()": [
        {
          "notice": "The passed-in account is the zero-address"
        }
      ],
      "Common__NotContract(address)": [
        {
          "notice": "The passed-in account is not a contract, where an account is expected"
        }
      ],
      "Common__NotSuperAdmin(address)": [
        {
          "notice": "The passed-in account is not a super-admin"
        }
      ],
      "Common__Unauthorized(address,uint256,bytes32)": [
        {
          "notice": "The request was made from an unauthorized address."
        }
      ],
      "GatewayToken__InsufficientFunds(uint256,uint256)": [
        {
          "notice": "Insufficient funds for withdrawal. Needed `required` but only `available` available."
        }
      ],
      "GatewayToken__NetworkAlreadyExists(uint256)": [
        {
          "notice": "The gatekeeper network being created already exists."
        }
      ],
      "GatewayToken__NetworkDoesNotExist(uint256)": [
        {
          "notice": "The gatekeeper network does not exist."
        }
      ],
      "GatewayToken__NotDAOGoverned(uint256)": [
        {
          "notice": "The gatekeeper network is not dao-governed."
        }
      ],
      "GatewayToken__TokenDoesNotExist(uint256)": [
        {
          "notice": "The requested token does not exist."
        }
      ],
      "GatewayToken__TokenDoesNotExistOrIsInactive(uint256,bool)": [
        {
          "notice": "The requested token is not active or does not exist"
        }
      ],
      "GatewayToken__TokenInvalidStateForOperation(uint256,uint8,uint8)": [
        {
          "notice": "The requested token state is invalid for the request"
        }
      ],
      "GatewayToken__TransferDisabled()": [
        {
          "notice": "Token transfers are disabled"
        }
      ],
      "ParameterizedAccessControl__RenounceRoleNotForSelf(bytes32,address)": [
        {
          "notice": "A sender can only renounce roles for themselves"
        }
      ]
    },
    "kind": "user",
    "methods": {
      "addNetworkAuthority(address,uint256)": {
        "notice": "Can be triggered by DAO Manager or any Network Authority"
      },
      "contractURI()": {
        "notice": "Returns the Uniform Resource Identifier (URI) for the current ERC3525 contract."
      },
      "removeNetworkAuthority(address,uint256)": {
        "notice": "Can be triggered by DAO Manager or any Network Authority"
      },
      "totalSupply()": {
        "notice": "Count NFTs tracked by this contract"
      },
      "transferDAOManager(address,address,uint256)": {
        "notice": "GatewayToken contract has to be DAO Governed"
      }
    },
    "version": 1
  },
  "storageLayout": {
    "storage": [
      {
        "astId": 534,
        "contract": "contracts/GatewayToken.sol:GatewayToken",
        "label": "_initialized",
        "offset": 0,
        "slot": "0",
        "type": "t_uint8"
      },
      {
        "astId": 537,
        "contract": "contracts/GatewayToken.sol:GatewayToken",
        "label": "_initializing",
        "offset": 1,
        "slot": "0",
        "type": "t_bool"
      },
      {
        "astId": 516,
        "contract": "contracts/GatewayToken.sol:GatewayToken",
        "label": "__gap",
        "offset": 0,
        "slot": "1",
        "type": "t_array(t_uint256)50_storage"
      },
      {
        "astId": 831,
        "contract": "contracts/GatewayToken.sol:GatewayToken",
        "label": "__gap",
        "offset": 0,
        "slot": "51",
        "type": "t_array(t_uint256)50_storage"
      },
      {
        "astId": 1157,
        "contract": "contracts/GatewayToken.sol:GatewayToken",
        "label": "__gap",
        "offset": 0,
        "slot": "101",
        "type": "t_array(t_uint256)50_storage"
      },
      {
        "astId": 9804,
        "contract": "contracts/GatewayToken.sol:GatewayToken",
        "label": "_trustedForwarders",
        "offset": 0,
        "slot": "151",
        "type": "t_mapping(t_address,t_bool)"
      },
      {
        "astId": 5001,
        "contract": "contracts/GatewayToken.sol:GatewayToken",
        "label": "_name",
        "offset": 0,
        "slot": "152",
        "type": "t_string_storage"
      },
      {
        "astId": 5003,
        "contract": "contracts/GatewayToken.sol:GatewayToken",
        "label": "_symbol",
        "offset": 0,
        "slot": "153",
        "type": "t_string_storage"
      },
      {
        "astId": 5005,
        "contract": "contracts/GatewayToken.sol:GatewayToken",
        "label": "_decimals",
        "offset": 0,
        "slot": "154",
        "type": "t_uint8"
      },
      {
        "astId": 5008,
        "contract": "contracts/GatewayToken.sol:GatewayToken",
        "label": "_tokenIdGenerator",
        "offset": 0,
        "slot": "155",
        "type": "t_struct(Counter)1164_storage"
      },
      {
        "astId": 5014,
        "contract": "contracts/GatewayToken.sol:GatewayToken",
        "label": "_approvedValues",
        "offset": 0,
        "slot": "156",
        "type": "t_mapping(t_uint256,t_mapping(t_address,t_uint256))"
      },
      {
        "astId": 5018,
        "contract": "contracts/GatewayToken.sol:GatewayToken",
        "label": "_allTokens",
        "offset": 0,
        "slot": "157",
        "type": "t_array(t_struct(TokenData)4987_storage)dyn_storage"
      },
      {
        "astId": 5022,
        "contract": "contracts/GatewayToken.sol:GatewayToken",
        "label": "_allTokensIndex",
        "offset": 0,
        "slot": "158",
        "type": "t_mapping(t_uint256,t_uint256)"
      },
      {
        "astId": 5027,
        "contract": "contracts/GatewayToken.sol:GatewayToken",
        "label": "_addressData",
        "offset": 0,
        "slot": "159",
        "type": "t_mapping(t_address,t_struct(AddressData)4999_storage)"
      },
      {
        "astId": 5030,
        "contract": "contracts/GatewayToken.sol:GatewayToken",
        "label": "metadataDescriptor",
        "offset": 0,
        "slot": "160",
        "type": "t_contract(IERC3525MetadataDescriptorUpgradeable)7682"
      },
      {
        "astId": 7105,
        "contract": "contracts/GatewayToken.sol:GatewayToken",
        "label": "__gap",
        "offset": 0,
        "slot": "161",
        "type": "t_array(t_uint256)41_storage"
      },
      {
        "astId": 9971,
        "contract": "contracts/GatewayToken.sol:GatewayToken",
        "label": "_roleDomain",
        "offset": 0,
        "slot": "202",
        "type": "t_mapping(t_uint256,t_struct(RoleDomain)9966_storage)"
      },
      {
        "astId": 9975,
        "contract": "contracts/GatewayToken.sol:GatewayToken",
        "label": "_superAdmins",
        "offset": 0,
        "slot": "203",
        "type": "t_mapping(t_address,t_bool)"
      },
      {
        "astId": 10384,
        "contract": "contracts/GatewayToken.sol:GatewayToken",
        "label": "flagsStorage",
        "offset": 0,
        "slot": "204",
        "type": "t_contract(IFlagsStorage)10609"
      },
      {
        "astId": 10388,
        "contract": "contracts/GatewayToken.sol:GatewayToken",
        "label": "_bitmasks",
        "offset": 0,
        "slot": "205",
        "type": "t_mapping(t_uint256,t_uint256)"
      },
      {
        "astId": 8506,
        "contract": "contracts/GatewayToken.sol:GatewayToken",
        "label": "isNetworkDAOGoverned",
        "offset": 0,
        "slot": "206",
        "type": "t_mapping(t_uint256,t_bool)"
      },
      {
        "astId": 8526,
        "contract": "contracts/GatewayToken.sol:GatewayToken",
        "label": "_tokenStates",
        "offset": 0,
        "slot": "207",
        "type": "t_mapping(t_uint256,t_enum(TokenState)10653)"
      },
      {
        "astId": 8530,
        "contract": "contracts/GatewayToken.sol:GatewayToken",
        "label": "_expirations",
        "offset": 0,
        "slot": "208",
        "type": "t_mapping(t_uint256,t_uint256)"
      },
      {
        "astId": 8534,
        "contract": "contracts/GatewayToken.sol:GatewayToken",
        "label": "_networks",
        "offset": 0,
        "slot": "209",
        "type": "t_mapping(t_uint256,t_string_storage)"
      }
    ],
    "types": {
      "t_address": {
        "encoding": "inplace",
        "label": "address",
        "numberOfBytes": "20"
      },
      "t_array(t_address)dyn_storage": {
        "base": "t_address",
        "encoding": "dynamic_array",
        "label": "address[]",
        "numberOfBytes": "32"
      },
      "t_array(t_struct(TokenData)4987_storage)dyn_storage": {
        "base": "t_struct(TokenData)4987_storage",
        "encoding": "dynamic_array",
        "label": "struct ERC3525Upgradeable.TokenData[]",
        "numberOfBytes": "32"
      },
      "t_array(t_uint256)41_storage": {
        "base": "t_uint256",
        "encoding": "inplace",
        "label": "uint256[41]",
        "numberOfBytes": "1312"
      },
      "t_array(t_uint256)50_storage": {
        "base": "t_uint256",
        "encoding": "inplace",
        "label": "uint256[50]",
        "numberOfBytes": "1600"
      },
      "t_array(t_uint256)dyn_storage": {
        "base": "t_uint256",
        "encoding": "dynamic_array",
        "label": "uint256[]",
        "numberOfBytes": "32"
      },
      "t_bool": {
        "encoding": "inplace",
        "label": "bool",
        "numberOfBytes": "1"
      },
      "t_bytes32": {
        "encoding": "inplace",
        "label": "bytes32",
        "numberOfBytes": "32"
      },
      "t_contract(IERC3525MetadataDescriptorUpgradeable)7682": {
        "encoding": "inplace",
        "label": "contract IERC3525MetadataDescriptorUpgradeable",
        "numberOfBytes": "20"
      },
      "t_contract(IFlagsStorage)10609": {
        "encoding": "inplace",
        "label": "contract IFlagsStorage",
        "numberOfBytes": "20"
      },
      "t_enum(TokenState)10653": {
        "encoding": "inplace",
        "label": "enum IGatewayToken.TokenState",
        "numberOfBytes": "1"
      },
      "t_mapping(t_address,t_bool)": {
        "encoding": "mapping",
        "key": "t_address",
        "label": "mapping(address => bool)",
        "numberOfBytes": "32",
        "value": "t_bool"
      },
      "t_mapping(t_address,t_struct(AddressData)4999_storage)": {
        "encoding": "mapping",
        "key": "t_address",
        "label": "mapping(address => struct ERC3525Upgradeable.AddressData)",
        "numberOfBytes": "32",
        "value": "t_struct(AddressData)4999_storage"
      },
      "t_mapping(t_address,t_uint256)": {
        "encoding": "mapping",
        "key": "t_address",
        "label": "mapping(address => uint256)",
        "numberOfBytes": "32",
        "value": "t_uint256"
      },
      "t_mapping(t_bytes32,t_struct(RoleData)9960_storage)": {
        "encoding": "mapping",
        "key": "t_bytes32",
        "label": "mapping(bytes32 => struct ParameterizedAccessControl.RoleData)",
        "numberOfBytes": "32",
        "value": "t_struct(RoleData)9960_storage"
      },
      "t_mapping(t_uint256,t_bool)": {
        "encoding": "mapping",
        "key": "t_uint256",
        "label": "mapping(uint256 => bool)",
        "numberOfBytes": "32",
        "value": "t_bool"
      },
      "t_mapping(t_uint256,t_enum(TokenState)10653)": {
        "encoding": "mapping",
        "key": "t_uint256",
        "label": "mapping(uint256 => enum IGatewayToken.TokenState)",
        "numberOfBytes": "32",
        "value": "t_enum(TokenState)10653"
      },
      "t_mapping(t_uint256,t_mapping(t_address,t_uint256))": {
        "encoding": "mapping",
        "key": "t_uint256",
        "label": "mapping(uint256 => mapping(address => uint256))",
        "numberOfBytes": "32",
        "value": "t_mapping(t_address,t_uint256)"
      },
      "t_mapping(t_uint256,t_string_storage)": {
        "encoding": "mapping",
        "key": "t_uint256",
        "label": "mapping(uint256 => string)",
        "numberOfBytes": "32",
        "value": "t_string_storage"
      },
      "t_mapping(t_uint256,t_struct(RoleDomain)9966_storage)": {
        "encoding": "mapping",
        "key": "t_uint256",
        "label": "mapping(uint256 => struct ParameterizedAccessControl.RoleDomain)",
        "numberOfBytes": "32",
        "value": "t_struct(RoleDomain)9966_storage"
      },
      "t_mapping(t_uint256,t_uint256)": {
        "encoding": "mapping",
        "key": "t_uint256",
        "label": "mapping(uint256 => uint256)",
        "numberOfBytes": "32",
        "value": "t_uint256"
      },
      "t_string_storage": {
        "encoding": "bytes",
        "label": "string",
        "numberOfBytes": "32"
      },
      "t_struct(AddressData)4999_storage": {
        "encoding": "inplace",
        "label": "struct ERC3525Upgradeable.AddressData",
        "members": [
          {
            "astId": 4990,
            "contract": "contracts/GatewayToken.sol:GatewayToken",
            "label": "ownedTokens",
            "offset": 0,
            "slot": "0",
            "type": "t_array(t_uint256)dyn_storage"
          },
          {
            "astId": 4994,
            "contract": "contracts/GatewayToken.sol:GatewayToken",
            "label": "ownedTokensIndex",
            "offset": 0,
            "slot": "1",
            "type": "t_mapping(t_uint256,t_uint256)"
          },
          {
            "astId": 4998,
            "contract": "contracts/GatewayToken.sol:GatewayToken",
            "label": "approvals",
            "offset": 0,
            "slot": "2",
            "type": "t_mapping(t_address,t_bool)"
          }
        ],
        "numberOfBytes": "96"
      },
      "t_struct(Counter)1164_storage": {
        "encoding": "inplace",
        "label": "struct CountersUpgradeable.Counter",
        "members": [
          {
            "astId": 1163,
            "contract": "contracts/GatewayToken.sol:GatewayToken",
            "label": "_value",
            "offset": 0,
            "slot": "0",
            "type": "t_uint256"
          }
        ],
        "numberOfBytes": "32"
      },
      "t_struct(RoleData)9960_storage": {
        "encoding": "inplace",
        "label": "struct ParameterizedAccessControl.RoleData",
        "members": [
          {
            "astId": 9957,
            "contract": "contracts/GatewayToken.sol:GatewayToken",
            "label": "members",
            "offset": 0,
            "slot": "0",
            "type": "t_mapping(t_address,t_bool)"
          },
          {
            "astId": 9959,
            "contract": "contracts/GatewayToken.sol:GatewayToken",
            "label": "adminRole",
            "offset": 0,
            "slot": "1",
            "type": "t_bytes32"
          }
        ],
        "numberOfBytes": "64"
      },
      "t_struct(RoleDomain)9966_storage": {
        "encoding": "inplace",
        "label": "struct ParameterizedAccessControl.RoleDomain",
        "members": [
          {
            "astId": 9965,
            "contract": "contracts/GatewayToken.sol:GatewayToken",
            "label": "roles",
            "offset": 0,
            "slot": "0",
            "type": "t_mapping(t_bytes32,t_struct(RoleData)9960_storage)"
          }
        ],
        "numberOfBytes": "32"
      },
      "t_struct(TokenData)4987_storage": {
        "encoding": "inplace",
        "label": "struct ERC3525Upgradeable.TokenData",
        "members": [
          {
            "astId": 4975,
            "contract": "contracts/GatewayToken.sol:GatewayToken",
            "label": "id",
            "offset": 0,
            "slot": "0",
            "type": "t_uint256"
          },
          {
            "astId": 4977,
            "contract": "contracts/GatewayToken.sol:GatewayToken",
            "label": "slot",
            "offset": 0,
            "slot": "1",
            "type": "t_uint256"
          },
          {
            "astId": 4979,
            "contract": "contracts/GatewayToken.sol:GatewayToken",
            "label": "balance",
            "offset": 0,
            "slot": "2",
            "type": "t_uint256"
          },
          {
            "astId": 4981,
            "contract": "contracts/GatewayToken.sol:GatewayToken",
            "label": "owner",
            "offset": 0,
            "slot": "3",
            "type": "t_address"
          },
          {
            "astId": 4983,
            "contract": "contracts/GatewayToken.sol:GatewayToken",
            "label": "approved",
            "offset": 0,
            "slot": "4",
            "type": "t_address"
          },
          {
            "astId": 4986,
            "contract": "contracts/GatewayToken.sol:GatewayToken",
            "label": "valueApprovals",
            "offset": 0,
            "slot": "5",
            "type": "t_array(t_address)dyn_storage"
          }
        ],
        "numberOfBytes": "192"
      },
      "t_uint256": {
        "encoding": "inplace",
        "label": "uint256",
        "numberOfBytes": "32"
      },
      "t_uint8": {
        "encoding": "inplace",
        "label": "uint8",
        "numberOfBytes": "1"
      }
    }
  }
}