{
  "_format": "hh-sol-artifact-1",
  "contractName": "FlagsStorage",
  "sourceName": "contracts/FlagsStorage.sol",
  "abi": [
    {
      "inputs": [],
      "stateMutability": "nonpayable",
      "type": "constructor"
    },
    {
      "inputs": [],
      "name": "Common__MissingAccount",
      "type": "error"
    },
    {
      "inputs": [
        {
          "internalType": "address",
          "name": "account",
          "type": "address"
        }
      ],
      "name": "Common__NotSuperAdmin",
      "type": "error"
    },
    {
      "inputs": [
        {
          "internalType": "bytes32",
          "name": "flag",
          "type": "bytes32"
        }
      ],
      "name": "FlagsStorage__FlagAlreadyExists",
      "type": "error"
    },
    {
      "inputs": [
        {
          "internalType": "bytes32",
          "name": "flag",
          "type": "bytes32"
        }
      ],
      "name": "FlagsStorage__FlagNotSupported",
      "type": "error"
    },
    {
      "inputs": [
        {
          "internalType": "uint256",
          "name": "expected",
          "type": "uint256"
        },
        {
          "internalType": "uint256",
          "name": "actual",
          "type": "uint256"
        }
      ],
      "name": "FlagsStorage__IncorrectVariableLength",
      "type": "error"
    },
    {
      "inputs": [
        {
          "internalType": "uint8",
          "name": "index",
          "type": "uint8"
        }
      ],
      "name": "FlagsStorage__IndexAlreadyUsed",
      "type": "error"
    },
    {
      "anonymous": false,
      "inputs": [
        {
          "indexed": false,
          "internalType": "address",
          "name": "previousAdmin",
          "type": "address"
        },
        {
          "indexed": false,
          "internalType": "address",
          "name": "newAdmin",
          "type": "address"
        }
      ],
      "name": "AdminChanged",
      "type": "event"
    },
    {
      "anonymous": false,
      "inputs": [
        {
          "indexed": true,
          "internalType": "address",
          "name": "beacon",
          "type": "address"
        }
      ],
      "name": "BeaconUpgraded",
      "type": "event"
    },
    {
      "anonymous": false,
      "inputs": [
        {
          "indexed": true,
          "internalType": "bytes32",
          "name": "flag",
          "type": "bytes32"
        },
        {
          "indexed": false,
          "internalType": "uint8",
          "name": "index",
          "type": "uint8"
        }
      ],
      "name": "FlagAdded",
      "type": "event"
    },
    {
      "anonymous": false,
      "inputs": [
        {
          "indexed": true,
          "internalType": "bytes32",
          "name": "flag",
          "type": "bytes32"
        }
      ],
      "name": "FlagRemoved",
      "type": "event"
    },
    {
      "anonymous": false,
      "inputs": [
        {
          "indexed": false,
          "internalType": "uint8",
          "name": "version",
          "type": "uint8"
        }
      ],
      "name": "Initialized",
      "type": "event"
    },
    {
      "anonymous": false,
      "inputs": [
        {
          "indexed": true,
          "internalType": "address",
          "name": "prevSuperAdmin",
          "type": "address"
        },
        {
          "indexed": true,
          "internalType": "address",
          "name": "superAdmin",
          "type": "address"
        }
      ],
      "name": "SuperAdminUpdated",
      "type": "event"
    },
    {
      "anonymous": false,
      "inputs": [
        {
          "indexed": true,
          "internalType": "address",
          "name": "implementation",
          "type": "address"
        }
      ],
      "name": "Upgraded",
      "type": "event"
    },
    {
      "inputs": [
        {
          "internalType": "bytes32",
          "name": "flag",
          "type": "bytes32"
        },
        {
          "internalType": "uint8",
          "name": "index",
          "type": "uint8"
        }
      ],
      "name": "addFlag",
      "outputs": [],
      "stateMutability": "nonpayable",
      "type": "function"
    },
    {
      "inputs": [
        {
          "internalType": "bytes32[]",
          "name": "flags",
          "type": "bytes32[]"
        },
        {
          "internalType": "uint8[]",
          "name": "indexes",
          "type": "uint8[]"
        }
      ],
      "name": "addFlags",
      "outputs": [],
      "stateMutability": "nonpayable",
      "type": "function"
    },
    {
      "inputs": [
        {
          "internalType": "bytes32",
          "name": "",
          "type": "bytes32"
        }
      ],
      "name": "flagIndexes",
      "outputs": [
        {
          "internalType": "uint8",
          "name": "",
          "type": "uint8"
        }
      ],
      "stateMutability": "view",
      "type": "function"
    },
    {
      "inputs": [
        {
          "internalType": "address",
          "name": "_superAdmin",
          "type": "address"
        }
      ],
      "name": "initialize",
      "outputs": [],
      "stateMutability": "nonpayable",
      "type": "function"
    },
    {
      "inputs": [
        {
          "internalType": "bytes32",
          "name": "flag",
          "type": "bytes32"
        }
      ],
      "name": "isFlagSupported",
      "outputs": [
        {
          "internalType": "bool",
          "name": "",
          "type": "bool"
        }
      ],
      "stateMutability": "view",
      "type": "function"
    },
    {
      "inputs": [],
      "name": "proxiableUUID",
      "outputs": [
        {
          "internalType": "bytes32",
          "name": "",
          "type": "bytes32"
        }
      ],
      "stateMutability": "view",
      "type": "function"
    },
    {
      "inputs": [
        {
          "internalType": "bytes32",
          "name": "flag",
          "type": "bytes32"
        }
      ],
      "name": "removeFlag",
      "outputs": [],
      "stateMutability": "nonpayable",
      "type": "function"
    },
    {
      "inputs": [
        {
          "internalType": "bytes32[]",
          "name": "flags",
          "type": "bytes32[]"
        }
      ],
      "name": "removeFlags",
      "outputs": [],
      "stateMutability": "nonpayable",
      "type": "function"
    },
    {
      "inputs": [],
      "name": "superAdmin",
      "outputs": [
        {
          "internalType": "address",
          "name": "",
          "type": "address"
        }
      ],
      "stateMutability": "view",
      "type": "function"
    },
    {
      "inputs": [],
      "name": "supportedFlagsMask",
      "outputs": [
        {
          "internalType": "uint256",
          "name": "",
          "type": "uint256"
        }
      ],
      "stateMutability": "view",
      "type": "function"
    },
    {
      "inputs": [
        {
          "internalType": "address",
          "name": "newSuperAdmin",
          "type": "address"
        }
      ],
      "name": "updateSuperAdmin",
      "outputs": [],
      "stateMutability": "nonpayable",
      "type": "function"
    },
    {
      "inputs": [
        {
          "internalType": "address",
          "name": "newImplementation",
          "type": "address"
        }
      ],
      "name": "upgradeTo",
      "outputs": [],
      "stateMutability": "nonpayable",
      "type": "function"
    },
    {
      "inputs": [
        {
          "internalType": "address",
          "name": "newImplementation",
          "type": "address"
        },
        {
          "internalType": "bytes",
          "name": "data",
          "type": "bytes"
        }
      ],
      "name": "upgradeToAndCall",
      "outputs": [],
      "stateMutability": "payable",
      "type": "function"
    }
  ],
  "bytecode": "0x60a06040523060805234801561001457600080fd5b50600054610100900460ff16158080156100355750600054600160ff909116105b80610060575061004e3061013660201b6108661760201c565b158015610060575060005460ff166001145b6100c75760405162461bcd60e51b815260206004820152602e60248201527f496e697469616c697a61626c653a20636f6e747261637420697320616c72656160448201526d191e481a5b9a5d1a585b1a5e995960921b606482015260840160405180910390fd5b6000805460ff1916600117905580156100ea576000805461ff0019166101001790555b8015610130576000805461ff0019169055604051600181527f7f26b83ff96e1f2b6a682f133852f6798a09c465da95921460cefb38474024989060200160405180910390a15b50610145565b6001600160a01b03163b151590565b6080516114476200017d60003960008181610367015281816103a7015281816104300152818161047001526104e801526114476000f3fe6080604052600436106100b25760003560e01c8063661870b11161006f578063661870b1146101825780638e7de730146101c4578063a3d0bb2a146101e4578063a64a095614610214578063b3b48bc214610234578063c4d66de814610254578063cae43fd81461027457600080fd5b8063243da6a7146100b757806329575f6a146100e05780633551f2e3146101185780633659cfe61461013a5780634f1ef2861461015a57806352d1902d1461016d575b600080fd5b3480156100c357600080fd5b506100cd60685481565b6040519081526020015b60405180910390f35b3480156100ec57600080fd5b50606754610100906001600160a01b031681565b6040516001600160a01b0390911681526020016100d7565b34801561012457600080fd5b50610138610133366004610ff3565b610294565b005b34801561014657600080fd5b5061013861015536600461104c565b61035c565b610138610168366004611067565b610425565b34801561017957600080fd5b506100cd6104db565b34801561018e57600080fd5b506101b261019d36600461110d565b60696020526000908152604090205460ff1681565b60405160ff90911681526020016100d7565b3480156101d057600080fd5b506101386101df36600461110d565b610589565b3480156101f057600080fd5b506102046101ff36600461110d565b6105c5565b60405190151581526020016100d7565b34801561022057600080fd5b5061013861022f366004611137565b6105d8565b34801561024057600080fd5b5061013861024f366004611163565b6105ea565b34801561026057600080fd5b5061013861026f36600461104c565b610689565b34801561028057600080fd5b5061013861028f36600461104c565b6107db565b61029c610875565b60005b81518160ff161015610358576102db828260ff16815181106102c3576102c3611225565b602002602001015160656108a490919063ffffffff16565b61032157818160ff16815181106102f4576102f4611225565b60200260200101516040516356f1aded60e01b815260040161031891815260200190565b60405180910390fd5b610346828260ff168151811061033957610339611225565b60200260200101516108bf565b8061035081611251565b91505061029f565b5050565b306001600160a01b037f00000000000000000000000000000000000000000000000000000000000000001614156103a55760405162461bcd60e51b815260040161031890611271565b7f00000000000000000000000000000000000000000000000000000000000000006001600160a01b03166103d7610925565b6001600160a01b0316146103fd5760405162461bcd60e51b8152600401610318906112bd565b61040681610941565b6040805160008082526020820190925261042291839190610949565b50565b306001600160a01b037f000000000000000000000000000000000000000000000000000000000000000016141561046e5760405162461bcd60e51b815260040161031890611271565b7f00000000000000000000000000000000000000000000000000000000000000006001600160a01b03166104a0610925565b6001600160a01b0316146104c65760405162461bcd60e51b8152600401610318906112bd565b6104cf82610941565b61035882826001610949565b6000306001600160a01b037f000000000000000000000000000000000000000000000000000000000000000016146105765760405162461bcd60e51b815260206004820152603860248201527f555550535570677261646561626c653a206d757374206e6f742062652063616c6044820152771b1959081d1a1c9bdd59da0819195b1959d85d1958d85b1b60421b6064820152608401610318565b506000805160206113cb83398151915290565b610591610875565b61059c6065826108a4565b6105bc576040516356f1aded60e01b815260048101829052602401610318565b610422816108bf565b60006105d26065836108a4565b92915050565b6105e0610875565b6103588282610ac3565b6105f2610875565b805182511461062157815181516040516308d351ab60e01b815260048101929092526024820152604401610318565b60005b82518160ff16101561068457610672838260ff168151811061064857610648611225565b6020026020010151838360ff168151811061066557610665611225565b6020026020010151610ac3565b8061067c81611251565b915050610624565b505050565b600054610100900460ff16158080156106a95750600054600160ff909116105b806106ca57506106b830610866565b1580156106ca575060005460ff166001145b61072d5760405162461bcd60e51b815260206004820152602e60248201527f496e697469616c697a61626c653a20636f6e747261637420697320616c72656160448201526d191e481a5b9a5d1a585b1a5e995960921b6064820152608401610318565b6000805460ff191660011790558015610750576000805461ff0019166101001790555b6001600160a01b03821661077757604051630ca2c90160e21b815260040160405180910390fd5b606780546001600160a01b0319166001600160a01b0384161790558015610358576000805461ff0019169055604051600181527f7f26b83ff96e1f2b6a682f133852f6798a09c465da95921460cefb38474024989060200160405180910390a15050565b6107e3610875565b6001600160a01b03811661080a57604051630ca2c90160e21b815260040160405180910390fd5b6067546040516001600160a01b038084169216907fd0f5553fb48dccd0de81c4705fa3feaf0b9a936a294741cfb724c33b8373f0c190600090a3606780546001600160a01b0319166001600160a01b0392909216919091179055565b6001600160a01b03163b151590565b6067546001600160a01b031633146108a257604051632957ccdd60e21b8152336004820152602401610318565b565b600081815260018301602052604081205415155b9392505050565b6108ca606582610b8e565b50600081815260696020526040808220805460688054600160ff90931692831b19169055815460ff19169091559051909183917fb4e020b0ecc1c15088dc1d0790a96729268843758491c25d3fa0450d8a9ad34d9190a25050565b6000805160206113cb833981519152546001600160a01b031690565b610422610875565b7f4910fdfa16fed3260ed0e7147f7cc6da11a60208b5b9406d12a635614ffd91435460ff161561097c5761068483610b9a565b826001600160a01b03166352d1902d6040518163ffffffff1660e01b815260040160206040518083038186803b1580156109b557600080fd5b505afa9250505080156109e5575060408051601f3d908101601f191682019092526109e291810190611309565b60015b610a485760405162461bcd60e51b815260206004820152602e60248201527f45524331393637557067726164653a206e657720696d706c656d656e7461746960448201526d6f6e206973206e6f74205555505360901b6064820152608401610318565b6000805160206113cb8339815191528114610ab75760405162461bcd60e51b815260206004820152602960248201527f45524331393637557067726164653a20756e737570706f727465642070726f786044820152681a58589b195555525160ba1b6064820152608401610318565b50610684838383610c34565b606854600160ff83161b1615610af15760405163f70e2d6b60e01b815260ff82166004820152602401610318565b610afc6065836108a4565b15610b1d576040516313ac19e560e01b815260048101839052602401610318565b6000828152606960205260409020805460ff191660ff8316179055610b43606583610c5f565b50606854600160ff83161b1760685560405160ff8216815282907fdd0fa0fc5900cc449b60e07ecc54e117f3828a22f16d74c408c3d456d69f25fe9060200160405180910390a25050565b60006108b88383610c6b565b610ba381610866565b610c055760405162461bcd60e51b815260206004820152602d60248201527f455243313936373a206e657720696d706c656d656e746174696f6e206973206e60448201526c1bdd08184818dbdb9d1c9858dd609a1b6064820152608401610318565b6000805160206113cb83398151915280546001600160a01b0319166001600160a01b0392909216919091179055565b610c3d83610d5e565b600082511180610c4a5750805b1561068457610c598383610d9e565b50505050565b60006108b88383610e90565b60008181526001830160205260408120548015610d54576000610c8f600183611322565b8554909150600090610ca390600190611322565b9050818114610d08576000866000018281548110610cc357610cc3611225565b9060005260206000200154905080876000018481548110610ce657610ce6611225565b6000918252602080832090910192909255918252600188019052604090208390555b8554869080610d1957610d19611339565b6001900381819060005260206000200160009055905585600101600086815260200190815260200160002060009055600193505050506105d2565b60009150506105d2565b610d6781610b9a565b6040516001600160a01b038216907fbc7cd75a20ee27fd9adebab32041f755214dbc6bffa90cc0225b39da2e5c2d3b90600090a250565b6060610da983610866565b610e045760405162461bcd60e51b815260206004820152602660248201527f416464726573733a2064656c65676174652063616c6c20746f206e6f6e2d636f6044820152651b9d1c9858dd60d21b6064820152608401610318565b600080846001600160a01b031684604051610e1f919061137b565b600060405180830381855af49150503d8060008114610e5a576040519150601f19603f3d011682016040523d82523d6000602084013e610e5f565b606091505b5091509150610e8782826040518060600160405280602781526020016113eb60279139610edf565b95945050505050565b6000818152600183016020526040812054610ed7575081546001818101845560008481526020808220909301849055845484825282860190935260409020919091556105d2565b5060006105d2565b60608315610eee5750816108b8565b6108b88383815115610f035781518083602001fd5b8060405162461bcd60e51b81526004016103189190611397565b634e487b7160e01b600052604160045260246000fd5b604051601f8201601f1916810167ffffffffffffffff81118282101715610f5c57610f5c610f1d565b604052919050565b600067ffffffffffffffff821115610f7e57610f7e610f1d565b5060051b60200190565b600082601f830112610f9957600080fd5b81356020610fae610fa983610f64565b610f33565b82815260059290921b84018101918181019086841115610fcd57600080fd5b8286015b84811015610fe85780358352918301918301610fd1565b509695505050505050565b60006020828403121561100557600080fd5b813567ffffffffffffffff81111561101c57600080fd5b61102884828501610f88565b949350505050565b80356001600160a01b038116811461104757600080fd5b919050565b60006020828403121561105e57600080fd5b6108b882611030565b6000806040838503121561107a57600080fd5b61108383611030565b915060208084013567ffffffffffffffff808211156110a157600080fd5b818601915086601f8301126110b557600080fd5b8135818111156110c7576110c7610f1d565b6110d9601f8201601f19168501610f33565b915080825287848285010111156110ef57600080fd5b80848401858401376000848284010152508093505050509250929050565b60006020828403121561111f57600080fd5b5035919050565b803560ff8116811461104757600080fd5b6000806040838503121561114a57600080fd5b8235915061115a60208401611126565b90509250929050565b6000806040838503121561117657600080fd5b823567ffffffffffffffff8082111561118e57600080fd5b61119a86838701610f88565b93506020915081850135818111156111b157600080fd5b85019050601f810186136111c457600080fd5b80356111d2610fa982610f64565b81815260059190911b820183019083810190888311156111f157600080fd5b928401925b828410156112165761120784611126565b825292840192908401906111f6565b80955050505050509250929050565b634e487b7160e01b600052603260045260246000fd5b634e487b7160e01b600052601160045260246000fd5b600060ff821660ff8114156112685761126861123b565b60010192915050565b6020808252602c908201527f46756e6374696f6e206d7573742062652063616c6c6564207468726f7567682060408201526b19195b1959d85d1958d85b1b60a21b606082015260800190565b6020808252602c908201527f46756e6374696f6e206d7573742062652063616c6c6564207468726f7567682060408201526b6163746976652070726f787960a01b606082015260800190565b60006020828403121561131b57600080fd5b5051919050565b6000828210156113345761133461123b565b500390565b634e487b7160e01b600052603160045260246000fd5b60005b8381101561136a578181015183820152602001611352565b83811115610c595750506000910152565b6000825161138d81846020870161134f565b9190910192915050565b60208152600082518060208401526113b681604085016020870161134f565b601f01601f1916919091016040019291505056fe360894a13ba1a3210667c828492db98dca3e2076cc3735a920a3ca505d382bbc416464726573733a206c6f772d6c6576656c2064656c65676174652063616c6c206661696c6564a2646970667358221220a2581a459129fb7800f0a504eec6a69d26a22f1f89ba2d822fdf7d3f369250b764736f6c63430008090033",
  "linkReferences": {},
  "deployedLinkReferences": {}
}