{
  "_format": "hh-sol-artifact-1",
  "contractName": "GatewayToken",
  "sourceName": "contracts/GatewayToken.sol",
  "abi": [
    {
      "inputs": [],
      "stateMutability": "nonpayable",
      "type": "constructor"
    },
    {
      "inputs": [],
      "name": "Common__MissingAccount",
      "type": "error"
    },
    {
      "inputs": [
        {
          "internalType": "address",
          "name": "account",
          "type": "address"
        }
      ],
      "name": "Common__NotContract",
      "type": "error"
    },
    {
      "inputs": [
        {
          "internalType": "address",
          "name": "account",
          "type": "address"
        }
      ],
      "name": "Common__NotSuperAdmin",
      "type": "error"
    },
    {
      "inputs": [
        {
          "internalType": "address",
          "name": "sender",
          "type": "address"
        },
        {
          "internalType": "uint256",
          "name": "domain",
          "type": "uint256"
        },
        {
          "internalType": "bytes32",
          "name": "role",
          "type": "bytes32"
        }
      ],
      "name": "Common__Unauthorized",
      "type": "error"
    },
    {
      "inputs": [
        {
          "internalType": "uint256",
          "name": "available",
          "type": "uint256"
        },
        {
          "internalType": "uint256",
          "name": "required",
          "type": "uint256"
        }
      ],
      "name": "GatewayToken__InsufficientFunds",
      "type": "error"
    },
    {
      "inputs": [
        {
          "internalType": "uint256",
          "name": "network",
          "type": "uint256"
        }
      ],
      "name": "GatewayToken__NetworkAlreadyExists",
      "type": "error"
    },
    {
      "inputs": [
        {
          "internalType": "uint256",
          "name": "network",
          "type": "uint256"
        }
      ],
      "name": "GatewayToken__NetworkDoesNotExist",
      "type": "error"
    },
    {
      "inputs": [
        {
          "internalType": "uint256",
          "name": "network",
          "type": "uint256"
        }
      ],
      "name": "GatewayToken__NotDAOGoverned",
      "type": "error"
    },
    {
      "inputs": [
        {
          "internalType": "uint256",
          "name": "tokenId",
          "type": "uint256"
        }
      ],
      "name": "GatewayToken__TokenDoesNotExist",
      "type": "error"
    },
    {
      "inputs": [
        {
          "internalType": "uint256",
          "name": "tokenId",
          "type": "uint256"
        },
        {
          "internalType": "bool",
          "name": "allowExpired",
          "type": "bool"
        }
      ],
      "name": "GatewayToken__TokenDoesNotExistOrIsInactive",
      "type": "error"
    },
    {
      "inputs": [
        {
          "internalType": "uint256",
          "name": "tokenId",
          "type": "uint256"
        },
        {
          "internalType": "enum IGatewayToken.TokenState",
          "name": "state",
          "type": "uint8"
        },
        {
          "internalType": "enum IGatewayToken.TokenState",
          "name": "expectedState",
          "type": "uint8"
        }
      ],
      "name": "GatewayToken__TokenInvalidStateForOperation",
      "type": "error"
    },
    {
      "inputs": [
        {
          "internalType": "bytes32",
          "name": "role",
          "type": "bytes32"
        },
        {
          "internalType": "address",
          "name": "account",
          "type": "address"
        }
      ],
      "name": "ParameterizedAccessControl__RenounceRoleNotForSelf",
      "type": "error"
    },
    {
      "anonymous": false,
      "inputs": [
        {
          "indexed": false,
          "internalType": "address",
          "name": "previousAdmin",
          "type": "address"
        },
        {
          "indexed": false,
          "internalType": "address",
          "name": "newAdmin",
          "type": "address"
        }
      ],
      "name": "AdminChanged",
      "type": "event"
    },
    {
      "anonymous": false,
      "inputs": [
        {
          "indexed": true,
          "internalType": "address",
          "name": "_owner",
          "type": "address"
        },
        {
          "indexed": true,
          "internalType": "address",
          "name": "_approved",
          "type": "address"
        },
        {
          "indexed": true,
          "internalType": "uint256",
          "name": "_tokenId",
          "type": "uint256"
        }
      ],
      "name": "Approval",
      "type": "event"
    },
    {
      "anonymous": false,
      "inputs": [
        {
          "indexed": true,
          "internalType": "address",
          "name": "_owner",
          "type": "address"
        },
        {
          "indexed": true,
          "internalType": "address",
          "name": "_operator",
          "type": "address"
        },
        {
          "indexed": false,
          "internalType": "bool",
          "name": "_approved",
          "type": "bool"
        }
      ],
      "name": "ApprovalForAll",
      "type": "event"
    },
    {
      "anonymous": false,
      "inputs": [
        {
          "indexed": true,
          "internalType": "uint256",
          "name": "_tokenId",
          "type": "uint256"
        },
        {
          "indexed": true,
          "internalType": "address",
          "name": "_operator",
          "type": "address"
        },
        {
          "indexed": false,
          "internalType": "uint256",
          "name": "_value",
          "type": "uint256"
        }
      ],
      "name": "ApprovalValue",
      "type": "event"
    },
    {
      "anonymous": false,
      "inputs": [
        {
          "indexed": true,
          "internalType": "address",
          "name": "beacon",
          "type": "address"
        }
      ],
      "name": "BeaconUpgraded",
      "type": "event"
    },
    {
      "anonymous": false,
      "inputs": [
        {
          "indexed": false,
          "internalType": "uint256",
          "name": "tokenId",
          "type": "uint256"
        },
        {
          "indexed": false,
          "internalType": "uint256",
          "name": "bitmask",
          "type": "uint256"
        }
      ],
      "name": "BitMaskUpdated",
      "type": "event"
    },
    {
      "anonymous": false,
      "inputs": [
        {
          "indexed": false,
          "internalType": "address",
          "name": "previousDAOManager",
          "type": "address"
        },
        {
          "indexed": false,
          "internalType": "address",
          "name": "newDAOManager",
          "type": "address"
        },
        {
          "indexed": false,
          "internalType": "uint256",
          "name": "network",
          "type": "uint256"
        }
      ],
      "name": "DAOManagerTransferred",
      "type": "event"
    },
    {
      "anonymous": false,
      "inputs": [
        {
          "indexed": true,
          "internalType": "uint256",
          "name": "tokenId",
          "type": "uint256"
        },
        {
          "indexed": false,
          "internalType": "uint256",
          "name": "timestamp",
          "type": "uint256"
        }
      ],
      "name": "Expiration",
      "type": "event"
    },
    {
      "anonymous": false,
      "inputs": [
        {
          "indexed": true,
          "internalType": "address",
          "name": "flagsStorage",
          "type": "address"
        }
      ],
      "name": "FlagsStorageUpdated",
      "type": "event"
    },
    {
      "anonymous": false,
      "inputs": [
        {
          "indexed": true,
          "internalType": "uint256",
          "name": "tokenId",
          "type": "uint256"
        }
      ],
      "name": "Freeze",
      "type": "event"
    },
    {
      "anonymous": false,
      "inputs": [
        {
          "indexed": false,
          "internalType": "uint8",
          "name": "version",
          "type": "uint8"
        }
      ],
      "name": "Initialized",
      "type": "event"
    },
    {
      "anonymous": false,
      "inputs": [
        {
          "indexed": true,
          "internalType": "uint256",
          "name": "tokenId",
          "type": "uint256"
        }
      ],
      "name": "Revoke",
      "type": "event"
    },
    {
      "anonymous": false,
      "inputs": [
        {
          "indexed": true,
          "internalType": "bytes32",
          "name": "role",
          "type": "bytes32"
        },
        {
          "indexed": false,
          "internalType": "uint256",
          "name": "domain",
          "type": "uint256"
        },
        {
          "indexed": true,
          "internalType": "bytes32",
          "name": "previousAdminRole",
          "type": "bytes32"
        },
        {
          "indexed": true,
          "internalType": "bytes32",
          "name": "newAdminRole",
          "type": "bytes32"
        }
      ],
      "name": "RoleAdminChanged",
      "type": "event"
    },
    {
      "anonymous": false,
      "inputs": [
        {
          "indexed": true,
          "internalType": "bytes32",
          "name": "role",
          "type": "bytes32"
        },
        {
          "indexed": false,
          "internalType": "uint256",
          "name": "domain",
          "type": "uint256"
        },
        {
          "indexed": true,
          "internalType": "address",
          "name": "account",
          "type": "address"
        },
        {
          "indexed": true,
          "internalType": "address",
          "name": "sender",
          "type": "address"
        }
      ],
      "name": "RoleGranted",
      "type": "event"
    },
    {
      "anonymous": false,
      "inputs": [
        {
          "indexed": true,
          "internalType": "bytes32",
          "name": "role",
          "type": "bytes32"
        },
        {
          "indexed": false,
          "internalType": "uint256",
          "name": "domain",
          "type": "uint256"
        },
        {
          "indexed": true,
          "internalType": "address",
          "name": "account",
          "type": "address"
        },
        {
          "indexed": true,
          "internalType": "address",
          "name": "sender",
          "type": "address"
        }
      ],
      "name": "RoleRevoked",
      "type": "event"
    },
    {
      "anonymous": false,
      "inputs": [
        {
          "indexed": true,
          "internalType": "address",
          "name": "metadataDescriptor",
          "type": "address"
        }
      ],
      "name": "SetMetadataDescriptor",
      "type": "event"
    },
    {
      "anonymous": false,
      "inputs": [
        {
          "indexed": true,
          "internalType": "uint256",
          "name": "_tokenId",
          "type": "uint256"
        },
        {
          "indexed": true,
          "internalType": "uint256",
          "name": "_oldSlot",
          "type": "uint256"
        },
        {
          "indexed": true,
          "internalType": "uint256",
          "name": "_newSlot",
          "type": "uint256"
        }
      ],
      "name": "SlotChanged",
      "type": "event"
    },
    {
      "anonymous": false,
      "inputs": [
        {
          "indexed": true,
          "internalType": "address",
          "name": "account",
          "type": "address"
        }
      ],
      "name": "SuperAdminAdded",
      "type": "event"
    },
    {
      "anonymous": false,
      "inputs": [
        {
          "indexed": true,
          "internalType": "address",
          "name": "account",
          "type": "address"
        }
      ],
      "name": "SuperAdminRemoved",
      "type": "event"
    },
    {
      "anonymous": false,
      "inputs": [
        {
          "indexed": true,
          "internalType": "address",
          "name": "_from",
          "type": "address"
        },
        {
          "indexed": true,
          "internalType": "address",
          "name": "_to",
          "type": "address"
        },
        {
          "indexed": true,
          "internalType": "uint256",
          "name": "_tokenId",
          "type": "uint256"
        }
      ],
      "name": "Transfer",
      "type": "event"
    },
    {
      "anonymous": false,
      "inputs": [
        {
          "indexed": true,
          "internalType": "uint256",
          "name": "_fromTokenId",
          "type": "uint256"
        },
        {
          "indexed": true,
          "internalType": "uint256",
          "name": "_toTokenId",
          "type": "uint256"
        },
        {
          "indexed": false,
          "internalType": "uint256",
          "name": "_value",
          "type": "uint256"
        }
      ],
      "name": "TransferValue",
      "type": "event"
    },
    {
      "anonymous": false,
      "inputs": [
        {
          "indexed": true,
          "internalType": "uint256",
          "name": "tokenId",
          "type": "uint256"
        }
      ],
      "name": "Unfreeze",
      "type": "event"
    },
    {
      "anonymous": false,
      "inputs": [
        {
          "indexed": true,
          "internalType": "address",
          "name": "implementation",
          "type": "address"
        }
      ],
      "name": "Upgraded",
      "type": "event"
    },
    {
      "inputs": [],
      "name": "DAO_MANAGER_ROLE",
      "outputs": [
        {
          "internalType": "bytes32",
          "name": "",
          "type": "bytes32"
        }
      ],
      "stateMutability": "view",
      "type": "function"
    },
    {
      "inputs": [],
      "name": "DEFAULT_ADMIN_ROLE",
      "outputs": [
        {
          "internalType": "bytes32",
          "name": "",
          "type": "bytes32"
        }
      ],
      "stateMutability": "view",
      "type": "function"
    },
    {
      "inputs": [],
      "name": "GATEKEEPER_ROLE",
      "outputs": [
        {
          "internalType": "bytes32",
          "name": "",
          "type": "bytes32"
        }
      ],
      "stateMutability": "view",
      "type": "function"
    },
    {
      "inputs": [],
      "name": "NETWORK_AUTHORITY_ROLE",
      "outputs": [
        {
          "internalType": "bytes32",
          "name": "",
          "type": "bytes32"
        }
      ],
      "stateMutability": "view",
      "type": "function"
    },
    {
      "inputs": [
        {
          "internalType": "address",
          "name": "forwarder",
          "type": "address"
        }
      ],
      "name": "addForwarder",
      "outputs": [],
      "stateMutability": "nonpayable",
      "type": "function"
    },
    {
      "inputs": [
        {
          "internalType": "address",
          "name": "gatekeeper",
          "type": "address"
        },
        {
          "internalType": "uint256",
          "name": "network",
          "type": "uint256"
        }
      ],
      "name": "addGatekeeper",
      "outputs": [],
      "stateMutability": "nonpayable",
      "type": "function"
    },
    {
      "inputs": [
        {
          "internalType": "address",
          "name": "authority",
          "type": "address"
        },
        {
          "internalType": "uint256",
          "name": "network",
          "type": "uint256"
        }
      ],
      "name": "addNetworkAuthority",
      "outputs": [],
      "stateMutability": "nonpayable",
      "type": "function"
    },
    {
      "inputs": [
        {
          "internalType": "uint256",
          "name": "tokenId_",
          "type": "uint256"
        },
        {
          "internalType": "address",
          "name": "operator_",
          "type": "address"
        }
      ],
      "name": "allowance",
      "outputs": [
        {
          "internalType": "uint256",
          "name": "",
          "type": "uint256"
        }
      ],
      "stateMutability": "view",
      "type": "function"
    },
    {
      "inputs": [
        {
          "internalType": "address",
          "name": "to_",
          "type": "address"
        },
        {
          "internalType": "uint256",
          "name": "tokenId_",
          "type": "uint256"
        }
      ],
      "name": "approve",
      "outputs": [],
      "stateMutability": "payable",
      "type": "function"
    },
    {
      "inputs": [
        {
          "internalType": "uint256",
          "name": "tokenId_",
          "type": "uint256"
        },
        {
          "internalType": "address",
          "name": "to_",
          "type": "address"
        },
        {
          "internalType": "uint256",
          "name": "value_",
          "type": "uint256"
        }
      ],
      "name": "approve",
      "outputs": [],
      "stateMutability": "payable",
      "type": "function"
    },
    {
      "inputs": [
        {
          "internalType": "address",
          "name": "owner_",
          "type": "address"
        }
      ],
      "name": "balanceOf",
      "outputs": [
        {
          "internalType": "uint256",
          "name": "balance",
          "type": "uint256"
        }
      ],
      "stateMutability": "view",
      "type": "function"
    },
    {
      "inputs": [
        {
          "internalType": "uint256",
          "name": "tokenId_",
          "type": "uint256"
        }
      ],
      "name": "balanceOf",
      "outputs": [
        {
          "internalType": "uint256",
          "name": "",
          "type": "uint256"
        }
      ],
      "stateMutability": "view",
      "type": "function"
    },
    {
      "inputs": [
        {
          "internalType": "uint256",
          "name": "tokenId",
          "type": "uint256"
        }
      ],
      "name": "burn",
      "outputs": [],
      "stateMutability": "nonpayable",
      "type": "function"
    },
    {
      "inputs": [],
      "name": "contractURI",
      "outputs": [
        {
          "internalType": "string",
          "name": "",
          "type": "string"
        }
      ],
      "stateMutability": "view",
      "type": "function"
    },
    {
      "inputs": [],
      "name": "controller",
      "outputs": [
        {
          "internalType": "address",
          "name": "",
          "type": "address"
        }
      ],
      "stateMutability": "view",
      "type": "function"
    },
    {
      "inputs": [
        {
          "internalType": "uint256",
          "name": "network",
          "type": "uint256"
        },
        {
          "internalType": "string",
          "name": "name",
          "type": "string"
        },
        {
          "internalType": "bool",
          "name": "daoGoverned",
          "type": "bool"
        },
        {
          "internalType": "address",
          "name": "daoManager",
          "type": "address"
        }
      ],
      "name": "createNetwork",
      "outputs": [],
      "stateMutability": "nonpayable",
      "type": "function"
    },
    {
      "inputs": [],
      "name": "flagsStorage",
      "outputs": [
        {
          "internalType": "contract IFlagsStorage",
          "name": "",
          "type": "address"
        }
      ],
      "stateMutability": "view",
      "type": "function"
    },
    {
      "inputs": [
        {
          "internalType": "uint256",
          "name": "tokenId",
          "type": "uint256"
        }
      ],
      "name": "freeze",
      "outputs": [],
      "stateMutability": "nonpayable",
      "type": "function"
    },
    {
      "inputs": [
        {
          "internalType": "uint256",
          "name": "tokenId_",
          "type": "uint256"
        }
      ],
      "name": "getApproved",
      "outputs": [
        {
          "internalType": "address",
          "name": "",
          "type": "address"
        }
      ],
      "stateMutability": "view",
      "type": "function"
    },
    {
      "inputs": [
        {
          "internalType": "uint256",
          "name": "tokenId",
          "type": "uint256"
        }
      ],
      "name": "getExpiration",
      "outputs": [
        {
          "internalType": "uint256",
          "name": "",
          "type": "uint256"
        }
      ],
      "stateMutability": "view",
      "type": "function"
    },
    {
      "inputs": [
        {
          "internalType": "uint256",
          "name": "network",
          "type": "uint256"
        }
      ],
      "name": "getNetwork",
      "outputs": [
        {
          "internalType": "string",
          "name": "",
          "type": "string"
        }
      ],
      "stateMutability": "view",
      "type": "function"
    },
    {
      "inputs": [
        {
          "internalType": "bytes32",
          "name": "role",
          "type": "bytes32"
        },
        {
          "internalType": "uint256",
          "name": "domain",
          "type": "uint256"
        }
      ],
      "name": "getRoleAdmin",
      "outputs": [
        {
          "internalType": "bytes32",
          "name": "",
          "type": "bytes32"
        }
      ],
      "stateMutability": "view",
      "type": "function"
    },
    {
      "inputs": [
        {
          "internalType": "uint256",
          "name": "tokenId",
          "type": "uint256"
        }
      ],
      "name": "getToken",
      "outputs": [
        {
          "internalType": "address",
          "name": "owner",
          "type": "address"
        },
        {
          "internalType": "uint8",
          "name": "state",
          "type": "uint8"
        },
        {
          "internalType": "string",
          "name": "identity",
          "type": "string"
        },
        {
          "internalType": "uint256",
          "name": "expiration",
          "type": "uint256"
        },
        {
          "internalType": "uint256",
          "name": "bitmask",
          "type": "uint256"
        }
      ],
      "stateMutability": "view",
      "type": "function"
    },
    {
      "inputs": [
        {
          "internalType": "uint256",
          "name": "tokenId",
          "type": "uint256"
        }
      ],
      "name": "getTokenBitmask",
      "outputs": [
        {
          "internalType": "uint256",
          "name": "",
          "type": "uint256"
        }
      ],
      "stateMutability": "view",
      "type": "function"
    },
    {
      "inputs": [
        {
          "internalType": "address",
          "name": "owner",
          "type": "address"
        },
        {
          "internalType": "uint256",
          "name": "network",
          "type": "uint256"
        }
      ],
      "name": "getTokenIdsByOwnerAndNetwork",
      "outputs": [
        {
          "internalType": "uint256[]",
          "name": "",
          "type": "uint256[]"
        }
      ],
      "stateMutability": "view",
      "type": "function"
    },
    {
      "inputs": [
        {
          "internalType": "bytes32",
          "name": "role",
          "type": "bytes32"
        },
        {
          "internalType": "uint256",
          "name": "domain",
          "type": "uint256"
        },
        {
          "internalType": "address",
          "name": "account",
          "type": "address"
        }
      ],
      "name": "grantRole",
      "outputs": [],
      "stateMutability": "nonpayable",
      "type": "function"
    },
    {
      "inputs": [
        {
          "internalType": "bytes32",
          "name": "role",
          "type": "bytes32"
        },
        {
          "internalType": "uint256",
          "name": "domain",
          "type": "uint256"
        },
        {
          "internalType": "address",
          "name": "account",
          "type": "address"
        }
      ],
      "name": "hasRole",
      "outputs": [
        {
          "internalType": "bool",
          "name": "",
          "type": "bool"
        }
      ],
      "stateMutability": "view",
      "type": "function"
    },
    {
      "inputs": [
        {
          "internalType": "string",
          "name": "_name",
          "type": "string"
        },
        {
          "internalType": "string",
          "name": "_symbol",
          "type": "string"
        },
        {
          "internalType": "address",
          "name": "_superAdmin",
          "type": "address"
        },
        {
          "internalType": "address",
          "name": "_flagsStorage",
          "type": "address"
        },
        {
          "internalType": "address[]",
          "name": "_trustedForwarders",
          "type": "address[]"
        }
      ],
      "name": "initialize",
      "outputs": [],
      "stateMutability": "nonpayable",
      "type": "function"
    },
    {
      "inputs": [
        {
          "internalType": "address",
          "name": "owner_",
          "type": "address"
        },
        {
          "internalType": "address",
          "name": "operator_",
          "type": "address"
        }
      ],
      "name": "isApprovedForAll",
      "outputs": [
        {
          "internalType": "bool",
          "name": "",
          "type": "bool"
        }
      ],
      "stateMutability": "view",
      "type": "function"
    },
    {
      "inputs": [
        {
          "internalType": "address",
          "name": "gatekeeper",
          "type": "address"
        },
        {
          "internalType": "uint256",
          "name": "network",
          "type": "uint256"
        }
      ],
      "name": "isGatekeeper",
      "outputs": [
        {
          "internalType": "bool",
          "name": "",
          "type": "bool"
        }
      ],
      "stateMutability": "view",
      "type": "function"
    },
    {
      "inputs": [
        {
          "internalType": "address",
          "name": "authority",
          "type": "address"
        },
        {
          "internalType": "uint256",
          "name": "network",
          "type": "uint256"
        }
      ],
      "name": "isNetworkAuthority",
      "outputs": [
        {
          "internalType": "bool",
          "name": "",
          "type": "bool"
        }
      ],
      "stateMutability": "view",
      "type": "function"
    },
    {
      "inputs": [
        {
          "internalType": "uint256",
          "name": "",
          "type": "uint256"
        }
      ],
      "name": "isNetworkDAOGoverned",
      "outputs": [
        {
          "internalType": "bool",
          "name": "",
          "type": "bool"
        }
      ],
      "stateMutability": "view",
      "type": "function"
    },
    {
      "inputs": [
        {
          "internalType": "address",
          "name": "account",
          "type": "address"
        }
      ],
      "name": "isSuperAdmin",
      "outputs": [
        {
          "internalType": "bool",
          "name": "",
          "type": "bool"
        }
      ],
      "stateMutability": "view",
      "type": "function"
    },
    {
      "inputs": [
        {
          "internalType": "address",
          "name": "forwarder",
          "type": "address"
        }
      ],
      "name": "isTrustedForwarder",
      "outputs": [
        {
          "internalType": "bool",
          "name": "",
          "type": "bool"
        }
      ],
      "stateMutability": "view",
      "type": "function"
    },
    {
      "inputs": [],
      "name": "metadataDescriptor",
      "outputs": [
        {
          "internalType": "contract IERC3525MetadataDescriptorUpgradeable",
          "name": "",
          "type": "address"
        }
      ],
      "stateMutability": "view",
      "type": "function"
    },
    {
      "inputs": [
        {
          "internalType": "address",
          "name": "to",
          "type": "address"
        },
        {
          "internalType": "uint256",
          "name": "network",
          "type": "uint256"
        },
        {
          "internalType": "uint256",
          "name": "expiration",
          "type": "uint256"
        },
        {
          "internalType": "uint256",
          "name": "mask",
          "type": "uint256"
        },
        {
          "components": [
            {
              "internalType": "uint256",
              "name": "value",
              "type": "uint256"
            },
            {
              "internalType": "enum ChargeType",
              "name": "chargeType",
              "type": "uint8"
            },
            {
              "internalType": "address",
              "name": "token",
              "type": "address"
            },
            {
              "internalType": "address",
              "name": "recipient",
              "type": "address"
            }
          ],
          "internalType": "struct Charge",
          "name": "",
          "type": "tuple"
        }
      ],
      "name": "mint",
      "outputs": [],
      "stateMutability": "nonpayable",
      "type": "function"
    },
    {
      "inputs": [],
      "name": "name",
      "outputs": [
        {
          "internalType": "string",
          "name": "",
          "type": "string"
        }
      ],
      "stateMutability": "view",
      "type": "function"
    },
    {
      "inputs": [
        {
          "internalType": "uint256",
          "name": "tokenId_",
          "type": "uint256"
        }
      ],
      "name": "ownerOf",
      "outputs": [
        {
          "internalType": "address",
          "name": "owner_",
          "type": "address"
        }
      ],
      "stateMutability": "view",
      "type": "function"
    },
    {
      "inputs": [],
      "name": "proxiableUUID",
      "outputs": [
        {
          "internalType": "bytes32",
          "name": "",
          "type": "bytes32"
        }
      ],
      "stateMutability": "view",
      "type": "function"
    },
    {
      "inputs": [
        {
          "internalType": "address",
          "name": "forwarder",
          "type": "address"
        }
      ],
      "name": "removeForwarder",
      "outputs": [],
      "stateMutability": "nonpayable",
      "type": "function"
    },
    {
      "inputs": [
        {
          "internalType": "address",
          "name": "gatekeeper",
          "type": "address"
        },
        {
          "internalType": "uint256",
          "name": "network",
          "type": "uint256"
        }
      ],
      "name": "removeGatekeeper",
      "outputs": [],
      "stateMutability": "nonpayable",
      "type": "function"
    },
    {
      "inputs": [
        {
          "internalType": "address",
          "name": "authority",
          "type": "address"
        },
        {
          "internalType": "uint256",
          "name": "network",
          "type": "uint256"
        }
      ],
      "name": "removeNetworkAuthority",
      "outputs": [],
      "stateMutability": "nonpayable",
      "type": "function"
    },
    {
      "inputs": [
        {
          "internalType": "uint256",
          "name": "network",
          "type": "uint256"
        },
        {
          "internalType": "string",
          "name": "name",
          "type": "string"
        }
      ],
      "name": "renameNetwork",
      "outputs": [],
      "stateMutability": "nonpayable",
      "type": "function"
    },
    {
      "inputs": [
        {
          "internalType": "bytes32",
          "name": "role",
          "type": "bytes32"
        },
        {
          "internalType": "uint256",
          "name": "domain",
          "type": "uint256"
        },
        {
          "internalType": "address",
          "name": "account",
          "type": "address"
        }
      ],
      "name": "renounceRole",
      "outputs": [],
      "stateMutability": "nonpayable",
      "type": "function"
    },
    {
      "inputs": [
        {
          "internalType": "uint256",
          "name": "tokenId",
          "type": "uint256"
        }
      ],
      "name": "revoke",
      "outputs": [],
      "stateMutability": "nonpayable",
      "type": "function"
    },
    {
      "inputs": [
        {
          "internalType": "bytes32",
          "name": "role",
          "type": "bytes32"
        },
        {
          "internalType": "uint256",
          "name": "domain",
          "type": "uint256"
        },
        {
          "internalType": "address",
          "name": "account",
          "type": "address"
        }
      ],
      "name": "revokeRole",
      "outputs": [],
      "stateMutability": "nonpayable",
      "type": "function"
    },
    {
      "inputs": [
        {
          "internalType": "address",
          "name": "account",
          "type": "address"
        }
      ],
      "name": "revokeSuperAdmin",
      "outputs": [],
      "stateMutability": "nonpayable",
      "type": "function"
    },
    {
      "inputs": [
        {
          "internalType": "address",
          "name": "from_",
          "type": "address"
        },
        {
          "internalType": "address",
          "name": "to_",
          "type": "address"
        },
        {
          "internalType": "uint256",
          "name": "tokenId_",
          "type": "uint256"
        }
      ],
      "name": "safeTransferFrom",
      "outputs": [],
      "stateMutability": "payable",
      "type": "function"
    },
    {
      "inputs": [
        {
          "internalType": "address",
          "name": "from_",
          "type": "address"
        },
        {
          "internalType": "address",
          "name": "to_",
          "type": "address"
        },
        {
          "internalType": "uint256",
          "name": "tokenId_",
          "type": "uint256"
        },
        {
          "internalType": "bytes",
          "name": "data_",
          "type": "bytes"
        }
      ],
      "name": "safeTransferFrom",
      "outputs": [],
      "stateMutability": "payable",
      "type": "function"
    },
    {
      "inputs": [
        {
          "internalType": "address",
          "name": "operator_",
          "type": "address"
        },
        {
          "internalType": "bool",
          "name": "approved_",
          "type": "bool"
        }
      ],
      "name": "setApprovalForAll",
      "outputs": [],
      "stateMutability": "nonpayable",
      "type": "function"
    },
    {
      "inputs": [
        {
          "internalType": "uint256",
          "name": "tokenId",
          "type": "uint256"
        },
        {
          "internalType": "uint256",
          "name": "mask",
          "type": "uint256"
        }
      ],
      "name": "setBitmask",
      "outputs": [],
      "stateMutability": "nonpayable",
      "type": "function"
    },
    {
      "inputs": [
        {
          "internalType": "uint256",
          "name": "tokenId",
          "type": "uint256"
        },
        {
          "internalType": "uint256",
          "name": "timestamp",
          "type": "uint256"
        },
        {
          "components": [
            {
              "internalType": "uint256",
              "name": "value",
              "type": "uint256"
            },
            {
              "internalType": "enum ChargeType",
              "name": "chargeType",
              "type": "uint8"
            },
            {
              "internalType": "address",
              "name": "token",
              "type": "address"
            },
            {
              "internalType": "address",
              "name": "recipient",
              "type": "address"
            }
          ],
          "internalType": "struct Charge",
          "name": "",
          "type": "tuple"
        }
      ],
      "name": "setExpiration",
      "outputs": [],
      "stateMutability": "nonpayable",
      "type": "function"
    },
    {
      "inputs": [
        {
          "internalType": "address",
          "name": "_metadataDescriptor",
          "type": "address"
        }
      ],
      "name": "setMetadataDescriptor",
      "outputs": [],
      "stateMutability": "nonpayable",
      "type": "function"
    },
    {
      "inputs": [
        {
          "internalType": "address",
          "name": "account",
          "type": "address"
        }
      ],
      "name": "setSuperAdmin",
      "outputs": [],
      "stateMutability": "nonpayable",
      "type": "function"
    },
    {
      "inputs": [
        {
          "internalType": "uint256",
          "name": "tokenId_",
          "type": "uint256"
        }
      ],
      "name": "slotOf",
      "outputs": [
        {
          "internalType": "uint256",
          "name": "",
          "type": "uint256"
        }
      ],
      "stateMutability": "view",
      "type": "function"
    },
    {
      "inputs": [
        {
          "internalType": "uint256",
          "name": "slot_",
          "type": "uint256"
        }
      ],
      "name": "slotURI",
      "outputs": [
        {
          "internalType": "string",
          "name": "",
          "type": "string"
        }
      ],
      "stateMutability": "view",
      "type": "function"
    },
    {
      "inputs": [
        {
          "internalType": "bytes4",
          "name": "interfaceId",
          "type": "bytes4"
        }
      ],
      "name": "supportsInterface",
      "outputs": [
        {
          "internalType": "bool",
          "name": "",
          "type": "bool"
        }
      ],
      "stateMutability": "view",
      "type": "function"
    },
    {
      "inputs": [],
      "name": "symbol",
      "outputs": [
        {
          "internalType": "string",
          "name": "",
          "type": "string"
        }
      ],
      "stateMutability": "view",
      "type": "function"
    },
    {
      "inputs": [
        {
          "internalType": "uint256",
          "name": "index_",
          "type": "uint256"
        }
      ],
      "name": "tokenByIndex",
      "outputs": [
        {
          "internalType": "uint256",
          "name": "",
          "type": "uint256"
        }
      ],
      "stateMutability": "view",
      "type": "function"
    },
    {
      "inputs": [
        {
          "internalType": "address",
          "name": "owner_",
          "type": "address"
        },
        {
          "internalType": "uint256",
          "name": "index_",
          "type": "uint256"
        }
      ],
      "name": "tokenOfOwnerByIndex",
      "outputs": [
        {
          "internalType": "uint256",
          "name": "",
          "type": "uint256"
        }
      ],
      "stateMutability": "view",
      "type": "function"
    },
    {
      "inputs": [
        {
          "internalType": "uint256",
          "name": "tokenId_",
          "type": "uint256"
        }
      ],
      "name": "tokenURI",
      "outputs": [
        {
          "internalType": "string",
          "name": "",
          "type": "string"
        }
      ],
      "stateMutability": "view",
      "type": "function"
    },
    {
      "inputs": [],
      "name": "totalSupply",
      "outputs": [
        {
          "internalType": "uint256",
          "name": "",
          "type": "uint256"
        }
      ],
      "stateMutability": "view",
      "type": "function"
    },
    {
      "inputs": [
        {
          "internalType": "address",
          "name": "previousManager",
          "type": "address"
        },
        {
          "internalType": "address",
          "name": "newManager",
          "type": "address"
        },
        {
          "internalType": "uint256",
          "name": "network",
          "type": "uint256"
        }
      ],
      "name": "transferDAOManager",
      "outputs": [],
      "stateMutability": "nonpayable",
      "type": "function"
    },
    {
      "inputs": [
        {
          "internalType": "uint256",
          "name": "fromTokenId_",
          "type": "uint256"
        },
        {
          "internalType": "address",
          "name": "to_",
          "type": "address"
        },
        {
          "internalType": "uint256",
          "name": "value_",
          "type": "uint256"
        }
      ],
      "name": "transferFrom",
      "outputs": [
        {
          "internalType": "uint256",
          "name": "",
          "type": "uint256"
        }
      ],
      "stateMutability": "payable",
      "type": "function"
    },
    {
      "inputs": [
        {
          "internalType": "address",
          "name": "from_",
          "type": "address"
        },
        {
          "internalType": "address",
          "name": "to_",
          "type": "address"
        },
        {
          "internalType": "uint256",
          "name": "tokenId_",
          "type": "uint256"
        }
      ],
      "name": "transferFrom",
      "outputs": [],
      "stateMutability": "payable",
      "type": "function"
    },
    {
      "inputs": [
        {
          "internalType": "uint256",
          "name": "fromTokenId_",
          "type": "uint256"
        },
        {
          "internalType": "uint256",
          "name": "toTokenId_",
          "type": "uint256"
        },
        {
          "internalType": "uint256",
          "name": "value_",
          "type": "uint256"
        }
      ],
      "name": "transferFrom",
      "outputs": [],
      "stateMutability": "payable",
      "type": "function"
    },
    {
      "inputs": [],
      "name": "transfersRestricted",
      "outputs": [
        {
          "internalType": "bool",
          "name": "",
          "type": "bool"
        }
      ],
      "stateMutability": "view",
      "type": "function"
    },
    {
      "inputs": [
        {
          "internalType": "uint256",
          "name": "tokenId",
          "type": "uint256"
        }
      ],
      "name": "unfreeze",
      "outputs": [],
      "stateMutability": "nonpayable",
      "type": "function"
    },
    {
      "inputs": [
        {
          "internalType": "address",
          "name": "flagsStorage",
          "type": "address"
        }
      ],
      "name": "updateFlagsStorage",
      "outputs": [],
      "stateMutability": "nonpayable",
      "type": "function"
    },
    {
      "inputs": [
        {
          "internalType": "address",
          "name": "newImplementation",
          "type": "address"
        }
      ],
      "name": "upgradeTo",
      "outputs": [],
      "stateMutability": "nonpayable",
      "type": "function"
    },
    {
      "inputs": [
        {
          "internalType": "address",
          "name": "newImplementation",
          "type": "address"
        },
        {
          "internalType": "bytes",
          "name": "data",
          "type": "bytes"
        }
      ],
      "name": "upgradeToAndCall",
      "outputs": [],
      "stateMutability": "payable",
      "type": "function"
    },
    {
      "inputs": [],
      "name": "valueDecimals",
      "outputs": [
        {
          "internalType": "uint8",
          "name": "",
          "type": "uint8"
        }
      ],
      "stateMutability": "view",
      "type": "function"
    },
    {
      "inputs": [
        {
          "internalType": "address",
          "name": "owner",
          "type": "address"
        },
        {
          "internalType": "uint256",
          "name": "network",
          "type": "uint256"
        }
      ],
      "name": "verifyToken",
      "outputs": [
        {
          "internalType": "bool",
          "name": "",
          "type": "bool"
        }
      ],
      "stateMutability": "view",
      "type": "function"
    },
    {
      "inputs": [
        {
          "internalType": "uint256",
          "name": "tokenId",
          "type": "uint256"
        }
      ],
      "name": "verifyToken",
      "outputs": [
        {
          "internalType": "bool",
          "name": "",
          "type": "bool"
        }
      ],
      "stateMutability": "view",
      "type": "function"
    },
    {
      "inputs": [
        {
          "internalType": "uint256",
          "name": "amount",
          "type": "uint256"
        }
      ],
      "name": "withdraw",
      "outputs": [
        {
          "internalType": "bool",
          "name": "",
          "type": "bool"
        }
      ],
      "stateMutability": "nonpayable",
      "type": "function"
    }
  ],
  "bytecode": "0x60a0604052306080523480156200001557600080fd5b50600054610100900460ff1615808015620000375750600054600160ff909116105b8062000067575062000054306200022060201b6200248a1760201c565b15801562000067575060005460ff166001145b620000bf5760405162461bcd60e51b815260206004820152602e602482015260008051602062005be983398151915260448201526d191e481a5b9a5d1a585b1a5e995960921b60648201526084015b60405180910390fd5b6000805460ff191660011790558015620000e3576000805461ff0019166101001790555b801562000119576000805461ff00191690556040516001815260008051602062005c098339815191529060200160405180910390a15b50600054610100900460ff16158080156200013b5750600054600160ff909116105b806200016b575062000158306200022060201b6200248a1760201c565b1580156200016b575060005460ff166001145b620001bf5760405162461bcd60e51b815260206004820152602e602482015260008051602062005be983398151915260448201526d191e481a5b9a5d1a585b1a5e995960921b6064820152608401620000b6565b6000805460ff191660011790558015620001e3576000805461ff0019166101001790555b801562000219576000805461ff00191690556040516001815260008051602062005c098339815191529060200160405180910390a15b506200022f565b6001600160a01b03163b151590565b60805161598262000267600039600081816115000152818161154001528181611679015281816116b901526117ec01526159826000f3fe6080604052600436106103ec5760003560e01c806370f0816011610214578063b5d616351161011e578063df7f453b116100b6578063e8a3d4851161007a578063e8a3d48514610cad578063e985e9c514610cc2578063f77c479114610d0f578063ff17e23214610d2f578063ff85a97514610d4f57600080fd5b8063df7f453b14610be3578063e0ed6a3114610c1c578063e345e0bc14610c3c578063e4b50cb814610c5c578063e71fb11014610c8d57600080fd5b8063b5d6163514610ace578063b88d4fde14610aee578063babb898d14610b01578063c2a366fb14610b21578063c58dbbed14610b41578063c87b56dd14610b61578063d6fd317514610b81578063d7a78db814610ba3578063df2a7fe114610bc357600080fd5b806395d89b41116101ac578063a217fddf11610170578063a217fddf14610a29578063a22cb46514610a3e578063a578c09314610a5e578063a8fa8e0d14610a8e578063b4bd857914610aae57600080fd5b806395d89b411461099457806395ea5717146109a95780639c7525e6146109c95780639cc7f708146109e9578063a05b775f14610a0957600080fd5b806370f081601461088b5780637dbded28146108ab57806381e9ff19146108cb57806382d66d5f146108ed578063840f71131461090d5780638423df791461092d5780638cb0a511146109415780638eb7a7761461095457806390eddd521461097457600080fd5b80633568dd291161031557806351da912d116102ad5780636352211e116102715780636352211e146107e95780636623fc46146108095780636dba2729146108295780636f7caf411461084957806370a082311461086b57600080fd5b806351da912d1461073b57806352d1902d1461075b578063572b6c05146107705780635c41d2fe146107a95780635e79b726146107c957600080fd5b80633568dd29146106335780633659cfe61461065357806336e45041146106735780633e7e86691461069357806342842e0e146106b557806342966c68146106c85780634d93172d146106e85780634f1ef286146107085780634f6ccce71461071b57600080fd5b806320c5429b1161038857806320c5429b1461052d57806323b872dd1461054d578063263f3e7e146105605780632d33d27a146105805780632e1a7d4d146105a05780632f745c59146105c0578063310ed7f0146105e057806331416a29146105f357806334e37b8a1461061357600080fd5b806301ffc9a7146103f157806306fdde0314610426578063081812fc14610448578063095ea7b31461047557806309c3dd871461048a5780630f485c02146104aa5780631442f521146104cb57806315700052146104f857806318160ddd14610518575b600080fd5b3480156103fd57600080fd5b5061041161040c366004614b4b565b610d6f565b60405190151581526020015b60405180910390f35b34801561043257600080fd5b5061043b610dd0565b60405161041d9190614bc0565b34801561045457600080fd5b50610468610463366004614bd3565b610e62565b60405161041d9190614bec565b610488610483366004614c17565b610eb4565b005b34801561049657600080fd5b5061043b6104a5366004614bd3565b610f55565b6104bd6104b8366004614c41565b611056565b60405190815260200161041d565b3480156104d757600080fd5b506104eb6104e6366004614c17565b61109f565b60405161041d9190614c76565b34801561050457600080fd5b50610488610513366004614cba565b611156565b34801561052457600080fd5b50609d546104bd565b34801561053957600080fd5b50610488610548366004614bd3565b6111b6565b61048861055b366004614cd5565b61120a565b34801561056c57600080fd5b506104bd61057b366004614bd3565b611242565b34801561058c57600080fd5b5060cc54610468906001600160a01b031681565b3480156105ac57600080fd5b506104116105bb366004614bd3565b61128a565b3480156105cc57600080fd5b506104bd6105db366004614c17565b611309565b6104886105ee366004614d01565b6113aa565b3480156105ff57600080fd5b5061048861060e366004614df0565b6113c7565b34801561061f57600080fd5b5061048861062e366004614cba565b6114c4565b34801561063f57600080fd5b5061048861064e366004614c17565b6114d8565b34801561065f57600080fd5b5061048861066e366004614cba565b6114f5565b34801561067f57600080fd5b5061048861068e366004614f05565b6115bb565b34801561069f57600080fd5b50609a5460405160ff909116815260200161041d565b6104886106c3366004614cd5565b611611565b3480156106d457600080fd5b506104886106e3366004614bd3565b61162c565b3480156106f457600080fd5b50610488610703366004614cba565b611641565b610488610716366004614f3a565b61166e565b34801561072757600080fd5b506104bd610736366004614bd3565b611724565b34801561074757600080fd5b50610488610756366004614f87565b6117b5565b34801561076757600080fd5b506104bd6117df565b34801561077c57600080fd5b5061041161078b366004614cba565b6001600160a01b031660009081526097602052604090205460ff1690565b3480156107b557600080fd5b506104886107c4366004614cba565b61188d565b3480156107d557600080fd5b506104886107e4366004614fc1565b6118bd565b3480156107f557600080fd5b50610468610804366004614bd3565b6118d3565b34801561081557600080fd5b50610488610824366004614bd3565b61193e565b34801561083557600080fd5b50610411610844366004614c17565b611953565b34801561085557600080fd5b506104bd6000805160206158c683398151915281565b34801561087757600080fd5b506104bd610886366004614cba565b61196e565b34801561089757600080fd5b506104886108a6366004614c17565b6119f6565b3480156108b757600080fd5b506104886108c6366004614ffc565b611a0f565b3480156108d757600080fd5b506104bd60008051602061584683398151915281565b3480156108f957600080fd5b50610488610908366004614c17565b611bdc565b34801561091957600080fd5b5060a054610468906001600160a01b031681565b34801561093957600080fd5b506001610411565b61048861094f366004614c41565b611bf5565b34801561096057600080fd5b5061048861096f366004614f05565b611c89565b34801561098057600080fd5b5061048861098f366004614c17565b611cb0565b3480156109a057600080fd5b5061043b611cc9565b3480156109b557600080fd5b5061043b6109c4366004614bd3565b611cd8565b3480156109d557600080fd5b506104886109e4366004615065565b611d7a565b3480156109f557600080fd5b506104bd610a04366004614bd3565b611e29565b348015610a1557600080fd5b506104bd610a24366004614bd3565b611e71565b348015610a3557600080fd5b506104bd600081565b348015610a4a57600080fd5b50610488610a59366004615095565b611e8f565b348015610a6a57600080fd5b50610411610a79366004614bd3565b60cf6020526000908152604090205460ff1681565b348015610a9a57600080fd5b50610488610aa9366004614cd5565b611ea1565b348015610aba57600080fd5b506104bd610ac9366004614bd3565b612019565b348015610ada57600080fd5b50610488610ae9366004614f05565b61202d565b610488610afc3660046150cc565b61204d565b348015610b0d57600080fd5b50610411610b1c366004614f05565b612080565b348015610b2d57600080fd5b50610411610b3c366004614c17565b6120b1565b348015610b4d57600080fd5b50610488610b5c366004614cba565b6120cc565b348015610b6d57600080fd5b5061043b610b7c366004614bd3565b612129565b348015610b8d57600080fd5b506104bd60008051602061586683398151915281565b348015610baf57600080fd5b50610488610bbe366004614bd3565b6121c8565b348015610bcf57600080fd5b506104bd610bde366004614f87565b6121dd565b348015610bef57600080fd5b50610411610bfe366004614cba565b6001600160a01b0316600090815260cb602052604090205460ff1690565b348015610c2857600080fd5b50610488610c37366004615133565b6121fc565b348015610c4857600080fd5b506104bd610c57366004615185565b61223d565b348015610c6857600080fd5b50610c7c610c77366004614bd3565b612271565b60405161041d9594939291906151b1565b348015610c9957600080fd5b50610488610ca8366004614cba565b6122d1565b348015610cb957600080fd5b5061043b6122e2565b348015610cce57600080fd5b50610411610cdd3660046151f2565b6001600160a01b039182166000908152609f602090815260408083209390941682526002909201909152205460ff1690565b348015610d1b57600080fd5b5060ce54610468906001600160a01b031681565b348015610d3b57600080fd5b50610411610d4a366004614c17565b6123eb565b348015610d5b57600080fd5b50610411610d6a366004614bd3565b61247d565b60006001600160e01b03198216630354d60560e61b1480610da057506001600160e01b031982166380ac58cd60e01b145b80610dbb57506001600160e01b031982166370b0048160e11b145b80610dca5750610dca82612499565b92915050565b606060988054610ddf9061521c565b80601f0160208091040260200160405190810160405280929190818152602001828054610e0b9061521c565b8015610e585780601f10610e2d57610100808354040283529160200191610e58565b820191906000526020600020905b815481529060010190602001808311610e3b57829003601f168201915b5050505050905090565b6000610e6d826124ce565b6000828152609e6020526040902054609d80549091908110610e9157610e91615251565b60009182526020909120600460069092020101546001600160a01b031692915050565b6000610ebf826118d3565b9050806001600160a01b0316836001600160a01b03161415610efc5760405162461bcd60e51b8152600401610ef390615267565b60405180910390fd5b806001600160a01b0316610f0e6124f3565b6001600160a01b03161480610f2a5750610f2a81610cdd6124f3565b610f465760405162461bcd60e51b8152600401610ef3906152a9565b610f508383612502565b505050565b60606000610f6e60408051602081019091526000815290565b60a0549091506001600160a01b0316610fce576000815111610f9f576040518060200160405280600081525061104f565b80610fa984612599565b604051602001610fba929190615302565b60405160208183030381529060405261104f565b60a054604051633601bfc560e11b8152600481018590526001600160a01b0390911690636c037f8a906024015b60006040518083038186803b15801561101357600080fd5b505afa158015611027573d6000803e3d6000fd5b505050506040513d6000823e601f3d908101601f1916820160405261104f9190810190615342565b9392505050565b600061106a6110636124f3565b8584612635565b6000611075856126b0565b905061108c848261108588611242565b60006126ba565b6110978582856127dc565b949350505050565b60606000806110ae8585612a75565b915091506000816001600160401b038111156110cc576110cc614d2d565b6040519080825280602002602001820160405280156110f5578160200160208202803683370190505b50905060005b8281101561114c5783818151811061111557611115615251565b602002602001015182828151811061112f5761112f615251565b602090810291909101015280611144816153c5565b9150506110fb565b5095945050505050565b61115e612b3b565b6040516001600160a01b038216907f286f82d2b1e37b5e9f33e455d014b4a5f6c29388e6e41e1281d4c83e04f4265590600090a26001600160a01b0316600090815260cb60205260409020805460ff19166001179055565b6111c76111c282611242565b612b4d565b600081815260d06020526040808220805460ff191660021790555182917fdb43aa42235c8d63908794a952603e8d43a549383d13123c3d893a3fc2e6249591a250565b61121b6112156124f3565b50600090565b6112375760405162461bcd60e51b8152600401610ef3906153f6565b610f50838383612b65565b600061124d826124ce565b6000828152609e6020526040902054609d8054909190811061127157611271615251565b9060005260206000209060060201600101549050919050565b6000611294612b3b565b478211156112be5760405163c387351760e01b815247600482015260248101839052604401610ef3565b6112c66124f3565b6001600160a01b03166108fc839081150290604051600060405180830381858888f193505050501580156112fe573d6000803e3d6000fd5b50600190505b919050565b60006113148361196e565b821061136d5760405162461bcd60e51b815260206004820152602260248201527f455243333532353a206f776e657220696e646578206f7574206f6620626f756e604482015261647360f01b6064820152608401610ef3565b6001600160a01b0383166000908152609f6020526040902080548390811061139757611397615251565b9060005260206000200154905092915050565b6113bc6113b56124f3565b8483612635565b610f508383836127dc565b600054610100900460ff16158080156113e75750600054600160ff909116105b8061140857506113f63061248a565b158015611408575060005460ff166001145b6114245760405162461bcd60e51b8152600401610ef390615448565b6000805460ff191660011790558015611447576000805461ff0019166101001790555b61145386866000612cb4565b61145c82612ce6565b61146583612daf565b6001600160a01b038416600090815260cb60205260409020805460ff1916600117905580156114bc576000805461ff0019169055604051600181526000805160206158e68339815191529060200160405180910390a15b505050505050565b6114cc612b3b565b6114d581612daf565b50565b6114f16000805160206158668339815191528284611c89565b5050565b306001600160a01b037f000000000000000000000000000000000000000000000000000000000000000016141561153e5760405162461bcd60e51b8152600401610ef390615496565b7f00000000000000000000000000000000000000000000000000000000000000006001600160a01b0316611570612df9565b6001600160a01b0316146115965760405162461bcd60e51b8152600401610ef3906154e2565b61159f81612e15565b604080516000808252602082019092526114d591839190612e1d565b6115c36124f3565b6001600160a01b0316816001600160a01b031614611606576040516307ca099360e31b8152600481018490526001600160a01b0382166024820152604401610ef3565b610f50838383612f97565b610f508383836040518060200160405280600081525061204d565b6116386111c282611242565b6114d581613033565b611649612b3b565b6114d5816001600160a01b03166000908152609760205260409020805460ff19169055565b306001600160a01b037f00000000000000000000000000000000000000000000000000000000000000001614156116b75760405162461bcd60e51b8152600401610ef390615496565b7f00000000000000000000000000000000000000000000000000000000000000006001600160a01b03166116e9612df9565b6001600160a01b03161461170f5760405162461bcd60e51b8152600401610ef3906154e2565b61171882612e15565b6114f182826001612e1d565b600061172f609d5490565b82106117895760405162461bcd60e51b815260206004820152602360248201527f455243333532353a20676c6f62616c20696e646578206f7574206f6620626f756044820152626e647360e81b6064820152608401610ef3565b609d828154811061179c5761179c615251565b9060005260206000209060060201600001549050919050565b6117d56000805160206158668339815191526117d084611242565b613130565b6114f1828261313d565b6000306001600160a01b037f0000000000000000000000000000000000000000000000000000000000000000161461187a5760405162461bcd60e51b815260206004820152603860248201527f555550535570677261646561626c653a206d757374206e6f742062652063616c6044820152771b1959081d1a1c9bdd59da0819195b1959d85d1958d85b1b60421b6064820152608401610ef3565b506000805160206158a683398151915290565b611895612b3b565b6114d5816001600160a01b03166000908152609760205260409020805460ff19166001179055565b6118c96111c284611242565b610f508383613185565b60006118de826124ce565b6000828152609e6020526040902054609d8054909190811061190257611902615251565b60009182526020909120600360069092020101546001600160a01b03169050806113045760405162461bcd60e51b8152600401610ef39061552e565b61194a6111c282611242565b6114d5816131e1565b600061104f6000805160206158668339815191528385612080565b60006001600160a01b0382166119da5760405162461bcd60e51b815260206004820152602b60248201527f455243333532353a2062616c616e636520717565727920666f7220746865207a60448201526a65726f206164647265737360a81b6064820152608401610ef3565b506001600160a01b03166000908152609f602052604090205490565b6114f1600080516020615866833981519152828461202d565b600084815260d2602052604090208054611a289061521c565b159050611a4b57604051636f55f62b60e01b815260048101859052602401610ef3565b600084815260d2602090815260409091208451611a6a92860190614a2d565b508115611b6857600084815260cf60205260409020805460ff19168315151790556001600160a01b038116611ab257604051630ca2c90160e21b815260040160405180910390fd5b611ac4816001600160a01b031661248a565b611ae3578060405163d4daafa160e01b8152600401610ef39190614bec565b611afc6000805160206158468339815191528583613288565b611b156000805160206158c68339815191528583613288565b611b3c6000805160206158c683398151915285600080516020615846833981519152613319565b611b6360008051602061586683398151915285600080516020615846833981519152613319565b611bd6565b611b886000805160206158c683398151915285611b836124f3565b613288565b611baf6000805160206158c6833981519152856000805160206158c6833981519152613319565b611bd6600080516020615866833981519152856000805160206158c6833981519152613319565b50505050565b6114f16000805160206158c68339815191528284611c89565b6000611c00846118d3565b9050806001600160a01b0316836001600160a01b03161415611c345760405162461bcd60e51b8152600401610ef390615267565b806001600160a01b0316611c466124f3565b6001600160a01b03161480611c625750611c6281610cdd6124f3565b611c7e5760405162461bcd60e51b8152600401610ef3906152a9565b611bd6848484613384565b611c9383836121dd565b82611c9e8282613130565b611ca9858585612f97565b5050505050565b6114f16000805160206158c6833981519152828461202d565b606060998054610ddf9061521c565b600081815260d260205260409020805460609190611cf59061521c565b80601f0160208091040260200160405190810160405280929190818152602001828054611d219061521c565b8015611d6e5780601f10611d4357610100808354040283529160200191611d6e565b820191906000526020600020905b815481529060010190602001808311611d5157829003601f168201915b50505050509050919050565b600082815260d2602052604090208054611d939061521c565b15159050611db757604051630817886d60e41b815260048101839052602401610ef3565b611dd26000805160206158c683398151915283610b1c6124f3565b611e0a57611dde6124f3565b826000805160206158c683398151915260405163c8c801a760e01b8152600401610ef393929190615561565b600082815260d2602090815260409091208251610f5092840190614a2d565b6000611e34826124ce565b6000828152609e6020526040902054609d80549091908110611e5857611e58615251565b9060005260206000209060060201600201549050919050565b6000611e7c826134bc565b50600090815260d1602052604090205490565b6114f1611e9a6124f3565b83836134e5565b600081815260cf602052604090205460ff16611ed35760405163db53ce7160e01b815260048101829052602401610ef3565b611eec60008051602061584683398151915282856135b0565b611f0c60008051602061584683398151915282611f076124f3565b6135b0565b6001600160a01b038216611f3357604051630ca2c90160e21b815260040160405180910390fd5b611f4c600080516020615846833981519152828461202d565b611f656000805160206158c6833981519152828461202d565b611f7e600080516020615866833981519152828461202d565b611f976000805160206158668339815191528285611c89565b611fb06000805160206158c68339815191528285611c89565b611fc96000805160206158468339815191528285611c89565b604080516001600160a01b038086168252841660208201529081018290527f744258a28673e8738e2812c0ab8e8dbd70352f8871b1febac0dd753d96d79f589060600160405180910390a1505050565b600081815260cd6020526040812054610dca565b61203783836121dd565b826120428282613130565b611ca9858585613288565b6120586112156124f3565b6120745760405162461bcd60e51b8152600401610ef3906153f6565b611bd6848484846135de565b600091825260ca602090815260408084209484529381528383206001600160a01b0392909216835252205460ff1690565b600061104f6000805160206158c68339815191528385612080565b6120d4612b3b565b6040516001600160a01b038216907ffb445f6ec07647d2bb7af72821e6b8b7303ec375e934d4a338d38ed5846c2d5690600090a26001600160a01b0316600090815260cb60205260409020805460ff19169055565b6060612134826124ce565b600061214b60408051602081019091526000815290565b60a0549091506001600160a01b031661219757600081511161217c576040518060200160405280600081525061104f565b8061218684612599565b604051602001610fba929190615582565b60a0546040516344a5a61760e11b8152600481018590526001600160a01b039091169063894b4c2e90602401610ffb565b6121d46111c282611242565b6114d581613651565b600090815260ca60209081526040808320938352929052206001015490565b61220584612b4d565b60006122138686600161369f565b9050831561222d57600081815260d1602052604090208490555b82156114bc576114bc818461313d565b6000612248836124ce565b506000918252609c602090815260408084206001600160a01b0393909316845291905290205490565b6000806060600080612282866118d3565b600087815260d0602052604090205490955060ff1660028111156122a8576122a86153e0565b600096875260d1602090815260408089205460cd90925290972054959790969395939450915050565b6122d9612b3b565b6114d5816136b8565b606060006122fb60408051602081019091526000815290565b60a0549091506001600160a01b031661235b57600081511161232c57604051806020016040528060008152506123e5565b8061233630613702565b6040516020016123479291906155b1565b6040516020818303038152906040526123e5565b60a060009054906101000a90046001600160a01b03166001600160a01b031663725fa09c6040518163ffffffff1660e01b815260040160006040518083038186803b1580156123a957600080fd5b505afa1580156123bd573d6000803e3d6000fd5b505050506040513d6000823e601f3d908101601f191682016040526123e59190810190615342565b91505090565b60008060006123fa8585612a75565b9150915060005b818110156124715782818151811061241b5761241b615251565b602002602001015160001461245f5761244e83828151811061243f5761243f615251565b60200260200101516000613718565b1561245f5760019350505050610dca565b80612469816153c5565b915050612401565b50600095945050505050565b6000610dca826000613718565b6001600160a01b03163b151590565b60006001600160e01b031982166333cb74f560e11b1480610dca57506301ffc9a760e01b6001600160e01b0319831614610dca565b6124d7816137bd565b6114d55760405162461bcd60e51b8152600401610ef39061552e565b60006124fd613809565b905090565b6000818152609e6020526040902054609d8054849290811061252657612526615251565b6000918252602090912060069091020160040180546001600160a01b0319166001600160a01b0392831617905581908316612560826118d3565b6001600160a01b03167f8c5be1e5ebec7d5bd14f71427d1e84f3dd0314c0f7b2291e5b200ac8c7c3b92560405160405180910390a45050565b606060006125a683613833565b60010190506000816001600160401b038111156125c5576125c5614d2d565b6040519080825280601f01601f1916602001820160405280156125ef576020820181803683370190505b5090508181016020015b600019016f181899199a1a9b1b9c1cb0b131b232b360811b600a86061a8153600a85049450846126285761262d565b6125f9565b509392505050565b6000612641838561223d565b90506000198114611bd6578181101561269c5760405162461bcd60e51b815260206004820152601f60248201527f455243333532353a20696e73756666696369656e7420616c6c6f77616e6365006044820152606401610ef3565b611bd683856126ab85856155f5565b613384565b6000610dca61390b565b6001600160a01b03841661271a5760405162461bcd60e51b815260206004820152602160248201527f455243333532353a206d696e7420746f20746865207a65726f206164647265736044820152607360f81b6064820152608401610ef3565b826127715760405162461bcd60e51b815260206004820152602160248201527f455243333532353a2063616e6e6f74206d696e74207a65726f20746f6b656e496044820152601960fa1b6064820152608401610ef3565b61277a836137bd565b156127c75760405162461bcd60e51b815260206004820152601d60248201527f455243333532353a20746f6b656e20616c7265616479206d696e7465640000006044820152606401610ef3565b6127d2848484613922565b611b6383826139d6565b6127e5836137bd565b6128415760405162461bcd60e51b815260206004820152602760248201527f455243333532353a207472616e736665722066726f6d20696e76616c696420746044820152661bdad95b88125160ca1b6064820152608401610ef3565b61284a826137bd565b6128a45760405162461bcd60e51b815260206004820152602560248201527f455243333532353a207472616e7366657220746f20696e76616c696420746f6b604482015264195b88125160da1b6064820152608401610ef3565b6000838152609e6020526040812054609d805490919081106128c8576128c8615251565b906000526020600020906006020190506000609d609e6000868152602001908152602001600020548154811061290057612900615251565b9060005260206000209060060201905082826002015410156129775760405162461bcd60e51b815260206004820152602a60248201527f455243333532353a20696e73756666696369656e742062616c616e636520666f60448201526939103a3930b739b332b960b11b6064820152608401610ef3565b80600101548260010154146129e55760405162461bcd60e51b815260206004820152602e60248201527f455243333532353a207472616e7366657220746f20746f6b656e20776974682060448201526d191a5999995c995b9d081cdb1bdd60921b6064820152608401610ef3565b828260020160008282546129f991906155f5565b9250508190555082816002016000828254612a14919061560c565b9091555050604051838152849086906000805160206158868339815191529060200160405180910390a3612a5985858560405180602001604052806000815250613a49565b611ca95760405162461bcd60e51b8152600401610ef390615624565b6060600080612a838561196e565b6001600160401b03811115612a9a57612a9a614d2d565b604051908082528060200260200182016040528015612ac3578160200160208202803683370190505b5090506000805b8251811015612b2f576000612adf8883611309565b905086612aeb82611242565b1415612b1c57808484612afd816153c5565b955081518110612b0f57612b0f615251565b6020026020010181815250505b5080612b27816153c5565b915050612aca565b50909590945092505050565b612b4b612b466124f3565b613bfc565b565b6114d560008051602061586683398151915282613130565b826001600160a01b0316612b78826118d3565b6001600160a01b031614612bda5760405162461bcd60e51b8152602060048201526024808201527f455243333532353a207472616e736665722066726f6d20696e76616c6964206f6044820152633bb732b960e11b6064820152608401610ef3565b6001600160a01b038216612c3e5760405162461bcd60e51b815260206004820152602560248201527f455243333532353a207472616e7366657220746f20746865207a65726f206164604482015264647265737360d81b6064820152608401610ef3565b6000612c4982611242565b90506000612c5683611e29565b9050612c63600084612502565b612c6c83613c37565b612c768584613cd3565b612c808484613df4565b82846001600160a01b0316866001600160a01b031660008051602061592d83398151915260405160405180910390a4611ca9565b600054610100900460ff16612cdb5760405162461bcd60e51b8152600401610ef39061566c565b610f50838383613e7d565b600054610100900460ff1615808015612d065750600054600160ff909116105b80612d275750612d153061248a565b158015612d27575060005460ff166001145b612d435760405162461bcd60e51b8152600401610ef390615448565b6000805460ff191660011790558015612d66576000805461ff0019166101001790555b612d6e613ee4565b612d7782613f0b565b80156114f1576000805461ff0019169055604051600181526000805160206158e6833981519152906020015b60405180910390a15050565b60cc80546001600160a01b0319166001600160a01b0383169081179091556040517f5e4a30f4224898dbac86adca855a5edd3b8341a3aeb2b6ff0f0b5a82c013b65a90600090a250565b6000805160206158a6833981519152546001600160a01b031690565b6114d5612b3b565b7f4910fdfa16fed3260ed0e7147f7cc6da11a60208b5b9406d12a635614ffd91435460ff1615612e5057610f5083614024565b826001600160a01b03166352d1902d6040518163ffffffff1660e01b815260040160206040518083038186803b158015612e8957600080fd5b505afa925050508015612eb9575060408051601f3d908101601f19168201909252612eb6918101906156b7565b60015b612f1c5760405162461bcd60e51b815260206004820152602e60248201527f45524331393637557067726164653a206e657720696d706c656d656e7461746960448201526d6f6e206973206e6f74205555505360901b6064820152608401610ef3565b6000805160206158a68339815191528114612f8b5760405162461bcd60e51b815260206004820152602960248201527f45524331393637557067726164653a20756e737570706f727465642070726f786044820152681a58589b195555525160ba1b6064820152608401610ef3565b50610f508383836140be565b612fa2838383612080565b15610f5057600082815260ca6020908152604080832086845282528083206001600160a01b03851684529091529020805460ff19169055612fe16124f3565b6001600160a01b0316816001600160a01b0316847f6f9148fcdc32766ca802c14716295d56eab7ed848d0dba113966f40087c883908560405161302691815260200190565b60405180910390a4505050565b61303c816124ce565b6000818152609e6020526040812054609d8054909190811061306057613060615251565b60009182526020909120600691909102016003810154600182015460028301549293506001600160a01b039091169161309885613c37565b6130a28386613cd3565b6130ab856140e3565b600085600080516020615886833981519152836040516130cd91815260200190565b60405180910390a3600082867fe4f48c240d3b994948aa54f3e2f5fca59263dfe1d52b6e4cf39a5d249b5ccb6560405160405180910390a460405185906000906001600160a01b0386169060008051602061592d833981519152908390a4611ca9565b6114f18282611f076124f3565b600082815260cd602090815260409182902083905581518481529081018390527f5e07998cef9cea674942c66f0ea7b0bce89ab9473ce240cc93d616c3491f8aeb9101612da3565b6131908260016142f1565b600082815260d16020526040908190208290555182907f1ebc57da8b3ebab98506502fbb73232ea29fbe86e4963a5a8c004810ad11190d906131d59084815260200190565b60405180910390a25050565b6131ea816134bc565b6001600082815260d0602052604090205460ff16600281111561320f5761320f6153e0565b1461324857600081815260d06020526040908190205490516308c9ef2d60e11b8152610ef391839160ff909116906001906004016156f2565b600081815260d06020526040808220805460ff191690555182917fe2babfd5e77285a3c3dbc4b25592cbe4a7a26e97a7ac63067a22ebdaa9b82add91a250565b613293838383612080565b610f5057600082815260ca6020908152604080832086845282528083206001600160a01b03851684529091529020805460ff191660011790556132d46124f3565b6001600160a01b0316816001600160a01b0316847f4dc88bd74ca601684356789d5b3dbc9cd44275b2544e8d35041203703b7682328560405161302691815260200190565b600061332584846121dd565b600084815260ca6020908152604080832088845282529182902060010185905590518581529192508391839187917f15f4a36186b2284157fe71215a07487f6c8bdc1203b3307c3e1fd9693011d3d3910160405180910390a450505050565b6001600160a01b0382166133ed5760405162461bcd60e51b815260206004820152602a60248201527f455243333532353a20617070726f76652076616c756520746f20746865207a65604482015269726f206164647265737360b01b6064820152608401610ef3565b6133f78284614323565b61345d576000838152609e6020526040902054609d8054909190811061341f5761341f615251565b60009182526020808320600692909202909101600501805460018101825590835291200180546001600160a01b0319166001600160a01b0384161790555b6000838152609c602090815260408083206001600160a01b038616808552908352928190208490555183815285917f621b050de0ad08b51d19b48b3e6df75348c4de6bdd93e81b252ca62e28265b1b91015b60405180910390a3505050565b6134c5816137bd565b6114d5576040516321fbdd2b60e11b815260048101829052602401610ef3565b816001600160a01b0316836001600160a01b031614156135475760405162461bcd60e51b815260206004820152601a60248201527f455243333532353a20617070726f766520746f2063616c6c65720000000000006044820152606401610ef3565b6001600160a01b038381166000818152609f602090815260408083209487168084526002909501825291829020805460ff191686151590811790915591519182527f17307eab39ab6107e8899845ad3d59bd9653f200f220920489ca2b5937696c3191016134af565b6135bb838383612080565b610f505780828460405163c8c801a760e01b8152600401610ef393929190615561565b6135e9848484612b65565b6135f5848484846143f7565b611bd65760405162461bcd60e51b815260206004820152602760248201527f455243333532353a207472616e7366657220746f206e6f6e204552433732315260448201526632b1b2b4bb32b960c91b6064820152608401610ef3565b61365c8160016142f1565b600081815260d06020526040808220805460ff191660011790555182917f779fbee689bbd6f006ecb329206d35c7db7380f9837a8826fb8dc5cfcd3d33dd91a250565b6000806136aa61390b565b9050611097858286866126ba565b60a080546001600160a01b0319166001600160a01b0383169081179091556040517f5252f52e45fc8ee6a7b43cef3645d23e9a470a34182b8b3a12627556635bfc9c90600090a250565b6060610dca6001600160a01b03831660146145d0565b600082815260d0602052604081205460ff168181600281111561373d5761373d6153e0565b1461374c576000915050610dca565b6000613757856118d3565b600086815260d1602052604090205490915015801590613775575083155b156137a9576001600160a01b038116158015906137a05750600085815260d160205260409020544211155b92505050610dca565b6001600160a01b031615159150610dca9050565b609d5460009015801590610dca57506000828152609e6020526040902054609d805484929081106137f0576137f0615251565b9060005260206000209060060201600001541492915050565b3360009081526097602052604081205460ff161561382e575060131936013560601c90565b503390565b60008072184f03e93ff9f4daa797ed6e38ed64bf6a1f0160401b83106138725772184f03e93ff9f4daa797ed6e38ed64bf6a1f0160401b830492506040015b6d04ee2d6d415b85acef8100000000831061389e576d04ee2d6d415b85acef8100000000830492506020015b662386f26fc1000083106138bc57662386f26fc10000830492506010015b6305f5e10083106138d4576305f5e100830492506008015b61271083106138e857612710830492506004015b606483106138fa576064830492506002015b600a8310610dca5760010192915050565b600061391b609b80546001019055565b50609b5490565b6040805160c081018252838152602080820184905260008284018190526001600160a01b038716606084015260808301819052835181815291820190935260a082015290506139708161476b565b61397a8484613df4565b60405183906001600160a01b0386169060009060008051602061592d833981519152908290a4816000847fe4f48c240d3b994948aa54f3e2f5fca59263dfe1d52b6e4cf39a5d249b5ccb6560405160405180910390a450505050565b6000828152609e6020526040902054609d805483929081106139fa576139fa615251565b90600052602060002090600602016002016000828254613a1a919061560c565b909155505060405181815282906000906000805160206158868339815191529060200160405180910390a35050565b600080613a55856118d3565b9050613a69816001600160a01b031661248a565b8015613af257506040516301ffc9a760e01b81526001600160a01b038216906301ffc9a790613aa290629ce20b60e01b90600401615713565b60206040518083038186803b158015613aba57600080fd5b505afa158015613ace573d6000803e3d6000fd5b505050506040513d601f19601f82011682018060405250810190613af29190615728565b15613bf057806001600160a01b0316629ce20b613b0d6124f3565b888888886040518663ffffffff1660e01b8152600401613b31959493929190615745565b602060405180830381600087803b158015613b4b57600080fd5b505af1925050508015613b7b575060408051601f3d908101601f19168201909252613b7891810190615783565b60015b613bd5573d808015613ba9576040519150601f19603f3d011682016040523d82523d6000602084013e613bae565b606091505b508051613bcd5760405162461bcd60e51b8152600401610ef390615624565b805181602001fd5b6001600160e01b031916629ce20b60e01b1491506110979050565b50600195945050505050565b6001600160a01b038116600090815260cb602052604090205460ff166114d55780604051632957ccdd60e21b8152600401610ef39190614bec565b6000818152609e6020526040812054609d80549091908110613c5b57613c5b615251565b600091825260208220600560069092020190810154909250905b81811015611bd6576000836005018281548110613c9457613c94615251565b6000918252602080832090910154878352609c825260408084206001600160a01b03909216845291528120555080613ccb816153c5565b915050613c75565b6000818152609e6020526040812054609d80549091908110613cf757613cf7615251565b6000918252602080832060069290920290910160030180546001600160a01b0319166001600160a01b039485161790559184168152609f909152604081208054909190613d46906001906155f5565b90506000826000018281548110613d5f57613d5f615251565b90600052602060002001549050600083600101600086815260200190815260200160002054905081846000018281548110613d9c57613d9c615251565b60009182526020808320909101929092558381526001860190915260408082208390558682528120558354849080613dd657613dd66157a0565b60019003818190600052602060002001600090559055505050505050565b6000818152609e6020526040902054609d80548492908110613e1857613e18615251565b6000918252602080832060069290920290910160030180546001600160a01b0319166001600160a01b03948516179055939091168152609f80845260408083208054858552600182810188529285208190559286529082018155825292902090910155565b600054610100900460ff16613ea45760405162461bcd60e51b8152600401610ef39061566c565b8251613eb7906098906020860190614a2d565b508151613ecb906099906020850190614a2d565b50609a805460ff191660ff929092169190911790555050565b600054610100900460ff16612b4b5760405162461bcd60e51b8152600401610ef39061566c565b600054610100900460ff1615808015613f2b5750600054600160ff909116105b80613f4c5750613f3a3061248a565b158015613f4c575060005460ff166001145b613f685760405162461bcd60e51b8152600401610ef390615448565b6000805460ff191660011790558015613f8b576000805461ff0019166101001790555b60005b8251811015613ff357600160976000858481518110613faf57613faf615251565b6020908102919091018101516001600160a01b03168252810191909152604001600020805460ff191691151591909117905580613feb816153c5565b915050613f8e565b5080156114f1576000805461ff0019169055604051600181526000805160206158e683398151915290602001612da3565b61402d8161248a565b61408f5760405162461bcd60e51b815260206004820152602d60248201527f455243313936373a206e657720696d706c656d656e746174696f6e206973206e60448201526c1bdd08184818dbdb9d1c9858dd609a1b6064820152608401610ef3565b6000805160206158a683398151915280546001600160a01b0319166001600160a01b0392909216919091179055565b6140c7836148bd565b6000825111806140d45750805b15610f5057611bd683836148fd565b609d546000906140f5906001906155f5565b6000838152609e6020526040812054609d805493945090928490811061411d5761411d615251565b60009182526020918290206040805160c08101825260069093029091018054835260018101548385015260028101548383015260038101546001600160a01b03908116606085015260048201541660808401526005810180548351818702810187019094528084529394919360a0860193928301828280156141c857602002820191906000526020600020905b81546001600160a01b031681526001909101906020018083116141aa575b505050505081525050905080609d83815481106141e7576141e7615251565b600091825260209182902083516006909202019081558282015160018201556040830151600282015560608301516003820180546001600160a01b039283166001600160a01b031991821617909155608085015160048401805491909316911617905560a08301518051919261426592600585019290910190614ab1565b505081516000908152609e602052604080822085905586825281205550609d805480614293576142936157a0565b60008281526020812060066000199093019283020181815560018101829055600281018290556003810180546001600160a01b03199081169091556004820180549091169055906142e76005830182614b06565b5050905550505050565b6142fb8282613718565b6114f1576040516316af84a960e21b8152600481018390528115156024820152604401610ef3565b6000818152609e6020526040812054609d8054839290811061434757614347615251565b6000918252602082206005600690920201015491505b818110156143ec576000848152609e6020526040902054609d80546001600160a01b0388169290811061439257614392615251565b906000526020600020906006020160050182815481106143b4576143b4615251565b6000918252602090912001546001600160a01b031614156143da57600192505050610dca565b806143e4816153c5565b91505061435d565b506000949350505050565b600061440b846001600160a01b031661248a565b801561449557506040516301ffc9a760e01b81526001600160a01b038516906301ffc9a79061444590630a85bd0160e11b90600401615713565b60206040518083038186803b15801561445d57600080fd5b505afa158015614471573d6000803e3d6000fd5b505050506040513d601f19601f820116820180604052508101906144959190615728565b156145c857836001600160a01b031663150b7a026144b16124f3565b8786866040518563ffffffff1660e01b81526004016144d394939291906157b6565b602060405180830381600087803b1580156144ed57600080fd5b505af192505050801561451d575060408051601f3d908101601f1916820190925261451a91810190615783565b60015b6145ae573d80801561454b576040519150601f19603f3d011682016040523d82523d6000602084013e614550565b606091505b508051613bcd5760405162461bcd60e51b815260206004820152602660248201527f4552433732313a207472616e7366657220746f206e6f6e20455243373231526560448201526531b2b4bb32b960d11b6064820152608401610ef3565b6001600160e01b031916630a85bd0160e11b149050611097565b506001611097565b606060006145df8360026157f3565b6145ea90600261560c565b6001600160401b0381111561460157614601614d2d565b6040519080825280601f01601f19166020018201604052801561462b576020820181803683370190505b509050600360fc1b8160008151811061464657614646615251565b60200101906001600160f81b031916908160001a905350600f60fb1b8160018151811061467557614675615251565b60200101906001600160f81b031916908160001a90535060006146998460026157f3565b6146a490600161560c565b90505b600181111561471c576f181899199a1a9b1b9c1cb0b131b232b360811b85600f16601081106146d8576146d8615251565b1a60f81b8282815181106146ee576146ee615251565b60200101906001600160f81b031916908160001a90535060049490941c9361471581615812565b90506146a7565b50831561104f5760405162461bcd60e51b815260206004820181905260248201527f537472696e67733a20686578206c656e67746820696e73756666696369656e746044820152606401610ef3565b609d805482516000908152609e6020908152604080832084905560018401855593909152835160069092027fd26e832454299e9fabb89e0e5fffdc046d4e14431bc1bf607ffb2e8a1ddecf7b8101928355818501517fd26e832454299e9fabb89e0e5fffdc046d4e14431bc1bf607ffb2e8a1ddecf7c820155928401517fd26e832454299e9fabb89e0e5fffdc046d4e14431bc1bf607ffb2e8a1ddecf7d84015560608401517fd26e832454299e9fabb89e0e5fffdc046d4e14431bc1bf607ffb2e8a1ddecf7e840180546001600160a01b039283166001600160a01b03199182161790915560808601517fd26e832454299e9fabb89e0e5fffdc046d4e14431bc1bf607ffb2e8a1ddecf7f8601805491909316911617905560a084015180518594611bd6937fd26e832454299e9fabb89e0e5fffdc046d4e14431bc1bf607ffb2e8a1ddecf80909101920190614ab1565b6148c681614024565b6040516001600160a01b038216907fbc7cd75a20ee27fd9adebab32041f755214dbc6bffa90cc0225b39da2e5c2d3b90600090a250565b60606149088361248a565b6149635760405162461bcd60e51b815260206004820152602660248201527f416464726573733a2064656c65676174652063616c6c20746f206e6f6e2d636f6044820152651b9d1c9858dd60d21b6064820152608401610ef3565b600080846001600160a01b03168460405161497e9190615829565b600060405180830381855af49150503d80600081146149b9576040519150601f19603f3d011682016040523d82523d6000602084013e6149be565b606091505b50915091506149e68282604051806060016040528060278152602001615906602791396149ef565b95945050505050565b606083156149fe57508161104f565b61104f8383815115614a135781518083602001fd5b8060405162461bcd60e51b8152600401610ef39190614bc0565b828054614a399061521c565b90600052602060002090601f016020900481019282614a5b5760008555614aa1565b82601f10614a7457805160ff1916838001178555614aa1565b82800160010185558215614aa1579182015b82811115614aa1578251825591602001919060010190614a86565b50614aad929150614b20565b5090565b828054828255906000526020600020908101928215614aa1579160200282015b82811115614aa157825182546001600160a01b0319166001600160a01b03909116178255602090920191600190910190614ad1565b50805460008255906000526020600020908101906114d591905b5b80821115614aad5760008155600101614b21565b6001600160e01b0319811681146114d557600080fd5b600060208284031215614b5d57600080fd5b813561104f81614b35565b60005b83811015614b83578181015183820152602001614b6b565b83811115611bd65750506000910152565b60008151808452614bac816020860160208601614b68565b601f01601f19169290920160200192915050565b60208152600061104f6020830184614b94565b600060208284031215614be557600080fd5b5035919050565b6001600160a01b0391909116815260200190565b80356001600160a01b038116811461130457600080fd5b60008060408385031215614c2a57600080fd5b614c3383614c00565b946020939093013593505050565b600080600060608486031215614c5657600080fd5b83359250614c6660208501614c00565b9150604084013590509250925092565b6020808252825182820181905260009190848201906040850190845b81811015614cae57835183529284019291840191600101614c92565b50909695505050505050565b600060208284031215614ccc57600080fd5b61104f82614c00565b600080600060608486031215614cea57600080fd5b614cf384614c00565b9250614c6660208501614c00565b600080600060608486031215614d1657600080fd5b505081359360208301359350604090920135919050565b634e487b7160e01b600052604160045260246000fd5b604051601f8201601f191681016001600160401b0381118282101715614d6b57614d6b614d2d565b604052919050565b60006001600160401b03821115614d8c57614d8c614d2d565b50601f01601f191660200190565b600082601f830112614dab57600080fd5b8135614dbe614db982614d73565b614d43565b818152846020838601011115614dd357600080fd5b816020850160208301376000918101602001919091529392505050565b600080600080600060a08688031215614e0857600080fd5b85356001600160401b0380821115614e1f57600080fd5b614e2b89838a01614d9a565b9650602091508188013581811115614e4257600080fd5b614e4e8a828b01614d9a565b965050614e5d60408901614c00565b9450614e6b60608901614c00565b9350608088013581811115614e7f57600080fd5b8801601f81018a13614e9057600080fd5b803582811115614ea257614ea2614d2d565b8060051b9250614eb3848401614d43565b818152928201840192848101908c851115614ecd57600080fd5b928501925b84841015614ef257614ee384614c00565b82529285019290850190614ed2565b8096505050505050509295509295909350565b600080600060608486031215614f1a57600080fd5b8335925060208401359150614f3160408501614c00565b90509250925092565b60008060408385031215614f4d57600080fd5b614f5683614c00565b915060208301356001600160401b03811115614f7157600080fd5b614f7d85828601614d9a565b9150509250929050565b60008060408385031215614f9a57600080fd5b50508035926020909101359150565b600060808284031215614fbb57600080fd5b50919050565b600080600060c08486031215614fd657600080fd5b8335925060208401359150614f318560408601614fa9565b80151581146114d557600080fd5b6000806000806080858703121561501257600080fd5b8435935060208501356001600160401b0381111561502f57600080fd5b61503b87828801614d9a565b935050604085013561504c81614fee565b915061505a60608601614c00565b905092959194509250565b6000806040838503121561507857600080fd5b8235915060208301356001600160401b03811115614f7157600080fd5b600080604083850312156150a857600080fd5b6150b183614c00565b915060208301356150c181614fee565b809150509250929050565b600080600080608085870312156150e257600080fd5b6150eb85614c00565b93506150f960208601614c00565b92506040850135915060608501356001600160401b0381111561511b57600080fd5b61512787828801614d9a565b91505092959194509250565b6000806000806000610100868803121561514c57600080fd5b61515586614c00565b94506020860135935060408601359250606086013591506151798760808801614fa9565b90509295509295909350565b6000806040838503121561519857600080fd5b823591506151a860208401614c00565b90509250929050565b6001600160a01b038616815260ff8516602082015260a0604082018190526000906151de90830186614b94565b606083019490945250608001529392505050565b6000806040838503121561520557600080fd5b61520e83614c00565b91506151a860208401614c00565b600181811c9082168061523057607f821691505b60208210811415614fbb57634e487b7160e01b600052602260045260246000fd5b634e487b7160e01b600052603260045260246000fd5b60208082526022908201527f455243333532353a20617070726f76616c20746f2063757272656e74206f776e60408201526132b960f11b606082015260800190565b60208082526039908201527f455243333532353a20617070726f76652063616c6c6572206973206e6f74206f6040820152781ddb995c881b9bdc88185c1c1c9bdd995908199bdc88185b1b603a1b606082015260800190565b60008351615314818460208801614b68565b64736c6f742f60d81b9083019081528351615336816005840160208801614b68565b01600501949350505050565b60006020828403121561535457600080fd5b81516001600160401b0381111561536a57600080fd5b8201601f8101841361537b57600080fd5b8051615389614db982614d73565b81815285602083850101111561539e57600080fd5b6149e6826020830160208601614b68565b634e487b7160e01b600052601160045260246000fd5b60006000198214156153d9576153d96153af565b5060010190565b634e487b7160e01b600052602160045260246000fd5b60208082526032908201527f455243333532353a207472616e736665722063616c6c6572206973206e6f74206040820152711bdddb995c881b9bdc88185c1c1c9bdd995960721b606082015260800190565b6020808252602e908201527f496e697469616c697a61626c653a20636f6e747261637420697320616c72656160408201526d191e481a5b9a5d1a585b1a5e995960921b606082015260800190565b6020808252602c908201527f46756e6374696f6e206d7573742062652063616c6c6564207468726f7567682060408201526b19195b1959d85d1958d85b1b60a21b606082015260800190565b6020808252602c908201527f46756e6374696f6e206d7573742062652063616c6c6564207468726f7567682060408201526b6163746976652070726f787960a01b606082015260800190565b602080825260199082015278115490cccd4c8d4e881a5b9d985b1a59081d1bdad95b881251603a1b604082015260600190565b6001600160a01b039390931683526020830191909152604082015260600190565b60008351615594818460208801614b68565b8351908301906155a8818360208801614b68565b01949350505050565b600083516155c3818460208801614b68565b68636f6e74726163742f60b81b90830190815283516155e9816009840160208801614b68565b01600901949350505050565b600082821015615607576156076153af565b500390565b6000821982111561561f5761561f6153af565b500190565b60208082526028908201527f455243333532353a207472616e7366657220746f206e6f6e20455243333532356040820152672932b1b2b4bb32b960c11b606082015260800190565b6020808252602b908201527f496e697469616c697a61626c653a20636f6e7472616374206973206e6f74206960408201526a6e697469616c697a696e6760a81b606082015260800190565b6000602082840312156156c957600080fd5b5051919050565b600381106156ee57634e487b7160e01b600052602160045260246000fd5b9052565b8381526060810161570660208301856156d0565b61109760408301846156d0565b6001600160e01b031991909116815260200190565b60006020828403121561573a57600080fd5b815161104f81614fee565b60018060a01b038616815284602082015283604082015282606082015260a06080820152600061577860a0830184614b94565b979650505050505050565b60006020828403121561579557600080fd5b815161104f81614b35565b634e487b7160e01b600052603160045260246000fd5b6001600160a01b03858116825284166020820152604081018390526080606082018190526000906157e990830184614b94565b9695505050505050565b600081600019048311821515161561580d5761580d6153af565b500290565b600081615821576158216153af565b506000190190565b6000825161583b818460208701614b68565b919091019291505056fefca69b310bd19d275687ebe00b254b0772cf7a367c3f81a9a5a433f831fdc1dc3c63e605be3290ab6b04cfc46c6e1516e626d43236b034f09d7ede1d017beb0c0b2aac84f3ec956911fd78eae5311062972ff949f38412e8da39069d9f068cc6360894a13ba1a3210667c828492db98dca3e2076cc3735a920a3ca505d382bbc449b0a7e0acc0a95c71947cb19fdd122b42abca9bdfbd6707ca4f1e3fdaef05e7f26b83ff96e1f2b6a682f133852f6798a09c465da95921460cefb3847402498416464726573733a206c6f772d6c6576656c2064656c65676174652063616c6c206661696c6564ddf252ad1be2c89b69c2b068fc378daa952ba7f163c4a11628f55a4df523b3efa26469706673582212205705690eec8ed06145bee360d5d11941dfda389563f8164636f8f93e293acef364736f6c63430008090033496e697469616c697a61626c653a20636f6e747261637420697320616c7265617f26b83ff96e1f2b6a682f133852f6798a09c465da95921460cefb3847402498",
  "linkReferences": {},
  "deployedLinkReferences": {}
}