{
  "_format": "hh-sol-artifact-1",
  "contractName": "GatewayToken",
  "sourceName": "contracts/GatewayToken.sol",
  "abi": [
    {
      "inputs": [],
      "stateMutability": "nonpayable",
      "type": "constructor"
    },
    {
      "inputs": [
        {
          "internalType": "uint256",
          "name": "allowance",
          "type": "uint256"
        },
        {
          "internalType": "uint256",
          "name": "expectedAllowance",
          "type": "uint256"
        }
      ],
      "name": "Charge__InsufficientAllowance",
      "type": "error"
    },
    {
      "inputs": [
        {
          "internalType": "uint256",
          "name": "value",
          "type": "uint256"
        },
        {
          "internalType": "uint256",
          "name": "expectedValue",
          "type": "uint256"
        }
      ],
      "name": "Charge__InsufficientValue",
      "type": "error"
    },
    {
      "inputs": [
        {
          "internalType": "uint256",
          "name": "value",
          "type": "uint256"
        }
      ],
      "name": "Charge__TransferFailed",
      "type": "error"
    },
    {
      "inputs": [],
      "name": "Common__MissingAccount",
      "type": "error"
    },
    {
      "inputs": [
        {
          "internalType": "address",
          "name": "account",
          "type": "address"
        }
      ],
      "name": "Common__NotContract",
      "type": "error"
    },
    {
      "inputs": [
        {
          "internalType": "address",
          "name": "account",
          "type": "address"
        }
      ],
      "name": "Common__NotSuperAdmin",
      "type": "error"
    },
    {
      "inputs": [
        {
          "internalType": "address",
          "name": "sender",
          "type": "address"
        },
        {
          "internalType": "uint256",
          "name": "domain",
          "type": "uint256"
        },
        {
          "internalType": "bytes32",
          "name": "role",
          "type": "bytes32"
        }
      ],
      "name": "Common__Unauthorized",
      "type": "error"
    },
    {
      "inputs": [
        {
          "internalType": "uint256",
          "name": "available",
          "type": "uint256"
        },
        {
          "internalType": "uint256",
          "name": "required",
          "type": "uint256"
        }
      ],
      "name": "GatewayToken__InsufficientFunds",
      "type": "error"
    },
    {
      "inputs": [
        {
          "internalType": "uint256",
          "name": "network",
          "type": "uint256"
        }
      ],
      "name": "GatewayToken__NetworkAlreadyExists",
      "type": "error"
    },
    {
      "inputs": [
        {
          "internalType": "uint256",
          "name": "network",
          "type": "uint256"
        }
      ],
      "name": "GatewayToken__NetworkDoesNotExist",
      "type": "error"
    },
    {
      "inputs": [
        {
          "internalType": "uint256",
          "name": "network",
          "type": "uint256"
        }
      ],
      "name": "GatewayToken__NotDAOGoverned",
      "type": "error"
    },
    {
      "inputs": [
        {
          "internalType": "uint256",
          "name": "tokenId",
          "type": "uint256"
        }
      ],
      "name": "GatewayToken__TokenDoesNotExist",
      "type": "error"
    },
    {
      "inputs": [
        {
          "internalType": "uint256",
          "name": "tokenId",
          "type": "uint256"
        },
        {
          "internalType": "bool",
          "name": "allowExpired",
          "type": "bool"
        }
      ],
      "name": "GatewayToken__TokenDoesNotExistOrIsInactive",
      "type": "error"
    },
    {
      "inputs": [
        {
          "internalType": "uint256",
          "name": "tokenId",
          "type": "uint256"
        },
        {
          "internalType": "enum IGatewayToken.TokenState",
          "name": "state",
          "type": "uint8"
        },
        {
          "internalType": "enum IGatewayToken.TokenState",
          "name": "expectedState",
          "type": "uint8"
        }
      ],
      "name": "GatewayToken__TokenInvalidStateForOperation",
      "type": "error"
    },
    {
      "inputs": [],
      "name": "GatewayToken__TransferDisabled",
      "type": "error"
    },
    {
      "inputs": [
        {
          "internalType": "bytes32",
          "name": "role",
          "type": "bytes32"
        },
        {
          "internalType": "address",
          "name": "account",
          "type": "address"
        }
      ],
      "name": "ParameterizedAccessControl__RenounceRoleNotForSelf",
      "type": "error"
    },
    {
      "anonymous": false,
      "inputs": [
        {
          "indexed": false,
          "internalType": "address",
          "name": "previousAdmin",
          "type": "address"
        },
        {
          "indexed": false,
          "internalType": "address",
          "name": "newAdmin",
          "type": "address"
        }
      ],
      "name": "AdminChanged",
      "type": "event"
    },
    {
      "anonymous": false,
      "inputs": [
        {
          "indexed": true,
          "internalType": "address",
          "name": "_owner",
          "type": "address"
        },
        {
          "indexed": true,
          "internalType": "address",
          "name": "_approved",
          "type": "address"
        },
        {
          "indexed": true,
          "internalType": "uint256",
          "name": "_tokenId",
          "type": "uint256"
        }
      ],
      "name": "Approval",
      "type": "event"
    },
    {
      "anonymous": false,
      "inputs": [
        {
          "indexed": true,
          "internalType": "address",
          "name": "_owner",
          "type": "address"
        },
        {
          "indexed": true,
          "internalType": "address",
          "name": "_operator",
          "type": "address"
        },
        {
          "indexed": false,
          "internalType": "bool",
          "name": "_approved",
          "type": "bool"
        }
      ],
      "name": "ApprovalForAll",
      "type": "event"
    },
    {
      "anonymous": false,
      "inputs": [
        {
          "indexed": true,
          "internalType": "uint256",
          "name": "_tokenId",
          "type": "uint256"
        },
        {
          "indexed": true,
          "internalType": "address",
          "name": "_operator",
          "type": "address"
        },
        {
          "indexed": false,
          "internalType": "uint256",
          "name": "_value",
          "type": "uint256"
        }
      ],
      "name": "ApprovalValue",
      "type": "event"
    },
    {
      "anonymous": false,
      "inputs": [
        {
          "indexed": true,
          "internalType": "address",
          "name": "beacon",
          "type": "address"
        }
      ],
      "name": "BeaconUpgraded",
      "type": "event"
    },
    {
      "anonymous": false,
      "inputs": [
        {
          "indexed": false,
          "internalType": "uint256",
          "name": "tokenId",
          "type": "uint256"
        },
        {
          "indexed": false,
          "internalType": "uint256",
          "name": "bitmask",
          "type": "uint256"
        }
      ],
      "name": "BitMaskUpdated",
      "type": "event"
    },
    {
      "anonymous": false,
      "inputs": [
        {
          "components": [
            {
              "internalType": "uint256",
              "name": "value",
              "type": "uint256"
            },
            {
              "internalType": "enum ChargeType",
              "name": "chargeType",
              "type": "uint8"
            },
            {
              "internalType": "address",
              "name": "token",
              "type": "address"
            },
            {
              "internalType": "address",
              "name": "tokenSender",
              "type": "address"
            },
            {
              "internalType": "address",
              "name": "recipient",
              "type": "address"
            }
          ],
          "indexed": false,
          "internalType": "struct Charge",
          "name": "",
          "type": "tuple"
        }
      ],
      "name": "ChargePaid",
      "type": "event"
    },
    {
      "anonymous": false,
      "inputs": [
        {
          "indexed": false,
          "internalType": "address",
          "name": "previousDAOManager",
          "type": "address"
        },
        {
          "indexed": false,
          "internalType": "address",
          "name": "newDAOManager",
          "type": "address"
        },
        {
          "indexed": false,
          "internalType": "uint256",
          "name": "network",
          "type": "uint256"
        }
      ],
      "name": "DAOManagerTransferred",
      "type": "event"
    },
    {
      "anonymous": false,
      "inputs": [
        {
          "indexed": true,
          "internalType": "uint256",
          "name": "tokenId",
          "type": "uint256"
        },
        {
          "indexed": false,
          "internalType": "uint256",
          "name": "timestamp",
          "type": "uint256"
        }
      ],
      "name": "Expiration",
      "type": "event"
    },
    {
      "anonymous": false,
      "inputs": [
        {
          "indexed": true,
          "internalType": "address",
          "name": "flagsStorage",
          "type": "address"
        }
      ],
      "name": "FlagsStorageUpdated",
      "type": "event"
    },
    {
      "anonymous": false,
      "inputs": [
        {
          "indexed": true,
          "internalType": "uint256",
          "name": "tokenId",
          "type": "uint256"
        }
      ],
      "name": "Freeze",
      "type": "event"
    },
    {
      "anonymous": false,
      "inputs": [
        {
          "indexed": false,
          "internalType": "uint8",
          "name": "version",
          "type": "uint8"
        }
      ],
      "name": "Initialized",
      "type": "event"
    },
    {
      "anonymous": false,
      "inputs": [
        {
          "indexed": true,
          "internalType": "uint256",
          "name": "tokenId",
          "type": "uint256"
        }
      ],
      "name": "Revoke",
      "type": "event"
    },
    {
      "anonymous": false,
      "inputs": [
        {
          "indexed": true,
          "internalType": "bytes32",
          "name": "role",
          "type": "bytes32"
        },
        {
          "indexed": false,
          "internalType": "uint256",
          "name": "domain",
          "type": "uint256"
        },
        {
          "indexed": true,
          "internalType": "bytes32",
          "name": "previousAdminRole",
          "type": "bytes32"
        },
        {
          "indexed": true,
          "internalType": "bytes32",
          "name": "newAdminRole",
          "type": "bytes32"
        }
      ],
      "name": "RoleAdminChanged",
      "type": "event"
    },
    {
      "anonymous": false,
      "inputs": [
        {
          "indexed": true,
          "internalType": "bytes32",
          "name": "role",
          "type": "bytes32"
        },
        {
          "indexed": false,
          "internalType": "uint256",
          "name": "domain",
          "type": "uint256"
        },
        {
          "indexed": true,
          "internalType": "address",
          "name": "account",
          "type": "address"
        },
        {
          "indexed": true,
          "internalType": "address",
          "name": "sender",
          "type": "address"
        }
      ],
      "name": "RoleGranted",
      "type": "event"
    },
    {
      "anonymous": false,
      "inputs": [
        {
          "indexed": true,
          "internalType": "bytes32",
          "name": "role",
          "type": "bytes32"
        },
        {
          "indexed": false,
          "internalType": "uint256",
          "name": "domain",
          "type": "uint256"
        },
        {
          "indexed": true,
          "internalType": "address",
          "name": "account",
          "type": "address"
        },
        {
          "indexed": true,
          "internalType": "address",
          "name": "sender",
          "type": "address"
        }
      ],
      "name": "RoleRevoked",
      "type": "event"
    },
    {
      "anonymous": false,
      "inputs": [
        {
          "indexed": true,
          "internalType": "address",
          "name": "metadataDescriptor",
          "type": "address"
        }
      ],
      "name": "SetMetadataDescriptor",
      "type": "event"
    },
    {
      "anonymous": false,
      "inputs": [
        {
          "indexed": true,
          "internalType": "uint256",
          "name": "_tokenId",
          "type": "uint256"
        },
        {
          "indexed": true,
          "internalType": "uint256",
          "name": "_oldSlot",
          "type": "uint256"
        },
        {
          "indexed": true,
          "internalType": "uint256",
          "name": "_newSlot",
          "type": "uint256"
        }
      ],
      "name": "SlotChanged",
      "type": "event"
    },
    {
      "anonymous": false,
      "inputs": [
        {
          "indexed": true,
          "internalType": "address",
          "name": "account",
          "type": "address"
        }
      ],
      "name": "SuperAdminAdded",
      "type": "event"
    },
    {
      "anonymous": false,
      "inputs": [
        {
          "indexed": true,
          "internalType": "address",
          "name": "account",
          "type": "address"
        }
      ],
      "name": "SuperAdminRemoved",
      "type": "event"
    },
    {
      "anonymous": false,
      "inputs": [
        {
          "indexed": true,
          "internalType": "address",
          "name": "_from",
          "type": "address"
        },
        {
          "indexed": true,
          "internalType": "address",
          "name": "_to",
          "type": "address"
        },
        {
          "indexed": true,
          "internalType": "uint256",
          "name": "_tokenId",
          "type": "uint256"
        }
      ],
      "name": "Transfer",
      "type": "event"
    },
    {
      "anonymous": false,
      "inputs": [
        {
          "indexed": true,
          "internalType": "uint256",
          "name": "_fromTokenId",
          "type": "uint256"
        },
        {
          "indexed": true,
          "internalType": "uint256",
          "name": "_toTokenId",
          "type": "uint256"
        },
        {
          "indexed": false,
          "internalType": "uint256",
          "name": "_value",
          "type": "uint256"
        }
      ],
      "name": "TransferValue",
      "type": "event"
    },
    {
      "anonymous": false,
      "inputs": [
        {
          "indexed": true,
          "internalType": "uint256",
          "name": "tokenId",
          "type": "uint256"
        }
      ],
      "name": "Unfreeze",
      "type": "event"
    },
    {
      "anonymous": false,
      "inputs": [
        {
          "indexed": true,
          "internalType": "address",
          "name": "implementation",
          "type": "address"
        }
      ],
      "name": "Upgraded",
      "type": "event"
    },
    {
      "inputs": [],
      "name": "DAO_MANAGER_ROLE",
      "outputs": [
        {
          "internalType": "bytes32",
          "name": "",
          "type": "bytes32"
        }
      ],
      "stateMutability": "view",
      "type": "function"
    },
    {
      "inputs": [],
      "name": "DEFAULT_ADMIN_ROLE",
      "outputs": [
        {
          "internalType": "bytes32",
          "name": "",
          "type": "bytes32"
        }
      ],
      "stateMutability": "view",
      "type": "function"
    },
    {
      "inputs": [],
      "name": "GATEKEEPER_ROLE",
      "outputs": [
        {
          "internalType": "bytes32",
          "name": "",
          "type": "bytes32"
        }
      ],
      "stateMutability": "view",
      "type": "function"
    },
    {
      "inputs": [],
      "name": "NETWORK_AUTHORITY_ROLE",
      "outputs": [
        {
          "internalType": "bytes32",
          "name": "",
          "type": "bytes32"
        }
      ],
      "stateMutability": "view",
      "type": "function"
    },
    {
      "inputs": [
        {
          "internalType": "address",
          "name": "forwarder",
          "type": "address"
        }
      ],
      "name": "addForwarder",
      "outputs": [],
      "stateMutability": "nonpayable",
      "type": "function"
    },
    {
      "inputs": [
        {
          "internalType": "address",
          "name": "gatekeeper",
          "type": "address"
        },
        {
          "internalType": "uint256",
          "name": "network",
          "type": "uint256"
        }
      ],
      "name": "addGatekeeper",
      "outputs": [],
      "stateMutability": "nonpayable",
      "type": "function"
    },
    {
      "inputs": [
        {
          "internalType": "address",
          "name": "authority",
          "type": "address"
        },
        {
          "internalType": "uint256",
          "name": "network",
          "type": "uint256"
        }
      ],
      "name": "addNetworkAuthority",
      "outputs": [],
      "stateMutability": "nonpayable",
      "type": "function"
    },
    {
      "inputs": [
        {
          "internalType": "uint256",
          "name": "tokenId_",
          "type": "uint256"
        },
        {
          "internalType": "address",
          "name": "operator_",
          "type": "address"
        }
      ],
      "name": "allowance",
      "outputs": [
        {
          "internalType": "uint256",
          "name": "",
          "type": "uint256"
        }
      ],
      "stateMutability": "view",
      "type": "function"
    },
    {
      "inputs": [
        {
          "internalType": "address",
          "name": "",
          "type": "address"
        },
        {
          "internalType": "uint256",
          "name": "",
          "type": "uint256"
        }
      ],
      "name": "approve",
      "outputs": [],
      "stateMutability": "payable",
      "type": "function"
    },
    {
      "inputs": [
        {
          "internalType": "uint256",
          "name": "",
          "type": "uint256"
        },
        {
          "internalType": "address",
          "name": "",
          "type": "address"
        },
        {
          "internalType": "uint256",
          "name": "",
          "type": "uint256"
        }
      ],
      "name": "approve",
      "outputs": [],
      "stateMutability": "payable",
      "type": "function"
    },
    {
      "inputs": [
        {
          "internalType": "address",
          "name": "owner_",
          "type": "address"
        }
      ],
      "name": "balanceOf",
      "outputs": [
        {
          "internalType": "uint256",
          "name": "balance",
          "type": "uint256"
        }
      ],
      "stateMutability": "view",
      "type": "function"
    },
    {
      "inputs": [
        {
          "internalType": "uint256",
          "name": "tokenId_",
          "type": "uint256"
        }
      ],
      "name": "balanceOf",
      "outputs": [
        {
          "internalType": "uint256",
          "name": "",
          "type": "uint256"
        }
      ],
      "stateMutability": "view",
      "type": "function"
    },
    {
      "inputs": [
        {
          "internalType": "uint256",
          "name": "tokenId",
          "type": "uint256"
        }
      ],
      "name": "burn",
      "outputs": [],
      "stateMutability": "nonpayable",
      "type": "function"
    },
    {
      "inputs": [],
      "name": "contractURI",
      "outputs": [
        {
          "internalType": "string",
          "name": "",
          "type": "string"
        }
      ],
      "stateMutability": "view",
      "type": "function"
    },
    {
      "inputs": [
        {
          "internalType": "uint256",
          "name": "network",
          "type": "uint256"
        },
        {
          "internalType": "string",
          "name": "name",
          "type": "string"
        },
        {
          "internalType": "bool",
          "name": "daoGoverned",
          "type": "bool"
        },
        {
          "internalType": "address",
          "name": "daoManager",
          "type": "address"
        }
      ],
      "name": "createNetwork",
      "outputs": [],
      "stateMutability": "nonpayable",
      "type": "function"
    },
    {
      "inputs": [],
      "name": "flagsStorage",
      "outputs": [
        {
          "internalType": "contract IFlagsStorage",
          "name": "",
          "type": "address"
        }
      ],
      "stateMutability": "view",
      "type": "function"
    },
    {
      "inputs": [
        {
          "internalType": "uint256",
          "name": "tokenId",
          "type": "uint256"
        }
      ],
      "name": "freeze",
      "outputs": [],
      "stateMutability": "nonpayable",
      "type": "function"
    },
    {
      "inputs": [
        {
          "internalType": "uint256",
          "name": "tokenId_",
          "type": "uint256"
        }
      ],
      "name": "getApproved",
      "outputs": [
        {
          "internalType": "address",
          "name": "",
          "type": "address"
        }
      ],
      "stateMutability": "view",
      "type": "function"
    },
    {
      "inputs": [
        {
          "internalType": "uint256",
          "name": "tokenId",
          "type": "uint256"
        }
      ],
      "name": "getExpiration",
      "outputs": [
        {
          "internalType": "uint256",
          "name": "",
          "type": "uint256"
        }
      ],
      "stateMutability": "view",
      "type": "function"
    },
    {
      "inputs": [
        {
          "internalType": "uint256",
          "name": "tokenId",
          "type": "uint256"
        }
      ],
      "name": "getIssuingGatekeeper",
      "outputs": [
        {
          "internalType": "address",
          "name": "",
          "type": "address"
        }
      ],
      "stateMutability": "view",
      "type": "function"
    },
    {
      "inputs": [
        {
          "internalType": "uint256",
          "name": "network",
          "type": "uint256"
        }
      ],
      "name": "getNetwork",
      "outputs": [
        {
          "internalType": "string",
          "name": "",
          "type": "string"
        }
      ],
      "stateMutability": "view",
      "type": "function"
    },
    {
      "inputs": [
        {
          "internalType": "bytes32",
          "name": "role",
          "type": "bytes32"
        },
        {
          "internalType": "uint256",
          "name": "domain",
          "type": "uint256"
        }
      ],
      "name": "getRoleAdmin",
      "outputs": [
        {
          "internalType": "bytes32",
          "name": "",
          "type": "bytes32"
        }
      ],
      "stateMutability": "view",
      "type": "function"
    },
    {
      "inputs": [
        {
          "internalType": "uint256",
          "name": "tokenId",
          "type": "uint256"
        }
      ],
      "name": "getToken",
      "outputs": [
        {
          "internalType": "address",
          "name": "owner",
          "type": "address"
        },
        {
          "internalType": "uint8",
          "name": "state",
          "type": "uint8"
        },
        {
          "internalType": "string",
          "name": "identity",
          "type": "string"
        },
        {
          "internalType": "uint256",
          "name": "expiration",
          "type": "uint256"
        },
        {
          "internalType": "uint256",
          "name": "bitmask",
          "type": "uint256"
        }
      ],
      "stateMutability": "view",
      "type": "function"
    },
    {
      "inputs": [
        {
          "internalType": "uint256",
          "name": "tokenId",
          "type": "uint256"
        }
      ],
      "name": "getTokenBitmask",
      "outputs": [
        {
          "internalType": "uint256",
          "name": "",
          "type": "uint256"
        }
      ],
      "stateMutability": "view",
      "type": "function"
    },
    {
      "inputs": [
        {
          "internalType": "address",
          "name": "owner",
          "type": "address"
        },
        {
          "internalType": "uint256",
          "name": "network",
          "type": "uint256"
        },
        {
          "internalType": "bool",
          "name": "onlyActive",
          "type": "bool"
        }
      ],
      "name": "getTokenIdsByOwnerAndNetwork",
      "outputs": [
        {
          "internalType": "uint256[]",
          "name": "",
          "type": "uint256[]"
        }
      ],
      "stateMutability": "view",
      "type": "function"
    },
    {
      "inputs": [
        {
          "internalType": "bytes32",
          "name": "role",
          "type": "bytes32"
        },
        {
          "internalType": "uint256",
          "name": "domain",
          "type": "uint256"
        },
        {
          "internalType": "address",
          "name": "account",
          "type": "address"
        }
      ],
      "name": "grantRole",
      "outputs": [],
      "stateMutability": "nonpayable",
      "type": "function"
    },
    {
      "inputs": [
        {
          "internalType": "bytes32",
          "name": "role",
          "type": "bytes32"
        },
        {
          "internalType": "uint256",
          "name": "domain",
          "type": "uint256"
        },
        {
          "internalType": "address",
          "name": "account",
          "type": "address"
        }
      ],
      "name": "hasRole",
      "outputs": [
        {
          "internalType": "bool",
          "name": "",
          "type": "bool"
        }
      ],
      "stateMutability": "view",
      "type": "function"
    },
    {
      "inputs": [
        {
          "internalType": "string",
          "name": "_name",
          "type": "string"
        },
        {
          "internalType": "string",
          "name": "_symbol",
          "type": "string"
        },
        {
          "internalType": "address",
          "name": "_superAdmin",
          "type": "address"
        },
        {
          "internalType": "address",
          "name": "_flagsStorage",
          "type": "address"
        },
        {
          "internalType": "address[]",
          "name": "_trustedForwarders",
          "type": "address[]"
        }
      ],
      "name": "initialize",
      "outputs": [],
      "stateMutability": "nonpayable",
      "type": "function"
    },
    {
      "inputs": [
        {
          "internalType": "address",
          "name": "owner_",
          "type": "address"
        },
        {
          "internalType": "address",
          "name": "operator_",
          "type": "address"
        }
      ],
      "name": "isApprovedForAll",
      "outputs": [
        {
          "internalType": "bool",
          "name": "",
          "type": "bool"
        }
      ],
      "stateMutability": "view",
      "type": "function"
    },
    {
      "inputs": [
        {
          "internalType": "address",
          "name": "gatekeeper",
          "type": "address"
        },
        {
          "internalType": "uint256",
          "name": "network",
          "type": "uint256"
        }
      ],
      "name": "isGatekeeper",
      "outputs": [
        {
          "internalType": "bool",
          "name": "",
          "type": "bool"
        }
      ],
      "stateMutability": "view",
      "type": "function"
    },
    {
      "inputs": [
        {
          "internalType": "address",
          "name": "authority",
          "type": "address"
        },
        {
          "internalType": "uint256",
          "name": "network",
          "type": "uint256"
        }
      ],
      "name": "isNetworkAuthority",
      "outputs": [
        {
          "internalType": "bool",
          "name": "",
          "type": "bool"
        }
      ],
      "stateMutability": "view",
      "type": "function"
    },
    {
      "inputs": [
        {
          "internalType": "uint256",
          "name": "",
          "type": "uint256"
        }
      ],
      "name": "isNetworkDAOGoverned",
      "outputs": [
        {
          "internalType": "bool",
          "name": "",
          "type": "bool"
        }
      ],
      "stateMutability": "view",
      "type": "function"
    },
    {
      "inputs": [
        {
          "internalType": "address",
          "name": "account",
          "type": "address"
        }
      ],
      "name": "isSuperAdmin",
      "outputs": [
        {
          "internalType": "bool",
          "name": "",
          "type": "bool"
        }
      ],
      "stateMutability": "view",
      "type": "function"
    },
    {
      "inputs": [
        {
          "internalType": "address",
          "name": "forwarder",
          "type": "address"
        }
      ],
      "name": "isTrustedForwarder",
      "outputs": [
        {
          "internalType": "bool",
          "name": "",
          "type": "bool"
        }
      ],
      "stateMutability": "view",
      "type": "function"
    },
    {
      "inputs": [],
      "name": "metadataDescriptor",
      "outputs": [
        {
          "internalType": "contract IERC3525MetadataDescriptorUpgradeable",
          "name": "",
          "type": "address"
        }
      ],
      "stateMutability": "view",
      "type": "function"
    },
    {
      "inputs": [
        {
          "internalType": "address",
          "name": "to",
          "type": "address"
        },
        {
          "internalType": "uint256",
          "name": "network",
          "type": "uint256"
        },
        {
          "internalType": "uint256",
          "name": "expiration",
          "type": "uint256"
        },
        {
          "internalType": "uint256",
          "name": "mask",
          "type": "uint256"
        },
        {
          "components": [
            {
              "internalType": "uint256",
              "name": "value",
              "type": "uint256"
            },
            {
              "internalType": "enum ChargeType",
              "name": "chargeType",
              "type": "uint8"
            },
            {
              "internalType": "address",
              "name": "token",
              "type": "address"
            },
            {
              "internalType": "address",
              "name": "tokenSender",
              "type": "address"
            },
            {
              "internalType": "address",
              "name": "recipient",
              "type": "address"
            }
          ],
          "internalType": "struct Charge",
          "name": "charge",
          "type": "tuple"
        }
      ],
      "name": "mint",
      "outputs": [],
      "stateMutability": "payable",
      "type": "function"
    },
    {
      "inputs": [],
      "name": "name",
      "outputs": [
        {
          "internalType": "string",
          "name": "",
          "type": "string"
        }
      ],
      "stateMutability": "view",
      "type": "function"
    },
    {
      "inputs": [
        {
          "internalType": "uint256",
          "name": "network",
          "type": "uint256"
        },
        {
          "internalType": "enum GatewayToken.NetworkFeature",
          "name": "feature",
          "type": "uint8"
        }
      ],
      "name": "networkHasFeature",
      "outputs": [
        {
          "internalType": "bool",
          "name": "",
          "type": "bool"
        }
      ],
      "stateMutability": "view",
      "type": "function"
    },
    {
      "inputs": [
        {
          "internalType": "uint256",
          "name": "tokenId_",
          "type": "uint256"
        }
      ],
      "name": "ownerOf",
      "outputs": [
        {
          "internalType": "address",
          "name": "owner_",
          "type": "address"
        }
      ],
      "stateMutability": "view",
      "type": "function"
    },
    {
      "inputs": [],
      "name": "proxiableUUID",
      "outputs": [
        {
          "internalType": "bytes32",
          "name": "",
          "type": "bytes32"
        }
      ],
      "stateMutability": "view",
      "type": "function"
    },
    {
      "inputs": [
        {
          "internalType": "address",
          "name": "forwarder",
          "type": "address"
        }
      ],
      "name": "removeForwarder",
      "outputs": [],
      "stateMutability": "nonpayable",
      "type": "function"
    },
    {
      "inputs": [
        {
          "internalType": "address",
          "name": "gatekeeper",
          "type": "address"
        },
        {
          "internalType": "uint256",
          "name": "network",
          "type": "uint256"
        }
      ],
      "name": "removeGatekeeper",
      "outputs": [],
      "stateMutability": "nonpayable",
      "type": "function"
    },
    {
      "inputs": [
        {
          "internalType": "address",
          "name": "authority",
          "type": "address"
        },
        {
          "internalType": "uint256",
          "name": "network",
          "type": "uint256"
        }
      ],
      "name": "removeNetworkAuthority",
      "outputs": [],
      "stateMutability": "nonpayable",
      "type": "function"
    },
    {
      "inputs": [
        {
          "internalType": "uint256",
          "name": "network",
          "type": "uint256"
        },
        {
          "internalType": "string",
          "name": "name",
          "type": "string"
        }
      ],
      "name": "renameNetwork",
      "outputs": [],
      "stateMutability": "nonpayable",
      "type": "function"
    },
    {
      "inputs": [
        {
          "internalType": "bytes32",
          "name": "role",
          "type": "bytes32"
        },
        {
          "internalType": "uint256",
          "name": "domain",
          "type": "uint256"
        },
        {
          "internalType": "address",
          "name": "account",
          "type": "address"
        }
      ],
      "name": "renounceRole",
      "outputs": [],
      "stateMutability": "nonpayable",
      "type": "function"
    },
    {
      "inputs": [
        {
          "internalType": "uint256",
          "name": "tokenId",
          "type": "uint256"
        }
      ],
      "name": "revoke",
      "outputs": [],
      "stateMutability": "nonpayable",
      "type": "function"
    },
    {
      "inputs": [
        {
          "internalType": "bytes32",
          "name": "role",
          "type": "bytes32"
        },
        {
          "internalType": "uint256",
          "name": "domain",
          "type": "uint256"
        },
        {
          "internalType": "address",
          "name": "account",
          "type": "address"
        }
      ],
      "name": "revokeRole",
      "outputs": [],
      "stateMutability": "nonpayable",
      "type": "function"
    },
    {
      "inputs": [
        {
          "internalType": "address",
          "name": "account",
          "type": "address"
        }
      ],
      "name": "revokeSuperAdmin",
      "outputs": [],
      "stateMutability": "nonpayable",
      "type": "function"
    },
    {
      "inputs": [
        {
          "internalType": "address",
          "name": "from_",
          "type": "address"
        },
        {
          "internalType": "address",
          "name": "to_",
          "type": "address"
        },
        {
          "internalType": "uint256",
          "name": "tokenId_",
          "type": "uint256"
        }
      ],
      "name": "safeTransferFrom",
      "outputs": [],
      "stateMutability": "payable",
      "type": "function"
    },
    {
      "inputs": [
        {
          "internalType": "address",
          "name": "from_",
          "type": "address"
        },
        {
          "internalType": "address",
          "name": "to_",
          "type": "address"
        },
        {
          "internalType": "uint256",
          "name": "tokenId_",
          "type": "uint256"
        },
        {
          "internalType": "bytes",
          "name": "data_",
          "type": "bytes"
        }
      ],
      "name": "safeTransferFrom",
      "outputs": [],
      "stateMutability": "payable",
      "type": "function"
    },
    {
      "inputs": [
        {
          "internalType": "address",
          "name": "operator_",
          "type": "address"
        },
        {
          "internalType": "bool",
          "name": "approved_",
          "type": "bool"
        }
      ],
      "name": "setApprovalForAll",
      "outputs": [],
      "stateMutability": "nonpayable",
      "type": "function"
    },
    {
      "inputs": [
        {
          "internalType": "uint256",
          "name": "tokenId",
          "type": "uint256"
        },
        {
          "internalType": "uint256",
          "name": "mask",
          "type": "uint256"
        }
      ],
      "name": "setBitmask",
      "outputs": [],
      "stateMutability": "nonpayable",
      "type": "function"
    },
    {
      "inputs": [
        {
          "internalType": "uint256",
          "name": "tokenId",
          "type": "uint256"
        },
        {
          "internalType": "uint256",
          "name": "timestamp",
          "type": "uint256"
        },
        {
          "components": [
            {
              "internalType": "uint256",
              "name": "value",
              "type": "uint256"
            },
            {
              "internalType": "enum ChargeType",
              "name": "chargeType",
              "type": "uint8"
            },
            {
              "internalType": "address",
              "name": "token",
              "type": "address"
            },
            {
              "internalType": "address",
              "name": "tokenSender",
              "type": "address"
            },
            {
              "internalType": "address",
              "name": "recipient",
              "type": "address"
            }
          ],
          "internalType": "struct Charge",
          "name": "charge",
          "type": "tuple"
        }
      ],
      "name": "setExpiration",
      "outputs": [],
      "stateMutability": "payable",
      "type": "function"
    },
    {
      "inputs": [
        {
          "internalType": "address",
          "name": "_metadataDescriptor",
          "type": "address"
        }
      ],
      "name": "setMetadataDescriptor",
      "outputs": [],
      "stateMutability": "nonpayable",
      "type": "function"
    },
    {
      "inputs": [
        {
          "internalType": "uint256",
          "name": "network",
          "type": "uint256"
        },
        {
          "internalType": "uint256",
          "name": "mask",
          "type": "uint256"
        }
      ],
      "name": "setNetworkFeatures",
      "outputs": [],
      "stateMutability": "nonpayable",
      "type": "function"
    },
    {
      "inputs": [
        {
          "internalType": "address",
          "name": "account",
          "type": "address"
        }
      ],
      "name": "setSuperAdmin",
      "outputs": [],
      "stateMutability": "nonpayable",
      "type": "function"
    },
    {
      "inputs": [
        {
          "internalType": "uint256",
          "name": "tokenId_",
          "type": "uint256"
        }
      ],
      "name": "slotOf",
      "outputs": [
        {
          "internalType": "uint256",
          "name": "",
          "type": "uint256"
        }
      ],
      "stateMutability": "view",
      "type": "function"
    },
    {
      "inputs": [
        {
          "internalType": "uint256",
          "name": "slot_",
          "type": "uint256"
        }
      ],
      "name": "slotURI",
      "outputs": [
        {
          "internalType": "string",
          "name": "",
          "type": "string"
        }
      ],
      "stateMutability": "view",
      "type": "function"
    },
    {
      "inputs": [
        {
          "internalType": "bytes4",
          "name": "interfaceId",
          "type": "bytes4"
        }
      ],
      "name": "supportsInterface",
      "outputs": [
        {
          "internalType": "bool",
          "name": "",
          "type": "bool"
        }
      ],
      "stateMutability": "view",
      "type": "function"
    },
    {
      "inputs": [],
      "name": "symbol",
      "outputs": [
        {
          "internalType": "string",
          "name": "",
          "type": "string"
        }
      ],
      "stateMutability": "view",
      "type": "function"
    },
    {
      "inputs": [
        {
          "internalType": "uint256",
          "name": "index_",
          "type": "uint256"
        }
      ],
      "name": "tokenByIndex",
      "outputs": [
        {
          "internalType": "uint256",
          "name": "",
          "type": "uint256"
        }
      ],
      "stateMutability": "view",
      "type": "function"
    },
    {
      "inputs": [
        {
          "internalType": "address",
          "name": "owner_",
          "type": "address"
        },
        {
          "internalType": "uint256",
          "name": "index_",
          "type": "uint256"
        }
      ],
      "name": "tokenOfOwnerByIndex",
      "outputs": [
        {
          "internalType": "uint256",
          "name": "",
          "type": "uint256"
        }
      ],
      "stateMutability": "view",
      "type": "function"
    },
    {
      "inputs": [
        {
          "internalType": "uint256",
          "name": "tokenId_",
          "type": "uint256"
        }
      ],
      "name": "tokenURI",
      "outputs": [
        {
          "internalType": "string",
          "name": "",
          "type": "string"
        }
      ],
      "stateMutability": "view",
      "type": "function"
    },
    {
      "inputs": [],
      "name": "totalSupply",
      "outputs": [
        {
          "internalType": "uint256",
          "name": "",
          "type": "uint256"
        }
      ],
      "stateMutability": "view",
      "type": "function"
    },
    {
      "inputs": [
        {
          "internalType": "address",
          "name": "previousManager",
          "type": "address"
        },
        {
          "internalType": "address",
          "name": "newManager",
          "type": "address"
        },
        {
          "internalType": "uint256",
          "name": "network",
          "type": "uint256"
        }
      ],
      "name": "transferDAOManager",
      "outputs": [],
      "stateMutability": "nonpayable",
      "type": "function"
    },
    {
      "inputs": [
        {
          "internalType": "uint256",
          "name": "fromTokenId_",
          "type": "uint256"
        },
        {
          "internalType": "address",
          "name": "to_",
          "type": "address"
        },
        {
          "internalType": "uint256",
          "name": "value_",
          "type": "uint256"
        }
      ],
      "name": "transferFrom",
      "outputs": [
        {
          "internalType": "uint256",
          "name": "newTokenId",
          "type": "uint256"
        }
      ],
      "stateMutability": "payable",
      "type": "function"
    },
    {
      "inputs": [
        {
          "internalType": "address",
          "name": "from_",
          "type": "address"
        },
        {
          "internalType": "address",
          "name": "to_",
          "type": "address"
        },
        {
          "internalType": "uint256",
          "name": "tokenId_",
          "type": "uint256"
        }
      ],
      "name": "transferFrom",
      "outputs": [],
      "stateMutability": "payable",
      "type": "function"
    },
    {
      "inputs": [
        {
          "internalType": "uint256",
          "name": "fromTokenId_",
          "type": "uint256"
        },
        {
          "internalType": "uint256",
          "name": "toTokenId_",
          "type": "uint256"
        },
        {
          "internalType": "uint256",
          "name": "value_",
          "type": "uint256"
        }
      ],
      "name": "transferFrom",
      "outputs": [],
      "stateMutability": "payable",
      "type": "function"
    },
    {
      "inputs": [],
      "name": "transfersRestricted",
      "outputs": [
        {
          "internalType": "bool",
          "name": "",
          "type": "bool"
        }
      ],
      "stateMutability": "pure",
      "type": "function"
    },
    {
      "inputs": [
        {
          "internalType": "uint256",
          "name": "tokenId",
          "type": "uint256"
        }
      ],
      "name": "unfreeze",
      "outputs": [],
      "stateMutability": "nonpayable",
      "type": "function"
    },
    {
      "inputs": [
        {
          "internalType": "address",
          "name": "flagsStorage",
          "type": "address"
        }
      ],
      "name": "updateFlagsStorage",
      "outputs": [],
      "stateMutability": "nonpayable",
      "type": "function"
    },
    {
      "inputs": [
        {
          "internalType": "address",
          "name": "newImplementation",
          "type": "address"
        }
      ],
      "name": "upgradeTo",
      "outputs": [],
      "stateMutability": "nonpayable",
      "type": "function"
    },
    {
      "inputs": [
        {
          "internalType": "address",
          "name": "newImplementation",
          "type": "address"
        },
        {
          "internalType": "bytes",
          "name": "data",
          "type": "bytes"
        }
      ],
      "name": "upgradeToAndCall",
      "outputs": [],
      "stateMutability": "payable",
      "type": "function"
    },
    {
      "inputs": [],
      "name": "valueDecimals",
      "outputs": [
        {
          "internalType": "uint8",
          "name": "",
          "type": "uint8"
        }
      ],
      "stateMutability": "view",
      "type": "function"
    },
    {
      "inputs": [
        {
          "internalType": "address",
          "name": "owner",
          "type": "address"
        },
        {
          "internalType": "uint256",
          "name": "network",
          "type": "uint256"
        }
      ],
      "name": "verifyToken",
      "outputs": [
        {
          "internalType": "bool",
          "name": "",
          "type": "bool"
        }
      ],
      "stateMutability": "view",
      "type": "function"
    },
    {
      "inputs": [
        {
          "internalType": "uint256",
          "name": "tokenId",
          "type": "uint256"
        }
      ],
      "name": "verifyToken",
      "outputs": [
        {
          "internalType": "bool",
          "name": "",
          "type": "bool"
        }
      ],
      "stateMutability": "view",
      "type": "function"
    }
  ],
  "bytecode": "0x60a0604052306080523480156200001557600080fd5b506200002062000026565b620000e8565b600054610100900460ff1615620000935760405162461bcd60e51b815260206004820152602760248201527f496e697469616c697a61626c653a20636f6e747261637420697320696e697469604482015266616c697a696e6760c81b606482015260840160405180910390fd5b60005460ff9081161015620000e6576000805460ff191660ff9081179091556040519081527f7f26b83ff96e1f2b6a682f133852f6798a09c465da95921460cefb38474024989060200160405180910390a15b565b608051615d996200012060003960008181611526015281816115660152818161169f015281816116df01526118120152615d996000f3fe6080604052600436106104075760003560e01c806381e9ff1911610214578063b88d4fde1161011e578063df2a7fe1116100b6578063e8a3d4851161007a578063e8a3d48514610cd2578063e985e9c514610ce7578063f415999014610d34578063ff17e23214610d61578063ff85a97514610d8157600080fd5b8063df2a7fe114610c08578063df7f453b14610c28578063e345e0bc14610c61578063e4b50cb814610c81578063e71fb11014610cb257600080fd5b8063b88d4fde14610b00578063babb898d14610b13578063bfea1f9714610b33578063c2a366fb14610b53578063c58dbbed14610b73578063c87b56dd14610b93578063ce6da01a14610bb3578063d6fd317514610bc6578063d7a78db814610be857600080fd5b806395ea5717116101ac578063a22cb46511610170578063a22cb46514610a50578063a578c09314610a70578063a8fa8e0d14610aa0578063b4bd857914610ac0578063b5d6163514610ae057600080fd5b806395ea5717146109bb5780639c7525e6146109db5780639cc7f708146109fb578063a05b775f14610a1b578063a217fddf14610a3b57600080fd5b806381e9ff19146108c257806382d66d5f146108e457806383b2b27614610904578063840f7113146109245780638423df79146109445780638cb0a511146109585780638eb7a7761461096657806390eddd521461098657806395d89b41146109a657600080fd5b80633659cfe61161031557806352d1902d116102ad5780636dba2729116102715780636dba2729146108205780636f7caf411461084057806370a082311461086257806370f08160146108825780637dbded28146108a257600080fd5b806352d1902d14610772578063572b6c05146107875780635c41d2fe146107c05780636352211e146107e05780636623fc461461080057600080fd5b80633659cfe61461066a57806336e450411461068a5780633e7e8669146106aa57806342842e0e146106cc57806342966c68146106df5780634d93172d146106ff5780634f1ef2861461071f5780634f6ccce71461073257806351da912d1461075257600080fd5b806323287f24116103a3578063310ed7f011610367578063310ed7f0146105c157806331416a29146105d457806334d7a95e146105f457806334e37b8a1461062a5780633568dd291461064a57600080fd5b806323287f241461053b57806323b872dd1461054e578063263f3e7e146105615780632d33d27a146105815780632f745c59146105a157600080fd5b806301ffc9a71461040c57806306fdde0314610441578063081812fc14610463578063095ea7b31461049057806309c3dd87146104a55780630f485c02146104c557806315700052146104e657806318160ddd1461050657806320c5429b1461051b575b600080fd5b34801561041857600080fd5b5061042c610427366004614efa565b610da1565b60405190151581526020015b60405180910390f35b34801561044d57600080fd5b50610456610e02565b6040516104389190614f6f565b34801561046f57600080fd5b5061048361047e366004614f82565b610e94565b6040516104389190614f9b565b6104a361049e366004614fc6565b610ee6565b005b3480156104b157600080fd5b506104566104c0366004614f82565b610eff565b6104d86104d3366004614ff0565b611000565b604051908152602001610438565b3480156104f257600080fd5b506104a3610501366004615025565b61103f565b34801561051257600080fd5b50609d546104d8565b34801561052757600080fd5b506104a3610536366004614f82565b61109f565b6104a3610549366004615058565b6110f3565b6104a361055c3660046150aa565b611179565b34801561056d57600080fd5b506104d861057c366004614f82565b6111bf565b34801561058d57600080fd5b5060cc54610483906001600160a01b031681565b3480156105ad57600080fd5b506104d86105bc366004614fc6565b611207565b6104a36105cf3660046150d6565b6112a8565b3480156105e057600080fd5b506104a36105ef36600461514a565b6112c5565b34801561060057600080fd5b5061048361060f366004614f82565b600090815260d260205260409020546001600160a01b031690565b34801561063657600080fd5b506104a3610645366004615025565b6114ea565b34801561065657600080fd5b506104a3610665366004614fc6565b6114fe565b34801561067657600080fd5b506104a3610685366004615025565b61151b565b34801561069657600080fd5b506104a36106a5366004615237565b6115e1565b3480156106b657600080fd5b50609a5460405160ff9091168152602001610438565b6104a36106da3660046150aa565b611637565b3480156106eb57600080fd5b506104a36106fa366004614f82565b611652565b34801561070b57600080fd5b506104a361071a366004615025565b611667565b6104a361072d36600461532f565b611694565b34801561073e57600080fd5b506104d861074d366004614f82565b61174a565b34801561075e57600080fd5b506104a361076d36600461537c565b6117db565b34801561077e57600080fd5b506104d8611805565b34801561079357600080fd5b5061042c6107a2366004615025565b6001600160a01b031660009081526097602052604090205460ff1690565b3480156107cc57600080fd5b506104a36107db366004615025565b6118b3565b3480156107ec57600080fd5b506104836107fb366004614f82565b6118e3565b34801561080c57600080fd5b506104a361081b366004614f82565b611953565b34801561082c57600080fd5b5061042c61083b366004614fc6565b611968565b34801561084c57600080fd5b506104d8600080516020615cdd83398151915281565b34801561086e57600080fd5b506104d861087d366004615025565b611983565b34801561088e57600080fd5b506104a361089d366004614fc6565b611a0b565b3480156108ae57600080fd5b506104a36108bd3660046153ac565b611a24565b3480156108ce57600080fd5b506104d8600080516020615c5d83398151915281565b3480156108f057600080fd5b506104a36108ff366004614fc6565b611c13565b34801561091057600080fd5b506104a361091f36600461537c565b611c2c565b34801561093057600080fd5b5060a054610483906001600160a01b031681565b34801561095057600080fd5b50600161042c565b6104a361049e366004614ff0565b34801561097257600080fd5b506104a3610981366004615237565b611c56565b34801561099257600080fd5b506104a36109a1366004614fc6565b611c76565b3480156109b257600080fd5b50610456611c8f565b3480156109c757600080fd5b506104566109d6366004614f82565b611c9e565b3480156109e757600080fd5b506104a36109f636600461540f565b611d40565b348015610a0757600080fd5b506104d8610a16366004614f82565b611def565b348015610a2757600080fd5b506104d8610a36366004614f82565b611e37565b348015610a4757600080fd5b506104d8600081565b348015610a5c57600080fd5b506104a3610a6b36600461545a565b611e55565b348015610a7c57600080fd5b5061042c610a8b366004614f82565b60ce6020526000908152604090205460ff1681565b348015610aac57600080fd5b506104a3610abb3660046150aa565b611e67565b348015610acc57600080fd5b506104d8610adb366004614f82565b611faf565b348015610aec57600080fd5b506104a3610afb366004615237565b611fc3565b6104a3610b0e366004615491565b611fe3565b348015610b1f57600080fd5b5061042c610b2e366004615237565b612016565b348015610b3f57600080fd5b5061042c610b4e3660046154f8565b612047565b348015610b5f57600080fd5b5061042c610b6e366004614fc6565b61207a565b348015610b7f57600080fd5b506104a3610b8e366004615025565b612095565b348015610b9f57600080fd5b50610456610bae366004614f82565b6120f2565b6104a3610bc1366004615521565b612191565b348015610bd257600080fd5b506104d8600080516020615c7d83398151915281565b348015610bf457600080fd5b506104a3610c03366004614f82565b6121b0565b348015610c1457600080fd5b506104d8610c2336600461537c565b6121c5565b348015610c3457600080fd5b5061042c610c43366004615025565b6001600160a01b0316600090815260cb602052604090205460ff1690565b348015610c6d57600080fd5b506104d8610c7c36600461554e565b6121e4565b348015610c8d57600080fd5b50610ca1610c9c366004614f82565b612218565b60405161043895949392919061557a565b348015610cbe57600080fd5b506104a3610ccd366004615025565b612278565b348015610cde57600080fd5b50610456612289565b348015610cf357600080fd5b5061042c610d023660046155bb565b6001600160a01b039182166000908152609f602090815260408083209390941682526002909201909152205460ff1690565b348015610d4057600080fd5b50610d54610d4f3660046155e5565b612392565b6040516104389190615625565b348015610d6d57600080fd5b5061042c610d7c366004614fc6565b61244b565b348015610d8d57600080fd5b5061042c610d9c366004614f82565b612465565b60006001600160e01b03198216630354d60560e61b1480610dd257506001600160e01b031982166380ac58cd60e01b145b80610ded57506001600160e01b031982166370b0048160e11b145b80610dfc5750610dfc82612472565b92915050565b606060988054610e1190615669565b80601f0160208091040260200160405190810160405280929190818152602001828054610e3d90615669565b8015610e8a5780601f10610e5f57610100808354040283529160200191610e8a565b820191906000526020600020905b815481529060010190602001808311610e6d57829003601f168201915b5050505050905090565b6000610e9f826124a7565b6000828152609e6020526040902054609d80549091908110610ec357610ec361569e565b60009182526020909120600460069092020101546001600160a01b031692915050565b60405163c03a3ff560e01b815260040160405180910390fd5b60606000610f1860408051602081019091526000815290565b60a0549091506001600160a01b0316610f78576000815111610f495760405180602001604052806000815250610ff9565b80610f53846124cc565b604051602001610f649291906156b4565b604051602081830303815290604052610ff9565b60a054604051633601bfc560e11b8152600481018590526001600160a01b0390911690636c037f8a906024015b60006040518083038186803b158015610fbd57600080fd5b505afa158015610fd1573d6000803e3d6000fd5b505050506040513d6000823e601f3d908101601f19168201604052610ff991908101906156f4565b9392505050565b600061101461100d612568565b8584612577565b61101d846125f2565b9050611034838261102d876111bf565b60006125fc565b610ff9848284612723565b611047612a02565b6040516001600160a01b038216907f286f82d2b1e37b5e9f33e455d014b4a5f6c29388e6e41e1281d4c83e04f4265590600090a26001600160a01b0316600090815260cb60205260409020805460ff19166001179055565b6110b06110ab826111bf565b612a14565b600081815260cf6020526040808220805460ff191660021790555182917fdb43aa42235c8d63908794a952603e8d43a549383d13123c3d893a3fc2e6249591a250565b6110fc84612a14565b600061110a86866001612a2c565b9050831561112457600081815260d0602052604090208490555b8215611134576111348184612a44565b61113c612568565b600082815260d26020526040902080546001600160a01b0319166001600160a01b039290921691909117905561117182612a93565b505050505050565b61118a611184612568565b50600090565b6111af5760405162461bcd60e51b81526004016111a690615777565b60405180910390fd5b6111ba838383612db3565b505050565b60006111ca826124a7565b6000828152609e6020526040902054609d805490919081106111ee576111ee61569e565b9060005260206000209060060201600101549050919050565b600061121283611983565b821061126b5760405162461bcd60e51b815260206004820152602260248201527f455243333532353a206f776e657220696e646578206f7574206f6620626f756e604482015261647360f01b60648201526084016111a6565b6001600160a01b0383166000908152609f602052604090208054839081106112955761129561569e565b9060005260206000200154905092915050565b6112ba6112b3612568565b8483612577565b6111ba838383612723565b600054610100900460ff16158080156112e55750600054600160ff909116105b8061130657506112f430612f02565b158015611306575060005460ff166001145b6113225760405162461bcd60e51b81526004016111a6906157c9565b6000805460ff191660011790558015611345576000805461ff0019166101001790555b6001600160a01b03851661136c57604051630ca2c90160e21b815260040160405180910390fd5b6001600160a01b03841661139357604051630ca2c90160e21b815260040160405180910390fd5b60005b828110156114015760008484838181106113b2576113b261569e565b90506020020160208101906113c79190615025565b6001600160a01b031614156113ef57604051630ca2c90160e21b815260040160405180910390fd5b806113f98161582d565b915050611396565b5061147589898080601f01602080910402602001604051908101604052809392919081815260200183838082843760009201919091525050604080516020601f8d018190048102820181019092528b815292508b91508a908190840183828082843760009201829052509250612f11915050565b61147f8383612f43565b61148884613005565b6001600160a01b038516600090815260cb60205260409020805460ff1916600117905580156114df576000805461ff001916905560405160018152600080516020615cfd8339815191529060200160405180910390a15b505050505050505050565b6114f2612a02565b6114fb81613005565b50565b611517600080516020615c7d8339815191528284611c56565b5050565b306001600160a01b037f00000000000000000000000000000000000000000000000000000000000000001614156115645760405162461bcd60e51b81526004016111a690615848565b7f00000000000000000000000000000000000000000000000000000000000000006001600160a01b031661159661304f565b6001600160a01b0316146115bc5760405162461bcd60e51b81526004016111a690615894565b6115c58161306b565b604080516000808252602082019092526114fb91839190613073565b6115e9612568565b6001600160a01b0316816001600160a01b03161461162c576040516307ca099360e31b8152600481018490526001600160a01b03821660248201526044016111a6565b6111ba8383836131ed565b6111ba83838360405180602001604052806000815250611fe3565b61165e6110ab826111bf565b6114fb81613289565b61166f612a02565b6114fb816001600160a01b03166000908152609760205260409020805460ff19169055565b306001600160a01b037f00000000000000000000000000000000000000000000000000000000000000001614156116dd5760405162461bcd60e51b81526004016111a690615848565b7f00000000000000000000000000000000000000000000000000000000000000006001600160a01b031661170f61304f565b6001600160a01b0316146117355760405162461bcd60e51b81526004016111a690615894565b61173e8261306b565b61151782826001613073565b6000611755609d5490565b82106117af5760405162461bcd60e51b815260206004820152602360248201527f455243333532353a20676c6f62616c20696e646578206f7574206f6620626f756044820152626e647360e81b60648201526084016111a6565b609d82815481106117c2576117c261569e565b9060005260206000209060060201600001549050919050565b6117fb600080516020615c7d8339815191526117f6846111bf565b613386565b6115178282612a44565b6000306001600160a01b037f000000000000000000000000000000000000000000000000000000000000000016146118a05760405162461bcd60e51b815260206004820152603860248201527f555550535570677261646561626c653a206d757374206e6f742062652063616c6044820152771b1959081d1a1c9bdd59da0819195b1959d85d1958d85b1b60421b60648201526084016111a6565b50600080516020615cbd83398151915290565b6118bb612a02565b6114fb816001600160a01b03166000908152609760205260409020805460ff19166001179055565b60006118ee826124a7565b6000828152609e6020526040902054609d805490919081106119125761191261569e565b60009182526020909120600360069092020101546001600160a01b031690508061194e5760405162461bcd60e51b81526004016111a6906158e0565b919050565b61195f6110ab826111bf565b6114fb81613398565b6000610ff9600080516020615c7d8339815191528385612016565b60006001600160a01b0382166119ef5760405162461bcd60e51b815260206004820152602b60248201527f455243333532353a2062616c616e636520717565727920666f7220746865207a60448201526a65726f206164647265737360a81b60648201526084016111a6565b506001600160a01b03166000908152609f602052604090205490565b611517600080516020615c7d8339815191528284611fc3565b600085815260d1602052604090208054611a3d90615669565b159050611a6057604051636f55f62b60e01b8152600481018690526024016111a6565b600085815260d160205260409020611a79908585614d64565b508115611b9e57600085815260ce60205260409020805460ff19168315151790556001600160a01b038116611ac157604051630ca2c90160e21b815260040160405180910390fd5b611ad3816001600160a01b0316612f02565b611af2578060405163d4daafa160e01b81526004016111a69190614f9b565b611b0b600080516020615c5d833981519152868361343f565b611b24600080516020615cdd833981519152868361343f565b611b4b600080516020615cdd83398151915286600080516020615c5d8339815191526134d0565b611b72600080516020615c7d83398151915286600080516020615c5d8339815191526134d0565b611b99600080516020615c5d83398151915286600080516020615c5d8339815191526134d0565b611c0c565b611bbe600080516020615cdd83398151915286611bb9612568565b61343f565b611be5600080516020615cdd83398151915286600080516020615cdd8339815191526134d0565b611c0c600080516020615c7d83398151915286600080516020615cdd8339815191526134d0565b5050505050565b611517600080516020615cdd8339815191528284611c56565b611c44600080516020615cdd83398151915283613386565b600091825260d3602052604090912055565b611c6083836121c5565b82611c6b8282613386565b611c0c8585856131ed565b611517600080516020615cdd8339815191528284611fc3565b606060998054610e1190615669565b600081815260d160205260409020805460609190611cbb90615669565b80601f0160208091040260200160405190810160405280929190818152602001828054611ce790615669565b8015611d345780601f10611d0957610100808354040283529160200191611d34565b820191906000526020600020905b815481529060010190602001808311611d1757829003601f168201915b50505050509050919050565b600083815260d1602052604090208054611d5990615669565b15159050611d7d57604051630817886d60e41b8152600481018490526024016111a6565b611d98600080516020615cdd83398151915284610b2e612568565b611dd057611da4612568565b83600080516020615cdd83398151915260405163c8c801a760e01b81526004016111a693929190615913565b600083815260d160205260409020611de9908383614d64565b50505050565b6000611dfa826124a7565b6000828152609e6020526040902054609d80549091908110611e1e57611e1e61569e565b9060005260206000209060060201600201549050919050565b6000611e428261353b565b50600090815260d0602052604090205490565b611517611e60612568565b8383613564565b600081815260ce602052604090205460ff16611e995760405163db53ce7160e01b8152600481018290526024016111a6565b611eb2600080516020615c5d8339815191528285613638565b6001600160a01b038216611ed957604051630ca2c90160e21b815260040160405180910390fd5b611ef2600080516020615c5d8339815191528284611fc3565b611f0b600080516020615cdd8339815191528284611fc3565b611f24600080516020615c7d8339815191528284611fc3565b611f3d600080516020615c7d8339815191528285611c56565b611f56600080516020615cdd8339815191528285611c56565b611f6f600080516020615c5d8339815191528285611c56565b7f744258a28673e8738e2812c0ab8e8dbd70352f8871b1febac0dd753d96d79f58838383604051611fa293929190615934565b60405180910390a1505050565b600081815260cd6020526040812054610dfc565b611fcd83836121c5565b82611fd88282613386565b611c0c85858561343f565b611fee611184612568565b61200a5760405162461bcd60e51b81526004016111a690615777565b611de984848484613666565b600091825260ca602090815260408084209484529381528383206001600160a01b0392909216835252205460ff1690565b6000610ff982801561205b5761205b615761565b600085815260d3602052604090205490600160ff919091161b16151590565b6000610ff9600080516020615cdd8339815191528385612016565b61209d612a02565b6040516001600160a01b038216907ffb445f6ec07647d2bb7af72821e6b8b7303ec375e934d4a338d38ed5846c2d5690600090a26001600160a01b0316600090815260cb60205260409020805460ff19169055565b60606120fd826124a7565b600061211460408051602081019091526000815290565b60a0549091506001600160a01b03166121605760008151116121455760405180602001604052806000815250610ff9565b8061214f846124cc565b604051602001610f64929190615958565b60a0546040516344a5a61760e11b8152600481018590526001600160a01b039091169063894b4c2e90602401610fa5565b61219d6110ab846111bf565b6121a783836136d9565b6111ba81612a93565b6121bc6110ab826111bf565b6114fb81613735565b600090815260ca60209081526040808320938352929052206001015490565b60006121ef836124a7565b506000918252609c602090815260408084206001600160a01b0393909316845291905290205490565b6000806060600080612229866118e3565b600087815260cf602052604090205490955060ff16600281111561224f5761224f615761565b600096875260d0602090815260408089205460cd90925290972054959790969395939450915050565b612280612a02565b6114fb81613783565b606060006122a260408051602081019091526000815290565b60a0549091506001600160a01b03166123025760008151116122d3576040518060200160405280600081525061238c565b806122dd306137cd565b6040516020016122ee929190615987565b60405160208183030381529060405261238c565b60a060009054906101000a90046001600160a01b03166001600160a01b031663725fa09c6040518163ffffffff1660e01b815260040160006040518083038186803b15801561235057600080fd5b505afa158015612364573d6000803e3d6000fd5b505050506040513d6000823e601f3d908101601f1916820160405261238c91908101906156f4565b91505090565b60606000806123a28686866137e3565b915091506000816001600160401b038111156123c0576123c061526c565b6040519080825280602002602001820160405280156123e9578160200160208202803683370190505b50905060005b82811015612440578381815181106124095761240961569e565b60200260200101518282815181106124235761242361569e565b6020908102919091010152806124388161582d565b9150506123ef565b509695505050505050565b60008061245a848460016137e3565b151595945050505050565b6000610dfc8260006138c9565b60006001600160e01b031982166333cb74f560e11b1480610dfc57506301ffc9a760e01b6001600160e01b0319831614610dfc565b6124b0816139dd565b6114fb5760405162461bcd60e51b81526004016111a6906158e0565b606060006124d983613a29565b60010190506000816001600160401b038111156124f8576124f861526c565b6040519080825280601f01601f191660200182016040528015612522576020820181803683370190505b5090508181016020015b600019016f181899199a1a9b1b9c1cb0b131b232b360811b600a86061a8153600a850494508461255b57612560565b61252c565b509392505050565b6000612572613b01565b905090565b600061258383856121e4565b90506000198114611de957818110156125de5760405162461bcd60e51b815260206004820152601f60248201527f455243333532353a20696e73756666696369656e7420616c6c6f77616e63650060448201526064016111a6565b611de983856125ed85856159cb565b613b2b565b6000610dfc613c5a565b6001600160a01b03841661265c5760405162461bcd60e51b815260206004820152602160248201527f455243333532353a206d696e7420746f20746865207a65726f206164647265736044820152607360f81b60648201526084016111a6565b826126b35760405162461bcd60e51b815260206004820152602160248201527f455243333532353a2063616e6e6f74206d696e74207a65726f20746f6b656e496044820152601960fa1b60648201526084016111a6565b6126bc836139dd565b156127095760405162461bcd60e51b815260206004820152601d60248201527f455243333532353a20746f6b656e20616c7265616479206d696e74656400000060448201526064016111a6565b612714848484613c71565b61271e8382613d25565b611de9565b61272c836139dd565b6127885760405162461bcd60e51b815260206004820152602760248201527f455243333532353a207472616e736665722066726f6d20696e76616c696420746044820152661bdad95b88125160ca1b60648201526084016111a6565b612791826139dd565b6127eb5760405162461bcd60e51b815260206004820152602560248201527f455243333532353a207472616e7366657220746f20696e76616c696420746f6b604482015264195b88125160da1b60648201526084016111a6565b6000838152609e6020526040812054609d8054909190811061280f5761280f61569e565b906000526020600020906006020190506000609d609e600086815260200190815260200160002054815481106128475761284761569e565b9060005260206000209060060201905082826002015410156128be5760405162461bcd60e51b815260206004820152602a60248201527f455243333532353a20696e73756666696369656e742062616c616e636520666f60448201526939103a3930b739b332b960b11b60648201526084016111a6565b806001015482600101541461292c5760405162461bcd60e51b815260206004820152602e60248201527f455243333532353a207472616e7366657220746f20746f6b656e20776974682060448201526d191a5999995c995b9d081cdb1bdd60921b60648201526084016111a6565b8282600201600082825461294091906159cb565b925050819055508281600201600082825461295b91906159e2565b909155505060405183815284908690600080516020615c9d8339815191529060200160405180910390a36129a085858560405180602001604052806000815250613d98565b611c0c5760405162461bcd60e51b815260206004820152602d60248201527f455243333532353a207472616e736665722072656a656374656420627920455260448201526c21999a991aa932b1b2b4bb32b960991b60648201526084016111a6565b612a12612a0d612568565b613ef9565b565b6114fb600080516020615c7d83398151915282613386565b6000612a36613c5a565b9050610ff9848285856125fc565b600082815260cd602090815260409182902083905581518481529081018390527f5e07998cef9cea674942c66f0ea7b0bce89ab9473ce240cc93d616c3491f8aeb910160405180910390a15050565b6001612aa56040830160208401615a09565b6002811115612ab657612ab6615761565b1415612ba8578035341015612ae7576040516365a2b20160e01b8152346004820152813560248201526044016111a6565b7f435e19089f6ae5362a112155f011980907d2ff69b4c2bb894f8324260650ee6a81604051612b169190615a42565b60405180910390a16000612b3060a0830160808401615025565b6001600160a01b0316826000013560405160006040518083038185875af1925050503d8060008114612b7e576040519150601f19603f3d011682016040523d82523d6000602084013e612b83565b606091505b505090508061151757604051636d6cc4a760e01b8152823560048201526024016111a6565b6002612bba6040830160208401615a09565b6002811115612bcb57612bcb615761565b14156114fb576000612be36060830160408401615025565b905060006001600160a01b03821663dd62ed3e612c066080860160608701615025565b6040516001600160e01b031960e084901b1681526001600160a01b03909116600482015230602482015260440160206040518083038186803b158015612c4b57600080fd5b505afa158015612c5f573d6000803e3d6000fd5b505050506040513d601f19601f82011682018060405250810190612c839190615aae565b90508235811015612cb15760405163355cd54b60e01b815260048101829052833560248201526044016111a6565b7f435e19089f6ae5362a112155f011980907d2ff69b4c2bb894f8324260650ee6a83604051612ce09190615a42565b60405180910390a160006001600160a01b0383166323b872dd612d096080870160608801615025565b612d1960a0880160808901615025565b6040516001600160e01b031960e085901b168152612d3e929190893590600401615934565b602060405180830381600087803b158015612d5857600080fd5b505af1158015612d6c573d6000803e3d6000fd5b505050506040513d601f19601f82011682018060405250810190612d909190615ac7565b905080611de957604051636d6cc4a760e01b8152843560048201526024016111a6565b826001600160a01b0316612dc6826118e3565b6001600160a01b031614612e285760405162461bcd60e51b8152602060048201526024808201527f455243333532353a207472616e736665722066726f6d20696e76616c6964206f6044820152633bb732b960e11b60648201526084016111a6565b6001600160a01b038216612e8c5760405162461bcd60e51b815260206004820152602560248201527f455243333532353a207472616e7366657220746f20746865207a65726f206164604482015264647265737360d81b60648201526084016111a6565b6000612e97826111bf565b90506000612ea483611def565b9050612eb1600084613f34565b612eba83613fcb565b612ec48584614076565b612ece8484614197565b82846001600160a01b0316866001600160a01b0316600080516020615d4483398151915260405160405180910390a4611c0c565b6001600160a01b03163b151590565b600054610100900460ff16612f385760405162461bcd60e51b81526004016111a690615ae4565b6111ba838383614220565b600054610100900460ff1615808015612f635750600054600160ff909116105b80612f845750612f7230612f02565b158015612f84575060005460ff166001145b612fa05760405162461bcd60e51b81526004016111a6906157c9565b6000805460ff191660011790558015612fc3576000805461ff0019166101001790555b612fcb614287565b612fd583836142ae565b80156111ba576000805461ff001916905560405160018152600080516020615cfd83398151915290602001611fa2565b60cc80546001600160a01b0319166001600160a01b0383169081179091556040517f5e4a30f4224898dbac86adca855a5edd3b8341a3aeb2b6ff0f0b5a82c013b65a90600090a250565b600080516020615cbd833981519152546001600160a01b031690565b6114fb612a02565b7f4910fdfa16fed3260ed0e7147f7cc6da11a60208b5b9406d12a635614ffd91435460ff16156130a6576111ba836143d1565b826001600160a01b03166352d1902d6040518163ffffffff1660e01b815260040160206040518083038186803b1580156130df57600080fd5b505afa92505050801561310f575060408051601f3d908101601f1916820190925261310c91810190615aae565b60015b6131725760405162461bcd60e51b815260206004820152602e60248201527f45524331393637557067726164653a206e657720696d706c656d656e7461746960448201526d6f6e206973206e6f74205555505360901b60648201526084016111a6565b600080516020615cbd83398151915281146131e15760405162461bcd60e51b815260206004820152602960248201527f45524331393637557067726164653a20756e737570706f727465642070726f786044820152681a58589b195555525160ba1b60648201526084016111a6565b506111ba83838361446b565b6131f8838383612016565b156111ba57600082815260ca6020908152604080832086845282528083206001600160a01b03851684529091529020805460ff19169055613237612568565b6001600160a01b0316816001600160a01b0316847f6f9148fcdc32766ca802c14716295d56eab7ed848d0dba113966f40087c883908560405161327c91815260200190565b60405180910390a4505050565b613292816124a7565b6000818152609e6020526040812054609d805490919081106132b6576132b661569e565b60009182526020909120600691909102016003810154600182015460028301549293506001600160a01b03909116916132ee85613fcb565b6132f88386614076565b61330185614490565b600085600080516020615c9d8339815191528360405161332391815260200190565b60405180910390a3600082867fe4f48c240d3b994948aa54f3e2f5fca59263dfe1d52b6e4cf39a5d249b5ccb6560405160405180910390a460405185906000906001600160a01b03861690600080516020615d44833981519152908390a4611c0c565b6115178282613393612568565b613638565b6133a18161353b565b6001600082815260cf602052604090205460ff1660028111156133c6576133c6615761565b146133ff57600081815260cf6020526040908190205490516308c9ef2d60e11b81526111a691839160ff90911690600190600401615b2f565b600081815260cf6020526040808220805460ff191690555182917fe2babfd5e77285a3c3dbc4b25592cbe4a7a26e97a7ac63067a22ebdaa9b82add91a250565b61344a838383612016565b6111ba57600082815260ca6020908152604080832086845282528083206001600160a01b03851684529091529020805460ff1916600117905561348b612568565b6001600160a01b0316816001600160a01b0316847f4dc88bd74ca601684356789d5b3dbc9cd44275b2544e8d35041203703b7682328560405161327c91815260200190565b60006134dc84846121c5565b600084815260ca6020908152604080832088845282529182902060010185905590518581529192508391839187917f15f4a36186b2284157fe71215a07487f6c8bdc1203b3307c3e1fd9693011d3d3910160405180910390a450505050565b613544816139dd565b6114fb576040516321fbdd2b60e11b8152600481018290526024016111a6565b816001600160a01b0316836001600160a01b031614156135c65760405162461bcd60e51b815260206004820152601a60248201527f455243333532353a20617070726f766520746f2063616c6c657200000000000060448201526064016111a6565b6001600160a01b038381166000818152609f602090815260408083209487168084526002909501825291829020805460ff191686151590811790915591519182527f17307eab39ab6107e8899845ad3d59bd9653f200f220920489ca2b5937696c3191015b60405180910390a3505050565b613643838383612016565b6111ba5780828460405163c8c801a760e01b81526004016111a693929190615913565b613671848484612db3565b61367d8484848461469e565b611de95760405162461bcd60e51b815260206004820152602760248201527f455243333532353a207472616e7366657220746f206e6f6e204552433732315260448201526632b1b2b4bb32b960c91b60648201526084016111a6565b6136e4826001614801565b600082815260d06020526040908190208290555182907f1ebc57da8b3ebab98506502fbb73232ea29fbe86e4963a5a8c004810ad11190d906137299084815260200190565b60405180910390a25050565b613740816001614801565b600081815260cf6020526040808220805460ff191660011790555182917f779fbee689bbd6f006ecb329206d35c7db7380f9837a8826fb8dc5cfcd3d33dd91a250565b60a080546001600160a01b0319166001600160a01b0383169081179091556040517f5252f52e45fc8ee6a7b43cef3645d23e9a470a34182b8b3a12627556635bfc9c90600090a250565b6060610dfc6001600160a01b0383166014614833565b60606000806137f186611983565b90506000816001600160401b0381111561380d5761380d61526c565b604051908082528060200260200182016040528015613836578160200160208202803683370190505b5090506000805b838110156138bb5760006138518a83611207565b90508861385d826111bf565b148015613878575087158061387857506138788160006138c9565b156138a8578084846138898161582d565b95508151811061389b5761389b61569e565b6020026020010181815250505b50806138b38161582d565b91505061383d565b509097909650945050505050565b600082815260cf602052604081205460ff16818160028111156138ee576138ee615761565b146138fd576000915050610dfc565b6000613908856111bf565b9050613915816000612047565b1561396a57600085815260d260205260409020546001600160a01b031680158015906139575750613955600080516020615c7d8339815191528383612016565b155b156139685760009350505050610dfc565b505b6000613975866118e3565b600087815260d0602052604090205490915015801590613993575084155b156139c8576001600160a01b038116158015906139be5750600086815260d060205260409020544211155b9350505050610dfc565b6001600160a01b031615159250610dfc915050565b609d5460009015801590610dfc57506000828152609e6020526040902054609d80548492908110613a1057613a1061569e565b9060005260206000209060060201600001541492915050565b60008072184f03e93ff9f4daa797ed6e38ed64bf6a1f0160401b8310613a685772184f03e93ff9f4daa797ed6e38ed64bf6a1f0160401b830492506040015b6d04ee2d6d415b85acef81000000008310613a94576d04ee2d6d415b85acef8100000000830492506020015b662386f26fc100008310613ab257662386f26fc10000830492506010015b6305f5e1008310613aca576305f5e100830492506008015b6127108310613ade57612710830492506004015b60648310613af0576064830492506002015b600a8310610dfc5760010192915050565b3360009081526097602052604081205460ff1615613b26575060131936013560601c90565b503390565b6001600160a01b038216613b945760405162461bcd60e51b815260206004820152602a60248201527f455243333532353a20617070726f76652076616c756520746f20746865207a65604482015269726f206164647265737360b01b60648201526084016111a6565b613b9e82846149ce565b613c04576000838152609e6020526040902054609d80549091908110613bc657613bc661569e565b60009182526020808320600692909202909101600501805460018101825590835291200180546001600160a01b0319166001600160a01b0384161790555b6000838152609c602090815260408083206001600160a01b038616808552908352928190208490555183815285917f621b050de0ad08b51d19b48b3e6df75348c4de6bdd93e81b252ca62e28265b1b910161362b565b6000613c6a609b80546001019055565b50609b5490565b6040805160c081018252838152602080820184905260008284018190526001600160a01b038716606084015260808301819052835181815291820190935260a08201529050613cbf81614aa2565b613cc98484614197565b60405183906001600160a01b03861690600090600080516020615d44833981519152908290a4816000847fe4f48c240d3b994948aa54f3e2f5fca59263dfe1d52b6e4cf39a5d249b5ccb6560405160405180910390a450505050565b6000828152609e6020526040902054609d80548392908110613d4957613d4961569e565b90600052602060002090600602016002016000828254613d6991906159e2565b90915550506040518181528290600090600080516020615c9d8339815191529060200160405180910390a35050565b600080613da4856118e3565b9050613db8816001600160a01b0316612f02565b8015613e3c57506040516301ffc9a760e01b8152629ce20b60e01b60048201526001600160a01b038216906301ffc9a79060240160206040518083038186803b158015613e0457600080fd5b505afa158015613e18573d6000803e3d6000fd5b505050506040513d601f19601f82011682018060405250810190613e3c9190615ac7565b15613eeb576000816001600160a01b0316629ce20b613e59612568565b898989896040518663ffffffff1660e01b8152600401613e7d959493929190615b5c565b602060405180830381600087803b158015613e9757600080fd5b505af1158015613eab573d6000803e3d6000fd5b505050506040513d601f19601f82011682018060405250810190613ecf9190615b9a565b6001600160e01b031916629ce20b60e01b149250613ef1915050565b60019150505b949350505050565b6001600160a01b038116600090815260cb602052604090205460ff166114fb5780604051632957ccdd60e21b81526004016111a69190614f9b565b6000818152609e6020526040902054609d80548492908110613f5857613f5861569e565b6000918252602090912060069091020160040180546001600160a01b0319166001600160a01b0392831617905581908316613f92826118e3565b6001600160a01b03167f8c5be1e5ebec7d5bd14f71427d1e84f3dd0314c0f7b2291e5b200ac8c7c3b92560405160405180910390a45050565b6000818152609e6020526040812054609d80549091908110613fef57613fef61569e565b600091825260208220600560069092020190810154909250905b818110156140675760008360050182815481106140285761402861569e565b6000918252602080832090910154878352609c825260408084206001600160a01b0390921684529152812055508061405f8161582d565b915050614009565b506111ba600583016000614de8565b6000818152609e6020526040812054609d8054909190811061409a5761409a61569e565b6000918252602080832060069290920290910160030180546001600160a01b0319166001600160a01b039485161790559184168152609f9091526040812080549091906140e9906001906159cb565b905060008260000182815481106141025761410261569e565b9060005260206000200154905060008360010160008681526020019081526020016000205490508184600001828154811061413f5761413f61569e565b6000918252602080832090910192909255838152600186019091526040808220839055868252812055835484908061417957614179615bb7565b60019003818190600052602060002001600090559055505050505050565b6000818152609e6020526040902054609d805484929081106141bb576141bb61569e565b6000918252602080832060069290920290910160030180546001600160a01b0319166001600160a01b03948516179055939091168152609f80845260408083208054858552600182810188529285208190559286529082018155825292902090910155565b600054610100900460ff166142475760405162461bcd60e51b81526004016111a690615ae4565b825161425a906098906020860190614e06565b50815161426e906099906020850190614e06565b50609a805460ff191660ff929092169190911790555050565b600054610100900460ff16612a125760405162461bcd60e51b81526004016111a690615ae4565b600054610100900460ff16158080156142ce5750600054600160ff909116105b806142ef57506142dd30612f02565b1580156142ef575060005460ff166001145b61430b5760405162461bcd60e51b81526004016111a6906157c9565b6000805460ff19166001179055801561432e576000805461ff0019166101001790555b60005b828110156143a0576001609760008686858181106143515761435161569e565b90506020020160208101906143669190615025565b6001600160a01b031681526020810191909152604001600020805460ff1916911515919091179055806143988161582d565b915050614331565b5080156111ba576000805461ff001916905560405160018152600080516020615cfd83398151915290602001611fa2565b6143da81612f02565b61443c5760405162461bcd60e51b815260206004820152602d60248201527f455243313936373a206e657720696d706c656d656e746174696f6e206973206e60448201526c1bdd08184818dbdb9d1c9858dd609a1b60648201526084016111a6565b600080516020615cbd83398151915280546001600160a01b0319166001600160a01b0392909216919091179055565b61447483614bf4565b6000825111806144815750805b156111ba57611de98383614c34565b609d546000906144a2906001906159cb565b6000838152609e6020526040812054609d80549394509092849081106144ca576144ca61569e565b60009182526020918290206040805160c08101825260069093029091018054835260018101548385015260028101548383015260038101546001600160a01b03908116606085015260048201541660808401526005810180548351818702810187019094528084529394919360a08601939283018282801561457557602002820191906000526020600020905b81546001600160a01b03168152600190910190602001808311614557575b505050505081525050905080609d83815481106145945761459461569e565b600091825260209182902083516006909202019081558282015160018201556040830151600282015560608301516003820180546001600160a01b039283166001600160a01b031991821617909155608085015160048401805491909316911617905560a08301518051919261461292600585019290910190614e7a565b505081516000908152609e602052604080822085905586825281205550609d80548061464057614640615bb7565b60008281526020812060066000199093019283020181815560018101829055600281018290556003810180546001600160a01b03199081169091556004820180549091169055906146946005830182614de8565b5050905550505050565b60006146b2846001600160a01b0316612f02565b156147f957836001600160a01b031663150b7a026146ce612568565b8786866040518563ffffffff1660e01b81526004016146f09493929190615bcd565b602060405180830381600087803b15801561470a57600080fd5b505af192505050801561473a575060408051601f3d908101601f1916820190925261473791810190615b9a565b60015b6147df573d808015614768576040519150601f19603f3d011682016040523d82523d6000602084013e61476d565b606091505b5080516147d75760405162461bcd60e51b815260206004820152603260248201527f4552433732313a207472616e7366657220746f206e6f6e20455243373231526560448201527131b2b4bb32b91034b6b83632b6b2b73a32b960711b60648201526084016111a6565b805181602001fd5b6001600160e01b031916630a85bd0160e11b149050613ef1565b506001613ef1565b61480b82826138c9565b611517576040516316af84a960e21b81526004810183905281151560248201526044016111a6565b60606000614842836002615c0a565b61484d9060026159e2565b6001600160401b038111156148645761486461526c565b6040519080825280601f01601f19166020018201604052801561488e576020820181803683370190505b509050600360fc1b816000815181106148a9576148a961569e565b60200101906001600160f81b031916908160001a905350600f60fb1b816001815181106148d8576148d861569e565b60200101906001600160f81b031916908160001a90535060006148fc846002615c0a565b6149079060016159e2565b90505b600181111561497f576f181899199a1a9b1b9c1cb0b131b232b360811b85600f166010811061493b5761493b61569e565b1a60f81b8282815181106149515761495161569e565b60200101906001600160f81b031916908160001a90535060049490941c9361497881615c29565b905061490a565b508315610ff95760405162461bcd60e51b815260206004820181905260248201527f537472696e67733a20686578206c656e67746820696e73756666696369656e7460448201526064016111a6565b6000818152609e6020526040812054609d805483929081106149f2576149f261569e565b6000918252602082206005600690920201015491505b81811015614a97576000848152609e6020526040902054609d80546001600160a01b03881692908110614a3d57614a3d61569e565b90600052602060002090600602016005018281548110614a5f57614a5f61569e565b6000918252602090912001546001600160a01b03161415614a8557600192505050610dfc565b80614a8f8161582d565b915050614a08565b506000949350505050565b609d805482516000908152609e6020908152604080832084905560018401855593909152835160069092027fd26e832454299e9fabb89e0e5fffdc046d4e14431bc1bf607ffb2e8a1ddecf7b8101928355818501517fd26e832454299e9fabb89e0e5fffdc046d4e14431bc1bf607ffb2e8a1ddecf7c820155928401517fd26e832454299e9fabb89e0e5fffdc046d4e14431bc1bf607ffb2e8a1ddecf7d84015560608401517fd26e832454299e9fabb89e0e5fffdc046d4e14431bc1bf607ffb2e8a1ddecf7e840180546001600160a01b039283166001600160a01b03199182161790915560808601517fd26e832454299e9fabb89e0e5fffdc046d4e14431bc1bf607ffb2e8a1ddecf7f8601805491909316911617905560a084015180518594611de9937fd26e832454299e9fabb89e0e5fffdc046d4e14431bc1bf607ffb2e8a1ddecf80909101920190614e7a565b614bfd816143d1565b6040516001600160a01b038216907fbc7cd75a20ee27fd9adebab32041f755214dbc6bffa90cc0225b39da2e5c2d3b90600090a250565b6060614c3f83612f02565b614c9a5760405162461bcd60e51b815260206004820152602660248201527f416464726573733a2064656c65676174652063616c6c20746f206e6f6e2d636f6044820152651b9d1c9858dd60d21b60648201526084016111a6565b600080846001600160a01b031684604051614cb59190615c40565b600060405180830381855af49150503d8060008114614cf0576040519150601f19603f3d011682016040523d82523d6000602084013e614cf5565b606091505b5091509150614d1d8282604051806060016040528060278152602001615d1d60279139614d26565b95945050505050565b60608315614d35575081610ff9565b610ff98383815115614d4a5781518083602001fd5b8060405162461bcd60e51b81526004016111a69190614f6f565b828054614d7090615669565b90600052602060002090601f016020900481019282614d925760008555614dd8565b82601f10614dab5782800160ff19823516178555614dd8565b82800160010185558215614dd8579182015b82811115614dd8578235825591602001919060010190614dbd565b50614de4929150614ecf565b5090565b50805460008255906000526020600020908101906114fb9190614ecf565b828054614e1290615669565b90600052602060002090601f016020900481019282614e345760008555614dd8565b82601f10614e4d57805160ff1916838001178555614dd8565b82800160010185558215614dd8579182015b82811115614dd8578251825591602001919060010190614e5f565b828054828255906000526020600020908101928215614dd8579160200282015b82811115614dd857825182546001600160a01b0319166001600160a01b03909116178255602090920191600190910190614e9a565b5b80821115614de45760008155600101614ed0565b6001600160e01b0319811681146114fb57600080fd5b600060208284031215614f0c57600080fd5b8135610ff981614ee4565b60005b83811015614f32578181015183820152602001614f1a565b83811115611de95750506000910152565b60008151808452614f5b816020860160208601614f17565b601f01601f19169290920160200192915050565b602081526000610ff96020830184614f43565b600060208284031215614f9457600080fd5b5035919050565b6001600160a01b0391909116815260200190565b80356001600160a01b038116811461194e57600080fd5b60008060408385031215614fd957600080fd5b614fe283614faf565b946020939093013593505050565b60008060006060848603121561500557600080fd5b8335925061501560208501614faf565b9150604084013590509250925092565b60006020828403121561503757600080fd5b610ff982614faf565b600060a0828403121561505257600080fd5b50919050565b6000806000806000610120868803121561507157600080fd5b61507a86614faf565b945060208601359350604086013592506060860135915061509e8760808801615040565b90509295509295909350565b6000806000606084860312156150bf57600080fd5b6150c884614faf565b925061501560208501614faf565b6000806000606084860312156150eb57600080fd5b505081359360208301359350604090920135919050565b60008083601f84011261511457600080fd5b5081356001600160401b0381111561512b57600080fd5b60208301915083602082850101111561514357600080fd5b9250929050565b60008060008060008060008060a0898b03121561516657600080fd5b88356001600160401b038082111561517d57600080fd5b6151898c838d01615102565b909a50985060208b01359150808211156151a257600080fd5b6151ae8c838d01615102565b90985096508691506151c260408c01614faf565b95506151d060608c01614faf565b945060808b01359150808211156151e657600080fd5b818b0191508b601f8301126151fa57600080fd5b81358181111561520957600080fd5b8c60208260051b850101111561521e57600080fd5b6020830194508093505050509295985092959890939650565b60008060006060848603121561524c57600080fd5b833592506020840135915061526360408501614faf565b90509250925092565b634e487b7160e01b600052604160045260246000fd5b604051601f8201601f191681016001600160401b03811182821017156152aa576152aa61526c565b604052919050565b60006001600160401b038211156152cb576152cb61526c565b50601f01601f191660200190565b600082601f8301126152ea57600080fd5b81356152fd6152f8826152b2565b615282565b81815284602083860101111561531257600080fd5b816020850160208301376000918101602001919091529392505050565b6000806040838503121561534257600080fd5b61534b83614faf565b915060208301356001600160401b0381111561536657600080fd5b615372858286016152d9565b9150509250929050565b6000806040838503121561538f57600080fd5b50508035926020909101359150565b80151581146114fb57600080fd5b6000806000806000608086880312156153c457600080fd5b8535945060208601356001600160401b038111156153e157600080fd5b6153ed88828901615102565b90955093505060408601356154018161539e565b915061509e60608701614faf565b60008060006040848603121561542457600080fd5b8335925060208401356001600160401b0381111561544157600080fd5b61544d86828701615102565b9497909650939450505050565b6000806040838503121561546d57600080fd5b61547683614faf565b915060208301356154868161539e565b809150509250929050565b600080600080608085870312156154a757600080fd5b6154b085614faf565b93506154be60208601614faf565b92506040850135915060608501356001600160401b038111156154e057600080fd5b6154ec878288016152d9565b91505092959194509250565b6000806040838503121561550b57600080fd5b8235915060208301356001811061548657600080fd5b600080600060e0848603121561553657600080fd5b83359250602084013591506152638560408601615040565b6000806040838503121561556157600080fd5b8235915061557160208401614faf565b90509250929050565b6001600160a01b038616815260ff8516602082015260a0604082018190526000906155a790830186614f43565b606083019490945250608001529392505050565b600080604083850312156155ce57600080fd5b6155d783614faf565b915061557160208401614faf565b6000806000606084860312156155fa57600080fd5b61560384614faf565b925060208401359150604084013561561a8161539e565b809150509250925092565b6020808252825182820181905260009190848201906040850190845b8181101561565d57835183529284019291840191600101615641565b50909695505050505050565b600181811c9082168061567d57607f821691505b6020821081141561505257634e487b7160e01b600052602260045260246000fd5b634e487b7160e01b600052603260045260246000fd5b600083516156c6818460208801614f17565b64736c6f742f60d81b90830190815283516156e8816005840160208801614f17565b01600501949350505050565b60006020828403121561570657600080fd5b81516001600160401b0381111561571c57600080fd5b8201601f8101841361572d57600080fd5b805161573b6152f8826152b2565b81815285602083850101111561575057600080fd5b614d1d826020830160208601614f17565b634e487b7160e01b600052602160045260246000fd5b60208082526032908201527f455243333532353a207472616e736665722063616c6c6572206973206e6f74206040820152711bdddb995c881b9bdc88185c1c1c9bdd995960721b606082015260800190565b6020808252602e908201527f496e697469616c697a61626c653a20636f6e747261637420697320616c72656160408201526d191e481a5b9a5d1a585b1a5e995960921b606082015260800190565b634e487b7160e01b600052601160045260246000fd5b600060001982141561584157615841615817565b5060010190565b6020808252602c908201527f46756e6374696f6e206d7573742062652063616c6c6564207468726f7567682060408201526b19195b1959d85d1958d85b1b60a21b606082015260800190565b6020808252602c908201527f46756e6374696f6e206d7573742062652063616c6c6564207468726f7567682060408201526b6163746976652070726f787960a01b606082015260800190565b602080825260199082015278115490cccd4c8d4e881a5b9d985b1a59081d1bdad95b881251603a1b604082015260600190565b6001600160a01b039390931683526020830191909152604082015260600190565b6001600160a01b039384168152919092166020820152604081019190915260600190565b6000835161596a818460208801614f17565b83519083019061597e818360208801614f17565b01949350505050565b60008351615999818460208801614f17565b68636f6e74726163742f60b81b90830190815283516159bf816009840160208801614f17565b01600901949350505050565b6000828210156159dd576159dd615817565b500390565b600082198211156159f5576159f5615817565b500190565b80356003811061194e57600080fd5b600060208284031215615a1b57600080fd5b610ff9826159fa565b600381106114fb57634e487b7160e01b600052602160045260246000fd5b8135815260a08101615a56602084016159fa565b615a5f81615a24565b6020830152615a7060408401614faf565b6001600160a01b03818116604085015280615a8d60608701614faf565b16606085015280615aa060808701614faf565b166080850152505092915050565b600060208284031215615ac057600080fd5b5051919050565b600060208284031215615ad957600080fd5b8151610ff98161539e565b6020808252602b908201527f496e697469616c697a61626c653a20636f6e7472616374206973206e6f74206960408201526a6e697469616c697a696e6760a81b606082015260800190565b83815260608101615b3f84615a24565b836020830152615b4e83615a24565b826040830152949350505050565b60018060a01b038616815284602082015283604082015282606082015260a060808201526000615b8f60a0830184614f43565b979650505050505050565b600060208284031215615bac57600080fd5b8151610ff981614ee4565b634e487b7160e01b600052603160045260246000fd5b6001600160a01b0385811682528416602082015260408101839052608060608201819052600090615c0090830184614f43565b9695505050505050565b6000816000190483118215151615615c2457615c24615817565b500290565b600081615c3857615c38615817565b506000190190565b60008251615c52818460208701614f17565b919091019291505056fefca69b310bd19d275687ebe00b254b0772cf7a367c3f81a9a5a433f831fdc1dc3c63e605be3290ab6b04cfc46c6e1516e626d43236b034f09d7ede1d017beb0c0b2aac84f3ec956911fd78eae5311062972ff949f38412e8da39069d9f068cc6360894a13ba1a3210667c828492db98dca3e2076cc3735a920a3ca505d382bbc449b0a7e0acc0a95c71947cb19fdd122b42abca9bdfbd6707ca4f1e3fdaef05e7f26b83ff96e1f2b6a682f133852f6798a09c465da95921460cefb3847402498416464726573733a206c6f772d6c6576656c2064656c65676174652063616c6c206661696c6564ddf252ad1be2c89b69c2b068fc378daa952ba7f163c4a11628f55a4df523b3efa26469706673582212208bc1e58eb94852a32a3ffea231e4bc2f77afe4129eb4049321c54cfa8835e8b864736f6c63430008090033",
  "linkReferences": {},
  "deployedLinkReferences": {}
}