{
  "_format": "hh-sol-artifact-1",
  "contractName": "GatewayToken",
  "sourceName": "contracts/GatewayToken.sol",
  "abi": [
    {
      "inputs": [],
      "stateMutability": "nonpayable",
      "type": "constructor"
    },
    {
      "inputs": [
        {
          "internalType": "uint256",
          "name": "allowance",
          "type": "uint256"
        },
        {
          "internalType": "uint256",
          "name": "expectedAllowance",
          "type": "uint256"
        }
      ],
      "name": "Charge__IncorrectAllowance",
      "type": "error"
    },
    {
      "inputs": [
        {
          "internalType": "uint256",
          "name": "value",
          "type": "uint256"
        },
        {
          "internalType": "uint256",
          "name": "expectedValue",
          "type": "uint256"
        }
      ],
      "name": "Charge__InsufficientValue",
      "type": "error"
    },
    {
      "inputs": [
        {
          "internalType": "uint256",
          "name": "value",
          "type": "uint256"
        }
      ],
      "name": "Charge__TransferFailed",
      "type": "error"
    },
    {
      "inputs": [],
      "name": "Common__MissingAccount",
      "type": "error"
    },
    {
      "inputs": [
        {
          "internalType": "address",
          "name": "account",
          "type": "address"
        }
      ],
      "name": "Common__NotContract",
      "type": "error"
    },
    {
      "inputs": [
        {
          "internalType": "address",
          "name": "account",
          "type": "address"
        }
      ],
      "name": "Common__NotSuperAdmin",
      "type": "error"
    },
    {
      "inputs": [
        {
          "internalType": "address",
          "name": "sender",
          "type": "address"
        },
        {
          "internalType": "uint256",
          "name": "domain",
          "type": "uint256"
        },
        {
          "internalType": "bytes32",
          "name": "role",
          "type": "bytes32"
        }
      ],
      "name": "Common__Unauthorized",
      "type": "error"
    },
    {
      "inputs": [
        {
          "internalType": "uint256",
          "name": "available",
          "type": "uint256"
        },
        {
          "internalType": "uint256",
          "name": "required",
          "type": "uint256"
        }
      ],
      "name": "GatewayToken__InsufficientFunds",
      "type": "error"
    },
    {
      "inputs": [
        {
          "internalType": "uint256",
          "name": "network",
          "type": "uint256"
        }
      ],
      "name": "GatewayToken__NetworkAlreadyExists",
      "type": "error"
    },
    {
      "inputs": [
        {
          "internalType": "uint256",
          "name": "network",
          "type": "uint256"
        }
      ],
      "name": "GatewayToken__NetworkDoesNotExist",
      "type": "error"
    },
    {
      "inputs": [
        {
          "internalType": "uint256",
          "name": "network",
          "type": "uint256"
        }
      ],
      "name": "GatewayToken__NotDAOGoverned",
      "type": "error"
    },
    {
      "inputs": [
        {
          "internalType": "uint256",
          "name": "tokenId",
          "type": "uint256"
        }
      ],
      "name": "GatewayToken__TokenDoesNotExist",
      "type": "error"
    },
    {
      "inputs": [
        {
          "internalType": "uint256",
          "name": "tokenId",
          "type": "uint256"
        },
        {
          "internalType": "bool",
          "name": "allowExpired",
          "type": "bool"
        }
      ],
      "name": "GatewayToken__TokenDoesNotExistOrIsInactive",
      "type": "error"
    },
    {
      "inputs": [
        {
          "internalType": "uint256",
          "name": "tokenId",
          "type": "uint256"
        },
        {
          "internalType": "enum IGatewayToken.TokenState",
          "name": "state",
          "type": "uint8"
        },
        {
          "internalType": "enum IGatewayToken.TokenState",
          "name": "expectedState",
          "type": "uint8"
        }
      ],
      "name": "GatewayToken__TokenInvalidStateForOperation",
      "type": "error"
    },
    {
      "inputs": [],
      "name": "GatewayToken__TransferDisabled",
      "type": "error"
    },
    {
      "inputs": [
        {
          "internalType": "bytes32",
          "name": "role",
          "type": "bytes32"
        },
        {
          "internalType": "address",
          "name": "account",
          "type": "address"
        }
      ],
      "name": "ParameterizedAccessControl__RenounceRoleNotForSelf",
      "type": "error"
    },
    {
      "anonymous": false,
      "inputs": [
        {
          "indexed": false,
          "internalType": "address",
          "name": "previousAdmin",
          "type": "address"
        },
        {
          "indexed": false,
          "internalType": "address",
          "name": "newAdmin",
          "type": "address"
        }
      ],
      "name": "AdminChanged",
      "type": "event"
    },
    {
      "anonymous": false,
      "inputs": [
        {
          "indexed": true,
          "internalType": "address",
          "name": "_owner",
          "type": "address"
        },
        {
          "indexed": true,
          "internalType": "address",
          "name": "_approved",
          "type": "address"
        },
        {
          "indexed": true,
          "internalType": "uint256",
          "name": "_tokenId",
          "type": "uint256"
        }
      ],
      "name": "Approval",
      "type": "event"
    },
    {
      "anonymous": false,
      "inputs": [
        {
          "indexed": true,
          "internalType": "address",
          "name": "_owner",
          "type": "address"
        },
        {
          "indexed": true,
          "internalType": "address",
          "name": "_operator",
          "type": "address"
        },
        {
          "indexed": false,
          "internalType": "bool",
          "name": "_approved",
          "type": "bool"
        }
      ],
      "name": "ApprovalForAll",
      "type": "event"
    },
    {
      "anonymous": false,
      "inputs": [
        {
          "indexed": true,
          "internalType": "uint256",
          "name": "_tokenId",
          "type": "uint256"
        },
        {
          "indexed": true,
          "internalType": "address",
          "name": "_operator",
          "type": "address"
        },
        {
          "indexed": false,
          "internalType": "uint256",
          "name": "_value",
          "type": "uint256"
        }
      ],
      "name": "ApprovalValue",
      "type": "event"
    },
    {
      "anonymous": false,
      "inputs": [
        {
          "indexed": true,
          "internalType": "address",
          "name": "beacon",
          "type": "address"
        }
      ],
      "name": "BeaconUpgraded",
      "type": "event"
    },
    {
      "anonymous": false,
      "inputs": [
        {
          "indexed": false,
          "internalType": "uint256",
          "name": "tokenId",
          "type": "uint256"
        },
        {
          "indexed": false,
          "internalType": "uint256",
          "name": "bitmask",
          "type": "uint256"
        }
      ],
      "name": "BitMaskUpdated",
      "type": "event"
    },
    {
      "anonymous": false,
      "inputs": [
        {
          "components": [
            {
              "internalType": "uint256",
              "name": "value",
              "type": "uint256"
            },
            {
              "internalType": "enum ChargeType",
              "name": "chargeType",
              "type": "uint8"
            },
            {
              "internalType": "address",
              "name": "token",
              "type": "address"
            },
            {
              "internalType": "address",
              "name": "tokenSender",
              "type": "address"
            },
            {
              "internalType": "address",
              "name": "recipient",
              "type": "address"
            }
          ],
          "indexed": false,
          "internalType": "struct Charge",
          "name": "",
          "type": "tuple"
        }
      ],
      "name": "ChargePaid",
      "type": "event"
    },
    {
      "anonymous": false,
      "inputs": [
        {
          "indexed": false,
          "internalType": "address",
          "name": "previousDAOManager",
          "type": "address"
        },
        {
          "indexed": false,
          "internalType": "address",
          "name": "newDAOManager",
          "type": "address"
        },
        {
          "indexed": false,
          "internalType": "uint256",
          "name": "network",
          "type": "uint256"
        }
      ],
      "name": "DAOManagerTransferred",
      "type": "event"
    },
    {
      "anonymous": false,
      "inputs": [
        {
          "indexed": true,
          "internalType": "uint256",
          "name": "tokenId",
          "type": "uint256"
        },
        {
          "indexed": false,
          "internalType": "uint256",
          "name": "timestamp",
          "type": "uint256"
        }
      ],
      "name": "Expiration",
      "type": "event"
    },
    {
      "anonymous": false,
      "inputs": [
        {
          "indexed": true,
          "internalType": "address",
          "name": "flagsStorage",
          "type": "address"
        }
      ],
      "name": "FlagsStorageUpdated",
      "type": "event"
    },
    {
      "anonymous": false,
      "inputs": [
        {
          "indexed": true,
          "internalType": "uint256",
          "name": "tokenId",
          "type": "uint256"
        }
      ],
      "name": "Freeze",
      "type": "event"
    },
    {
      "anonymous": false,
      "inputs": [
        {
          "indexed": false,
          "internalType": "uint8",
          "name": "version",
          "type": "uint8"
        }
      ],
      "name": "Initialized",
      "type": "event"
    },
    {
      "anonymous": false,
      "inputs": [
        {
          "indexed": true,
          "internalType": "uint256",
          "name": "tokenId",
          "type": "uint256"
        }
      ],
      "name": "Revoke",
      "type": "event"
    },
    {
      "anonymous": false,
      "inputs": [
        {
          "indexed": true,
          "internalType": "bytes32",
          "name": "role",
          "type": "bytes32"
        },
        {
          "indexed": false,
          "internalType": "uint256",
          "name": "domain",
          "type": "uint256"
        },
        {
          "indexed": true,
          "internalType": "bytes32",
          "name": "previousAdminRole",
          "type": "bytes32"
        },
        {
          "indexed": true,
          "internalType": "bytes32",
          "name": "newAdminRole",
          "type": "bytes32"
        }
      ],
      "name": "RoleAdminChanged",
      "type": "event"
    },
    {
      "anonymous": false,
      "inputs": [
        {
          "indexed": true,
          "internalType": "bytes32",
          "name": "role",
          "type": "bytes32"
        },
        {
          "indexed": false,
          "internalType": "uint256",
          "name": "domain",
          "type": "uint256"
        },
        {
          "indexed": true,
          "internalType": "address",
          "name": "account",
          "type": "address"
        },
        {
          "indexed": true,
          "internalType": "address",
          "name": "sender",
          "type": "address"
        }
      ],
      "name": "RoleGranted",
      "type": "event"
    },
    {
      "anonymous": false,
      "inputs": [
        {
          "indexed": true,
          "internalType": "bytes32",
          "name": "role",
          "type": "bytes32"
        },
        {
          "indexed": false,
          "internalType": "uint256",
          "name": "domain",
          "type": "uint256"
        },
        {
          "indexed": true,
          "internalType": "address",
          "name": "account",
          "type": "address"
        },
        {
          "indexed": true,
          "internalType": "address",
          "name": "sender",
          "type": "address"
        }
      ],
      "name": "RoleRevoked",
      "type": "event"
    },
    {
      "anonymous": false,
      "inputs": [
        {
          "indexed": true,
          "internalType": "address",
          "name": "metadataDescriptor",
          "type": "address"
        }
      ],
      "name": "SetMetadataDescriptor",
      "type": "event"
    },
    {
      "anonymous": false,
      "inputs": [
        {
          "indexed": true,
          "internalType": "uint256",
          "name": "_tokenId",
          "type": "uint256"
        },
        {
          "indexed": true,
          "internalType": "uint256",
          "name": "_oldSlot",
          "type": "uint256"
        },
        {
          "indexed": true,
          "internalType": "uint256",
          "name": "_newSlot",
          "type": "uint256"
        }
      ],
      "name": "SlotChanged",
      "type": "event"
    },
    {
      "anonymous": false,
      "inputs": [
        {
          "indexed": true,
          "internalType": "address",
          "name": "account",
          "type": "address"
        }
      ],
      "name": "SuperAdminAdded",
      "type": "event"
    },
    {
      "anonymous": false,
      "inputs": [
        {
          "indexed": true,
          "internalType": "address",
          "name": "account",
          "type": "address"
        }
      ],
      "name": "SuperAdminRemoved",
      "type": "event"
    },
    {
      "anonymous": false,
      "inputs": [
        {
          "indexed": true,
          "internalType": "address",
          "name": "_from",
          "type": "address"
        },
        {
          "indexed": true,
          "internalType": "address",
          "name": "_to",
          "type": "address"
        },
        {
          "indexed": true,
          "internalType": "uint256",
          "name": "_tokenId",
          "type": "uint256"
        }
      ],
      "name": "Transfer",
      "type": "event"
    },
    {
      "anonymous": false,
      "inputs": [
        {
          "indexed": true,
          "internalType": "uint256",
          "name": "_fromTokenId",
          "type": "uint256"
        },
        {
          "indexed": true,
          "internalType": "uint256",
          "name": "_toTokenId",
          "type": "uint256"
        },
        {
          "indexed": false,
          "internalType": "uint256",
          "name": "_value",
          "type": "uint256"
        }
      ],
      "name": "TransferValue",
      "type": "event"
    },
    {
      "anonymous": false,
      "inputs": [
        {
          "indexed": true,
          "internalType": "uint256",
          "name": "tokenId",
          "type": "uint256"
        }
      ],
      "name": "Unfreeze",
      "type": "event"
    },
    {
      "anonymous": false,
      "inputs": [
        {
          "indexed": true,
          "internalType": "address",
          "name": "implementation",
          "type": "address"
        }
      ],
      "name": "Upgraded",
      "type": "event"
    },
    {
      "inputs": [],
      "name": "DAO_MANAGER_ROLE",
      "outputs": [
        {
          "internalType": "bytes32",
          "name": "",
          "type": "bytes32"
        }
      ],
      "stateMutability": "view",
      "type": "function"
    },
    {
      "inputs": [],
      "name": "DEFAULT_ADMIN_ROLE",
      "outputs": [
        {
          "internalType": "bytes32",
          "name": "",
          "type": "bytes32"
        }
      ],
      "stateMutability": "view",
      "type": "function"
    },
    {
      "inputs": [],
      "name": "GATEKEEPER_ROLE",
      "outputs": [
        {
          "internalType": "bytes32",
          "name": "",
          "type": "bytes32"
        }
      ],
      "stateMutability": "view",
      "type": "function"
    },
    {
      "inputs": [],
      "name": "NETWORK_AUTHORITY_ROLE",
      "outputs": [
        {
          "internalType": "bytes32",
          "name": "",
          "type": "bytes32"
        }
      ],
      "stateMutability": "view",
      "type": "function"
    },
    {
      "inputs": [
        {
          "internalType": "address",
          "name": "forwarder",
          "type": "address"
        }
      ],
      "name": "addForwarder",
      "outputs": [],
      "stateMutability": "nonpayable",
      "type": "function"
    },
    {
      "inputs": [
        {
          "internalType": "address",
          "name": "gatekeeper",
          "type": "address"
        },
        {
          "internalType": "uint256",
          "name": "network",
          "type": "uint256"
        }
      ],
      "name": "addGatekeeper",
      "outputs": [],
      "stateMutability": "nonpayable",
      "type": "function"
    },
    {
      "inputs": [
        {
          "internalType": "address",
          "name": "authority",
          "type": "address"
        },
        {
          "internalType": "uint256",
          "name": "network",
          "type": "uint256"
        }
      ],
      "name": "addNetworkAuthority",
      "outputs": [],
      "stateMutability": "nonpayable",
      "type": "function"
    },
    {
      "inputs": [
        {
          "internalType": "uint256",
          "name": "tokenId_",
          "type": "uint256"
        },
        {
          "internalType": "address",
          "name": "operator_",
          "type": "address"
        }
      ],
      "name": "allowance",
      "outputs": [
        {
          "internalType": "uint256",
          "name": "",
          "type": "uint256"
        }
      ],
      "stateMutability": "view",
      "type": "function"
    },
    {
      "inputs": [
        {
          "internalType": "address",
          "name": "",
          "type": "address"
        },
        {
          "internalType": "uint256",
          "name": "",
          "type": "uint256"
        }
      ],
      "name": "approve",
      "outputs": [],
      "stateMutability": "payable",
      "type": "function"
    },
    {
      "inputs": [
        {
          "internalType": "uint256",
          "name": "",
          "type": "uint256"
        },
        {
          "internalType": "address",
          "name": "",
          "type": "address"
        },
        {
          "internalType": "uint256",
          "name": "",
          "type": "uint256"
        }
      ],
      "name": "approve",
      "outputs": [],
      "stateMutability": "payable",
      "type": "function"
    },
    {
      "inputs": [
        {
          "internalType": "address",
          "name": "owner_",
          "type": "address"
        }
      ],
      "name": "balanceOf",
      "outputs": [
        {
          "internalType": "uint256",
          "name": "balance",
          "type": "uint256"
        }
      ],
      "stateMutability": "view",
      "type": "function"
    },
    {
      "inputs": [
        {
          "internalType": "uint256",
          "name": "tokenId_",
          "type": "uint256"
        }
      ],
      "name": "balanceOf",
      "outputs": [
        {
          "internalType": "uint256",
          "name": "",
          "type": "uint256"
        }
      ],
      "stateMutability": "view",
      "type": "function"
    },
    {
      "inputs": [
        {
          "internalType": "uint256",
          "name": "tokenId",
          "type": "uint256"
        }
      ],
      "name": "burn",
      "outputs": [],
      "stateMutability": "nonpayable",
      "type": "function"
    },
    {
      "inputs": [],
      "name": "contractURI",
      "outputs": [
        {
          "internalType": "string",
          "name": "",
          "type": "string"
        }
      ],
      "stateMutability": "view",
      "type": "function"
    },
    {
      "inputs": [
        {
          "internalType": "uint256",
          "name": "network",
          "type": "uint256"
        },
        {
          "internalType": "string",
          "name": "name",
          "type": "string"
        },
        {
          "internalType": "bool",
          "name": "daoGoverned",
          "type": "bool"
        },
        {
          "internalType": "address",
          "name": "daoManager",
          "type": "address"
        }
      ],
      "name": "createNetwork",
      "outputs": [],
      "stateMutability": "nonpayable",
      "type": "function"
    },
    {
      "inputs": [],
      "name": "flagsStorage",
      "outputs": [
        {
          "internalType": "contract IFlagsStorage",
          "name": "",
          "type": "address"
        }
      ],
      "stateMutability": "view",
      "type": "function"
    },
    {
      "inputs": [
        {
          "internalType": "uint256",
          "name": "tokenId",
          "type": "uint256"
        }
      ],
      "name": "freeze",
      "outputs": [],
      "stateMutability": "nonpayable",
      "type": "function"
    },
    {
      "inputs": [
        {
          "internalType": "uint256",
          "name": "tokenId_",
          "type": "uint256"
        }
      ],
      "name": "getApproved",
      "outputs": [
        {
          "internalType": "address",
          "name": "",
          "type": "address"
        }
      ],
      "stateMutability": "view",
      "type": "function"
    },
    {
      "inputs": [
        {
          "internalType": "uint256",
          "name": "tokenId",
          "type": "uint256"
        }
      ],
      "name": "getExpiration",
      "outputs": [
        {
          "internalType": "uint256",
          "name": "",
          "type": "uint256"
        }
      ],
      "stateMutability": "view",
      "type": "function"
    },
    {
      "inputs": [
        {
          "internalType": "uint256",
          "name": "tokenId",
          "type": "uint256"
        }
      ],
      "name": "getIssuingGatekeeper",
      "outputs": [
        {
          "internalType": "address",
          "name": "",
          "type": "address"
        }
      ],
      "stateMutability": "view",
      "type": "function"
    },
    {
      "inputs": [
        {
          "internalType": "uint256",
          "name": "network",
          "type": "uint256"
        }
      ],
      "name": "getNetwork",
      "outputs": [
        {
          "internalType": "string",
          "name": "",
          "type": "string"
        }
      ],
      "stateMutability": "view",
      "type": "function"
    },
    {
      "inputs": [
        {
          "internalType": "bytes32",
          "name": "role",
          "type": "bytes32"
        },
        {
          "internalType": "uint256",
          "name": "domain",
          "type": "uint256"
        }
      ],
      "name": "getRoleAdmin",
      "outputs": [
        {
          "internalType": "bytes32",
          "name": "",
          "type": "bytes32"
        }
      ],
      "stateMutability": "view",
      "type": "function"
    },
    {
      "inputs": [
        {
          "internalType": "uint256",
          "name": "tokenId",
          "type": "uint256"
        }
      ],
      "name": "getToken",
      "outputs": [
        {
          "internalType": "address",
          "name": "owner",
          "type": "address"
        },
        {
          "internalType": "uint8",
          "name": "state",
          "type": "uint8"
        },
        {
          "internalType": "string",
          "name": "identity",
          "type": "string"
        },
        {
          "internalType": "uint256",
          "name": "expiration",
          "type": "uint256"
        },
        {
          "internalType": "uint256",
          "name": "bitmask",
          "type": "uint256"
        }
      ],
      "stateMutability": "view",
      "type": "function"
    },
    {
      "inputs": [
        {
          "internalType": "uint256",
          "name": "tokenId",
          "type": "uint256"
        }
      ],
      "name": "getTokenBitmask",
      "outputs": [
        {
          "internalType": "uint256",
          "name": "",
          "type": "uint256"
        }
      ],
      "stateMutability": "view",
      "type": "function"
    },
    {
      "inputs": [
        {
          "internalType": "address",
          "name": "owner",
          "type": "address"
        },
        {
          "internalType": "uint256",
          "name": "network",
          "type": "uint256"
        },
        {
          "internalType": "bool",
          "name": "onlyActive",
          "type": "bool"
        }
      ],
      "name": "getTokenIdsByOwnerAndNetwork",
      "outputs": [
        {
          "internalType": "uint256[]",
          "name": "",
          "type": "uint256[]"
        }
      ],
      "stateMutability": "view",
      "type": "function"
    },
    {
      "inputs": [
        {
          "internalType": "bytes32",
          "name": "role",
          "type": "bytes32"
        },
        {
          "internalType": "uint256",
          "name": "domain",
          "type": "uint256"
        },
        {
          "internalType": "address",
          "name": "account",
          "type": "address"
        }
      ],
      "name": "grantRole",
      "outputs": [],
      "stateMutability": "nonpayable",
      "type": "function"
    },
    {
      "inputs": [
        {
          "internalType": "bytes32",
          "name": "role",
          "type": "bytes32"
        },
        {
          "internalType": "uint256",
          "name": "domain",
          "type": "uint256"
        },
        {
          "internalType": "address",
          "name": "account",
          "type": "address"
        }
      ],
      "name": "hasRole",
      "outputs": [
        {
          "internalType": "bool",
          "name": "",
          "type": "bool"
        }
      ],
      "stateMutability": "view",
      "type": "function"
    },
    {
      "inputs": [
        {
          "internalType": "string",
          "name": "_name",
          "type": "string"
        },
        {
          "internalType": "string",
          "name": "_symbol",
          "type": "string"
        },
        {
          "internalType": "address",
          "name": "_superAdmin",
          "type": "address"
        },
        {
          "internalType": "address",
          "name": "_flagsStorage",
          "type": "address"
        },
        {
          "internalType": "address[]",
          "name": "_trustedForwarders",
          "type": "address[]"
        }
      ],
      "name": "initialize",
      "outputs": [],
      "stateMutability": "nonpayable",
      "type": "function"
    },
    {
      "inputs": [
        {
          "internalType": "address",
          "name": "owner_",
          "type": "address"
        },
        {
          "internalType": "address",
          "name": "operator_",
          "type": "address"
        }
      ],
      "name": "isApprovedForAll",
      "outputs": [
        {
          "internalType": "bool",
          "name": "",
          "type": "bool"
        }
      ],
      "stateMutability": "view",
      "type": "function"
    },
    {
      "inputs": [
        {
          "internalType": "address",
          "name": "gatekeeper",
          "type": "address"
        },
        {
          "internalType": "uint256",
          "name": "network",
          "type": "uint256"
        }
      ],
      "name": "isGatekeeper",
      "outputs": [
        {
          "internalType": "bool",
          "name": "",
          "type": "bool"
        }
      ],
      "stateMutability": "view",
      "type": "function"
    },
    {
      "inputs": [
        {
          "internalType": "address",
          "name": "authority",
          "type": "address"
        },
        {
          "internalType": "uint256",
          "name": "network",
          "type": "uint256"
        }
      ],
      "name": "isNetworkAuthority",
      "outputs": [
        {
          "internalType": "bool",
          "name": "",
          "type": "bool"
        }
      ],
      "stateMutability": "view",
      "type": "function"
    },
    {
      "inputs": [
        {
          "internalType": "uint256",
          "name": "",
          "type": "uint256"
        }
      ],
      "name": "isNetworkDAOGoverned",
      "outputs": [
        {
          "internalType": "bool",
          "name": "",
          "type": "bool"
        }
      ],
      "stateMutability": "view",
      "type": "function"
    },
    {
      "inputs": [
        {
          "internalType": "address",
          "name": "account",
          "type": "address"
        }
      ],
      "name": "isSuperAdmin",
      "outputs": [
        {
          "internalType": "bool",
          "name": "",
          "type": "bool"
        }
      ],
      "stateMutability": "view",
      "type": "function"
    },
    {
      "inputs": [
        {
          "internalType": "address",
          "name": "forwarder",
          "type": "address"
        }
      ],
      "name": "isTrustedForwarder",
      "outputs": [
        {
          "internalType": "bool",
          "name": "",
          "type": "bool"
        }
      ],
      "stateMutability": "view",
      "type": "function"
    },
    {
      "inputs": [],
      "name": "metadataDescriptor",
      "outputs": [
        {
          "internalType": "contract IERC3525MetadataDescriptorUpgradeable",
          "name": "",
          "type": "address"
        }
      ],
      "stateMutability": "view",
      "type": "function"
    },
    {
      "inputs": [
        {
          "internalType": "address",
          "name": "to",
          "type": "address"
        },
        {
          "internalType": "uint256",
          "name": "network",
          "type": "uint256"
        },
        {
          "internalType": "uint256",
          "name": "expiration",
          "type": "uint256"
        },
        {
          "internalType": "uint256",
          "name": "mask",
          "type": "uint256"
        },
        {
          "components": [
            {
              "internalType": "uint256",
              "name": "value",
              "type": "uint256"
            },
            {
              "internalType": "enum ChargeType",
              "name": "chargeType",
              "type": "uint8"
            },
            {
              "internalType": "address",
              "name": "token",
              "type": "address"
            },
            {
              "internalType": "address",
              "name": "tokenSender",
              "type": "address"
            },
            {
              "internalType": "address",
              "name": "recipient",
              "type": "address"
            }
          ],
          "internalType": "struct Charge",
          "name": "charge",
          "type": "tuple"
        }
      ],
      "name": "mint",
      "outputs": [],
      "stateMutability": "payable",
      "type": "function"
    },
    {
      "inputs": [],
      "name": "name",
      "outputs": [
        {
          "internalType": "string",
          "name": "",
          "type": "string"
        }
      ],
      "stateMutability": "view",
      "type": "function"
    },
    {
      "inputs": [
        {
          "internalType": "uint256",
          "name": "network",
          "type": "uint256"
        },
        {
          "internalType": "enum GatewayToken.NetworkFeature",
          "name": "feature",
          "type": "uint8"
        }
      ],
      "name": "networkHasFeature",
      "outputs": [
        {
          "internalType": "bool",
          "name": "",
          "type": "bool"
        }
      ],
      "stateMutability": "view",
      "type": "function"
    },
    {
      "inputs": [
        {
          "internalType": "uint256",
          "name": "tokenId_",
          "type": "uint256"
        }
      ],
      "name": "ownerOf",
      "outputs": [
        {
          "internalType": "address",
          "name": "owner_",
          "type": "address"
        }
      ],
      "stateMutability": "view",
      "type": "function"
    },
    {
      "inputs": [],
      "name": "proxiableUUID",
      "outputs": [
        {
          "internalType": "bytes32",
          "name": "",
          "type": "bytes32"
        }
      ],
      "stateMutability": "view",
      "type": "function"
    },
    {
      "inputs": [
        {
          "internalType": "address",
          "name": "forwarder",
          "type": "address"
        }
      ],
      "name": "removeForwarder",
      "outputs": [],
      "stateMutability": "nonpayable",
      "type": "function"
    },
    {
      "inputs": [
        {
          "internalType": "address",
          "name": "gatekeeper",
          "type": "address"
        },
        {
          "internalType": "uint256",
          "name": "network",
          "type": "uint256"
        }
      ],
      "name": "removeGatekeeper",
      "outputs": [],
      "stateMutability": "nonpayable",
      "type": "function"
    },
    {
      "inputs": [
        {
          "internalType": "address",
          "name": "authority",
          "type": "address"
        },
        {
          "internalType": "uint256",
          "name": "network",
          "type": "uint256"
        }
      ],
      "name": "removeNetworkAuthority",
      "outputs": [],
      "stateMutability": "nonpayable",
      "type": "function"
    },
    {
      "inputs": [
        {
          "internalType": "uint256",
          "name": "network",
          "type": "uint256"
        },
        {
          "internalType": "string",
          "name": "name",
          "type": "string"
        }
      ],
      "name": "renameNetwork",
      "outputs": [],
      "stateMutability": "nonpayable",
      "type": "function"
    },
    {
      "inputs": [
        {
          "internalType": "bytes32",
          "name": "role",
          "type": "bytes32"
        },
        {
          "internalType": "uint256",
          "name": "domain",
          "type": "uint256"
        },
        {
          "internalType": "address",
          "name": "account",
          "type": "address"
        }
      ],
      "name": "renounceRole",
      "outputs": [],
      "stateMutability": "nonpayable",
      "type": "function"
    },
    {
      "inputs": [
        {
          "internalType": "uint256",
          "name": "tokenId",
          "type": "uint256"
        }
      ],
      "name": "revoke",
      "outputs": [],
      "stateMutability": "nonpayable",
      "type": "function"
    },
    {
      "inputs": [
        {
          "internalType": "bytes32",
          "name": "role",
          "type": "bytes32"
        },
        {
          "internalType": "uint256",
          "name": "domain",
          "type": "uint256"
        },
        {
          "internalType": "address",
          "name": "account",
          "type": "address"
        }
      ],
      "name": "revokeRole",
      "outputs": [],
      "stateMutability": "nonpayable",
      "type": "function"
    },
    {
      "inputs": [
        {
          "internalType": "address",
          "name": "account",
          "type": "address"
        }
      ],
      "name": "revokeSuperAdmin",
      "outputs": [],
      "stateMutability": "nonpayable",
      "type": "function"
    },
    {
      "inputs": [
        {
          "internalType": "address",
          "name": "from_",
          "type": "address"
        },
        {
          "internalType": "address",
          "name": "to_",
          "type": "address"
        },
        {
          "internalType": "uint256",
          "name": "tokenId_",
          "type": "uint256"
        }
      ],
      "name": "safeTransferFrom",
      "outputs": [],
      "stateMutability": "payable",
      "type": "function"
    },
    {
      "inputs": [
        {
          "internalType": "address",
          "name": "from_",
          "type": "address"
        },
        {
          "internalType": "address",
          "name": "to_",
          "type": "address"
        },
        {
          "internalType": "uint256",
          "name": "tokenId_",
          "type": "uint256"
        },
        {
          "internalType": "bytes",
          "name": "data_",
          "type": "bytes"
        }
      ],
      "name": "safeTransferFrom",
      "outputs": [],
      "stateMutability": "payable",
      "type": "function"
    },
    {
      "inputs": [
        {
          "internalType": "address",
          "name": "operator_",
          "type": "address"
        },
        {
          "internalType": "bool",
          "name": "approved_",
          "type": "bool"
        }
      ],
      "name": "setApprovalForAll",
      "outputs": [],
      "stateMutability": "nonpayable",
      "type": "function"
    },
    {
      "inputs": [
        {
          "internalType": "uint256",
          "name": "tokenId",
          "type": "uint256"
        },
        {
          "internalType": "uint256",
          "name": "mask",
          "type": "uint256"
        }
      ],
      "name": "setBitmask",
      "outputs": [],
      "stateMutability": "nonpayable",
      "type": "function"
    },
    {
      "inputs": [
        {
          "internalType": "uint256",
          "name": "tokenId",
          "type": "uint256"
        },
        {
          "internalType": "uint256",
          "name": "timestamp",
          "type": "uint256"
        },
        {
          "components": [
            {
              "internalType": "uint256",
              "name": "value",
              "type": "uint256"
            },
            {
              "internalType": "enum ChargeType",
              "name": "chargeType",
              "type": "uint8"
            },
            {
              "internalType": "address",
              "name": "token",
              "type": "address"
            },
            {
              "internalType": "address",
              "name": "tokenSender",
              "type": "address"
            },
            {
              "internalType": "address",
              "name": "recipient",
              "type": "address"
            }
          ],
          "internalType": "struct Charge",
          "name": "charge",
          "type": "tuple"
        }
      ],
      "name": "setExpiration",
      "outputs": [],
      "stateMutability": "payable",
      "type": "function"
    },
    {
      "inputs": [
        {
          "internalType": "address",
          "name": "_metadataDescriptor",
          "type": "address"
        }
      ],
      "name": "setMetadataDescriptor",
      "outputs": [],
      "stateMutability": "nonpayable",
      "type": "function"
    },
    {
      "inputs": [
        {
          "internalType": "uint256",
          "name": "network",
          "type": "uint256"
        },
        {
          "internalType": "uint256",
          "name": "mask",
          "type": "uint256"
        }
      ],
      "name": "setNetworkFeatures",
      "outputs": [],
      "stateMutability": "nonpayable",
      "type": "function"
    },
    {
      "inputs": [
        {
          "internalType": "address",
          "name": "account",
          "type": "address"
        }
      ],
      "name": "setSuperAdmin",
      "outputs": [],
      "stateMutability": "nonpayable",
      "type": "function"
    },
    {
      "inputs": [
        {
          "internalType": "uint256",
          "name": "tokenId_",
          "type": "uint256"
        }
      ],
      "name": "slotOf",
      "outputs": [
        {
          "internalType": "uint256",
          "name": "",
          "type": "uint256"
        }
      ],
      "stateMutability": "view",
      "type": "function"
    },
    {
      "inputs": [
        {
          "internalType": "uint256",
          "name": "slot_",
          "type": "uint256"
        }
      ],
      "name": "slotURI",
      "outputs": [
        {
          "internalType": "string",
          "name": "",
          "type": "string"
        }
      ],
      "stateMutability": "view",
      "type": "function"
    },
    {
      "inputs": [
        {
          "internalType": "bytes4",
          "name": "interfaceId",
          "type": "bytes4"
        }
      ],
      "name": "supportsInterface",
      "outputs": [
        {
          "internalType": "bool",
          "name": "",
          "type": "bool"
        }
      ],
      "stateMutability": "view",
      "type": "function"
    },
    {
      "inputs": [],
      "name": "symbol",
      "outputs": [
        {
          "internalType": "string",
          "name": "",
          "type": "string"
        }
      ],
      "stateMutability": "view",
      "type": "function"
    },
    {
      "inputs": [
        {
          "internalType": "uint256",
          "name": "index_",
          "type": "uint256"
        }
      ],
      "name": "tokenByIndex",
      "outputs": [
        {
          "internalType": "uint256",
          "name": "",
          "type": "uint256"
        }
      ],
      "stateMutability": "view",
      "type": "function"
    },
    {
      "inputs": [
        {
          "internalType": "address",
          "name": "owner_",
          "type": "address"
        },
        {
          "internalType": "uint256",
          "name": "index_",
          "type": "uint256"
        }
      ],
      "name": "tokenOfOwnerByIndex",
      "outputs": [
        {
          "internalType": "uint256",
          "name": "",
          "type": "uint256"
        }
      ],
      "stateMutability": "view",
      "type": "function"
    },
    {
      "inputs": [
        {
          "internalType": "uint256",
          "name": "tokenId_",
          "type": "uint256"
        }
      ],
      "name": "tokenURI",
      "outputs": [
        {
          "internalType": "string",
          "name": "",
          "type": "string"
        }
      ],
      "stateMutability": "view",
      "type": "function"
    },
    {
      "inputs": [],
      "name": "totalSupply",
      "outputs": [
        {
          "internalType": "uint256",
          "name": "",
          "type": "uint256"
        }
      ],
      "stateMutability": "view",
      "type": "function"
    },
    {
      "inputs": [
        {
          "internalType": "address",
          "name": "previousManager",
          "type": "address"
        },
        {
          "internalType": "address",
          "name": "newManager",
          "type": "address"
        },
        {
          "internalType": "uint256",
          "name": "network",
          "type": "uint256"
        }
      ],
      "name": "transferDAOManager",
      "outputs": [],
      "stateMutability": "nonpayable",
      "type": "function"
    },
    {
      "inputs": [
        {
          "internalType": "uint256",
          "name": "fromTokenId_",
          "type": "uint256"
        },
        {
          "internalType": "address",
          "name": "to_",
          "type": "address"
        },
        {
          "internalType": "uint256",
          "name": "value_",
          "type": "uint256"
        }
      ],
      "name": "transferFrom",
      "outputs": [
        {
          "internalType": "uint256",
          "name": "newTokenId",
          "type": "uint256"
        }
      ],
      "stateMutability": "payable",
      "type": "function"
    },
    {
      "inputs": [
        {
          "internalType": "address",
          "name": "from_",
          "type": "address"
        },
        {
          "internalType": "address",
          "name": "to_",
          "type": "address"
        },
        {
          "internalType": "uint256",
          "name": "tokenId_",
          "type": "uint256"
        }
      ],
      "name": "transferFrom",
      "outputs": [],
      "stateMutability": "payable",
      "type": "function"
    },
    {
      "inputs": [
        {
          "internalType": "uint256",
          "name": "fromTokenId_",
          "type": "uint256"
        },
        {
          "internalType": "uint256",
          "name": "toTokenId_",
          "type": "uint256"
        },
        {
          "internalType": "uint256",
          "name": "value_",
          "type": "uint256"
        }
      ],
      "name": "transferFrom",
      "outputs": [],
      "stateMutability": "payable",
      "type": "function"
    },
    {
      "inputs": [],
      "name": "transfersRestricted",
      "outputs": [
        {
          "internalType": "bool",
          "name": "",
          "type": "bool"
        }
      ],
      "stateMutability": "pure",
      "type": "function"
    },
    {
      "inputs": [
        {
          "internalType": "uint256",
          "name": "tokenId",
          "type": "uint256"
        }
      ],
      "name": "unfreeze",
      "outputs": [],
      "stateMutability": "nonpayable",
      "type": "function"
    },
    {
      "inputs": [
        {
          "internalType": "address",
          "name": "flagsStorage",
          "type": "address"
        }
      ],
      "name": "updateFlagsStorage",
      "outputs": [],
      "stateMutability": "nonpayable",
      "type": "function"
    },
    {
      "inputs": [
        {
          "internalType": "address",
          "name": "newImplementation",
          "type": "address"
        }
      ],
      "name": "upgradeTo",
      "outputs": [],
      "stateMutability": "nonpayable",
      "type": "function"
    },
    {
      "inputs": [
        {
          "internalType": "address",
          "name": "newImplementation",
          "type": "address"
        },
        {
          "internalType": "bytes",
          "name": "data",
          "type": "bytes"
        }
      ],
      "name": "upgradeToAndCall",
      "outputs": [],
      "stateMutability": "payable",
      "type": "function"
    },
    {
      "inputs": [],
      "name": "valueDecimals",
      "outputs": [
        {
          "internalType": "uint8",
          "name": "",
          "type": "uint8"
        }
      ],
      "stateMutability": "view",
      "type": "function"
    },
    {
      "inputs": [
        {
          "internalType": "address",
          "name": "owner",
          "type": "address"
        },
        {
          "internalType": "uint256",
          "name": "network",
          "type": "uint256"
        }
      ],
      "name": "verifyToken",
      "outputs": [
        {
          "internalType": "bool",
          "name": "",
          "type": "bool"
        }
      ],
      "stateMutability": "view",
      "type": "function"
    },
    {
      "inputs": [
        {
          "internalType": "uint256",
          "name": "tokenId",
          "type": "uint256"
        }
      ],
      "name": "verifyToken",
      "outputs": [
        {
          "internalType": "bool",
          "name": "",
          "type": "bool"
        }
      ],
      "stateMutability": "view",
      "type": "function"
    }
  ],
  "bytecode": "0x60a0604052306080523480156200001557600080fd5b506200002062000026565b620000e8565b600054610100900460ff1615620000935760405162461bcd60e51b815260206004820152602760248201527f496e697469616c697a61626c653a20636f6e747261637420697320696e697469604482015266616c697a696e6760c81b606482015260840160405180910390fd5b60005460ff9081161015620000e6576000805460ff191660ff9081179091556040519081527f7f26b83ff96e1f2b6a682f133852f6798a09c465da95921460cefb38474024989060200160405180910390a15b565b608051615ca9620001206000396000818161156e015281816115ae015281816116e60152818161172601526118590152615ca96000f3fe6080604052600436106104075760003560e01c806381e9ff1911610214578063b88d4fde1161011e578063df2a7fe1116100b6578063e8a3d4851161007a578063e8a3d48514610cd2578063e985e9c514610ce7578063f415999014610d34578063ff17e23214610d61578063ff85a97514610d8157600080fd5b8063df2a7fe114610c08578063df7f453b14610c28578063e345e0bc14610c61578063e4b50cb814610c81578063e71fb11014610cb257600080fd5b8063b88d4fde14610b00578063babb898d14610b13578063bfea1f9714610b33578063c2a366fb14610b53578063c58dbbed14610b73578063c87b56dd14610b93578063ce6da01a14610bb3578063d6fd317514610bc6578063d7a78db814610be857600080fd5b806395ea5717116101ac578063a22cb46511610170578063a22cb46514610a50578063a578c09314610a70578063a8fa8e0d14610aa0578063b4bd857914610ac0578063b5d6163514610ae057600080fd5b806395ea5717146109bb5780639c7525e6146109db5780639cc7f708146109fb578063a05b775f14610a1b578063a217fddf14610a3b57600080fd5b806381e9ff19146108c257806382d66d5f146108e457806383b2b27614610904578063840f7113146109245780638423df79146109445780638cb0a511146109585780638eb7a7761461096657806390eddd521461098657806395d89b41146109a657600080fd5b80633659cfe61161031557806352d1902d116102ad5780636dba2729116102715780636dba2729146108205780636f7caf411461084057806370a082311461086257806370f08160146108825780637dbded28146108a257600080fd5b806352d1902d14610772578063572b6c05146107875780635c41d2fe146107c05780636352211e146107e05780636623fc461461080057600080fd5b80633659cfe61461066a57806336e450411461068a5780633e7e8669146106aa57806342842e0e146106cc57806342966c68146106df5780634d93172d146106ff5780634f1ef2861461071f5780634f6ccce71461073257806351da912d1461075257600080fd5b806323287f24116103a3578063310ed7f011610367578063310ed7f0146105c157806331416a29146105d457806334d7a95e146105f457806334e37b8a1461062a5780633568dd291461064a57600080fd5b806323287f241461053b57806323b872dd1461054e578063263f3e7e146105615780632d33d27a146105815780632f745c59146105a157600080fd5b806301ffc9a71461040c57806306fdde0314610441578063081812fc14610463578063095ea7b31461049057806309c3dd87146104a55780630f485c02146104c557806315700052146104e657806318160ddd1461050657806320c5429b1461051b575b600080fd5b34801561041857600080fd5b5061042c610427366004614cc7565b610da1565b60405190151581526020015b60405180910390f35b34801561044d57600080fd5b50610456610e02565b6040516104389190614d34565b34801561046f57600080fd5b5061048361047e366004614d47565b610e94565b6040516104389190614d60565b6104a361049e366004614d8b565b610ee6565b005b3480156104b157600080fd5b506104566104c0366004614d47565b610eff565b6104d86104d3366004614db5565b610ff1565b604051908152602001610438565b3480156104f257600080fd5b506104a3610501366004614dea565b611030565b34801561051257600080fd5b50609d546104d8565b34801561052757600080fd5b506104a3610536366004614d47565b611090565b6104a3610549366004614e1d565b6110e4565b6104a361055c366004614e6f565b61116a565b34801561056d57600080fd5b506104d861057c366004614d47565b6111b0565b34801561058d57600080fd5b5060cc54610483906001600160a01b031681565b3480156105ad57600080fd5b506104d86105bc366004614d8b565b6111f8565b6104a36105cf366004614e9b565b611299565b3480156105e057600080fd5b506104a36105ef366004614f0f565b6112b6565b34801561060057600080fd5b5061048361060f366004614d47565b600090815260d260205260409020546001600160a01b031690565b34801561063657600080fd5b506104a3610645366004614dea565b611533565b34801561065657600080fd5b506104a3610665366004614d8b565b611547565b34801561067657600080fd5b506104a3610685366004614dea565b611564565b34801561069657600080fd5b506104a36106a5366004614ffc565b611629565b3480156106b657600080fd5b50609a5460405160ff9091168152602001610438565b6104a36106da366004614e6f565b61167f565b3480156106eb57600080fd5b506104a36106fa366004614d47565b61169a565b34801561070b57600080fd5b506104a361071a366004614dea565b6116af565b6104a361072d3660046150f4565b6116dc565b34801561073e57600080fd5b506104d861074d366004614d47565b611791565b34801561075e57600080fd5b506104a361076d366004615141565b611822565b34801561077e57600080fd5b506104d861184c565b34801561079357600080fd5b5061042c6107a2366004614dea565b6001600160a01b031660009081526097602052604090205460ff1690565b3480156107cc57600080fd5b506104a36107db366004614dea565b6118fa565b3480156107ec57600080fd5b506104836107fb366004614d47565b61192a565b34801561080c57600080fd5b506104a361081b366004614d47565b61199a565b34801561082c57600080fd5b5061042c61083b366004614d8b565b6119af565b34801561084c57600080fd5b506104d8600080516020615c0d83398151915281565b34801561086e57600080fd5b506104d861087d366004614dea565b6119ca565b34801561088e57600080fd5b506104a361089d366004614d8b565b611a52565b3480156108ae57600080fd5b506104a36108bd366004615171565b611a6b565b3480156108ce57600080fd5b506104d8600080516020615b8d83398151915281565b3480156108f057600080fd5b506104a36108ff366004614d8b565b611c5a565b34801561091057600080fd5b506104a361091f366004615141565b611c73565b34801561093057600080fd5b5060a054610483906001600160a01b031681565b34801561095057600080fd5b50600161042c565b6104a361049e366004614db5565b34801561097257600080fd5b506104a3610981366004614ffc565b611c9d565b34801561099257600080fd5b506104a36109a1366004614d8b565b611cbd565b3480156109b257600080fd5b50610456611cd6565b3480156109c757600080fd5b506104566109d6366004614d47565b611ce5565b3480156109e757600080fd5b506104a36109f63660046151d4565b611d87565b348015610a0757600080fd5b506104d8610a16366004614d47565b611e37565b348015610a2757600080fd5b506104d8610a36366004614d47565b611e7f565b348015610a4757600080fd5b506104d8600081565b348015610a5c57600080fd5b506104a3610a6b36600461521f565b611e9d565b348015610a7c57600080fd5b5061042c610a8b366004614d47565b60ce6020526000908152604090205460ff1681565b348015610aac57600080fd5b506104a3610abb366004614e6f565b611eaf565b348015610acc57600080fd5b506104d8610adb366004614d47565b611ff7565b348015610aec57600080fd5b506104a3610afb366004614ffc565b61200b565b6104a3610b0e366004615256565b61202b565b348015610b1f57600080fd5b5061042c610b2e366004614ffc565b61205e565b348015610b3f57600080fd5b5061042c610b4e3660046152bd565b61208f565b348015610b5f57600080fd5b5061042c610b6e366004614d8b565b6120c2565b348015610b7f57600080fd5b506104a3610b8e366004614dea565b6120dd565b348015610b9f57600080fd5b50610456610bae366004614d47565b61213a565b6104a3610bc13660046152e6565b6121d9565b348015610bd257600080fd5b506104d8600080516020615bad83398151915281565b348015610bf457600080fd5b506104a3610c03366004614d47565b6121f8565b348015610c1457600080fd5b506104d8610c23366004615141565b61220d565b348015610c3457600080fd5b5061042c610c43366004614dea565b6001600160a01b0316600090815260cb602052604090205460ff1690565b348015610c6d57600080fd5b506104d8610c7c366004615313565b61222c565b348015610c8d57600080fd5b50610ca1610c9c366004614d47565b612260565b60405161043895949392919061533f565b348015610cbe57600080fd5b506104a3610ccd366004614dea565b6122c0565b348015610cde57600080fd5b506104566122d1565b348015610cf357600080fd5b5061042c610d02366004615380565b6001600160a01b039182166000908152609f602090815260408083209390941682526002909201909152205460ff1690565b348015610d4057600080fd5b50610d54610d4f3660046153aa565b6123cb565b60405161043891906153ea565b348015610d6d57600080fd5b5061042c610d7c366004614d8b565b612484565b348015610d8d57600080fd5b5061042c610d9c366004614d47565b61249e565b60006001600160e01b03198216630354d60560e61b1480610dd257506001600160e01b031982166380ac58cd60e01b145b80610ded57506001600160e01b031982166370b0048160e11b145b80610dfc5750610dfc826124ab565b92915050565b606060988054610e119061542e565b80601f0160208091040260200160405190810160405280929190818152602001828054610e3d9061542e565b8015610e8a5780601f10610e5f57610100808354040283529160200191610e8a565b820191906000526020600020905b815481529060010190602001808311610e6d57829003601f168201915b5050505050905090565b6000610e9f826124e0565b6000828152609e6020526040902054609d80549091908110610ec357610ec3615462565b60009182526020909120600460069092020101546001600160a01b031692915050565b60405163c03a3ff560e01b815260040160405180910390fd5b60606000610f1860408051602081019091526000815290565b60a0549091506001600160a01b0316610f78576000815111610f495760405180602001604052806000815250610fea565b80610f5384612505565b604051602001610f64929190615478565b604051602081830303815290604052610fea565b60a054604051633601bfc560e11b8152600481018590526001600160a01b0390911690636c037f8a906024015b600060405180830381865afa158015610fc2573d6000803e3d6000fd5b505050506040513d6000823e601f3d908101601f19168201604052610fea91908101906154b8565b9392505050565b6000611005610ffe612597565b85846125a6565b61100e84612621565b9050611025838261101e876111b0565b600061262b565b610fea848284612755565b611038612a34565b6040516001600160a01b038216907f286f82d2b1e37b5e9f33e455d014b4a5f6c29388e6e41e1281d4c83e04f4265590600090a26001600160a01b0316600090815260cb60205260409020805460ff19166001179055565b6110a161109c826111b0565b612a46565b600081815260cf6020526040808220805460ff191660021790555182917fdb43aa42235c8d63908794a952603e8d43a549383d13123c3d893a3fc2e6249591a250565b6110ed84612a46565b60006110fb86866001612a5e565b9050831561111557600081815260d0602052604090208490555b8215611125576111258184612a76565b61112d612597565b600082815260d26020526040902080546001600160a01b0319166001600160a01b039290921691909117905561116282612ac5565b505050505050565b61117b611175612597565b50600090565b6111a05760405162461bcd60e51b81526004016111979061553b565b60405180910390fd5b6111ab838383612dc4565b505050565b60006111bb826124e0565b6000828152609e6020526040902054609d805490919081106111df576111df615462565b9060005260206000209060060201600101549050919050565b6000611203836119ca565b821061125c5760405162461bcd60e51b815260206004820152602260248201527f455243333532353a206f776e657220696e646578206f7574206f6620626f756e604482015261647360f01b6064820152608401611197565b6001600160a01b0383166000908152609f6020526040902080548390811061128657611286615462565b9060005260206000200154905092915050565b6112ab6112a4612597565b84836125a6565b6111ab838383612755565b600054610100900460ff16158080156112d65750600054600160ff909116105b806112f757506112e530612f13565b1580156112f7575060005460ff166001145b61135a5760405162461bcd60e51b815260206004820152602e60248201527f496e697469616c697a61626c653a20636f6e747261637420697320616c72656160448201526d191e481a5b9a5d1a585b1a5e995960921b6064820152608401611197565b6000805460ff19166001179055801561137d576000805461ff0019166101001790555b6001600160a01b0385166113a457604051630ca2c90160e21b815260040160405180910390fd5b6001600160a01b0384166113cb57604051630ca2c90160e21b815260040160405180910390fd5b60005b828110156114385760008484838181106113ea576113ea615462565b90506020020160208101906113ff9190614dea565b6001600160a01b03160361142657604051630ca2c90160e21b815260040160405180910390fd5b80611430816155a3565b9150506113ce565b506114ac89898080601f01602080910402602001604051908101604052809392919081815260200183838082843760009201919091525050604080516020601f8d018190048102820181019092528b815292508b91508a908190840183828082843760009201829052509250612f22915050565b6114b68383612f54565b6114bf84612f8d565b6001600160a01b038516600090815260cb60205260409020805460ff191660011790558015611528576000805461ff0019169055604051600181527f7f26b83ff96e1f2b6a682f133852f6798a09c465da95921460cefb38474024989060200160405180910390a15b505050505050505050565b61153b612a34565b61154481612f8d565b50565b611560600080516020615bad8339815191528284611c9d565b5050565b6001600160a01b037f00000000000000000000000000000000000000000000000000000000000000001630036115ac5760405162461bcd60e51b8152600401611197906155bc565b7f00000000000000000000000000000000000000000000000000000000000000006001600160a01b03166115de612fd7565b6001600160a01b0316146116045760405162461bcd60e51b815260040161119790615608565b61160d81612ff3565b6040805160008082526020820190925261154491839190612ffb565b611631612597565b6001600160a01b0316816001600160a01b031614611674576040516307ca099360e31b8152600481018490526001600160a01b0382166024820152604401611197565b6111ab838383613166565b6111ab8383836040518060200160405280600081525061202b565b6116a661109c826111b0565b61154481613202565b6116b7612a34565b611544816001600160a01b03166000908152609760205260409020805460ff19169055565b6001600160a01b037f00000000000000000000000000000000000000000000000000000000000000001630036117245760405162461bcd60e51b8152600401611197906155bc565b7f00000000000000000000000000000000000000000000000000000000000000006001600160a01b0316611756612fd7565b6001600160a01b03161461177c5760405162461bcd60e51b815260040161119790615608565b61178582612ff3565b61156082826001612ffb565b600061179c609d5490565b82106117f65760405162461bcd60e51b815260206004820152602360248201527f455243333532353a20676c6f62616c20696e646578206f7574206f6620626f756044820152626e647360e81b6064820152608401611197565b609d828154811061180957611809615462565b9060005260206000209060060201600001549050919050565b611842600080516020615bad83398151915261183d846111b0565b6132ff565b6115608282612a76565b6000306001600160a01b037f000000000000000000000000000000000000000000000000000000000000000016146118e75760405162461bcd60e51b815260206004820152603860248201527f555550535570677261646561626c653a206d757374206e6f742062652063616c6044820152771b1959081d1a1c9bdd59da0819195b1959d85d1958d85b1b60421b6064820152608401611197565b50600080516020615bed83398151915290565b611902612a34565b611544816001600160a01b03166000908152609760205260409020805460ff19166001179055565b6000611935826124e0565b6000828152609e6020526040902054609d8054909190811061195957611959615462565b60009182526020909120600360069092020101546001600160a01b03169050806119955760405162461bcd60e51b815260040161119790615654565b919050565b6119a661109c826111b0565b61154481613311565b6000610fea600080516020615bad833981519152838561205e565b60006001600160a01b038216611a365760405162461bcd60e51b815260206004820152602b60248201527f455243333532353a2062616c616e636520717565727920666f7220746865207a60448201526a65726f206164647265737360a81b6064820152608401611197565b506001600160a01b03166000908152609f602052604090205490565b611560600080516020615bad833981519152828461200b565b600085815260d1602052604090208054611a849061542e565b159050611aa757604051636f55f62b60e01b815260048101869052602401611197565b600085815260d160205260409020611ac08486836156e2565b508115611be557600085815260ce60205260409020805460ff19168315151790556001600160a01b038116611b0857604051630ca2c90160e21b815260040160405180910390fd5b611b1a816001600160a01b0316612f13565b611b39578060405163d4daafa160e01b81526004016111979190614d60565b611b52600080516020615b8d83398151915286836133b8565b611b6b600080516020615c0d83398151915286836133b8565b611b92600080516020615c0d83398151915286600080516020615b8d833981519152613449565b611bb9600080516020615bad83398151915286600080516020615b8d833981519152613449565b611be0600080516020615b8d83398151915286600080516020615b8d833981519152613449565b611c53565b611c05600080516020615c0d83398151915286611c00612597565b6133b8565b611c2c600080516020615c0d83398151915286600080516020615c0d833981519152613449565b611c53600080516020615bad83398151915286600080516020615c0d833981519152613449565b5050505050565b611560600080516020615c0d8339815191528284611c9d565b611c8b600080516020615c0d833981519152836132ff565b600091825260d3602052604090912055565b611ca7838361220d565b82611cb282826132ff565b611c53858585613166565b611560600080516020615c0d833981519152828461200b565b606060998054610e119061542e565b600081815260d160205260409020805460609190611d029061542e565b80601f0160208091040260200160405190810160405280929190818152602001828054611d2e9061542e565b8015611d7b5780601f10611d5057610100808354040283529160200191611d7b565b820191906000526020600020905b815481529060010190602001808311611d5e57829003601f168201915b50505050509050919050565b600083815260d1602052604090208054611da09061542e565b9050600003611dc557604051630817886d60e41b815260048101849052602401611197565b611de0600080516020615c0d83398151915284610b2e612597565b611e1857611dec612597565b83600080516020615c0d83398151915260405163c8c801a760e01b81526004016111979392919061579b565b600083815260d160205260409020611e318284836156e2565b50505050565b6000611e42826124e0565b6000828152609e6020526040902054609d80549091908110611e6657611e66615462565b9060005260206000209060060201600201549050919050565b6000611e8a826134b4565b50600090815260d0602052604090205490565b611560611ea8612597565b83836134dd565b600081815260ce602052604090205460ff16611ee15760405163db53ce7160e01b815260048101829052602401611197565b611efa600080516020615b8d83398151915282856135b0565b6001600160a01b038216611f2157604051630ca2c90160e21b815260040160405180910390fd5b611f3a600080516020615b8d833981519152828461200b565b611f53600080516020615c0d833981519152828461200b565b611f6c600080516020615bad833981519152828461200b565b611f85600080516020615bad8339815191528285611c9d565b611f9e600080516020615c0d8339815191528285611c9d565b611fb7600080516020615b8d8339815191528285611c9d565b7f744258a28673e8738e2812c0ab8e8dbd70352f8871b1febac0dd753d96d79f58838383604051611fea939291906157bc565b60405180910390a1505050565b600081815260cd6020526040812054610dfc565b612015838361220d565b8261202082826132ff565b611c538585856133b8565b612036611175612597565b6120525760405162461bcd60e51b81526004016111979061553b565b611e31848484846135de565b600091825260ca602090815260408084209484529381528383206001600160a01b0392909216835252205460ff1690565b6000610fea8280156120a3576120a3615525565b600085815260d3602052604090205490600160ff919091161b16151590565b6000610fea600080516020615c0d833981519152838561205e565b6120e5612a34565b6040516001600160a01b038216907ffb445f6ec07647d2bb7af72821e6b8b7303ec375e934d4a338d38ed5846c2d5690600090a26001600160a01b0316600090815260cb60205260409020805460ff19169055565b6060612145826124e0565b600061215c60408051602081019091526000815290565b60a0549091506001600160a01b03166121a857600081511161218d5760405180602001604052806000815250610fea565b8061219784612505565b604051602001610f649291906157e0565b60a0546040516344a5a61760e11b8152600481018590526001600160a01b039091169063894b4c2e90602401610fa5565b6121e561109c846111b0565b6121ef8383613651565b6111ab81612ac5565b61220461109c826111b0565b611544816136ad565b600090815260ca60209081526040808320938352929052206001015490565b6000612237836124e0565b506000918252609c602090815260408084206001600160a01b0393909316845291905290205490565b60008060606000806122718661192a565b600087815260cf602052604090205490955060ff16600281111561229757612297615525565b600096875260d0602090815260408089205460cd90925290972054959790969395939450915050565b6122c8612a34565b611544816136fb565b606060006122ea60408051602081019091526000815290565b60a0549091506001600160a01b031661234a57600081511161231b57604051806020016040528060008152506123c5565b8061232530613745565b60405160200161233692919061580f565b6040516020818303038152906040526123c5565b60a060009054906101000a90046001600160a01b03166001600160a01b031663725fa09c6040518163ffffffff1660e01b8152600401600060405180830381865afa15801561239d573d6000803e3d6000fd5b505050506040513d6000823e601f3d908101601f191682016040526123c591908101906154b8565b91505090565b60606000806123db86868661375b565b915091506000816001600160401b038111156123f9576123f9615031565b604051908082528060200260200182016040528015612422578160200160208202803683370190505b50905060005b828110156124795783818151811061244257612442615462565b602002602001015182828151811061245c5761245c615462565b602090810291909101015280612471816155a3565b915050612428565b509695505050505050565b6000806124938484600161375b565b151595945050505050565b6000610dfc826000613841565b60006001600160e01b031982166333cb74f560e11b1480610dfc57506301ffc9a760e01b6001600160e01b0319831614610dfc565b6124e981613955565b6115445760405162461bcd60e51b815260040161119790615654565b60606000612512836139a1565b60010190506000816001600160401b0381111561253157612531615031565b6040519080825280601f01601f19166020018201604052801561255b576020820181803683370190505b5090508181016020015b600019016f181899199a1a9b1b9c1cb0b131b232b360811b600a86061a8153600a850494508461256557509392505050565b60006125a1613a79565b905090565b60006125b2838561222c565b90506000198114611e31578181101561260d5760405162461bcd60e51b815260206004820152601f60248201527f455243333532353a20696e73756666696369656e7420616c6c6f77616e6365006044820152606401611197565b611e31838561261c8585615853565b613aa3565b6000610dfc613bd2565b6001600160a01b03841661268b5760405162461bcd60e51b815260206004820152602160248201527f455243333532353a206d696e7420746f20746865207a65726f206164647265736044820152607360f81b6064820152608401611197565b826000036126e55760405162461bcd60e51b815260206004820152602160248201527f455243333532353a2063616e6e6f74206d696e74207a65726f20746f6b656e496044820152601960fa1b6064820152608401611197565b6126ee83613955565b1561273b5760405162461bcd60e51b815260206004820152601d60248201527f455243333532353a20746f6b656e20616c7265616479206d696e7465640000006044820152606401611197565b612746848484613be9565b6127508382613c9d565b611e31565b61275e83613955565b6127ba5760405162461bcd60e51b815260206004820152602760248201527f455243333532353a207472616e736665722066726f6d20696e76616c696420746044820152661bdad95b88125160ca1b6064820152608401611197565b6127c382613955565b61281d5760405162461bcd60e51b815260206004820152602560248201527f455243333532353a207472616e7366657220746f20696e76616c696420746f6b604482015264195b88125160da1b6064820152608401611197565b6000838152609e6020526040812054609d8054909190811061284157612841615462565b906000526020600020906006020190506000609d609e6000868152602001908152602001600020548154811061287957612879615462565b9060005260206000209060060201905082826002015410156128f05760405162461bcd60e51b815260206004820152602a60248201527f455243333532353a20696e73756666696369656e742062616c616e636520666f60448201526939103a3930b739b332b960b11b6064820152608401611197565b806001015482600101541461295e5760405162461bcd60e51b815260206004820152602e60248201527f455243333532353a207472616e7366657220746f20746f6b656e20776974682060448201526d191a5999995c995b9d081cdb1bdd60921b6064820152608401611197565b828260020160008282546129729190615853565b925050819055508281600201600082825461298d9190615866565b909155505060405183815284908690600080516020615bcd8339815191529060200160405180910390a36129d285858560405180602001604052806000815250613d10565b611c535760405162461bcd60e51b815260206004820152602d60248201527f455243333532353a207472616e736665722072656a656374656420627920455260448201526c21999a991aa932b1b2b4bb32b960991b6064820152608401611197565b612a44612a3f612597565b613e53565b565b611544600080516020615bad833981519152826132ff565b6000612a68613bd2565b9050610fea8482858561262b565b600082815260cd602090815260409182902083905581518481529081018390527f5e07998cef9cea674942c66f0ea7b0bce89ab9473ce240cc93d616c3491f8aeb910160405180910390a15050565b6001612ad76040830160208401615888565b6002811115612ae857612ae8615525565b03612bd9578035341015612b18576040516365a2b20160e01b815234600482015281356024820152604401611197565b7f435e19089f6ae5362a112155f011980907d2ff69b4c2bb894f8324260650ee6a81604051612b4791906158c1565b60405180910390a16000612b6160a0830160808401614dea565b6001600160a01b0316826000013560405160006040518083038185875af1925050503d8060008114612baf576040519150601f19603f3d011682016040523d82523d6000602084013e612bb4565b606091505b505090508061156057604051636d6cc4a760e01b815282356004820152602401611197565b6002612beb6040830160208401615888565b6002811115612bfc57612bfc615525565b03611544576000612c136060830160408401614dea565b905060006001600160a01b03821663dd62ed3e612c366080860160608701614dea565b6040516001600160e01b031960e084901b1681526001600160a01b039091166004820152306024820152604401602060405180830381865afa158015612c80573d6000803e3d6000fd5b505050506040513d601f19601f82011682018060405250810190612ca4919061592d565b905082358114612cd15760405163431cec8960e11b81526004810182905283356024820152604401611197565b7f435e19089f6ae5362a112155f011980907d2ff69b4c2bb894f8324260650ee6a83604051612d0091906158c1565b60405180910390a160006001600160a01b0383166323b872dd612d296080870160608801614dea565b612d3960a0880160808901614dea565b6040516001600160e01b031960e085901b168152612d5e9291908935906004016157bc565b6020604051808303816000875af1158015612d7d573d6000803e3d6000fd5b505050506040513d601f19601f82011682018060405250810190612da19190615946565b905080611e3157604051636d6cc4a760e01b815284356004820152602401611197565b826001600160a01b0316612dd78261192a565b6001600160a01b031614612e395760405162461bcd60e51b8152602060048201526024808201527f455243333532353a207472616e736665722066726f6d20696e76616c6964206f6044820152633bb732b960e11b6064820152608401611197565b6001600160a01b038216612e9d5760405162461bcd60e51b815260206004820152602560248201527f455243333532353a207472616e7366657220746f20746865207a65726f206164604482015264647265737360d81b6064820152608401611197565b6000612ea8826111b0565b90506000612eb583611e37565b9050612ec2600084613e8e565b612ecb83613f25565b612ed58584613fd0565b612edf84846140f1565b82846001600160a01b0316866001600160a01b0316600080516020615c5483398151915260405160405180910390a4611c53565b6001600160a01b03163b151590565b600054610100900460ff16612f495760405162461bcd60e51b815260040161119790615963565b6111ab83838361417a565b600054610100900460ff16612f7b5760405162461bcd60e51b815260040161119790615963565b612f836141d3565b61156082826141fa565b60cc80546001600160a01b0319166001600160a01b0383169081179091556040517f5e4a30f4224898dbac86adca855a5edd3b8341a3aeb2b6ff0f0b5a82c013b65a90600090a250565b600080516020615bed833981519152546001600160a01b031690565b611544612a34565b7f4910fdfa16fed3260ed0e7147f7cc6da11a60208b5b9406d12a635614ffd91435460ff161561302e576111ab83614293565b826001600160a01b03166352d1902d6040518163ffffffff1660e01b8152600401602060405180830381865afa925050508015613088575060408051601f3d908101601f191682019092526130859181019061592d565b60015b6130eb5760405162461bcd60e51b815260206004820152602e60248201527f45524331393637557067726164653a206e657720696d706c656d656e7461746960448201526d6f6e206973206e6f74205555505360901b6064820152608401611197565b600080516020615bed833981519152811461315a5760405162461bcd60e51b815260206004820152602960248201527f45524331393637557067726164653a20756e737570706f727465642070726f786044820152681a58589b195555525160ba1b6064820152608401611197565b506111ab83838361432d565b61317183838361205e565b156111ab57600082815260ca6020908152604080832086845282528083206001600160a01b03851684529091529020805460ff191690556131b0612597565b6001600160a01b0316816001600160a01b0316847f6f9148fcdc32766ca802c14716295d56eab7ed848d0dba113966f40087c88390856040516131f591815260200190565b60405180910390a4505050565b61320b816124e0565b6000818152609e6020526040812054609d8054909190811061322f5761322f615462565b60009182526020909120600691909102016003810154600182015460028301549293506001600160a01b039091169161326785613f25565b6132718386613fd0565b61327a85614352565b600085600080516020615bcd8339815191528360405161329c91815260200190565b60405180910390a3600082867fe4f48c240d3b994948aa54f3e2f5fca59263dfe1d52b6e4cf39a5d249b5ccb6560405160405180910390a460405185906000906001600160a01b03861690600080516020615c54833981519152908390a4611c53565b611560828261330c612597565b6135b0565b61331a816134b4565b6001600082815260cf602052604090205460ff16600281111561333f5761333f615525565b1461337857600081815260cf6020526040908190205490516308c9ef2d60e11b815261119791839160ff909116906001906004016159ae565b600081815260cf6020526040808220805460ff191690555182917fe2babfd5e77285a3c3dbc4b25592cbe4a7a26e97a7ac63067a22ebdaa9b82add91a250565b6133c383838361205e565b6111ab57600082815260ca6020908152604080832086845282528083206001600160a01b03851684529091529020805460ff19166001179055613404612597565b6001600160a01b0316816001600160a01b0316847f4dc88bd74ca601684356789d5b3dbc9cd44275b2544e8d35041203703b768232856040516131f591815260200190565b6000613455848461220d565b600084815260ca6020908152604080832088845282529182902060010185905590518581529192508391839187917f15f4a36186b2284157fe71215a07487f6c8bdc1203b3307c3e1fd9693011d3d3910160405180910390a450505050565b6134bd81613955565b611544576040516321fbdd2b60e11b815260048101829052602401611197565b816001600160a01b0316836001600160a01b03160361353e5760405162461bcd60e51b815260206004820152601a60248201527f455243333532353a20617070726f766520746f2063616c6c65720000000000006044820152606401611197565b6001600160a01b038381166000818152609f602090815260408083209487168084526002909501825291829020805460ff191686151590811790915591519182527f17307eab39ab6107e8899845ad3d59bd9653f200f220920489ca2b5937696c3191015b60405180910390a3505050565b6135bb83838361205e565b6111ab5780828460405163c8c801a760e01b81526004016111979392919061579b565b6135e9848484612dc4565b6135f584848484614560565b611e315760405162461bcd60e51b815260206004820152602760248201527f455243333532353a207472616e7366657220746f206e6f6e204552433732315260448201526632b1b2b4bb32b960c91b6064820152608401611197565b61365c8260016146b7565b600082815260d06020526040908190208290555182907f1ebc57da8b3ebab98506502fbb73232ea29fbe86e4963a5a8c004810ad11190d906136a19084815260200190565b60405180910390a25050565b6136b88160016146b7565b600081815260cf6020526040808220805460ff191660011790555182917f779fbee689bbd6f006ecb329206d35c7db7380f9837a8826fb8dc5cfcd3d33dd91a250565b60a080546001600160a01b0319166001600160a01b0383169081179091556040517f5252f52e45fc8ee6a7b43cef3645d23e9a470a34182b8b3a12627556635bfc9c90600090a250565b6060610dfc6001600160a01b03831660146146e9565b6060600080613769866119ca565b90506000816001600160401b0381111561378557613785615031565b6040519080825280602002602001820160405280156137ae578160200160208202803683370190505b5090506000805b838110156138335760006137c98a836111f8565b9050886137d5826111b0565b1480156137f057508715806137f057506137f0816000613841565b1561382057808484613801816155a3565b95508151811061381357613813615462565b6020026020010181815250505b508061382b816155a3565b9150506137b5565b509097909650945050505050565b600082815260cf602052604081205460ff168181600281111561386657613866615525565b14613875576000915050610dfc565b6000613880856111b0565b905061388d81600061208f565b156138e257600085815260d260205260409020546001600160a01b031680158015906138cf57506138cd600080516020615bad833981519152838361205e565b155b156138e05760009350505050610dfc565b505b60006138ed8661192a565b600087815260d060205260409020549091501580159061390b575084155b15613940576001600160a01b038116158015906139365750600086815260d060205260409020544211155b9350505050610dfc565b6001600160a01b031615159250610dfc915050565b609d5460009015801590610dfc57506000828152609e6020526040902054609d8054849290811061398857613988615462565b9060005260206000209060060201600001541492915050565b60008072184f03e93ff9f4daa797ed6e38ed64bf6a1f0160401b83106139e05772184f03e93ff9f4daa797ed6e38ed64bf6a1f0160401b830492506040015b6d04ee2d6d415b85acef81000000008310613a0c576d04ee2d6d415b85acef8100000000830492506020015b662386f26fc100008310613a2a57662386f26fc10000830492506010015b6305f5e1008310613a42576305f5e100830492506008015b6127108310613a5657612710830492506004015b60648310613a68576064830492506002015b600a8310610dfc5760010192915050565b3360009081526097602052604081205460ff1615613a9e575060131936013560601c90565b503390565b6001600160a01b038216613b0c5760405162461bcd60e51b815260206004820152602a60248201527f455243333532353a20617070726f76652076616c756520746f20746865207a65604482015269726f206164647265737360b01b6064820152608401611197565b613b168284614884565b613b7c576000838152609e6020526040902054609d80549091908110613b3e57613b3e615462565b60009182526020808320600692909202909101600501805460018101825590835291200180546001600160a01b0319166001600160a01b0384161790555b6000838152609c602090815260408083206001600160a01b038616808552908352928190208490555183815285917f621b050de0ad08b51d19b48b3e6df75348c4de6bdd93e81b252ca62e28265b1b91016135a3565b6000613be2609b80546001019055565b50609b5490565b6040805160c081018252838152602080820184905260008284018190526001600160a01b038716606084015260808301819052835181815291820190935260a08201529050613c3781614957565b613c4184846140f1565b60405183906001600160a01b03861690600090600080516020615c54833981519152908290a4816000847fe4f48c240d3b994948aa54f3e2f5fca59263dfe1d52b6e4cf39a5d249b5ccb6560405160405180910390a450505050565b6000828152609e6020526040902054609d80548392908110613cc157613cc1615462565b90600052602060002090600602016002016000828254613ce19190615866565b90915550506040518181528290600090600080516020615bcd8339815191529060200160405180910390a35050565b600080613d1c8561192a565b9050613d30816001600160a01b0316612f13565b8015613da557506040516301ffc9a760e01b8152629ce20b60e01b60048201526001600160a01b038216906301ffc9a790602401602060405180830381865afa158015613d81573d6000803e3d6000fd5b505050506040513d601f19601f82011682018060405250810190613da59190615946565b15613e45576000816001600160a01b0316629ce20b613dc2612597565b898989896040518663ffffffff1660e01b8152600401613de69594939291906159db565b6020604051808303816000875af1158015613e05573d6000803e3d6000fd5b505050506040513d601f19601f82011682018060405250810190613e299190615a19565b6001600160e01b031916629ce20b60e01b149250613e4b915050565b60019150505b949350505050565b6001600160a01b038116600090815260cb602052604090205460ff166115445780604051632957ccdd60e21b81526004016111979190614d60565b6000818152609e6020526040902054609d80548492908110613eb257613eb2615462565b6000918252602090912060069091020160040180546001600160a01b0319166001600160a01b0392831617905581908316613eec8261192a565b6001600160a01b03167f8c5be1e5ebec7d5bd14f71427d1e84f3dd0314c0f7b2291e5b200ac8c7c3b92560405160405180910390a45050565b6000818152609e6020526040812054609d80549091908110613f4957613f49615462565b600091825260208220600560069092020190810154909250905b81811015613fc1576000836005018281548110613f8257613f82615462565b6000918252602080832090910154878352609c825260408084206001600160a01b03909216845291528120555080613fb9816155a3565b915050613f63565b506111ab600583016000614c19565b6000818152609e6020526040812054609d80549091908110613ff457613ff4615462565b6000918252602080832060069290920290910160030180546001600160a01b0319166001600160a01b039485161790559184168152609f90915260408120805490919061404390600190615853565b9050600082600001828154811061405c5761405c615462565b9060005260206000200154905060008360010160008681526020019081526020016000205490508184600001828154811061409957614099615462565b600091825260208083209091019290925583815260018601909152604080822083905586825281205583548490806140d3576140d3615a36565b60019003818190600052602060002001600090559055505050505050565b6000818152609e6020526040902054609d8054849290811061411557614115615462565b6000918252602080832060069290920290910160030180546001600160a01b0319166001600160a01b03948516179055939091168152609f80845260408083208054858552600182810188529285208190559286529082018155825292902090910155565b600054610100900460ff166141a15760405162461bcd60e51b815260040161119790615963565b60986141ad8482615a4c565b5060996141ba8382615a4c565b50609a805460ff191660ff929092169190911790555050565b600054610100900460ff16612a445760405162461bcd60e51b815260040161119790615963565b600054610100900460ff166142215760405162461bcd60e51b815260040161119790615963565b60005b818110156111ab5760016097600085858581811061424457614244615462565b90506020020160208101906142599190614dea565b6001600160a01b031681526020810191909152604001600020805460ff19169115159190911790558061428b816155a3565b915050614224565b61429c81612f13565b6142fe5760405162461bcd60e51b815260206004820152602d60248201527f455243313936373a206e657720696d706c656d656e746174696f6e206973206e60448201526c1bdd08184818dbdb9d1c9858dd609a1b6064820152608401611197565b600080516020615bed83398151915280546001600160a01b0319166001600160a01b0392909216919091179055565b61433683614aa9565b6000825111806143435750805b156111ab57611e318383614ae9565b609d5460009061436490600190615853565b6000838152609e6020526040812054609d805493945090928490811061438c5761438c615462565b60009182526020918290206040805160c08101825260069093029091018054835260018101548385015260028101548383015260038101546001600160a01b03908116606085015260048201541660808401526005810180548351818702810187019094528084529394919360a08601939283018282801561443757602002820191906000526020600020905b81546001600160a01b03168152600190910190602001808311614419575b505050505081525050905080609d838154811061445657614456615462565b600091825260209182902083516006909202019081558282015160018201556040830151600282015560608301516003820180546001600160a01b039283166001600160a01b031991821617909155608085015160048401805491909316911617905560a0830151805191926144d492600585019290910190614c37565b505081516000908152609e602052604080822085905586825281205550609d80548061450257614502615a36565b60008281526020812060066000199093019283020181815560018101829055600281018290556003810180546001600160a01b03199081169091556004820180549091169055906145566005830182614c19565b5050905550505050565b6000614574846001600160a01b0316612f13565b156146af57836001600160a01b031663150b7a02614590612597565b8786866040518563ffffffff1660e01b81526004016145b29493929190615b05565b6020604051808303816000875af19250505080156145ed575060408051601f3d908101601f191682019092526145ea91810190615a19565b60015b614695573d80801561461b576040519150601f19603f3d011682016040523d82523d6000602084013e614620565b606091505b50805160000361468d5760405162461bcd60e51b815260206004820152603260248201527f4552433732313a207472616e7366657220746f206e6f6e20455243373231526560448201527131b2b4bb32b91034b6b83632b6b2b73a32b960711b6064820152608401611197565b805181602001fd5b6001600160e01b031916630a85bd0160e11b149050613e4b565b506001613e4b565b6146c18282613841565b611560576040516316af84a960e21b8152600481018390528115156024820152604401611197565b606060006146f8836002615b42565b614703906002615866565b6001600160401b0381111561471a5761471a615031565b6040519080825280601f01601f191660200182016040528015614744576020820181803683370190505b509050600360fc1b8160008151811061475f5761475f615462565b60200101906001600160f81b031916908160001a905350600f60fb1b8160018151811061478e5761478e615462565b60200101906001600160f81b031916908160001a90535060006147b2846002615b42565b6147bd906001615866565b90505b6001811115614835576f181899199a1a9b1b9c1cb0b131b232b360811b85600f16601081106147f1576147f1615462565b1a60f81b82828151811061480757614807615462565b60200101906001600160f81b031916908160001a90535060049490941c9361482e81615b59565b90506147c0565b508315610fea5760405162461bcd60e51b815260206004820181905260248201527f537472696e67733a20686578206c656e67746820696e73756666696369656e746044820152606401611197565b6000818152609e6020526040812054609d805483929081106148a8576148a8615462565b6000918252602082206005600690920201015491505b8181101561494c576000848152609e6020526040902054609d80546001600160a01b038816929081106148f3576148f3615462565b9060005260206000209060060201600501828154811061491557614915615462565b6000918252602090912001546001600160a01b03160361493a57600192505050610dfc565b80614944816155a3565b9150506148be565b506000949350505050565b609d805482516000908152609e6020908152604080832084905560018401855593909152835160069092027fd26e832454299e9fabb89e0e5fffdc046d4e14431bc1bf607ffb2e8a1ddecf7b8101928355818501517fd26e832454299e9fabb89e0e5fffdc046d4e14431bc1bf607ffb2e8a1ddecf7c820155928401517fd26e832454299e9fabb89e0e5fffdc046d4e14431bc1bf607ffb2e8a1ddecf7d84015560608401517fd26e832454299e9fabb89e0e5fffdc046d4e14431bc1bf607ffb2e8a1ddecf7e840180546001600160a01b039283166001600160a01b03199182161790915560808601517fd26e832454299e9fabb89e0e5fffdc046d4e14431bc1bf607ffb2e8a1ddecf7f8601805491909316911617905560a084015180518594611e31937fd26e832454299e9fabb89e0e5fffdc046d4e14431bc1bf607ffb2e8a1ddecf80909101920190614c37565b614ab281614293565b6040516001600160a01b038216907fbc7cd75a20ee27fd9adebab32041f755214dbc6bffa90cc0225b39da2e5c2d3b90600090a250565b6060614af483612f13565b614b4f5760405162461bcd60e51b815260206004820152602660248201527f416464726573733a2064656c65676174652063616c6c20746f206e6f6e2d636f6044820152651b9d1c9858dd60d21b6064820152608401611197565b600080846001600160a01b031684604051614b6a9190615b70565b600060405180830381855af49150503d8060008114614ba5576040519150601f19603f3d011682016040523d82523d6000602084013e614baa565b606091505b5091509150614bd28282604051806060016040528060278152602001615c2d60279139614bdb565b95945050505050565b60608315614bea575081610fea565b610fea8383815115614bff5781518083602001fd5b8060405162461bcd60e51b81526004016111979190614d34565b50805460008255906000526020600020908101906115449190614c9c565b828054828255906000526020600020908101928215614c8c579160200282015b82811115614c8c57825182546001600160a01b0319166001600160a01b03909116178255602090920191600190910190614c57565b50614c98929150614c9c565b5090565b5b80821115614c985760008155600101614c9d565b6001600160e01b03198116811461154457600080fd5b600060208284031215614cd957600080fd5b8135610fea81614cb1565b60005b83811015614cff578181015183820152602001614ce7565b50506000910152565b60008151808452614d20816020860160208601614ce4565b601f01601f19169290920160200192915050565b602081526000610fea6020830184614d08565b600060208284031215614d5957600080fd5b5035919050565b6001600160a01b0391909116815260200190565b80356001600160a01b038116811461199557600080fd5b60008060408385031215614d9e57600080fd5b614da783614d74565b946020939093013593505050565b600080600060608486031215614dca57600080fd5b83359250614dda60208501614d74565b9150604084013590509250925092565b600060208284031215614dfc57600080fd5b610fea82614d74565b600060a08284031215614e1757600080fd5b50919050565b60008060008060006101208688031215614e3657600080fd5b614e3f86614d74565b9450602086013593506040860135925060608601359150614e638760808801614e05565b90509295509295909350565b600080600060608486031215614e8457600080fd5b614e8d84614d74565b9250614dda60208501614d74565b600080600060608486031215614eb057600080fd5b505081359360208301359350604090920135919050565b60008083601f840112614ed957600080fd5b5081356001600160401b03811115614ef057600080fd5b602083019150836020828501011115614f0857600080fd5b9250929050565b60008060008060008060008060a0898b031215614f2b57600080fd5b88356001600160401b0380821115614f4257600080fd5b614f4e8c838d01614ec7565b909a50985060208b0135915080821115614f6757600080fd5b614f738c838d01614ec7565b9098509650869150614f8760408c01614d74565b9550614f9560608c01614d74565b945060808b0135915080821115614fab57600080fd5b818b0191508b601f830112614fbf57600080fd5b813581811115614fce57600080fd5b8c60208260051b8501011115614fe357600080fd5b6020830194508093505050509295985092959890939650565b60008060006060848603121561501157600080fd5b833592506020840135915061502860408501614d74565b90509250925092565b634e487b7160e01b600052604160045260246000fd5b604051601f8201601f191681016001600160401b038111828210171561506f5761506f615031565b604052919050565b60006001600160401b0382111561509057615090615031565b50601f01601f191660200190565b600082601f8301126150af57600080fd5b81356150c26150bd82615077565b615047565b8181528460208386010111156150d757600080fd5b816020850160208301376000918101602001919091529392505050565b6000806040838503121561510757600080fd5b61511083614d74565b915060208301356001600160401b0381111561512b57600080fd5b6151378582860161509e565b9150509250929050565b6000806040838503121561515457600080fd5b50508035926020909101359150565b801515811461154457600080fd5b60008060008060006080868803121561518957600080fd5b8535945060208601356001600160401b038111156151a657600080fd5b6151b288828901614ec7565b90955093505060408601356151c681615163565b9150614e6360608701614d74565b6000806000604084860312156151e957600080fd5b8335925060208401356001600160401b0381111561520657600080fd5b61521286828701614ec7565b9497909650939450505050565b6000806040838503121561523257600080fd5b61523b83614d74565b9150602083013561524b81615163565b809150509250929050565b6000806000806080858703121561526c57600080fd5b61527585614d74565b935061528360208601614d74565b92506040850135915060608501356001600160401b038111156152a557600080fd5b6152b18782880161509e565b91505092959194509250565b600080604083850312156152d057600080fd5b8235915060208301356001811061524b57600080fd5b600080600060e084860312156152fb57600080fd5b83359250602084013591506150288560408601614e05565b6000806040838503121561532657600080fd5b8235915061533660208401614d74565b90509250929050565b6001600160a01b038616815260ff8516602082015260a06040820181905260009061536c90830186614d08565b606083019490945250608001529392505050565b6000806040838503121561539357600080fd5b61539c83614d74565b915061533660208401614d74565b6000806000606084860312156153bf57600080fd5b6153c884614d74565b92506020840135915060408401356153df81615163565b809150509250925092565b6020808252825182820181905260009190848201906040850190845b8181101561542257835183529284019291840191600101615406565b50909695505050505050565b600181811c9082168061544257607f821691505b602082108103614e1757634e487b7160e01b600052602260045260246000fd5b634e487b7160e01b600052603260045260246000fd5b6000835161548a818460208801614ce4565b64736c6f742f60d81b90830190815283516154ac816005840160208801614ce4565b01600501949350505050565b6000602082840312156154ca57600080fd5b81516001600160401b038111156154e057600080fd5b8201601f810184136154f157600080fd5b80516154ff6150bd82615077565b81815285602083850101111561551457600080fd5b614bd2826020830160208601614ce4565b634e487b7160e01b600052602160045260246000fd5b60208082526032908201527f455243333532353a207472616e736665722063616c6c6572206973206e6f74206040820152711bdddb995c881b9bdc88185c1c1c9bdd995960721b606082015260800190565b634e487b7160e01b600052601160045260246000fd5b6000600182016155b5576155b561558d565b5060010190565b6020808252602c908201527f46756e6374696f6e206d7573742062652063616c6c6564207468726f7567682060408201526b19195b1959d85d1958d85b1b60a21b606082015260800190565b6020808252602c908201527f46756e6374696f6e206d7573742062652063616c6c6564207468726f7567682060408201526b6163746976652070726f787960a01b606082015260800190565b602080825260199082015278115490cccd4c8d4e881a5b9d985b1a59081d1bdad95b881251603a1b604082015260600190565b601f8211156111ab57600081815260208120601f850160051c810160208610156156ae5750805b601f850160051c820191505b81811015611162578281556001016156ba565b600019600383901b1c191660019190911b1790565b6001600160401b038311156156f9576156f9615031565b61570d83615707835461542e565b83615687565b6000601f84116001811461573b57600085156157295750838201355b61573386826156cd565b845550611c53565b600083815260209020601f19861690835b8281101561576c578685013582556020948501946001909201910161574c565b50868210156157895760001960f88860031b161c19848701351681555b505060018560011b0183555050505050565b6001600160a01b039390931683526020830191909152604082015260600190565b6001600160a01b039384168152919092166020820152604081019190915260600190565b600083516157f2818460208801614ce4565b835190830190615806818360208801614ce4565b01949350505050565b60008351615821818460208801614ce4565b68636f6e74726163742f60b81b9083019081528351615847816009840160208801614ce4565b01600901949350505050565b81810381811115610dfc57610dfc61558d565b80820180821115610dfc57610dfc61558d565b80356003811061199557600080fd5b60006020828403121561589a57600080fd5b610fea82615879565b6003811061154457634e487b7160e01b600052602160045260246000fd5b8135815260a081016158d560208401615879565b6158de816158a3565b60208301526158ef60408401614d74565b6001600160a01b0381811660408501528061590c60608701614d74565b1660608501528061591f60808701614d74565b166080850152505092915050565b60006020828403121561593f57600080fd5b5051919050565b60006020828403121561595857600080fd5b8151610fea81615163565b6020808252602b908201527f496e697469616c697a61626c653a20636f6e7472616374206973206e6f74206960408201526a6e697469616c697a696e6760a81b606082015260800190565b838152606081016159be846158a3565b8360208301526159cd836158a3565b826040830152949350505050565b60018060a01b038616815284602082015283604082015282606082015260a060808201526000615a0e60a0830184614d08565b979650505050505050565b600060208284031215615a2b57600080fd5b8151610fea81614cb1565b634e487b7160e01b600052603160045260246000fd5b81516001600160401b03811115615a6557615a65615031565b615a7981615a73845461542e565b84615687565b602080601f831160018114615aa85760008415615a965750858301515b615aa085826156cd565b865550611162565b600085815260208120601f198616915b82811015615ad757888601518255948401946001909101908401615ab8565b5085821015615af55787850151600019600388901b60f8161c191681555b5050505050600190811b01905550565b6001600160a01b0385811682528416602082015260408101839052608060608201819052600090615b3890830184614d08565b9695505050505050565b8082028115828204841417610dfc57610dfc61558d565b600081615b6857615b6861558d565b506000190190565b60008251615b82818460208701614ce4565b919091019291505056fefca69b310bd19d275687ebe00b254b0772cf7a367c3f81a9a5a433f831fdc1dc3c63e605be3290ab6b04cfc46c6e1516e626d43236b034f09d7ede1d017beb0c0b2aac84f3ec956911fd78eae5311062972ff949f38412e8da39069d9f068cc6360894a13ba1a3210667c828492db98dca3e2076cc3735a920a3ca505d382bbc449b0a7e0acc0a95c71947cb19fdd122b42abca9bdfbd6707ca4f1e3fdaef05e416464726573733a206c6f772d6c6576656c2064656c65676174652063616c6c206661696c6564ddf252ad1be2c89b69c2b068fc378daa952ba7f163c4a11628f55a4df523b3efa2646970667358221220555912e58374c216de4b0ec3de42cfb66d3eb5b6c3ff30d6e411d3244ec0125d64736f6c63430008130033",
  "linkReferences": {},
  "deployedLinkReferences": {}
}