{
  "_format": "hh-sol-artifact-1",
  "contractName": "GatewayToken",
  "sourceName": "contracts/GatewayToken.sol",
  "abi": [
    {
      "inputs": [],
      "stateMutability": "nonpayable",
      "type": "constructor"
    },
    {
      "inputs": [],
      "name": "Common__MissingAccount",
      "type": "error"
    },
    {
      "inputs": [
        {
          "internalType": "address",
          "name": "account",
          "type": "address"
        }
      ],
      "name": "Common__NotContract",
      "type": "error"
    },
    {
      "inputs": [
        {
          "internalType": "address",
          "name": "account",
          "type": "address"
        }
      ],
      "name": "Common__NotSuperAdmin",
      "type": "error"
    },
    {
      "inputs": [
        {
          "internalType": "address",
          "name": "sender",
          "type": "address"
        },
        {
          "internalType": "uint256",
          "name": "domain",
          "type": "uint256"
        },
        {
          "internalType": "bytes32",
          "name": "role",
          "type": "bytes32"
        }
      ],
      "name": "Common__Unauthorized",
      "type": "error"
    },
    {
      "inputs": [
        {
          "internalType": "uint256",
          "name": "available",
          "type": "uint256"
        },
        {
          "internalType": "uint256",
          "name": "required",
          "type": "uint256"
        }
      ],
      "name": "GatewayToken__InsufficientFunds",
      "type": "error"
    },
    {
      "inputs": [
        {
          "internalType": "uint256",
          "name": "network",
          "type": "uint256"
        }
      ],
      "name": "GatewayToken__NetworkAlreadyExists",
      "type": "error"
    },
    {
      "inputs": [
        {
          "internalType": "uint256",
          "name": "network",
          "type": "uint256"
        }
      ],
      "name": "GatewayToken__NetworkDoesNotExist",
      "type": "error"
    },
    {
      "inputs": [
        {
          "internalType": "uint256",
          "name": "network",
          "type": "uint256"
        }
      ],
      "name": "GatewayToken__NotDAOGoverned",
      "type": "error"
    },
    {
      "inputs": [
        {
          "internalType": "uint256",
          "name": "tokenId",
          "type": "uint256"
        }
      ],
      "name": "GatewayToken__TokenDoesNotExist",
      "type": "error"
    },
    {
      "inputs": [
        {
          "internalType": "uint256",
          "name": "tokenId",
          "type": "uint256"
        },
        {
          "internalType": "bool",
          "name": "allowExpired",
          "type": "bool"
        }
      ],
      "name": "GatewayToken__TokenDoesNotExistOrIsInactive",
      "type": "error"
    },
    {
      "inputs": [
        {
          "internalType": "uint256",
          "name": "tokenId",
          "type": "uint256"
        },
        {
          "internalType": "enum IGatewayToken.TokenState",
          "name": "state",
          "type": "uint8"
        },
        {
          "internalType": "enum IGatewayToken.TokenState",
          "name": "expectedState",
          "type": "uint8"
        }
      ],
      "name": "GatewayToken__TokenInvalidStateForOperation",
      "type": "error"
    },
    {
      "inputs": [],
      "name": "GatewayToken__TransferDisabled",
      "type": "error"
    },
    {
      "inputs": [
        {
          "internalType": "bytes32",
          "name": "role",
          "type": "bytes32"
        },
        {
          "internalType": "address",
          "name": "account",
          "type": "address"
        }
      ],
      "name": "ParameterizedAccessControl__RenounceRoleNotForSelf",
      "type": "error"
    },
    {
      "anonymous": false,
      "inputs": [
        {
          "indexed": false,
          "internalType": "address",
          "name": "previousAdmin",
          "type": "address"
        },
        {
          "indexed": false,
          "internalType": "address",
          "name": "newAdmin",
          "type": "address"
        }
      ],
      "name": "AdminChanged",
      "type": "event"
    },
    {
      "anonymous": false,
      "inputs": [
        {
          "indexed": true,
          "internalType": "address",
          "name": "_owner",
          "type": "address"
        },
        {
          "indexed": true,
          "internalType": "address",
          "name": "_approved",
          "type": "address"
        },
        {
          "indexed": true,
          "internalType": "uint256",
          "name": "_tokenId",
          "type": "uint256"
        }
      ],
      "name": "Approval",
      "type": "event"
    },
    {
      "anonymous": false,
      "inputs": [
        {
          "indexed": true,
          "internalType": "address",
          "name": "_owner",
          "type": "address"
        },
        {
          "indexed": true,
          "internalType": "address",
          "name": "_operator",
          "type": "address"
        },
        {
          "indexed": false,
          "internalType": "bool",
          "name": "_approved",
          "type": "bool"
        }
      ],
      "name": "ApprovalForAll",
      "type": "event"
    },
    {
      "anonymous": false,
      "inputs": [
        {
          "indexed": true,
          "internalType": "uint256",
          "name": "_tokenId",
          "type": "uint256"
        },
        {
          "indexed": true,
          "internalType": "address",
          "name": "_operator",
          "type": "address"
        },
        {
          "indexed": false,
          "internalType": "uint256",
          "name": "_value",
          "type": "uint256"
        }
      ],
      "name": "ApprovalValue",
      "type": "event"
    },
    {
      "anonymous": false,
      "inputs": [
        {
          "indexed": true,
          "internalType": "address",
          "name": "beacon",
          "type": "address"
        }
      ],
      "name": "BeaconUpgraded",
      "type": "event"
    },
    {
      "anonymous": false,
      "inputs": [
        {
          "indexed": false,
          "internalType": "uint256",
          "name": "tokenId",
          "type": "uint256"
        },
        {
          "indexed": false,
          "internalType": "uint256",
          "name": "bitmask",
          "type": "uint256"
        }
      ],
      "name": "BitMaskUpdated",
      "type": "event"
    },
    {
      "anonymous": false,
      "inputs": [
        {
          "indexed": false,
          "internalType": "address",
          "name": "previousDAOManager",
          "type": "address"
        },
        {
          "indexed": false,
          "internalType": "address",
          "name": "newDAOManager",
          "type": "address"
        },
        {
          "indexed": false,
          "internalType": "uint256",
          "name": "network",
          "type": "uint256"
        }
      ],
      "name": "DAOManagerTransferred",
      "type": "event"
    },
    {
      "anonymous": false,
      "inputs": [
        {
          "indexed": true,
          "internalType": "uint256",
          "name": "tokenId",
          "type": "uint256"
        },
        {
          "indexed": false,
          "internalType": "uint256",
          "name": "timestamp",
          "type": "uint256"
        }
      ],
      "name": "Expiration",
      "type": "event"
    },
    {
      "anonymous": false,
      "inputs": [
        {
          "indexed": true,
          "internalType": "address",
          "name": "flagsStorage",
          "type": "address"
        }
      ],
      "name": "FlagsStorageUpdated",
      "type": "event"
    },
    {
      "anonymous": false,
      "inputs": [
        {
          "indexed": true,
          "internalType": "uint256",
          "name": "tokenId",
          "type": "uint256"
        }
      ],
      "name": "Freeze",
      "type": "event"
    },
    {
      "anonymous": false,
      "inputs": [
        {
          "indexed": false,
          "internalType": "uint8",
          "name": "version",
          "type": "uint8"
        }
      ],
      "name": "Initialized",
      "type": "event"
    },
    {
      "anonymous": false,
      "inputs": [
        {
          "indexed": true,
          "internalType": "uint256",
          "name": "tokenId",
          "type": "uint256"
        }
      ],
      "name": "Revoke",
      "type": "event"
    },
    {
      "anonymous": false,
      "inputs": [
        {
          "indexed": true,
          "internalType": "bytes32",
          "name": "role",
          "type": "bytes32"
        },
        {
          "indexed": false,
          "internalType": "uint256",
          "name": "domain",
          "type": "uint256"
        },
        {
          "indexed": true,
          "internalType": "bytes32",
          "name": "previousAdminRole",
          "type": "bytes32"
        },
        {
          "indexed": true,
          "internalType": "bytes32",
          "name": "newAdminRole",
          "type": "bytes32"
        }
      ],
      "name": "RoleAdminChanged",
      "type": "event"
    },
    {
      "anonymous": false,
      "inputs": [
        {
          "indexed": true,
          "internalType": "bytes32",
          "name": "role",
          "type": "bytes32"
        },
        {
          "indexed": false,
          "internalType": "uint256",
          "name": "domain",
          "type": "uint256"
        },
        {
          "indexed": true,
          "internalType": "address",
          "name": "account",
          "type": "address"
        },
        {
          "indexed": true,
          "internalType": "address",
          "name": "sender",
          "type": "address"
        }
      ],
      "name": "RoleGranted",
      "type": "event"
    },
    {
      "anonymous": false,
      "inputs": [
        {
          "indexed": true,
          "internalType": "bytes32",
          "name": "role",
          "type": "bytes32"
        },
        {
          "indexed": false,
          "internalType": "uint256",
          "name": "domain",
          "type": "uint256"
        },
        {
          "indexed": true,
          "internalType": "address",
          "name": "account",
          "type": "address"
        },
        {
          "indexed": true,
          "internalType": "address",
          "name": "sender",
          "type": "address"
        }
      ],
      "name": "RoleRevoked",
      "type": "event"
    },
    {
      "anonymous": false,
      "inputs": [
        {
          "indexed": true,
          "internalType": "address",
          "name": "metadataDescriptor",
          "type": "address"
        }
      ],
      "name": "SetMetadataDescriptor",
      "type": "event"
    },
    {
      "anonymous": false,
      "inputs": [
        {
          "indexed": true,
          "internalType": "uint256",
          "name": "_tokenId",
          "type": "uint256"
        },
        {
          "indexed": true,
          "internalType": "uint256",
          "name": "_oldSlot",
          "type": "uint256"
        },
        {
          "indexed": true,
          "internalType": "uint256",
          "name": "_newSlot",
          "type": "uint256"
        }
      ],
      "name": "SlotChanged",
      "type": "event"
    },
    {
      "anonymous": false,
      "inputs": [
        {
          "indexed": true,
          "internalType": "address",
          "name": "account",
          "type": "address"
        }
      ],
      "name": "SuperAdminAdded",
      "type": "event"
    },
    {
      "anonymous": false,
      "inputs": [
        {
          "indexed": true,
          "internalType": "address",
          "name": "account",
          "type": "address"
        }
      ],
      "name": "SuperAdminRemoved",
      "type": "event"
    },
    {
      "anonymous": false,
      "inputs": [
        {
          "indexed": true,
          "internalType": "address",
          "name": "_from",
          "type": "address"
        },
        {
          "indexed": true,
          "internalType": "address",
          "name": "_to",
          "type": "address"
        },
        {
          "indexed": true,
          "internalType": "uint256",
          "name": "_tokenId",
          "type": "uint256"
        }
      ],
      "name": "Transfer",
      "type": "event"
    },
    {
      "anonymous": false,
      "inputs": [
        {
          "indexed": true,
          "internalType": "uint256",
          "name": "_fromTokenId",
          "type": "uint256"
        },
        {
          "indexed": true,
          "internalType": "uint256",
          "name": "_toTokenId",
          "type": "uint256"
        },
        {
          "indexed": false,
          "internalType": "uint256",
          "name": "_value",
          "type": "uint256"
        }
      ],
      "name": "TransferValue",
      "type": "event"
    },
    {
      "anonymous": false,
      "inputs": [
        {
          "indexed": true,
          "internalType": "uint256",
          "name": "tokenId",
          "type": "uint256"
        }
      ],
      "name": "Unfreeze",
      "type": "event"
    },
    {
      "anonymous": false,
      "inputs": [
        {
          "indexed": true,
          "internalType": "address",
          "name": "implementation",
          "type": "address"
        }
      ],
      "name": "Upgraded",
      "type": "event"
    },
    {
      "inputs": [],
      "name": "DAO_MANAGER_ROLE",
      "outputs": [
        {
          "internalType": "bytes32",
          "name": "",
          "type": "bytes32"
        }
      ],
      "stateMutability": "view",
      "type": "function"
    },
    {
      "inputs": [],
      "name": "DEFAULT_ADMIN_ROLE",
      "outputs": [
        {
          "internalType": "bytes32",
          "name": "",
          "type": "bytes32"
        }
      ],
      "stateMutability": "view",
      "type": "function"
    },
    {
      "inputs": [],
      "name": "GATEKEEPER_ROLE",
      "outputs": [
        {
          "internalType": "bytes32",
          "name": "",
          "type": "bytes32"
        }
      ],
      "stateMutability": "view",
      "type": "function"
    },
    {
      "inputs": [],
      "name": "NETWORK_AUTHORITY_ROLE",
      "outputs": [
        {
          "internalType": "bytes32",
          "name": "",
          "type": "bytes32"
        }
      ],
      "stateMutability": "view",
      "type": "function"
    },
    {
      "inputs": [
        {
          "internalType": "address",
          "name": "forwarder",
          "type": "address"
        }
      ],
      "name": "addForwarder",
      "outputs": [],
      "stateMutability": "nonpayable",
      "type": "function"
    },
    {
      "inputs": [
        {
          "internalType": "address",
          "name": "gatekeeper",
          "type": "address"
        },
        {
          "internalType": "uint256",
          "name": "network",
          "type": "uint256"
        }
      ],
      "name": "addGatekeeper",
      "outputs": [],
      "stateMutability": "nonpayable",
      "type": "function"
    },
    {
      "inputs": [
        {
          "internalType": "address",
          "name": "authority",
          "type": "address"
        },
        {
          "internalType": "uint256",
          "name": "network",
          "type": "uint256"
        }
      ],
      "name": "addNetworkAuthority",
      "outputs": [],
      "stateMutability": "nonpayable",
      "type": "function"
    },
    {
      "inputs": [
        {
          "internalType": "uint256",
          "name": "tokenId_",
          "type": "uint256"
        },
        {
          "internalType": "address",
          "name": "operator_",
          "type": "address"
        }
      ],
      "name": "allowance",
      "outputs": [
        {
          "internalType": "uint256",
          "name": "",
          "type": "uint256"
        }
      ],
      "stateMutability": "view",
      "type": "function"
    },
    {
      "inputs": [
        {
          "internalType": "address",
          "name": "",
          "type": "address"
        },
        {
          "internalType": "uint256",
          "name": "",
          "type": "uint256"
        }
      ],
      "name": "approve",
      "outputs": [],
      "stateMutability": "payable",
      "type": "function"
    },
    {
      "inputs": [
        {
          "internalType": "uint256",
          "name": "",
          "type": "uint256"
        },
        {
          "internalType": "address",
          "name": "",
          "type": "address"
        },
        {
          "internalType": "uint256",
          "name": "",
          "type": "uint256"
        }
      ],
      "name": "approve",
      "outputs": [],
      "stateMutability": "payable",
      "type": "function"
    },
    {
      "inputs": [
        {
          "internalType": "address",
          "name": "owner_",
          "type": "address"
        }
      ],
      "name": "balanceOf",
      "outputs": [
        {
          "internalType": "uint256",
          "name": "balance",
          "type": "uint256"
        }
      ],
      "stateMutability": "view",
      "type": "function"
    },
    {
      "inputs": [
        {
          "internalType": "uint256",
          "name": "tokenId_",
          "type": "uint256"
        }
      ],
      "name": "balanceOf",
      "outputs": [
        {
          "internalType": "uint256",
          "name": "",
          "type": "uint256"
        }
      ],
      "stateMutability": "view",
      "type": "function"
    },
    {
      "inputs": [
        {
          "internalType": "uint256",
          "name": "tokenId",
          "type": "uint256"
        }
      ],
      "name": "burn",
      "outputs": [],
      "stateMutability": "nonpayable",
      "type": "function"
    },
    {
      "inputs": [],
      "name": "contractURI",
      "outputs": [
        {
          "internalType": "string",
          "name": "",
          "type": "string"
        }
      ],
      "stateMutability": "view",
      "type": "function"
    },
    {
      "inputs": [
        {
          "internalType": "uint256",
          "name": "network",
          "type": "uint256"
        },
        {
          "internalType": "string",
          "name": "name",
          "type": "string"
        },
        {
          "internalType": "bool",
          "name": "daoGoverned",
          "type": "bool"
        },
        {
          "internalType": "address",
          "name": "daoManager",
          "type": "address"
        }
      ],
      "name": "createNetwork",
      "outputs": [],
      "stateMutability": "nonpayable",
      "type": "function"
    },
    {
      "inputs": [],
      "name": "flagsStorage",
      "outputs": [
        {
          "internalType": "contract IFlagsStorage",
          "name": "",
          "type": "address"
        }
      ],
      "stateMutability": "view",
      "type": "function"
    },
    {
      "inputs": [
        {
          "internalType": "uint256",
          "name": "tokenId",
          "type": "uint256"
        }
      ],
      "name": "freeze",
      "outputs": [],
      "stateMutability": "nonpayable",
      "type": "function"
    },
    {
      "inputs": [
        {
          "internalType": "uint256",
          "name": "tokenId_",
          "type": "uint256"
        }
      ],
      "name": "getApproved",
      "outputs": [
        {
          "internalType": "address",
          "name": "",
          "type": "address"
        }
      ],
      "stateMutability": "view",
      "type": "function"
    },
    {
      "inputs": [
        {
          "internalType": "uint256",
          "name": "tokenId",
          "type": "uint256"
        }
      ],
      "name": "getExpiration",
      "outputs": [
        {
          "internalType": "uint256",
          "name": "",
          "type": "uint256"
        }
      ],
      "stateMutability": "view",
      "type": "function"
    },
    {
      "inputs": [
        {
          "internalType": "uint256",
          "name": "network",
          "type": "uint256"
        }
      ],
      "name": "getNetwork",
      "outputs": [
        {
          "internalType": "string",
          "name": "",
          "type": "string"
        }
      ],
      "stateMutability": "view",
      "type": "function"
    },
    {
      "inputs": [
        {
          "internalType": "bytes32",
          "name": "role",
          "type": "bytes32"
        },
        {
          "internalType": "uint256",
          "name": "domain",
          "type": "uint256"
        }
      ],
      "name": "getRoleAdmin",
      "outputs": [
        {
          "internalType": "bytes32",
          "name": "",
          "type": "bytes32"
        }
      ],
      "stateMutability": "view",
      "type": "function"
    },
    {
      "inputs": [
        {
          "internalType": "uint256",
          "name": "tokenId",
          "type": "uint256"
        }
      ],
      "name": "getToken",
      "outputs": [
        {
          "internalType": "address",
          "name": "owner",
          "type": "address"
        },
        {
          "internalType": "uint8",
          "name": "state",
          "type": "uint8"
        },
        {
          "internalType": "string",
          "name": "identity",
          "type": "string"
        },
        {
          "internalType": "uint256",
          "name": "expiration",
          "type": "uint256"
        },
        {
          "internalType": "uint256",
          "name": "bitmask",
          "type": "uint256"
        }
      ],
      "stateMutability": "view",
      "type": "function"
    },
    {
      "inputs": [
        {
          "internalType": "uint256",
          "name": "tokenId",
          "type": "uint256"
        }
      ],
      "name": "getTokenBitmask",
      "outputs": [
        {
          "internalType": "uint256",
          "name": "",
          "type": "uint256"
        }
      ],
      "stateMutability": "view",
      "type": "function"
    },
    {
      "inputs": [
        {
          "internalType": "address",
          "name": "owner",
          "type": "address"
        },
        {
          "internalType": "uint256",
          "name": "network",
          "type": "uint256"
        }
      ],
      "name": "getTokenIdsByOwnerAndNetwork",
      "outputs": [
        {
          "internalType": "uint256[]",
          "name": "",
          "type": "uint256[]"
        }
      ],
      "stateMutability": "view",
      "type": "function"
    },
    {
      "inputs": [
        {
          "internalType": "bytes32",
          "name": "role",
          "type": "bytes32"
        },
        {
          "internalType": "uint256",
          "name": "domain",
          "type": "uint256"
        },
        {
          "internalType": "address",
          "name": "account",
          "type": "address"
        }
      ],
      "name": "grantRole",
      "outputs": [],
      "stateMutability": "nonpayable",
      "type": "function"
    },
    {
      "inputs": [
        {
          "internalType": "bytes32",
          "name": "role",
          "type": "bytes32"
        },
        {
          "internalType": "uint256",
          "name": "domain",
          "type": "uint256"
        },
        {
          "internalType": "address",
          "name": "account",
          "type": "address"
        }
      ],
      "name": "hasRole",
      "outputs": [
        {
          "internalType": "bool",
          "name": "",
          "type": "bool"
        }
      ],
      "stateMutability": "view",
      "type": "function"
    },
    {
      "inputs": [
        {
          "internalType": "string",
          "name": "_name",
          "type": "string"
        },
        {
          "internalType": "string",
          "name": "_symbol",
          "type": "string"
        },
        {
          "internalType": "address",
          "name": "_superAdmin",
          "type": "address"
        },
        {
          "internalType": "address",
          "name": "_flagsStorage",
          "type": "address"
        },
        {
          "internalType": "address[]",
          "name": "_trustedForwarders",
          "type": "address[]"
        }
      ],
      "name": "initialize",
      "outputs": [],
      "stateMutability": "nonpayable",
      "type": "function"
    },
    {
      "inputs": [
        {
          "internalType": "address",
          "name": "owner_",
          "type": "address"
        },
        {
          "internalType": "address",
          "name": "operator_",
          "type": "address"
        }
      ],
      "name": "isApprovedForAll",
      "outputs": [
        {
          "internalType": "bool",
          "name": "",
          "type": "bool"
        }
      ],
      "stateMutability": "view",
      "type": "function"
    },
    {
      "inputs": [
        {
          "internalType": "address",
          "name": "gatekeeper",
          "type": "address"
        },
        {
          "internalType": "uint256",
          "name": "network",
          "type": "uint256"
        }
      ],
      "name": "isGatekeeper",
      "outputs": [
        {
          "internalType": "bool",
          "name": "",
          "type": "bool"
        }
      ],
      "stateMutability": "view",
      "type": "function"
    },
    {
      "inputs": [
        {
          "internalType": "address",
          "name": "authority",
          "type": "address"
        },
        {
          "internalType": "uint256",
          "name": "network",
          "type": "uint256"
        }
      ],
      "name": "isNetworkAuthority",
      "outputs": [
        {
          "internalType": "bool",
          "name": "",
          "type": "bool"
        }
      ],
      "stateMutability": "view",
      "type": "function"
    },
    {
      "inputs": [
        {
          "internalType": "uint256",
          "name": "",
          "type": "uint256"
        }
      ],
      "name": "isNetworkDAOGoverned",
      "outputs": [
        {
          "internalType": "bool",
          "name": "",
          "type": "bool"
        }
      ],
      "stateMutability": "view",
      "type": "function"
    },
    {
      "inputs": [
        {
          "internalType": "address",
          "name": "account",
          "type": "address"
        }
      ],
      "name": "isSuperAdmin",
      "outputs": [
        {
          "internalType": "bool",
          "name": "",
          "type": "bool"
        }
      ],
      "stateMutability": "view",
      "type": "function"
    },
    {
      "inputs": [
        {
          "internalType": "address",
          "name": "forwarder",
          "type": "address"
        }
      ],
      "name": "isTrustedForwarder",
      "outputs": [
        {
          "internalType": "bool",
          "name": "",
          "type": "bool"
        }
      ],
      "stateMutability": "view",
      "type": "function"
    },
    {
      "inputs": [],
      "name": "metadataDescriptor",
      "outputs": [
        {
          "internalType": "contract IERC3525MetadataDescriptorUpgradeable",
          "name": "",
          "type": "address"
        }
      ],
      "stateMutability": "view",
      "type": "function"
    },
    {
      "inputs": [
        {
          "internalType": "address",
          "name": "to",
          "type": "address"
        },
        {
          "internalType": "uint256",
          "name": "network",
          "type": "uint256"
        },
        {
          "internalType": "uint256",
          "name": "expiration",
          "type": "uint256"
        },
        {
          "internalType": "uint256",
          "name": "mask",
          "type": "uint256"
        },
        {
          "components": [
            {
              "internalType": "uint256",
              "name": "value",
              "type": "uint256"
            },
            {
              "internalType": "enum ChargeType",
              "name": "chargeType",
              "type": "uint8"
            },
            {
              "internalType": "address",
              "name": "token",
              "type": "address"
            },
            {
              "internalType": "address",
              "name": "recipient",
              "type": "address"
            }
          ],
          "internalType": "struct Charge",
          "name": "",
          "type": "tuple"
        }
      ],
      "name": "mint",
      "outputs": [],
      "stateMutability": "nonpayable",
      "type": "function"
    },
    {
      "inputs": [],
      "name": "name",
      "outputs": [
        {
          "internalType": "string",
          "name": "",
          "type": "string"
        }
      ],
      "stateMutability": "view",
      "type": "function"
    },
    {
      "inputs": [
        {
          "internalType": "uint256",
          "name": "tokenId_",
          "type": "uint256"
        }
      ],
      "name": "ownerOf",
      "outputs": [
        {
          "internalType": "address",
          "name": "owner_",
          "type": "address"
        }
      ],
      "stateMutability": "view",
      "type": "function"
    },
    {
      "inputs": [],
      "name": "proxiableUUID",
      "outputs": [
        {
          "internalType": "bytes32",
          "name": "",
          "type": "bytes32"
        }
      ],
      "stateMutability": "view",
      "type": "function"
    },
    {
      "inputs": [
        {
          "internalType": "address",
          "name": "forwarder",
          "type": "address"
        }
      ],
      "name": "removeForwarder",
      "outputs": [],
      "stateMutability": "nonpayable",
      "type": "function"
    },
    {
      "inputs": [
        {
          "internalType": "address",
          "name": "gatekeeper",
          "type": "address"
        },
        {
          "internalType": "uint256",
          "name": "network",
          "type": "uint256"
        }
      ],
      "name": "removeGatekeeper",
      "outputs": [],
      "stateMutability": "nonpayable",
      "type": "function"
    },
    {
      "inputs": [
        {
          "internalType": "address",
          "name": "authority",
          "type": "address"
        },
        {
          "internalType": "uint256",
          "name": "network",
          "type": "uint256"
        }
      ],
      "name": "removeNetworkAuthority",
      "outputs": [],
      "stateMutability": "nonpayable",
      "type": "function"
    },
    {
      "inputs": [
        {
          "internalType": "uint256",
          "name": "network",
          "type": "uint256"
        },
        {
          "internalType": "string",
          "name": "name",
          "type": "string"
        }
      ],
      "name": "renameNetwork",
      "outputs": [],
      "stateMutability": "nonpayable",
      "type": "function"
    },
    {
      "inputs": [
        {
          "internalType": "bytes32",
          "name": "role",
          "type": "bytes32"
        },
        {
          "internalType": "uint256",
          "name": "domain",
          "type": "uint256"
        },
        {
          "internalType": "address",
          "name": "account",
          "type": "address"
        }
      ],
      "name": "renounceRole",
      "outputs": [],
      "stateMutability": "nonpayable",
      "type": "function"
    },
    {
      "inputs": [
        {
          "internalType": "uint256",
          "name": "tokenId",
          "type": "uint256"
        }
      ],
      "name": "revoke",
      "outputs": [],
      "stateMutability": "nonpayable",
      "type": "function"
    },
    {
      "inputs": [
        {
          "internalType": "bytes32",
          "name": "role",
          "type": "bytes32"
        },
        {
          "internalType": "uint256",
          "name": "domain",
          "type": "uint256"
        },
        {
          "internalType": "address",
          "name": "account",
          "type": "address"
        }
      ],
      "name": "revokeRole",
      "outputs": [],
      "stateMutability": "nonpayable",
      "type": "function"
    },
    {
      "inputs": [
        {
          "internalType": "address",
          "name": "account",
          "type": "address"
        }
      ],
      "name": "revokeSuperAdmin",
      "outputs": [],
      "stateMutability": "nonpayable",
      "type": "function"
    },
    {
      "inputs": [
        {
          "internalType": "address",
          "name": "from_",
          "type": "address"
        },
        {
          "internalType": "address",
          "name": "to_",
          "type": "address"
        },
        {
          "internalType": "uint256",
          "name": "tokenId_",
          "type": "uint256"
        }
      ],
      "name": "safeTransferFrom",
      "outputs": [],
      "stateMutability": "payable",
      "type": "function"
    },
    {
      "inputs": [
        {
          "internalType": "address",
          "name": "from_",
          "type": "address"
        },
        {
          "internalType": "address",
          "name": "to_",
          "type": "address"
        },
        {
          "internalType": "uint256",
          "name": "tokenId_",
          "type": "uint256"
        },
        {
          "internalType": "bytes",
          "name": "data_",
          "type": "bytes"
        }
      ],
      "name": "safeTransferFrom",
      "outputs": [],
      "stateMutability": "payable",
      "type": "function"
    },
    {
      "inputs": [
        {
          "internalType": "address",
          "name": "operator_",
          "type": "address"
        },
        {
          "internalType": "bool",
          "name": "approved_",
          "type": "bool"
        }
      ],
      "name": "setApprovalForAll",
      "outputs": [],
      "stateMutability": "nonpayable",
      "type": "function"
    },
    {
      "inputs": [
        {
          "internalType": "uint256",
          "name": "tokenId",
          "type": "uint256"
        },
        {
          "internalType": "uint256",
          "name": "mask",
          "type": "uint256"
        }
      ],
      "name": "setBitmask",
      "outputs": [],
      "stateMutability": "nonpayable",
      "type": "function"
    },
    {
      "inputs": [
        {
          "internalType": "uint256",
          "name": "tokenId",
          "type": "uint256"
        },
        {
          "internalType": "uint256",
          "name": "timestamp",
          "type": "uint256"
        },
        {
          "components": [
            {
              "internalType": "uint256",
              "name": "value",
              "type": "uint256"
            },
            {
              "internalType": "enum ChargeType",
              "name": "chargeType",
              "type": "uint8"
            },
            {
              "internalType": "address",
              "name": "token",
              "type": "address"
            },
            {
              "internalType": "address",
              "name": "recipient",
              "type": "address"
            }
          ],
          "internalType": "struct Charge",
          "name": "",
          "type": "tuple"
        }
      ],
      "name": "setExpiration",
      "outputs": [],
      "stateMutability": "nonpayable",
      "type": "function"
    },
    {
      "inputs": [
        {
          "internalType": "address",
          "name": "_metadataDescriptor",
          "type": "address"
        }
      ],
      "name": "setMetadataDescriptor",
      "outputs": [],
      "stateMutability": "nonpayable",
      "type": "function"
    },
    {
      "inputs": [
        {
          "internalType": "address",
          "name": "account",
          "type": "address"
        }
      ],
      "name": "setSuperAdmin",
      "outputs": [],
      "stateMutability": "nonpayable",
      "type": "function"
    },
    {
      "inputs": [
        {
          "internalType": "uint256",
          "name": "tokenId_",
          "type": "uint256"
        }
      ],
      "name": "slotOf",
      "outputs": [
        {
          "internalType": "uint256",
          "name": "",
          "type": "uint256"
        }
      ],
      "stateMutability": "view",
      "type": "function"
    },
    {
      "inputs": [
        {
          "internalType": "uint256",
          "name": "slot_",
          "type": "uint256"
        }
      ],
      "name": "slotURI",
      "outputs": [
        {
          "internalType": "string",
          "name": "",
          "type": "string"
        }
      ],
      "stateMutability": "view",
      "type": "function"
    },
    {
      "inputs": [
        {
          "internalType": "bytes4",
          "name": "interfaceId",
          "type": "bytes4"
        }
      ],
      "name": "supportsInterface",
      "outputs": [
        {
          "internalType": "bool",
          "name": "",
          "type": "bool"
        }
      ],
      "stateMutability": "view",
      "type": "function"
    },
    {
      "inputs": [],
      "name": "symbol",
      "outputs": [
        {
          "internalType": "string",
          "name": "",
          "type": "string"
        }
      ],
      "stateMutability": "view",
      "type": "function"
    },
    {
      "inputs": [
        {
          "internalType": "uint256",
          "name": "index_",
          "type": "uint256"
        }
      ],
      "name": "tokenByIndex",
      "outputs": [
        {
          "internalType": "uint256",
          "name": "",
          "type": "uint256"
        }
      ],
      "stateMutability": "view",
      "type": "function"
    },
    {
      "inputs": [
        {
          "internalType": "address",
          "name": "owner_",
          "type": "address"
        },
        {
          "internalType": "uint256",
          "name": "index_",
          "type": "uint256"
        }
      ],
      "name": "tokenOfOwnerByIndex",
      "outputs": [
        {
          "internalType": "uint256",
          "name": "",
          "type": "uint256"
        }
      ],
      "stateMutability": "view",
      "type": "function"
    },
    {
      "inputs": [
        {
          "internalType": "uint256",
          "name": "tokenId_",
          "type": "uint256"
        }
      ],
      "name": "tokenURI",
      "outputs": [
        {
          "internalType": "string",
          "name": "",
          "type": "string"
        }
      ],
      "stateMutability": "view",
      "type": "function"
    },
    {
      "inputs": [],
      "name": "totalSupply",
      "outputs": [
        {
          "internalType": "uint256",
          "name": "",
          "type": "uint256"
        }
      ],
      "stateMutability": "view",
      "type": "function"
    },
    {
      "inputs": [
        {
          "internalType": "address",
          "name": "previousManager",
          "type": "address"
        },
        {
          "internalType": "address",
          "name": "newManager",
          "type": "address"
        },
        {
          "internalType": "uint256",
          "name": "network",
          "type": "uint256"
        }
      ],
      "name": "transferDAOManager",
      "outputs": [],
      "stateMutability": "nonpayable",
      "type": "function"
    },
    {
      "inputs": [
        {
          "internalType": "uint256",
          "name": "fromTokenId_",
          "type": "uint256"
        },
        {
          "internalType": "address",
          "name": "to_",
          "type": "address"
        },
        {
          "internalType": "uint256",
          "name": "value_",
          "type": "uint256"
        }
      ],
      "name": "transferFrom",
      "outputs": [
        {
          "internalType": "uint256",
          "name": "newTokenId",
          "type": "uint256"
        }
      ],
      "stateMutability": "payable",
      "type": "function"
    },
    {
      "inputs": [
        {
          "internalType": "address",
          "name": "from_",
          "type": "address"
        },
        {
          "internalType": "address",
          "name": "to_",
          "type": "address"
        },
        {
          "internalType": "uint256",
          "name": "tokenId_",
          "type": "uint256"
        }
      ],
      "name": "transferFrom",
      "outputs": [],
      "stateMutability": "payable",
      "type": "function"
    },
    {
      "inputs": [
        {
          "internalType": "uint256",
          "name": "fromTokenId_",
          "type": "uint256"
        },
        {
          "internalType": "uint256",
          "name": "toTokenId_",
          "type": "uint256"
        },
        {
          "internalType": "uint256",
          "name": "value_",
          "type": "uint256"
        }
      ],
      "name": "transferFrom",
      "outputs": [],
      "stateMutability": "payable",
      "type": "function"
    },
    {
      "inputs": [],
      "name": "transfersRestricted",
      "outputs": [
        {
          "internalType": "bool",
          "name": "",
          "type": "bool"
        }
      ],
      "stateMutability": "pure",
      "type": "function"
    },
    {
      "inputs": [
        {
          "internalType": "uint256",
          "name": "tokenId",
          "type": "uint256"
        }
      ],
      "name": "unfreeze",
      "outputs": [],
      "stateMutability": "nonpayable",
      "type": "function"
    },
    {
      "inputs": [
        {
          "internalType": "address",
          "name": "flagsStorage",
          "type": "address"
        }
      ],
      "name": "updateFlagsStorage",
      "outputs": [],
      "stateMutability": "nonpayable",
      "type": "function"
    },
    {
      "inputs": [
        {
          "internalType": "address",
          "name": "newImplementation",
          "type": "address"
        }
      ],
      "name": "upgradeTo",
      "outputs": [],
      "stateMutability": "nonpayable",
      "type": "function"
    },
    {
      "inputs": [
        {
          "internalType": "address",
          "name": "newImplementation",
          "type": "address"
        },
        {
          "internalType": "bytes",
          "name": "data",
          "type": "bytes"
        }
      ],
      "name": "upgradeToAndCall",
      "outputs": [],
      "stateMutability": "payable",
      "type": "function"
    },
    {
      "inputs": [],
      "name": "valueDecimals",
      "outputs": [
        {
          "internalType": "uint8",
          "name": "",
          "type": "uint8"
        }
      ],
      "stateMutability": "view",
      "type": "function"
    },
    {
      "inputs": [
        {
          "internalType": "address",
          "name": "owner",
          "type": "address"
        },
        {
          "internalType": "uint256",
          "name": "network",
          "type": "uint256"
        }
      ],
      "name": "verifyToken",
      "outputs": [
        {
          "internalType": "bool",
          "name": "",
          "type": "bool"
        }
      ],
      "stateMutability": "view",
      "type": "function"
    },
    {
      "inputs": [
        {
          "internalType": "uint256",
          "name": "tokenId",
          "type": "uint256"
        }
      ],
      "name": "verifyToken",
      "outputs": [
        {
          "internalType": "bool",
          "name": "",
          "type": "bool"
        }
      ],
      "stateMutability": "view",
      "type": "function"
    }
  ],
  "bytecode": "0x60a0604052306080523480156200001557600080fd5b506200002062000026565b620000e8565b600054610100900460ff1615620000935760405162461bcd60e51b815260206004820152602760248201527f496e697469616c697a61626c653a20636f6e747261637420697320696e697469604482015266616c697a696e6760c81b606482015260840160405180910390fd5b60005460ff9081161015620000e6576000805460ff191660ff9081179091556040519081527f7f26b83ff96e1f2b6a682f133852f6798a09c465da95921460cefb38474024989060200160405180910390a15b565b6080516157e662000120600039600081816114aa015281816114ea0152818161162301528181611663015261179601526157e66000f3fe6080604052600436106103b65760003560e01c806370f08160116101f9578063b4bd85791161011e578063df2a7fe1116100b6578063e71fb1101161007a578063e71fb11014610c32578063e8a3d48514610c52578063e985e9c514610c67578063ff17e23214610cb4578063ff85a97514610cd457600080fd5b8063df2a7fe114610b68578063df7f453b14610b88578063e0ed6a3114610bc1578063e345e0bc14610be1578063e4b50cb814610c0157600080fd5b8063b4bd857914610a53578063b5d6163514610a73578063b88d4fde14610a93578063babb898d14610aa6578063c2a366fb14610ac6578063c58dbbed14610ae6578063c87b56dd14610b06578063d6fd317514610b26578063d7a78db814610b4857600080fd5b806395d89b411161019157806395d89b411461093957806395ea57171461094e5780639c7525e61461096e5780639cc7f7081461098e578063a05b775f146109ae578063a217fddf146109ce578063a22cb465146109e3578063a578c09314610a03578063a8fa8e0d14610a3357600080fd5b806370f08160146108355780637dbded281461085557806381e9ff191461087557806382d66d5f14610897578063840f7113146108b75780638423df79146108d75780638cb0a511146108eb5780638eb7a776146108f957806390eddd521461091957600080fd5b80633659cfe6116102df57806352d1902d1161027757806352d1902d14610705578063572b6c051461071a5780635c41d2fe146107535780635e79b726146107735780636352211e146107935780636623fc46146107b35780636dba2729146107d35780636f7caf41146107f357806370a082311461081557600080fd5b80633659cfe6146105fd57806336e450411461061d5780633e7e86691461063d57806342842e0e1461065f57806342966c68146106725780634d93172d146106925780634f1ef286146106b25780634f6ccce7146106c557806351da912d146106e557600080fd5b806320c5429b1161035257806320c5429b146104f757806323b872dd14610517578063263f3e7e1461052a5780632d33d27a1461054a5780632f745c591461056a578063310ed7f01461058a57806331416a291461059d57806334e37b8a146105bd5780633568dd29146105dd57600080fd5b806301ffc9a7146103bb57806306fdde03146103f0578063081812fc14610412578063095ea7b31461043f57806309c3dd87146104545780630f485c02146104745780631442f5211461049557806315700052146104c257806318160ddd146104e2575b600080fd5b3480156103c757600080fd5b506103db6103d6366004614a79565b610cf4565b60405190151581526020015b60405180910390f35b3480156103fc57600080fd5b50610405610d55565b6040516103e79190614aee565b34801561041e57600080fd5b5061043261042d366004614b01565b610de7565b6040516103e79190614b1a565b61045261044d366004614b45565b610e39565b005b34801561046057600080fd5b5061040561046f366004614b01565b610e52565b610487610482366004614b6f565b610f53565b6040519081526020016103e7565b3480156104a157600080fd5b506104b56104b0366004614b45565b610f92565b6040516103e79190614ba4565b3480156104ce57600080fd5b506104526104dd366004614be8565b611049565b3480156104ee57600080fd5b50609d54610487565b34801561050357600080fd5b50610452610512366004614b01565b6110a9565b610452610525366004614c03565b6110fd565b34801561053657600080fd5b50610487610545366004614b01565b611143565b34801561055657600080fd5b5060cc54610432906001600160a01b031681565b34801561057657600080fd5b50610487610585366004614b45565b61118b565b610452610598366004614c2f565b61122c565b3480156105a957600080fd5b506104526105b8366004614c9c565b611249565b3480156105c957600080fd5b506104526105d8366004614be8565b61146e565b3480156105e957600080fd5b506104526105f8366004614b45565b611482565b34801561060957600080fd5b50610452610618366004614be8565b61149f565b34801561062957600080fd5b50610452610638366004614d89565b611565565b34801561064957600080fd5b50609a5460405160ff90911681526020016103e7565b61045261066d366004614c03565b6115bb565b34801561067e57600080fd5b5061045261068d366004614b01565b6115d6565b34801561069e57600080fd5b506104526106ad366004614be8565b6115eb565b6104526106c0366004614e81565b611618565b3480156106d157600080fd5b506104876106e0366004614b01565b6116ce565b3480156106f157600080fd5b50610452610700366004614ece565b61175f565b34801561071157600080fd5b50610487611789565b34801561072657600080fd5b506103db610735366004614be8565b6001600160a01b031660009081526097602052604090205460ff1690565b34801561075f57600080fd5b5061045261076e366004614be8565b611837565b34801561077f57600080fd5b5061045261078e366004614f08565b611867565b34801561079f57600080fd5b506104326107ae366004614b01565b61187d565b3480156107bf57600080fd5b506104526107ce366004614b01565b6118ed565b3480156107df57600080fd5b506103db6107ee366004614b45565b611902565b3480156107ff57600080fd5b5061048760008051602061572a83398151915281565b34801561082157600080fd5b50610487610830366004614be8565b61191d565b34801561084157600080fd5b50610452610850366004614b45565b6119a5565b34801561086157600080fd5b50610452610870366004614f43565b6119be565b34801561088157600080fd5b506104876000805160206156aa83398151915281565b3480156108a357600080fd5b506104526108b2366004614b45565b611b86565b3480156108c357600080fd5b5060a054610432906001600160a01b031681565b3480156108e357600080fd5b5060016103db565b61045261044d366004614b6f565b34801561090557600080fd5b50610452610914366004614d89565b611b9b565b34801561092557600080fd5b50610452610934366004614b45565b611bbb565b34801561094557600080fd5b50610405611bd4565b34801561095a57600080fd5b50610405610969366004614b01565b611be3565b34801561097a57600080fd5b50610452610989366004614fb2565b611c85565b34801561099a57600080fd5b506104876109a9366004614b01565b611d34565b3480156109ba57600080fd5b506104876109c9366004614b01565b611d7c565b3480156109da57600080fd5b50610487600081565b3480156109ef57600080fd5b506104526109fe366004614ffd565b611d9a565b348015610a0f57600080fd5b506103db610a1e366004614b01565b60ce6020526000908152604090205460ff1681565b348015610a3f57600080fd5b50610452610a4e366004614c03565b611dac565b348015610a5f57600080fd5b50610487610a6e366004614b01565b611f25565b348015610a7f57600080fd5b50610452610a8e366004614d89565b611f39565b610452610aa1366004615034565b611f59565b348015610ab257600080fd5b506103db610ac1366004614d89565b611f8c565b348015610ad257600080fd5b506103db610ae1366004614b45565b611fbd565b348015610af257600080fd5b50610452610b01366004614be8565b611fd8565b348015610b1257600080fd5b50610405610b21366004614b01565b612035565b348015610b3257600080fd5b506104876000805160206156ca83398151915281565b348015610b5457600080fd5b50610452610b63366004614b01565b6120d4565b348015610b7457600080fd5b50610487610b83366004614ece565b6120e9565b348015610b9457600080fd5b506103db610ba3366004614be8565b6001600160a01b0316600090815260cb602052604090205460ff1690565b348015610bcd57600080fd5b50610452610bdc36600461509b565b612108565b348015610bed57600080fd5b50610487610bfc3660046150e1565b612151565b348015610c0d57600080fd5b50610c21610c1c366004614b01565b612185565b6040516103e795949392919061510d565b348015610c3e57600080fd5b50610452610c4d366004614be8565b6121e5565b348015610c5e57600080fd5b506104056121f6565b348015610c7357600080fd5b506103db610c8236600461514e565b6001600160a01b039182166000908152609f602090815260408083209390941682526002909201909152205460ff1690565b348015610cc057600080fd5b506103db610ccf366004614b45565b6122ff565b348015610ce057600080fd5b506103db610cef366004614b01565b612391565b60006001600160e01b03198216630354d60560e61b1480610d2557506001600160e01b031982166380ac58cd60e01b145b80610d4057506001600160e01b031982166370b0048160e11b145b80610d4f5750610d4f8261239e565b92915050565b606060988054610d6490615178565b80601f0160208091040260200160405190810160405280929190818152602001828054610d9090615178565b8015610ddd5780601f10610db257610100808354040283529160200191610ddd565b820191906000526020600020905b815481529060010190602001808311610dc057829003601f168201915b5050505050905090565b6000610df2826123d3565b6000828152609e6020526040902054609d80549091908110610e1657610e166151ad565b60009182526020909120600460069092020101546001600160a01b031692915050565b60405163c03a3ff560e01b815260040160405180910390fd5b60606000610e6b60408051602081019091526000815290565b60a0549091506001600160a01b0316610ecb576000815111610e9c5760405180602001604052806000815250610f4c565b80610ea6846123f8565b604051602001610eb79291906151c3565b604051602081830303815290604052610f4c565b60a054604051633601bfc560e11b8152600481018590526001600160a01b0390911690636c037f8a906024015b60006040518083038186803b158015610f1057600080fd5b505afa158015610f24573d6000803e3d6000fd5b505050506040513d6000823e601f3d908101601f19168201604052610f4c9190810190615203565b9392505050565b6000610f67610f60612494565b85846124a3565b610f708461251e565b9050610f878382610f8087611143565b6000612528565b610f4c84828461264f565b6060600080610fa1858561292e565b915091506000816001600160401b03811115610fbf57610fbf614dbe565b604051908082528060200260200182016040528015610fe8578160200160208202803683370190505b50905060005b8281101561103f57838181518110611008576110086151ad565b6020026020010151828281518110611022576110226151ad565b60209081029190910101528061103781615286565b915050610fee565b5095945050505050565b6110516129fb565b6040516001600160a01b038216907f286f82d2b1e37b5e9f33e455d014b4a5f6c29388e6e41e1281d4c83e04f4265590600090a26001600160a01b0316600090815260cb60205260409020805460ff19166001179055565b6110ba6110b582611143565b612a0d565b600081815260cf6020526040808220805460ff191660021790555182917fdb43aa42235c8d63908794a952603e8d43a549383d13123c3d893a3fc2e6249591a250565b61110e611108612494565b50600090565b6111335760405162461bcd60e51b815260040161112a906152b7565b60405180910390fd5b61113e838383612a25565b505050565b600061114e826123d3565b6000828152609e6020526040902054609d80549091908110611172576111726151ad565b9060005260206000209060060201600101549050919050565b60006111968361191d565b82106111ef5760405162461bcd60e51b815260206004820152602260248201527f455243333532353a206f776e657220696e646578206f7574206f6620626f756e604482015261647360f01b606482015260840161112a565b6001600160a01b0383166000908152609f60205260409020805483908110611219576112196151ad565b9060005260206000200154905092915050565b61123e611237612494565b84836124a3565b61113e83838361264f565b600054610100900460ff16158080156112695750600054600160ff909116105b8061128a575061127830612b74565b15801561128a575060005460ff166001145b6112a65760405162461bcd60e51b815260040161112a90615309565b6000805460ff1916600117905580156112c9576000805461ff0019166101001790555b6001600160a01b0385166112f057604051630ca2c90160e21b815260040160405180910390fd5b6001600160a01b03841661131757604051630ca2c90160e21b815260040160405180910390fd5b60005b82811015611385576000848483818110611336576113366151ad565b905060200201602081019061134b9190614be8565b6001600160a01b0316141561137357604051630ca2c90160e21b815260040160405180910390fd5b8061137d81615286565b91505061131a565b506113f989898080601f01602080910402602001604051908101604052809392919081815260200183838082843760009201919091525050604080516020601f8d018190048102820181019092528b815292508b91508a908190840183828082843760009201829052509250612b83915050565b6114038383612bb5565b61140c84612c77565b6001600160a01b038516600090815260cb60205260409020805460ff191660011790558015611463576000805461ff00191690556040516001815260008051602061574a8339815191529060200160405180910390a15b505050505050505050565b6114766129fb565b61147f81612c77565b50565b61149b6000805160206156ca8339815191528284611b9b565b5050565b306001600160a01b037f00000000000000000000000000000000000000000000000000000000000000001614156114e85760405162461bcd60e51b815260040161112a90615357565b7f00000000000000000000000000000000000000000000000000000000000000006001600160a01b031661151a612cc1565b6001600160a01b0316146115405760405162461bcd60e51b815260040161112a906153a3565b61154981612cdd565b6040805160008082526020820190925261147f91839190612ce5565b61156d612494565b6001600160a01b0316816001600160a01b0316146115b0576040516307ca099360e31b8152600481018490526001600160a01b038216602482015260440161112a565b61113e838383612e5f565b61113e83838360405180602001604052806000815250611f59565b6115e26110b582611143565b61147f81612efb565b6115f36129fb565b61147f816001600160a01b03166000908152609760205260409020805460ff19169055565b306001600160a01b037f00000000000000000000000000000000000000000000000000000000000000001614156116615760405162461bcd60e51b815260040161112a90615357565b7f00000000000000000000000000000000000000000000000000000000000000006001600160a01b0316611693612cc1565b6001600160a01b0316146116b95760405162461bcd60e51b815260040161112a906153a3565b6116c282612cdd565b61149b82826001612ce5565b60006116d9609d5490565b82106117335760405162461bcd60e51b815260206004820152602360248201527f455243333532353a20676c6f62616c20696e646578206f7574206f6620626f756044820152626e647360e81b606482015260840161112a565b609d8281548110611746576117466151ad565b9060005260206000209060060201600001549050919050565b61177f6000805160206156ca83398151915261177a84611143565b612ff8565b61149b8282613005565b6000306001600160a01b037f000000000000000000000000000000000000000000000000000000000000000016146118245760405162461bcd60e51b815260206004820152603860248201527f555550535570677261646561626c653a206d757374206e6f742062652063616c6044820152771b1959081d1a1c9bdd59da0819195b1959d85d1958d85b1b60421b606482015260840161112a565b5060008051602061570a83398151915290565b61183f6129fb565b61147f816001600160a01b03166000908152609760205260409020805460ff19166001179055565b6118736110b584611143565b61113e8383613054565b6000611888826123d3565b6000828152609e6020526040902054609d805490919081106118ac576118ac6151ad565b60009182526020909120600360069092020101546001600160a01b03169050806118e85760405162461bcd60e51b815260040161112a906153ef565b919050565b6118f96110b582611143565b61147f816130b0565b6000610f4c6000805160206156ca8339815191528385611f8c565b60006001600160a01b0382166119895760405162461bcd60e51b815260206004820152602b60248201527f455243333532353a2062616c616e636520717565727920666f7220746865207a60448201526a65726f206164647265737360a81b606482015260840161112a565b506001600160a01b03166000908152609f602052604090205490565b61149b6000805160206156ca8339815191528284611f39565b600085815260d16020526040902080546119d790615178565b1590506119fa57604051636f55f62b60e01b81526004810186905260240161112a565b600085815260d160205260409020611a139085856148e3565b508115611b1157600085815260ce60205260409020805460ff19168315151790556001600160a01b038116611a5b57604051630ca2c90160e21b815260040160405180910390fd5b611a6d816001600160a01b0316612b74565b611a8c578060405163d4daafa160e01b815260040161112a9190614b1a565b611aa56000805160206156aa8339815191528683613157565b611abe60008051602061572a8339815191528683613157565b611ae560008051602061572a833981519152866000805160206156aa8339815191526131e8565b611b0c6000805160206156ca833981519152866000805160206156aa8339815191526131e8565b611b7f565b611b3160008051602061572a83398151915286611b2c612494565b613157565b611b5860008051602061572a8339815191528660008051602061572a8339815191526131e8565b611b7f6000805160206156ca8339815191528660008051602061572a8339815191526131e8565b5050505050565b61149b60008051602061572a83398151915282845b611ba583836120e9565b82611bb08282612ff8565b611b7f858585612e5f565b61149b60008051602061572a8339815191528284611f39565b606060998054610d6490615178565b600081815260d160205260409020805460609190611c0090615178565b80601f0160208091040260200160405190810160405280929190818152602001828054611c2c90615178565b8015611c795780601f10611c4e57610100808354040283529160200191611c79565b820191906000526020600020905b815481529060010190602001808311611c5c57829003601f168201915b50505050509050919050565b600083815260d1602052604090208054611c9e90615178565b15159050611cc257604051630817886d60e41b81526004810184905260240161112a565b611cdd60008051602061572a83398151915284610ac1612494565b611d1557611ce9612494565b8360008051602061572a83398151915260405163c8c801a760e01b815260040161112a93929190615422565b600083815260d160205260409020611d2e9083836148e3565b50505050565b6000611d3f826123d3565b6000828152609e6020526040902054609d80549091908110611d6357611d636151ad565b9060005260206000209060060201600201549050919050565b6000611d8782613253565b50600090815260d0602052604090205490565b61149b611da5612494565b838361327c565b600081815260ce602052604090205460ff16611dde5760405163db53ce7160e01b81526004810182905260240161112a565b611df76000805160206156aa8339815191528285613350565b611e176000805160206156aa83398151915282611e12612494565b613350565b6001600160a01b038216611e3e57604051630ca2c90160e21b815260040160405180910390fd5b611e576000805160206156aa8339815191528284611f39565b611e7060008051602061572a8339815191528284611f39565b611e896000805160206156ca8339815191528284611f39565b611ea26000805160206156ca8339815191528285611b9b565b611ebb60008051602061572a8339815191528285611b9b565b611ed46000805160206156aa8339815191528285611b9b565b604080516001600160a01b038086168252841660208201529081018290527f744258a28673e8738e2812c0ab8e8dbd70352f8871b1febac0dd753d96d79f58906060015b60405180910390a1505050565b600081815260cd6020526040812054610d4f565b611f4383836120e9565b82611f4e8282612ff8565b611b7f858585613157565b611f64611108612494565b611f805760405162461bcd60e51b815260040161112a906152b7565b611d2e8484848461337e565b600091825260ca602090815260408084209484529381528383206001600160a01b0392909216835252205460ff1690565b6000610f4c60008051602061572a8339815191528385611f8c565b611fe06129fb565b6040516001600160a01b038216907ffb445f6ec07647d2bb7af72821e6b8b7303ec375e934d4a338d38ed5846c2d5690600090a26001600160a01b0316600090815260cb60205260409020805460ff19169055565b6060612040826123d3565b600061205760408051602081019091526000815290565b60a0549091506001600160a01b03166120a35760008151116120885760405180602001604052806000815250610f4c565b80612092846123f8565b604051602001610eb7929190615443565b60a0546040516344a5a61760e11b8152600481018590526001600160a01b039091169063894b4c2e90602401610ef8565b6120e06110b582611143565b61147f816133f1565b600090815260ca60209081526040808320938352929052206001015490565b61211184612a0d565b600061211f8686600161343f565b9050831561213957600081815260d0602052604090208490555b8215612149576121498184613005565b505050505050565b600061215c836123d3565b506000918252609c602090815260408084206001600160a01b0393909316845291905290205490565b60008060606000806121968661187d565b600087815260cf602052604090205490955060ff1660028111156121bc576121bc6152a1565b600096875260d0602090815260408089205460cd90925290972054959790969395939450915050565b6121ed6129fb565b61147f81613457565b6060600061220f60408051602081019091526000815290565b60a0549091506001600160a01b031661226f57600081511161224057604051806020016040528060008152506122f9565b8061224a306134a1565b60405160200161225b929190615472565b6040516020818303038152906040526122f9565b60a060009054906101000a90046001600160a01b03166001600160a01b031663725fa09c6040518163ffffffff1660e01b815260040160006040518083038186803b1580156122bd57600080fd5b505afa1580156122d1573d6000803e3d6000fd5b505050506040513d6000823e601f3d908101601f191682016040526122f99190810190615203565b91505090565b600080600061230e858561292e565b9150915060005b818110156123855782818151811061232f5761232f6151ad565b602002602001015160001461237357612362838281518110612353576123536151ad565b602002602001015160006134b7565b156123735760019350505050610d4f565b8061237d81615286565b915050612315565b50600095945050505050565b6000610d4f8260006134b7565b60006001600160e01b031982166333cb74f560e11b1480610d4f57506301ffc9a760e01b6001600160e01b0319831614610d4f565b6123dc8161355c565b61147f5760405162461bcd60e51b815260040161112a906153ef565b60606000612405836135a8565b60010190506000816001600160401b0381111561242457612424614dbe565b6040519080825280601f01601f19166020018201604052801561244e576020820181803683370190505b5090508181016020015b600019016f181899199a1a9b1b9c1cb0b131b232b360811b600a86061a8153600a85049450846124875761248c565b612458565b509392505050565b600061249e613680565b905090565b60006124af8385612151565b90506000198114611d2e578181101561250a5760405162461bcd60e51b815260206004820152601f60248201527f455243333532353a20696e73756666696369656e7420616c6c6f77616e636500604482015260640161112a565b611d2e838561251985856154b6565b6136aa565b6000610d4f6137d9565b6001600160a01b0384166125885760405162461bcd60e51b815260206004820152602160248201527f455243333532353a206d696e7420746f20746865207a65726f206164647265736044820152607360f81b606482015260840161112a565b826125df5760405162461bcd60e51b815260206004820152602160248201527f455243333532353a2063616e6e6f74206d696e74207a65726f20746f6b656e496044820152601960fa1b606482015260840161112a565b6125e88361355c565b156126355760405162461bcd60e51b815260206004820152601d60248201527f455243333532353a20746f6b656e20616c7265616479206d696e746564000000604482015260640161112a565b6126408484846137f0565b61264a83826138a4565b611d2e565b6126588361355c565b6126b45760405162461bcd60e51b815260206004820152602760248201527f455243333532353a207472616e736665722066726f6d20696e76616c696420746044820152661bdad95b88125160ca1b606482015260840161112a565b6126bd8261355c565b6127175760405162461bcd60e51b815260206004820152602560248201527f455243333532353a207472616e7366657220746f20696e76616c696420746f6b604482015264195b88125160da1b606482015260840161112a565b6000838152609e6020526040812054609d8054909190811061273b5761273b6151ad565b906000526020600020906006020190506000609d609e60008681526020019081526020016000205481548110612773576127736151ad565b9060005260206000209060060201905082826002015410156127ea5760405162461bcd60e51b815260206004820152602a60248201527f455243333532353a20696e73756666696369656e742062616c616e636520666f60448201526939103a3930b739b332b960b11b606482015260840161112a565b80600101548260010154146128585760405162461bcd60e51b815260206004820152602e60248201527f455243333532353a207472616e7366657220746f20746f6b656e20776974682060448201526d191a5999995c995b9d081cdb1bdd60921b606482015260840161112a565b8282600201600082825461286c91906154b6565b925050819055508281600201600082825461288791906154cd565b9091555050604051838152849086906000805160206156ea8339815191529060200160405180910390a36128cc85858560405180602001604052806000815250613917565b611b7f5760405162461bcd60e51b815260206004820152602d60248201527f455243333532353a207472616e736665722072656a656374656420627920455260448201526c21999a991aa932b1b2b4bb32b960991b606482015260840161112a565b606060008061293c8561191d565b90506000816001600160401b0381111561295857612958614dbe565b604051908082528060200260200182016040528015612981578160200160208202803683370190505b5090506000805b838110156129ec57600061299c898361118b565b9050876129a882611143565b14156129d9578084846129ba81615286565b9550815181106129cc576129cc6151ad565b6020026020010181815250505b50806129e481615286565b915050612988565b509093509150505b9250929050565b612a0b612a06612494565b613a78565b565b61147f6000805160206156ca83398151915282612ff8565b826001600160a01b0316612a388261187d565b6001600160a01b031614612a9a5760405162461bcd60e51b8152602060048201526024808201527f455243333532353a207472616e736665722066726f6d20696e76616c6964206f6044820152633bb732b960e11b606482015260840161112a565b6001600160a01b038216612afe5760405162461bcd60e51b815260206004820152602560248201527f455243333532353a207472616e7366657220746f20746865207a65726f206164604482015264647265737360d81b606482015260840161112a565b6000612b0982611143565b90506000612b1683611d34565b9050612b23600084613ab3565b612b2c83613b4a565b612b368584613bf5565b612b408484613d16565b82846001600160a01b0316866001600160a01b031660008051602061579183398151915260405160405180910390a4611b7f565b6001600160a01b03163b151590565b600054610100900460ff16612baa5760405162461bcd60e51b815260040161112a906154e5565b61113e838383613d9f565b600054610100900460ff1615808015612bd55750600054600160ff909116105b80612bf65750612be430612b74565b158015612bf6575060005460ff166001145b612c125760405162461bcd60e51b815260040161112a90615309565b6000805460ff191660011790558015612c35576000805461ff0019166101001790555b612c3d613e06565b612c478383613e2d565b801561113e576000805461ff00191690556040516001815260008051602061574a83398151915290602001611f18565b60cc80546001600160a01b0319166001600160a01b0383169081179091556040517f5e4a30f4224898dbac86adca855a5edd3b8341a3aeb2b6ff0f0b5a82c013b65a90600090a250565b60008051602061570a833981519152546001600160a01b031690565b61147f6129fb565b7f4910fdfa16fed3260ed0e7147f7cc6da11a60208b5b9406d12a635614ffd91435460ff1615612d185761113e83613f50565b826001600160a01b03166352d1902d6040518163ffffffff1660e01b815260040160206040518083038186803b158015612d5157600080fd5b505afa925050508015612d81575060408051601f3d908101601f19168201909252612d7e91810190615530565b60015b612de45760405162461bcd60e51b815260206004820152602e60248201527f45524331393637557067726164653a206e657720696d706c656d656e7461746960448201526d6f6e206973206e6f74205555505360901b606482015260840161112a565b60008051602061570a8339815191528114612e535760405162461bcd60e51b815260206004820152602960248201527f45524331393637557067726164653a20756e737570706f727465642070726f786044820152681a58589b195555525160ba1b606482015260840161112a565b5061113e838383613fea565b612e6a838383611f8c565b1561113e57600082815260ca6020908152604080832086845282528083206001600160a01b03851684529091529020805460ff19169055612ea9612494565b6001600160a01b0316816001600160a01b0316847f6f9148fcdc32766ca802c14716295d56eab7ed848d0dba113966f40087c8839085604051612eee91815260200190565b60405180910390a4505050565b612f04816123d3565b6000818152609e6020526040812054609d80549091908110612f2857612f286151ad565b60009182526020909120600691909102016003810154600182015460028301549293506001600160a01b0390911691612f6085613b4a565b612f6a8386613bf5565b612f738561400f565b6000856000805160206156ea83398151915283604051612f9591815260200190565b60405180910390a3600082867fe4f48c240d3b994948aa54f3e2f5fca59263dfe1d52b6e4cf39a5d249b5ccb6560405160405180910390a460405185906000906001600160a01b03861690600080516020615791833981519152908390a4611b7f565b61149b8282611e12612494565b600082815260cd602090815260409182902083905581518481529081018390527f5e07998cef9cea674942c66f0ea7b0bce89ab9473ce240cc93d616c3491f8aeb910160405180910390a15050565b61305f82600161421d565b600082815260d06020526040908190208290555182907f1ebc57da8b3ebab98506502fbb73232ea29fbe86e4963a5a8c004810ad11190d906130a49084815260200190565b60405180910390a25050565b6130b981613253565b6001600082815260cf602052604090205460ff1660028111156130de576130de6152a1565b1461311757600081815260cf6020526040908190205490516308c9ef2d60e11b815261112a91839160ff9091169060019060040161556b565b600081815260cf6020526040808220805460ff191690555182917fe2babfd5e77285a3c3dbc4b25592cbe4a7a26e97a7ac63067a22ebdaa9b82add91a250565b613162838383611f8c565b61113e57600082815260ca6020908152604080832086845282528083206001600160a01b03851684529091529020805460ff191660011790556131a3612494565b6001600160a01b0316816001600160a01b0316847f4dc88bd74ca601684356789d5b3dbc9cd44275b2544e8d35041203703b76823285604051612eee91815260200190565b60006131f484846120e9565b600084815260ca6020908152604080832088845282529182902060010185905590518581529192508391839187917f15f4a36186b2284157fe71215a07487f6c8bdc1203b3307c3e1fd9693011d3d3910160405180910390a450505050565b61325c8161355c565b61147f576040516321fbdd2b60e11b81526004810182905260240161112a565b816001600160a01b0316836001600160a01b031614156132de5760405162461bcd60e51b815260206004820152601a60248201527f455243333532353a20617070726f766520746f2063616c6c6572000000000000604482015260640161112a565b6001600160a01b038381166000818152609f602090815260408083209487168084526002909501825291829020805460ff191686151590811790915591519182527f17307eab39ab6107e8899845ad3d59bd9653f200f220920489ca2b5937696c3191015b60405180910390a3505050565b61335b838383611f8c565b61113e5780828460405163c8c801a760e01b815260040161112a93929190615422565b613389848484612a25565b6133958484848461424f565b611d2e5760405162461bcd60e51b815260206004820152602760248201527f455243333532353a207472616e7366657220746f206e6f6e204552433732315260448201526632b1b2b4bb32b960c91b606482015260840161112a565b6133fc81600161421d565b600081815260cf6020526040808220805460ff191660011790555182917f779fbee689bbd6f006ecb329206d35c7db7380f9837a8826fb8dc5cfcd3d33dd91a250565b60006134496137d9565b9050610f4c84828585612528565b60a080546001600160a01b0319166001600160a01b0383169081179091556040517f5252f52e45fc8ee6a7b43cef3645d23e9a470a34182b8b3a12627556635bfc9c90600090a250565b6060610d4f6001600160a01b03831660146143b2565b600082815260cf602052604081205460ff16818160028111156134dc576134dc6152a1565b146134eb576000915050610d4f565b60006134f68561187d565b600086815260d0602052604090205490915015801590613514575083155b15613548576001600160a01b0381161580159061353f5750600085815260d060205260409020544211155b92505050610d4f565b6001600160a01b031615159150610d4f9050565b609d5460009015801590610d4f57506000828152609e6020526040902054609d8054849290811061358f5761358f6151ad565b9060005260206000209060060201600001541492915050565b60008072184f03e93ff9f4daa797ed6e38ed64bf6a1f0160401b83106135e75772184f03e93ff9f4daa797ed6e38ed64bf6a1f0160401b830492506040015b6d04ee2d6d415b85acef81000000008310613613576d04ee2d6d415b85acef8100000000830492506020015b662386f26fc10000831061363157662386f26fc10000830492506010015b6305f5e1008310613649576305f5e100830492506008015b612710831061365d57612710830492506004015b6064831061366f576064830492506002015b600a8310610d4f5760010192915050565b3360009081526097602052604081205460ff16156136a5575060131936013560601c90565b503390565b6001600160a01b0382166137135760405162461bcd60e51b815260206004820152602a60248201527f455243333532353a20617070726f76652076616c756520746f20746865207a65604482015269726f206164647265737360b01b606482015260840161112a565b61371d828461454d565b613783576000838152609e6020526040902054609d80549091908110613745576137456151ad565b60009182526020808320600692909202909101600501805460018101825590835291200180546001600160a01b0319166001600160a01b0384161790555b6000838152609c602090815260408083206001600160a01b038616808552908352928190208490555183815285917f621b050de0ad08b51d19b48b3e6df75348c4de6bdd93e81b252ca62e28265b1b9101613343565b60006137e9609b80546001019055565b50609b5490565b6040805160c081018252838152602080820184905260008284018190526001600160a01b038716606084015260808301819052835181815291820190935260a0820152905061383e81614621565b6138488484613d16565b60405183906001600160a01b03861690600090600080516020615791833981519152908290a4816000847fe4f48c240d3b994948aa54f3e2f5fca59263dfe1d52b6e4cf39a5d249b5ccb6560405160405180910390a450505050565b6000828152609e6020526040902054609d805483929081106138c8576138c86151ad565b906000526020600020906006020160020160008282546138e891906154cd565b909155505060405181815282906000906000805160206156ea8339815191529060200160405180910390a35050565b6000806139238561187d565b9050613937816001600160a01b0316612b74565b80156139bb57506040516301ffc9a760e01b8152629ce20b60e01b60048201526001600160a01b038216906301ffc9a79060240160206040518083038186803b15801561398357600080fd5b505afa158015613997573d6000803e3d6000fd5b505050506040513d601f19601f820116820180604052508101906139bb919061558c565b15613a6a576000816001600160a01b0316629ce20b6139d8612494565b898989896040518663ffffffff1660e01b81526004016139fc9594939291906155a9565b602060405180830381600087803b158015613a1657600080fd5b505af1158015613a2a573d6000803e3d6000fd5b505050506040513d601f19601f82011682018060405250810190613a4e91906155e7565b6001600160e01b031916629ce20b60e01b149250613a70915050565b60019150505b949350505050565b6001600160a01b038116600090815260cb602052604090205460ff1661147f5780604051632957ccdd60e21b815260040161112a9190614b1a565b6000818152609e6020526040902054609d80548492908110613ad757613ad76151ad565b6000918252602090912060069091020160040180546001600160a01b0319166001600160a01b0392831617905581908316613b118261187d565b6001600160a01b03167f8c5be1e5ebec7d5bd14f71427d1e84f3dd0314c0f7b2291e5b200ac8c7c3b92560405160405180910390a45050565b6000818152609e6020526040812054609d80549091908110613b6e57613b6e6151ad565b600091825260208220600560069092020190810154909250905b81811015613be6576000836005018281548110613ba757613ba76151ad565b6000918252602080832090910154878352609c825260408084206001600160a01b03909216845291528120555080613bde81615286565b915050613b88565b5061113e600583016000614967565b6000818152609e6020526040812054609d80549091908110613c1957613c196151ad565b6000918252602080832060069290920290910160030180546001600160a01b0319166001600160a01b039485161790559184168152609f909152604081208054909190613c68906001906154b6565b90506000826000018281548110613c8157613c816151ad565b90600052602060002001549050600083600101600086815260200190815260200160002054905081846000018281548110613cbe57613cbe6151ad565b60009182526020808320909101929092558381526001860190915260408082208390558682528120558354849080613cf857613cf8615604565b60019003818190600052602060002001600090559055505050505050565b6000818152609e6020526040902054609d80548492908110613d3a57613d3a6151ad565b6000918252602080832060069290920290910160030180546001600160a01b0319166001600160a01b03948516179055939091168152609f80845260408083208054858552600182810188529285208190559286529082018155825292902090910155565b600054610100900460ff16613dc65760405162461bcd60e51b815260040161112a906154e5565b8251613dd9906098906020860190614985565b508151613ded906099906020850190614985565b50609a805460ff191660ff929092169190911790555050565b600054610100900460ff16612a0b5760405162461bcd60e51b815260040161112a906154e5565b600054610100900460ff1615808015613e4d5750600054600160ff909116105b80613e6e5750613e5c30612b74565b158015613e6e575060005460ff166001145b613e8a5760405162461bcd60e51b815260040161112a90615309565b6000805460ff191660011790558015613ead576000805461ff0019166101001790555b60005b82811015613f1f57600160976000868685818110613ed057613ed06151ad565b9050602002016020810190613ee59190614be8565b6001600160a01b031681526020810191909152604001600020805460ff191691151591909117905580613f1781615286565b915050613eb0565b50801561113e576000805461ff00191690556040516001815260008051602061574a83398151915290602001611f18565b613f5981612b74565b613fbb5760405162461bcd60e51b815260206004820152602d60248201527f455243313936373a206e657720696d706c656d656e746174696f6e206973206e60448201526c1bdd08184818dbdb9d1c9858dd609a1b606482015260840161112a565b60008051602061570a83398151915280546001600160a01b0319166001600160a01b0392909216919091179055565b613ff383614773565b6000825111806140005750805b1561113e57611d2e83836147b3565b609d54600090614021906001906154b6565b6000838152609e6020526040812054609d8054939450909284908110614049576140496151ad565b60009182526020918290206040805160c08101825260069093029091018054835260018101548385015260028101548383015260038101546001600160a01b03908116606085015260048201541660808401526005810180548351818702810187019094528084529394919360a0860193928301828280156140f457602002820191906000526020600020905b81546001600160a01b031681526001909101906020018083116140d6575b505050505081525050905080609d8381548110614113576141136151ad565b600091825260209182902083516006909202019081558282015160018201556040830151600282015560608301516003820180546001600160a01b039283166001600160a01b031991821617909155608085015160048401805491909316911617905560a083015180519192614191926005850192909101906149f9565b505081516000908152609e602052604080822085905586825281205550609d8054806141bf576141bf615604565b60008281526020812060066000199093019283020181815560018101829055600281018290556003810180546001600160a01b03199081169091556004820180549091169055906142136005830182614967565b5050905550505050565b61422782826134b7565b61149b576040516316af84a960e21b815260048101839052811515602482015260440161112a565b6000614263846001600160a01b0316612b74565b156143aa57836001600160a01b031663150b7a0261427f612494565b8786866040518563ffffffff1660e01b81526004016142a1949392919061561a565b602060405180830381600087803b1580156142bb57600080fd5b505af19250505080156142eb575060408051601f3d908101601f191682019092526142e8918101906155e7565b60015b614390573d808015614319576040519150601f19603f3d011682016040523d82523d6000602084013e61431e565b606091505b5080516143885760405162461bcd60e51b815260206004820152603260248201527f4552433732313a207472616e7366657220746f206e6f6e20455243373231526560448201527131b2b4bb32b91034b6b83632b6b2b73a32b960711b606482015260840161112a565b805181602001fd5b6001600160e01b031916630a85bd0160e11b149050613a70565b506001613a70565b606060006143c1836002615657565b6143cc9060026154cd565b6001600160401b038111156143e3576143e3614dbe565b6040519080825280601f01601f19166020018201604052801561440d576020820181803683370190505b509050600360fc1b81600081518110614428576144286151ad565b60200101906001600160f81b031916908160001a905350600f60fb1b81600181518110614457576144576151ad565b60200101906001600160f81b031916908160001a905350600061447b846002615657565b6144869060016154cd565b90505b60018111156144fe576f181899199a1a9b1b9c1cb0b131b232b360811b85600f16601081106144ba576144ba6151ad565b1a60f81b8282815181106144d0576144d06151ad565b60200101906001600160f81b031916908160001a90535060049490941c936144f781615676565b9050614489565b508315610f4c5760405162461bcd60e51b815260206004820181905260248201527f537472696e67733a20686578206c656e67746820696e73756666696369656e74604482015260640161112a565b6000818152609e6020526040812054609d80548392908110614571576145716151ad565b6000918252602082206005600690920201015491505b81811015614616576000848152609e6020526040902054609d80546001600160a01b038816929081106145bc576145bc6151ad565b906000526020600020906006020160050182815481106145de576145de6151ad565b6000918252602090912001546001600160a01b0316141561460457600192505050610d4f565b8061460e81615286565b915050614587565b506000949350505050565b609d805482516000908152609e6020908152604080832084905560018401855593909152835160069092027fd26e832454299e9fabb89e0e5fffdc046d4e14431bc1bf607ffb2e8a1ddecf7b8101928355818501517fd26e832454299e9fabb89e0e5fffdc046d4e14431bc1bf607ffb2e8a1ddecf7c820155928401517fd26e832454299e9fabb89e0e5fffdc046d4e14431bc1bf607ffb2e8a1ddecf7d84015560608401517fd26e832454299e9fabb89e0e5fffdc046d4e14431bc1bf607ffb2e8a1ddecf7e840180546001600160a01b039283166001600160a01b03199182161790915560808601517fd26e832454299e9fabb89e0e5fffdc046d4e14431bc1bf607ffb2e8a1ddecf7f8601805491909316911617905560a084015180518594611d2e937fd26e832454299e9fabb89e0e5fffdc046d4e14431bc1bf607ffb2e8a1ddecf809091019201906149f9565b61477c81613f50565b6040516001600160a01b038216907fbc7cd75a20ee27fd9adebab32041f755214dbc6bffa90cc0225b39da2e5c2d3b90600090a250565b60606147be83612b74565b6148195760405162461bcd60e51b815260206004820152602660248201527f416464726573733a2064656c65676174652063616c6c20746f206e6f6e2d636f6044820152651b9d1c9858dd60d21b606482015260840161112a565b600080846001600160a01b031684604051614834919061568d565b600060405180830381855af49150503d806000811461486f576040519150601f19603f3d011682016040523d82523d6000602084013e614874565b606091505b509150915061489c828260405180606001604052806027815260200161576a602791396148a5565b95945050505050565b606083156148b4575081610f4c565b610f4c83838151156148c95781518083602001fd5b8060405162461bcd60e51b815260040161112a9190614aee565b8280546148ef90615178565b90600052602060002090601f0160209004810192826149115760008555614957565b82601f1061492a5782800160ff19823516178555614957565b82800160010185558215614957579182015b8281111561495757823582559160200191906001019061493c565b50614963929150614a4e565b5090565b508054600082559060005260206000209081019061147f9190614a4e565b82805461499190615178565b90600052602060002090601f0160209004810192826149b35760008555614957565b82601f106149cc57805160ff1916838001178555614957565b82800160010185558215614957579182015b828111156149575782518255916020019190600101906149de565b828054828255906000526020600020908101928215614957579160200282015b8281111561495757825182546001600160a01b0319166001600160a01b03909116178255602090920191600190910190614a19565b5b808211156149635760008155600101614a4f565b6001600160e01b03198116811461147f57600080fd5b600060208284031215614a8b57600080fd5b8135610f4c81614a63565b60005b83811015614ab1578181015183820152602001614a99565b83811115611d2e5750506000910152565b60008151808452614ada816020860160208601614a96565b601f01601f19169290920160200192915050565b602081526000610f4c6020830184614ac2565b600060208284031215614b1357600080fd5b5035919050565b6001600160a01b0391909116815260200190565b80356001600160a01b03811681146118e857600080fd5b60008060408385031215614b5857600080fd5b614b6183614b2e565b946020939093013593505050565b600080600060608486031215614b8457600080fd5b83359250614b9460208501614b2e565b9150604084013590509250925092565b6020808252825182820181905260009190848201906040850190845b81811015614bdc57835183529284019291840191600101614bc0565b50909695505050505050565b600060208284031215614bfa57600080fd5b610f4c82614b2e565b600080600060608486031215614c1857600080fd5b614c2184614b2e565b9250614b9460208501614b2e565b600080600060608486031215614c4457600080fd5b505081359360208301359350604090920135919050565b60008083601f840112614c6d57600080fd5b5081356001600160401b03811115614c8457600080fd5b6020830191508360208285010111156129f457600080fd5b60008060008060008060008060a0898b031215614cb857600080fd5b88356001600160401b0380821115614ccf57600080fd5b614cdb8c838d01614c5b565b909a50985060208b0135915080821115614cf457600080fd5b614d008c838d01614c5b565b9098509650869150614d1460408c01614b2e565b9550614d2260608c01614b2e565b945060808b0135915080821115614d3857600080fd5b818b0191508b601f830112614d4c57600080fd5b813581811115614d5b57600080fd5b8c60208260051b8501011115614d7057600080fd5b6020830194508093505050509295985092959890939650565b600080600060608486031215614d9e57600080fd5b8335925060208401359150614db560408501614b2e565b90509250925092565b634e487b7160e01b600052604160045260246000fd5b604051601f8201601f191681016001600160401b0381118282101715614dfc57614dfc614dbe565b604052919050565b60006001600160401b03821115614e1d57614e1d614dbe565b50601f01601f191660200190565b600082601f830112614e3c57600080fd5b8135614e4f614e4a82614e04565b614dd4565b818152846020838601011115614e6457600080fd5b816020850160208301376000918101602001919091529392505050565b60008060408385031215614e9457600080fd5b614e9d83614b2e565b915060208301356001600160401b03811115614eb857600080fd5b614ec485828601614e2b565b9150509250929050565b60008060408385031215614ee157600080fd5b50508035926020909101359150565b600060808284031215614f0257600080fd5b50919050565b600080600060c08486031215614f1d57600080fd5b8335925060208401359150614db58560408601614ef0565b801515811461147f57600080fd5b600080600080600060808688031215614f5b57600080fd5b8535945060208601356001600160401b03811115614f7857600080fd5b614f8488828901614c5b565b9095509350506040860135614f9881614f35565b9150614fa660608701614b2e565b90509295509295909350565b600080600060408486031215614fc757600080fd5b8335925060208401356001600160401b03811115614fe457600080fd5b614ff086828701614c5b565b9497909650939450505050565b6000806040838503121561501057600080fd5b61501983614b2e565b9150602083013561502981614f35565b809150509250929050565b6000806000806080858703121561504a57600080fd5b61505385614b2e565b935061506160208601614b2e565b92506040850135915060608501356001600160401b0381111561508357600080fd5b61508f87828801614e2b565b91505092959194509250565b600080600080600061010086880312156150b457600080fd5b6150bd86614b2e565b9450602086013593506040860135925060608601359150614fa68760808801614ef0565b600080604083850312156150f457600080fd5b8235915061510460208401614b2e565b90509250929050565b6001600160a01b038616815260ff8516602082015260a06040820181905260009061513a90830186614ac2565b606083019490945250608001529392505050565b6000806040838503121561516157600080fd5b61516a83614b2e565b915061510460208401614b2e565b600181811c9082168061518c57607f821691505b60208210811415614f0257634e487b7160e01b600052602260045260246000fd5b634e487b7160e01b600052603260045260246000fd5b600083516151d5818460208801614a96565b64736c6f742f60d81b90830190815283516151f7816005840160208801614a96565b01600501949350505050565b60006020828403121561521557600080fd5b81516001600160401b0381111561522b57600080fd5b8201601f8101841361523c57600080fd5b805161524a614e4a82614e04565b81815285602083850101111561525f57600080fd5b61489c826020830160208601614a96565b634e487b7160e01b600052601160045260246000fd5b600060001982141561529a5761529a615270565b5060010190565b634e487b7160e01b600052602160045260246000fd5b60208082526032908201527f455243333532353a207472616e736665722063616c6c6572206973206e6f74206040820152711bdddb995c881b9bdc88185c1c1c9bdd995960721b606082015260800190565b6020808252602e908201527f496e697469616c697a61626c653a20636f6e747261637420697320616c72656160408201526d191e481a5b9a5d1a585b1a5e995960921b606082015260800190565b6020808252602c908201527f46756e6374696f6e206d7573742062652063616c6c6564207468726f7567682060408201526b19195b1959d85d1958d85b1b60a21b606082015260800190565b6020808252602c908201527f46756e6374696f6e206d7573742062652063616c6c6564207468726f7567682060408201526b6163746976652070726f787960a01b606082015260800190565b602080825260199082015278115490cccd4c8d4e881a5b9d985b1a59081d1bdad95b881251603a1b604082015260600190565b6001600160a01b039390931683526020830191909152604082015260600190565b60008351615455818460208801614a96565b835190830190615469818360208801614a96565b01949350505050565b60008351615484818460208801614a96565b68636f6e74726163742f60b81b90830190815283516154aa816009840160208801614a96565b01600901949350505050565b6000828210156154c8576154c8615270565b500390565b600082198211156154e0576154e0615270565b500190565b6020808252602b908201527f496e697469616c697a61626c653a20636f6e7472616374206973206e6f74206960408201526a6e697469616c697a696e6760a81b606082015260800190565b60006020828403121561554257600080fd5b5051919050565b6003811061556757634e487b7160e01b600052602160045260246000fd5b9052565b8381526060810161557f6020830185615549565b613a706040830184615549565b60006020828403121561559e57600080fd5b8151610f4c81614f35565b60018060a01b038616815284602082015283604082015282606082015260a0608082015260006155dc60a0830184614ac2565b979650505050505050565b6000602082840312156155f957600080fd5b8151610f4c81614a63565b634e487b7160e01b600052603160045260246000fd5b6001600160a01b038581168252841660208201526040810183905260806060820181905260009061564d90830184614ac2565b9695505050505050565b600081600019048311821515161561567157615671615270565b500290565b60008161568557615685615270565b506000190190565b6000825161569f818460208701614a96565b919091019291505056fefca69b310bd19d275687ebe00b254b0772cf7a367c3f81a9a5a433f831fdc1dc3c63e605be3290ab6b04cfc46c6e1516e626d43236b034f09d7ede1d017beb0c0b2aac84f3ec956911fd78eae5311062972ff949f38412e8da39069d9f068cc6360894a13ba1a3210667c828492db98dca3e2076cc3735a920a3ca505d382bbc449b0a7e0acc0a95c71947cb19fdd122b42abca9bdfbd6707ca4f1e3fdaef05e7f26b83ff96e1f2b6a682f133852f6798a09c465da95921460cefb3847402498416464726573733a206c6f772d6c6576656c2064656c65676174652063616c6c206661696c6564ddf252ad1be2c89b69c2b068fc378daa952ba7f163c4a11628f55a4df523b3efa2646970667358221220f870172234a9f8eee383d3d8ac02df6666feb3fc586847b3dcccf947fe732bbe64736f6c63430008090033",
  "linkReferences": {},
  "deployedLinkReferences": {}
}