{
  "_format": "hh-sol-artifact-1",
  "contractName": "GatewayToken",
  "sourceName": "contracts/GatewayToken.sol",
  "abi": [
    {
      "inputs": [],
      "stateMutability": "nonpayable",
      "type": "constructor"
    },
    {
      "inputs": [],
      "name": "Common__MissingAccount",
      "type": "error"
    },
    {
      "inputs": [
        {
          "internalType": "address",
          "name": "account",
          "type": "address"
        }
      ],
      "name": "Common__NotContract",
      "type": "error"
    },
    {
      "inputs": [
        {
          "internalType": "address",
          "name": "account",
          "type": "address"
        }
      ],
      "name": "Common__NotSuperAdmin",
      "type": "error"
    },
    {
      "inputs": [
        {
          "internalType": "address",
          "name": "sender",
          "type": "address"
        },
        {
          "internalType": "uint256",
          "name": "domain",
          "type": "uint256"
        },
        {
          "internalType": "bytes32",
          "name": "role",
          "type": "bytes32"
        }
      ],
      "name": "Common__Unauthorized",
      "type": "error"
    },
    {
      "inputs": [],
      "name": "GatewayToken__EmptyNetworkName",
      "type": "error"
    },
    {
      "inputs": [
        {
          "internalType": "uint256",
          "name": "available",
          "type": "uint256"
        },
        {
          "internalType": "uint256",
          "name": "required",
          "type": "uint256"
        }
      ],
      "name": "GatewayToken__InsufficientFunds",
      "type": "error"
    },
    {
      "inputs": [
        {
          "internalType": "uint256",
          "name": "network",
          "type": "uint256"
        }
      ],
      "name": "GatewayToken__NetworkAlreadyExists",
      "type": "error"
    },
    {
      "inputs": [
        {
          "internalType": "uint256",
          "name": "network",
          "type": "uint256"
        }
      ],
      "name": "GatewayToken__NetworkDoesNotExist",
      "type": "error"
    },
    {
      "inputs": [
        {
          "internalType": "uint256",
          "name": "network",
          "type": "uint256"
        }
      ],
      "name": "GatewayToken__NotDAOGoverned",
      "type": "error"
    },
    {
      "inputs": [
        {
          "internalType": "uint256",
          "name": "tokenId",
          "type": "uint256"
        }
      ],
      "name": "GatewayToken__TokenDoesNotExist",
      "type": "error"
    },
    {
      "inputs": [
        {
          "internalType": "uint256",
          "name": "tokenId",
          "type": "uint256"
        },
        {
          "internalType": "bool",
          "name": "allowExpired",
          "type": "bool"
        }
      ],
      "name": "GatewayToken__TokenDoesNotExistOrIsInactive",
      "type": "error"
    },
    {
      "inputs": [
        {
          "internalType": "uint256",
          "name": "tokenId",
          "type": "uint256"
        },
        {
          "internalType": "enum IGatewayToken.TokenState",
          "name": "state",
          "type": "uint8"
        },
        {
          "internalType": "enum IGatewayToken.TokenState",
          "name": "expectedState",
          "type": "uint8"
        }
      ],
      "name": "GatewayToken__TokenInvalidStateForOperation",
      "type": "error"
    },
    {
      "inputs": [],
      "name": "GatewayToken__TransferDisabled",
      "type": "error"
    },
    {
      "inputs": [
        {
          "internalType": "bytes32",
          "name": "role",
          "type": "bytes32"
        },
        {
          "internalType": "address",
          "name": "account",
          "type": "address"
        }
      ],
      "name": "ParameterizedAccessControl__RenounceRoleNotForSelf",
      "type": "error"
    },
    {
      "anonymous": false,
      "inputs": [
        {
          "indexed": false,
          "internalType": "address",
          "name": "previousAdmin",
          "type": "address"
        },
        {
          "indexed": false,
          "internalType": "address",
          "name": "newAdmin",
          "type": "address"
        }
      ],
      "name": "AdminChanged",
      "type": "event"
    },
    {
      "anonymous": false,
      "inputs": [
        {
          "indexed": true,
          "internalType": "address",
          "name": "_owner",
          "type": "address"
        },
        {
          "indexed": true,
          "internalType": "address",
          "name": "_approved",
          "type": "address"
        },
        {
          "indexed": true,
          "internalType": "uint256",
          "name": "_tokenId",
          "type": "uint256"
        }
      ],
      "name": "Approval",
      "type": "event"
    },
    {
      "anonymous": false,
      "inputs": [
        {
          "indexed": true,
          "internalType": "address",
          "name": "_owner",
          "type": "address"
        },
        {
          "indexed": true,
          "internalType": "address",
          "name": "_operator",
          "type": "address"
        },
        {
          "indexed": false,
          "internalType": "bool",
          "name": "_approved",
          "type": "bool"
        }
      ],
      "name": "ApprovalForAll",
      "type": "event"
    },
    {
      "anonymous": false,
      "inputs": [
        {
          "indexed": true,
          "internalType": "uint256",
          "name": "_tokenId",
          "type": "uint256"
        },
        {
          "indexed": true,
          "internalType": "address",
          "name": "_operator",
          "type": "address"
        },
        {
          "indexed": false,
          "internalType": "uint256",
          "name": "_value",
          "type": "uint256"
        }
      ],
      "name": "ApprovalValue",
      "type": "event"
    },
    {
      "anonymous": false,
      "inputs": [
        {
          "indexed": true,
          "internalType": "address",
          "name": "beacon",
          "type": "address"
        }
      ],
      "name": "BeaconUpgraded",
      "type": "event"
    },
    {
      "anonymous": false,
      "inputs": [
        {
          "indexed": false,
          "internalType": "uint256",
          "name": "tokenId",
          "type": "uint256"
        },
        {
          "indexed": false,
          "internalType": "uint256",
          "name": "bitmask",
          "type": "uint256"
        }
      ],
      "name": "BitMaskUpdated",
      "type": "event"
    },
    {
      "anonymous": false,
      "inputs": [
        {
          "indexed": true,
          "internalType": "address",
          "name": "chargeHandler",
          "type": "address"
        }
      ],
      "name": "ChargeHandlerUpdated",
      "type": "event"
    },
    {
      "anonymous": false,
      "inputs": [
        {
          "indexed": false,
          "internalType": "address",
          "name": "previousDAOManager",
          "type": "address"
        },
        {
          "indexed": false,
          "internalType": "address",
          "name": "newDAOManager",
          "type": "address"
        },
        {
          "indexed": false,
          "internalType": "uint256",
          "name": "network",
          "type": "uint256"
        }
      ],
      "name": "DAOManagerTransferred",
      "type": "event"
    },
    {
      "anonymous": false,
      "inputs": [
        {
          "indexed": true,
          "internalType": "uint256",
          "name": "tokenId",
          "type": "uint256"
        },
        {
          "indexed": false,
          "internalType": "uint256",
          "name": "timestamp",
          "type": "uint256"
        }
      ],
      "name": "Expiration",
      "type": "event"
    },
    {
      "anonymous": false,
      "inputs": [
        {
          "indexed": true,
          "internalType": "address",
          "name": "flagsStorage",
          "type": "address"
        }
      ],
      "name": "FlagsStorageUpdated",
      "type": "event"
    },
    {
      "anonymous": false,
      "inputs": [
        {
          "indexed": true,
          "internalType": "uint256",
          "name": "tokenId",
          "type": "uint256"
        }
      ],
      "name": "Freeze",
      "type": "event"
    },
    {
      "anonymous": false,
      "inputs": [
        {
          "indexed": false,
          "internalType": "uint8",
          "name": "version",
          "type": "uint8"
        }
      ],
      "name": "Initialized",
      "type": "event"
    },
    {
      "anonymous": false,
      "inputs": [
        {
          "indexed": true,
          "internalType": "uint256",
          "name": "tokenId",
          "type": "uint256"
        }
      ],
      "name": "Revoke",
      "type": "event"
    },
    {
      "anonymous": false,
      "inputs": [
        {
          "indexed": true,
          "internalType": "bytes32",
          "name": "role",
          "type": "bytes32"
        },
        {
          "indexed": false,
          "internalType": "uint256",
          "name": "domain",
          "type": "uint256"
        },
        {
          "indexed": true,
          "internalType": "bytes32",
          "name": "previousAdminRole",
          "type": "bytes32"
        },
        {
          "indexed": true,
          "internalType": "bytes32",
          "name": "newAdminRole",
          "type": "bytes32"
        }
      ],
      "name": "RoleAdminChanged",
      "type": "event"
    },
    {
      "anonymous": false,
      "inputs": [
        {
          "indexed": true,
          "internalType": "bytes32",
          "name": "role",
          "type": "bytes32"
        },
        {
          "indexed": false,
          "internalType": "uint256",
          "name": "domain",
          "type": "uint256"
        },
        {
          "indexed": true,
          "internalType": "address",
          "name": "account",
          "type": "address"
        },
        {
          "indexed": true,
          "internalType": "address",
          "name": "sender",
          "type": "address"
        }
      ],
      "name": "RoleGranted",
      "type": "event"
    },
    {
      "anonymous": false,
      "inputs": [
        {
          "indexed": true,
          "internalType": "bytes32",
          "name": "role",
          "type": "bytes32"
        },
        {
          "indexed": false,
          "internalType": "uint256",
          "name": "domain",
          "type": "uint256"
        },
        {
          "indexed": true,
          "internalType": "address",
          "name": "account",
          "type": "address"
        },
        {
          "indexed": true,
          "internalType": "address",
          "name": "sender",
          "type": "address"
        }
      ],
      "name": "RoleRevoked",
      "type": "event"
    },
    {
      "anonymous": false,
      "inputs": [
        {
          "indexed": true,
          "internalType": "address",
          "name": "metadataDescriptor",
          "type": "address"
        }
      ],
      "name": "SetMetadataDescriptor",
      "type": "event"
    },
    {
      "anonymous": false,
      "inputs": [
        {
          "indexed": true,
          "internalType": "uint256",
          "name": "_tokenId",
          "type": "uint256"
        },
        {
          "indexed": true,
          "internalType": "uint256",
          "name": "_oldSlot",
          "type": "uint256"
        },
        {
          "indexed": true,
          "internalType": "uint256",
          "name": "_newSlot",
          "type": "uint256"
        }
      ],
      "name": "SlotChanged",
      "type": "event"
    },
    {
      "anonymous": false,
      "inputs": [
        {
          "indexed": true,
          "internalType": "address",
          "name": "account",
          "type": "address"
        }
      ],
      "name": "SuperAdminAdded",
      "type": "event"
    },
    {
      "anonymous": false,
      "inputs": [
        {
          "indexed": true,
          "internalType": "address",
          "name": "account",
          "type": "address"
        }
      ],
      "name": "SuperAdminRemoved",
      "type": "event"
    },
    {
      "anonymous": false,
      "inputs": [
        {
          "indexed": true,
          "internalType": "address",
          "name": "_from",
          "type": "address"
        },
        {
          "indexed": true,
          "internalType": "address",
          "name": "_to",
          "type": "address"
        },
        {
          "indexed": true,
          "internalType": "uint256",
          "name": "_tokenId",
          "type": "uint256"
        }
      ],
      "name": "Transfer",
      "type": "event"
    },
    {
      "anonymous": false,
      "inputs": [
        {
          "indexed": true,
          "internalType": "uint256",
          "name": "_fromTokenId",
          "type": "uint256"
        },
        {
          "indexed": true,
          "internalType": "uint256",
          "name": "_toTokenId",
          "type": "uint256"
        },
        {
          "indexed": false,
          "internalType": "uint256",
          "name": "_value",
          "type": "uint256"
        }
      ],
      "name": "TransferValue",
      "type": "event"
    },
    {
      "anonymous": false,
      "inputs": [
        {
          "indexed": true,
          "internalType": "uint256",
          "name": "tokenId",
          "type": "uint256"
        }
      ],
      "name": "Unfreeze",
      "type": "event"
    },
    {
      "anonymous": false,
      "inputs": [
        {
          "indexed": true,
          "internalType": "address",
          "name": "implementation",
          "type": "address"
        }
      ],
      "name": "Upgraded",
      "type": "event"
    },
    {
      "inputs": [],
      "name": "DAO_MANAGER_ROLE",
      "outputs": [
        {
          "internalType": "bytes32",
          "name": "",
          "type": "bytes32"
        }
      ],
      "stateMutability": "view",
      "type": "function"
    },
    {
      "inputs": [],
      "name": "DEFAULT_ADMIN_ROLE",
      "outputs": [
        {
          "internalType": "bytes32",
          "name": "",
          "type": "bytes32"
        }
      ],
      "stateMutability": "view",
      "type": "function"
    },
    {
      "inputs": [],
      "name": "GATEKEEPER_ROLE",
      "outputs": [
        {
          "internalType": "bytes32",
          "name": "",
          "type": "bytes32"
        }
      ],
      "stateMutability": "view",
      "type": "function"
    },
    {
      "inputs": [],
      "name": "NETWORK_AUTHORITY_ROLE",
      "outputs": [
        {
          "internalType": "bytes32",
          "name": "",
          "type": "bytes32"
        }
      ],
      "stateMutability": "view",
      "type": "function"
    },
    {
      "inputs": [
        {
          "internalType": "address",
          "name": "forwarder",
          "type": "address"
        }
      ],
      "name": "addForwarder",
      "outputs": [],
      "stateMutability": "nonpayable",
      "type": "function"
    },
    {
      "inputs": [
        {
          "internalType": "address",
          "name": "gatekeeper",
          "type": "address"
        },
        {
          "internalType": "uint256",
          "name": "network",
          "type": "uint256"
        }
      ],
      "name": "addGatekeeper",
      "outputs": [],
      "stateMutability": "nonpayable",
      "type": "function"
    },
    {
      "inputs": [
        {
          "internalType": "address",
          "name": "authority",
          "type": "address"
        },
        {
          "internalType": "uint256",
          "name": "network",
          "type": "uint256"
        }
      ],
      "name": "addNetworkAuthority",
      "outputs": [],
      "stateMutability": "nonpayable",
      "type": "function"
    },
    {
      "inputs": [
        {
          "internalType": "uint256",
          "name": "tokenId_",
          "type": "uint256"
        },
        {
          "internalType": "address",
          "name": "operator_",
          "type": "address"
        }
      ],
      "name": "allowance",
      "outputs": [
        {
          "internalType": "uint256",
          "name": "",
          "type": "uint256"
        }
      ],
      "stateMutability": "view",
      "type": "function"
    },
    {
      "inputs": [
        {
          "internalType": "address",
          "name": "",
          "type": "address"
        },
        {
          "internalType": "uint256",
          "name": "",
          "type": "uint256"
        }
      ],
      "name": "approve",
      "outputs": [],
      "stateMutability": "payable",
      "type": "function"
    },
    {
      "inputs": [
        {
          "internalType": "uint256",
          "name": "",
          "type": "uint256"
        },
        {
          "internalType": "address",
          "name": "",
          "type": "address"
        },
        {
          "internalType": "uint256",
          "name": "",
          "type": "uint256"
        }
      ],
      "name": "approve",
      "outputs": [],
      "stateMutability": "payable",
      "type": "function"
    },
    {
      "inputs": [
        {
          "internalType": "address",
          "name": "owner_",
          "type": "address"
        }
      ],
      "name": "balanceOf",
      "outputs": [
        {
          "internalType": "uint256",
          "name": "balance",
          "type": "uint256"
        }
      ],
      "stateMutability": "view",
      "type": "function"
    },
    {
      "inputs": [
        {
          "internalType": "uint256",
          "name": "tokenId_",
          "type": "uint256"
        }
      ],
      "name": "balanceOf",
      "outputs": [
        {
          "internalType": "uint256",
          "name": "",
          "type": "uint256"
        }
      ],
      "stateMutability": "view",
      "type": "function"
    },
    {
      "inputs": [
        {
          "internalType": "uint256",
          "name": "tokenId",
          "type": "uint256"
        }
      ],
      "name": "burn",
      "outputs": [],
      "stateMutability": "nonpayable",
      "type": "function"
    },
    {
      "inputs": [],
      "name": "contractURI",
      "outputs": [
        {
          "internalType": "string",
          "name": "",
          "type": "string"
        }
      ],
      "stateMutability": "view",
      "type": "function"
    },
    {
      "inputs": [
        {
          "internalType": "uint256",
          "name": "network",
          "type": "uint256"
        },
        {
          "internalType": "string",
          "name": "name",
          "type": "string"
        },
        {
          "internalType": "bool",
          "name": "daoGoverned",
          "type": "bool"
        },
        {
          "internalType": "address",
          "name": "daoManager",
          "type": "address"
        }
      ],
      "name": "createNetwork",
      "outputs": [],
      "stateMutability": "nonpayable",
      "type": "function"
    },
    {
      "inputs": [],
      "name": "flagsStorage",
      "outputs": [
        {
          "internalType": "contract IFlagsStorage",
          "name": "",
          "type": "address"
        }
      ],
      "stateMutability": "view",
      "type": "function"
    },
    {
      "inputs": [
        {
          "internalType": "uint256",
          "name": "tokenId",
          "type": "uint256"
        }
      ],
      "name": "freeze",
      "outputs": [],
      "stateMutability": "nonpayable",
      "type": "function"
    },
    {
      "inputs": [
        {
          "internalType": "uint256",
          "name": "tokenId_",
          "type": "uint256"
        }
      ],
      "name": "getApproved",
      "outputs": [
        {
          "internalType": "address",
          "name": "",
          "type": "address"
        }
      ],
      "stateMutability": "view",
      "type": "function"
    },
    {
      "inputs": [
        {
          "internalType": "uint256",
          "name": "tokenId",
          "type": "uint256"
        }
      ],
      "name": "getExpiration",
      "outputs": [
        {
          "internalType": "uint256",
          "name": "",
          "type": "uint256"
        }
      ],
      "stateMutability": "view",
      "type": "function"
    },
    {
      "inputs": [
        {
          "internalType": "uint256",
          "name": "tokenId",
          "type": "uint256"
        }
      ],
      "name": "getIssuingGatekeeper",
      "outputs": [
        {
          "internalType": "address",
          "name": "",
          "type": "address"
        }
      ],
      "stateMutability": "view",
      "type": "function"
    },
    {
      "inputs": [
        {
          "internalType": "uint256",
          "name": "network",
          "type": "uint256"
        }
      ],
      "name": "getNetwork",
      "outputs": [
        {
          "internalType": "string",
          "name": "",
          "type": "string"
        }
      ],
      "stateMutability": "view",
      "type": "function"
    },
    {
      "inputs": [
        {
          "internalType": "bytes32",
          "name": "role",
          "type": "bytes32"
        },
        {
          "internalType": "uint256",
          "name": "domain",
          "type": "uint256"
        }
      ],
      "name": "getRoleAdmin",
      "outputs": [
        {
          "internalType": "bytes32",
          "name": "",
          "type": "bytes32"
        }
      ],
      "stateMutability": "view",
      "type": "function"
    },
    {
      "inputs": [
        {
          "internalType": "uint256",
          "name": "tokenId",
          "type": "uint256"
        }
      ],
      "name": "getToken",
      "outputs": [
        {
          "internalType": "address",
          "name": "owner",
          "type": "address"
        },
        {
          "internalType": "uint8",
          "name": "state",
          "type": "uint8"
        },
        {
          "internalType": "string",
          "name": "identity",
          "type": "string"
        },
        {
          "internalType": "uint256",
          "name": "expiration",
          "type": "uint256"
        },
        {
          "internalType": "uint256",
          "name": "bitmask",
          "type": "uint256"
        }
      ],
      "stateMutability": "view",
      "type": "function"
    },
    {
      "inputs": [
        {
          "internalType": "uint256",
          "name": "tokenId",
          "type": "uint256"
        }
      ],
      "name": "getTokenBitmask",
      "outputs": [
        {
          "internalType": "uint256",
          "name": "",
          "type": "uint256"
        }
      ],
      "stateMutability": "view",
      "type": "function"
    },
    {
      "inputs": [
        {
          "internalType": "address",
          "name": "owner",
          "type": "address"
        },
        {
          "internalType": "uint256",
          "name": "network",
          "type": "uint256"
        },
        {
          "internalType": "bool",
          "name": "onlyActive",
          "type": "bool"
        }
      ],
      "name": "getTokenIdsByOwnerAndNetwork",
      "outputs": [
        {
          "internalType": "uint256[]",
          "name": "",
          "type": "uint256[]"
        }
      ],
      "stateMutability": "view",
      "type": "function"
    },
    {
      "inputs": [
        {
          "internalType": "bytes32",
          "name": "role",
          "type": "bytes32"
        },
        {
          "internalType": "uint256",
          "name": "domain",
          "type": "uint256"
        },
        {
          "internalType": "address",
          "name": "account",
          "type": "address"
        }
      ],
      "name": "grantRole",
      "outputs": [],
      "stateMutability": "nonpayable",
      "type": "function"
    },
    {
      "inputs": [
        {
          "internalType": "bytes32",
          "name": "role",
          "type": "bytes32"
        },
        {
          "internalType": "uint256",
          "name": "domain",
          "type": "uint256"
        },
        {
          "internalType": "address",
          "name": "account",
          "type": "address"
        }
      ],
      "name": "hasRole",
      "outputs": [
        {
          "internalType": "bool",
          "name": "",
          "type": "bool"
        }
      ],
      "stateMutability": "view",
      "type": "function"
    },
    {
      "inputs": [
        {
          "internalType": "string",
          "name": "name",
          "type": "string"
        },
        {
          "internalType": "string",
          "name": "symbol",
          "type": "string"
        },
        {
          "internalType": "address",
          "name": "superAdmin",
          "type": "address"
        },
        {
          "internalType": "address",
          "name": "flagsStorage",
          "type": "address"
        },
        {
          "internalType": "address",
          "name": "chargeHandler",
          "type": "address"
        },
        {
          "internalType": "address[]",
          "name": "trustedForwarders",
          "type": "address[]"
        }
      ],
      "name": "initialize",
      "outputs": [],
      "stateMutability": "nonpayable",
      "type": "function"
    },
    {
      "inputs": [
        {
          "internalType": "address",
          "name": "owner_",
          "type": "address"
        },
        {
          "internalType": "address",
          "name": "operator_",
          "type": "address"
        }
      ],
      "name": "isApprovedForAll",
      "outputs": [
        {
          "internalType": "bool",
          "name": "",
          "type": "bool"
        }
      ],
      "stateMutability": "view",
      "type": "function"
    },
    {
      "inputs": [
        {
          "internalType": "address",
          "name": "gatekeeper",
          "type": "address"
        },
        {
          "internalType": "uint256",
          "name": "network",
          "type": "uint256"
        }
      ],
      "name": "isGatekeeper",
      "outputs": [
        {
          "internalType": "bool",
          "name": "",
          "type": "bool"
        }
      ],
      "stateMutability": "view",
      "type": "function"
    },
    {
      "inputs": [
        {
          "internalType": "address",
          "name": "authority",
          "type": "address"
        },
        {
          "internalType": "uint256",
          "name": "network",
          "type": "uint256"
        }
      ],
      "name": "isNetworkAuthority",
      "outputs": [
        {
          "internalType": "bool",
          "name": "",
          "type": "bool"
        }
      ],
      "stateMutability": "view",
      "type": "function"
    },
    {
      "inputs": [
        {
          "internalType": "uint256",
          "name": "",
          "type": "uint256"
        }
      ],
      "name": "isNetworkDAOGoverned",
      "outputs": [
        {
          "internalType": "bool",
          "name": "",
          "type": "bool"
        }
      ],
      "stateMutability": "view",
      "type": "function"
    },
    {
      "inputs": [
        {
          "internalType": "address",
          "name": "account",
          "type": "address"
        }
      ],
      "name": "isSuperAdmin",
      "outputs": [
        {
          "internalType": "bool",
          "name": "",
          "type": "bool"
        }
      ],
      "stateMutability": "view",
      "type": "function"
    },
    {
      "inputs": [
        {
          "internalType": "address",
          "name": "forwarder",
          "type": "address"
        }
      ],
      "name": "isTrustedForwarder",
      "outputs": [
        {
          "internalType": "bool",
          "name": "",
          "type": "bool"
        }
      ],
      "stateMutability": "view",
      "type": "function"
    },
    {
      "inputs": [],
      "name": "metadataDescriptor",
      "outputs": [
        {
          "internalType": "contract IERC3525MetadataDescriptorUpgradeable",
          "name": "",
          "type": "address"
        }
      ],
      "stateMutability": "view",
      "type": "function"
    },
    {
      "inputs": [
        {
          "internalType": "address",
          "name": "to",
          "type": "address"
        },
        {
          "internalType": "uint256",
          "name": "network",
          "type": "uint256"
        },
        {
          "internalType": "uint256",
          "name": "expiration",
          "type": "uint256"
        },
        {
          "internalType": "uint256",
          "name": "mask",
          "type": "uint256"
        },
        {
          "components": [
            {
              "internalType": "uint256",
              "name": "value",
              "type": "uint256"
            },
            {
              "internalType": "enum ChargeType",
              "name": "chargeType",
              "type": "uint8"
            },
            {
              "internalType": "address",
              "name": "token",
              "type": "address"
            },
            {
              "internalType": "address",
              "name": "tokenSender",
              "type": "address"
            },
            {
              "internalType": "address",
              "name": "recipient",
              "type": "address"
            }
          ],
          "internalType": "struct Charge",
          "name": "charge",
          "type": "tuple"
        }
      ],
      "name": "mint",
      "outputs": [],
      "stateMutability": "payable",
      "type": "function"
    },
    {
      "inputs": [],
      "name": "name",
      "outputs": [
        {
          "internalType": "string",
          "name": "",
          "type": "string"
        }
      ],
      "stateMutability": "view",
      "type": "function"
    },
    {
      "inputs": [
        {
          "internalType": "uint256",
          "name": "network",
          "type": "uint256"
        },
        {
          "internalType": "enum GatewayToken.NetworkFeature",
          "name": "feature",
          "type": "uint8"
        }
      ],
      "name": "networkHasFeature",
      "outputs": [
        {
          "internalType": "bool",
          "name": "",
          "type": "bool"
        }
      ],
      "stateMutability": "view",
      "type": "function"
    },
    {
      "inputs": [
        {
          "internalType": "uint256",
          "name": "tokenId_",
          "type": "uint256"
        }
      ],
      "name": "ownerOf",
      "outputs": [
        {
          "internalType": "address",
          "name": "owner_",
          "type": "address"
        }
      ],
      "stateMutability": "view",
      "type": "function"
    },
    {
      "inputs": [],
      "name": "proxiableUUID",
      "outputs": [
        {
          "internalType": "bytes32",
          "name": "",
          "type": "bytes32"
        }
      ],
      "stateMutability": "view",
      "type": "function"
    },
    {
      "inputs": [
        {
          "internalType": "address",
          "name": "forwarder",
          "type": "address"
        }
      ],
      "name": "removeForwarder",
      "outputs": [],
      "stateMutability": "nonpayable",
      "type": "function"
    },
    {
      "inputs": [
        {
          "internalType": "address",
          "name": "gatekeeper",
          "type": "address"
        },
        {
          "internalType": "uint256",
          "name": "network",
          "type": "uint256"
        }
      ],
      "name": "removeGatekeeper",
      "outputs": [],
      "stateMutability": "nonpayable",
      "type": "function"
    },
    {
      "inputs": [
        {
          "internalType": "address",
          "name": "authority",
          "type": "address"
        },
        {
          "internalType": "uint256",
          "name": "network",
          "type": "uint256"
        }
      ],
      "name": "removeNetworkAuthority",
      "outputs": [],
      "stateMutability": "nonpayable",
      "type": "function"
    },
    {
      "inputs": [
        {
          "internalType": "uint256",
          "name": "network",
          "type": "uint256"
        },
        {
          "internalType": "string",
          "name": "name",
          "type": "string"
        }
      ],
      "name": "renameNetwork",
      "outputs": [],
      "stateMutability": "nonpayable",
      "type": "function"
    },
    {
      "inputs": [
        {
          "internalType": "bytes32",
          "name": "role",
          "type": "bytes32"
        },
        {
          "internalType": "uint256",
          "name": "domain",
          "type": "uint256"
        },
        {
          "internalType": "address",
          "name": "account",
          "type": "address"
        }
      ],
      "name": "renounceRole",
      "outputs": [],
      "stateMutability": "nonpayable",
      "type": "function"
    },
    {
      "inputs": [
        {
          "internalType": "uint256",
          "name": "tokenId",
          "type": "uint256"
        }
      ],
      "name": "revoke",
      "outputs": [],
      "stateMutability": "nonpayable",
      "type": "function"
    },
    {
      "inputs": [
        {
          "internalType": "bytes32",
          "name": "role",
          "type": "bytes32"
        },
        {
          "internalType": "uint256",
          "name": "domain",
          "type": "uint256"
        },
        {
          "internalType": "address",
          "name": "account",
          "type": "address"
        }
      ],
      "name": "revokeRole",
      "outputs": [],
      "stateMutability": "nonpayable",
      "type": "function"
    },
    {
      "inputs": [
        {
          "internalType": "address",
          "name": "account",
          "type": "address"
        }
      ],
      "name": "revokeSuperAdmin",
      "outputs": [],
      "stateMutability": "nonpayable",
      "type": "function"
    },
    {
      "inputs": [
        {
          "internalType": "address",
          "name": "from_",
          "type": "address"
        },
        {
          "internalType": "address",
          "name": "to_",
          "type": "address"
        },
        {
          "internalType": "uint256",
          "name": "tokenId_",
          "type": "uint256"
        }
      ],
      "name": "safeTransferFrom",
      "outputs": [],
      "stateMutability": "payable",
      "type": "function"
    },
    {
      "inputs": [
        {
          "internalType": "address",
          "name": "from_",
          "type": "address"
        },
        {
          "internalType": "address",
          "name": "to_",
          "type": "address"
        },
        {
          "internalType": "uint256",
          "name": "tokenId_",
          "type": "uint256"
        },
        {
          "internalType": "bytes",
          "name": "data_",
          "type": "bytes"
        }
      ],
      "name": "safeTransferFrom",
      "outputs": [],
      "stateMutability": "payable",
      "type": "function"
    },
    {
      "inputs": [
        {
          "internalType": "address",
          "name": "operator_",
          "type": "address"
        },
        {
          "internalType": "bool",
          "name": "approved_",
          "type": "bool"
        }
      ],
      "name": "setApprovalForAll",
      "outputs": [],
      "stateMutability": "nonpayable",
      "type": "function"
    },
    {
      "inputs": [
        {
          "internalType": "uint256",
          "name": "tokenId",
          "type": "uint256"
        },
        {
          "internalType": "uint256",
          "name": "mask",
          "type": "uint256"
        }
      ],
      "name": "setBitmask",
      "outputs": [],
      "stateMutability": "nonpayable",
      "type": "function"
    },
    {
      "inputs": [
        {
          "internalType": "uint256",
          "name": "tokenId",
          "type": "uint256"
        },
        {
          "internalType": "uint256",
          "name": "timestamp",
          "type": "uint256"
        },
        {
          "components": [
            {
              "internalType": "uint256",
              "name": "value",
              "type": "uint256"
            },
            {
              "internalType": "enum ChargeType",
              "name": "chargeType",
              "type": "uint8"
            },
            {
              "internalType": "address",
              "name": "token",
              "type": "address"
            },
            {
              "internalType": "address",
              "name": "tokenSender",
              "type": "address"
            },
            {
              "internalType": "address",
              "name": "recipient",
              "type": "address"
            }
          ],
          "internalType": "struct Charge",
          "name": "charge",
          "type": "tuple"
        }
      ],
      "name": "setExpiration",
      "outputs": [],
      "stateMutability": "payable",
      "type": "function"
    },
    {
      "inputs": [
        {
          "internalType": "address",
          "name": "_metadataDescriptor",
          "type": "address"
        }
      ],
      "name": "setMetadataDescriptor",
      "outputs": [],
      "stateMutability": "nonpayable",
      "type": "function"
    },
    {
      "inputs": [
        {
          "internalType": "uint256",
          "name": "network",
          "type": "uint256"
        },
        {
          "internalType": "uint256",
          "name": "mask",
          "type": "uint256"
        }
      ],
      "name": "setNetworkFeatures",
      "outputs": [],
      "stateMutability": "nonpayable",
      "type": "function"
    },
    {
      "inputs": [
        {
          "internalType": "address",
          "name": "account",
          "type": "address"
        }
      ],
      "name": "setSuperAdmin",
      "outputs": [],
      "stateMutability": "nonpayable",
      "type": "function"
    },
    {
      "inputs": [
        {
          "internalType": "uint256",
          "name": "tokenId_",
          "type": "uint256"
        }
      ],
      "name": "slotOf",
      "outputs": [
        {
          "internalType": "uint256",
          "name": "",
          "type": "uint256"
        }
      ],
      "stateMutability": "view",
      "type": "function"
    },
    {
      "inputs": [
        {
          "internalType": "uint256",
          "name": "slot_",
          "type": "uint256"
        }
      ],
      "name": "slotURI",
      "outputs": [
        {
          "internalType": "string",
          "name": "",
          "type": "string"
        }
      ],
      "stateMutability": "view",
      "type": "function"
    },
    {
      "inputs": [
        {
          "internalType": "bytes4",
          "name": "interfaceId",
          "type": "bytes4"
        }
      ],
      "name": "supportsInterface",
      "outputs": [
        {
          "internalType": "bool",
          "name": "",
          "type": "bool"
        }
      ],
      "stateMutability": "view",
      "type": "function"
    },
    {
      "inputs": [],
      "name": "symbol",
      "outputs": [
        {
          "internalType": "string",
          "name": "",
          "type": "string"
        }
      ],
      "stateMutability": "view",
      "type": "function"
    },
    {
      "inputs": [
        {
          "internalType": "uint256",
          "name": "index_",
          "type": "uint256"
        }
      ],
      "name": "tokenByIndex",
      "outputs": [
        {
          "internalType": "uint256",
          "name": "",
          "type": "uint256"
        }
      ],
      "stateMutability": "view",
      "type": "function"
    },
    {
      "inputs": [
        {
          "internalType": "address",
          "name": "owner_",
          "type": "address"
        },
        {
          "internalType": "uint256",
          "name": "index_",
          "type": "uint256"
        }
      ],
      "name": "tokenOfOwnerByIndex",
      "outputs": [
        {
          "internalType": "uint256",
          "name": "",
          "type": "uint256"
        }
      ],
      "stateMutability": "view",
      "type": "function"
    },
    {
      "inputs": [
        {
          "internalType": "uint256",
          "name": "tokenId_",
          "type": "uint256"
        }
      ],
      "name": "tokenURI",
      "outputs": [
        {
          "internalType": "string",
          "name": "",
          "type": "string"
        }
      ],
      "stateMutability": "view",
      "type": "function"
    },
    {
      "inputs": [],
      "name": "totalSupply",
      "outputs": [
        {
          "internalType": "uint256",
          "name": "",
          "type": "uint256"
        }
      ],
      "stateMutability": "view",
      "type": "function"
    },
    {
      "inputs": [
        {
          "internalType": "address",
          "name": "previousManager",
          "type": "address"
        },
        {
          "internalType": "address",
          "name": "newManager",
          "type": "address"
        },
        {
          "internalType": "uint256",
          "name": "network",
          "type": "uint256"
        }
      ],
      "name": "transferDAOManager",
      "outputs": [],
      "stateMutability": "nonpayable",
      "type": "function"
    },
    {
      "inputs": [
        {
          "internalType": "uint256",
          "name": "fromTokenId_",
          "type": "uint256"
        },
        {
          "internalType": "address",
          "name": "to_",
          "type": "address"
        },
        {
          "internalType": "uint256",
          "name": "value_",
          "type": "uint256"
        }
      ],
      "name": "transferFrom",
      "outputs": [
        {
          "internalType": "uint256",
          "name": "newTokenId",
          "type": "uint256"
        }
      ],
      "stateMutability": "payable",
      "type": "function"
    },
    {
      "inputs": [
        {
          "internalType": "address",
          "name": "from_",
          "type": "address"
        },
        {
          "internalType": "address",
          "name": "to_",
          "type": "address"
        },
        {
          "internalType": "uint256",
          "name": "tokenId_",
          "type": "uint256"
        }
      ],
      "name": "transferFrom",
      "outputs": [],
      "stateMutability": "payable",
      "type": "function"
    },
    {
      "inputs": [
        {
          "internalType": "uint256",
          "name": "fromTokenId_",
          "type": "uint256"
        },
        {
          "internalType": "uint256",
          "name": "toTokenId_",
          "type": "uint256"
        },
        {
          "internalType": "uint256",
          "name": "value_",
          "type": "uint256"
        }
      ],
      "name": "transferFrom",
      "outputs": [],
      "stateMutability": "payable",
      "type": "function"
    },
    {
      "inputs": [],
      "name": "transfersRestricted",
      "outputs": [
        {
          "internalType": "bool",
          "name": "",
          "type": "bool"
        }
      ],
      "stateMutability": "pure",
      "type": "function"
    },
    {
      "inputs": [
        {
          "internalType": "uint256",
          "name": "tokenId",
          "type": "uint256"
        }
      ],
      "name": "unfreeze",
      "outputs": [],
      "stateMutability": "nonpayable",
      "type": "function"
    },
    {
      "inputs": [
        {
          "internalType": "address",
          "name": "chargeHandler",
          "type": "address"
        }
      ],
      "name": "updateChargeHandler",
      "outputs": [],
      "stateMutability": "nonpayable",
      "type": "function"
    },
    {
      "inputs": [
        {
          "internalType": "address",
          "name": "flagsStorage",
          "type": "address"
        }
      ],
      "name": "updateFlagsStorage",
      "outputs": [],
      "stateMutability": "nonpayable",
      "type": "function"
    },
    {
      "inputs": [
        {
          "internalType": "address",
          "name": "newImplementation",
          "type": "address"
        }
      ],
      "name": "upgradeTo",
      "outputs": [],
      "stateMutability": "nonpayable",
      "type": "function"
    },
    {
      "inputs": [
        {
          "internalType": "address",
          "name": "newImplementation",
          "type": "address"
        },
        {
          "internalType": "bytes",
          "name": "data",
          "type": "bytes"
        }
      ],
      "name": "upgradeToAndCall",
      "outputs": [],
      "stateMutability": "payable",
      "type": "function"
    },
    {
      "inputs": [],
      "name": "valueDecimals",
      "outputs": [
        {
          "internalType": "uint8",
          "name": "",
          "type": "uint8"
        }
      ],
      "stateMutability": "view",
      "type": "function"
    },
    {
      "inputs": [
        {
          "internalType": "address",
          "name": "owner",
          "type": "address"
        },
        {
          "internalType": "uint256",
          "name": "network",
          "type": "uint256"
        }
      ],
      "name": "verifyToken",
      "outputs": [
        {
          "internalType": "bool",
          "name": "",
          "type": "bool"
        }
      ],
      "stateMutability": "view",
      "type": "function"
    },
    {
      "inputs": [
        {
          "internalType": "uint256",
          "name": "tokenId",
          "type": "uint256"
        }
      ],
      "name": "verifyToken",
      "outputs": [
        {
          "internalType": "bool",
          "name": "",
          "type": "bool"
        }
      ],
      "stateMutability": "view",
      "type": "function"
    }
  ],
  "bytecode": "0x60a0604052306080523480156200001557600080fd5b506200002062000026565b620000e8565b600054610100900460ff1615620000935760405162461bcd60e51b815260206004820152602760248201527f496e697469616c697a61626c653a20636f6e747261637420697320696e697469604482015266616c697a696e6760c81b606482015260840160405180910390fd5b60005460ff9081161015620000e6576000805460ff191660ff9081179091556040519081527f7f26b83ff96e1f2b6a682f133852f6798a09c465da95921460cefb38474024989060200160405180910390a15b565b608051615b3a62000120600039600081816115e80152818161162801528181611760015281816117a001526118d30152615b3a6000f3fe6080604052600436106104225760003560e01c80637dbded281161022f578063b5d6163511610139578063df2a7fe1116100b6578063e8a3d4851161007a578063e8a3d48514610d0d578063e985e9c514610d22578063f415999014610d6f578063ff17e23214610d9c578063ff85a97514610dbc57600080fd5b8063df2a7fe114610c43578063df7f453b14610c63578063e345e0bc14610c9c578063e4b50cb814610cbc578063e71fb11014610ced57600080fd5b8063c58dbbed116100fd578063c58dbbed14610bae578063c87b56dd14610bce578063ce6da01a14610bee578063d6fd317514610c01578063d7a78db814610c2357600080fd5b8063b5d6163514610b1b578063b88d4fde14610b3b578063babb898d14610b4e578063bfea1f9714610b6e578063c2a366fb14610b8e57600080fd5b806395d89b41116101c7578063a217fddf1161018b578063a217fddf14610a76578063a22cb46514610a8b578063a578c09314610aab578063a8fa8e0d14610adb578063b4bd857914610afb57600080fd5b806395d89b41146109e157806395ea5717146109f65780639c7525e614610a165780639cc7f70814610a36578063a05b775f14610a5657600080fd5b80637dbded28146108dd57806381e9ff19146108fd57806382d66d5f1461091f57806383b2b2761461093f578063840f71131461095f5780638423df791461097f5780638cb0a511146109935780638eb7a776146109a157806390eddd52146109c157600080fd5b80633568dd291161033057806351da912d116102c85780636623fc461161028c5780636623fc461461083b5780636dba27291461085b5780636f7caf411461087b57806370a082311461089d57806370f08160146108bd57600080fd5b806351da912d1461078d57806352d1902d146107ad578063572b6c05146107c25780635c41d2fe146107fb5780636352211e1461081b57600080fd5b80633568dd29146106855780633659cfe6146106a557806336e45041146106c55780633e7e8669146106e557806342842e0e1461070757806342966c681461071a5780634d93172d1461073a5780634f1ef2861461075a5780634f6ccce71461076d57600080fd5b806320c5429b116103be5780632d33d27a116103825780632d33d27a146105dc5780632f745c59146105fc578063310ed7f01461061c57806334d7a95e1461062f57806334e37b8a1461066557600080fd5b806320c5429b1461055657806323287f241461057657806323b872dd14610589578063263f3e7e1461059c578063281b1edb146105bc57600080fd5b806301ffc9a71461042757806306fdde031461045c578063081812fc1461047e578063095ea7b3146104ab57806309c3dd87146104c05780630f485c02146104e0578063157000521461050157806318160ddd146105215780631c69e86714610536575b600080fd5b34801561043357600080fd5b50610447610442366004614b89565b610ddc565b60405190151581526020015b60405180910390f35b34801561046857600080fd5b50610471610e3d565b6040516104539190614bf6565b34801561048a57600080fd5b5061049e610499366004614c09565b610ecf565b6040516104539190614c22565b6104be6104b9366004614c4d565b610f21565b005b3480156104cc57600080fd5b506104716104db366004614c09565b610f3a565b6104f36104ee366004614c77565b61102c565b604051908152602001610453565b34801561050d57600080fd5b506104be61051c366004614cac565b61106b565b34801561052d57600080fd5b50609d546104f3565b34801561054257600080fd5b506104be610551366004614d0f565b6110cb565b34801561056257600080fd5b506104be610571366004614c09565b61137e565b6104be610584366004614e24565b6113d2565b6104be610597366004614e76565b611459565b3480156105a857600080fd5b506104f36105b7366004614c09565b611496565b3480156105c857600080fd5b506104be6105d7366004614cac565b6114de565b3480156105e857600080fd5b5060cc5461049e906001600160a01b031681565b34801561060857600080fd5b506104f3610617366004614c4d565b6114f2565b6104be61062a366004614ea2565b611593565b34801561063b57600080fd5b5061049e61064a366004614c09565b600090815260d260205260409020546001600160a01b031690565b34801561067157600080fd5b506104be610680366004614cac565b6115b0565b34801561069157600080fd5b506104be6106a0366004614c4d565b6115c1565b3480156106b157600080fd5b506104be6106c0366004614cac565b6115de565b3480156106d157600080fd5b506104be6106e0366004614ece565b6116a3565b3480156106f157600080fd5b50609a5460405160ff9091168152602001610453565b6104be610715366004614e76565b6116f9565b34801561072657600080fd5b506104be610735366004614c09565b611714565b34801561074657600080fd5b506104be610755366004614cac565b611729565b6104be610768366004614fc6565b611756565b34801561077957600080fd5b506104f3610788366004614c09565b61180b565b34801561079957600080fd5b506104be6107a8366004615013565b61189c565b3480156107b957600080fd5b506104f36118c6565b3480156107ce57600080fd5b506104476107dd366004614cac565b6001600160a01b031660009081526097602052604090205460ff1690565b34801561080757600080fd5b506104be610816366004614cac565b611974565b34801561082757600080fd5b5061049e610836366004614c09565b6119a4565b34801561084757600080fd5b506104be610856366004614c09565b611a14565b34801561086757600080fd5b50610447610876366004614c4d565b611a29565b34801561088757600080fd5b506104f3600080516020615a9e83398151915281565b3480156108a957600080fd5b506104f36108b8366004614cac565b611a44565b3480156108c957600080fd5b506104be6108d8366004614c4d565b611acc565b3480156108e957600080fd5b506104be6108f8366004615043565b611ae5565b34801561090957600080fd5b506104f3600080516020615a1e83398151915281565b34801561092b57600080fd5b506104be61093a366004614c4d565b611cf6565b34801561094b57600080fd5b506104be61095a366004615013565b611d0f565b34801561096b57600080fd5b5060a05461049e906001600160a01b031681565b34801561098b57600080fd5b506001610447565b6104be6104b9366004614c77565b3480156109ad57600080fd5b506104be6109bc366004614ece565b611d39565b3480156109cd57600080fd5b506104be6109dc366004614c4d565b611d59565b3480156109ed57600080fd5b50610471611d72565b348015610a0257600080fd5b50610471610a11366004614c09565b611d81565b348015610a2257600080fd5b506104be610a313660046150a6565b611e23565b348015610a4257600080fd5b506104f3610a51366004614c09565b611ef5565b348015610a6257600080fd5b506104f3610a71366004614c09565b611f3d565b348015610a8257600080fd5b506104f3600081565b348015610a9757600080fd5b506104be610aa63660046150f1565b611f5b565b348015610ab757600080fd5b50610447610ac6366004614c09565b60ce6020526000908152604090205460ff1681565b348015610ae757600080fd5b506104be610af6366004614e76565b611f6d565b348015610b0757600080fd5b506104f3610b16366004614c09565b6120c5565b348015610b2757600080fd5b506104be610b36366004614ece565b6120d9565b6104be610b49366004615128565b6120f9565b348015610b5a57600080fd5b50610447610b69366004614ece565b61212c565b348015610b7a57600080fd5b50610447610b8936600461518f565b61215d565b348015610b9a57600080fd5b50610447610ba9366004614c4d565b612190565b348015610bba57600080fd5b506104be610bc9366004614cac565b6121ab565b348015610bda57600080fd5b50610471610be9366004614c09565b612208565b6104be610bfc3660046151b8565b6122a7565b348015610c0d57600080fd5b506104f3600080516020615a3e83398151915281565b348015610c2f57600080fd5b506104be610c3e366004614c09565b6122d4565b348015610c4f57600080fd5b506104f3610c5e366004615013565b6122e9565b348015610c6f57600080fd5b50610447610c7e366004614cac565b6001600160a01b0316600090815260cb602052604090205460ff1690565b348015610ca857600080fd5b506104f3610cb73660046151e5565b612308565b348015610cc857600080fd5b50610cdc610cd7366004614c09565b61233c565b604051610453959493929190615211565b348015610cf957600080fd5b506104be610d08366004614cac565b61239c565b348015610d1957600080fd5b506104716123ad565b348015610d2e57600080fd5b50610447610d3d366004615252565b6001600160a01b039182166000908152609f602090815260408083209390941682526002909201909152205460ff1690565b348015610d7b57600080fd5b50610d8f610d8a36600461527c565b6124a7565b60405161045391906152bc565b348015610da857600080fd5b50610447610db7366004614c4d565b612560565b348015610dc857600080fd5b50610447610dd7366004614c09565b61257a565b60006001600160e01b03198216630354d60560e61b1480610e0d57506001600160e01b031982166380ac58cd60e01b145b80610e2857506001600160e01b031982166370b0048160e11b145b80610e375750610e3782612587565b92915050565b606060988054610e4c90615300565b80601f0160208091040260200160405190810160405280929190818152602001828054610e7890615300565b8015610ec55780601f10610e9a57610100808354040283529160200191610ec5565b820191906000526020600020905b815481529060010190602001808311610ea857829003601f168201915b5050505050905090565b6000610eda826125bc565b6000828152609e6020526040902054609d80549091908110610efe57610efe615334565b60009182526020909120600460069092020101546001600160a01b031692915050565b60405163c03a3ff560e01b815260040160405180910390fd5b60606000610f5360408051602081019091526000815290565b60a0549091506001600160a01b0316610fb3576000815111610f845760405180602001604052806000815250611025565b80610f8e846125e1565b604051602001610f9f92919061534a565b604051602081830303815290604052611025565b60a054604051633601bfc560e11b8152600481018590526001600160a01b0390911690636c037f8a906024015b600060405180830381865afa158015610ffd573d6000803e3d6000fd5b505050506040513d6000823e601f3d908101601f19168201604052611025919081019061538a565b9392505050565b6000611040611039612673565b8584612682565b611049846126fd565b9050611060838261105987611496565b6000612707565b611025848284612831565b611073612b10565b6040516001600160a01b038216907f286f82d2b1e37b5e9f33e455d014b4a5f6c29388e6e41e1281d4c83e04f4265590600090a26001600160a01b0316600090815260cb60205260409020805460ff19166001179055565b600054610100900460ff16158080156110eb5750600054600160ff909116105b8061110c57506110fa30612b22565b15801561110c575060005460ff166001145b6111745760405162461bcd60e51b815260206004820152602e60248201527f496e697469616c697a61626c653a20636f6e747261637420697320616c72656160448201526d191e481a5b9a5d1a585b1a5e995960921b60648201526084015b60405180910390fd5b6000805460ff191660011790558015611197576000805461ff0019166101001790555b6001600160a01b0386166111be57604051630ca2c90160e21b815260040160405180910390fd5b6001600160a01b0385166111e557604051630ca2c90160e21b815260040160405180910390fd5b6001600160a01b03841661120c57604051630ca2c90160e21b815260040160405180910390fd5b60005b8281101561127957600084848381811061122b5761122b615334565b90506020020160208101906112409190614cac565b6001600160a01b03160361126757604051630ca2c90160e21b815260040160405180910390fd5b806112718161540d565b91505061120f565b506112ed8a8a8080601f01602080910402602001604051908101604052809392919081815260200183838082843760009201919091525050604080516020601f8e018190048102820181019092528c815292508c91508b908190840183828082843760009201829052509250612b31915050565b6112f78383612b63565b61130085612b9c565b61130984612be6565b6001600160a01b038616600090815260cb60205260409020805460ff191660011790558015611372576000805461ff0019169055604051600181527f7f26b83ff96e1f2b6a682f133852f6798a09c465da95921460cefb38474024989060200160405180910390a15b50505050505050505050565b61138f61138a82611496565b612c30565b600081815260cf6020526040808220805460ff191660021790555182917fdb43aa42235c8d63908794a952603e8d43a549383d13123c3d893a3fc2e6249591a250565b6113db84612c30565b60006113e986866001612c48565b9050831561140357600081815260d0602052604090208490555b8215611413576114138184612c60565b61141b612673565b600082815260d26020526040902080546001600160a01b0319166001600160a01b03929092169190911790556114518286612caf565b505050505050565b61146a611464612673565b50600090565b6114865760405162461bcd60e51b815260040161116b9061543c565b611491838383612d4a565b505050565b60006114a1826125bc565b6000828152609e6020526040902054609d805490919081106114c5576114c5615334565b9060005260206000209060060201600101549050919050565b6114e6612b10565b6114ef81612be6565b50565b60006114fd83611a44565b82106115565760405162461bcd60e51b815260206004820152602260248201527f455243333532353a206f776e657220696e646578206f7574206f6620626f756e604482015261647360f01b606482015260840161116b565b6001600160a01b0383166000908152609f6020526040902080548390811061158057611580615334565b9060005260206000200154905092915050565b6115a561159e612673565b8483612682565b611491838383612831565b6115b8612b10565b6114ef81612b9c565b6115da600080516020615a3e8339815191528284611d39565b5050565b6001600160a01b037f00000000000000000000000000000000000000000000000000000000000000001630036116265760405162461bcd60e51b815260040161116b9061548e565b7f00000000000000000000000000000000000000000000000000000000000000006001600160a01b0316611658612e99565b6001600160a01b03161461167e5760405162461bcd60e51b815260040161116b906154da565b61168781612eb5565b604080516000808252602082019092526114ef91839190612ebd565b6116ab612673565b6001600160a01b0316816001600160a01b0316146116ee576040516307ca099360e31b8152600481018490526001600160a01b038216602482015260440161116b565b611491838383613028565b611491838383604051806020016040528060008152506120f9565b61172061138a82611496565b6114ef816130c4565b611731612b10565b6114ef816001600160a01b03166000908152609760205260409020805460ff19169055565b6001600160a01b037f000000000000000000000000000000000000000000000000000000000000000016300361179e5760405162461bcd60e51b815260040161116b9061548e565b7f00000000000000000000000000000000000000000000000000000000000000006001600160a01b03166117d0612e99565b6001600160a01b0316146117f65760405162461bcd60e51b815260040161116b906154da565b6117ff82612eb5565b6115da82826001612ebd565b6000611816609d5490565b82106118705760405162461bcd60e51b815260206004820152602360248201527f455243333532353a20676c6f62616c20696e646578206f7574206f6620626f756044820152626e647360e81b606482015260840161116b565b609d828154811061188357611883615334565b9060005260206000209060060201600001549050919050565b6118bc600080516020615a3e8339815191526118b784611496565b6131c1565b6115da8282612c60565b6000306001600160a01b037f000000000000000000000000000000000000000000000000000000000000000016146119615760405162461bcd60e51b815260206004820152603860248201527f555550535570677261646561626c653a206d757374206e6f742062652063616c6044820152771b1959081d1a1c9bdd59da0819195b1959d85d1958d85b1b60421b606482015260840161116b565b50600080516020615a7e83398151915290565b61197c612b10565b6114ef816001600160a01b03166000908152609760205260409020805460ff19166001179055565b60006119af826125bc565b6000828152609e6020526040902054609d805490919081106119d3576119d3615334565b60009182526020909120600360069092020101546001600160a01b0316905080611a0f5760405162461bcd60e51b815260040161116b90615526565b919050565b611a2061138a82611496565b6114ef816131d3565b6000611025600080516020615a3e833981519152838561212c565b60006001600160a01b038216611ab05760405162461bcd60e51b815260206004820152602b60248201527f455243333532353a2062616c616e636520717565727920666f7220746865207a60448201526a65726f206164647265737360a81b606482015260840161116b565b506001600160a01b03166000908152609f602052604090205490565b6115da600080516020615a3e83398151915282846120d9565b6000839003611b075760405163eb8abb6160e01b815260040160405180910390fd5b600085815260d1602052604090208054611b2090615300565b159050611b4357604051636f55f62b60e01b81526004810186905260240161116b565b600085815260d160205260409020611b5c8486836155b4565b508115611c8157600085815260ce60205260409020805460ff19168315151790556001600160a01b038116611ba457604051630ca2c90160e21b815260040160405180910390fd5b611bb6816001600160a01b0316612b22565b611bd5578060405163d4daafa160e01b815260040161116b9190614c22565b611bee600080516020615a1e833981519152868361327a565b611c07600080516020615a9e833981519152868361327a565b611c2e600080516020615a9e83398151915286600080516020615a1e83398151915261330b565b611c55600080516020615a3e83398151915286600080516020615a1e83398151915261330b565b611c7c600080516020615a1e83398151915286600080516020615a1e83398151915261330b565b611cef565b611ca1600080516020615a9e83398151915286611c9c612673565b61327a565b611cc8600080516020615a9e83398151915286600080516020615a9e83398151915261330b565b611cef600080516020615a3e83398151915286600080516020615a9e83398151915261330b565b5050505050565b6115da600080516020615a9e8339815191528284611d39565b611d27600080516020615a9e833981519152836131c1565b600091825260d3602052604090912055565b611d4383836122e9565b82611d4e82826131c1565b611cef858585613028565b6115da600080516020615a9e83398151915282846120d9565b606060998054610e4c90615300565b600081815260d160205260409020805460609190611d9e90615300565b80601f0160208091040260200160405190810160405280929190818152602001828054611dca90615300565b8015611e175780601f10611dec57610100808354040283529160200191611e17565b820191906000526020600020905b815481529060010190602001808311611dfa57829003601f168201915b50505050509050919050565b6000819003611e455760405163eb8abb6160e01b815260040160405180910390fd5b600083815260d1602052604090208054611e5e90615300565b9050600003611e8357604051630817886d60e41b81526004810184905260240161116b565b611e9e600080516020615a9e83398151915284610b69612673565b611ed657611eaa612673565b83600080516020615a9e83398151915260405163c8c801a760e01b815260040161116b9392919061566d565b600083815260d160205260409020611eef8284836155b4565b50505050565b6000611f00826125bc565b6000828152609e6020526040902054609d80549091908110611f2457611f24615334565b9060005260206000209060060201600201549050919050565b6000611f4882613376565b50600090815260d0602052604090205490565b6115da611f66612673565b838361339f565b600081815260ce602052604090205460ff16611f9f5760405163db53ce7160e01b81526004810182905260240161116b565b611fb8600080516020615a1e8339815191528285613472565b6001600160a01b038216611fdf57604051630ca2c90160e21b815260040160405180910390fd5b611ff8600080516020615a1e83398151915282846120d9565b612011600080516020615a9e83398151915282846120d9565b61202a600080516020615a3e83398151915282846120d9565b612043600080516020615a3e8339815191528285611d39565b61205c600080516020615a9e8339815191528285611d39565b612075600080516020615a1e8339815191528285611d39565b604080516001600160a01b038086168252841660208201529081018290527f744258a28673e8738e2812c0ab8e8dbd70352f8871b1febac0dd753d96d79f589060600160405180910390a1505050565b600081815260cd6020526040812054610e37565b6120e383836122e9565b826120ee82826131c1565b611cef85858561327a565b612104611464612673565b6121205760405162461bcd60e51b815260040161116b9061543c565b611eef848484846134a0565b600091825260ca602090815260408084209484529381528383206001600160a01b0392909216835252205460ff1690565b600061102582801561217157612171615426565b600085815260d3602052604090205490600160ff919091161b16151590565b6000611025600080516020615a9e833981519152838561212c565b6121b3612b10565b6040516001600160a01b038216907ffb445f6ec07647d2bb7af72821e6b8b7303ec375e934d4a338d38ed5846c2d5690600090a26001600160a01b0316600090815260cb60205260409020805460ff19169055565b6060612213826125bc565b600061222a60408051602081019091526000815290565b60a0549091506001600160a01b031661227657600081511161225b5760405180602001604052806000815250611025565b80612265846125e1565b604051602001610f9f92919061568e565b60a0546040516344a5a61760e11b8152600481018590526001600160a01b039091169063894b4c2e90602401610fe0565b60006122b284611496565b90506122c061138a85611496565b6122ca8484613513565b611eef8282612caf565b6122e061138a82611496565b6114ef8161356f565b600090815260ca60209081526040808320938352929052206001015490565b6000612313836125bc565b506000918252609c602090815260408084206001600160a01b0393909316845291905290205490565b600080606060008061234d866119a4565b600087815260cf602052604090205490955060ff16600281111561237357612373615426565b600096875260d0602090815260408089205460cd90925290972054959790969395939450915050565b6123a4612b10565b6114ef816135bd565b606060006123c660408051602081019091526000815290565b60a0549091506001600160a01b03166124265760008151116123f757604051806020016040528060008152506124a1565b8061240130613607565b6040516020016124129291906156bd565b6040516020818303038152906040526124a1565b60a060009054906101000a90046001600160a01b03166001600160a01b031663725fa09c6040518163ffffffff1660e01b8152600401600060405180830381865afa158015612479573d6000803e3d6000fd5b505050506040513d6000823e601f3d908101601f191682016040526124a1919081019061538a565b91505090565b60606000806124b786868661361d565b915091506000816001600160401b038111156124d5576124d5614f03565b6040519080825280602002602001820160405280156124fe578160200160208202803683370190505b50905060005b828110156125555783818151811061251e5761251e615334565b602002602001015182828151811061253857612538615334565b60209081029190910101528061254d8161540d565b915050612504565b509695505050505050565b60008061256f8484600161361d565b151595945050505050565b6000610e37826000613703565b60006001600160e01b031982166333cb74f560e11b1480610e3757506301ffc9a760e01b6001600160e01b0319831614610e37565b6125c581613817565b6114ef5760405162461bcd60e51b815260040161116b90615526565b606060006125ee83613863565b60010190506000816001600160401b0381111561260d5761260d614f03565b6040519080825280601f01601f191660200182016040528015612637576020820181803683370190505b5090508181016020015b600019016f181899199a1a9b1b9c1cb0b131b232b360811b600a86061a8153600a850494508461264157509392505050565b600061267d61393b565b905090565b600061268e8385612308565b90506000198114611eef57818110156126e95760405162461bcd60e51b815260206004820152601f60248201527f455243333532353a20696e73756666696369656e7420616c6c6f77616e636500604482015260640161116b565b611eef83856126f88585615701565b613965565b6000610e37613a94565b6001600160a01b0384166127675760405162461bcd60e51b815260206004820152602160248201527f455243333532353a206d696e7420746f20746865207a65726f206164647265736044820152607360f81b606482015260840161116b565b826000036127c15760405162461bcd60e51b815260206004820152602160248201527f455243333532353a2063616e6e6f74206d696e74207a65726f20746f6b656e496044820152601960fa1b606482015260840161116b565b6127ca83613817565b156128175760405162461bcd60e51b815260206004820152601d60248201527f455243333532353a20746f6b656e20616c7265616479206d696e746564000000604482015260640161116b565b612822848484613aab565b61282c8382613b5f565b611eef565b61283a83613817565b6128965760405162461bcd60e51b815260206004820152602760248201527f455243333532353a207472616e736665722066726f6d20696e76616c696420746044820152661bdad95b88125160ca1b606482015260840161116b565b61289f82613817565b6128f95760405162461bcd60e51b815260206004820152602560248201527f455243333532353a207472616e7366657220746f20696e76616c696420746f6b604482015264195b88125160da1b606482015260840161116b565b6000838152609e6020526040812054609d8054909190811061291d5761291d615334565b906000526020600020906006020190506000609d609e6000868152602001908152602001600020548154811061295557612955615334565b9060005260206000209060060201905082826002015410156129cc5760405162461bcd60e51b815260206004820152602a60248201527f455243333532353a20696e73756666696369656e742062616c616e636520666f60448201526939103a3930b739b332b960b11b606482015260840161116b565b8060010154826001015414612a3a5760405162461bcd60e51b815260206004820152602e60248201527f455243333532353a207472616e7366657220746f20746f6b656e20776974682060448201526d191a5999995c995b9d081cdb1bdd60921b606482015260840161116b565b82826002016000828254612a4e9190615701565b9250508190555082816002016000828254612a699190615714565b909155505060405183815284908690600080516020615a5e8339815191529060200160405180910390a3612aae85858560405180602001604052806000815250613bd2565b611cef5760405162461bcd60e51b815260206004820152602d60248201527f455243333532353a207472616e736665722072656a656374656420627920455260448201526c21999a991aa932b1b2b4bb32b960991b606482015260840161116b565b612b20612b1b612673565b613d15565b565b6001600160a01b03163b151590565b600054610100900460ff16612b585760405162461bcd60e51b815260040161116b90615727565b611491838383613d50565b600054610100900460ff16612b8a5760405162461bcd60e51b815260040161116b90615727565b612b92613da9565b6115da8282613dd0565b60cc80546001600160a01b0319166001600160a01b0383169081179091556040517f5e4a30f4224898dbac86adca855a5edd3b8341a3aeb2b6ff0f0b5a82c013b65a90600090a250565b60d480546001600160a01b0319166001600160a01b0383169081179091556040517f6369e6a29b73ae27c65aa2678758ea2de84ebfbe9e00a08275110e78647286de90600090a250565b6114ef600080516020615a3e833981519152826131c1565b6000612c52613a94565b905061102584828585612707565b600082815260cd602090815260409182902083905581518481529081018390527f5e07998cef9cea674942c66f0ea7b0bce89ab9473ce240cc93d616c3491f8aeb910160405180910390a15050565b60d45460405163a2793ecd60e01b81526001600160a01b039091169063a2793ecd903490612ce39086908690600401615790565b6000604051808303818588803b158015612cfc57600080fd5b505af193505050508015612d0e575060015b6115da573d808015612d3c576040519150601f19603f3d011682016040523d82523d6000602084013e612d41565b606091505b50805181602001fd5b826001600160a01b0316612d5d826119a4565b6001600160a01b031614612dbf5760405162461bcd60e51b8152602060048201526024808201527f455243333532353a207472616e736665722066726f6d20696e76616c6964206f6044820152633bb732b960e11b606482015260840161116b565b6001600160a01b038216612e235760405162461bcd60e51b815260206004820152602560248201527f455243333532353a207472616e7366657220746f20746865207a65726f206164604482015264647265737360d81b606482015260840161116b565b6000612e2e82611496565b90506000612e3b83611ef5565b9050612e48600084613e69565b612e5183613f00565b612e5b8584613fab565b612e6584846140cc565b82846001600160a01b0316866001600160a01b0316600080516020615ae583398151915260405160405180910390a4611cef565b600080516020615a7e833981519152546001600160a01b031690565b6114ef612b10565b7f4910fdfa16fed3260ed0e7147f7cc6da11a60208b5b9406d12a635614ffd91435460ff1615612ef05761149183614155565b826001600160a01b03166352d1902d6040518163ffffffff1660e01b8152600401602060405180830381865afa925050508015612f4a575060408051601f3d908101601f19168201909252612f4791810190615809565b60015b612fad5760405162461bcd60e51b815260206004820152602e60248201527f45524331393637557067726164653a206e657720696d706c656d656e7461746960448201526d6f6e206973206e6f74205555505360901b606482015260840161116b565b600080516020615a7e833981519152811461301c5760405162461bcd60e51b815260206004820152602960248201527f45524331393637557067726164653a20756e737570706f727465642070726f786044820152681a58589b195555525160ba1b606482015260840161116b565b506114918383836141ef565b61303383838361212c565b1561149157600082815260ca6020908152604080832086845282528083206001600160a01b03851684529091529020805460ff19169055613072612673565b6001600160a01b0316816001600160a01b0316847f6f9148fcdc32766ca802c14716295d56eab7ed848d0dba113966f40087c88390856040516130b791815260200190565b60405180910390a4505050565b6130cd816125bc565b6000818152609e6020526040812054609d805490919081106130f1576130f1615334565b60009182526020909120600691909102016003810154600182015460028301549293506001600160a01b039091169161312985613f00565b6131338386613fab565b61313c85614214565b600085600080516020615a5e8339815191528360405161315e91815260200190565b60405180910390a3600082867fe4f48c240d3b994948aa54f3e2f5fca59263dfe1d52b6e4cf39a5d249b5ccb6560405160405180910390a460405185906000906001600160a01b03861690600080516020615ae5833981519152908390a4611cef565b6115da82826131ce612673565b613472565b6131dc81613376565b6001600082815260cf602052604090205460ff16600281111561320157613201615426565b1461323a57600081815260cf6020526040908190205490516308c9ef2d60e11b815261116b91839160ff90911690600190600401615822565b600081815260cf6020526040808220805460ff191690555182917fe2babfd5e77285a3c3dbc4b25592cbe4a7a26e97a7ac63067a22ebdaa9b82add91a250565b61328583838361212c565b61149157600082815260ca6020908152604080832086845282528083206001600160a01b03851684529091529020805460ff191660011790556132c6612673565b6001600160a01b0316816001600160a01b0316847f4dc88bd74ca601684356789d5b3dbc9cd44275b2544e8d35041203703b768232856040516130b791815260200190565b600061331784846122e9565b600084815260ca6020908152604080832088845282529182902060010185905590518581529192508391839187917f15f4a36186b2284157fe71215a07487f6c8bdc1203b3307c3e1fd9693011d3d3910160405180910390a450505050565b61337f81613817565b6114ef576040516321fbdd2b60e11b81526004810182905260240161116b565b816001600160a01b0316836001600160a01b0316036134005760405162461bcd60e51b815260206004820152601a60248201527f455243333532353a20617070726f766520746f2063616c6c6572000000000000604482015260640161116b565b6001600160a01b038381166000818152609f602090815260408083209487168084526002909501825291829020805460ff191686151590811790915591519182527f17307eab39ab6107e8899845ad3d59bd9653f200f220920489ca2b5937696c3191015b60405180910390a3505050565b61347d83838361212c565b6114915780828460405163c8c801a760e01b815260040161116b9392919061566d565b6134ab848484612d4a565b6134b784848484614422565b611eef5760405162461bcd60e51b815260206004820152602760248201527f455243333532353a207472616e7366657220746f206e6f6e204552433732315260448201526632b1b2b4bb32b960c91b606482015260840161116b565b61351e826001614579565b600082815260d06020526040908190208290555182907f1ebc57da8b3ebab98506502fbb73232ea29fbe86e4963a5a8c004810ad11190d906135639084815260200190565b60405180910390a25050565b61357a816001614579565b600081815260cf6020526040808220805460ff191660011790555182917f779fbee689bbd6f006ecb329206d35c7db7380f9837a8826fb8dc5cfcd3d33dd91a250565b60a080546001600160a01b0319166001600160a01b0383169081179091556040517f5252f52e45fc8ee6a7b43cef3645d23e9a470a34182b8b3a12627556635bfc9c90600090a250565b6060610e376001600160a01b03831660146145ab565b606060008061362b86611a44565b90506000816001600160401b0381111561364757613647614f03565b604051908082528060200260200182016040528015613670578160200160208202803683370190505b5090506000805b838110156136f557600061368b8a836114f2565b90508861369782611496565b1480156136b257508715806136b257506136b2816000613703565b156136e2578084846136c38161540d565b9550815181106136d5576136d5615334565b6020026020010181815250505b50806136ed8161540d565b915050613677565b509097909650945050505050565b600082815260cf602052604081205460ff168181600281111561372857613728615426565b14613737576000915050610e37565b600061374285611496565b905061374f81600061215d565b156137a457600085815260d260205260409020546001600160a01b03168015801590613791575061378f600080516020615a3e833981519152838361212c565b155b156137a25760009350505050610e37565b505b60006137af866119a4565b600087815260d06020526040902054909150158015906137cd575084155b15613802576001600160a01b038116158015906137f85750600086815260d060205260409020544211155b9350505050610e37565b6001600160a01b031615159250610e37915050565b609d5460009015801590610e3757506000828152609e6020526040902054609d8054849290811061384a5761384a615334565b9060005260206000209060060201600001541492915050565b60008072184f03e93ff9f4daa797ed6e38ed64bf6a1f0160401b83106138a25772184f03e93ff9f4daa797ed6e38ed64bf6a1f0160401b830492506040015b6d04ee2d6d415b85acef810000000083106138ce576d04ee2d6d415b85acef8100000000830492506020015b662386f26fc1000083106138ec57662386f26fc10000830492506010015b6305f5e1008310613904576305f5e100830492506008015b612710831061391857612710830492506004015b6064831061392a576064830492506002015b600a8310610e375760010192915050565b3360009081526097602052604081205460ff1615613960575060131936013560601c90565b503390565b6001600160a01b0382166139ce5760405162461bcd60e51b815260206004820152602a60248201527f455243333532353a20617070726f76652076616c756520746f20746865207a65604482015269726f206164647265737360b01b606482015260840161116b565b6139d88284614746565b613a3e576000838152609e6020526040902054609d80549091908110613a0057613a00615334565b60009182526020808320600692909202909101600501805460018101825590835291200180546001600160a01b0319166001600160a01b0384161790555b6000838152609c602090815260408083206001600160a01b038616808552908352928190208490555183815285917f621b050de0ad08b51d19b48b3e6df75348c4de6bdd93e81b252ca62e28265b1b9101613465565b6000613aa4609b80546001019055565b50609b5490565b6040805160c081018252838152602080820184905260008284018190526001600160a01b038716606084015260808301819052835181815291820190935260a08201529050613af981614819565b613b0384846140cc565b60405183906001600160a01b03861690600090600080516020615ae5833981519152908290a4816000847fe4f48c240d3b994948aa54f3e2f5fca59263dfe1d52b6e4cf39a5d249b5ccb6560405160405180910390a450505050565b6000828152609e6020526040902054609d80548392908110613b8357613b83615334565b90600052602060002090600602016002016000828254613ba39190615714565b90915550506040518181528290600090600080516020615a5e8339815191529060200160405180910390a35050565b600080613bde856119a4565b9050613bf2816001600160a01b0316612b22565b8015613c6757506040516301ffc9a760e01b8152629ce20b60e01b60048201526001600160a01b038216906301ffc9a790602401602060405180830381865afa158015613c43573d6000803e3d6000fd5b505050506040513d601f19601f82011682018060405250810190613c67919061584f565b15613d07576000816001600160a01b0316629ce20b613c84612673565b898989896040518663ffffffff1660e01b8152600401613ca895949392919061586c565b6020604051808303816000875af1158015613cc7573d6000803e3d6000fd5b505050506040513d601f19601f82011682018060405250810190613ceb91906158aa565b6001600160e01b031916629ce20b60e01b149250613d0d915050565b60019150505b949350505050565b6001600160a01b038116600090815260cb602052604090205460ff166114ef5780604051632957ccdd60e21b815260040161116b9190614c22565b600054610100900460ff16613d775760405162461bcd60e51b815260040161116b90615727565b6098613d8384826158c7565b506099613d9083826158c7565b50609a805460ff191660ff929092169190911790555050565b600054610100900460ff16612b205760405162461bcd60e51b815260040161116b90615727565b600054610100900460ff16613df75760405162461bcd60e51b815260040161116b90615727565b60005b8181101561149157600160976000858585818110613e1a57613e1a615334565b9050602002016020810190613e2f9190614cac565b6001600160a01b031681526020810191909152604001600020805460ff191691151591909117905580613e618161540d565b915050613dfa565b6000818152609e6020526040902054609d80548492908110613e8d57613e8d615334565b6000918252602090912060069091020160040180546001600160a01b0319166001600160a01b0392831617905581908316613ec7826119a4565b6001600160a01b03167f8c5be1e5ebec7d5bd14f71427d1e84f3dd0314c0f7b2291e5b200ac8c7c3b92560405160405180910390a45050565b6000818152609e6020526040812054609d80549091908110613f2457613f24615334565b600091825260208220600560069092020190810154909250905b81811015613f9c576000836005018281548110613f5d57613f5d615334565b6000918252602080832090910154878352609c825260408084206001600160a01b03909216845291528120555080613f948161540d565b915050613f3e565b50611491600583016000614adb565b6000818152609e6020526040812054609d80549091908110613fcf57613fcf615334565b6000918252602080832060069290920290910160030180546001600160a01b0319166001600160a01b039485161790559184168152609f90915260408120805490919061401e90600190615701565b9050600082600001828154811061403757614037615334565b9060005260206000200154905060008360010160008681526020019081526020016000205490508184600001828154811061407457614074615334565b600091825260208083209091019290925583815260018601909152604080822083905586825281205583548490806140ae576140ae615980565b60019003818190600052602060002001600090559055505050505050565b6000818152609e6020526040902054609d805484929081106140f0576140f0615334565b6000918252602080832060069290920290910160030180546001600160a01b0319166001600160a01b03948516179055939091168152609f80845260408083208054858552600182810188529285208190559286529082018155825292902090910155565b61415e81612b22565b6141c05760405162461bcd60e51b815260206004820152602d60248201527f455243313936373a206e657720696d706c656d656e746174696f6e206973206e60448201526c1bdd08184818dbdb9d1c9858dd609a1b606482015260840161116b565b600080516020615a7e83398151915280546001600160a01b0319166001600160a01b0392909216919091179055565b6141f88361496b565b6000825111806142055750805b1561149157611eef83836149ab565b609d5460009061422690600190615701565b6000838152609e6020526040812054609d805493945090928490811061424e5761424e615334565b60009182526020918290206040805160c08101825260069093029091018054835260018101548385015260028101548383015260038101546001600160a01b03908116606085015260048201541660808401526005810180548351818702810187019094528084529394919360a0860193928301828280156142f957602002820191906000526020600020905b81546001600160a01b031681526001909101906020018083116142db575b505050505081525050905080609d838154811061431857614318615334565b600091825260209182902083516006909202019081558282015160018201556040830151600282015560608301516003820180546001600160a01b039283166001600160a01b031991821617909155608085015160048401805491909316911617905560a08301518051919261439692600585019290910190614af9565b505081516000908152609e602052604080822085905586825281205550609d8054806143c4576143c4615980565b60008281526020812060066000199093019283020181815560018101829055600281018290556003810180546001600160a01b03199081169091556004820180549091169055906144186005830182614adb565b5050905550505050565b6000614436846001600160a01b0316612b22565b1561457157836001600160a01b031663150b7a02614452612673565b8786866040518563ffffffff1660e01b81526004016144749493929190615996565b6020604051808303816000875af19250505080156144af575060408051601f3d908101601f191682019092526144ac918101906158aa565b60015b614557573d8080156144dd576040519150601f19603f3d011682016040523d82523d6000602084013e6144e2565b606091505b50805160000361454f5760405162461bcd60e51b815260206004820152603260248201527f4552433732313a207472616e7366657220746f206e6f6e20455243373231526560448201527131b2b4bb32b91034b6b83632b6b2b73a32b960711b606482015260840161116b565b805181602001fd5b6001600160e01b031916630a85bd0160e11b149050613d0d565b506001613d0d565b6145838282613703565b6115da576040516316af84a960e21b815260048101839052811515602482015260440161116b565b606060006145ba8360026159d3565b6145c5906002615714565b6001600160401b038111156145dc576145dc614f03565b6040519080825280601f01601f191660200182016040528015614606576020820181803683370190505b509050600360fc1b8160008151811061462157614621615334565b60200101906001600160f81b031916908160001a905350600f60fb1b8160018151811061465057614650615334565b60200101906001600160f81b031916908160001a90535060006146748460026159d3565b61467f906001615714565b90505b60018111156146f7576f181899199a1a9b1b9c1cb0b131b232b360811b85600f16601081106146b3576146b3615334565b1a60f81b8282815181106146c9576146c9615334565b60200101906001600160f81b031916908160001a90535060049490941c936146f0816159ea565b9050614682565b5083156110255760405162461bcd60e51b815260206004820181905260248201527f537472696e67733a20686578206c656e67746820696e73756666696369656e74604482015260640161116b565b6000818152609e6020526040812054609d8054839290811061476a5761476a615334565b6000918252602082206005600690920201015491505b8181101561480e576000848152609e6020526040902054609d80546001600160a01b038816929081106147b5576147b5615334565b906000526020600020906006020160050182815481106147d7576147d7615334565b6000918252602090912001546001600160a01b0316036147fc57600192505050610e37565b806148068161540d565b915050614780565b506000949350505050565b609d805482516000908152609e6020908152604080832084905560018401855593909152835160069092027fd26e832454299e9fabb89e0e5fffdc046d4e14431bc1bf607ffb2e8a1ddecf7b8101928355818501517fd26e832454299e9fabb89e0e5fffdc046d4e14431bc1bf607ffb2e8a1ddecf7c820155928401517fd26e832454299e9fabb89e0e5fffdc046d4e14431bc1bf607ffb2e8a1ddecf7d84015560608401517fd26e832454299e9fabb89e0e5fffdc046d4e14431bc1bf607ffb2e8a1ddecf7e840180546001600160a01b039283166001600160a01b03199182161790915560808601517fd26e832454299e9fabb89e0e5fffdc046d4e14431bc1bf607ffb2e8a1ddecf7f8601805491909316911617905560a084015180518594611eef937fd26e832454299e9fabb89e0e5fffdc046d4e14431bc1bf607ffb2e8a1ddecf80909101920190614af9565b61497481614155565b6040516001600160a01b038216907fbc7cd75a20ee27fd9adebab32041f755214dbc6bffa90cc0225b39da2e5c2d3b90600090a250565b60606149b683612b22565b614a115760405162461bcd60e51b815260206004820152602660248201527f416464726573733a2064656c65676174652063616c6c20746f206e6f6e2d636f6044820152651b9d1c9858dd60d21b606482015260840161116b565b600080846001600160a01b031684604051614a2c9190615a01565b600060405180830381855af49150503d8060008114614a67576040519150601f19603f3d011682016040523d82523d6000602084013e614a6c565b606091505b5091509150614a948282604051806060016040528060278152602001615abe60279139614a9d565b95945050505050565b60608315614aac575081611025565b6110258383815115614ac15781518083602001fd5b8060405162461bcd60e51b815260040161116b9190614bf6565b50805460008255906000526020600020908101906114ef9190614b5e565b828054828255906000526020600020908101928215614b4e579160200282015b82811115614b4e57825182546001600160a01b0319166001600160a01b03909116178255602090920191600190910190614b19565b50614b5a929150614b5e565b5090565b5b80821115614b5a5760008155600101614b5f565b6001600160e01b0319811681146114ef57600080fd5b600060208284031215614b9b57600080fd5b813561102581614b73565b60005b83811015614bc1578181015183820152602001614ba9565b50506000910152565b60008151808452614be2816020860160208601614ba6565b601f01601f19169290920160200192915050565b6020815260006110256020830184614bca565b600060208284031215614c1b57600080fd5b5035919050565b6001600160a01b0391909116815260200190565b80356001600160a01b0381168114611a0f57600080fd5b60008060408385031215614c6057600080fd5b614c6983614c36565b946020939093013593505050565b600080600060608486031215614c8c57600080fd5b83359250614c9c60208501614c36565b9150604084013590509250925092565b600060208284031215614cbe57600080fd5b61102582614c36565b60008083601f840112614cd957600080fd5b5081356001600160401b03811115614cf057600080fd5b602083019150836020828501011115614d0857600080fd5b9250929050565b600080600080600080600080600060c08a8c031215614d2d57600080fd5b89356001600160401b0380821115614d4457600080fd5b614d508d838e01614cc7565b909b50995060208c0135915080821115614d6957600080fd5b614d758d838e01614cc7565b9099509750879150614d8960408d01614c36565b9650614d9760608d01614c36565b9550614da560808d01614c36565b945060a08c0135915080821115614dbb57600080fd5b818c0191508c601f830112614dcf57600080fd5b813581811115614dde57600080fd5b8d60208260051b8501011115614df357600080fd5b6020830194508093505050509295985092959850929598565b600060a08284031215614e1e57600080fd5b50919050565b60008060008060006101208688031215614e3d57600080fd5b614e4686614c36565b9450602086013593506040860135925060608601359150614e6a8760808801614e0c565b90509295509295909350565b600080600060608486031215614e8b57600080fd5b614e9484614c36565b9250614c9c60208501614c36565b600080600060608486031215614eb757600080fd5b505081359360208301359350604090920135919050565b600080600060608486031215614ee357600080fd5b8335925060208401359150614efa60408501614c36565b90509250925092565b634e487b7160e01b600052604160045260246000fd5b604051601f8201601f191681016001600160401b0381118282101715614f4157614f41614f03565b604052919050565b60006001600160401b03821115614f6257614f62614f03565b50601f01601f191660200190565b600082601f830112614f8157600080fd5b8135614f94614f8f82614f49565b614f19565b818152846020838601011115614fa957600080fd5b816020850160208301376000918101602001919091529392505050565b60008060408385031215614fd957600080fd5b614fe283614c36565b915060208301356001600160401b03811115614ffd57600080fd5b61500985828601614f70565b9150509250929050565b6000806040838503121561502657600080fd5b50508035926020909101359150565b80151581146114ef57600080fd5b60008060008060006080868803121561505b57600080fd5b8535945060208601356001600160401b0381111561507857600080fd5b61508488828901614cc7565b909550935050604086013561509881615035565b9150614e6a60608701614c36565b6000806000604084860312156150bb57600080fd5b8335925060208401356001600160401b038111156150d857600080fd5b6150e486828701614cc7565b9497909650939450505050565b6000806040838503121561510457600080fd5b61510d83614c36565b9150602083013561511d81615035565b809150509250929050565b6000806000806080858703121561513e57600080fd5b61514785614c36565b935061515560208601614c36565b92506040850135915060608501356001600160401b0381111561517757600080fd5b61518387828801614f70565b91505092959194509250565b600080604083850312156151a257600080fd5b8235915060208301356001811061511d57600080fd5b600080600060e084860312156151cd57600080fd5b8335925060208401359150614efa8560408601614e0c565b600080604083850312156151f857600080fd5b8235915061520860208401614c36565b90509250929050565b6001600160a01b038616815260ff8516602082015260a06040820181905260009061523e90830186614bca565b606083019490945250608001529392505050565b6000806040838503121561526557600080fd5b61526e83614c36565b915061520860208401614c36565b60008060006060848603121561529157600080fd5b61529a84614c36565b92506020840135915060408401356152b181615035565b809150509250925092565b6020808252825182820181905260009190848201906040850190845b818110156152f4578351835292840192918401916001016152d8565b50909695505050505050565b600181811c9082168061531457607f821691505b602082108103614e1e57634e487b7160e01b600052602260045260246000fd5b634e487b7160e01b600052603260045260246000fd5b6000835161535c818460208801614ba6565b64736c6f742f60d81b908301908152835161537e816005840160208801614ba6565b01600501949350505050565b60006020828403121561539c57600080fd5b81516001600160401b038111156153b257600080fd5b8201601f810184136153c357600080fd5b80516153d1614f8f82614f49565b8181528560208385010111156153e657600080fd5b614a94826020830160208601614ba6565b634e487b7160e01b600052601160045260246000fd5b60006001820161541f5761541f6153f7565b5060010190565b634e487b7160e01b600052602160045260246000fd5b60208082526032908201527f455243333532353a207472616e736665722063616c6c6572206973206e6f74206040820152711bdddb995c881b9bdc88185c1c1c9bdd995960721b606082015260800190565b6020808252602c908201527f46756e6374696f6e206d7573742062652063616c6c6564207468726f7567682060408201526b19195b1959d85d1958d85b1b60a21b606082015260800190565b6020808252602c908201527f46756e6374696f6e206d7573742062652063616c6c6564207468726f7567682060408201526b6163746976652070726f787960a01b606082015260800190565b602080825260199082015278115490cccd4c8d4e881a5b9d985b1a59081d1bdad95b881251603a1b604082015260600190565b601f82111561149157600081815260208120601f850160051c810160208610156155805750805b601f850160051c820191505b818110156114515782815560010161558c565b600019600383901b1c191660019190911b1790565b6001600160401b038311156155cb576155cb614f03565b6155df836155d98354615300565b83615559565b6000601f84116001811461560d57600085156155fb5750838201355b615605868261559f565b845550611cef565b600083815260209020601f19861690835b8281101561563e578685013582556020948501946001909201910161561e565b508682101561565b5760001960f88860031b161c19848701351681555b505060018560011b0183555050505050565b6001600160a01b039390931683526020830191909152604082015260600190565b600083516156a0818460208801614ba6565b8351908301906156b4818360208801614ba6565b01949350505050565b600083516156cf818460208801614ba6565b68636f6e74726163742f60b81b90830190815283516156f5816009840160208801614ba6565b01600901949350505050565b81810381811115610e3757610e376153f7565b80820180821115610e3757610e376153f7565b6020808252602b908201527f496e697469616c697a61626c653a20636f6e7472616374206973206e6f74206960408201526a6e697469616c697a696e6760a81b606082015260800190565b600381106114ef57634e487b7160e01b600052602160045260246000fd5b8235815260c081016020840135600381106157aa57600080fd5b6157b381615772565b60208301526157c460408501614c36565b6001600160a01b038181166040850152806157e160608801614c36565b166060850152806157f460808801614c36565b16608085015250508260a08301529392505050565b60006020828403121561581b57600080fd5b5051919050565b8381526060810161583284615772565b83602083015261584183615772565b826040830152949350505050565b60006020828403121561586157600080fd5b815161102581615035565b60018060a01b038616815284602082015283604082015282606082015260a06080820152600061589f60a0830184614bca565b979650505050505050565b6000602082840312156158bc57600080fd5b815161102581614b73565b81516001600160401b038111156158e0576158e0614f03565b6158f4816158ee8454615300565b84615559565b602080601f83116001811461592357600084156159115750858301515b61591b858261559f565b865550611451565b600085815260208120601f198616915b8281101561595257888601518255948401946001909101908401615933565b50858210156159705787850151600019600388901b60f8161c191681555b5050505050600190811b01905550565b634e487b7160e01b600052603160045260246000fd5b6001600160a01b03858116825284166020820152604081018390526080606082018190526000906159c990830184614bca565b9695505050505050565b8082028115828204841417610e3757610e376153f7565b6000816159f9576159f96153f7565b506000190190565b60008251615a13818460208701614ba6565b919091019291505056fefca69b310bd19d275687ebe00b254b0772cf7a367c3f81a9a5a433f831fdc1dc3c63e605be3290ab6b04cfc46c6e1516e626d43236b034f09d7ede1d017beb0c0b2aac84f3ec956911fd78eae5311062972ff949f38412e8da39069d9f068cc6360894a13ba1a3210667c828492db98dca3e2076cc3735a920a3ca505d382bbc449b0a7e0acc0a95c71947cb19fdd122b42abca9bdfbd6707ca4f1e3fdaef05e416464726573733a206c6f772d6c6576656c2064656c65676174652063616c6c206661696c6564ddf252ad1be2c89b69c2b068fc378daa952ba7f163c4a11628f55a4df523b3efa2646970667358221220052b9e54529c66827adc84491364a89937cf99e7ade0816f1cbaf8076533e2c864736f6c63430008130033",
  "linkReferences": {},
  "deployedLinkReferences": {}
}