{
  "address": "0xD66f3fEaEEB42F230E0E555C1c04632eD1798037",
  "abi": [
    {
      "inputs": [],
      "stateMutability": "nonpayable",
      "type": "constructor"
    },
    {
      "anonymous": false,
      "inputs": [
        {
          "indexed": true,
          "internalType": "address",
          "name": "previousAdmin",
          "type": "address"
        },
        {
          "indexed": true,
          "internalType": "address",
          "name": "admin",
          "type": "address"
        }
      ],
      "name": "AdminTransfered",
      "type": "event"
    },
    {
      "anonymous": false,
      "inputs": [
        {
          "indexed": true,
          "internalType": "address",
          "name": "user",
          "type": "address"
        }
      ],
      "name": "Blacklisted",
      "type": "event"
    },
    {
      "anonymous": false,
      "inputs": [
        {
          "indexed": false,
          "internalType": "address[]",
          "name": "users",
          "type": "address[]"
        }
      ],
      "name": "BlacklistedBatch",
      "type": "event"
    },
    {
      "anonymous": false,
      "inputs": [
        {
          "indexed": true,
          "internalType": "address",
          "name": "tokenAddress",
          "type": "address"
        },
        {
          "indexed": false,
          "internalType": "string",
          "name": "name",
          "type": "string"
        },
        {
          "indexed": false,
          "internalType": "string",
          "name": "symbol",
          "type": "string"
        },
        {
          "indexed": false,
          "internalType": "address",
          "name": "deployer",
          "type": "address"
        }
      ],
      "name": "GatekeeperNetworkCreated",
      "type": "event"
    },
    {
      "anonymous": false,
      "inputs": [
        {
          "indexed": false,
          "internalType": "address[]",
          "name": "tokens",
          "type": "address[]"
        },
        {
          "indexed": false,
          "internalType": "address",
          "name": "account",
          "type": "address"
        }
      ],
      "name": "TransfersAcceptedBatch",
      "type": "event"
    },
    {
      "anonymous": false,
      "inputs": [
        {
          "indexed": false,
          "internalType": "address[]",
          "name": "tokens",
          "type": "address[]"
        },
        {
          "indexed": false,
          "internalType": "address",
          "name": "account",
          "type": "address"
        }
      ],
      "name": "TransfersRestrictedBatch",
      "type": "event"
    },
    {
      "inputs": [
        {
          "internalType": "address[]",
          "name": "tokens",
          "type": "address[]"
        }
      ],
      "name": "acceptTransfersBatch",
      "outputs": [],
      "stateMutability": "nonpayable",
      "type": "function"
    },
    {
      "inputs": [
        {
          "internalType": "address",
          "name": "token",
          "type": "address"
        },
        {
          "internalType": "address[]",
          "name": "authorities",
          "type": "address[]"
        }
      ],
      "name": "addNetworkAuthorities",
      "outputs": [],
      "stateMutability": "nonpayable",
      "type": "function"
    },
    {
      "inputs": [
        {
          "internalType": "address",
          "name": "user",
          "type": "address"
        }
      ],
      "name": "blacklist",
      "outputs": [],
      "stateMutability": "nonpayable",
      "type": "function"
    },
    {
      "inputs": [
        {
          "internalType": "address[]",
          "name": "users",
          "type": "address[]"
        }
      ],
      "name": "blacklistBatch",
      "outputs": [],
      "stateMutability": "nonpayable",
      "type": "function"
    },
    {
      "inputs": [
        {
          "internalType": "string",
          "name": "_name",
          "type": "string"
        },
        {
          "internalType": "string",
          "name": "_symbol",
          "type": "string"
        },
        {
          "internalType": "bool",
          "name": "_isDAOGoverned",
          "type": "bool"
        },
        {
          "internalType": "address",
          "name": "_daoExecutor",
          "type": "address"
        }
      ],
      "name": "createGatekeeperNetwork",
      "outputs": [
        {
          "internalType": "address",
          "name": "tokenAddress",
          "type": "address"
        }
      ],
      "stateMutability": "nonpayable",
      "type": "function"
    },
    {
      "inputs": [],
      "name": "identityAdmin",
      "outputs": [
        {
          "internalType": "address",
          "name": "",
          "type": "address"
        }
      ],
      "stateMutability": "view",
      "type": "function"
    },
    {
      "inputs": [
        {
          "internalType": "address",
          "name": "user",
          "type": "address"
        }
      ],
      "name": "isBlacklisted",
      "outputs": [
        {
          "internalType": "bool",
          "name": "",
          "type": "bool"
        }
      ],
      "stateMutability": "view",
      "type": "function"
    },
    {
      "inputs": [
        {
          "internalType": "address",
          "name": "token",
          "type": "address"
        },
        {
          "internalType": "address[]",
          "name": "authorities",
          "type": "address[]"
        }
      ],
      "name": "removeNetworkAuthorities",
      "outputs": [],
      "stateMutability": "nonpayable",
      "type": "function"
    },
    {
      "inputs": [
        {
          "internalType": "address[]",
          "name": "tokens",
          "type": "address[]"
        }
      ],
      "name": "restrictTransfersBatch",
      "outputs": [],
      "stateMutability": "nonpayable",
      "type": "function"
    },
    {
      "inputs": [
        {
          "internalType": "address",
          "name": "newAdmin",
          "type": "address"
        }
      ],
      "name": "transferAdmin",
      "outputs": [],
      "stateMutability": "nonpayable",
      "type": "function"
    }
  ],
  "transactionHash": "0xfc105a478e6778baaf526b272a1e9b08e41e361e3c7898bebbe4e6eae100a67a",
  "args": [],
  "solcInputHash": "e0412e0431933dfe1769e69055702c5d",
  "bytecode": "0x608060405234801561001057600080fd5b50600280546001600160a01b031916331790556147ed806100326000396000f3fe60806040523480156200001157600080fd5b5060043610620000ac5760003560e01c80637e889537116200006f5780637e889537146200012657806394ee5d471462000148578063f2ec3450146200015f578063f9f92be41462000176578063fe575a87146200018d57620000ac565b80630dd05e5f14620000b157806324b776c914620000ca5780635647bfa514620000e1578063726b577114620000f857806375829def146200010f575b600080fd5b620000c8620000c236600462000fa6565b620001b3565b005b620000c8620000db36600462000fa6565b62000348565b620000c8620000f236600462000f52565b620004c9565b620000c86200010936600462000fa6565b6200079d565b620000c86200012036600462000f0d565b620008a1565b620001306200091a565b6040516200013f919062001128565b60405180910390f35b620001306200015936600462001004565b62000929565b620000c86200017036600462000f52565b620009cb565b620000c86200018736600462000f0d565b62000c99565b620001a46200019e36600462000f0d565b62000d3b565b6040516200013f91906200117d565b6002546001600160a01b03163314620001e95760405162461bcd60e51b8152600401620001e0906200121e565b60405180910390fd5b60005b8151811015620003095760008282815181106200021957634e487b7160e01b600052603260045260246000fd5b602002602001015190506200023981600062000d5990919063ffffffff16565b620002585760405162461bcd60e51b8152600401620001e090620012cd565b6000819050806001600160a01b0316637adac0e66040518163ffffffff1660e01b8152600401602060405180830381600087803b1580156200029957600080fd5b505af1158015620002ae573d6000803e3d6000fd5b505050506040513d601f19601f82011682018060405250810190620002d4919062000fe5565b620002f35760405162461bcd60e51b8152600401620001e0906200129e565b505080620003019062001325565b9050620001ec565b507f58631eee773f0fec6b0e2e8bd8eb7250c0941d22e2ac58787e3428a693745a2481336040516200033d92919062001151565b60405180910390a150565b6002546001600160a01b03163314620003755760405162461bcd60e51b8152600401620001e0906200121e565b60005b815181101562000495576000828281518110620003a557634e487b7160e01b600052603260045260246000fd5b60200260200101519050620003c581600062000d5990919063ffffffff16565b620003e45760405162461bcd60e51b8152600401620001e090620012cd565b6000819050806001600160a01b0316632185810b6040518163ffffffff1660e01b8152600401602060405180830381600087803b1580156200042557600080fd5b505af11580156200043a573d6000803e3d6000fd5b505050506040513d601f19601f8201168201806040525081019062000460919062000fe5565b6200047f5760405162461bcd60e51b8152600401620001e0906200129e565b5050806200048d9062001325565b905062000378565b507f404f02b9c73e30734207749f2fc6f5e4d1e2fba7649223798308d3a63014f4fc81336040516200033d92919062001151565b620004d660008362000d59565b620004f55760405162461bcd60e51b8152600401620001e090620012cd565b8160005b8251811015620007975760008382815181106200052657634e487b7160e01b600052603260045260246000fd5b60200260200101519050826001600160a01b031663304743156040518163ffffffff1660e01b8152600401602060405180830381600087803b1580156200056c57600080fd5b505af115801562000581573d6000803e3d6000fd5b505050506040513d601f19601f82011682018060405250810190620005a7919062000fe5565b156200065a576000836001600160a01b031663f322c7556040518163ffffffff1660e01b8152600401602060405180830381600087803b158015620005eb57600080fd5b505af115801562000600573d6000803e3d6000fd5b505050506040513d601f19601f8201168201806040525081019062000626919062000f33565b9050336001600160a01b03821614620006535760405162461bcd60e51b8152600401620001e0906200124e565b50620006fd565b60405163bb909c2b60e01b81526001600160a01b0384169063bb909c2b906200068890339060040162001128565b602060405180830381600087803b158015620006a357600080fd5b505af1158015620006b8573d6000803e3d6000fd5b505050506040513d601f19601f82011682018060405250810190620006de919062000fe5565b620006fd5760405162461bcd60e51b8152600401620001e0906200124e565b604051633746948f60e11b81526001600160a01b03841690636e8d291e906200072b90849060040162001128565b602060405180830381600087803b1580156200074657600080fd5b505af11580156200075b573d6000803e3d6000fd5b505050506040513d601f19601f8201168201806040525081019062000781919062000fe5565b5050806200078f9062001325565b9050620004f9565b50505050565b6002546001600160a01b03163314620007ca5760405162461bcd60e51b8152600401620001e0906200121e565b60005b81518110156200086f576000828281518110620007fa57634e487b7160e01b600052603260045260246000fd5b6020026020010151905060006001600160a01b0316816001600160a01b031614156200083a5760405162461bcd60e51b8152600401620001e09062001278565b6001600160a01b03166000908152600360205260409020805460ff19166001179055620008678162001325565b9050620007cd565b507fe1083d5cef2dbb8a2482660e37a8229667000029c2686255cef786c905cad3e2816040516200033d91906200113c565b6002546001600160a01b03163314620008ce5760405162461bcd60e51b8152600401620001e0906200121e565b600280546001600160a01b0319166001600160a01b03831690811790915560405133907f173de3514d8508f36ce8c81d509adcd8c8c76098400f685d3042b36f9a4160c390600090a350565b6002546001600160a01b031681565b600084843385856040516200093e9062000df7565b6200094e959493929190620011ca565b604051809103906000f0801580156200096b573d6000803e3d6000fd5b5090506200097b60008262000d79565b50806001600160a01b03167ff9d549554121b54eb289ca81e131436ff67c712259c89fb3c00e36d793efeece868633604051620009bb9392919062001188565b60405180910390a2949350505050565b620009d860008362000d59565b620009f75760405162461bcd60e51b8152600401620001e090620012cd565b8160005b82518110156200079757600083828151811062000a2857634e487b7160e01b600052603260045260246000fd5b60200260200101519050826001600160a01b031663304743156040518163ffffffff1660e01b8152600401602060405180830381600087803b15801562000a6e57600080fd5b505af115801562000a83573d6000803e3d6000fd5b505050506040513d601f19601f8201168201806040525081019062000aa9919062000fe5565b1562000b5c576000836001600160a01b031663f322c7556040518163ffffffff1660e01b8152600401602060405180830381600087803b15801562000aed57600080fd5b505af115801562000b02573d6000803e3d6000fd5b505050506040513d601f19601f8201168201806040525081019062000b28919062000f33565b9050336001600160a01b0382161462000b555760405162461bcd60e51b8152600401620001e0906200124e565b5062000bff565b60405163bb909c2b60e01b81526001600160a01b0384169063bb909c2b9062000b8a90339060040162001128565b602060405180830381600087803b15801562000ba557600080fd5b505af115801562000bba573d6000803e3d6000fd5b505050506040513d601f19601f8201168201806040525081019062000be0919062000fe5565b62000bff5760405162461bcd60e51b8152600401620001e0906200124e565b6040516302519eb160e61b81526001600160a01b03841690639467ac409062000c2d90849060040162001128565b602060405180830381600087803b15801562000c4857600080fd5b505af115801562000c5d573d6000803e3d6000fd5b505050506040513d601f19601f8201168201806040525081019062000c83919062000fe5565b50508062000c919062001325565b9050620009fb565b6002546001600160a01b0316331462000cc65760405162461bcd60e51b8152600401620001e0906200121e565b6001600160a01b03811662000cef5760405162461bcd60e51b8152600401620001e09062001278565b6001600160a01b038116600081815260036020526040808220805460ff19166001179055517fffa4e6181777692565cf28528fc88fd1516ea86b56da075235fa575af6a4b8559190a250565b6001600160a01b031660009081526003602052604090205460ff1690565b600062000d70836001600160a01b03841662000d90565b90505b92915050565b600062000d70836001600160a01b03841662000da8565b60009081526001919091016020526040902054151590565b600062000db6838362000d90565b62000dee5750815460018181018455600084815260208082209093018490558454848252828601909352604090209190915562000d73565b50600062000d73565b61342c806200138c83390190565b600082601f83011262000e16578081fd5b8135602067ffffffffffffffff82111562000e355762000e356200134d565b80820262000e45828201620012f8565b83815282810190868401838801850189101562000e60578687fd5b8693505b8584101562000e8f57803562000e7a8162001363565b83526001939093019291840191840162000e64565b50979650505050505050565b600082601f83011262000eac578081fd5b813567ffffffffffffffff81111562000ec95762000ec96200134d565b62000ede601f8201601f1916602001620012f8565b81815284602083860101111562000ef3578283fd5b816020850160208301379081016020019190915292915050565b60006020828403121562000f1f578081fd5b813562000f2c8162001363565b9392505050565b60006020828403121562000f45578081fd5b815162000f2c8162001363565b6000806040838503121562000f65578081fd5b823562000f728162001363565b9150602083013567ffffffffffffffff81111562000f8e578182fd5b62000f9c8582860162000e05565b9150509250929050565b60006020828403121562000fb8578081fd5b813567ffffffffffffffff81111562000fcf578182fd5b62000fdd8482850162000e05565b949350505050565b60006020828403121562000ff7578081fd5b815162000f2c816200137c565b600080600080608085870312156200101a578182fd5b843567ffffffffffffffff8082111562001032578384fd5b620010408883890162000e9b565b9550602087013591508082111562001056578384fd5b50620010658782880162000e9b565b935050604085013562001078816200137c565b915060608501356200108a8162001363565b939692955090935050565b6000815180845260208085019450808401835b83811015620010cf5781516001600160a01b031687529582019590820190600101620010a8565b509495945050505050565b60008151808452815b818110156200110157602081850181015186830182015201620010e3565b81811115620011135782602083870101525b50601f01601f19169290920160200192915050565b6001600160a01b0391909116815260200190565b60006020825262000d70602083018462001095565b60006040825262001166604083018562001095565b905060018060a01b03831660208301529392505050565b901515815260200190565b6000606082526200119d6060830186620010da565b8281036020840152620011b18186620010da565b91505060018060a01b0383166040830152949350505050565b600060a08252620011df60a0830188620010da565b8281036020840152620011f38188620010da565b6001600160a01b03968716604085015294151560608401525050921660809092019190915292915050565b6020808252601690820152752727aa1024a222a72a24aa2cafa1a7a6afa0a226a4a760511b604082015260600190565b60208082526010908201526f494e434f52524543542041434345535360801b604082015260600190565b6020808252600c908201526b5a45524f204144445245535360a01b604082015260600190565b6020808252601590820152741514905394d1915494c81393d50810531313d5d151605a1b604082015260600190565b6020808252601190820152702727aa1023a0aa22aba0ac902a27a5a2a760791b604082015260600190565b60405181810167ffffffffffffffff811182821017156200131d576200131d6200134d565b604052919050565b60006000198214156200134657634e487b7160e01b81526011600452602481fd5b5060010190565b634e487b7160e01b600052604160045260246000fd5b6001600160a01b03811681146200137957600080fd5b50565b80151581146200137957600080fdfe60806040523480156200001157600080fd5b506040516200342c3803806200342c833981016040819052620000349162000534565b845162000049906001906020880190620003cb565b5083516200005f906002906020870190620003cb565b506200006a620002a0565b600380546001600160a01b039283166001600160a01b0319918216179091556004805492861660ff60a01b19909316600160a01b17909116919091179055620000cc6000805160206200340c833981519152620000c6620002a0565b620002a4565b600454620000f4906000805160206200340c833981519152906001600160a01b0316620002a4565b6004546200011c90600080516020620033ec833981519152906001600160a01b0316620002a4565b811562000250576004805460ff60a81b1916600160a81b841515021790556001600160a01b0381166200016c5760405162461bcd60e51b81526004016200016390620005d8565b60405180910390fd5b600580546001600160a01b0319166001600160a01b038316179055620001a2600080516020620033cc83398151915282620002a4565b620001c0600080516020620033cc833981519152620000c6620002a0565b620001db6000805160206200340c83398151915282620002a4565b620001f6600080516020620033ec83398151915282620002a4565b620002206000805160206200340c833981519152600080516020620033cc833981519152620002b4565b6200024a600080516020620033ec833981519152600080516020620033cc833981519152620002b4565b62000295565b6200026b6000805160206200340c83398151915280620002b4565b62000295600080516020620033ec8339815191526000805160206200340c833981519152620002b4565b505050505062000656565b3390565b620002b0828262000300565b5050565b80620002c0836200038a565b60405184907fbd79b86ffe0ab8e8776151514217cd7cacd52c909f66475c3af44e129f0b00ff90600090a460009182526020829052604090912060010155565b6200030c8282620003a2565b620002b0576000828152602081815260408083206001600160a01b03851684529091529020805460ff1916600117905562000346620002a0565b6001600160a01b0316816001600160a01b0316837f2f8788117e7eff1d82e926ec794901d17c78024a50270940304540a733656f0d60405160405180910390a45050565b6000818152602081905260409020600101545b919050565b6000918252602082815260408084206001600160a01b0393909316845291905290205460ff1690565b828054620003d99062000603565b90600052602060002090601f016020900481019282620003fd576000855562000448565b82601f106200041857805160ff191683800117855562000448565b8280016001018555821562000448579182015b82811115620004485782518255916020019190600101906200042b565b50620004569291506200045a565b5090565b5b808211156200045657600081556001016200045b565b80516001600160a01b03811681146200039d57600080fd5b600082601f8301126200049a578081fd5b81516001600160401b0380821115620004b757620004b762000640565b6040516020601f8401601f1916820181018381118382101715620004df57620004df62000640565b6040528382528584018101871015620004f6578485fd5b8492505b83831015620005195785830181015182840182015291820191620004fa565b838311156200052a57848185840101525b5095945050505050565b600080600080600060a086880312156200054c578081fd5b85516001600160401b038082111562000563578283fd5b6200057189838a0162000489565b9650602088015191508082111562000587578283fd5b50620005968882890162000489565b945050620005a76040870162000471565b925060608601518015158114620005bc578182fd5b9150620005cc6080870162000471565b90509295509295909350565b602080825260119082015270494e434f5252454354204144445245535360781b604082015260600190565b6002810460018216806200061857607f821691505b602082108114156200063a57634e487b7160e01b600052602260045260246000fd5b50919050565b634e487b7160e01b600052604160045260246000fd5b612d6680620006666000396000f3fe608060405234801561001057600080fd5b50600436106102a05760003560e01c806381e9ff1911610167578063b88d4fde116100ce578063d7a78db811610087578063d7a78db81461057e578063e985e9c514610591578063f1537686146105a4578063f322c755146105b7578063f77c4791146105bf578063ff17e232146105c7576102a0565b8063b88d4fde14610522578063bb909c2b14610535578063c87b56dd14610548578063d547741f1461055b578063d5f394881461056e578063d6fd317514610576576102a0565b806395d89b411161012057806395d89b41146104d15780639605f12f146104d9578063a1ac3017146104e1578063a1e08911146104f4578063a217fddf14610507578063a22cb4651461050f576102a0565b806381e9ff19146104755780638423df791461047d57806385e3f0581461048557806387b6aef51461049857806391d14854146104ab5780639467ac40146104be576102a0565b8063368e63331161020b5780636623fc46116101c45780636623fc46146104195780636bd274711461042c5780636e8d291e1461043f5780636f7caf411461045257806370a082311461045a5780637adac0e61461046d576102a0565b8063368e6333146103a757806340c10f19146103ba5780634130276b146103cd57806342842e0e146103e057806342966c68146103f35780636352211e14610406576102a0565b80632185810b1161025d5780632185810b1461033e57806323b872dd14610346578063248a9ca3146103595780632f2ff15d14610379578063304743151461038c57806336568abe14610394576102a0565b806301ffc9a7146102a557806306fdde03146102ce57806307031305146102e3578063081812fc146102f8578063095ea7b314610318578063162094c41461032b575b600080fd5b6102b86102b3366004612482565b6105da565b6040516102c5919061263f565b60405180910390f35b6102d6610622565b6040516102c59190612653565b6102f66102f1366004612512565b6106b0565b005b61030b610306366004612446565b610731565b6040516102c591906125d4565b6102f66103263660046123ff565b610774565b6102f66103393660046124ba565b61081b565b6102b86108ce565b6102f6610354366004612315565b610a10565b61036c610367366004612446565b610a48565b6040516102c5919061264a565b6102f661038736600461245e565b610a5d565b6102b8610a81565b6102f66103a236600461245e565b610a91565b6102f66103b53660046123ff565b610ad7565b6102f66103c83660046123ff565b610b8d565b6102b86103db3660046122a5565b610bf4565b6102f66103ee366004612315565b610c74565b6102f6610401366004612446565b610c8f565b61030b610414366004612446565b610cd1565b6102f6610427366004612446565b610d06565b6102f661043a3660046122a5565b610d78565b6102b861044d3660046122a5565b610d90565b61036c610daa565b61036c6104683660046122a5565b610dbc565b6102b8610e00565b61036c610f2e565b6102b8610f52565b6102d6610493366004612446565b610f62565b6102f66104a63660046122a5565b610f6d565b6102b86104b936600461245e565b6110f0565b6102b86104cc3660046122a5565b61111b565b6102d6611135565b6102b8611142565b6102f66104ef3660046122a5565b611152565b61036c610502366004612446565b61116a565b61036c6111a4565b6102f661051d3660046123d2565b6111a9565b6102f6610530366004612355565b611277565b6102b86105433660046122a5565b6112b0565b6102d6610556366004612446565b6112ca565b6102f661056936600461245e565b611390565b61030b6113af565b61036c6113be565b6102f661058c366004612446565b6113d0565b6102b861059f3660046122dd565b611442565b61036c6105b23660046122a5565b611470565b61030b6114b4565b61030b6114c3565b6102b86105d53660046123ff565b6114d2565b60006001600160e01b031982166380ac58cd60e01b148061060b57506001600160e01b03198216635b5e139f60e01b145b8061061a575061061a82611537565b90505b919050565b6001805461062f90612c50565b80601f016020809104026020016040519081016040528092919081815260200182805461065b90612c50565b80156106a85780601f1061067d576101008083540402835291602001916106a8565b820191906000526020600020905b81548152906001019060200180831161068b57829003601f168201915b505050505081565b6106ca600080516020612cf18339815191526104b961155c565b6106ef5760405162461bcd60e51b81526004016106e6906128d8565b60405180910390fd5b60006106fa83610cd1565b905061070581611560565b156107225760405162461bcd60e51b81526004016106e690612969565b61072c83836115e1565b505050565b600061073c82611655565b6107585760405162461bcd60e51b81526004016106e690612666565b506000908152600860205260409020546001600160a01b031690565b600061077f82610cd1565b9050806001600160a01b0316836001600160a01b031614156107b35760405162461bcd60e51b81526004016106e6906126c8565b806001600160a01b03166107c561155c565b6001600160a01b0316146107eb5760405162461bcd60e51b81526004016106e690612a97565b6107f481611560565b156108115760405162461bcd60e51b81526004016106e690612969565b61072c83836116f9565b610835600080516020612cf18339815191526104b961155c565b6108515760405162461bcd60e51b81526004016106e6906128d8565b61085a82611655565b6108765760405162461bcd60e51b81526004016106e690612904565b600061088183610cd1565b905061088c81611560565b156108a95760405162461bcd60e51b81526004016106e690612969565b6000838152600b6020908152604090912083516108c892850190612164565b50505050565b60006108d8610f52565b6108f45760405162461bcd60e51b81526004016106e6906126ff565b600360009054906101000a90046001600160a01b03166001600160a01b0316637e8895376040518163ffffffff1660e01b815260040160206040518083038186803b15801561094257600080fd5b505afa158015610956573d6000803e3d6000fd5b505050506040513d601f19601f8201168201806040525081019061097a91906122c1565b6001600160a01b0316336001600160a01b031614806109a357506003546001600160a01b031633145b6109bf5760405162461bcd60e51b81526004016106e690612aee565b6004805460ff60a01b191690557f3e9a3af5b34dbcee8465c0ec9f4f535cb0e3c6a44d1179ae105ced0edbc6d92e6109f561155c565b604051610a0291906125d4565b60405180910390a150600190565b610a21610a1b61155c565b82611767565b610a3d5760405162461bcd60e51b81526004016106e690612a29565b61072c838383611819565b60009081526020819052604090206001015490565b610a6682610a48565b610a7781610a7261155c565b61198d565b61072c83836119f1565b600454600160a81b900460ff1681565b610a9961155c565b6001600160a01b0316816001600160a01b031614610ac95760405162461bcd60e51b81526004016106e690612b70565b610ad38282611a76565b5050565b610ae081611af9565b610afc5760405162461bcd60e51b81526004016106e690612904565b610b16600080516020612cf18339815191526104b961155c565b610b325760405162461bcd60e51b81526004016106e6906128d8565b6000610b3d82610cd1565b9050826001600160a01b0316816001600160a01b031614610b705760405162461bcd60e51b81526004016106e690612a97565b506001600160a01b039091166000908152600d6020526040902055565b81610b9781611560565b15610bb45760405162461bcd60e51b81526004016106e690612969565b610bce600080516020612cf18339815191526104b961155c565b610bea5760405162461bcd60e51b81526004016106e6906128d8565b61072c8383611b16565b600080610c0083611470565b9050610c0b81611655565b610c1957600091505061061d565b6000610c2482610cd1565b9050836001600160a01b0316816001600160a01b031614610c4a5760009250505061061d565b6000610c5585611560565b90508015610c69576000935050505061061d565b506001949350505050565b61072c83838360405180602001604052806000815250611277565b610ca9600080516020612cf18339815191526104b961155c565b610cc55760405162461bcd60e51b81526004016106e6906128d8565b610cce81611c23565b50565b6000818152600660205260408120546001600160a01b03168061061a5760405162461bcd60e51b81526004016106e6906129d5565b610d20600080516020612cf18339815191526104b961155c565b610d3c5760405162461bcd60e51b81526004016106e6906128d8565b6000610d4782610cd1565b9050610d5281611560565b15610d6f5760405162461bcd60e51b81526004016106e690612969565b610ad382611d4b565b610cce600080516020612cf183398151915282610a5d565b600061061d600080516020612d1183398151915283611390565b600080516020612d1183398151915281565b60006001600160a01b038216610de45760405162461bcd60e51b81526004016106e6906129d5565b506001600160a01b031660009081526007602052604090205490565b6000610e0a610f52565b15610e275760405162461bcd60e51b81526004016106e69061293b565b600360009054906101000a90046001600160a01b03166001600160a01b0316637e8895376040518163ffffffff1660e01b815260040160206040518083038186803b158015610e7557600080fd5b505afa158015610e89573d6000803e3d6000fd5b505050506040513d601f19601f82011682018060405250810190610ead91906122c1565b6001600160a01b0316336001600160a01b03161480610ed657506003546001600160a01b031633145b610ef25760405162461bcd60e51b81526004016106e690612aee565b6004805460ff60a01b1916600160a01b1790557fe4c361b3d777a0427514a30f90e63bc5728cf1365a8b12e93ae0bf113d8669be6109f561155c565b7ffca69b310bd19d275687ebe00b254b0772cf7a367c3f81a9a5a433f831fdc1dc81565b600454600160a01b900460ff1690565b606061061a826112ca565b6005546001600160a01b03163314610f975760405162461bcd60e51b81526004016106e6906127b7565b6001600160a01b038116610fbd5760405162461bcd60e51b81526004016106e6906129d5565b610fe77ffca69b310bd19d275687ebe00b254b0772cf7a367c3f81a9a5a433f831fdc1dc82610a5d565b610fff600080516020612d1183398151915282610a5d565b611017600080516020612cf183398151915282610a5d565b60055461103c90600080516020612cf1833981519152906001600160a01b0316611390565b60055461106190600080516020612d11833981519152906001600160a01b0316611390565b600554611098907ffca69b310bd19d275687ebe00b254b0772cf7a367c3f81a9a5a433f831fdc1dc906001600160a01b0316611390565b600580546001600160a01b0319166001600160a01b0383161790556040517f0f682333a6fa3e76317e29f29765b707dba149e3449fa176a2191835342ab30f906110e590339084906125e8565b60405180910390a150565b6000828152602081815260408083206001600160a01b038516845290915290205460ff165b92915050565b600061061d600080516020612d1183398151915283610a5d565b6002805461062f90612c50565b600454600160a01b900460ff1681565b610cce600080516020612cf183398151915282611390565b600061117582611af9565b6111915760405162461bcd60e51b81526004016106e690612904565b506000908152600c602052604090205490565b600081565b6111b161155c565b6001600160a01b0316826001600160a01b031614156111e25760405162461bcd60e51b81526004016106e6906127e0565b80600960006111ef61155c565b6001600160a01b03908116825260208083019390935260409182016000908120918716808252919093529120805460ff19169215159290921790915561123361155c565b6001600160a01b03167f17307eab39ab6107e8899845ad3d59bd9653f200f220920489ca2b5937696c318360405161126b919061263f565b60405180910390a35050565b61128861128261155c565b83611767565b6112a45760405162461bcd60e51b81526004016106e690612a29565b6108c884848484611dde565b600061061a600080516020612d11833981519152836110f0565b60606112d582611af9565b6112f15760405162461bcd60e51b81526004016106e690612904565b6000828152600b60205260408120805461130a90612c50565b80601f016020809104026020016040519081016040528092919081815260200182805461133690612c50565b80156113835780601f1061135857610100808354040283529160200191611383565b820191906000526020600020905b81548152906001019060200180831161136657829003601f168201915b5093979650505050505050565b61139982610a48565b6113a581610a7261155c565b61072c8383611a76565b6004546001600160a01b031681565b600080516020612cf183398151915281565b6113ea600080516020612cf18339815191526104b961155c565b6114065760405162461bcd60e51b81526004016106e6906128d8565b600061141182610cd1565b905061141c81611560565b156114395760405162461bcd60e51b81526004016106e690612969565b610ad382611e11565b6001600160a01b03918216600090815260096020908152604080832093909416825291909152205460ff1690565b60006001600160a01b0382166114985760405162461bcd60e51b81526004016106e6906129d5565b506001600160a01b03166000908152600d602052604090205490565b6005546001600160a01b031681565b6003546001600160a01b031681565b60006114dd82611655565b6114e957506000611115565b60006114f483610cd1565b9050836001600160a01b0316816001600160a01b031614611519576000915050611115565b600061152485611560565b90508015610c6957600092505050611115565b60006001600160e01b03198216637965db0b60e01b148061061a575061061a82611e79565b3390565b60035460405163fe575a8760e01b81526000916001600160a01b03169063fe575a87906115919085906004016125d4565b60206040518083038186803b1580156115a957600080fd5b505afa1580156115bd573d6000803e3d6000fd5b505050506040513d601f19601f8201168201806040525081019061061a919061242a565b6115ea82611655565b6116065760405162461bcd60e51b81526004016106e690612857565b6000828152600c6020526040908190208290555182907f1ebc57da8b3ebab98506502fbb73232ea29fbe86e4963a5a8c004810ad11190d9061164990849061264a565b60405180910390a25050565b6000818152600c6020526040812054156116bf576000828152600660205260409020546001600160a01b03161580159061169e57506000828152600a602052604090205460ff16155b80156116b857506000828152600c60205260409020544211155b905061061d565b6000828152600660205260409020546001600160a01b0316158015906116b85750506000818152600a602052604090205460ff161561061d565b600081815260086020526040902080546001600160a01b0319166001600160a01b038416908117909155819061172e82610cd1565b6001600160a01b03167f8c5be1e5ebec7d5bd14f71427d1e84f3dd0314c0f7b2291e5b200ac8c7c3b92560405160405180910390a45050565b600061177282611af9565b61178e5760405162461bcd60e51b81526004016106e69061280b565b600061179983610cd1565b9050806001600160a01b0316846001600160a01b031614156117c6576117bd610f52565b15915050611115565b836001600160a01b03166117d984610731565b6001600160a01b031614806117f357506117f38185611442565b806118115750611811600080516020612cf1833981519152856110f0565b915050611115565b826001600160a01b031661182c82610cd1565b6001600160a01b0316146118525760405162461bcd60e51b81526004016106e690612788565b6001600160a01b0382166118785760405162461bcd60e51b81526004016106e690612b39565b61188383838361072c565b61188e6000826116f9565b6001600160a01b0383166000908152600d60205260409020548114156118d5576001600160a01b038084166000908152600d60205260408082208290559184168152208190555b6001600160a01b03831660009081526007602052604081208054600192906118fe908490612bf6565b90915550506001600160a01b038216600090815260076020526040812080546001929061192c908490612bbf565b909155505060008181526006602052604080822080546001600160a01b0319166001600160a01b0386811691821790925591518493918716917fddf252ad1be2c89b69c2b068fc378daa952ba7f163c4a11628f55a4df523b3ef91a4505050565b61199782826110f0565b610ad3576119af816001600160a01b03166014611e92565b6119ba836020611e92565b6040516020016119cb92919061255f565b60408051601f198184030181529082905262461bcd60e51b82526106e691600401612653565b6119fb82826110f0565b610ad3576000828152602081815260408083206001600160a01b03851684529091529020805460ff19166001179055611a3261155c565b6001600160a01b0316816001600160a01b0316837f2f8788117e7eff1d82e926ec794901d17c78024a50270940304540a733656f0d60405160405180910390a45050565b611a8082826110f0565b15610ad3576000828152602081815260408083206001600160a01b03851684529091529020805460ff19169055611ab561155c565b6001600160a01b0316816001600160a01b0316837ff6391f5c32d9c69d2a47ea670b442974b53935d1edc7fd64eb21e047a839171b60405160405180910390a45050565b6000908152600660205260409020546001600160a01b0316151590565b6001600160a01b038216611b3c5760405162461bcd60e51b81526004016106e6906129d5565b611b4581611af9565b15611b625760405162461bcd60e51b81526004016106e690612ac0565b6001600160a01b0382166000908152600760205260408120805460019290611b8b908490612bbf565b9091555050600081815260066020908152604080832080546001600160a01b0319166001600160a01b0387169081179091558352600d909152902054611be7576001600160a01b0382166000908152600d602052604090208190555b60405181906001600160a01b038416906000907fddf252ad1be2c89b69c2b068fc378daa952ba7f163c4a11628f55a4df523b3ef908290a45050565b6000611c2e82610cd1565b9050611c3b6000836116f9565b6000828152600a60209081526040808320805460ff19169055600c8252808320839055600b90915290208054611c7090612c50565b159050611c8e576000828152600b60205260408120611c8e916121e8565b6001600160a01b0381166000908152600d6020526040902054821415611cc8576001600160a01b0381166000908152600d60205260408120555b6001600160a01b0381166000908152600760205260408120805460019290611cf1908490612bf6565b909155505060008281526006602052604080822080546001600160a01b0319169055518391906001600160a01b038416907fddf252ad1be2c89b69c2b068fc378daa952ba7f163c4a11628f55a4df523b3ef908390a45050565b611d5481611af9565b611d705760405162461bcd60e51b81526004016106e6906129fb565b6000818152600a602052604090205460ff16611d9e5760405162461bcd60e51b81526004016106e690612a6c565b6000818152600a6020526040808220805460ff191690555182917fe2babfd5e77285a3c3dbc4b25592cbe4a7a26e97a7ac63067a22ebdaa9b82add91a250565b611de9848484611819565b611df58484848461204b565b6108c85760405162461bcd60e51b81526004016106e69061288e565b611e1a81611655565b611e365760405162461bcd60e51b81526004016106e690612993565b6000818152600a6020526040808220805460ff191660011790555182917f779fbee689bbd6f006ecb329206d35c7db7380f9837a8826fb8dc5cfcd3d33dd91a250565b6001600160e01b031981166301ffc9a760e01b14919050565b60606000611ea1836002612bd7565b611eac906002612bbf565b67ffffffffffffffff811115611ed257634e487b7160e01b600052604160045260246000fd5b6040519080825280601f01601f191660200182016040528015611efc576020820181803683370190505b509050600360fc1b81600081518110611f2557634e487b7160e01b600052603260045260246000fd5b60200101906001600160f81b031916908160001a905350600f60fb1b81600181518110611f6257634e487b7160e01b600052603260045260246000fd5b60200101906001600160f81b031916908160001a9053506000611f86846002612bd7565b611f91906001612bbf565b90505b6001811115612025576f181899199a1a9b1b9c1cb0b131b232b360811b85600f1660108110611fd357634e487b7160e01b600052603260045260246000fd5b1a60f81b828281518110611ff757634e487b7160e01b600052603260045260246000fd5b60200101906001600160f81b031916908160001a90535060049490941c9361201e81612c39565b9050611f94565b5083156120445760405162461bcd60e51b81526004016106e690612693565b9392505050565b600061205f846001600160a01b031661215e565b15610c6957836001600160a01b031663150b7a0261207b61155c565b8786866040518563ffffffff1660e01b815260040161209d9493929190612602565b602060405180830381600087803b1580156120b757600080fd5b505af19250505080156120e7575060408051601f3d908101601f191682019092526120e49181019061249e565b60015b612141573d808015612115576040519150601f19603f3d011682016040523d82523d6000602084013e61211a565b606091505b5080516121395760405162461bcd60e51b81526004016106e690612736565b805181602001fd5b6001600160e01b031916630a85bd0160e11b149050949350505050565b3b151590565b82805461217090612c50565b90600052602060002090601f01602090048101928261219257600085556121d8565b82601f106121ab57805160ff19168380011785556121d8565b828001600101855582156121d8579182015b828111156121d85782518255916020019190600101906121bd565b506121e4929150612220565b5090565b5080546121f490612c50565b6000825580601f106122065750610cce565b601f016020900490600052602060002090810190610cce91905b5b808211156121e45760008155600101612221565b600067ffffffffffffffff8084111561225057612250612ca1565b604051601f8501601f19168101602001828111828210171561227457612274612ca1565b60405284815291508183850186101561228c57600080fd5b8484602083013760006020868301015250509392505050565b6000602082840312156122b6578081fd5b813561204481612cb7565b6000602082840312156122d2578081fd5b815161204481612cb7565b600080604083850312156122ef578081fd5b82356122fa81612cb7565b9150602083013561230a81612cb7565b809150509250929050565b600080600060608486031215612329578081fd5b833561233481612cb7565b9250602084013561234481612cb7565b929592945050506040919091013590565b6000806000806080858703121561236a578081fd5b843561237581612cb7565b9350602085013561238581612cb7565b925060408501359150606085013567ffffffffffffffff8111156123a7578182fd5b8501601f810187136123b7578182fd5b6123c687823560208401612235565b91505092959194509250565b600080604083850312156123e4578182fd5b82356123ef81612cb7565b9150602083013561230a81612ccc565b60008060408385031215612411578182fd5b823561241c81612cb7565b946020939093013593505050565b60006020828403121561243b578081fd5b815161204481612ccc565b600060208284031215612457578081fd5b5035919050565b60008060408385031215612470578182fd5b82359150602083013561230a81612cb7565b600060208284031215612493578081fd5b813561204481612cda565b6000602082840312156124af578081fd5b815161204481612cda565b600080604083850312156124cc578182fd5b82359150602083013567ffffffffffffffff8111156124e9578182fd5b8301601f810185136124f9578182fd5b61250885823560208401612235565b9150509250929050565b60008060408385031215612524578182fd5b50508035926020909101359150565b6000815180845261254b816020860160208601612c0d565b601f01601f19169290920160200192915050565b60007f416363657373436f6e74726f6c3a206163636f756e742000000000000000000082528351612597816017850160208801612c0d565b7001034b99036b4b9b9b4b733903937b6329607d1b60179184019182015283516125c8816028840160208801612c0d565b01602801949350505050565b6001600160a01b0391909116815260200190565b6001600160a01b0392831681529116602082015260400190565b6001600160a01b038581168252841660208201526040810183905260806060820181905260009061263590830184612533565b9695505050505050565b901515815260200190565b90815260200190565b6000602082526120446020830184612533565b6020808252601390820152721513d2d153881113d154d389d50811561254d5606a1b604082015260600190565b6020808252818101527f537472696e67733a20686578206c656e67746820696e73756666696369656e74604082015260600190565b6020808252601d908201527f494e434f525245435420415050524f56452044455354494e4154494f4e000000604082015260600190565b60208082526018908201527f5452414e5346455253204e4f5420524553545249435445440000000000000000604082015260600190565b60208082526032908201527f4552433732313a207472616e7366657220746f206e6f6e20455243373231526560408201527131b2b4bb32b91034b6b83632b6b2b73a32b960711b606082015260800190565b60208082526015908201527424a721a7a92922a1aa102a27a5a2a71027aba722a960591b604082015260600190565b6020808252600f908201526e2727aa102220a79026a0a720a3a2a960891b604082015260600190565b602080825260119082015270494e434f525245435420415050524f564560781b604082015260600190565b6020808252602c908201527f4552433732313a206f70657261746f7220717565727920666f72206e6f6e657860408201526b34b9ba32b73a103a37b5b2b760a11b606082015260800190565b6020808252601e908201527f544f4b454e20444f45534e275420455849535453204f52204143544956450000604082015260600190565b6020808252602a908201527f5452414e5346455220544f204e4f4e204552433732315265636569766572204960408201526926a82622a6a2a72a22a960b11b606082015260800190565b60208082526012908201527126aaa9aa1021229023a0aa22a5a2a2a822a960711b604082015260600190565b6020808252601e908201527f544f4b454e20444f45534e2754204558495354204f5220465245455a45440000604082015260600190565b6020808252601490820152731514905394d1915494c8149154d5149250d5115160621b604082015260600190565b60208082526010908201526f212620a1a5a624a9aa22a2102aa9a2a960811b604082015260600190565b60208082526022908201527f544f4b454e20444f45534e275420455849535453204f52204e4f542041435449604082015261564560f01b606082015260800190565b6020808252600c908201526b5a45524f204144445245535360a01b604082015260600190565b602080825260149082015273544f4b454e20444f45534e27542045584953545360601b604082015260600190565b60208082526023908201527f4d53472e53454e444552204e4f54204f574e4552204e4f5220474154454b45456040820152622822a960e91b606082015260800190565b6020808252601190820152701513d2d153881393d50811949151569151607a1b604082015260600190565b6020808252600f908201526e24a721a7a92922a1aa1027aba722a960891b604082015260600190565b602080825260149082015273544f4b454e20414c52454144592045584953545360601b604082015260600190565b6020808252602b908201527f4e4f54204944454e544954592e434f4d2041444d494e204e4f5220544f4b454e60408201526a1021a7a72a2927a62622a960a91b606082015260800190565b60208082526018908201527f5452414e5346455220544f205a45524f20414444524553530000000000000000604082015260600190565b6020808252602f908201527f416363657373436f6e74726f6c3a2063616e206f6e6c792072656e6f756e636560408201526e103937b632b9903337b91039b2b63360891b606082015260800190565b60008219821115612bd257612bd2612c8b565b500190565b6000816000190483118215151615612bf157612bf1612c8b565b500290565b600082821015612c0857612c08612c8b565b500390565b60005b83811015612c28578181015183820152602001612c10565b838111156108c85750506000910152565b600081612c4857612c48612c8b565b506000190190565b600281046001821680612c6457607f821691505b60208210811415612c8557634e487b7160e01b600052602260045260246000fd5b50919050565b634e487b7160e01b600052601160045260246000fd5b634e487b7160e01b600052604160045260246000fd5b6001600160a01b0381168114610cce57600080fd5b8015158114610cce57600080fd5b6001600160e01b031981168114610cce57600080fdfe3c63e605be3290ab6b04cfc46c6e1516e626d43236b034f09d7ede1d017beb0c449b0a7e0acc0a95c71947cb19fdd122b42abca9bdfbd6707ca4f1e3fdaef05ea26469706673582212208ba1494c7d57c1519d31ce9ef24595e86467601f76d02ebe9466ec883d85200964736f6c63430008000033fca69b310bd19d275687ebe00b254b0772cf7a367c3f81a9a5a433f831fdc1dc3c63e605be3290ab6b04cfc46c6e1516e626d43236b034f09d7ede1d017beb0c449b0a7e0acc0a95c71947cb19fdd122b42abca9bdfbd6707ca4f1e3fdaef05ea26469706673582212207a66ca6164256b3b02490a7e2d634c59350e8dd9c4badca413077121a1747ea664736f6c63430008000033",
  "devdoc": {
    "details": "Gateway Token Controller contract is responsible for managing Identity.com KYC gateway token set of smart contracts Contract handles multiple levels of access such as Network Authority (may represent a specific regulator body)  Gatekeepers (Identity.com network parties who can mint/burn/freeze gateway tokens) and overall system Admin who can add new Network Authorities",
    "kind": "dev",
    "methods": {
      "acceptTransfersBatch(address[])": {
        "details": "Accepts owner's transfers for specified gateway tokens",
        "params": {
          "tokens": "Gateway Token contracts address array"
        }
      },
      "addNetworkAuthorities(address,address[])": {
        "details": "Triggers to add multiple network authorities in gateway token contract. ",
        "params": {
          "authorities": "Network Authorities array",
          "token": "Gateway Token contract address"
        }
      },
      "blacklist(address)": {
        "details": "Blacklists specified `user` completely, user can't get KYC verification on any gateway token networks.",
        "params": {
          "user": "Address to blacklist."
        }
      },
      "blacklistBatch(address[])": {
        "details": "Blacklist multiple `users`, user can't get KYC verification on any gateway token networks.",
        "params": {
          "users": "User addresses to blacklist."
        }
      },
      "constructor": {
        "details": "Gateway Token Controller contract constructor.  Grants admin role to contract deployer"
      },
      "createGatekeeperNetwork(string,string,bool,address)": {
        "details": "Deploys new Gateway Token and save address at gatewayTokens address set.",
        "params": {
          "_name": "Gateway Token name",
          "_symbol": "Gateway Token symbol"
        }
      },
      "isBlacklisted(address)": {
        "details": "Checks if specified `user` blacklisted completely.  If user blacklisted gateway token clients not able to verify identity,  and gatekeepers have to burn tokens owned by blacklisted users.",
        "params": {
          "user": "Address to check."
        }
      },
      "removeNetworkAuthorities(address,address[])": {
        "details": "Triggers to remove multiple network authorities in gateway token contract. ",
        "params": {
          "authorities": "Network Authorities array",
          "token": "Gateway Token contract address"
        }
      },
      "restrictTransfersBatch(address[])": {
        "details": "Restricts owner's transfers for specified gateway tokens",
        "params": {
          "tokens": "Gateway Token contracts address array"
        }
      },
      "transferAdmin(address)": {
        "details": "Transfers Gateway Token system admin access in case Identity.com changes the main management address",
        "params": {
          "newAdmin": "Address to transfer admin role for."
        }
      }
    },
    "stateVariables": {
      "identityAdmin": {
        "details": "Triggers to get Identity.com System Admin"
      }
    },
    "version": 1
  },
  "userdoc": {
    "kind": "user",
    "methods": {
      "addNetworkAuthorities(address,address[])": {
        "notice": "Only triggered by identityAdmin"
      },
      "blacklist(address)": {
        "notice": "Once user is blacklisted there is no way to whitelist, please use this function carefully."
      },
      "blacklistBatch(address[])": {
        "notice": "Once user is blacklisted there is no way to whitelist, please use this function carefully."
      },
      "removeNetworkAuthorities(address,address[])": {
        "notice": "Only triggered by identityAdmin"
      }
    },
    "version": 1
  },
  "storageLayout": {
    "storage": [
      {
        "astId": 3348,
        "contract": "contracts/GatewayTokenController.sol:GatewayTokenController",
        "label": "gatewayTokens",
        "offset": 0,
        "slot": "0",
        "type": "t_struct(AddressSet)1372_storage"
      },
      {
        "astId": 3351,
        "contract": "contracts/GatewayTokenController.sol:GatewayTokenController",
        "label": "identityAdmin",
        "offset": 0,
        "slot": "2",
        "type": "t_address"
      },
      {
        "astId": 3355,
        "contract": "contracts/GatewayTokenController.sol:GatewayTokenController",
        "label": "_isBlacklisted",
        "offset": 0,
        "slot": "3",
        "type": "t_mapping(t_address,t_bool)"
      }
    ],
    "types": {
      "t_address": {
        "encoding": "inplace",
        "label": "address",
        "numberOfBytes": "20"
      },
      "t_array(t_bytes32)dyn_storage": {
        "base": "t_bytes32",
        "encoding": "dynamic_array",
        "label": "bytes32[]",
        "numberOfBytes": "32"
      },
      "t_bool": {
        "encoding": "inplace",
        "label": "bool",
        "numberOfBytes": "1"
      },
      "t_bytes32": {
        "encoding": "inplace",
        "label": "bytes32",
        "numberOfBytes": "32"
      },
      "t_mapping(t_address,t_bool)": {
        "encoding": "mapping",
        "key": "t_address",
        "label": "mapping(address => bool)",
        "numberOfBytes": "32",
        "value": "t_bool"
      },
      "t_mapping(t_bytes32,t_uint256)": {
        "encoding": "mapping",
        "key": "t_bytes32",
        "label": "mapping(bytes32 => uint256)",
        "numberOfBytes": "32",
        "value": "t_uint256"
      },
      "t_struct(AddressSet)1372_storage": {
        "encoding": "inplace",
        "label": "struct EnumerableSet.AddressSet",
        "members": [
          {
            "astId": 1371,
            "contract": "contracts/GatewayTokenController.sol:GatewayTokenController",
            "label": "_inner",
            "offset": 0,
            "slot": "0",
            "type": "t_struct(Set)1097_storage"
          }
        ],
        "numberOfBytes": "64"
      },
      "t_struct(Set)1097_storage": {
        "encoding": "inplace",
        "label": "struct EnumerableSet.Set",
        "members": [
          {
            "astId": 1092,
            "contract": "contracts/GatewayTokenController.sol:GatewayTokenController",
            "label": "_values",
            "offset": 0,
            "slot": "0",
            "type": "t_array(t_bytes32)dyn_storage"
          },
          {
            "astId": 1096,
            "contract": "contracts/GatewayTokenController.sol:GatewayTokenController",
            "label": "_indexes",
            "offset": 0,
            "slot": "1",
            "type": "t_mapping(t_bytes32,t_uint256)"
          }
        ],
        "numberOfBytes": "64"
      },
      "t_uint256": {
        "encoding": "inplace",
        "label": "uint256",
        "numberOfBytes": "32"
      }
    }
  }
}