{
  "address": "0x560691424bCEF5ceF4D5076C8ACA7B38B7b1f9A0",
  "abi": [
    {
      "inputs": [
        {
          "internalType": "address",
          "name": "_flagsStorage",
          "type": "address"
        }
      ],
      "stateMutability": "nonpayable",
      "type": "constructor"
    },
    {
      "anonymous": false,
      "inputs": [
        {
          "indexed": true,
          "internalType": "address",
          "name": "previousAdmin",
          "type": "address"
        },
        {
          "indexed": true,
          "internalType": "address",
          "name": "admin",
          "type": "address"
        }
      ],
      "name": "AdminTransfered",
      "type": "event"
    },
    {
      "anonymous": false,
      "inputs": [
        {
          "indexed": true,
          "internalType": "address",
          "name": "user",
          "type": "address"
        }
      ],
      "name": "Blacklisted",
      "type": "event"
    },
    {
      "anonymous": false,
      "inputs": [
        {
          "indexed": false,
          "internalType": "address[]",
          "name": "users",
          "type": "address[]"
        }
      ],
      "name": "BlacklistedBatch",
      "type": "event"
    },
    {
      "anonymous": false,
      "inputs": [
        {
          "indexed": true,
          "internalType": "address",
          "name": "previousFlagsStorage",
          "type": "address"
        },
        {
          "indexed": true,
          "internalType": "address",
          "name": "flagsStorage",
          "type": "address"
        }
      ],
      "name": "FlagsStorageUpdated",
      "type": "event"
    },
    {
      "anonymous": false,
      "inputs": [
        {
          "indexed": true,
          "internalType": "address",
          "name": "tokenAddress",
          "type": "address"
        },
        {
          "indexed": false,
          "internalType": "string",
          "name": "name",
          "type": "string"
        },
        {
          "indexed": false,
          "internalType": "string",
          "name": "symbol",
          "type": "string"
        },
        {
          "indexed": false,
          "internalType": "address",
          "name": "deployer",
          "type": "address"
        }
      ],
      "name": "GatekeeperNetworkCreated",
      "type": "event"
    },
    {
      "anonymous": false,
      "inputs": [
        {
          "indexed": false,
          "internalType": "address[]",
          "name": "tokens",
          "type": "address[]"
        },
        {
          "indexed": false,
          "internalType": "address",
          "name": "account",
          "type": "address"
        }
      ],
      "name": "TransfersAcceptedBatch",
      "type": "event"
    },
    {
      "anonymous": false,
      "inputs": [
        {
          "indexed": false,
          "internalType": "address[]",
          "name": "tokens",
          "type": "address[]"
        },
        {
          "indexed": false,
          "internalType": "address",
          "name": "account",
          "type": "address"
        }
      ],
      "name": "TransfersRestrictedBatch",
      "type": "event"
    },
    {
      "inputs": [
        {
          "internalType": "address[]",
          "name": "tokens",
          "type": "address[]"
        }
      ],
      "name": "acceptTransfersBatch",
      "outputs": [],
      "stateMutability": "nonpayable",
      "type": "function"
    },
    {
      "inputs": [
        {
          "internalType": "address",
          "name": "token",
          "type": "address"
        },
        {
          "internalType": "address[]",
          "name": "authorities",
          "type": "address[]"
        }
      ],
      "name": "addNetworkAuthorities",
      "outputs": [],
      "stateMutability": "nonpayable",
      "type": "function"
    },
    {
      "inputs": [
        {
          "internalType": "address",
          "name": "user",
          "type": "address"
        }
      ],
      "name": "blacklist",
      "outputs": [],
      "stateMutability": "nonpayable",
      "type": "function"
    },
    {
      "inputs": [
        {
          "internalType": "address[]",
          "name": "users",
          "type": "address[]"
        }
      ],
      "name": "blacklistBatch",
      "outputs": [],
      "stateMutability": "nonpayable",
      "type": "function"
    },
    {
      "inputs": [
        {
          "internalType": "string",
          "name": "_name",
          "type": "string"
        },
        {
          "internalType": "string",
          "name": "_symbol",
          "type": "string"
        },
        {
          "internalType": "bool",
          "name": "_isDAOGoverned",
          "type": "bool"
        },
        {
          "internalType": "address",
          "name": "_daoExecutor",
          "type": "address"
        },
        {
          "internalType": "address",
          "name": "trustedForwarder",
          "type": "address"
        }
      ],
      "name": "createGatekeeperNetwork",
      "outputs": [
        {
          "internalType": "address",
          "name": "tokenAddress",
          "type": "address"
        }
      ],
      "stateMutability": "nonpayable",
      "type": "function"
    },
    {
      "inputs": [],
      "name": "flagsStorage",
      "outputs": [
        {
          "internalType": "address",
          "name": "",
          "type": "address"
        }
      ],
      "stateMutability": "view",
      "type": "function"
    },
    {
      "inputs": [],
      "name": "identityAdmin",
      "outputs": [
        {
          "internalType": "address",
          "name": "",
          "type": "address"
        }
      ],
      "stateMutability": "view",
      "type": "function"
    },
    {
      "inputs": [
        {
          "internalType": "address",
          "name": "user",
          "type": "address"
        }
      ],
      "name": "isBlacklisted",
      "outputs": [
        {
          "internalType": "bool",
          "name": "",
          "type": "bool"
        }
      ],
      "stateMutability": "view",
      "type": "function"
    },
    {
      "inputs": [
        {
          "internalType": "address",
          "name": "token",
          "type": "address"
        },
        {
          "internalType": "address[]",
          "name": "authorities",
          "type": "address[]"
        }
      ],
      "name": "removeNetworkAuthorities",
      "outputs": [],
      "stateMutability": "nonpayable",
      "type": "function"
    },
    {
      "inputs": [
        {
          "internalType": "address[]",
          "name": "tokens",
          "type": "address[]"
        }
      ],
      "name": "restrictTransfersBatch",
      "outputs": [],
      "stateMutability": "nonpayable",
      "type": "function"
    },
    {
      "inputs": [
        {
          "internalType": "address",
          "name": "newAdmin",
          "type": "address"
        }
      ],
      "name": "transferAdmin",
      "outputs": [],
      "stateMutability": "nonpayable",
      "type": "function"
    }
  ],
  "transactionHash": "0xc174c65a3b520b511d2959124652bbb36643ea623ff3c91437657cd7edbba194",
  "args": [
    "0xC4ED3F939754f43555932AD2A2Ec1301d0848C07"
  ],
  "solcInputHash": "0c8e2b6cfef465a5e08daf3e99fe2723",
  "bytecode": "0x608060405234801561001057600080fd5b50604051620057573803806200575783398101604081905261003191610097565b600280546001600160a01b031916331790556001600160a01b0381166100725760405162461bcd60e51b8152600401610069906100c5565b60405180910390fd5b600380546001600160a01b0319166001600160a01b03929092169190911790556100fc565b6000602082840312156100a8578081fd5b81516001600160a01b03811681146100be578182fd5b9392505050565b6020808252601e908201527f496e636f727265637420466c61677353746f7261676520616464726573730000604082015260600190565b61564b806200010c6000396000f3fe60806040523480156200001157600080fd5b5060043610620000b85760003560e01c8063726b5771116200007b578063726b5771146200013d57806375829def14620001545780637e889537146200016b578063f2ec34501462000175578063f9f92be4146200018c578063fe575a8714620001a357620000b8565b80630dd05e5f14620000bd57806324b776c914620000d65780632d33d27a14620000ed5780633403ff1e146200010f5780635647bfa51462000126575b600080fd5b620000d4620000ce36600462000f9f565b620001c9565b005b620000d4620000e736600462000f9f565b6200035e565b620000f7620004df565b60405162000106919062001138565b60405180910390f35b620000f76200012036600462000ffd565b620004ee565b620000d46200013736600462000f4b565b620005aa565b620000d46200014e36600462000f9f565b6200085b565b620000d46200016536600462000f06565b6200095f565b620000f7620009d8565b620000d46200018636600462000f4b565b620009e7565b620000d46200019d36600462000f06565b62000c92565b620001ba620001b436600462000f06565b62000d34565b6040516200010691906200118d565b6002546001600160a01b03163314620001ff5760405162461bcd60e51b8152600401620001f6906200123f565b60405180910390fd5b60005b81518110156200031f5760008282815181106200022f57634e487b7160e01b600052603260045260246000fd5b602002602001015190506200024f81600062000d5290919063ffffffff16565b6200026e5760405162461bcd60e51b8152600401620001f690620012ee565b6000819050806001600160a01b0316637adac0e66040518163ffffffff1660e01b8152600401602060405180830381600087803b158015620002af57600080fd5b505af1158015620002c4573d6000803e3d6000fd5b505050506040513d601f19601f82011682018060405250810190620002ea919062000fde565b620003095760405162461bcd60e51b8152600401620001f690620012bf565b505080620003179062001346565b905062000202565b507f58631eee773f0fec6b0e2e8bd8eb7250c0941d22e2ac58787e3428a693745a2481336040516200035392919062001161565b60405180910390a150565b6002546001600160a01b031633146200038b5760405162461bcd60e51b8152600401620001f6906200123f565b60005b8151811015620004ab576000828281518110620003bb57634e487b7160e01b600052603260045260246000fd5b60200260200101519050620003db81600062000d5290919063ffffffff16565b620003fa5760405162461bcd60e51b8152600401620001f690620012ee565b6000819050806001600160a01b0316632185810b6040518163ffffffff1660e01b8152600401602060405180830381600087803b1580156200043b57600080fd5b505af115801562000450573d6000803e3d6000fd5b505050506040513d601f19601f8201168201806040525081019062000476919062000fde565b620004955760405162461bcd60e51b8152600401620001f690620012bf565b505080620004a39062001346565b90506200038e565b507f404f02b9c73e30734207749f2fc6f5e4d1e2fba7649223798308d3a63014f4fc81336040516200035392919062001161565b6003546001600160a01b031681565b60008585338686600360009054906101000a90046001600160a01b0316876040516200051a9062000df0565b6200052c9796959493929190620011da565b604051809103906000f08015801562000549573d6000803e3d6000fd5b5090506200055960008262000d72565b50806001600160a01b03167ff9d549554121b54eb289ca81e131436ff67c712259c89fb3c00e36d793efeece878733604051620005999392919062001198565b60405180910390a295945050505050565b620005b760008362000d52565b620005d65760405162461bcd60e51b8152600401620001f690620012ee565b8160005b8251811015620008555760008382815181106200060757634e487b7160e01b600052603260045260246000fd5b60200260200101519050826001600160a01b031663304743156040518163ffffffff1660e01b8152600401602060405180830381600087803b1580156200064d57600080fd5b505af115801562000662573d6000803e3d6000fd5b505050506040513d601f19601f8201168201806040525081019062000688919062000fde565b156200073b576000836001600160a01b031663f322c7556040518163ffffffff1660e01b8152600401602060405180830381600087803b158015620006cc57600080fd5b505af1158015620006e1573d6000803e3d6000fd5b505050506040513d601f19601f8201168201806040525081019062000707919062000f2c565b9050336001600160a01b03821614620007345760405162461bcd60e51b8152600401620001f6906200126f565b50620007de565b60405163bb909c2b60e01b81526001600160a01b0384169063bb909c2b906200076990339060040162001138565b602060405180830381600087803b1580156200078457600080fd5b505af115801562000799573d6000803e3d6000fd5b505050506040513d601f19601f82011682018060405250810190620007bf919062000fde565b620007de5760405162461bcd60e51b8152600401620001f6906200126f565b604051633746948f60e11b81526001600160a01b03841690636e8d291e906200080c90849060040162001138565b600060405180830381600087803b1580156200082757600080fd5b505af11580156200083c573d6000803e3d6000fd5b5050505050806200084d9062001346565b9050620005da565b50505050565b6002546001600160a01b03163314620008885760405162461bcd60e51b8152600401620001f6906200123f565b60005b81518110156200092d576000828281518110620008b857634e487b7160e01b600052603260045260246000fd5b6020026020010151905060006001600160a01b0316816001600160a01b03161415620008f85760405162461bcd60e51b8152600401620001f69062001299565b6001600160a01b03166000908152600460205260409020805460ff19166001179055620009258162001346565b90506200088b565b507fe1083d5cef2dbb8a2482660e37a8229667000029c2686255cef786c905cad3e2816040516200035391906200114c565b6002546001600160a01b031633146200098c5760405162461bcd60e51b8152600401620001f6906200123f565b600280546001600160a01b0319166001600160a01b03831690811790915560405133907f173de3514d8508f36ce8c81d509adcd8c8c76098400f685d3042b36f9a4160c390600090a350565b6002546001600160a01b031681565b620009f460008362000d52565b62000a135760405162461bcd60e51b8152600401620001f690620012ee565b8160005b82518110156200085557600083828151811062000a4457634e487b7160e01b600052603260045260246000fd5b60200260200101519050826001600160a01b031663304743156040518163ffffffff1660e01b8152600401602060405180830381600087803b15801562000a8a57600080fd5b505af115801562000a9f573d6000803e3d6000fd5b505050506040513d601f19601f8201168201806040525081019062000ac5919062000fde565b1562000b78576000836001600160a01b031663f322c7556040518163ffffffff1660e01b8152600401602060405180830381600087803b15801562000b0957600080fd5b505af115801562000b1e573d6000803e3d6000fd5b505050506040513d601f19601f8201168201806040525081019062000b44919062000f2c565b9050336001600160a01b0382161462000b715760405162461bcd60e51b8152600401620001f6906200126f565b5062000c1b565b60405163bb909c2b60e01b81526001600160a01b0384169063bb909c2b9062000ba690339060040162001138565b602060405180830381600087803b15801562000bc157600080fd5b505af115801562000bd6573d6000803e3d6000fd5b505050506040513d601f19601f8201168201806040525081019062000bfc919062000fde565b62000c1b5760405162461bcd60e51b8152600401620001f6906200126f565b6040516302519eb160e61b81526001600160a01b03841690639467ac409062000c4990849060040162001138565b600060405180830381600087803b15801562000c6457600080fd5b505af115801562000c79573d6000803e3d6000fd5b50505050508062000c8a9062001346565b905062000a17565b6002546001600160a01b0316331462000cbf5760405162461bcd60e51b8152600401620001f6906200123f565b6001600160a01b03811662000ce85760405162461bcd60e51b8152600401620001f69062001299565b6001600160a01b038116600081815260046020526040808220805460ff19166001179055517fffa4e6181777692565cf28528fc88fd1516ea86b56da075235fa575af6a4b8559190a250565b6001600160a01b031660009081526004602052604090205460ff1690565b600062000d69836001600160a01b03841662000d89565b90505b92915050565b600062000d69836001600160a01b03841662000da1565b60009081526001919091016020526040902054151590565b600062000daf838362000d89565b62000de75750815460018181018455600084815260208082209093018490558454848252828601909352604090209190915562000d6c565b50600062000d6c565b61426980620013ad83390190565b600082601f83011262000e0f578081fd5b8135602067ffffffffffffffff82111562000e2e5762000e2e6200136e565b80820262000e3e82820162001319565b83815282810190868401838801850189101562000e59578687fd5b8693505b8584101562000e8857803562000e738162001384565b83526001939093019291840191840162000e5d565b50979650505050505050565b600082601f83011262000ea5578081fd5b813567ffffffffffffffff81111562000ec25762000ec26200136e565b62000ed7601f8201601f191660200162001319565b81815284602083860101111562000eec578283fd5b816020850160208301379081016020019190915292915050565b60006020828403121562000f18578081fd5b813562000f258162001384565b9392505050565b60006020828403121562000f3e578081fd5b815162000f258162001384565b6000806040838503121562000f5e578081fd5b823562000f6b8162001384565b9150602083013567ffffffffffffffff81111562000f87578182fd5b62000f958582860162000dfe565b9150509250929050565b60006020828403121562000fb1578081fd5b813567ffffffffffffffff81111562000fc8578182fd5b62000fd68482850162000dfe565b949350505050565b60006020828403121562000ff0578081fd5b815162000f25816200139d565b600080600080600060a0868803121562001015578081fd5b853567ffffffffffffffff808211156200102d578283fd5b6200103b89838a0162000e94565b9650602088013591508082111562001051578283fd5b50620010608882890162000e94565b945050604086013562001073816200139d565b92506060860135620010858162001384565b91506080860135620010978162001384565b809150509295509295909350565b6000815180845260208085019450808401835b83811015620010df5781516001600160a01b031687529582019590820190600101620010b8565b509495945050505050565b60008151808452815b818110156200111157602081850181015186830182015201620010f3565b81811115620011235782602083870101525b50601f01601f19169290920160200192915050565b6001600160a01b0391909116815260200190565b60006020825262000d696020830184620010a5565b600060408252620011766040830185620010a5565b905060018060a01b03831660208301529392505050565b901515815260200190565b600060608252620011ad6060830186620010ea565b8281036020840152620011c18186620010ea565b91505060018060a01b0383166040830152949350505050565b600060e08252620011ef60e083018a620010ea565b828103602084015262001203818a620010ea565b6001600160a01b03988916604085015296151560608401525050928516608084015290841660a083015290921660c09092019190915292915050565b6020808252601690820152752727aa1024a222a72a24aa2cafa1a7a6afa0a226a4a760511b604082015260600190565b60208082526010908201526f494e434f52524543542041434345535360801b604082015260600190565b6020808252600c908201526b5a45524f204144445245535360a01b604082015260600190565b6020808252601590820152741514905394d1915494c81393d50810531313d5d151605a1b604082015260600190565b6020808252601190820152702727aa1023a0aa22aba0ac902a27a5a2a760791b604082015260600190565b60405181810167ffffffffffffffff811182821017156200133e576200133e6200136e565b604052919050565b60006000198214156200136757634e487b7160e01b81526011600452602481fd5b5060010190565b634e487b7160e01b600052604160045260246000fd5b6001600160a01b03811681146200139a57600080fd5b50565b80151581146200139a57600080fdfe60806040523480156200001157600080fd5b506040516200426938038062004269833981016040819052620000349162000628565b600080546001600160a01b0319166001600160a01b0383161790558651620000649060049060208a0190620004bf565b5085516200007a906005906020890190620004bf565b5062000085620002c8565b600680546001600160a01b039283166001600160a01b0319918216179091556007805492881660ff60a01b19909316600160a01b17909116919091179055620000ce82620002e5565b620000f260008051602062004249833981519152620000ec620002c8565b6200032f565b6007546200011a9060008051602062004249833981519152906001600160a01b03166200032f565b600754620001429060008051602062004229833981519152906001600160a01b03166200032f565b831562000276576007805460ff60a81b1916600160a81b861515021790556001600160a01b038316620001925760405162461bcd60e51b81526004016200018990620006f1565b60405180910390fd5b600880546001600160a01b0319166001600160a01b038516179055620001c860008051602062004209833981519152846200032f565b620001e660008051602062004209833981519152620000ec620002c8565b6200020160008051602062004249833981519152846200032f565b6200021c60008051602062004229833981519152846200032f565b6200024660008051602062004249833981519152600080516020620042098339815191526200033f565b6200027060008051602062004229833981519152600080516020620042098339815191526200033f565b620002bb565b6200029160008051602062004249833981519152806200033f565b620002bb60008051602062004229833981519152600080516020620042498339815191526200033f565b505050505050506200076f565b6000620002df6200039660201b62001c861760201c565b90505b90565b600280546001600160a01b0319166001600160a01b0383169081179091556040517f5e4a30f4224898dbac86adca855a5edd3b8341a3aeb2b6ff0f0b5a82c013b65a90600090a250565b6200033b8282620003d6565b5050565b60006200034c8362000463565b6000848152600160208190526040808320909101859055519192508391839186917fbd79b86ffe0ab8e8776151514217cd7cacd52c909f66475c3af44e129f0b00ff9190a4505050565b6000620003a3336200047c565b15620003b9575060131936013560601c620002e2565b620003ce6200049060201b62001cb41760201c565b9050620002e2565b620003e2828262000494565b6200033b5760008281526001602081815260408084206001600160a01b0386168552909152909120805460ff191690911790556200041f620002c8565b6001600160a01b0316816001600160a01b0316837f2f8788117e7eff1d82e926ec794901d17c78024a50270940304540a733656f0d60405160405180910390a45050565b600081815260016020819052604090912001545b919050565b6000546001600160a01b0390811691161490565b3390565b60009182526001602090815260408084206001600160a01b0393909316845291905290205460ff1690565b828054620004cd906200071c565b90600052602060002090601f016020900481019282620004f157600085556200053c565b82601f106200050c57805160ff19168380011785556200053c565b828001600101855582156200053c579182015b828111156200053c5782518255916020019190600101906200051f565b506200054a9291506200054e565b5090565b5b808211156200054a57600081556001016200054f565b80516001600160a01b03811681146200047757600080fd5b600082601f8301126200058e578081fd5b81516001600160401b0380821115620005ab57620005ab62000759565b6040516020601f8401601f1916820181018381118382101715620005d357620005d362000759565b6040528382528584018101871015620005ea578485fd5b8492505b838310156200060d5785830181015182840182015291820191620005ee565b838311156200061e57848185840101525b5095945050505050565b600080600080600080600060e0888a03121562000643578283fd5b87516001600160401b03808211156200065a578485fd5b620006688b838c016200057d565b985060208a01519150808211156200067e578485fd5b506200068d8a828b016200057d565b9650506200069e6040890162000565565b945060608801518015158114620006b3578384fd5b9350620006c36080890162000565565b9250620006d360a0890162000565565b9150620006e360c0890162000565565b905092959891949750929550565b602080825260119082015270494e434f5252454354204144445245535360781b604082015260600190565b6002810460018216806200073157607f821691505b602082108114156200075357634e487b7160e01b600052602260045260246000fd5b50919050565b634e487b7160e01b600052604160045260246000fd5b613a8a806200077f6000396000f3fe608060405234801561001057600080fd5b50600436106103d05760003560e01c80638423df79116101ff578063b88d4fde1161011a578063e985e9c5116100ad578063f62bce7d1161007c578063f62bce7d1461080c578063f77c47911461081f578063fc9ca98714610827578063ff17e2321461083a576103d0565b8063e985e9c5146107be578063f1537686146107d1578063f322c755146107e4578063f45fd0f3146107ec576103d0565b8063d5f39488116100e9578063d5f3948814610777578063d6fd31751461077f578063d7a78db814610787578063e4b50cb81461079a576103d0565b8063b88d4fde1461072b578063bb909c2b1461073e578063c87b56dd14610751578063d547741f14610764576103d0565b8063a1ac301711610192578063a647e8ec11610161578063a647e8ec146106df578063a9a32583146106f2578063ab736d4f14610705578063b4bd857914610718576103d0565b8063a1ac30171461069e578063a1e08911146106b1578063a217fddf146106c4578063a22cb465146106cc576103d0565b806391d14854116101ce57806391d14854146106685780639467ac401461067b57806395d89b411461068e5780639605f12f14610696576103d0565b80638423df791461062757806385e3f0581461062f57806387b6aef51461064257806389f698e414610655576103d0565b80634130276b116102ef5780636352211e116102825780636f7caf41116102515780636f7caf41146105fc57806370a08231146106045780637adac0e61461061757806381e9ff191461061f576103d0565b80636352211e146105b05780636623fc46146105c35780636bd27471146105d65780636e8d291e146105e9576103d0565b806351da912d116102be57806351da912d14610564578063572b6c0514610577578063598c064a1461058a578063603d01401461059d576103d0565b80634130276b1461051857806342842e0e1461052b57806342966c681461053e578063443ff4a114610551576103d0565b806323b872dd11610367578063304743151161033657806330474315146104d757806334e37b8a146104df57806336568abe146104f2578063368e633314610505576103d0565b806323b872dd14610489578063248a9ca31461049c5780632d33d27a146104bc5780632f2ff15d146104c4576103d0565b8063095ea7b3116103a3578063095ea7b314610448578063162094c41461045b57806320c5429b1461046e5780632185810b14610481576103d0565b806301ffc9a7146103d557806306fdde03146103fe5780630703130514610413578063081812fc14610428575b600080fd5b6103e86103e3366004613095565b61084d565b6040516103f591906132d4565b60405180910390f35b610406610895565b6040516103f591906132e8565b61042661042136600461313d565b610923565b005b61043b610436366004613059565b6109a4565b6040516103f59190613228565b610426610456366004612fd8565b6109e7565b6104266104693660046130e5565b610a8e565b61042661047c366004613059565b610b41565b6103e8610bcb565b610426610497366004612eee565b610d0e565b6104af6104aa366004613059565b610d46565b6040516103f591906132df565b61043b610d5c565b6104266104d2366004613071565b610d6b565b6103e8610d8f565b6104266104ed366004612e7e565b610d9f565b610426610500366004613071565b610de1565b610426610513366004612fd8565b610e27565b6103e8610526366004612e7e565b610edd565b610426610539366004612eee565b610f5d565b61042661054c366004613059565b610f78565b61042661055f366004613059565b61104c565b61042661057236600461313d565b61108b565b6103e8610585366004612e7e565b6110cb565b61042661059836600461313d565b6110df565b6104266105ab36600461315e565b61111f565b61043b6105be366004613059565b61115f565b6104266105d1366004613059565b611194565b6104266105e4366004612e7e565b611206565b6104266105f7366004612e7e565b61121e565b6104af611236565b6104af610612366004612e7e565b611248565b6103e861128c565b6104af6113ba565b6103e86113de565b61040661063d366004613059565b6113ee565b610426610650366004612e7e565b6113f9565b610426610663366004613059565b61159a565b6103e8610676366004613071565b6115d9565b610426610689366004612e7e565b611606565b61040661161e565b6103e861162b565b6104266106ac366004612e7e565b61163b565b6104af6106bf366004613059565b611653565b6104af61168d565b6104266106da366004612fab565b611692565b6104266106ed366004613003565b611760565b6103e861070036600461313d565b6117d0565b6103e8610713366004612e7e565b6117e3565b6104af610726366004613059565b6117fd565b610426610739366004612f2e565b611809565b6103e861074c366004612e7e565b611842565b61040661075f366004613059565b61185c565b610426610772366004613071565b611922565b61043b611941565b6104af611950565b610426610795366004613059565b611962565b6107ad6107a8366004613059565b6119d4565b6040516103f5959493929190613293565b6103e86107cc366004612eb6565b611ae0565b6104af6107df366004612e7e565b611b0e565b61043b611b52565b6107ff6107fa366004613059565b611b61565b6040516103f591906138b5565b61042661081a36600461315e565b611b92565b61043b611bd2565b61042661083536600461315e565b611be1565b6103e8610848366004612fd8565b611c21565b60006001600160e01b031982166380ac58cd60e01b148061087e57506001600160e01b03198216635b5e139f60e01b145b8061088d575061088d82611cb8565b90505b919050565b600480546108a290613954565b80601f01602080910402602001604051908101604052809291908181526020018280546108ce90613954565b801561091b5780601f106108f05761010080835404028352916020019161091b565b820191906000526020600020905b8154815290600101906020018083116108fe57829003601f168201915b505050505081565b61093d600080516020613a15833981519152610676611cdd565b6109625760405162461bcd60e51b81526004016109599061356d565b60405180910390fd5b600061096d8361115f565b905061097881611cec565b156109955760405162461bcd60e51b8152600401610959906135f1565b61099f8383611d6d565b505050565b60006109af82611de1565b6109cb5760405162461bcd60e51b8152600401610959906132fb565b506000908152600b60205260409020546001600160a01b031690565b60006109f28261115f565b9050806001600160a01b0316836001600160a01b03161415610a265760405162461bcd60e51b81526004016109599061335d565b806001600160a01b0316610a38611cdd565b6001600160a01b031614610a5e5760405162461bcd60e51b815260040161095990613755565b610a6781611cec565b15610a845760405162461bcd60e51b8152600401610959906135f1565b61099f8383611ec4565b610aa8600080516020613a15833981519152610676611cdd565b610ac45760405162461bcd60e51b81526004016109599061356d565b610acd82611de1565b610ae95760405162461bcd60e51b81526004016109599061371e565b6000610af48361115f565b9050610aff81611cec565b15610b1c5760405162461bcd60e51b8152600401610959906135f1565b6000838152600d602090815260409091208351610b3b92850190612d3d565b50505050565b610b5b600080516020613a15833981519152610676611cdd565b610b775760405162461bcd60e51b81526004016109599061356d565b6000818152600e602052604090819020805460ff19166002179055517fdb43aa42235c8d63908794a952603e8d43a549383d13123c3d893a3fc2e6249590610bc09083906132df565b60405180910390a150565b6000610bd56113de565b610bf15760405162461bcd60e51b815260040161095990613394565b600660009054906101000a90046001600160a01b03166001600160a01b0316637e8895376040518163ffffffff1660e01b815260040160206040518083038186803b158015610c3f57600080fd5b505afa158015610c53573d6000803e3d6000fd5b505050506040513d601f19601f82011682018060405250810190610c779190612e9a565b6001600160a01b0316336001600160a01b03161480610ca057506006546001600160a01b031633145b610cbc5760405162461bcd60e51b8152600401610959906137d6565b6007805460ff60a01b191690557f3e9a3af5b34dbcee8465c0ec9f4f535cb0e3c6a44d1179ae105ced0edbc6d92e610cf2611cdd565b604051610cff9190613228565b60405180910390a15060015b90565b610d1f610d19611cdd565b82611f32565b610d3b5760405162461bcd60e51b8152600401610959906136db565b61099f838383611fe4565b6000908152600160208190526040909120015490565b6002546001600160a01b031681565b610d7482610d46565b610d8581610d80611cdd565b612158565b61099f83836121bc565b600754600160a81b900460ff1681565b610db9600080516020613a15833981519152610676611cdd565b610dd55760405162461bcd60e51b81526004016109599061356d565b610dde81612244565b50565b610de9611cdd565b6001600160a01b0316816001600160a01b031614610e195760405162461bcd60e51b815260040161095990613858565b610e23828261228e565b5050565b610e3081612313565b610e4c5760405162461bcd60e51b81526004016109599061371e565b610e66600080516020613a15833981519152610676611cdd565b610e825760405162461bcd60e51b81526004016109599061356d565b6000610e8d8261115f565b9050826001600160a01b0316816001600160a01b031614610ec05760405162461bcd60e51b815260040161095990613755565b506001600160a01b03909116600090815260106020526040902055565b600080610ee983611b0e565b9050610ef481611de1565b610f02576000915050610890565b6000610f0d8261115f565b9050836001600160a01b0316816001600160a01b031614610f3357600092505050610890565b6000610f3e85611cec565b90508015610f525760009350505050610890565b506001949350505050565b61099f83838360405180602001604052806000815250611809565b600660009054906101000a90046001600160a01b03166001600160a01b0316637e8895376040518163ffffffff1660e01b815260040160206040518083038186803b158015610fc657600080fd5b505afa158015610fda573d6000803e3d6000fd5b505050506040513d601f19601f82011682018060405250810190610ffe9190612e9a565b6001600160a01b0316336001600160a01b0316148061102757506006546001600160a01b031633145b6110435760405162461bcd60e51b8152600401610959906137d6565b610dde81612330565b611066600080516020613a15833981519152610676611cdd565b6110825760405162461bcd60e51b81526004016109599061356d565b610dde81612461565b6110a5600080516020613a15833981519152610676611cdd565b6110c15760405162461bcd60e51b81526004016109599061356d565b610e238282612490565b6000546001600160a01b0390811691161490565b6110f9600080516020613a15833981519152610676611cdd565b6111155760405162461bcd60e51b81526004016109599061356d565b610e2382826124d6565b611139600080516020613a15833981519152610676611cdd565b6111555760405162461bcd60e51b81526004016109599061356d565b610e23828261253a565b6000818152600960205260408120546001600160a01b03168061088d5760405162461bcd60e51b81526004016109599061365d565b6111ae600080516020613a15833981519152610676611cdd565b6111ca5760405162461bcd60e51b81526004016109599061356d565b60006111d58261115f565b90506111e081611cec565b156111fd5760405162461bcd60e51b8152600401610959906135f1565b610e2382612554565b610dde600080516020613a1583398151915282610d6b565b610dde600080516020613a3583398151915282611922565b600080516020613a3583398151915281565b60006001600160a01b0382166112705760405162461bcd60e51b81526004016109599061365d565b506001600160a01b03166000908152600a602052604090205490565b60006112966113de565b156112b35760405162461bcd60e51b8152600401610959906135c3565b600660009054906101000a90046001600160a01b03166001600160a01b0316637e8895376040518163ffffffff1660e01b815260040160206040518083038186803b15801561130157600080fd5b505afa158015611315573d6000803e3d6000fd5b505050506040513d601f19601f820116820180604052508101906113399190612e9a565b6001600160a01b0316336001600160a01b0316148061136257506006546001600160a01b031633145b61137e5760405162461bcd60e51b8152600401610959906137d6565b6007805460ff60a01b1916600160a01b1790557fe4c361b3d777a0427514a30f90e63bc5728cf1365a8b12e93ae0bf113d8669be610cf2611cdd565b7ffca69b310bd19d275687ebe00b254b0772cf7a367c3f81a9a5a433f831fdc1dc81565b600754600160a01b900460ff1690565b606061088d8261185c565b600754600160a81b900460ff166114225760405162461bcd60e51b8152600401610959906136b1565b6008546001600160a01b0316331461144c5760405162461bcd60e51b81526004016109599061344c565b6001600160a01b0381166114725760405162461bcd60e51b81526004016109599061365d565b61149c7ffca69b310bd19d275687ebe00b254b0772cf7a367c3f81a9a5a433f831fdc1dc82610d6b565b6114b4600080516020613a3583398151915282610d6b565b6114cc600080516020613a1583398151915282610d6b565b6008546114f190600080516020613a15833981519152906001600160a01b0316611922565b60085461151690600080516020613a35833981519152906001600160a01b0316611922565b60085461154d907ffca69b310bd19d275687ebe00b254b0772cf7a367c3f81a9a5a433f831fdc1dc906001600160a01b0316611922565b600880546001600160a01b0319166001600160a01b0383161790556040517f0f682333a6fa3e76317e29f29765b707dba149e3449fa176a2191835342ab30f90610bc0903390849061323c565b6115b4600080516020613a15833981519152610676611cdd565b6115d05760405162461bcd60e51b81526004016109599061356d565b610dde81612609565b60008281526001602090815260408083206001600160a01b038516845290915290205460ff165b92915050565b610dde600080516020613a3583398151915282610d6b565b600580546108a290613954565b600754600160a01b900460ff1681565b610dde600080516020613a1583398151915282611922565b600061165e82612313565b61167a5760405162461bcd60e51b81526004016109599061371e565b506000908152600f602052604090205490565b600081565b61169a611cdd565b6001600160a01b0316826001600160a01b031614156116cb5760405162461bcd60e51b815260040161095990613475565b80600c60006116d8611cdd565b6001600160a01b03908116825260208083019390935260409182016000908120918716808252919093529120805460ff19169215159290921790915561171c611cdd565b6001600160a01b03167f17307eab39ab6107e8899845ad3d59bd9653f200f220920489ca2b5937696c318360405161175491906132d4565b60405180910390a35050565b8361176a81611cec565b156117875760405162461bcd60e51b8152600401610959906135f1565b6117a1600080516020613a15833981519152610676611cdd565b6117bd5760405162461bcd60e51b81526004016109599061356d565b6117c9858585856126fe565b5050505050565b60006117dc8383612835565b9392505050565b600061088d600080516020613a15833981519152836115d9565b6000806117dc8361285a565b61181a611814611cdd565b83611f32565b6118365760405162461bcd60e51b8152600401610959906136db565b610b3b8484848461286c565b600061088d600080516020613a35833981519152836115d9565b606061186782612313565b6118835760405162461bcd60e51b81526004016109599061371e565b6000828152600d60205260408120805461189c90613954565b80601f01602080910402602001604051908101604052809291908181526020018280546118c890613954565b80156119155780601f106118ea57610100808354040283529160200191611915565b820191906000526020600020905b8154815290600101906020018083116118f857829003601f168201915b5093979650505050505050565b61192b82610d46565b61193781610d80611cdd565b61099f838361228e565b6007546001600160a01b031681565b600080516020613a1583398151915281565b61197c600080516020613a15833981519152610676611cdd565b6119985760405162461bcd60e51b81526004016109599061356d565b60006119a38261115f565b90506119ae81611cec565b156119cb5760405162461bcd60e51b8152600401610959906135f1565b610e238261289f565b60008060606000806119e58661115f565b6000878152600e602052604090205490955060ff166002811115611a1957634e487b7160e01b600052602160045260246000fd5b6000878152600d60205260409020805491955090611a3690613954565b80601f0160208091040260200160405190810160405280929190818152602001828054611a6290613954565b8015611aaf5780601f10611a8457610100808354040283529160200191611aaf565b820191906000526020600020905b815481529060010190602001808311611a9257829003601f168201915b50505050509250600f6000878152602001908152602001600020549150611ad58661285a565b905091939590929450565b6001600160a01b039182166000908152600c6020908152604080832093909416825291909152205460ff1690565b60006001600160a01b038216611b365760405162461bcd60e51b81526004016109599061365d565b506001600160a01b031660009081526010602052604090205490565b6008546001600160a01b031681565b6000818152600e602052604081205460ff16600281111561088d57634e487b7160e01b600052602160045260246000fd5b611bac600080516020613a15833981519152610676611cdd565b611bc85760405162461bcd60e51b81526004016109599061356d565b610e238282612907565b6006546001600160a01b031681565b611bfb600080516020613a15833981519152610676611cdd565b611c175760405162461bcd60e51b81526004016109599061356d565b610e23828261296e565b6000611c2c82611de1565b611c3857506000611600565b6000611c438361115f565b9050836001600160a01b0316816001600160a01b031614611c68576000915050611600565b6000611c7385611cec565b90508015610f5257600092505050611600565b6000611c91336110cb565b15611ca5575060131936013560601c610d0b565b611cad611cb4565b9050610d0b565b3390565b60006001600160e01b03198216637965db0b60e01b148061088d575061088d82612988565b6000611ce7611c86565b905090565b60065460405163fe575a8760e01b81526000916001600160a01b03169063fe575a8790611d1d908590600401613228565b60206040518083038186803b158015611d3557600080fd5b505afa158015611d49573d6000803e3d6000fd5b505050506040513d601f19601f8201168201806040525081019061088d919061303d565b611d7682611de1565b611d925760405162461bcd60e51b8152600401610959906134ec565b6000828152600f6020526040908190208290555182907f1ebc57da8b3ebab98506502fbb73232ea29fbe86e4963a5a8c004810ad11190d90611dd59084906132df565b60405180910390a25050565b6000818152600f602052604081205415611e6a576000828152600960205260409020546001600160a01b031615801590611e4957506000828152600e602052604081205460ff166002811115611e4757634e487b7160e01b600052602160045260246000fd5b145b8015611e6357506000828152600f60205260409020544211155b9050610890565b6000828152600960205260409020546001600160a01b031615801590611e6357506000828152600e602052604081205460ff166002811115611ebc57634e487b7160e01b600052602160045260246000fd5b149050610890565b6000818152600b6020526040902080546001600160a01b0319166001600160a01b0384169081179091558190611ef98261115f565b6001600160a01b03167f8c5be1e5ebec7d5bd14f71427d1e84f3dd0314c0f7b2291e5b200ac8c7c3b92560405160405180910390a45050565b6000611f3d82612313565b611f595760405162461bcd60e51b8152600401610959906134a0565b6000611f648361115f565b9050806001600160a01b0316846001600160a01b03161415611f9157611f886113de565b15915050611600565b836001600160a01b0316611fa4846109a4565b6001600160a01b03161480611fbe5750611fbe8185611ae0565b80611fdc5750611fdc600080516020613a15833981519152856115d9565b915050611600565b826001600160a01b0316611ff78261115f565b6001600160a01b03161461201d5760405162461bcd60e51b81526004016109599061341d565b6001600160a01b0382166120435760405162461bcd60e51b815260040161095990613821565b61204e83838361099f565b612059600082611ec4565b6001600160a01b0383166000908152601060205260409020548114156120a0576001600160a01b038084166000908152601060205260408082208290559184168152208190555b6001600160a01b0383166000908152600a602052604081208054600192906120c99084906138fa565b90915550506001600160a01b0382166000908152600a602052604081208054600192906120f79084906138c3565b909155505060008181526009602052604080822080546001600160a01b0319166001600160a01b0386811691821790925591518493918716917fddf252ad1be2c89b69c2b068fc378daa952ba7f163c4a11628f55a4df523b3ef91a4505050565b61216282826115d9565b610e235761217a816001600160a01b031660146129a1565b6121858360206129a1565b6040516020016121969291906131b3565b60408051601f198184030181529082905262461bcd60e51b8252610959916004016132e8565b6121c682826115d9565b610e235760008281526001602081815260408084206001600160a01b0386168552909152909120805460ff19169091179055612200611cdd565b6001600160a01b0316816001600160a01b0316837f2f8788117e7eff1d82e926ec794901d17c78024a50270940304540a733656f0d60405160405180910390a45050565b600280546001600160a01b0319166001600160a01b0383169081179091556040517f5e4a30f4224898dbac86adca855a5edd3b8341a3aeb2b6ff0f0b5a82c013b65a90600090a250565b61229882826115d9565b15610e235760008281526001602090815260408083206001600160a01b03851684529091529020805460ff191690556122cf611cdd565b6001600160a01b0316816001600160a01b0316837ff6391f5c32d9c69d2a47ea670b442974b53935d1edc7fd64eb21e047a839171b60405160405180910390a45050565b6000908152600960205260409020546001600160a01b0316151590565b600061233b8261115f565b9050612348600083611ec4565b6000828152600e60209081526040808320805460ff19169055600f8252808320839055600d9091529020805461237d90613954565b15905061239b576000828152600d6020526040812061239b91612dc1565b6123a482612461565b6001600160a01b0381166000908152601060205260409020548214156123de576001600160a01b0381166000908152601060205260408120555b6001600160a01b0381166000908152600a602052604081208054600192906124079084906138fa565b909155505060008281526009602052604080822080546001600160a01b0319169055518391906001600160a01b038416907fddf252ad1be2c89b69c2b068fc378daa952ba7f163c4a11628f55a4df523b3ef908390a45050565b600081815260036020526040808220829055516000805160206139f583398151915291610bc0918491906138a7565b61249981612b53565b60008281526003602052604090819020829055516000805160206139f5833981519152906124ca90849084906138a7565b60405180910390a15050565b600082815260036020526040812054906124f08284612bfa565b90506124fb81612b53565b60008481526003602052604090819020829055516000805160206139f58339815191529061252c90869084906138a7565b60405180910390a150505050565b600082815260036020526040812054906124f08284612bfe565b61255d81612313565b6125795760405162461bcd60e51b815260040161095990613683565b60016000828152600e602052604090205460ff1660028111156125ac57634e487b7160e01b600052602160045260246000fd5b146125c95760405162461bcd60e51b8152600401610959906137ac565b6000818152600e6020526040808220805460ff191690555182917fe2babfd5e77285a3c3dbc4b25592cbe4a7a26e97a7ac63067a22ebdaa9b82add91a250565b600254604080516326bc72ad60e11b815290516000926001600160a01b031691634d78e55a916004808301926020929190829003018186803b15801561264e57600080fd5b505afa158015612662573d6000803e3d6000fd5b505050506040513d601f19601f8201168201806040525081019061268691906130cd565b6000838152600360205260408120549192506126a28284612c0c565b90508015610b3b576126b382612c10565b91506126bf8282612bfa565b91506126ca82612c10565b60008581526003602052604090819020829055519092506000805160206139f58339815191529061252c90869085906138a7565b6001600160a01b0384166127245760405162461bcd60e51b81526004016109599061365d565b61272d83612313565b1561274a5760405162461bcd60e51b81526004016109599061377e565b6001600160a01b0384166000908152600a602052604081208054600192906127739084906138c3565b9091555050600083815260096020908152604080832080546001600160a01b0319166001600160a01b038916908117909155835260109091529020546127cf576001600160a01b03841660009081526010602052604090208390555b81156127e7576000838152600f602052604090208290555b80156127f7576127f78382612490565b60405183906001600160a01b038616906000907fddf252ad1be2c89b69c2b068fc378daa952ba7f163c4a11628f55a4df523b3ef908290a450505050565b6000828152600360205260408120548161284f8285612c0c565b151595945050505050565b60009081526003602052604090205490565b612877848484611fe4565b61288384848484612c17565b610b3b5760405162461bcd60e51b815260040161095990613523565b6128a881611de1565b6128c45760405162461bcd60e51b81526004016109599061361b565b6000818152600e6020526040808220805460ff191660011790555182917f779fbee689bbd6f006ecb329206d35c7db7380f9837a8826fb8dc5cfcd3d33dd91a250565b6000828152600360205260408120549061292082612c10565b905061292f8160ff8516612bfa565b905061293a81612c10565b60008581526003602052604090819020829055519091506000805160206139f58339815191529061252c90869084906138a7565b600082815260036020526040812054906124f08284612d2a565b6001600160e01b031981166301ffc9a760e01b14919050565b606060006129b08360026138db565b6129bb9060026138c3565b67ffffffffffffffff8111156129e157634e487b7160e01b600052604160045260246000fd5b6040519080825280601f01601f191660200182016040528015612a0b576020820181803683370190505b509050600360fc1b81600081518110612a3457634e487b7160e01b600052603260045260246000fd5b60200101906001600160f81b031916908160001a905350600f60fb1b81600181518110612a7157634e487b7160e01b600052603260045260246000fd5b60200101906001600160f81b031916908160001a9053506000612a958460026138db565b612aa09060016138c3565b90505b6001811115612b34576f181899199a1a9b1b9c1cb0b131b232b360811b85600f1660108110612ae257634e487b7160e01b600052603260045260246000fd5b1a60f81b828281518110612b0657634e487b7160e01b600052603260045260246000fd5b60200101906001600160f81b031916908160001a90535060049490941c93612b2d8161393d565b9050612aa3565b5083156117dc5760405162461bcd60e51b815260040161095990613328565b6002546040805163243da6a760e01b815290516000926001600160a01b03169163243da6a7916004808301926020929190829003018186803b158015612b9857600080fd5b505afa158015612bac573d6000803e3d6000fd5b505050506040513d601f19601f82011682018060405250810190612bd091906130cd565b9050612bdc8183612bfa565b8114610e235760405162461bcd60e51b815260040161095990613599565b1790565b600160ff919091161b191690565b1690565b6000191890565b6000612c2b846001600160a01b0316612d37565b15610f5257836001600160a01b031663150b7a02612c47611cdd565b8786866040518563ffffffff1660e01b8152600401612c699493929190613256565b602060405180830381600087803b158015612c8357600080fd5b505af1925050508015612cb3575060408051601f3d908101601f19168201909252612cb0918101906130b1565b60015b612d0d573d808015612ce1576040519150601f19603f3d011682016040523d82523d6000602084013e612ce6565b606091505b508051612d055760405162461bcd60e51b8152600401610959906133cb565b805181602001fd5b6001600160e01b031916630a85bd0160e11b149050949350505050565b600160ff919091161b1790565b3b151590565b828054612d4990613954565b90600052602060002090601f016020900481019282612d6b5760008555612db1565b82601f10612d8457805160ff1916838001178555612db1565b82800160010185558215612db1579182015b82811115612db1578251825591602001919060010190612d96565b50612dbd929150612df9565b5090565b508054612dcd90613954565b6000825580601f10612ddf5750610dde565b601f016020900490600052602060002090810190610dde91905b5b80821115612dbd5760008155600101612dfa565b600067ffffffffffffffff80841115612e2957612e296139a5565b604051601f8501601f191681016020018281118282101715612e4d57612e4d6139a5565b604052848152915081838501861015612e6557600080fd5b8484602083013760006020868301015250509392505050565b600060208284031215612e8f578081fd5b81356117dc816139bb565b600060208284031215612eab578081fd5b81516117dc816139bb565b60008060408385031215612ec8578081fd5b8235612ed3816139bb565b91506020830135612ee3816139bb565b809150509250929050565b600080600060608486031215612f02578081fd5b8335612f0d816139bb565b92506020840135612f1d816139bb565b929592945050506040919091013590565b60008060008060808587031215612f43578081fd5b8435612f4e816139bb565b93506020850135612f5e816139bb565b925060408501359150606085013567ffffffffffffffff811115612f80578182fd5b8501601f81018713612f90578182fd5b612f9f87823560208401612e0e565b91505092959194509250565b60008060408385031215612fbd578182fd5b8235612fc8816139bb565b91506020830135612ee3816139d0565b60008060408385031215612fea578182fd5b8235612ff5816139bb565b946020939093013593505050565b60008060008060808587031215613018578384fd5b8435613023816139bb565b966020860135965060408601359560600135945092505050565b60006020828403121561304e578081fd5b81516117dc816139d0565b60006020828403121561306a578081fd5b5035919050565b60008060408385031215613083578182fd5b823591506020830135612ee3816139bb565b6000602082840312156130a6578081fd5b81356117dc816139de565b6000602082840312156130c2578081fd5b81516117dc816139de565b6000602082840312156130de578081fd5b5051919050565b600080604083850312156130f7578182fd5b82359150602083013567ffffffffffffffff811115613114578182fd5b8301601f81018513613124578182fd5b61313385823560208401612e0e565b9150509250929050565b6000806040838503121561314f578182fd5b50508035926020909101359150565b60008060408385031215613170578182fd5b82359150602083013560ff81168114612ee3578182fd5b6000815180845261319f816020860160208601613911565b601f01601f19169290920160200192915050565b60007f416363657373436f6e74726f6c3a206163636f756e7420000000000000000000825283516131eb816017850160208801613911565b7001034b99036b4b9b9b4b733903937b6329607d1b601791840191820152835161321c816028840160208801613911565b01602801949350505050565b6001600160a01b0391909116815260200190565b6001600160a01b0392831681529116602082015260400190565b6001600160a01b038581168252841660208201526040810183905260806060820181905260009061328990830184613187565b9695505050505050565b6001600160a01b038616815260ff8516602082015260a0604082018190526000906132c090830186613187565b606083019490945250608001529392505050565b901515815260200190565b90815260200190565b6000602082526117dc6020830184613187565b6020808252601390820152721513d2d153881113d154d389d50811561254d5606a1b604082015260600190565b6020808252818101527f537472696e67733a20686578206c656e67746820696e73756666696369656e74604082015260600190565b6020808252601d908201527f494e434f525245435420415050524f56452044455354494e4154494f4e000000604082015260600190565b60208082526018908201527f5452414e5346455253204e4f5420524553545249435445440000000000000000604082015260600190565b60208082526032908201527f4552433732313a207472616e7366657220746f206e6f6e20455243373231526560408201527131b2b4bb32b91034b6b83632b6b2b73a32b960711b606082015260800190565b60208082526015908201527424a721a7a92922a1aa102a27a5a2a71027aba722a960591b604082015260600190565b6020808252600f908201526e2727aa102220a79026a0a720a3a2a960891b604082015260600190565b602080825260119082015270494e434f525245435420415050524f564560781b604082015260600190565b6020808252602c908201527f4552433732313a206f70657261746f7220717565727920666f72206e6f6e657860408201526b34b9ba32b73a103a37b5b2b760a11b606082015260800190565b6020808252601e908201527f544f4b454e20444f45534e275420455849535453204f52204143544956450000604082015260600190565b6020808252602a908201527f5452414e5346455220544f204e4f4e204552433732315265636569766572204960408201526926a82622a6a2a72a22a960b11b606082015260800190565b60208082526012908201527126aaa9aa1021229023a0aa22a5a2a2a822a960711b604082015260600190565b60208082526010908201526f554e535550504f52544544204249545360801b604082015260600190565b6020808252601490820152731514905394d1915494c8149154d5149250d5115160621b604082015260600190565b60208082526010908201526f212620a1a5a624a9aa22a2102aa9a2a960811b604082015260600190565b60208082526022908201527f544f4b454e20444f45534e275420455849535453204f52204e4f542041435449604082015261564560f01b606082015260800190565b6020808252600c908201526b5a45524f204144445245535360a01b604082015260600190565b602080825260149082015273544f4b454e20444f45534e27542045584953545360601b604082015260600190565b60208082526010908201526f1393d508111053c811d3d5915493915160821b604082015260600190565b60208082526023908201527f4d53472e53454e444552204e4f54204f574e4552204e4f5220474154454b45456040820152622822a960e91b606082015260800190565b6020808252601d908201527f544f4b454e20444f45534e2754204558495354204f522046524f5a454e000000604082015260600190565b6020808252600f908201526e24a721a7a92922a1aa1027aba722a960891b604082015260600190565b602080825260149082015273544f4b454e20414c52454144592045584953545360601b604082015260600190565b60208082526010908201526f2a27a5a2a7102727aa10232927ad22a760811b604082015260600190565b6020808252602b908201527f4e4f54204944454e544954592e434f4d2041444d494e204e4f5220544f4b454e60408201526a1021a7a72a2927a62622a960a91b606082015260800190565b60208082526018908201527f5452414e5346455220544f205a45524f20414444524553530000000000000000604082015260600190565b6020808252602f908201527f416363657373436f6e74726f6c3a2063616e206f6e6c792072656e6f756e636560408201526e103937b632b9903337b91039b2b63360891b606082015260800190565b918252602082015260400190565b60ff91909116815260200190565b600082198211156138d6576138d661398f565b500190565b60008160001904831182151516156138f5576138f561398f565b500290565b60008282101561390c5761390c61398f565b500390565b60005b8381101561392c578181015183820152602001613914565b83811115610b3b5750506000910152565b60008161394c5761394c61398f565b506000190190565b60028104600182168061396857607f821691505b6020821081141561398957634e487b7160e01b600052602260045260246000fd5b50919050565b634e487b7160e01b600052601160045260246000fd5b634e487b7160e01b600052604160045260246000fd5b6001600160a01b0381168114610dde57600080fd5b8015158114610dde57600080fd5b6001600160e01b031981168114610dde57600080fdfe5e07998cef9cea674942c66f0ea7b0bce89ab9473ce240cc93d616c3491f8aeb3c63e605be3290ab6b04cfc46c6e1516e626d43236b034f09d7ede1d017beb0c449b0a7e0acc0a95c71947cb19fdd122b42abca9bdfbd6707ca4f1e3fdaef05ea2646970667358221220155e6e1c64dbdd73e170a495028f0bd129a0c7ba5e25d7f87ec182273154ea9164736f6c63430008000033fca69b310bd19d275687ebe00b254b0772cf7a367c3f81a9a5a433f831fdc1dc3c63e605be3290ab6b04cfc46c6e1516e626d43236b034f09d7ede1d017beb0c449b0a7e0acc0a95c71947cb19fdd122b42abca9bdfbd6707ca4f1e3fdaef05ea2646970667358221220d2eba78807c725aec16e4d8817c144decc388ef8635e44a726e0a1287d19166964736f6c63430008000033",
  "devdoc": {
    "details": "Gateway Token Controller contract is responsible for managing Identity.com KYC gateway token set of smart contracts Contract handles multiple levels of access such as Network Authority (may represent a specific regulator body)  Gatekeepers (Identity.com network parties who can mint/burn/freeze gateway tokens) and overall system Admin who can add new Network Authorities",
    "kind": "dev",
    "methods": {
      "acceptTransfersBatch(address[])": {
        "details": "Accepts owner's transfers for specified gateway tokens",
        "params": {
          "tokens": "Gateway Token contracts address array"
        }
      },
      "addNetworkAuthorities(address,address[])": {
        "details": "Triggers to add multiple network authorities in gateway token contract. ",
        "params": {
          "authorities": "Network Authorities array",
          "token": "Gateway Token contract address"
        }
      },
      "blacklist(address)": {
        "details": "Blacklists specified `user` completely, user can't get KYC verification on any gateway token networks.",
        "params": {
          "user": "Address to blacklist."
        }
      },
      "blacklistBatch(address[])": {
        "details": "Blacklist multiple `users`, user can't get KYC verification on any gateway token networks.",
        "params": {
          "users": "User addresses to blacklist."
        }
      },
      "constructor": {
        "details": "Gateway Token Controller contract constructor.  Grants admin role to contract deployer"
      },
      "createGatekeeperNetwork(string,string,bool,address,address)": {
        "details": "Deploys new Gateway Token and save address at gatewayTokens address set.",
        "params": {
          "_name": "Gateway Token name",
          "_symbol": "Gateway Token symbol"
        }
      },
      "isBlacklisted(address)": {
        "details": "Checks if specified `user` blacklisted completely.  If user blacklisted gateway token clients not able to verify identity,  and gatekeepers have to burn tokens owned by blacklisted users.",
        "params": {
          "user": "Address to check."
        }
      },
      "removeNetworkAuthorities(address,address[])": {
        "details": "Triggers to remove multiple network authorities in gateway token contract. ",
        "params": {
          "authorities": "Network Authorities array",
          "token": "Gateway Token contract address"
        }
      },
      "restrictTransfersBatch(address[])": {
        "details": "Restricts owner's transfers for specified gateway tokens",
        "params": {
          "tokens": "Gateway Token contracts address array"
        }
      },
      "transferAdmin(address)": {
        "details": "Transfers Gateway Token system admin access in case Identity.com changes the main management address",
        "params": {
          "newAdmin": "Address to transfer admin role for."
        }
      }
    },
    "stateVariables": {
      "identityAdmin": {
        "details": "Triggers to get Identity.com System Admin"
      }
    },
    "version": 1
  },
  "userdoc": {
    "kind": "user",
    "methods": {
      "addNetworkAuthorities(address,address[])": {
        "notice": "Only triggered by identityAdmin"
      },
      "blacklist(address)": {
        "notice": "Once user is blacklisted there is no way to whitelist, please use this function carefully."
      },
      "blacklistBatch(address[])": {
        "notice": "Once user is blacklisted there is no way to whitelist, please use this function carefully."
      },
      "removeNetworkAuthorities(address,address[])": {
        "notice": "Only triggered by identityAdmin"
      }
    },
    "version": 1
  },
  "storageLayout": {
    "storage": [
      {
        "astId": 4336,
        "contract": "contracts/GatewayTokenController.sol:GatewayTokenController",
        "label": "gatewayTokens",
        "offset": 0,
        "slot": "0",
        "type": "t_struct(AddressSet)1487_storage"
      },
      {
        "astId": 4339,
        "contract": "contracts/GatewayTokenController.sol:GatewayTokenController",
        "label": "identityAdmin",
        "offset": 0,
        "slot": "2",
        "type": "t_address"
      },
      {
        "astId": 4341,
        "contract": "contracts/GatewayTokenController.sol:GatewayTokenController",
        "label": "flagsStorage",
        "offset": 0,
        "slot": "3",
        "type": "t_address"
      },
      {
        "astId": 4345,
        "contract": "contracts/GatewayTokenController.sol:GatewayTokenController",
        "label": "_isBlacklisted",
        "offset": 0,
        "slot": "4",
        "type": "t_mapping(t_address,t_bool)"
      }
    ],
    "types": {
      "t_address": {
        "encoding": "inplace",
        "label": "address",
        "numberOfBytes": "20"
      },
      "t_array(t_bytes32)dyn_storage": {
        "base": "t_bytes32",
        "encoding": "dynamic_array",
        "label": "bytes32[]",
        "numberOfBytes": "32"
      },
      "t_bool": {
        "encoding": "inplace",
        "label": "bool",
        "numberOfBytes": "1"
      },
      "t_bytes32": {
        "encoding": "inplace",
        "label": "bytes32",
        "numberOfBytes": "32"
      },
      "t_mapping(t_address,t_bool)": {
        "encoding": "mapping",
        "key": "t_address",
        "label": "mapping(address => bool)",
        "numberOfBytes": "32",
        "value": "t_bool"
      },
      "t_mapping(t_bytes32,t_uint256)": {
        "encoding": "mapping",
        "key": "t_bytes32",
        "label": "mapping(bytes32 => uint256)",
        "numberOfBytes": "32",
        "value": "t_uint256"
      },
      "t_struct(AddressSet)1487_storage": {
        "encoding": "inplace",
        "label": "struct EnumerableSet.AddressSet",
        "members": [
          {
            "astId": 1486,
            "contract": "contracts/GatewayTokenController.sol:GatewayTokenController",
            "label": "_inner",
            "offset": 0,
            "slot": "0",
            "type": "t_struct(Set)1186_storage"
          }
        ],
        "numberOfBytes": "64"
      },
      "t_struct(Set)1186_storage": {
        "encoding": "inplace",
        "label": "struct EnumerableSet.Set",
        "members": [
          {
            "astId": 1181,
            "contract": "contracts/GatewayTokenController.sol:GatewayTokenController",
            "label": "_values",
            "offset": 0,
            "slot": "0",
            "type": "t_array(t_bytes32)dyn_storage"
          },
          {
            "astId": 1185,
            "contract": "contracts/GatewayTokenController.sol:GatewayTokenController",
            "label": "_indexes",
            "offset": 0,
            "slot": "1",
            "type": "t_mapping(t_bytes32,t_uint256)"
          }
        ],
        "numberOfBytes": "64"
      },
      "t_uint256": {
        "encoding": "inplace",
        "label": "uint256",
        "numberOfBytes": "32"
      }
    }
  }
}