{
  "address": "0xbCE6a512D887aFc1eaF4Df7754BD13923e2A793F",
  "abi": [
    {
      "inputs": [],
      "stateMutability": "nonpayable",
      "type": "constructor"
    },
    {
      "anonymous": false,
      "inputs": [
        {
          "indexed": true,
          "internalType": "address",
          "name": "previousAdmin",
          "type": "address"
        },
        {
          "indexed": true,
          "internalType": "address",
          "name": "admin",
          "type": "address"
        }
      ],
      "name": "AdminTransfered",
      "type": "event"
    },
    {
      "anonymous": false,
      "inputs": [
        {
          "indexed": true,
          "internalType": "address",
          "name": "user",
          "type": "address"
        }
      ],
      "name": "Blacklisted",
      "type": "event"
    },
    {
      "anonymous": false,
      "inputs": [
        {
          "indexed": false,
          "internalType": "address[]",
          "name": "users",
          "type": "address[]"
        }
      ],
      "name": "BlacklistedBatch",
      "type": "event"
    },
    {
      "anonymous": false,
      "inputs": [
        {
          "indexed": true,
          "internalType": "address",
          "name": "tokenAddress",
          "type": "address"
        },
        {
          "indexed": false,
          "internalType": "string",
          "name": "name",
          "type": "string"
        },
        {
          "indexed": false,
          "internalType": "string",
          "name": "symbol",
          "type": "string"
        },
        {
          "indexed": false,
          "internalType": "address",
          "name": "deployer",
          "type": "address"
        }
      ],
      "name": "GatekeeperNetworkCreated",
      "type": "event"
    },
    {
      "anonymous": false,
      "inputs": [
        {
          "indexed": false,
          "internalType": "address[]",
          "name": "tokens",
          "type": "address[]"
        },
        {
          "indexed": false,
          "internalType": "address",
          "name": "account",
          "type": "address"
        }
      ],
      "name": "TransfersAcceptedBatch",
      "type": "event"
    },
    {
      "anonymous": false,
      "inputs": [
        {
          "indexed": false,
          "internalType": "address[]",
          "name": "tokens",
          "type": "address[]"
        },
        {
          "indexed": false,
          "internalType": "address",
          "name": "account",
          "type": "address"
        }
      ],
      "name": "TransfersRestrictedBatch",
      "type": "event"
    },
    {
      "inputs": [
        {
          "internalType": "address[]",
          "name": "tokens",
          "type": "address[]"
        }
      ],
      "name": "acceptTransfersBatch",
      "outputs": [],
      "stateMutability": "nonpayable",
      "type": "function"
    },
    {
      "inputs": [
        {
          "internalType": "address",
          "name": "token",
          "type": "address"
        },
        {
          "internalType": "address[]",
          "name": "authorities",
          "type": "address[]"
        }
      ],
      "name": "addNetworkAuthorities",
      "outputs": [],
      "stateMutability": "nonpayable",
      "type": "function"
    },
    {
      "inputs": [
        {
          "internalType": "address",
          "name": "user",
          "type": "address"
        }
      ],
      "name": "blacklist",
      "outputs": [],
      "stateMutability": "nonpayable",
      "type": "function"
    },
    {
      "inputs": [
        {
          "internalType": "address[]",
          "name": "users",
          "type": "address[]"
        }
      ],
      "name": "blacklistBatch",
      "outputs": [],
      "stateMutability": "nonpayable",
      "type": "function"
    },
    {
      "inputs": [
        {
          "internalType": "string",
          "name": "_name",
          "type": "string"
        },
        {
          "internalType": "string",
          "name": "_symbol",
          "type": "string"
        },
        {
          "internalType": "bool",
          "name": "_isDAOGoverned",
          "type": "bool"
        },
        {
          "internalType": "address",
          "name": "_daoExecutor",
          "type": "address"
        },
        {
          "internalType": "address",
          "name": "trustedForwarder",
          "type": "address"
        }
      ],
      "name": "createGatekeeperNetwork",
      "outputs": [
        {
          "internalType": "address",
          "name": "tokenAddress",
          "type": "address"
        }
      ],
      "stateMutability": "nonpayable",
      "type": "function"
    },
    {
      "inputs": [],
      "name": "identityAdmin",
      "outputs": [
        {
          "internalType": "address",
          "name": "",
          "type": "address"
        }
      ],
      "stateMutability": "view",
      "type": "function"
    },
    {
      "inputs": [
        {
          "internalType": "address",
          "name": "user",
          "type": "address"
        }
      ],
      "name": "isBlacklisted",
      "outputs": [
        {
          "internalType": "bool",
          "name": "",
          "type": "bool"
        }
      ],
      "stateMutability": "view",
      "type": "function"
    },
    {
      "inputs": [
        {
          "internalType": "address",
          "name": "token",
          "type": "address"
        },
        {
          "internalType": "address[]",
          "name": "authorities",
          "type": "address[]"
        }
      ],
      "name": "removeNetworkAuthorities",
      "outputs": [],
      "stateMutability": "nonpayable",
      "type": "function"
    },
    {
      "inputs": [
        {
          "internalType": "address[]",
          "name": "tokens",
          "type": "address[]"
        }
      ],
      "name": "restrictTransfersBatch",
      "outputs": [],
      "stateMutability": "nonpayable",
      "type": "function"
    },
    {
      "inputs": [
        {
          "internalType": "address",
          "name": "newAdmin",
          "type": "address"
        }
      ],
      "name": "transferAdmin",
      "outputs": [],
      "stateMutability": "nonpayable",
      "type": "function"
    }
  ],
  "transactionHash": "0x7076f80dd4815b2c3295badc4c6a799975f54768d262cfc566b1c3b395d6d799",
  "args": [],
  "solcInputHash": "e324b527291b0e7915e8a7ddbdb7f46d",
  "bytecode": "0x608060405234801561001057600080fd5b50600280546001600160a01b03191633179055614b17806100326000396000f3fe60806040523480156200001157600080fd5b5060043610620000ac5760003560e01c806375829def116200006f57806375829def146200013e5780637e8895371462000155578063f2ec3450146200015f578063f9f92be41462000176578063fe575a87146200018d57620000ac565b80630dd05e5f14620000b157806324b776c914620000ca5780633403ff1e14620000e15780635647bfa51462000110578063726b57711462000127575b600080fd5b620000c8620000c236600462000f63565b620001b3565b005b620000c8620000db36600462000f63565b62000348565b620000f8620000f236600462000fc1565b620004c9565b604051620001079190620010fc565b60405180910390f35b620000c86200012136600462000f0f565b6200056e565b620000c86200013836600462000f63565b6200081f565b620000c86200014f36600462000eca565b62000923565b620000f86200099c565b620000c86200017036600462000f0f565b620009ab565b620000c86200018736600462000eca565b62000c56565b620001a46200019e36600462000eca565b62000cf8565b60405162000107919062001151565b6002546001600160a01b03163314620001e95760405162461bcd60e51b8152600401620001e090620011fb565b60405180910390fd5b60005b8151811015620003095760008282815181106200021957634e487b7160e01b600052603260045260246000fd5b602002602001015190506200023981600062000d1690919063ffffffff16565b620002585760405162461bcd60e51b8152600401620001e090620012aa565b6000819050806001600160a01b0316637adac0e66040518163ffffffff1660e01b8152600401602060405180830381600087803b1580156200029957600080fd5b505af1158015620002ae573d6000803e3d6000fd5b505050506040513d601f19601f82011682018060405250810190620002d4919062000fa2565b620002f35760405162461bcd60e51b8152600401620001e0906200127b565b505080620003019062001302565b9050620001ec565b507f58631eee773f0fec6b0e2e8bd8eb7250c0941d22e2ac58787e3428a693745a2481336040516200033d92919062001125565b60405180910390a150565b6002546001600160a01b03163314620003755760405162461bcd60e51b8152600401620001e090620011fb565b60005b815181101562000495576000828281518110620003a557634e487b7160e01b600052603260045260246000fd5b60200260200101519050620003c581600062000d1690919063ffffffff16565b620003e45760405162461bcd60e51b8152600401620001e090620012aa565b6000819050806001600160a01b0316632185810b6040518163ffffffff1660e01b8152600401602060405180830381600087803b1580156200042557600080fd5b505af11580156200043a573d6000803e3d6000fd5b505050506040513d601f19601f8201168201806040525081019062000460919062000fa2565b6200047f5760405162461bcd60e51b8152600401620001e0906200127b565b5050806200048d9062001302565b905062000378565b507f404f02b9c73e30734207749f2fc6f5e4d1e2fba7649223798308d3a63014f4fc81336040516200033d92919062001125565b6000858533868686604051620004df9062000db4565b620004f0969594939291906200119e565b604051809103906000f0801580156200050d573d6000803e3d6000fd5b5090506200051d60008262000d36565b50806001600160a01b03167ff9d549554121b54eb289ca81e131436ff67c712259c89fb3c00e36d793efeece8787336040516200055d939291906200115c565b60405180910390a295945050505050565b6200057b60008362000d16565b6200059a5760405162461bcd60e51b8152600401620001e090620012aa565b8160005b825181101562000819576000838281518110620005cb57634e487b7160e01b600052603260045260246000fd5b60200260200101519050826001600160a01b031663304743156040518163ffffffff1660e01b8152600401602060405180830381600087803b1580156200061157600080fd5b505af115801562000626573d6000803e3d6000fd5b505050506040513d601f19601f820116820180604052508101906200064c919062000fa2565b15620006ff576000836001600160a01b031663f322c7556040518163ffffffff1660e01b8152600401602060405180830381600087803b1580156200069057600080fd5b505af1158015620006a5573d6000803e3d6000fd5b505050506040513d601f19601f82011682018060405250810190620006cb919062000ef0565b9050336001600160a01b03821614620006f85760405162461bcd60e51b8152600401620001e0906200122b565b50620007a2565b60405163bb909c2b60e01b81526001600160a01b0384169063bb909c2b906200072d903390600401620010fc565b602060405180830381600087803b1580156200074857600080fd5b505af11580156200075d573d6000803e3d6000fd5b505050506040513d601f19601f8201168201806040525081019062000783919062000fa2565b620007a25760405162461bcd60e51b8152600401620001e0906200122b565b604051633746948f60e11b81526001600160a01b03841690636e8d291e90620007d0908490600401620010fc565b600060405180830381600087803b158015620007eb57600080fd5b505af115801562000800573d6000803e3d6000fd5b505050505080620008119062001302565b90506200059e565b50505050565b6002546001600160a01b031633146200084c5760405162461bcd60e51b8152600401620001e090620011fb565b60005b8151811015620008f15760008282815181106200087c57634e487b7160e01b600052603260045260246000fd5b6020026020010151905060006001600160a01b0316816001600160a01b03161415620008bc5760405162461bcd60e51b8152600401620001e09062001255565b6001600160a01b03166000908152600360205260409020805460ff19166001179055620008e98162001302565b90506200084f565b507fe1083d5cef2dbb8a2482660e37a8229667000029c2686255cef786c905cad3e2816040516200033d919062001110565b6002546001600160a01b03163314620009505760405162461bcd60e51b8152600401620001e090620011fb565b600280546001600160a01b0319166001600160a01b03831690811790915560405133907f173de3514d8508f36ce8c81d509adcd8c8c76098400f685d3042b36f9a4160c390600090a350565b6002546001600160a01b031681565b620009b860008362000d16565b620009d75760405162461bcd60e51b8152600401620001e090620012aa565b8160005b82518110156200081957600083828151811062000a0857634e487b7160e01b600052603260045260246000fd5b60200260200101519050826001600160a01b031663304743156040518163ffffffff1660e01b8152600401602060405180830381600087803b15801562000a4e57600080fd5b505af115801562000a63573d6000803e3d6000fd5b505050506040513d601f19601f8201168201806040525081019062000a89919062000fa2565b1562000b3c576000836001600160a01b031663f322c7556040518163ffffffff1660e01b8152600401602060405180830381600087803b15801562000acd57600080fd5b505af115801562000ae2573d6000803e3d6000fd5b505050506040513d601f19601f8201168201806040525081019062000b08919062000ef0565b9050336001600160a01b0382161462000b355760405162461bcd60e51b8152600401620001e0906200122b565b5062000bdf565b60405163bb909c2b60e01b81526001600160a01b0384169063bb909c2b9062000b6a903390600401620010fc565b602060405180830381600087803b15801562000b8557600080fd5b505af115801562000b9a573d6000803e3d6000fd5b505050506040513d601f19601f8201168201806040525081019062000bc0919062000fa2565b62000bdf5760405162461bcd60e51b8152600401620001e0906200122b565b6040516302519eb160e61b81526001600160a01b03841690639467ac409062000c0d908490600401620010fc565b600060405180830381600087803b15801562000c2857600080fd5b505af115801562000c3d573d6000803e3d6000fd5b50505050508062000c4e9062001302565b9050620009db565b6002546001600160a01b0316331462000c835760405162461bcd60e51b8152600401620001e090620011fb565b6001600160a01b03811662000cac5760405162461bcd60e51b8152600401620001e09062001255565b6001600160a01b038116600081815260036020526040808220805460ff19166001179055517fffa4e6181777692565cf28528fc88fd1516ea86b56da075235fa575af6a4b8559190a250565b6001600160a01b031660009081526003602052604090205460ff1690565b600062000d2d836001600160a01b03841662000d4d565b90505b92915050565b600062000d2d836001600160a01b03841662000d65565b60009081526001919091016020526040902054151590565b600062000d73838362000d4d565b62000dab5750815460018181018455600084815260208082209093018490558454848252828601909352604090209190915562000d30565b50600062000d30565b613779806200136983390190565b600082601f83011262000dd3578081fd5b8135602067ffffffffffffffff82111562000df25762000df26200132a565b80820262000e02828201620012d5565b83815282810190868401838801850189101562000e1d578687fd5b8693505b8584101562000e4c57803562000e378162001340565b83526001939093019291840191840162000e21565b50979650505050505050565b600082601f83011262000e69578081fd5b813567ffffffffffffffff81111562000e865762000e866200132a565b62000e9b601f8201601f1916602001620012d5565b81815284602083860101111562000eb0578283fd5b816020850160208301379081016020019190915292915050565b60006020828403121562000edc578081fd5b813562000ee98162001340565b9392505050565b60006020828403121562000f02578081fd5b815162000ee98162001340565b6000806040838503121562000f22578081fd5b823562000f2f8162001340565b9150602083013567ffffffffffffffff81111562000f4b578182fd5b62000f598582860162000dc2565b9150509250929050565b60006020828403121562000f75578081fd5b813567ffffffffffffffff81111562000f8c578182fd5b62000f9a8482850162000dc2565b949350505050565b60006020828403121562000fb4578081fd5b815162000ee98162001359565b600080600080600060a0868803121562000fd9578081fd5b853567ffffffffffffffff8082111562000ff1578283fd5b62000fff89838a0162000e58565b9650602088013591508082111562001015578283fd5b50620010248882890162000e58565b9450506040860135620010378162001359565b92506060860135620010498162001340565b915060808601356200105b8162001340565b809150509295509295909350565b6000815180845260208085019450808401835b83811015620010a35781516001600160a01b0316875295820195908201906001016200107c565b509495945050505050565b60008151808452815b81811015620010d557602081850181015186830182015201620010b7565b81811115620010e75782602083870101525b50601f01601f19169290920160200192915050565b6001600160a01b0391909116815260200190565b60006020825262000d2d602083018462001069565b6000604082526200113a604083018562001069565b905060018060a01b03831660208301529392505050565b901515815260200190565b600060608252620011716060830186620010ae565b8281036020840152620011858186620010ae565b91505060018060a01b0383166040830152949350505050565b600060c08252620011b360c0830189620010ae565b8281036020840152620011c78189620010ae565b6001600160a01b03978816604085015295151560608401525050918416608083015290921660a09092019190915292915050565b6020808252601690820152752727aa1024a222a72a24aa2cafa1a7a6afa0a226a4a760511b604082015260600190565b60208082526010908201526f494e434f52524543542041434345535360801b604082015260600190565b6020808252600c908201526b5a45524f204144445245535360a01b604082015260600190565b6020808252601590820152741514905394d1915494c81393d50810531313d5d151605a1b604082015260600190565b6020808252601190820152702727aa1023a0aa22aba0ac902a27a5a2a760791b604082015260600190565b60405181810167ffffffffffffffff81118282101715620012fa57620012fa6200132a565b604052919050565b60006000198214156200132357634e487b7160e01b81526011600452602481fd5b5060010190565b634e487b7160e01b600052604160045260246000fd5b6001600160a01b03811681146200135657600080fd5b50565b80151581146200135657600080fdfe60806040523480156200001157600080fd5b5060405162003779380380620037798339810160408190526200003491620005d2565b600080546001600160a01b0319166001600160a01b03831617905585516200006490600290602089019062000469565b5084516200007a90600390602088019062000469565b5062000085620002bc565b600480546001600160a01b039283166001600160a01b0319918216179091556005805492871660ff60a01b19909316600160a01b17909116919091179055620000e760008051602062003759833981519152620000e1620002bc565b620002d9565b6005546200010f9060008051602062003759833981519152906001600160a01b0316620002d9565b600554620001379060008051602062003739833981519152906001600160a01b0316620002d9565b82156200026b576005805460ff60a81b1916600160a81b851515021790556001600160a01b038216620001875760405162461bcd60e51b81526004016200017e9062000687565b60405180910390fd5b600680546001600160a01b0319166001600160a01b038416179055620001bd6000805160206200371983398151915283620002d9565b620001db60008051602062003719833981519152620000e1620002bc565b620001f66000805160206200375983398151915283620002d9565b620002116000805160206200373983398151915283620002d9565b6200023b6000805160206200375983398151915260008051602062003719833981519152620002e9565b620002656000805160206200373983398151915260008051602062003719833981519152620002e9565b620002b0565b620002866000805160206200375983398151915280620002e9565b620002b06000805160206200373983398151915260008051602062003759833981519152620002e9565b50505050505062000705565b6000620002d36200034060201b620017211760201c565b90505b90565b620002e5828262000380565b5050565b6000620002f6836200040d565b6000848152600160208190526040808320909101859055519192508391839186917fbd79b86ffe0ab8e8776151514217cd7cacd52c909f66475c3af44e129f0b00ff9190a4505050565b60006200034d3362000426565b1562000363575060131936013560601c620002d6565b620003786200043a60201b6200174f1760201c565b9050620002d6565b6200038c82826200043e565b620002e55760008281526001602081815260408084206001600160a01b0386168552909152909120805460ff19169091179055620003c9620002bc565b6001600160a01b0316816001600160a01b0316837f2f8788117e7eff1d82e926ec794901d17c78024a50270940304540a733656f0d60405160405180910390a45050565b600081815260016020819052604090912001545b919050565b6000546001600160a01b0390811691161490565b3390565b60009182526001602090815260408084206001600160a01b0393909316845291905290205460ff1690565b8280546200047790620006b2565b90600052602060002090601f0160209004810192826200049b5760008555620004e6565b82601f10620004b657805160ff1916838001178555620004e6565b82800160010185558215620004e6579182015b82811115620004e6578251825591602001919060010190620004c9565b50620004f4929150620004f8565b5090565b5b80821115620004f45760008155600101620004f9565b80516001600160a01b03811681146200042157600080fd5b600082601f83011262000538578081fd5b81516001600160401b0380821115620005555762000555620006ef565b6040516020601f8401601f19168201810183811183821017156200057d576200057d620006ef565b604052838252858401810187101562000594578485fd5b8492505b83831015620005b7578583018101518284018201529182019162000598565b83831115620005c857848185840101525b5095945050505050565b60008060008060008060c08789031215620005eb578182fd5b86516001600160401b038082111562000602578384fd5b620006108a838b0162000527565b9750602089015191508082111562000626578384fd5b506200063589828a0162000527565b95505062000646604088016200050f565b9350606087015180151581146200065b578283fd5b92506200066b608088016200050f565b91506200067b60a088016200050f565b90509295509295509295565b602080825260119082015270494e434f5252454354204144445245535360781b604082015260600190565b600281046001821680620006c757607f821691505b60208210811415620006e957634e487b7160e01b600052602260045260246000fd5b50919050565b634e487b7160e01b600052604160045260246000fd5b61300480620007156000396000f3fe608060405234801561001057600080fd5b50600436106102f15760003560e01c80637adac0e61161019d578063b88d4fde116100e9578063d7a78db8116100a2578063f15376861161007c578063f15376861461063e578063f322c75514610651578063f77c479114610659578063ff17e23214610661576102f1565b8063d7a78db8146105f5578063e4b50cb814610608578063e985e9c51461062b576102f1565b8063b88d4fde14610599578063bb909c2b146105ac578063c87b56dd146105bf578063d547741f146105d2578063d5f39488146105e5578063d6fd3175146105ed576102f1565b80639467ac4011610156578063a1ac301711610130578063a1ac301714610558578063a1e089111461056b578063a217fddf1461057e578063a22cb46514610586576102f1565b80639467ac401461053557806395d89b41146105485780639605f12f14610550576102f1565b80637adac0e6146104e457806381e9ff19146104ec5780638423df79146104f457806385e3f058146104fc57806387b6aef51461050f57806391d1485414610522576102f1565b8063368e63331161025c5780636352211e116102155780636bd27471116101ef5780636bd27471146104a35780636e8d291e146104b65780636f7caf41146104c957806370a08231146104d1576102f1565b80636352211e1461046a5780636623fc461461047d57806369ccdf3214610490576102f1565b8063368e6333146103f857806340c10f191461040b5780634130276b1461041e57806342842e0e1461043157806342966c6814610444578063572b6c0514610457576102f1565b80632185810b116102ae5780632185810b1461038f57806323b872dd14610397578063248a9ca3146103aa5780632f2ff15d146103ca57806330474315146103dd57806336568abe146103e5576102f1565b806301ffc9a7146102f657806306fdde031461031f5780630703130514610334578063081812fc14610349578063095ea7b314610369578063162094c41461037c575b600080fd5b6103096103043660046126e3565b610674565b60405161031691906128dd565b60405180910390f35b6103276106bc565b60405161031691906128f1565b610347610342366004612773565b61074a565b005b61035c6103573660046126a7565b6107cb565b6040516103169190612835565b61034761037736600461262c565b61080e565b61034761038a36600461271b565b6108b5565b610309610968565b6103476103a5366004612542565b610a9f565b6103bd6103b83660046126a7565b610ad7565b60405161031691906128e8565b6103476103d83660046126bf565b610aed565b610309610b11565b6103476103f33660046126bf565b610b21565b61034761040636600461262c565b610b67565b61034761041936600461262c565b610c1d565b61030961042c3660046124d2565b610c84565b61034761043f366004612542565b610d04565b6103476104523660046126a7565b610d1f565b6103096104653660046124d2565b610d61565b61035c6104783660046126a7565b610d75565b61034761048b3660046126a7565b610daa565b61034761049e366004612657565b610e1c565b6103476104b13660046124d2565b610e97565b6103476104c43660046124d2565b610eaf565b6103bd610ec7565b6103bd6104df3660046124d2565b610ed9565b610309610f1d565b6103bd61103f565b610309611063565b61032761050a3660046126a7565b611073565b61034761051d3660046124d2565b61107e565b6103096105303660046126bf565b611201565b6103476105433660046124d2565b61122e565b610327611246565b610309611253565b6103476105663660046124d2565b611263565b6103bd6105793660046126a7565b61127b565b6103bd6112b5565b6103476105943660046125ff565b6112ba565b6103476105a7366004612582565b611388565b6103096105ba3660046124d2565b6113c1565b6103276105cd3660046126a7565b6113db565b6103476105e03660046126bf565b6114a1565b61035c6114c0565b6103bd6114cf565b6103476106033660046126a7565b6114e1565b61061b6106163660046126a7565b611553565b60405161031694939291906128a0565b61030961063936600461250a565b61162c565b6103bd61064c3660046124d2565b61165a565b61035c61169e565b61035c6116ad565b61030961066f36600461262c565b6116bc565b60006001600160e01b031982166380ac58cd60e01b14806106a557506001600160e01b03198216635b5e139f60e01b145b806106b457506106b482611753565b90505b919050565b600280546106c990612eee565b80601f01602080910402602001604051908101604052809291908181526020018280546106f590612eee565b80156107425780601f1061071757610100808354040283529160200191610742565b820191906000526020600020905b81548152906001019060200180831161072557829003601f168201915b505050505081565b610764600080516020612f8f833981519152610530611778565b6107895760405162461bcd60e51b815260040161078090612b76565b60405180910390fd5b600061079483610d75565b905061079f81611787565b156107bc5760405162461bcd60e51b815260040161078090612c07565b6107c68383611809565b505050565b60006107d68261187d565b6107f25760405162461bcd60e51b815260040161078090612904565b506000908152600960205260409020546001600160a01b031690565b600061081982610d75565b9050806001600160a01b0316836001600160a01b0316141561084d5760405162461bcd60e51b815260040161078090612966565b806001600160a01b031661085f611778565b6001600160a01b0316146108855760405162461bcd60e51b815260040161078090612d35565b61088e81611787565b156108ab5760405162461bcd60e51b815260040161078090612c07565b6107c68383611921565b6108cf600080516020612f8f833981519152610530611778565b6108eb5760405162461bcd60e51b815260040161078090612b76565b6108f48261187d565b6109105760405162461bcd60e51b815260040161078090612ba2565b600061091b83610d75565b905061092681611787565b156109435760405162461bcd60e51b815260040161078090612c07565b6000838152600c60209081526040909120835161096292850190612391565b50505050565b6000610972611063565b61098e5760405162461bcd60e51b81526004016107809061299d565b6004805460408051637e88953760e01b815290516001600160a01b0390921692637e889537928282019260209290829003018186803b1580156109d057600080fd5b505afa1580156109e4573d6000803e3d6000fd5b505050506040513d601f19601f82011682018060405250810190610a0891906124ee565b6001600160a01b0316336001600160a01b03161480610a3157506004546001600160a01b031633145b610a4d5760405162461bcd60e51b815260040161078090612d8c565b6005805460ff60a01b191690557f3e9a3af5b34dbcee8465c0ec9f4f535cb0e3c6a44d1179ae105ced0edbc6d92e610a83611778565b604051610a909190612835565b60405180910390a15060015b90565b610ab0610aaa611778565b8261198f565b610acc5760405162461bcd60e51b815260040161078090612cc7565b6107c6838383611a41565b6000908152600160208190526040909120015490565b610af682610ad7565b610b0781610b02611778565b611bb5565b6107c68383611c19565b600554600160a81b900460ff1681565b610b29611778565b6001600160a01b0316816001600160a01b031614610b595760405162461bcd60e51b815260040161078090612e0e565b610b638282611ca1565b5050565b610b7081611d26565b610b8c5760405162461bcd60e51b815260040161078090612ba2565b610ba6600080516020612f8f833981519152610530611778565b610bc25760405162461bcd60e51b815260040161078090612b76565b6000610bcd82610d75565b9050826001600160a01b0316816001600160a01b031614610c005760405162461bcd60e51b815260040161078090612d35565b506001600160a01b039091166000908152600e6020526040902055565b81610c2781611787565b15610c445760405162461bcd60e51b815260040161078090612c07565b610c5e600080516020612f8f833981519152610530611778565b610c7a5760405162461bcd60e51b815260040161078090612b76565b6107c68383611d43565b600080610c908361165a565b9050610c9b8161187d565b610ca95760009150506106b7565b6000610cb482610d75565b9050836001600160a01b0316816001600160a01b031614610cda576000925050506106b7565b6000610ce585611787565b90508015610cf957600093505050506106b7565b506001949350505050565b6107c683838360405180602001604052806000815250611388565b610d39600080516020612f8f833981519152610530611778565b610d555760405162461bcd60e51b815260040161078090612b76565b610d5e81611e50565b50565b6000546001600160a01b0390811691161490565b6000818152600760205260408120546001600160a01b0316806106b45760405162461bcd60e51b815260040161078090612c73565b610dc4600080516020612f8f833981519152610530611778565b610de05760405162461bcd60e51b815260040161078090612b76565b6000610deb82610d75565b9050610df681611787565b15610e135760405162461bcd60e51b815260040161078090612c07565b610b6382611f78565b82610e2681611787565b15610e435760405162461bcd60e51b815260040161078090612c07565b610e5d600080516020612f8f833981519152610530611778565b610e795760405162461bcd60e51b815260040161078090612b76565b610e838484611d43565b506000918252600d60205260409091205550565b610d5e600080516020612f8f83398151915282610aed565b610d5e600080516020612faf833981519152826114a1565b600080516020612faf83398151915281565b60006001600160a01b038216610f015760405162461bcd60e51b815260040161078090612c73565b506001600160a01b031660009081526008602052604090205490565b6000610f27611063565b15610f445760405162461bcd60e51b815260040161078090612bd9565b6004805460408051637e88953760e01b815290516001600160a01b0390921692637e889537928282019260209290829003018186803b158015610f8657600080fd5b505afa158015610f9a573d6000803e3d6000fd5b505050506040513d601f19601f82011682018060405250810190610fbe91906124ee565b6001600160a01b0316336001600160a01b03161480610fe757506004546001600160a01b031633145b6110035760405162461bcd60e51b815260040161078090612d8c565b6005805460ff60a01b1916600160a01b1790557fe4c361b3d777a0427514a30f90e63bc5728cf1365a8b12e93ae0bf113d8669be610a83611778565b7ffca69b310bd19d275687ebe00b254b0772cf7a367c3f81a9a5a433f831fdc1dc81565b600554600160a01b900460ff1690565b60606106b4826113db565b6006546001600160a01b031633146110a85760405162461bcd60e51b815260040161078090612a55565b6001600160a01b0381166110ce5760405162461bcd60e51b815260040161078090612c73565b6110f87ffca69b310bd19d275687ebe00b254b0772cf7a367c3f81a9a5a433f831fdc1dc82610aed565b611110600080516020612faf83398151915282610aed565b611128600080516020612f8f83398151915282610aed565b60065461114d90600080516020612f8f833981519152906001600160a01b03166114a1565b60065461117290600080516020612faf833981519152906001600160a01b03166114a1565b6006546111a9907ffca69b310bd19d275687ebe00b254b0772cf7a367c3f81a9a5a433f831fdc1dc906001600160a01b03166114a1565b600680546001600160a01b0319166001600160a01b0383161790556040517f0f682333a6fa3e76317e29f29765b707dba149e3449fa176a2191835342ab30f906111f69033908490612849565b60405180910390a150565b60008281526001602090815260408083206001600160a01b038516845290915290205460ff165b92915050565b610d5e600080516020612faf83398151915282610aed565b600380546106c990612eee565b600554600160a01b900460ff1681565b610d5e600080516020612f8f833981519152826114a1565b600061128682611d26565b6112a25760405162461bcd60e51b815260040161078090612ba2565b506000908152600d602052604090205490565b600081565b6112c2611778565b6001600160a01b0316826001600160a01b031614156112f35760405162461bcd60e51b815260040161078090612a7e565b80600a6000611300611778565b6001600160a01b03908116825260208083019390935260409182016000908120918716808252919093529120805460ff191692151592909217909155611344611778565b6001600160a01b03167f17307eab39ab6107e8899845ad3d59bd9653f200f220920489ca2b5937696c318360405161137c91906128dd565b60405180910390a35050565b611399611393611778565b8361198f565b6113b55760405162461bcd60e51b815260040161078090612cc7565b6109628484848461200b565b60006106b4600080516020612faf83398151915283611201565b60606113e682611d26565b6114025760405162461bcd60e51b815260040161078090612ba2565b6000828152600c60205260408120805461141b90612eee565b80601f016020809104026020016040519081016040528092919081815260200182805461144790612eee565b80156114945780601f1061146957610100808354040283529160200191611494565b820191906000526020600020905b81548152906001019060200180831161147757829003601f168201915b5093979650505050505050565b6114aa82610ad7565b6114b681610b02611778565b6107c68383611ca1565b6005546001600160a01b031681565b600080516020612f8f83398151915281565b6114fb600080516020612f8f833981519152610530611778565b6115175760405162461bcd60e51b815260040161078090612b76565b600061152282610d75565b905061152d81611787565b1561154a5760405162461bcd60e51b815260040161078090612c07565b610b638261203e565b6000806060600061156385610d75565b6000868152600b6020908152604080832054600c909252909120805492965060ff90911694509061159390612eee565b80601f01602080910402602001604051908101604052809291908181526020018280546115bf90612eee565b801561160c5780601f106115e15761010080835404028352916020019161160c565b820191906000526020600020905b8154815290600101906020018083116115ef57829003601f168201915b50505060009788525050600d602052604090952054939592949392915050565b6001600160a01b039182166000908152600a6020908152604080832093909416825291909152205460ff1690565b60006001600160a01b0382166116825760405162461bcd60e51b815260040161078090612c73565b506001600160a01b03166000908152600e602052604090205490565b6006546001600160a01b031681565b6004546001600160a01b031681565b60006116c78261187d565b6116d357506000611228565b60006116de83610d75565b9050836001600160a01b0316816001600160a01b031614611703576000915050611228565b600061170e85611787565b90508015610cf957600092505050611228565b600061172c33610d61565b15611740575060131936013560601c610a9c565b61174861174f565b9050610a9c565b3390565b60006001600160e01b03198216637965db0b60e01b14806106b457506106b4826120a6565b6000611782611721565b905090565b6004805460405163fe575a8760e01b81526000926001600160a01b039092169163fe575a87916117b991869101612835565b60206040518083038186803b1580156117d157600080fd5b505afa1580156117e5573d6000803e3d6000fd5b505050506040513d601f19601f820116820180604052508101906106b4919061268b565b6118128261187d565b61182e5760405162461bcd60e51b815260040161078090612af5565b6000828152600d6020526040908190208290555182907f1ebc57da8b3ebab98506502fbb73232ea29fbe86e4963a5a8c004810ad11190d906118719084906128e8565b60405180910390a25050565b6000818152600d6020526040812054156118e7576000828152600760205260409020546001600160a01b0316158015906118c657506000828152600b602052604090205460ff16155b80156118e057506000828152600d60205260409020544211155b90506106b7565b6000828152600760205260409020546001600160a01b0316158015906118e05750506000818152600b602052604090205460ff16156106b7565b600081815260096020526040902080546001600160a01b0319166001600160a01b038416908117909155819061195682610d75565b6001600160a01b03167f8c5be1e5ebec7d5bd14f71427d1e84f3dd0314c0f7b2291e5b200ac8c7c3b92560405160405180910390a45050565b600061199a82611d26565b6119b65760405162461bcd60e51b815260040161078090612aa9565b60006119c183610d75565b9050806001600160a01b0316846001600160a01b031614156119ee576119e5611063565b15915050611228565b836001600160a01b0316611a01846107cb565b6001600160a01b03161480611a1b5750611a1b818561162c565b80611a395750611a39600080516020612f8f83398151915285611201565b915050611228565b826001600160a01b0316611a5482610d75565b6001600160a01b031614611a7a5760405162461bcd60e51b815260040161078090612a26565b6001600160a01b038216611aa05760405162461bcd60e51b815260040161078090612dd7565b611aab8383836107c6565b611ab6600082611921565b6001600160a01b0383166000908152600e6020526040902054811415611afd576001600160a01b038084166000908152600e60205260408082208290559184168152208190555b6001600160a01b0383166000908152600860205260408120805460019290611b26908490612e94565b90915550506001600160a01b0382166000908152600860205260408120805460019290611b54908490612e5d565b909155505060008181526007602052604080822080546001600160a01b0319166001600160a01b0386811691821790925591518493918716917fddf252ad1be2c89b69c2b068fc378daa952ba7f163c4a11628f55a4df523b3ef91a4505050565b611bbf8282611201565b610b6357611bd7816001600160a01b031660146120bf565b611be28360206120bf565b604051602001611bf39291906127c0565b60408051601f198184030181529082905262461bcd60e51b8252610780916004016128f1565b611c238282611201565b610b635760008281526001602081815260408084206001600160a01b0386168552909152909120805460ff19169091179055611c5d611778565b6001600160a01b0316816001600160a01b0316837f2f8788117e7eff1d82e926ec794901d17c78024a50270940304540a733656f0d60405160405180910390a45050565b611cab8282611201565b15610b635760008281526001602090815260408083206001600160a01b03851684529091529020805460ff19169055611ce2611778565b6001600160a01b0316816001600160a01b0316837ff6391f5c32d9c69d2a47ea670b442974b53935d1edc7fd64eb21e047a839171b60405160405180910390a45050565b6000908152600760205260409020546001600160a01b0316151590565b6001600160a01b038216611d695760405162461bcd60e51b815260040161078090612c73565b611d7281611d26565b15611d8f5760405162461bcd60e51b815260040161078090612d5e565b6001600160a01b0382166000908152600860205260408120805460019290611db8908490612e5d565b9091555050600081815260076020908152604080832080546001600160a01b0319166001600160a01b0387169081179091558352600e909152902054611e14576001600160a01b0382166000908152600e602052604090208190555b60405181906001600160a01b038416906000907fddf252ad1be2c89b69c2b068fc378daa952ba7f163c4a11628f55a4df523b3ef908290a45050565b6000611e5b82610d75565b9050611e68600083611921565b6000828152600b60209081526040808320805460ff19169055600d8252808320839055600c90915290208054611e9d90612eee565b159050611ebb576000828152600c60205260408120611ebb91612415565b6001600160a01b0381166000908152600e6020526040902054821415611ef5576001600160a01b0381166000908152600e60205260408120555b6001600160a01b0381166000908152600860205260408120805460019290611f1e908490612e94565b909155505060008281526007602052604080822080546001600160a01b0319169055518391906001600160a01b038416907fddf252ad1be2c89b69c2b068fc378daa952ba7f163c4a11628f55a4df523b3ef908390a45050565b611f8181611d26565b611f9d5760405162461bcd60e51b815260040161078090612c99565b6000818152600b602052604090205460ff16611fcb5760405162461bcd60e51b815260040161078090612d0a565b6000818152600b6020526040808220805460ff191690555182917fe2babfd5e77285a3c3dbc4b25592cbe4a7a26e97a7ac63067a22ebdaa9b82add91a250565b612016848484611a41565b61202284848484612278565b6109625760405162461bcd60e51b815260040161078090612b2c565b6120478161187d565b6120635760405162461bcd60e51b815260040161078090612c31565b6000818152600b6020526040808220805460ff191660011790555182917f779fbee689bbd6f006ecb329206d35c7db7380f9837a8826fb8dc5cfcd3d33dd91a250565b6001600160e01b031981166301ffc9a760e01b14919050565b606060006120ce836002612e75565b6120d9906002612e5d565b67ffffffffffffffff8111156120ff57634e487b7160e01b600052604160045260246000fd5b6040519080825280601f01601f191660200182016040528015612129576020820181803683370190505b509050600360fc1b8160008151811061215257634e487b7160e01b600052603260045260246000fd5b60200101906001600160f81b031916908160001a905350600f60fb1b8160018151811061218f57634e487b7160e01b600052603260045260246000fd5b60200101906001600160f81b031916908160001a90535060006121b3846002612e75565b6121be906001612e5d565b90505b6001811115612252576f181899199a1a9b1b9c1cb0b131b232b360811b85600f166010811061220057634e487b7160e01b600052603260045260246000fd5b1a60f81b82828151811061222457634e487b7160e01b600052603260045260246000fd5b60200101906001600160f81b031916908160001a90535060049490941c9361224b81612ed7565b90506121c1565b5083156122715760405162461bcd60e51b815260040161078090612931565b9392505050565b600061228c846001600160a01b031661238b565b15610cf957836001600160a01b031663150b7a026122a8611778565b8786866040518563ffffffff1660e01b81526004016122ca9493929190612863565b602060405180830381600087803b1580156122e457600080fd5b505af1925050508015612314575060408051601f3d908101601f19168201909252612311918101906126ff565b60015b61236e573d808015612342576040519150601f19603f3d011682016040523d82523d6000602084013e612347565b606091505b5080516123665760405162461bcd60e51b8152600401610780906129d4565b805181602001fd5b6001600160e01b031916630a85bd0160e11b149050949350505050565b3b151590565b82805461239d90612eee565b90600052602060002090601f0160209004810192826123bf5760008555612405565b82601f106123d857805160ff1916838001178555612405565b82800160010185558215612405579182015b828111156124055782518255916020019190600101906123ea565b5061241192915061244d565b5090565b50805461242190612eee565b6000825580601f106124335750610d5e565b601f016020900490600052602060002090810190610d5e91905b5b80821115612411576000815560010161244e565b600067ffffffffffffffff8084111561247d5761247d612f3f565b604051601f8501601f1916810160200182811182821017156124a1576124a1612f3f565b6040528481529150818385018610156124b957600080fd5b8484602083013760006020868301015250509392505050565b6000602082840312156124e3578081fd5b813561227181612f55565b6000602082840312156124ff578081fd5b815161227181612f55565b6000806040838503121561251c578081fd5b823561252781612f55565b9150602083013561253781612f55565b809150509250929050565b600080600060608486031215612556578081fd5b833561256181612f55565b9250602084013561257181612f55565b929592945050506040919091013590565b60008060008060808587031215612597578081fd5b84356125a281612f55565b935060208501356125b281612f55565b925060408501359150606085013567ffffffffffffffff8111156125d4578182fd5b8501601f810187136125e4578182fd5b6125f387823560208401612462565b91505092959194509250565b60008060408385031215612611578182fd5b823561261c81612f55565b9150602083013561253781612f6a565b6000806040838503121561263e578182fd5b823561264981612f55565b946020939093013593505050565b60008060006060848603121561266b578283fd5b833561267681612f55565b95602085013595506040909401359392505050565b60006020828403121561269c578081fd5b815161227181612f6a565b6000602082840312156126b8578081fd5b5035919050565b600080604083850312156126d1578182fd5b82359150602083013561253781612f55565b6000602082840312156126f4578081fd5b813561227181612f78565b600060208284031215612710578081fd5b815161227181612f78565b6000806040838503121561272d578182fd5b82359150602083013567ffffffffffffffff81111561274a578182fd5b8301601f8101851361275a578182fd5b61276985823560208401612462565b9150509250929050565b60008060408385031215612785578182fd5b50508035926020909101359150565b600081518084526127ac816020860160208601612eab565b601f01601f19169290920160200192915050565b60007f416363657373436f6e74726f6c3a206163636f756e7420000000000000000000825283516127f8816017850160208801612eab565b7001034b99036b4b9b9b4b733903937b6329607d1b6017918401918201528351612829816028840160208801612eab565b01602801949350505050565b6001600160a01b0391909116815260200190565b6001600160a01b0392831681529116602082015260400190565b6001600160a01b038581168252841660208201526040810183905260806060820181905260009061289690830184612794565b9695505050505050565b6001600160a01b038516815283151560208201526080604082018190526000906128cc90830185612794565b905082606083015295945050505050565b901515815260200190565b90815260200190565b6000602082526122716020830184612794565b6020808252601390820152721513d2d153881113d154d389d50811561254d5606a1b604082015260600190565b6020808252818101527f537472696e67733a20686578206c656e67746820696e73756666696369656e74604082015260600190565b6020808252601d908201527f494e434f525245435420415050524f56452044455354494e4154494f4e000000604082015260600190565b60208082526018908201527f5452414e5346455253204e4f5420524553545249435445440000000000000000604082015260600190565b60208082526032908201527f4552433732313a207472616e7366657220746f206e6f6e20455243373231526560408201527131b2b4bb32b91034b6b83632b6b2b73a32b960711b606082015260800190565b60208082526015908201527424a721a7a92922a1aa102a27a5a2a71027aba722a960591b604082015260600190565b6020808252600f908201526e2727aa102220a79026a0a720a3a2a960891b604082015260600190565b602080825260119082015270494e434f525245435420415050524f564560781b604082015260600190565b6020808252602c908201527f4552433732313a206f70657261746f7220717565727920666f72206e6f6e657860408201526b34b9ba32b73a103a37b5b2b760a11b606082015260800190565b6020808252601e908201527f544f4b454e20444f45534e275420455849535453204f52204143544956450000604082015260600190565b6020808252602a908201527f5452414e5346455220544f204e4f4e204552433732315265636569766572204960408201526926a82622a6a2a72a22a960b11b606082015260800190565b60208082526012908201527126aaa9aa1021229023a0aa22a5a2a2a822a960711b604082015260600190565b6020808252601e908201527f544f4b454e20444f45534e2754204558495354204f5220465245455a45440000604082015260600190565b6020808252601490820152731514905394d1915494c8149154d5149250d5115160621b604082015260600190565b60208082526010908201526f212620a1a5a624a9aa22a2102aa9a2a960811b604082015260600190565b60208082526022908201527f544f4b454e20444f45534e275420455849535453204f52204e4f542041435449604082015261564560f01b606082015260800190565b6020808252600c908201526b5a45524f204144445245535360a01b604082015260600190565b602080825260149082015273544f4b454e20444f45534e27542045584953545360601b604082015260600190565b60208082526023908201527f4d53472e53454e444552204e4f54204f574e4552204e4f5220474154454b45456040820152622822a960e91b606082015260800190565b6020808252601190820152701513d2d153881393d50811949151569151607a1b604082015260600190565b6020808252600f908201526e24a721a7a92922a1aa1027aba722a960891b604082015260600190565b602080825260149082015273544f4b454e20414c52454144592045584953545360601b604082015260600190565b6020808252602b908201527f4e4f54204944454e544954592e434f4d2041444d494e204e4f5220544f4b454e60408201526a1021a7a72a2927a62622a960a91b606082015260800190565b60208082526018908201527f5452414e5346455220544f205a45524f20414444524553530000000000000000604082015260600190565b6020808252602f908201527f416363657373436f6e74726f6c3a2063616e206f6e6c792072656e6f756e636560408201526e103937b632b9903337b91039b2b63360891b606082015260800190565b60008219821115612e7057612e70612f29565b500190565b6000816000190483118215151615612e8f57612e8f612f29565b500290565b600082821015612ea657612ea6612f29565b500390565b60005b83811015612ec6578181015183820152602001612eae565b838111156109625750506000910152565b600081612ee657612ee6612f29565b506000190190565b600281046001821680612f0257607f821691505b60208210811415612f2357634e487b7160e01b600052602260045260246000fd5b50919050565b634e487b7160e01b600052601160045260246000fd5b634e487b7160e01b600052604160045260246000fd5b6001600160a01b0381168114610d5e57600080fd5b8015158114610d5e57600080fd5b6001600160e01b031981168114610d5e57600080fdfe3c63e605be3290ab6b04cfc46c6e1516e626d43236b034f09d7ede1d017beb0c449b0a7e0acc0a95c71947cb19fdd122b42abca9bdfbd6707ca4f1e3fdaef05ea26469706673582212200dba7efe51940841e924f5889e96a0a8e6b49e879f5db45cc867b3ea32b888cd64736f6c63430008000033fca69b310bd19d275687ebe00b254b0772cf7a367c3f81a9a5a433f831fdc1dc3c63e605be3290ab6b04cfc46c6e1516e626d43236b034f09d7ede1d017beb0c449b0a7e0acc0a95c71947cb19fdd122b42abca9bdfbd6707ca4f1e3fdaef05ea264697066735822122018a3649fe8fdd98f688c357a1b6eddaff1d816c1de0f1bc1ae8cc56fd1ad2cd664736f6c63430008000033",
  "devdoc": {
    "details": "Gateway Token Controller contract is responsible for managing Identity.com KYC gateway token set of smart contracts Contract handles multiple levels of access such as Network Authority (may represent a specific regulator body)  Gatekeepers (Identity.com network parties who can mint/burn/freeze gateway tokens) and overall system Admin who can add new Network Authorities",
    "kind": "dev",
    "methods": {
      "acceptTransfersBatch(address[])": {
        "details": "Accepts owner's transfers for specified gateway tokens",
        "params": {
          "tokens": "Gateway Token contracts address array"
        }
      },
      "addNetworkAuthorities(address,address[])": {
        "details": "Triggers to add multiple network authorities in gateway token contract. ",
        "params": {
          "authorities": "Network Authorities array",
          "token": "Gateway Token contract address"
        }
      },
      "blacklist(address)": {
        "details": "Blacklists specified `user` completely, user can't get KYC verification on any gateway token networks.",
        "params": {
          "user": "Address to blacklist."
        }
      },
      "blacklistBatch(address[])": {
        "details": "Blacklist multiple `users`, user can't get KYC verification on any gateway token networks.",
        "params": {
          "users": "User addresses to blacklist."
        }
      },
      "constructor": {
        "details": "Gateway Token Controller contract constructor.  Grants admin role to contract deployer"
      },
      "createGatekeeperNetwork(string,string,bool,address,address)": {
        "details": "Deploys new Gateway Token and save address at gatewayTokens address set.",
        "params": {
          "_name": "Gateway Token name",
          "_symbol": "Gateway Token symbol"
        }
      },
      "isBlacklisted(address)": {
        "details": "Checks if specified `user` blacklisted completely.  If user blacklisted gateway token clients not able to verify identity,  and gatekeepers have to burn tokens owned by blacklisted users.",
        "params": {
          "user": "Address to check."
        }
      },
      "removeNetworkAuthorities(address,address[])": {
        "details": "Triggers to remove multiple network authorities in gateway token contract. ",
        "params": {
          "authorities": "Network Authorities array",
          "token": "Gateway Token contract address"
        }
      },
      "restrictTransfersBatch(address[])": {
        "details": "Restricts owner's transfers for specified gateway tokens",
        "params": {
          "tokens": "Gateway Token contracts address array"
        }
      },
      "transferAdmin(address)": {
        "details": "Transfers Gateway Token system admin access in case Identity.com changes the main management address",
        "params": {
          "newAdmin": "Address to transfer admin role for."
        }
      }
    },
    "stateVariables": {
      "identityAdmin": {
        "details": "Triggers to get Identity.com System Admin"
      }
    },
    "version": 1
  },
  "userdoc": {
    "kind": "user",
    "methods": {
      "addNetworkAuthorities(address,address[])": {
        "notice": "Only triggered by identityAdmin"
      },
      "blacklist(address)": {
        "notice": "Once user is blacklisted there is no way to whitelist, please use this function carefully."
      },
      "blacklistBatch(address[])": {
        "notice": "Once user is blacklisted there is no way to whitelist, please use this function carefully."
      },
      "removeNetworkAuthorities(address,address[])": {
        "notice": "Only triggered by identityAdmin"
      }
    },
    "version": 1
  },
  "storageLayout": {
    "storage": [
      {
        "astId": 3634,
        "contract": "contracts/GatewayTokenController.sol:GatewayTokenController",
        "label": "gatewayTokens",
        "offset": 0,
        "slot": "0",
        "type": "t_struct(AddressSet)1487_storage"
      },
      {
        "astId": 3637,
        "contract": "contracts/GatewayTokenController.sol:GatewayTokenController",
        "label": "identityAdmin",
        "offset": 0,
        "slot": "2",
        "type": "t_address"
      },
      {
        "astId": 3641,
        "contract": "contracts/GatewayTokenController.sol:GatewayTokenController",
        "label": "_isBlacklisted",
        "offset": 0,
        "slot": "3",
        "type": "t_mapping(t_address,t_bool)"
      }
    ],
    "types": {
      "t_address": {
        "encoding": "inplace",
        "label": "address",
        "numberOfBytes": "20"
      },
      "t_array(t_bytes32)dyn_storage": {
        "base": "t_bytes32",
        "encoding": "dynamic_array",
        "label": "bytes32[]",
        "numberOfBytes": "32"
      },
      "t_bool": {
        "encoding": "inplace",
        "label": "bool",
        "numberOfBytes": "1"
      },
      "t_bytes32": {
        "encoding": "inplace",
        "label": "bytes32",
        "numberOfBytes": "32"
      },
      "t_mapping(t_address,t_bool)": {
        "encoding": "mapping",
        "key": "t_address",
        "label": "mapping(address => bool)",
        "numberOfBytes": "32",
        "value": "t_bool"
      },
      "t_mapping(t_bytes32,t_uint256)": {
        "encoding": "mapping",
        "key": "t_bytes32",
        "label": "mapping(bytes32 => uint256)",
        "numberOfBytes": "32",
        "value": "t_uint256"
      },
      "t_struct(AddressSet)1487_storage": {
        "encoding": "inplace",
        "label": "struct EnumerableSet.AddressSet",
        "members": [
          {
            "astId": 1486,
            "contract": "contracts/GatewayTokenController.sol:GatewayTokenController",
            "label": "_inner",
            "offset": 0,
            "slot": "0",
            "type": "t_struct(Set)1186_storage"
          }
        ],
        "numberOfBytes": "64"
      },
      "t_struct(Set)1186_storage": {
        "encoding": "inplace",
        "label": "struct EnumerableSet.Set",
        "members": [
          {
            "astId": 1181,
            "contract": "contracts/GatewayTokenController.sol:GatewayTokenController",
            "label": "_values",
            "offset": 0,
            "slot": "0",
            "type": "t_array(t_bytes32)dyn_storage"
          },
          {
            "astId": 1185,
            "contract": "contracts/GatewayTokenController.sol:GatewayTokenController",
            "label": "_indexes",
            "offset": 0,
            "slot": "1",
            "type": "t_mapping(t_bytes32,t_uint256)"
          }
        ],
        "numberOfBytes": "64"
      },
      "t_uint256": {
        "encoding": "inplace",
        "label": "uint256",
        "numberOfBytes": "32"
      }
    }
  }
}