{
  "address": "0x7b97B03C3232a6560d6C9daAaE49f33037D9131C",
  "abi": [
    {
      "inputs": [],
      "stateMutability": "nonpayable",
      "type": "constructor"
    },
    {
      "anonymous": false,
      "inputs": [
        {
          "indexed": true,
          "internalType": "address",
          "name": "previousAdmin",
          "type": "address"
        },
        {
          "indexed": true,
          "internalType": "address",
          "name": "admin",
          "type": "address"
        }
      ],
      "name": "AdminTransfered",
      "type": "event"
    },
    {
      "anonymous": false,
      "inputs": [
        {
          "indexed": true,
          "internalType": "address",
          "name": "user",
          "type": "address"
        }
      ],
      "name": "Blacklisted",
      "type": "event"
    },
    {
      "anonymous": false,
      "inputs": [
        {
          "indexed": false,
          "internalType": "address[]",
          "name": "users",
          "type": "address[]"
        }
      ],
      "name": "BlacklistedBatch",
      "type": "event"
    },
    {
      "anonymous": false,
      "inputs": [
        {
          "indexed": true,
          "internalType": "address",
          "name": "tokenAddress",
          "type": "address"
        },
        {
          "indexed": false,
          "internalType": "string",
          "name": "name",
          "type": "string"
        },
        {
          "indexed": false,
          "internalType": "string",
          "name": "symbol",
          "type": "string"
        },
        {
          "indexed": false,
          "internalType": "address",
          "name": "deployer",
          "type": "address"
        }
      ],
      "name": "GatekeeperNetworkCreated",
      "type": "event"
    },
    {
      "anonymous": false,
      "inputs": [
        {
          "indexed": false,
          "internalType": "address[]",
          "name": "tokens",
          "type": "address[]"
        },
        {
          "indexed": false,
          "internalType": "address",
          "name": "account",
          "type": "address"
        }
      ],
      "name": "TransfersAcceptedBatch",
      "type": "event"
    },
    {
      "anonymous": false,
      "inputs": [
        {
          "indexed": false,
          "internalType": "address[]",
          "name": "tokens",
          "type": "address[]"
        },
        {
          "indexed": false,
          "internalType": "address",
          "name": "account",
          "type": "address"
        }
      ],
      "name": "TransfersRestrictedBatch",
      "type": "event"
    },
    {
      "inputs": [
        {
          "internalType": "address[]",
          "name": "tokens",
          "type": "address[]"
        }
      ],
      "name": "acceptTransfersBatch",
      "outputs": [],
      "stateMutability": "nonpayable",
      "type": "function"
    },
    {
      "inputs": [
        {
          "internalType": "address",
          "name": "token",
          "type": "address"
        },
        {
          "internalType": "address[]",
          "name": "authorities",
          "type": "address[]"
        }
      ],
      "name": "addNetworkAuthorities",
      "outputs": [],
      "stateMutability": "nonpayable",
      "type": "function"
    },
    {
      "inputs": [
        {
          "internalType": "address",
          "name": "user",
          "type": "address"
        }
      ],
      "name": "blacklist",
      "outputs": [],
      "stateMutability": "nonpayable",
      "type": "function"
    },
    {
      "inputs": [
        {
          "internalType": "address[]",
          "name": "users",
          "type": "address[]"
        }
      ],
      "name": "blacklistBatch",
      "outputs": [],
      "stateMutability": "nonpayable",
      "type": "function"
    },
    {
      "inputs": [
        {
          "internalType": "string",
          "name": "_name",
          "type": "string"
        },
        {
          "internalType": "string",
          "name": "_symbol",
          "type": "string"
        },
        {
          "internalType": "bool",
          "name": "_isDAOGoverned",
          "type": "bool"
        },
        {
          "internalType": "address",
          "name": "_daoExecutor",
          "type": "address"
        }
      ],
      "name": "createGatekeeperNetwork",
      "outputs": [
        {
          "internalType": "address",
          "name": "tokenAddress",
          "type": "address"
        }
      ],
      "stateMutability": "nonpayable",
      "type": "function"
    },
    {
      "inputs": [],
      "name": "identityAdmin",
      "outputs": [
        {
          "internalType": "address",
          "name": "",
          "type": "address"
        }
      ],
      "stateMutability": "view",
      "type": "function"
    },
    {
      "inputs": [
        {
          "internalType": "address",
          "name": "user",
          "type": "address"
        }
      ],
      "name": "isBlacklisted",
      "outputs": [
        {
          "internalType": "bool",
          "name": "",
          "type": "bool"
        }
      ],
      "stateMutability": "view",
      "type": "function"
    },
    {
      "inputs": [
        {
          "internalType": "address",
          "name": "token",
          "type": "address"
        },
        {
          "internalType": "address[]",
          "name": "authorities",
          "type": "address[]"
        }
      ],
      "name": "removeNetworkAuthorities",
      "outputs": [],
      "stateMutability": "nonpayable",
      "type": "function"
    },
    {
      "inputs": [
        {
          "internalType": "address[]",
          "name": "tokens",
          "type": "address[]"
        }
      ],
      "name": "restrictTransfersBatch",
      "outputs": [],
      "stateMutability": "nonpayable",
      "type": "function"
    },
    {
      "inputs": [
        {
          "internalType": "address",
          "name": "newAdmin",
          "type": "address"
        }
      ],
      "name": "transferAdmin",
      "outputs": [],
      "stateMutability": "nonpayable",
      "type": "function"
    }
  ],
  "transactionHash": "0x929da0b1f42cc041a9e480392fb9f20f8e4c415235e6131c3eb2eb6283767d92",
  "args": [],
  "solcInputHash": "70d807cad2f7aae6bb129ec2233d517e",
  "bytecode": "0x608060405234801561001057600080fd5b50600280546001600160a01b031916331790556149d4806100326000396000f3fe60806040523480156200001157600080fd5b5060043610620000ac5760003560e01c80637e889537116200006f5780637e889537146200012657806394ee5d471462000148578063f2ec3450146200015f578063f9f92be41462000176578063fe575a87146200018d57620000ac565b80630dd05e5f14620000b157806324b776c914620000ca5780635647bfa514620000e1578063726b577114620000f857806375829def146200010f575b600080fd5b620000c8620000c236600462000f60565b620001b3565b005b620000c8620000db36600462000f60565b62000348565b620000c8620000f236600462000f0c565b620004c9565b620000c86200010936600462000f60565b6200077a565b620000c86200012036600462000ec7565b6200087e565b62000130620008f7565b6040516200013f9190620010e2565b60405180910390f35b620001306200015936600462000fbe565b62000906565b620000c86200017036600462000f0c565b620009a8565b620000c86200018736600462000ec7565b62000c53565b620001a46200019e36600462000ec7565b62000cf5565b6040516200013f919062001137565b6002546001600160a01b03163314620001e95760405162461bcd60e51b8152600401620001e090620011d8565b60405180910390fd5b60005b8151811015620003095760008282815181106200021957634e487b7160e01b600052603260045260246000fd5b602002602001015190506200023981600062000d1390919063ffffffff16565b620002585760405162461bcd60e51b8152600401620001e09062001287565b6000819050806001600160a01b0316637adac0e66040518163ffffffff1660e01b8152600401602060405180830381600087803b1580156200029957600080fd5b505af1158015620002ae573d6000803e3d6000fd5b505050506040513d601f19601f82011682018060405250810190620002d4919062000f9f565b620002f35760405162461bcd60e51b8152600401620001e09062001258565b5050806200030190620012df565b9050620001ec565b507f58631eee773f0fec6b0e2e8bd8eb7250c0941d22e2ac58787e3428a693745a2481336040516200033d9291906200110b565b60405180910390a150565b6002546001600160a01b03163314620003755760405162461bcd60e51b8152600401620001e090620011d8565b60005b815181101562000495576000828281518110620003a557634e487b7160e01b600052603260045260246000fd5b60200260200101519050620003c581600062000d1390919063ffffffff16565b620003e45760405162461bcd60e51b8152600401620001e09062001287565b6000819050806001600160a01b0316632185810b6040518163ffffffff1660e01b8152600401602060405180830381600087803b1580156200042557600080fd5b505af11580156200043a573d6000803e3d6000fd5b505050506040513d601f19601f8201168201806040525081019062000460919062000f9f565b6200047f5760405162461bcd60e51b8152600401620001e09062001258565b5050806200048d90620012df565b905062000378565b507f404f02b9c73e30734207749f2fc6f5e4d1e2fba7649223798308d3a63014f4fc81336040516200033d9291906200110b565b620004d660008362000d13565b620004f55760405162461bcd60e51b8152600401620001e09062001287565b8160005b8251811015620007745760008382815181106200052657634e487b7160e01b600052603260045260246000fd5b60200260200101519050826001600160a01b031663304743156040518163ffffffff1660e01b8152600401602060405180830381600087803b1580156200056c57600080fd5b505af115801562000581573d6000803e3d6000fd5b505050506040513d601f19601f82011682018060405250810190620005a7919062000f9f565b156200065a576000836001600160a01b031663f322c7556040518163ffffffff1660e01b8152600401602060405180830381600087803b158015620005eb57600080fd5b505af115801562000600573d6000803e3d6000fd5b505050506040513d601f19601f8201168201806040525081019062000626919062000eed565b9050336001600160a01b03821614620006535760405162461bcd60e51b8152600401620001e09062001208565b50620006fd565b60405163bb909c2b60e01b81526001600160a01b0384169063bb909c2b9062000688903390600401620010e2565b602060405180830381600087803b158015620006a357600080fd5b505af1158015620006b8573d6000803e3d6000fd5b505050506040513d601f19601f82011682018060405250810190620006de919062000f9f565b620006fd5760405162461bcd60e51b8152600401620001e09062001208565b604051633746948f60e11b81526001600160a01b03841690636e8d291e906200072b908490600401620010e2565b600060405180830381600087803b1580156200074657600080fd5b505af11580156200075b573d6000803e3d6000fd5b5050505050806200076c90620012df565b9050620004f9565b50505050565b6002546001600160a01b03163314620007a75760405162461bcd60e51b8152600401620001e090620011d8565b60005b81518110156200084c576000828281518110620007d757634e487b7160e01b600052603260045260246000fd5b6020026020010151905060006001600160a01b0316816001600160a01b03161415620008175760405162461bcd60e51b8152600401620001e09062001232565b6001600160a01b03166000908152600360205260409020805460ff191660011790556200084481620012df565b9050620007aa565b507fe1083d5cef2dbb8a2482660e37a8229667000029c2686255cef786c905cad3e2816040516200033d9190620010f6565b6002546001600160a01b03163314620008ab5760405162461bcd60e51b8152600401620001e090620011d8565b600280546001600160a01b0319166001600160a01b03831690811790915560405133907f173de3514d8508f36ce8c81d509adcd8c8c76098400f685d3042b36f9a4160c390600090a350565b6002546001600160a01b031681565b600084843385856040516200091b9062000db1565b6200092b95949392919062001184565b604051809103906000f08015801562000948573d6000803e3d6000fd5b5090506200095860008262000d33565b50806001600160a01b03167ff9d549554121b54eb289ca81e131436ff67c712259c89fb3c00e36d793efeece868633604051620009989392919062001142565b60405180910390a2949350505050565b620009b560008362000d13565b620009d45760405162461bcd60e51b8152600401620001e09062001287565b8160005b82518110156200077457600083828151811062000a0557634e487b7160e01b600052603260045260246000fd5b60200260200101519050826001600160a01b031663304743156040518163ffffffff1660e01b8152600401602060405180830381600087803b15801562000a4b57600080fd5b505af115801562000a60573d6000803e3d6000fd5b505050506040513d601f19601f8201168201806040525081019062000a86919062000f9f565b1562000b39576000836001600160a01b031663f322c7556040518163ffffffff1660e01b8152600401602060405180830381600087803b15801562000aca57600080fd5b505af115801562000adf573d6000803e3d6000fd5b505050506040513d601f19601f8201168201806040525081019062000b05919062000eed565b9050336001600160a01b0382161462000b325760405162461bcd60e51b8152600401620001e09062001208565b5062000bdc565b60405163bb909c2b60e01b81526001600160a01b0384169063bb909c2b9062000b67903390600401620010e2565b602060405180830381600087803b15801562000b8257600080fd5b505af115801562000b97573d6000803e3d6000fd5b505050506040513d601f19601f8201168201806040525081019062000bbd919062000f9f565b62000bdc5760405162461bcd60e51b8152600401620001e09062001208565b6040516302519eb160e61b81526001600160a01b03841690639467ac409062000c0a908490600401620010e2565b600060405180830381600087803b15801562000c2557600080fd5b505af115801562000c3a573d6000803e3d6000fd5b50505050508062000c4b90620012df565b9050620009d8565b6002546001600160a01b0316331462000c805760405162461bcd60e51b8152600401620001e090620011d8565b6001600160a01b03811662000ca95760405162461bcd60e51b8152600401620001e09062001232565b6001600160a01b038116600081815260036020526040808220805460ff19166001179055517fffa4e6181777692565cf28528fc88fd1516ea86b56da075235fa575af6a4b8559190a250565b6001600160a01b031660009081526003602052604090205460ff1690565b600062000d2a836001600160a01b03841662000d4a565b90505b92915050565b600062000d2a836001600160a01b03841662000d62565b60009081526001919091016020526040902054151590565b600062000d70838362000d4a565b62000da85750815460018181018455600084815260208082209093018490558454848252828601909352604090209190915562000d2d565b50600062000d2d565b613659806200134683390190565b600082601f83011262000dd0578081fd5b8135602067ffffffffffffffff82111562000def5762000def62001307565b80820262000dff828201620012b2565b83815282810190868401838801850189101562000e1a578687fd5b8693505b8584101562000e4957803562000e34816200131d565b83526001939093019291840191840162000e1e565b50979650505050505050565b600082601f83011262000e66578081fd5b813567ffffffffffffffff81111562000e835762000e8362001307565b62000e98601f8201601f1916602001620012b2565b81815284602083860101111562000ead578283fd5b816020850160208301379081016020019190915292915050565b60006020828403121562000ed9578081fd5b813562000ee6816200131d565b9392505050565b60006020828403121562000eff578081fd5b815162000ee6816200131d565b6000806040838503121562000f1f578081fd5b823562000f2c816200131d565b9150602083013567ffffffffffffffff81111562000f48578182fd5b62000f568582860162000dbf565b9150509250929050565b60006020828403121562000f72578081fd5b813567ffffffffffffffff81111562000f89578182fd5b62000f978482850162000dbf565b949350505050565b60006020828403121562000fb1578081fd5b815162000ee68162001336565b6000806000806080858703121562000fd4578182fd5b843567ffffffffffffffff8082111562000fec578384fd5b62000ffa8883890162000e55565b9550602087013591508082111562001010578384fd5b506200101f8782880162000e55565b9350506040850135620010328162001336565b9150606085013562001044816200131d565b939692955090935050565b6000815180845260208085019450808401835b83811015620010895781516001600160a01b03168752958201959082019060010162001062565b509495945050505050565b60008151808452815b81811015620010bb576020818501810151868301820152016200109d565b81811115620010cd5782602083870101525b50601f01601f19169290920160200192915050565b6001600160a01b0391909116815260200190565b60006020825262000d2a60208301846200104f565b6000604082526200112060408301856200104f565b905060018060a01b03831660208301529392505050565b901515815260200190565b60006060825262001157606083018662001094565b82810360208401526200116b818662001094565b91505060018060a01b0383166040830152949350505050565b600060a082526200119960a083018862001094565b8281036020840152620011ad818862001094565b6001600160a01b03968716604085015294151560608401525050921660809092019190915292915050565b6020808252601690820152752727aa1024a222a72a24aa2cafa1a7a6afa0a226a4a760511b604082015260600190565b60208082526010908201526f494e434f52524543542041434345535360801b604082015260600190565b6020808252600c908201526b5a45524f204144445245535360a01b604082015260600190565b6020808252601590820152741514905394d1915494c81393d50810531313d5d151605a1b604082015260600190565b6020808252601190820152702727aa1023a0aa22aba0ac902a27a5a2a760791b604082015260600190565b60405181810167ffffffffffffffff81118282101715620012d757620012d762001307565b604052919050565b60006000198214156200130057634e487b7160e01b81526011600452602481fd5b5060010190565b634e487b7160e01b600052604160045260246000fd5b6001600160a01b03811681146200133357600080fd5b50565b80151581146200133357600080fdfe60806040523480156200001157600080fd5b506040516200365938038062003659833981016040819052620000349162000534565b845162000049906001906020880190620003cb565b5083516200005f906002906020870190620003cb565b506200006a620002a0565b600380546001600160a01b039283166001600160a01b0319918216179091556004805492861660ff60a01b19909316600160a01b17909116919091179055620000cc60008051602062003639833981519152620000c6620002a0565b620002a4565b600454620000f49060008051602062003639833981519152906001600160a01b0316620002a4565b6004546200011c9060008051602062003619833981519152906001600160a01b0316620002a4565b811562000250576004805460ff60a81b1916600160a81b841515021790556001600160a01b0381166200016c5760405162461bcd60e51b81526004016200016390620005d8565b60405180910390fd5b600580546001600160a01b0319166001600160a01b038316179055620001a2600080516020620035f983398151915282620002a4565b620001c0600080516020620035f9833981519152620000c6620002a0565b620001db6000805160206200363983398151915282620002a4565b620001f66000805160206200361983398151915282620002a4565b6200022060008051602062003639833981519152600080516020620035f9833981519152620002b4565b6200024a60008051602062003619833981519152600080516020620035f9833981519152620002b4565b62000295565b6200026b6000805160206200363983398151915280620002b4565b620002956000805160206200361983398151915260008051602062003639833981519152620002b4565b505050505062000656565b3390565b620002b0828262000300565b5050565b80620002c0836200038a565b60405184907fbd79b86ffe0ab8e8776151514217cd7cacd52c909f66475c3af44e129f0b00ff90600090a460009182526020829052604090912060010155565b6200030c8282620003a2565b620002b0576000828152602081815260408083206001600160a01b03851684529091529020805460ff1916600117905562000346620002a0565b6001600160a01b0316816001600160a01b0316837f2f8788117e7eff1d82e926ec794901d17c78024a50270940304540a733656f0d60405160405180910390a45050565b6000818152602081905260409020600101545b919050565b6000918252602082815260408084206001600160a01b0393909316845291905290205460ff1690565b828054620003d99062000603565b90600052602060002090601f016020900481019282620003fd576000855562000448565b82601f106200041857805160ff191683800117855562000448565b8280016001018555821562000448579182015b82811115620004485782518255916020019190600101906200042b565b50620004569291506200045a565b5090565b5b808211156200045657600081556001016200045b565b80516001600160a01b03811681146200039d57600080fd5b600082601f8301126200049a578081fd5b81516001600160401b0380821115620004b757620004b762000640565b6040516020601f8401601f1916820181018381118382101715620004df57620004df62000640565b6040528382528584018101871015620004f6578485fd5b8492505b83831015620005195785830181015182840182015291820191620004fa565b838311156200052a57848185840101525b5095945050505050565b600080600080600060a086880312156200054c578081fd5b85516001600160401b038082111562000563578283fd5b6200057189838a0162000489565b9650602088015191508082111562000587578283fd5b50620005968882890162000489565b945050620005a76040870162000471565b925060608601518015158114620005bc578182fd5b9150620005cc6080870162000471565b90509295509295909350565b602080825260119082015270494e434f5252454354204144445245535360781b604082015260600190565b6002810460018216806200061857607f821691505b602082108114156200063a57634e487b7160e01b600052602260045260246000fd5b50919050565b634e487b7160e01b600052604160045260246000fd5b612f9380620006666000396000f3fe608060405234801561001057600080fd5b50600436106102d65760003560e01c806381e9ff1911610182578063b88d4fde116100e9578063d7a78db8116100a2578063f15376861161007c578063f153768614610610578063f322c75514610623578063f77c47911461062b578063ff17e23214610633576102d6565b8063d7a78db8146105c7578063e4b50cb8146105da578063e985e9c5146105fd576102d6565b8063b88d4fde1461056b578063bb909c2b1461057e578063c87b56dd14610591578063d547741f146105a4578063d5f39488146105b7578063d6fd3175146105bf576102d6565b806395d89b411161013b57806395d89b411461051a5780639605f12f14610522578063a1ac30171461052a578063a1e089111461053d578063a217fddf14610550578063a22cb46514610558576102d6565b806381e9ff19146104be5780638423df79146104c657806385e3f058146104ce57806387b6aef5146104e157806391d14854146104f45780639467ac4014610507576102d6565b8063368e6333116102415780636623fc46116101fa5780636e8d291e116101d45780636e8d291e146104885780636f7caf411461049b57806370a08231146104a35780637adac0e6146104b6576102d6565b80636623fc461461044f57806369ccdf32146104625780636bd2747114610475576102d6565b8063368e6333146103dd57806340c10f19146103f05780634130276b1461040357806342842e0e1461041657806342966c68146104295780636352211e1461043c576102d6565b80632185810b116102935780632185810b1461037457806323b872dd1461037c578063248a9ca31461038f5780632f2ff15d146103af57806330474315146103c257806336568abe146103ca576102d6565b806301ffc9a7146102db57806306fdde03146103045780630703130514610319578063081812fc1461032e578063095ea7b31461034e578063162094c414610361575b600080fd5b6102ee6102e9366004612672565b610646565b6040516102fb919061286c565b60405180910390f35b61030c61068e565b6040516102fb9190612880565b61032c610327366004612702565b61071c565b005b61034161033c366004612636565b61079d565b6040516102fb91906127c4565b61032c61035c3660046125bb565b6107e0565b61032c61036f3660046126aa565b610887565b6102ee61093a565b61032c61038a3660046124d1565b610a7c565b6103a261039d366004612636565b610ab4565b6040516102fb9190612877565b61032c6103bd36600461264e565b610ac9565b6102ee610aed565b61032c6103d836600461264e565b610afd565b61032c6103eb3660046125bb565b610b43565b61032c6103fe3660046125bb565b610bf9565b6102ee610411366004612461565b610c60565b61032c6104243660046124d1565b610ce0565b61032c610437366004612636565b610cfb565b61034161044a366004612636565b610d3d565b61032c61045d366004612636565b610d72565b61032c6104703660046125e6565b610de4565b61032c610483366004612461565b610e5f565b61032c610496366004612461565b610e77565b6103a2610e8f565b6103a26104b1366004612461565b610ea1565b6102ee610ee5565b6103a2611013565b6102ee611037565b61030c6104dc366004612636565b611047565b61032c6104ef366004612461565b611052565b6102ee61050236600461264e565b6111d5565b61032c610515366004612461565b611200565b61030c611218565b6102ee611225565b61032c610538366004612461565b611235565b6103a261054b366004612636565b61124d565b6103a2611287565b61032c61056636600461258e565b61128c565b61032c610579366004612511565b61135a565b6102ee61058c366004612461565b611393565b61030c61059f366004612636565b6113ad565b61032c6105b236600461264e565b611473565b610341611492565b6103a26114a1565b61032c6105d5366004612636565b6114b3565b6105ed6105e8366004612636565b611525565b6040516102fb949392919061282f565b6102ee61060b366004612499565b6115fe565b6103a261061e366004612461565b61162c565b610341611670565b61034161167f565b6102ee6106413660046125bb565b61168e565b60006001600160e01b031982166380ac58cd60e01b148061067757506001600160e01b03198216635b5e139f60e01b145b806106865750610686826116f3565b90505b919050565b6001805461069b90612e7d565b80601f01602080910402602001604051908101604052809291908181526020018280546106c790612e7d565b80156107145780601f106106e957610100808354040283529160200191610714565b820191906000526020600020905b8154815290600101906020018083116106f757829003601f168201915b505050505081565b610736600080516020612f1e833981519152610502611718565b61075b5760405162461bcd60e51b815260040161075290612b05565b60405180910390fd5b600061076683610d3d565b90506107718161171c565b1561078e5760405162461bcd60e51b815260040161075290612b96565b610798838361179d565b505050565b60006107a882611811565b6107c45760405162461bcd60e51b815260040161075290612893565b506000908152600860205260409020546001600160a01b031690565b60006107eb82610d3d565b9050806001600160a01b0316836001600160a01b0316141561081f5760405162461bcd60e51b8152600401610752906128f5565b806001600160a01b0316610831611718565b6001600160a01b0316146108575760405162461bcd60e51b815260040161075290612cc4565b6108608161171c565b1561087d5760405162461bcd60e51b815260040161075290612b96565b61079883836118b5565b6108a1600080516020612f1e833981519152610502611718565b6108bd5760405162461bcd60e51b815260040161075290612b05565b6108c682611811565b6108e25760405162461bcd60e51b815260040161075290612b31565b60006108ed83610d3d565b90506108f88161171c565b156109155760405162461bcd60e51b815260040161075290612b96565b6000838152600b60209081526040909120835161093492850190612320565b50505050565b6000610944611037565b6109605760405162461bcd60e51b81526004016107529061292c565b600360009054906101000a90046001600160a01b03166001600160a01b0316637e8895376040518163ffffffff1660e01b815260040160206040518083038186803b1580156109ae57600080fd5b505afa1580156109c2573d6000803e3d6000fd5b505050506040513d601f19601f820116820180604052508101906109e6919061247d565b6001600160a01b0316336001600160a01b03161480610a0f57506003546001600160a01b031633145b610a2b5760405162461bcd60e51b815260040161075290612d1b565b6004805460ff60a01b191690557f3e9a3af5b34dbcee8465c0ec9f4f535cb0e3c6a44d1179ae105ced0edbc6d92e610a61611718565b604051610a6e91906127c4565b60405180910390a150600190565b610a8d610a87611718565b82611923565b610aa95760405162461bcd60e51b815260040161075290612c56565b6107988383836119d5565b60009081526020819052604090206001015490565b610ad282610ab4565b610ae381610ade611718565b611b49565b6107988383611bad565b600454600160a81b900460ff1681565b610b05611718565b6001600160a01b0316816001600160a01b031614610b355760405162461bcd60e51b815260040161075290612d9d565b610b3f8282611c32565b5050565b610b4c81611cb5565b610b685760405162461bcd60e51b815260040161075290612b31565b610b82600080516020612f1e833981519152610502611718565b610b9e5760405162461bcd60e51b815260040161075290612b05565b6000610ba982610d3d565b9050826001600160a01b0316816001600160a01b031614610bdc5760405162461bcd60e51b815260040161075290612cc4565b506001600160a01b039091166000908152600d6020526040902055565b81610c038161171c565b15610c205760405162461bcd60e51b815260040161075290612b96565b610c3a600080516020612f1e833981519152610502611718565b610c565760405162461bcd60e51b815260040161075290612b05565b6107988383611cd2565b600080610c6c8361162c565b9050610c7781611811565b610c85576000915050610689565b6000610c9082610d3d565b9050836001600160a01b0316816001600160a01b031614610cb657600092505050610689565b6000610cc18561171c565b90508015610cd55760009350505050610689565b506001949350505050565b6107988383836040518060200160405280600081525061135a565b610d15600080516020612f1e833981519152610502611718565b610d315760405162461bcd60e51b815260040161075290612b05565b610d3a81611ddf565b50565b6000818152600660205260408120546001600160a01b0316806106865760405162461bcd60e51b815260040161075290612c02565b610d8c600080516020612f1e833981519152610502611718565b610da85760405162461bcd60e51b815260040161075290612b05565b6000610db382610d3d565b9050610dbe8161171c565b15610ddb5760405162461bcd60e51b815260040161075290612b96565b610b3f82611f07565b82610dee8161171c565b15610e0b5760405162461bcd60e51b815260040161075290612b96565b610e25600080516020612f1e833981519152610502611718565b610e415760405162461bcd60e51b815260040161075290612b05565b610e4b8484611cd2565b506000918252600c60205260409091205550565b610d3a600080516020612f1e83398151915282610ac9565b610d3a600080516020612f3e83398151915282611473565b600080516020612f3e83398151915281565b60006001600160a01b038216610ec95760405162461bcd60e51b815260040161075290612c02565b506001600160a01b031660009081526007602052604090205490565b6000610eef611037565b15610f0c5760405162461bcd60e51b815260040161075290612b68565b600360009054906101000a90046001600160a01b03166001600160a01b0316637e8895376040518163ffffffff1660e01b815260040160206040518083038186803b158015610f5a57600080fd5b505afa158015610f6e573d6000803e3d6000fd5b505050506040513d601f19601f82011682018060405250810190610f92919061247d565b6001600160a01b0316336001600160a01b03161480610fbb57506003546001600160a01b031633145b610fd75760405162461bcd60e51b815260040161075290612d1b565b6004805460ff60a01b1916600160a01b1790557fe4c361b3d777a0427514a30f90e63bc5728cf1365a8b12e93ae0bf113d8669be610a61611718565b7ffca69b310bd19d275687ebe00b254b0772cf7a367c3f81a9a5a433f831fdc1dc81565b600454600160a01b900460ff1690565b6060610686826113ad565b6005546001600160a01b0316331461107c5760405162461bcd60e51b8152600401610752906129e4565b6001600160a01b0381166110a25760405162461bcd60e51b815260040161075290612c02565b6110cc7ffca69b310bd19d275687ebe00b254b0772cf7a367c3f81a9a5a433f831fdc1dc82610ac9565b6110e4600080516020612f3e83398151915282610ac9565b6110fc600080516020612f1e83398151915282610ac9565b60055461112190600080516020612f1e833981519152906001600160a01b0316611473565b60055461114690600080516020612f3e833981519152906001600160a01b0316611473565b60055461117d907ffca69b310bd19d275687ebe00b254b0772cf7a367c3f81a9a5a433f831fdc1dc906001600160a01b0316611473565b600580546001600160a01b0319166001600160a01b0383161790556040517f0f682333a6fa3e76317e29f29765b707dba149e3449fa176a2191835342ab30f906111ca90339084906127d8565b60405180910390a150565b6000828152602081815260408083206001600160a01b038516845290915290205460ff165b92915050565b610d3a600080516020612f3e83398151915282610ac9565b6002805461069b90612e7d565b600454600160a01b900460ff1681565b610d3a600080516020612f1e83398151915282611473565b600061125882611cb5565b6112745760405162461bcd60e51b815260040161075290612b31565b506000908152600c602052604090205490565b600081565b611294611718565b6001600160a01b0316826001600160a01b031614156112c55760405162461bcd60e51b815260040161075290612a0d565b80600960006112d2611718565b6001600160a01b03908116825260208083019390935260409182016000908120918716808252919093529120805460ff191692151592909217909155611316611718565b6001600160a01b03167f17307eab39ab6107e8899845ad3d59bd9653f200f220920489ca2b5937696c318360405161134e919061286c565b60405180910390a35050565b61136b611365611718565b83611923565b6113875760405162461bcd60e51b815260040161075290612c56565b61093484848484611f9a565b6000610686600080516020612f3e833981519152836111d5565b60606113b882611cb5565b6113d45760405162461bcd60e51b815260040161075290612b31565b6000828152600b6020526040812080546113ed90612e7d565b80601f016020809104026020016040519081016040528092919081815260200182805461141990612e7d565b80156114665780601f1061143b57610100808354040283529160200191611466565b820191906000526020600020905b81548152906001019060200180831161144957829003601f168201915b5093979650505050505050565b61147c82610ab4565b61148881610ade611718565b6107988383611c32565b6004546001600160a01b031681565b600080516020612f1e83398151915281565b6114cd600080516020612f1e833981519152610502611718565b6114e95760405162461bcd60e51b815260040161075290612b05565b60006114f482610d3d565b90506114ff8161171c565b1561151c5760405162461bcd60e51b815260040161075290612b96565b610b3f82611fcd565b6000806060600061153585610d3d565b6000868152600a6020908152604080832054600b909252909120805492965060ff90911694509061156590612e7d565b80601f016020809104026020016040519081016040528092919081815260200182805461159190612e7d565b80156115de5780601f106115b3576101008083540402835291602001916115de565b820191906000526020600020905b8154815290600101906020018083116115c157829003601f168201915b50505060009788525050600c602052604090952054939592949392915050565b6001600160a01b03918216600090815260096020908152604080832093909416825291909152205460ff1690565b60006001600160a01b0382166116545760405162461bcd60e51b815260040161075290612c02565b506001600160a01b03166000908152600d602052604090205490565b6005546001600160a01b031681565b6003546001600160a01b031681565b600061169982611811565b6116a5575060006111fa565b60006116b083610d3d565b9050836001600160a01b0316816001600160a01b0316146116d55760009150506111fa565b60006116e08561171c565b90508015610cd5576000925050506111fa565b60006001600160e01b03198216637965db0b60e01b1480610686575061068682612035565b3390565b60035460405163fe575a8760e01b81526000916001600160a01b03169063fe575a879061174d9085906004016127c4565b60206040518083038186803b15801561176557600080fd5b505afa158015611779573d6000803e3d6000fd5b505050506040513d601f19601f82011682018060405250810190610686919061261a565b6117a682611811565b6117c25760405162461bcd60e51b815260040161075290612a84565b6000828152600c6020526040908190208290555182907f1ebc57da8b3ebab98506502fbb73232ea29fbe86e4963a5a8c004810ad11190d90611805908490612877565b60405180910390a25050565b6000818152600c60205260408120541561187b576000828152600660205260409020546001600160a01b03161580159061185a57506000828152600a602052604090205460ff16155b801561187457506000828152600c60205260409020544211155b9050610689565b6000828152600660205260409020546001600160a01b0316158015906118745750506000818152600a602052604090205460ff1615610689565b600081815260086020526040902080546001600160a01b0319166001600160a01b03841690811790915581906118ea82610d3d565b6001600160a01b03167f8c5be1e5ebec7d5bd14f71427d1e84f3dd0314c0f7b2291e5b200ac8c7c3b92560405160405180910390a45050565b600061192e82611cb5565b61194a5760405162461bcd60e51b815260040161075290612a38565b600061195583610d3d565b9050806001600160a01b0316846001600160a01b0316141561198257611979611037565b159150506111fa565b836001600160a01b03166119958461079d565b6001600160a01b031614806119af57506119af81856115fe565b806119cd57506119cd600080516020612f1e833981519152856111d5565b9150506111fa565b826001600160a01b03166119e882610d3d565b6001600160a01b031614611a0e5760405162461bcd60e51b8152600401610752906129b5565b6001600160a01b038216611a345760405162461bcd60e51b815260040161075290612d66565b611a3f838383610798565b611a4a6000826118b5565b6001600160a01b0383166000908152600d6020526040902054811415611a91576001600160a01b038084166000908152600d60205260408082208290559184168152208190555b6001600160a01b0383166000908152600760205260408120805460019290611aba908490612e23565b90915550506001600160a01b0382166000908152600760205260408120805460019290611ae8908490612dec565b909155505060008181526006602052604080822080546001600160a01b0319166001600160a01b0386811691821790925591518493918716917fddf252ad1be2c89b69c2b068fc378daa952ba7f163c4a11628f55a4df523b3ef91a4505050565b611b5382826111d5565b610b3f57611b6b816001600160a01b0316601461204e565b611b7683602061204e565b604051602001611b8792919061274f565b60408051601f198184030181529082905262461bcd60e51b825261075291600401612880565b611bb782826111d5565b610b3f576000828152602081815260408083206001600160a01b03851684529091529020805460ff19166001179055611bee611718565b6001600160a01b0316816001600160a01b0316837f2f8788117e7eff1d82e926ec794901d17c78024a50270940304540a733656f0d60405160405180910390a45050565b611c3c82826111d5565b15610b3f576000828152602081815260408083206001600160a01b03851684529091529020805460ff19169055611c71611718565b6001600160a01b0316816001600160a01b0316837ff6391f5c32d9c69d2a47ea670b442974b53935d1edc7fd64eb21e047a839171b60405160405180910390a45050565b6000908152600660205260409020546001600160a01b0316151590565b6001600160a01b038216611cf85760405162461bcd60e51b815260040161075290612c02565b611d0181611cb5565b15611d1e5760405162461bcd60e51b815260040161075290612ced565b6001600160a01b0382166000908152600760205260408120805460019290611d47908490612dec565b9091555050600081815260066020908152604080832080546001600160a01b0319166001600160a01b0387169081179091558352600d909152902054611da3576001600160a01b0382166000908152600d602052604090208190555b60405181906001600160a01b038416906000907fddf252ad1be2c89b69c2b068fc378daa952ba7f163c4a11628f55a4df523b3ef908290a45050565b6000611dea82610d3d565b9050611df76000836118b5565b6000828152600a60209081526040808320805460ff19169055600c8252808320839055600b90915290208054611e2c90612e7d565b159050611e4a576000828152600b60205260408120611e4a916123a4565b6001600160a01b0381166000908152600d6020526040902054821415611e84576001600160a01b0381166000908152600d60205260408120555b6001600160a01b0381166000908152600760205260408120805460019290611ead908490612e23565b909155505060008281526006602052604080822080546001600160a01b0319169055518391906001600160a01b038416907fddf252ad1be2c89b69c2b068fc378daa952ba7f163c4a11628f55a4df523b3ef908390a45050565b611f1081611cb5565b611f2c5760405162461bcd60e51b815260040161075290612c28565b6000818152600a602052604090205460ff16611f5a5760405162461bcd60e51b815260040161075290612c99565b6000818152600a6020526040808220805460ff191690555182917fe2babfd5e77285a3c3dbc4b25592cbe4a7a26e97a7ac63067a22ebdaa9b82add91a250565b611fa58484846119d5565b611fb184848484612207565b6109345760405162461bcd60e51b815260040161075290612abb565b611fd681611811565b611ff25760405162461bcd60e51b815260040161075290612bc0565b6000818152600a6020526040808220805460ff191660011790555182917f779fbee689bbd6f006ecb329206d35c7db7380f9837a8826fb8dc5cfcd3d33dd91a250565b6001600160e01b031981166301ffc9a760e01b14919050565b6060600061205d836002612e04565b612068906002612dec565b67ffffffffffffffff81111561208e57634e487b7160e01b600052604160045260246000fd5b6040519080825280601f01601f1916602001820160405280156120b8576020820181803683370190505b509050600360fc1b816000815181106120e157634e487b7160e01b600052603260045260246000fd5b60200101906001600160f81b031916908160001a905350600f60fb1b8160018151811061211e57634e487b7160e01b600052603260045260246000fd5b60200101906001600160f81b031916908160001a9053506000612142846002612e04565b61214d906001612dec565b90505b60018111156121e1576f181899199a1a9b1b9c1cb0b131b232b360811b85600f166010811061218f57634e487b7160e01b600052603260045260246000fd5b1a60f81b8282815181106121b357634e487b7160e01b600052603260045260246000fd5b60200101906001600160f81b031916908160001a90535060049490941c936121da81612e66565b9050612150565b5083156122005760405162461bcd60e51b8152600401610752906128c0565b9392505050565b600061221b846001600160a01b031661231a565b15610cd557836001600160a01b031663150b7a02612237611718565b8786866040518563ffffffff1660e01b815260040161225994939291906127f2565b602060405180830381600087803b15801561227357600080fd5b505af19250505080156122a3575060408051601f3d908101601f191682019092526122a09181019061268e565b60015b6122fd573d8080156122d1576040519150601f19603f3d011682016040523d82523d6000602084013e6122d6565b606091505b5080516122f55760405162461bcd60e51b815260040161075290612963565b805181602001fd5b6001600160e01b031916630a85bd0160e11b149050949350505050565b3b151590565b82805461232c90612e7d565b90600052602060002090601f01602090048101928261234e5760008555612394565b82601f1061236757805160ff1916838001178555612394565b82800160010185558215612394579182015b82811115612394578251825591602001919060010190612379565b506123a09291506123dc565b5090565b5080546123b090612e7d565b6000825580601f106123c25750610d3a565b601f016020900490600052602060002090810190610d3a91905b5b808211156123a057600081556001016123dd565b600067ffffffffffffffff8084111561240c5761240c612ece565b604051601f8501601f19168101602001828111828210171561243057612430612ece565b60405284815291508183850186101561244857600080fd5b8484602083013760006020868301015250509392505050565b600060208284031215612472578081fd5b813561220081612ee4565b60006020828403121561248e578081fd5b815161220081612ee4565b600080604083850312156124ab578081fd5b82356124b681612ee4565b915060208301356124c681612ee4565b809150509250929050565b6000806000606084860312156124e5578081fd5b83356124f081612ee4565b9250602084013561250081612ee4565b929592945050506040919091013590565b60008060008060808587031215612526578081fd5b843561253181612ee4565b9350602085013561254181612ee4565b925060408501359150606085013567ffffffffffffffff811115612563578182fd5b8501601f81018713612573578182fd5b612582878235602084016123f1565b91505092959194509250565b600080604083850312156125a0578182fd5b82356125ab81612ee4565b915060208301356124c681612ef9565b600080604083850312156125cd578182fd5b82356125d881612ee4565b946020939093013593505050565b6000806000606084860312156125fa578283fd5b833561260581612ee4565b95602085013595506040909401359392505050565b60006020828403121561262b578081fd5b815161220081612ef9565b600060208284031215612647578081fd5b5035919050565b60008060408385031215612660578182fd5b8235915060208301356124c681612ee4565b600060208284031215612683578081fd5b813561220081612f07565b60006020828403121561269f578081fd5b815161220081612f07565b600080604083850312156126bc578182fd5b82359150602083013567ffffffffffffffff8111156126d9578182fd5b8301601f810185136126e9578182fd5b6126f8858235602084016123f1565b9150509250929050565b60008060408385031215612714578182fd5b50508035926020909101359150565b6000815180845261273b816020860160208601612e3a565b601f01601f19169290920160200192915050565b60007f416363657373436f6e74726f6c3a206163636f756e742000000000000000000082528351612787816017850160208801612e3a565b7001034b99036b4b9b9b4b733903937b6329607d1b60179184019182015283516127b8816028840160208801612e3a565b01602801949350505050565b6001600160a01b0391909116815260200190565b6001600160a01b0392831681529116602082015260400190565b6001600160a01b038581168252841660208201526040810183905260806060820181905260009061282590830184612723565b9695505050505050565b6001600160a01b0385168152831515602082015260806040820181905260009061285b90830185612723565b905082606083015295945050505050565b901515815260200190565b90815260200190565b6000602082526122006020830184612723565b6020808252601390820152721513d2d153881113d154d389d50811561254d5606a1b604082015260600190565b6020808252818101527f537472696e67733a20686578206c656e67746820696e73756666696369656e74604082015260600190565b6020808252601d908201527f494e434f525245435420415050524f56452044455354494e4154494f4e000000604082015260600190565b60208082526018908201527f5452414e5346455253204e4f5420524553545249435445440000000000000000604082015260600190565b60208082526032908201527f4552433732313a207472616e7366657220746f206e6f6e20455243373231526560408201527131b2b4bb32b91034b6b83632b6b2b73a32b960711b606082015260800190565b60208082526015908201527424a721a7a92922a1aa102a27a5a2a71027aba722a960591b604082015260600190565b6020808252600f908201526e2727aa102220a79026a0a720a3a2a960891b604082015260600190565b602080825260119082015270494e434f525245435420415050524f564560781b604082015260600190565b6020808252602c908201527f4552433732313a206f70657261746f7220717565727920666f72206e6f6e657860408201526b34b9ba32b73a103a37b5b2b760a11b606082015260800190565b6020808252601e908201527f544f4b454e20444f45534e275420455849535453204f52204143544956450000604082015260600190565b6020808252602a908201527f5452414e5346455220544f204e4f4e204552433732315265636569766572204960408201526926a82622a6a2a72a22a960b11b606082015260800190565b60208082526012908201527126aaa9aa1021229023a0aa22a5a2a2a822a960711b604082015260600190565b6020808252601e908201527f544f4b454e20444f45534e2754204558495354204f5220465245455a45440000604082015260600190565b6020808252601490820152731514905394d1915494c8149154d5149250d5115160621b604082015260600190565b60208082526010908201526f212620a1a5a624a9aa22a2102aa9a2a960811b604082015260600190565b60208082526022908201527f544f4b454e20444f45534e275420455849535453204f52204e4f542041435449604082015261564560f01b606082015260800190565b6020808252600c908201526b5a45524f204144445245535360a01b604082015260600190565b602080825260149082015273544f4b454e20444f45534e27542045584953545360601b604082015260600190565b60208082526023908201527f4d53472e53454e444552204e4f54204f574e4552204e4f5220474154454b45456040820152622822a960e91b606082015260800190565b6020808252601190820152701513d2d153881393d50811949151569151607a1b604082015260600190565b6020808252600f908201526e24a721a7a92922a1aa1027aba722a960891b604082015260600190565b602080825260149082015273544f4b454e20414c52454144592045584953545360601b604082015260600190565b6020808252602b908201527f4e4f54204944454e544954592e434f4d2041444d494e204e4f5220544f4b454e60408201526a1021a7a72a2927a62622a960a91b606082015260800190565b60208082526018908201527f5452414e5346455220544f205a45524f20414444524553530000000000000000604082015260600190565b6020808252602f908201527f416363657373436f6e74726f6c3a2063616e206f6e6c792072656e6f756e636560408201526e103937b632b9903337b91039b2b63360891b606082015260800190565b60008219821115612dff57612dff612eb8565b500190565b6000816000190483118215151615612e1e57612e1e612eb8565b500290565b600082821015612e3557612e35612eb8565b500390565b60005b83811015612e55578181015183820152602001612e3d565b838111156109345750506000910152565b600081612e7557612e75612eb8565b506000190190565b600281046001821680612e9157607f821691505b60208210811415612eb257634e487b7160e01b600052602260045260246000fd5b50919050565b634e487b7160e01b600052601160045260246000fd5b634e487b7160e01b600052604160045260246000fd5b6001600160a01b0381168114610d3a57600080fd5b8015158114610d3a57600080fd5b6001600160e01b031981168114610d3a57600080fdfe3c63e605be3290ab6b04cfc46c6e1516e626d43236b034f09d7ede1d017beb0c449b0a7e0acc0a95c71947cb19fdd122b42abca9bdfbd6707ca4f1e3fdaef05ea2646970667358221220d47c53780ce5ce3e5f1e035fccb5862b7eb3b84cb9484fcb66482b383df6c85664736f6c63430008000033fca69b310bd19d275687ebe00b254b0772cf7a367c3f81a9a5a433f831fdc1dc3c63e605be3290ab6b04cfc46c6e1516e626d43236b034f09d7ede1d017beb0c449b0a7e0acc0a95c71947cb19fdd122b42abca9bdfbd6707ca4f1e3fdaef05ea264697066735822122061d0f53e758ef01d34854e9a1004ea4e35e868e15c0289fe192e5835d0eb0d4764736f6c63430008000033",
  "devdoc": {
    "details": "Gateway Token Controller contract is responsible for managing Identity.com KYC gateway token set of smart contracts Contract handles multiple levels of access such as Network Authority (may represent a specific regulator body)  Gatekeepers (Identity.com network parties who can mint/burn/freeze gateway tokens) and overall system Admin who can add new Network Authorities",
    "kind": "dev",
    "methods": {
      "acceptTransfersBatch(address[])": {
        "details": "Accepts owner's transfers for specified gateway tokens",
        "params": {
          "tokens": "Gateway Token contracts address array"
        }
      },
      "addNetworkAuthorities(address,address[])": {
        "details": "Triggers to add multiple network authorities in gateway token contract. ",
        "params": {
          "authorities": "Network Authorities array",
          "token": "Gateway Token contract address"
        }
      },
      "blacklist(address)": {
        "details": "Blacklists specified `user` completely, user can't get KYC verification on any gateway token networks.",
        "params": {
          "user": "Address to blacklist."
        }
      },
      "blacklistBatch(address[])": {
        "details": "Blacklist multiple `users`, user can't get KYC verification on any gateway token networks.",
        "params": {
          "users": "User addresses to blacklist."
        }
      },
      "constructor": {
        "details": "Gateway Token Controller contract constructor.  Grants admin role to contract deployer"
      },
      "createGatekeeperNetwork(string,string,bool,address)": {
        "details": "Deploys new Gateway Token and save address at gatewayTokens address set.",
        "params": {
          "_name": "Gateway Token name",
          "_symbol": "Gateway Token symbol"
        }
      },
      "isBlacklisted(address)": {
        "details": "Checks if specified `user` blacklisted completely.  If user blacklisted gateway token clients not able to verify identity,  and gatekeepers have to burn tokens owned by blacklisted users.",
        "params": {
          "user": "Address to check."
        }
      },
      "removeNetworkAuthorities(address,address[])": {
        "details": "Triggers to remove multiple network authorities in gateway token contract. ",
        "params": {
          "authorities": "Network Authorities array",
          "token": "Gateway Token contract address"
        }
      },
      "restrictTransfersBatch(address[])": {
        "details": "Restricts owner's transfers for specified gateway tokens",
        "params": {
          "tokens": "Gateway Token contracts address array"
        }
      },
      "transferAdmin(address)": {
        "details": "Transfers Gateway Token system admin access in case Identity.com changes the main management address",
        "params": {
          "newAdmin": "Address to transfer admin role for."
        }
      }
    },
    "stateVariables": {
      "identityAdmin": {
        "details": "Triggers to get Identity.com System Admin"
      }
    },
    "version": 1
  },
  "userdoc": {
    "kind": "user",
    "methods": {
      "addNetworkAuthorities(address,address[])": {
        "notice": "Only triggered by identityAdmin"
      },
      "blacklist(address)": {
        "notice": "Once user is blacklisted there is no way to whitelist, please use this function carefully."
      },
      "blacklistBatch(address[])": {
        "notice": "Once user is blacklisted there is no way to whitelist, please use this function carefully."
      },
      "removeNetworkAuthorities(address,address[])": {
        "notice": "Only triggered by identityAdmin"
      }
    },
    "version": 1
  },
  "storageLayout": {
    "storage": [
      {
        "astId": 3434,
        "contract": "contracts/GatewayTokenController.sol:GatewayTokenController",
        "label": "gatewayTokens",
        "offset": 0,
        "slot": "0",
        "type": "t_struct(AddressSet)1372_storage"
      },
      {
        "astId": 3437,
        "contract": "contracts/GatewayTokenController.sol:GatewayTokenController",
        "label": "identityAdmin",
        "offset": 0,
        "slot": "2",
        "type": "t_address"
      },
      {
        "astId": 3441,
        "contract": "contracts/GatewayTokenController.sol:GatewayTokenController",
        "label": "_isBlacklisted",
        "offset": 0,
        "slot": "3",
        "type": "t_mapping(t_address,t_bool)"
      }
    ],
    "types": {
      "t_address": {
        "encoding": "inplace",
        "label": "address",
        "numberOfBytes": "20"
      },
      "t_array(t_bytes32)dyn_storage": {
        "base": "t_bytes32",
        "encoding": "dynamic_array",
        "label": "bytes32[]",
        "numberOfBytes": "32"
      },
      "t_bool": {
        "encoding": "inplace",
        "label": "bool",
        "numberOfBytes": "1"
      },
      "t_bytes32": {
        "encoding": "inplace",
        "label": "bytes32",
        "numberOfBytes": "32"
      },
      "t_mapping(t_address,t_bool)": {
        "encoding": "mapping",
        "key": "t_address",
        "label": "mapping(address => bool)",
        "numberOfBytes": "32",
        "value": "t_bool"
      },
      "t_mapping(t_bytes32,t_uint256)": {
        "encoding": "mapping",
        "key": "t_bytes32",
        "label": "mapping(bytes32 => uint256)",
        "numberOfBytes": "32",
        "value": "t_uint256"
      },
      "t_struct(AddressSet)1372_storage": {
        "encoding": "inplace",
        "label": "struct EnumerableSet.AddressSet",
        "members": [
          {
            "astId": 1371,
            "contract": "contracts/GatewayTokenController.sol:GatewayTokenController",
            "label": "_inner",
            "offset": 0,
            "slot": "0",
            "type": "t_struct(Set)1097_storage"
          }
        ],
        "numberOfBytes": "64"
      },
      "t_struct(Set)1097_storage": {
        "encoding": "inplace",
        "label": "struct EnumerableSet.Set",
        "members": [
          {
            "astId": 1092,
            "contract": "contracts/GatewayTokenController.sol:GatewayTokenController",
            "label": "_values",
            "offset": 0,
            "slot": "0",
            "type": "t_array(t_bytes32)dyn_storage"
          },
          {
            "astId": 1096,
            "contract": "contracts/GatewayTokenController.sol:GatewayTokenController",
            "label": "_indexes",
            "offset": 0,
            "slot": "1",
            "type": "t_mapping(t_bytes32,t_uint256)"
          }
        ],
        "numberOfBytes": "64"
      },
      "t_uint256": {
        "encoding": "inplace",
        "label": "uint256",
        "numberOfBytes": "32"
      }
    }
  }
}