{
  "_format": "hh-sol-artifact-1",
  "contractName": "GatewayTokenInternalsTest",
  "sourceName": "test/contracts/GatewayTokenInternalsTest.sol",
  "abi": [
    {
      "inputs": [],
      "name": "Common__MissingAccount",
      "type": "error"
    },
    {
      "inputs": [
        {
          "internalType": "address",
          "name": "account",
          "type": "address"
        }
      ],
      "name": "Common__NotContract",
      "type": "error"
    },
    {
      "inputs": [
        {
          "internalType": "address",
          "name": "account",
          "type": "address"
        }
      ],
      "name": "Common__NotSuperAdmin",
      "type": "error"
    },
    {
      "inputs": [
        {
          "internalType": "address",
          "name": "sender",
          "type": "address"
        },
        {
          "internalType": "uint256",
          "name": "domain",
          "type": "uint256"
        },
        {
          "internalType": "bytes32",
          "name": "role",
          "type": "bytes32"
        }
      ],
      "name": "Common__Unauthorized",
      "type": "error"
    },
    {
      "inputs": [
        {
          "internalType": "uint256",
          "name": "available",
          "type": "uint256"
        },
        {
          "internalType": "uint256",
          "name": "required",
          "type": "uint256"
        }
      ],
      "name": "GatewayToken__InsufficientFunds",
      "type": "error"
    },
    {
      "inputs": [
        {
          "internalType": "uint256",
          "name": "network",
          "type": "uint256"
        }
      ],
      "name": "GatewayToken__NetworkAlreadyExists",
      "type": "error"
    },
    {
      "inputs": [
        {
          "internalType": "uint256",
          "name": "network",
          "type": "uint256"
        }
      ],
      "name": "GatewayToken__NetworkDoesNotExist",
      "type": "error"
    },
    {
      "inputs": [
        {
          "internalType": "uint256",
          "name": "network",
          "type": "uint256"
        }
      ],
      "name": "GatewayToken__NotDAOGoverned",
      "type": "error"
    },
    {
      "inputs": [
        {
          "internalType": "uint256",
          "name": "tokenId",
          "type": "uint256"
        }
      ],
      "name": "GatewayToken__TokenDoesNotExist",
      "type": "error"
    },
    {
      "inputs": [
        {
          "internalType": "uint256",
          "name": "tokenId",
          "type": "uint256"
        },
        {
          "internalType": "bool",
          "name": "allowExpired",
          "type": "bool"
        }
      ],
      "name": "GatewayToken__TokenDoesNotExistOrIsInactive",
      "type": "error"
    },
    {
      "inputs": [
        {
          "internalType": "uint256",
          "name": "tokenId",
          "type": "uint256"
        },
        {
          "internalType": "enum IGatewayToken.TokenState",
          "name": "state",
          "type": "uint8"
        },
        {
          "internalType": "enum IGatewayToken.TokenState",
          "name": "expectedState",
          "type": "uint8"
        }
      ],
      "name": "GatewayToken__TokenInvalidStateForOperation",
      "type": "error"
    },
    {
      "inputs": [],
      "name": "GatewayToken__TransferDisabled",
      "type": "error"
    },
    {
      "inputs": [
        {
          "internalType": "bytes32",
          "name": "role",
          "type": "bytes32"
        },
        {
          "internalType": "address",
          "name": "account",
          "type": "address"
        }
      ],
      "name": "ParameterizedAccessControl__RenounceRoleNotForSelf",
      "type": "error"
    },
    {
      "anonymous": false,
      "inputs": [
        {
          "indexed": false,
          "internalType": "address",
          "name": "previousAdmin",
          "type": "address"
        },
        {
          "indexed": false,
          "internalType": "address",
          "name": "newAdmin",
          "type": "address"
        }
      ],
      "name": "AdminChanged",
      "type": "event"
    },
    {
      "anonymous": false,
      "inputs": [
        {
          "indexed": true,
          "internalType": "address",
          "name": "_owner",
          "type": "address"
        },
        {
          "indexed": true,
          "internalType": "address",
          "name": "_approved",
          "type": "address"
        },
        {
          "indexed": true,
          "internalType": "uint256",
          "name": "_tokenId",
          "type": "uint256"
        }
      ],
      "name": "Approval",
      "type": "event"
    },
    {
      "anonymous": false,
      "inputs": [
        {
          "indexed": true,
          "internalType": "address",
          "name": "_owner",
          "type": "address"
        },
        {
          "indexed": true,
          "internalType": "address",
          "name": "_operator",
          "type": "address"
        },
        {
          "indexed": false,
          "internalType": "bool",
          "name": "_approved",
          "type": "bool"
        }
      ],
      "name": "ApprovalForAll",
      "type": "event"
    },
    {
      "anonymous": false,
      "inputs": [
        {
          "indexed": true,
          "internalType": "uint256",
          "name": "_tokenId",
          "type": "uint256"
        },
        {
          "indexed": true,
          "internalType": "address",
          "name": "_operator",
          "type": "address"
        },
        {
          "indexed": false,
          "internalType": "uint256",
          "name": "_value",
          "type": "uint256"
        }
      ],
      "name": "ApprovalValue",
      "type": "event"
    },
    {
      "anonymous": false,
      "inputs": [],
      "name": "AuthorizedUpgrade",
      "type": "event"
    },
    {
      "anonymous": false,
      "inputs": [
        {
          "indexed": true,
          "internalType": "address",
          "name": "beacon",
          "type": "address"
        }
      ],
      "name": "BeaconUpgraded",
      "type": "event"
    },
    {
      "anonymous": false,
      "inputs": [
        {
          "indexed": false,
          "internalType": "uint256",
          "name": "tokenId",
          "type": "uint256"
        },
        {
          "indexed": false,
          "internalType": "uint256",
          "name": "bitmask",
          "type": "uint256"
        }
      ],
      "name": "BitMaskUpdated",
      "type": "event"
    },
    {
      "anonymous": false,
      "inputs": [
        {
          "indexed": false,
          "internalType": "address",
          "name": "previousDAOManager",
          "type": "address"
        },
        {
          "indexed": false,
          "internalType": "address",
          "name": "newDAOManager",
          "type": "address"
        },
        {
          "indexed": false,
          "internalType": "uint256",
          "name": "network",
          "type": "uint256"
        }
      ],
      "name": "DAOManagerTransferred",
      "type": "event"
    },
    {
      "anonymous": false,
      "inputs": [
        {
          "indexed": true,
          "internalType": "uint256",
          "name": "tokenId",
          "type": "uint256"
        },
        {
          "indexed": false,
          "internalType": "uint256",
          "name": "timestamp",
          "type": "uint256"
        }
      ],
      "name": "Expiration",
      "type": "event"
    },
    {
      "anonymous": false,
      "inputs": [
        {
          "indexed": true,
          "internalType": "address",
          "name": "flagsStorage",
          "type": "address"
        }
      ],
      "name": "FlagsStorageUpdated",
      "type": "event"
    },
    {
      "anonymous": false,
      "inputs": [
        {
          "indexed": true,
          "internalType": "uint256",
          "name": "tokenId",
          "type": "uint256"
        }
      ],
      "name": "Freeze",
      "type": "event"
    },
    {
      "anonymous": false,
      "inputs": [
        {
          "indexed": false,
          "internalType": "uint8",
          "name": "version",
          "type": "uint8"
        }
      ],
      "name": "Initialized",
      "type": "event"
    },
    {
      "anonymous": false,
      "inputs": [
        {
          "indexed": false,
          "internalType": "bytes",
          "name": "",
          "type": "bytes"
        }
      ],
      "name": "MsgData",
      "type": "event"
    },
    {
      "anonymous": false,
      "inputs": [
        {
          "indexed": false,
          "internalType": "address",
          "name": "",
          "type": "address"
        }
      ],
      "name": "MsgSender",
      "type": "event"
    },
    {
      "anonymous": false,
      "inputs": [
        {
          "indexed": true,
          "internalType": "uint256",
          "name": "tokenId",
          "type": "uint256"
        }
      ],
      "name": "Revoke",
      "type": "event"
    },
    {
      "anonymous": false,
      "inputs": [
        {
          "indexed": true,
          "internalType": "bytes32",
          "name": "role",
          "type": "bytes32"
        },
        {
          "indexed": false,
          "internalType": "uint256",
          "name": "domain",
          "type": "uint256"
        },
        {
          "indexed": true,
          "internalType": "bytes32",
          "name": "previousAdminRole",
          "type": "bytes32"
        },
        {
          "indexed": true,
          "internalType": "bytes32",
          "name": "newAdminRole",
          "type": "bytes32"
        }
      ],
      "name": "RoleAdminChanged",
      "type": "event"
    },
    {
      "anonymous": false,
      "inputs": [
        {
          "indexed": true,
          "internalType": "bytes32",
          "name": "role",
          "type": "bytes32"
        },
        {
          "indexed": false,
          "internalType": "uint256",
          "name": "domain",
          "type": "uint256"
        },
        {
          "indexed": true,
          "internalType": "address",
          "name": "account",
          "type": "address"
        },
        {
          "indexed": true,
          "internalType": "address",
          "name": "sender",
          "type": "address"
        }
      ],
      "name": "RoleGranted",
      "type": "event"
    },
    {
      "anonymous": false,
      "inputs": [
        {
          "indexed": true,
          "internalType": "bytes32",
          "name": "role",
          "type": "bytes32"
        },
        {
          "indexed": false,
          "internalType": "uint256",
          "name": "domain",
          "type": "uint256"
        },
        {
          "indexed": true,
          "internalType": "address",
          "name": "account",
          "type": "address"
        },
        {
          "indexed": true,
          "internalType": "address",
          "name": "sender",
          "type": "address"
        }
      ],
      "name": "RoleRevoked",
      "type": "event"
    },
    {
      "anonymous": false,
      "inputs": [
        {
          "indexed": true,
          "internalType": "address",
          "name": "metadataDescriptor",
          "type": "address"
        }
      ],
      "name": "SetMetadataDescriptor",
      "type": "event"
    },
    {
      "anonymous": false,
      "inputs": [
        {
          "indexed": true,
          "internalType": "uint256",
          "name": "_tokenId",
          "type": "uint256"
        },
        {
          "indexed": true,
          "internalType": "uint256",
          "name": "_oldSlot",
          "type": "uint256"
        },
        {
          "indexed": true,
          "internalType": "uint256",
          "name": "_newSlot",
          "type": "uint256"
        }
      ],
      "name": "SlotChanged",
      "type": "event"
    },
    {
      "anonymous": false,
      "inputs": [
        {
          "indexed": true,
          "internalType": "address",
          "name": "account",
          "type": "address"
        }
      ],
      "name": "SuperAdminAdded",
      "type": "event"
    },
    {
      "anonymous": false,
      "inputs": [
        {
          "indexed": true,
          "internalType": "address",
          "name": "account",
          "type": "address"
        }
      ],
      "name": "SuperAdminRemoved",
      "type": "event"
    },
    {
      "anonymous": false,
      "inputs": [
        {
          "indexed": true,
          "internalType": "address",
          "name": "_from",
          "type": "address"
        },
        {
          "indexed": true,
          "internalType": "address",
          "name": "_to",
          "type": "address"
        },
        {
          "indexed": true,
          "internalType": "uint256",
          "name": "_tokenId",
          "type": "uint256"
        }
      ],
      "name": "Transfer",
      "type": "event"
    },
    {
      "anonymous": false,
      "inputs": [
        {
          "indexed": true,
          "internalType": "uint256",
          "name": "_fromTokenId",
          "type": "uint256"
        },
        {
          "indexed": true,
          "internalType": "uint256",
          "name": "_toTokenId",
          "type": "uint256"
        },
        {
          "indexed": false,
          "internalType": "uint256",
          "name": "_value",
          "type": "uint256"
        }
      ],
      "name": "TransferValue",
      "type": "event"
    },
    {
      "anonymous": false,
      "inputs": [
        {
          "indexed": true,
          "internalType": "uint256",
          "name": "tokenId",
          "type": "uint256"
        }
      ],
      "name": "Unfreeze",
      "type": "event"
    },
    {
      "anonymous": false,
      "inputs": [
        {
          "indexed": true,
          "internalType": "address",
          "name": "implementation",
          "type": "address"
        }
      ],
      "name": "Upgraded",
      "type": "event"
    },
    {
      "inputs": [],
      "name": "DAO_MANAGER_ROLE",
      "outputs": [
        {
          "internalType": "bytes32",
          "name": "",
          "type": "bytes32"
        }
      ],
      "stateMutability": "view",
      "type": "function"
    },
    {
      "inputs": [],
      "name": "DEFAULT_ADMIN_ROLE",
      "outputs": [
        {
          "internalType": "bytes32",
          "name": "",
          "type": "bytes32"
        }
      ],
      "stateMutability": "view",
      "type": "function"
    },
    {
      "inputs": [],
      "name": "GATEKEEPER_ROLE",
      "outputs": [
        {
          "internalType": "bytes32",
          "name": "",
          "type": "bytes32"
        }
      ],
      "stateMutability": "view",
      "type": "function"
    },
    {
      "inputs": [],
      "name": "NETWORK_AUTHORITY_ROLE",
      "outputs": [
        {
          "internalType": "bytes32",
          "name": "",
          "type": "bytes32"
        }
      ],
      "stateMutability": "view",
      "type": "function"
    },
    {
      "inputs": [
        {
          "internalType": "address",
          "name": "forwarder",
          "type": "address"
        }
      ],
      "name": "addForwarder",
      "outputs": [],
      "stateMutability": "nonpayable",
      "type": "function"
    },
    {
      "inputs": [
        {
          "internalType": "address",
          "name": "gatekeeper",
          "type": "address"
        },
        {
          "internalType": "uint256",
          "name": "network",
          "type": "uint256"
        }
      ],
      "name": "addGatekeeper",
      "outputs": [],
      "stateMutability": "nonpayable",
      "type": "function"
    },
    {
      "inputs": [
        {
          "internalType": "address",
          "name": "authority",
          "type": "address"
        },
        {
          "internalType": "uint256",
          "name": "network",
          "type": "uint256"
        }
      ],
      "name": "addNetworkAuthority",
      "outputs": [],
      "stateMutability": "nonpayable",
      "type": "function"
    },
    {
      "inputs": [
        {
          "internalType": "uint256",
          "name": "tokenId_",
          "type": "uint256"
        },
        {
          "internalType": "address",
          "name": "operator_",
          "type": "address"
        }
      ],
      "name": "allowance",
      "outputs": [
        {
          "internalType": "uint256",
          "name": "",
          "type": "uint256"
        }
      ],
      "stateMutability": "view",
      "type": "function"
    },
    {
      "inputs": [
        {
          "internalType": "address",
          "name": "",
          "type": "address"
        },
        {
          "internalType": "uint256",
          "name": "",
          "type": "uint256"
        }
      ],
      "name": "approve",
      "outputs": [],
      "stateMutability": "payable",
      "type": "function"
    },
    {
      "inputs": [
        {
          "internalType": "uint256",
          "name": "",
          "type": "uint256"
        },
        {
          "internalType": "address",
          "name": "",
          "type": "address"
        },
        {
          "internalType": "uint256",
          "name": "",
          "type": "uint256"
        }
      ],
      "name": "approve",
      "outputs": [],
      "stateMutability": "payable",
      "type": "function"
    },
    {
      "inputs": [],
      "name": "authorizedUpgrade",
      "outputs": [],
      "stateMutability": "nonpayable",
      "type": "function"
    },
    {
      "inputs": [
        {
          "internalType": "address",
          "name": "owner_",
          "type": "address"
        }
      ],
      "name": "balanceOf",
      "outputs": [
        {
          "internalType": "uint256",
          "name": "balance",
          "type": "uint256"
        }
      ],
      "stateMutability": "view",
      "type": "function"
    },
    {
      "inputs": [
        {
          "internalType": "uint256",
          "name": "tokenId_",
          "type": "uint256"
        }
      ],
      "name": "balanceOf",
      "outputs": [
        {
          "internalType": "uint256",
          "name": "",
          "type": "uint256"
        }
      ],
      "stateMutability": "view",
      "type": "function"
    },
    {
      "inputs": [
        {
          "internalType": "uint256",
          "name": "tokenId",
          "type": "uint256"
        }
      ],
      "name": "burn",
      "outputs": [],
      "stateMutability": "nonpayable",
      "type": "function"
    },
    {
      "inputs": [],
      "name": "contractURI",
      "outputs": [
        {
          "internalType": "string",
          "name": "",
          "type": "string"
        }
      ],
      "stateMutability": "view",
      "type": "function"
    },
    {
      "inputs": [
        {
          "internalType": "uint256",
          "name": "network",
          "type": "uint256"
        },
        {
          "internalType": "string",
          "name": "name",
          "type": "string"
        },
        {
          "internalType": "bool",
          "name": "daoGoverned",
          "type": "bool"
        },
        {
          "internalType": "address",
          "name": "daoManager",
          "type": "address"
        }
      ],
      "name": "createNetwork",
      "outputs": [],
      "stateMutability": "nonpayable",
      "type": "function"
    },
    {
      "inputs": [],
      "name": "flagsStorage",
      "outputs": [
        {
          "internalType": "contract IFlagsStorage",
          "name": "",
          "type": "address"
        }
      ],
      "stateMutability": "view",
      "type": "function"
    },
    {
      "inputs": [
        {
          "internalType": "uint256",
          "name": "tokenId",
          "type": "uint256"
        }
      ],
      "name": "freeze",
      "outputs": [],
      "stateMutability": "nonpayable",
      "type": "function"
    },
    {
      "inputs": [
        {
          "internalType": "uint256",
          "name": "tokenId_",
          "type": "uint256"
        }
      ],
      "name": "getApproved",
      "outputs": [
        {
          "internalType": "address",
          "name": "",
          "type": "address"
        }
      ],
      "stateMutability": "view",
      "type": "function"
    },
    {
      "inputs": [
        {
          "internalType": "uint256",
          "name": "tokenId",
          "type": "uint256"
        }
      ],
      "name": "getExpiration",
      "outputs": [
        {
          "internalType": "uint256",
          "name": "",
          "type": "uint256"
        }
      ],
      "stateMutability": "view",
      "type": "function"
    },
    {
      "inputs": [
        {
          "internalType": "uint256",
          "name": "x",
          "type": "uint256"
        }
      ],
      "name": "getMsgData",
      "outputs": [],
      "stateMutability": "nonpayable",
      "type": "function"
    },
    {
      "inputs": [],
      "name": "getMsgSender",
      "outputs": [],
      "stateMutability": "nonpayable",
      "type": "function"
    },
    {
      "inputs": [
        {
          "internalType": "uint256",
          "name": "network",
          "type": "uint256"
        }
      ],
      "name": "getNetwork",
      "outputs": [
        {
          "internalType": "string",
          "name": "",
          "type": "string"
        }
      ],
      "stateMutability": "view",
      "type": "function"
    },
    {
      "inputs": [
        {
          "internalType": "bytes32",
          "name": "role",
          "type": "bytes32"
        },
        {
          "internalType": "uint256",
          "name": "domain",
          "type": "uint256"
        }
      ],
      "name": "getRoleAdmin",
      "outputs": [
        {
          "internalType": "bytes32",
          "name": "",
          "type": "bytes32"
        }
      ],
      "stateMutability": "view",
      "type": "function"
    },
    {
      "inputs": [
        {
          "internalType": "uint256",
          "name": "tokenId",
          "type": "uint256"
        }
      ],
      "name": "getToken",
      "outputs": [
        {
          "internalType": "address",
          "name": "owner",
          "type": "address"
        },
        {
          "internalType": "uint8",
          "name": "state",
          "type": "uint8"
        },
        {
          "internalType": "string",
          "name": "identity",
          "type": "string"
        },
        {
          "internalType": "uint256",
          "name": "expiration",
          "type": "uint256"
        },
        {
          "internalType": "uint256",
          "name": "bitmask",
          "type": "uint256"
        }
      ],
      "stateMutability": "view",
      "type": "function"
    },
    {
      "inputs": [
        {
          "internalType": "uint256",
          "name": "tokenId",
          "type": "uint256"
        }
      ],
      "name": "getTokenBitmask",
      "outputs": [
        {
          "internalType": "uint256",
          "name": "",
          "type": "uint256"
        }
      ],
      "stateMutability": "view",
      "type": "function"
    },
    {
      "inputs": [
        {
          "internalType": "address",
          "name": "owner",
          "type": "address"
        },
        {
          "internalType": "uint256",
          "name": "network",
          "type": "uint256"
        }
      ],
      "name": "getTokenIdsByOwnerAndNetwork",
      "outputs": [
        {
          "internalType": "uint256[]",
          "name": "",
          "type": "uint256[]"
        }
      ],
      "stateMutability": "view",
      "type": "function"
    },
    {
      "inputs": [
        {
          "internalType": "bytes32",
          "name": "role",
          "type": "bytes32"
        },
        {
          "internalType": "uint256",
          "name": "domain",
          "type": "uint256"
        },
        {
          "internalType": "address",
          "name": "account",
          "type": "address"
        }
      ],
      "name": "grantRole",
      "outputs": [],
      "stateMutability": "nonpayable",
      "type": "function"
    },
    {
      "inputs": [
        {
          "internalType": "bytes32",
          "name": "role",
          "type": "bytes32"
        },
        {
          "internalType": "uint256",
          "name": "domain",
          "type": "uint256"
        },
        {
          "internalType": "address",
          "name": "account",
          "type": "address"
        }
      ],
      "name": "hasRole",
      "outputs": [
        {
          "internalType": "bool",
          "name": "",
          "type": "bool"
        }
      ],
      "stateMutability": "view",
      "type": "function"
    },
    {
      "inputs": [
        {
          "internalType": "string",
          "name": "_name",
          "type": "string"
        },
        {
          "internalType": "string",
          "name": "_symbol",
          "type": "string"
        },
        {
          "internalType": "address",
          "name": "_superAdmin",
          "type": "address"
        },
        {
          "internalType": "address",
          "name": "_flagsStorage",
          "type": "address"
        },
        {
          "internalType": "address[]",
          "name": "_trustedForwarders",
          "type": "address[]"
        }
      ],
      "name": "initialize",
      "outputs": [],
      "stateMutability": "nonpayable",
      "type": "function"
    },
    {
      "inputs": [
        {
          "internalType": "address",
          "name": "owner_",
          "type": "address"
        },
        {
          "internalType": "address",
          "name": "operator_",
          "type": "address"
        }
      ],
      "name": "isApprovedForAll",
      "outputs": [
        {
          "internalType": "bool",
          "name": "",
          "type": "bool"
        }
      ],
      "stateMutability": "view",
      "type": "function"
    },
    {
      "inputs": [
        {
          "internalType": "address",
          "name": "gatekeeper",
          "type": "address"
        },
        {
          "internalType": "uint256",
          "name": "network",
          "type": "uint256"
        }
      ],
      "name": "isGatekeeper",
      "outputs": [
        {
          "internalType": "bool",
          "name": "",
          "type": "bool"
        }
      ],
      "stateMutability": "view",
      "type": "function"
    },
    {
      "inputs": [
        {
          "internalType": "address",
          "name": "authority",
          "type": "address"
        },
        {
          "internalType": "uint256",
          "name": "network",
          "type": "uint256"
        }
      ],
      "name": "isNetworkAuthority",
      "outputs": [
        {
          "internalType": "bool",
          "name": "",
          "type": "bool"
        }
      ],
      "stateMutability": "view",
      "type": "function"
    },
    {
      "inputs": [
        {
          "internalType": "uint256",
          "name": "",
          "type": "uint256"
        }
      ],
      "name": "isNetworkDAOGoverned",
      "outputs": [
        {
          "internalType": "bool",
          "name": "",
          "type": "bool"
        }
      ],
      "stateMutability": "view",
      "type": "function"
    },
    {
      "inputs": [
        {
          "internalType": "address",
          "name": "account",
          "type": "address"
        }
      ],
      "name": "isSuperAdmin",
      "outputs": [
        {
          "internalType": "bool",
          "name": "",
          "type": "bool"
        }
      ],
      "stateMutability": "view",
      "type": "function"
    },
    {
      "inputs": [
        {
          "internalType": "address",
          "name": "forwarder",
          "type": "address"
        }
      ],
      "name": "isTrustedForwarder",
      "outputs": [
        {
          "internalType": "bool",
          "name": "",
          "type": "bool"
        }
      ],
      "stateMutability": "view",
      "type": "function"
    },
    {
      "inputs": [],
      "name": "metadataDescriptor",
      "outputs": [
        {
          "internalType": "contract IERC3525MetadataDescriptorUpgradeable",
          "name": "",
          "type": "address"
        }
      ],
      "stateMutability": "view",
      "type": "function"
    },
    {
      "inputs": [
        {
          "internalType": "address",
          "name": "to",
          "type": "address"
        },
        {
          "internalType": "uint256",
          "name": "network",
          "type": "uint256"
        },
        {
          "internalType": "uint256",
          "name": "expiration",
          "type": "uint256"
        },
        {
          "internalType": "uint256",
          "name": "mask",
          "type": "uint256"
        },
        {
          "components": [
            {
              "internalType": "uint256",
              "name": "value",
              "type": "uint256"
            },
            {
              "internalType": "enum ChargeType",
              "name": "chargeType",
              "type": "uint8"
            },
            {
              "internalType": "address",
              "name": "token",
              "type": "address"
            },
            {
              "internalType": "address",
              "name": "recipient",
              "type": "address"
            }
          ],
          "internalType": "struct Charge",
          "name": "",
          "type": "tuple"
        }
      ],
      "name": "mint",
      "outputs": [],
      "stateMutability": "nonpayable",
      "type": "function"
    },
    {
      "inputs": [],
      "name": "name",
      "outputs": [
        {
          "internalType": "string",
          "name": "",
          "type": "string"
        }
      ],
      "stateMutability": "view",
      "type": "function"
    },
    {
      "inputs": [
        {
          "internalType": "uint256",
          "name": "tokenId_",
          "type": "uint256"
        }
      ],
      "name": "ownerOf",
      "outputs": [
        {
          "internalType": "address",
          "name": "owner_",
          "type": "address"
        }
      ],
      "stateMutability": "view",
      "type": "function"
    },
    {
      "inputs": [],
      "name": "proxiableUUID",
      "outputs": [
        {
          "internalType": "bytes32",
          "name": "",
          "type": "bytes32"
        }
      ],
      "stateMutability": "view",
      "type": "function"
    },
    {
      "inputs": [
        {
          "internalType": "address",
          "name": "forwarder",
          "type": "address"
        }
      ],
      "name": "removeForwarder",
      "outputs": [],
      "stateMutability": "nonpayable",
      "type": "function"
    },
    {
      "inputs": [
        {
          "internalType": "address",
          "name": "gatekeeper",
          "type": "address"
        },
        {
          "internalType": "uint256",
          "name": "network",
          "type": "uint256"
        }
      ],
      "name": "removeGatekeeper",
      "outputs": [],
      "stateMutability": "nonpayable",
      "type": "function"
    },
    {
      "inputs": [
        {
          "internalType": "address",
          "name": "authority",
          "type": "address"
        },
        {
          "internalType": "uint256",
          "name": "network",
          "type": "uint256"
        }
      ],
      "name": "removeNetworkAuthority",
      "outputs": [],
      "stateMutability": "nonpayable",
      "type": "function"
    },
    {
      "inputs": [
        {
          "internalType": "uint256",
          "name": "network",
          "type": "uint256"
        },
        {
          "internalType": "string",
          "name": "name",
          "type": "string"
        }
      ],
      "name": "renameNetwork",
      "outputs": [],
      "stateMutability": "nonpayable",
      "type": "function"
    },
    {
      "inputs": [
        {
          "internalType": "bytes32",
          "name": "role",
          "type": "bytes32"
        },
        {
          "internalType": "uint256",
          "name": "domain",
          "type": "uint256"
        },
        {
          "internalType": "address",
          "name": "account",
          "type": "address"
        }
      ],
      "name": "renounceRole",
      "outputs": [],
      "stateMutability": "nonpayable",
      "type": "function"
    },
    {
      "inputs": [
        {
          "internalType": "uint256",
          "name": "tokenId",
          "type": "uint256"
        }
      ],
      "name": "revoke",
      "outputs": [],
      "stateMutability": "nonpayable",
      "type": "function"
    },
    {
      "inputs": [
        {
          "internalType": "bytes32",
          "name": "role",
          "type": "bytes32"
        },
        {
          "internalType": "uint256",
          "name": "domain",
          "type": "uint256"
        },
        {
          "internalType": "address",
          "name": "account",
          "type": "address"
        }
      ],
      "name": "revokeRole",
      "outputs": [],
      "stateMutability": "nonpayable",
      "type": "function"
    },
    {
      "inputs": [
        {
          "internalType": "address",
          "name": "account",
          "type": "address"
        }
      ],
      "name": "revokeSuperAdmin",
      "outputs": [],
      "stateMutability": "nonpayable",
      "type": "function"
    },
    {
      "inputs": [
        {
          "internalType": "address",
          "name": "from_",
          "type": "address"
        },
        {
          "internalType": "address",
          "name": "to_",
          "type": "address"
        },
        {
          "internalType": "uint256",
          "name": "tokenId_",
          "type": "uint256"
        }
      ],
      "name": "safeTransferFrom",
      "outputs": [],
      "stateMutability": "payable",
      "type": "function"
    },
    {
      "inputs": [
        {
          "internalType": "address",
          "name": "from_",
          "type": "address"
        },
        {
          "internalType": "address",
          "name": "to_",
          "type": "address"
        },
        {
          "internalType": "uint256",
          "name": "tokenId_",
          "type": "uint256"
        },
        {
          "internalType": "bytes",
          "name": "data_",
          "type": "bytes"
        }
      ],
      "name": "safeTransferFrom",
      "outputs": [],
      "stateMutability": "payable",
      "type": "function"
    },
    {
      "inputs": [
        {
          "internalType": "address",
          "name": "operator_",
          "type": "address"
        },
        {
          "internalType": "bool",
          "name": "approved_",
          "type": "bool"
        }
      ],
      "name": "setApprovalForAll",
      "outputs": [],
      "stateMutability": "nonpayable",
      "type": "function"
    },
    {
      "inputs": [
        {
          "internalType": "uint256",
          "name": "tokenId",
          "type": "uint256"
        },
        {
          "internalType": "uint256",
          "name": "mask",
          "type": "uint256"
        }
      ],
      "name": "setBitmask",
      "outputs": [],
      "stateMutability": "nonpayable",
      "type": "function"
    },
    {
      "inputs": [
        {
          "internalType": "uint256",
          "name": "tokenId",
          "type": "uint256"
        },
        {
          "internalType": "uint256",
          "name": "timestamp",
          "type": "uint256"
        },
        {
          "components": [
            {
              "internalType": "uint256",
              "name": "value",
              "type": "uint256"
            },
            {
              "internalType": "enum ChargeType",
              "name": "chargeType",
              "type": "uint8"
            },
            {
              "internalType": "address",
              "name": "token",
              "type": "address"
            },
            {
              "internalType": "address",
              "name": "recipient",
              "type": "address"
            }
          ],
          "internalType": "struct Charge",
          "name": "",
          "type": "tuple"
        }
      ],
      "name": "setExpiration",
      "outputs": [],
      "stateMutability": "nonpayable",
      "type": "function"
    },
    {
      "inputs": [
        {
          "internalType": "address",
          "name": "_metadataDescriptor",
          "type": "address"
        }
      ],
      "name": "setMetadataDescriptor",
      "outputs": [],
      "stateMutability": "nonpayable",
      "type": "function"
    },
    {
      "inputs": [
        {
          "internalType": "address",
          "name": "account",
          "type": "address"
        }
      ],
      "name": "setSuperAdmin",
      "outputs": [],
      "stateMutability": "nonpayable",
      "type": "function"
    },
    {
      "inputs": [
        {
          "internalType": "uint256",
          "name": "tokenId_",
          "type": "uint256"
        }
      ],
      "name": "slotOf",
      "outputs": [
        {
          "internalType": "uint256",
          "name": "",
          "type": "uint256"
        }
      ],
      "stateMutability": "view",
      "type": "function"
    },
    {
      "inputs": [
        {
          "internalType": "uint256",
          "name": "slot_",
          "type": "uint256"
        }
      ],
      "name": "slotURI",
      "outputs": [
        {
          "internalType": "string",
          "name": "",
          "type": "string"
        }
      ],
      "stateMutability": "view",
      "type": "function"
    },
    {
      "inputs": [
        {
          "internalType": "bytes4",
          "name": "interfaceId",
          "type": "bytes4"
        }
      ],
      "name": "supportsInterface",
      "outputs": [
        {
          "internalType": "bool",
          "name": "",
          "type": "bool"
        }
      ],
      "stateMutability": "view",
      "type": "function"
    },
    {
      "inputs": [],
      "name": "symbol",
      "outputs": [
        {
          "internalType": "string",
          "name": "",
          "type": "string"
        }
      ],
      "stateMutability": "view",
      "type": "function"
    },
    {
      "inputs": [
        {
          "internalType": "uint256",
          "name": "index_",
          "type": "uint256"
        }
      ],
      "name": "tokenByIndex",
      "outputs": [
        {
          "internalType": "uint256",
          "name": "",
          "type": "uint256"
        }
      ],
      "stateMutability": "view",
      "type": "function"
    },
    {
      "inputs": [
        {
          "internalType": "address",
          "name": "owner_",
          "type": "address"
        },
        {
          "internalType": "uint256",
          "name": "index_",
          "type": "uint256"
        }
      ],
      "name": "tokenOfOwnerByIndex",
      "outputs": [
        {
          "internalType": "uint256",
          "name": "",
          "type": "uint256"
        }
      ],
      "stateMutability": "view",
      "type": "function"
    },
    {
      "inputs": [
        {
          "internalType": "uint256",
          "name": "tokenId_",
          "type": "uint256"
        }
      ],
      "name": "tokenURI",
      "outputs": [
        {
          "internalType": "string",
          "name": "",
          "type": "string"
        }
      ],
      "stateMutability": "view",
      "type": "function"
    },
    {
      "inputs": [],
      "name": "totalSupply",
      "outputs": [
        {
          "internalType": "uint256",
          "name": "",
          "type": "uint256"
        }
      ],
      "stateMutability": "view",
      "type": "function"
    },
    {
      "inputs": [
        {
          "internalType": "address",
          "name": "previousManager",
          "type": "address"
        },
        {
          "internalType": "address",
          "name": "newManager",
          "type": "address"
        },
        {
          "internalType": "uint256",
          "name": "network",
          "type": "uint256"
        }
      ],
      "name": "transferDAOManager",
      "outputs": [],
      "stateMutability": "nonpayable",
      "type": "function"
    },
    {
      "inputs": [
        {
          "internalType": "uint256",
          "name": "fromTokenId_",
          "type": "uint256"
        },
        {
          "internalType": "address",
          "name": "to_",
          "type": "address"
        },
        {
          "internalType": "uint256",
          "name": "value_",
          "type": "uint256"
        }
      ],
      "name": "transferFrom",
      "outputs": [
        {
          "internalType": "uint256",
          "name": "newTokenId",
          "type": "uint256"
        }
      ],
      "stateMutability": "payable",
      "type": "function"
    },
    {
      "inputs": [
        {
          "internalType": "address",
          "name": "from_",
          "type": "address"
        },
        {
          "internalType": "address",
          "name": "to_",
          "type": "address"
        },
        {
          "internalType": "uint256",
          "name": "tokenId_",
          "type": "uint256"
        }
      ],
      "name": "transferFrom",
      "outputs": [],
      "stateMutability": "payable",
      "type": "function"
    },
    {
      "inputs": [
        {
          "internalType": "uint256",
          "name": "fromTokenId_",
          "type": "uint256"
        },
        {
          "internalType": "uint256",
          "name": "toTokenId_",
          "type": "uint256"
        },
        {
          "internalType": "uint256",
          "name": "value_",
          "type": "uint256"
        }
      ],
      "name": "transferFrom",
      "outputs": [],
      "stateMutability": "payable",
      "type": "function"
    },
    {
      "inputs": [],
      "name": "transfersRestricted",
      "outputs": [
        {
          "internalType": "bool",
          "name": "",
          "type": "bool"
        }
      ],
      "stateMutability": "pure",
      "type": "function"
    },
    {
      "inputs": [
        {
          "internalType": "uint256",
          "name": "tokenId",
          "type": "uint256"
        }
      ],
      "name": "unfreeze",
      "outputs": [],
      "stateMutability": "nonpayable",
      "type": "function"
    },
    {
      "inputs": [
        {
          "internalType": "address",
          "name": "flagsStorage",
          "type": "address"
        }
      ],
      "name": "updateFlagsStorage",
      "outputs": [],
      "stateMutability": "nonpayable",
      "type": "function"
    },
    {
      "inputs": [
        {
          "internalType": "address",
          "name": "newImplementation",
          "type": "address"
        }
      ],
      "name": "upgradeTo",
      "outputs": [],
      "stateMutability": "nonpayable",
      "type": "function"
    },
    {
      "inputs": [
        {
          "internalType": "address",
          "name": "newImplementation",
          "type": "address"
        },
        {
          "internalType": "bytes",
          "name": "data",
          "type": "bytes"
        }
      ],
      "name": "upgradeToAndCall",
      "outputs": [],
      "stateMutability": "payable",
      "type": "function"
    },
    {
      "inputs": [],
      "name": "valueDecimals",
      "outputs": [
        {
          "internalType": "uint8",
          "name": "",
          "type": "uint8"
        }
      ],
      "stateMutability": "view",
      "type": "function"
    },
    {
      "inputs": [
        {
          "internalType": "address",
          "name": "owner",
          "type": "address"
        },
        {
          "internalType": "uint256",
          "name": "network",
          "type": "uint256"
        }
      ],
      "name": "verifyToken",
      "outputs": [
        {
          "internalType": "bool",
          "name": "",
          "type": "bool"
        }
      ],
      "stateMutability": "view",
      "type": "function"
    },
    {
      "inputs": [
        {
          "internalType": "uint256",
          "name": "tokenId",
          "type": "uint256"
        }
      ],
      "name": "verifyToken",
      "outputs": [
        {
          "internalType": "bool",
          "name": "",
          "type": "bool"
        }
      ],
      "stateMutability": "view",
      "type": "function"
    }
  ],
  "bytecode": "0x60a0604052306080523480156200001557600080fd5b506200002062000026565b620000e8565b600054610100900460ff1615620000935760405162461bcd60e51b815260206004820152602760248201527f496e697469616c697a61626c653a20636f6e747261637420697320696e697469604482015266616c697a696e6760c81b606482015260840160405180910390fd5b60005460ff9081161015620000e6576000805460ff191660ff9081179091556040519081527f7f26b83ff96e1f2b6a682f133852f6798a09c465da95921460cefb38474024989060200160405180910390a15b565b608051615a86620001206000396000818161152c0152818161156c015281816116a5015281816116e501526118180152615a866000f3fe6080604052600436106104075760003560e01c80637dbded2811610214578063b5d616351161011e578063df2a7fe1116100b6578063e71fb1101161007a578063e71fb11014610cb4578063e8a3d48514610cd4578063e985e9c514610ce9578063ff17e23214610d36578063ff85a97514610d5657600080fd5b8063df2a7fe114610bea578063df7f453b14610c0a578063e0ed6a3114610c43578063e345e0bc14610c63578063e4b50cb814610c8357600080fd5b8063b5d6163514610ae0578063b86b1a5414610b00578063b88d4fde14610b15578063babb898d14610b28578063c2a366fb14610b48578063c58dbbed14610b68578063c87b56dd14610b88578063d6fd317514610ba8578063d7a78db814610bca57600080fd5b806395d89b41116101ac578063a217fddf11610170578063a217fddf14610a3b578063a22cb46514610a50578063a578c09314610a70578063a8fa8e0d14610aa0578063b4bd857914610ac057600080fd5b806395d89b41146109a657806395ea5717146109bb5780639c7525e6146109db5780639cc7f708146109fb578063a05b775f14610a1b57600080fd5b80637dbded28146108a2578063805618a1146108c257806381e9ff19146108e257806382d66d5f14610904578063840f7113146109245780638423df79146109445780638cb0a511146109585780638eb7a7761461096657806390eddd521461098657600080fd5b806336e4504111610315578063572b6c05116102ad5780636dba2729116102715780636dba27291461080b5780636f7caf411461082b57806370a082311461084d57806370f081601461086d5780637a6ce2e11461088d57600080fd5b8063572b6c051461076b5780635c41d2fe1461078b5780635e79b726146107ab5780636352211e146107cb5780636623fc46146107eb57600080fd5b806336e450411461066e5780633e7e86691461068e57806342842e0e146106b057806342966c68146106c35780634d93172d146106e35780634f1ef286146107035780634f6ccce71461071657806351da912d1461073657806352d1902d1461075657600080fd5b806320c5429b116103a3578063310ed7f011610367578063310ed7f0146105db57806331416a29146105ee57806334e37b8a1461060e5780633568dd291461062e5780633659cfe61461064e57600080fd5b806320c5429b1461054857806323b872dd14610568578063263f3e7e1461057b5780632d33d27a1461059b5780632f745c59146105bb57600080fd5b806301ffc9a71461040c57806306fdde0314610441578063081812fc14610463578063095ea7b31461049057806309c3dd87146104a55780630f485c02146104c55780631442f521146104e6578063157000521461051357806318160ddd14610533575b600080fd5b34801561041857600080fd5b5061042c610427366004614c9e565b610d76565b60405190151581526020015b60405180910390f35b34801561044d57600080fd5b50610456610dd7565b6040516104389190614d13565b34801561046f57600080fd5b5061048361047e366004614d26565b610e69565b6040516104389190614d3f565b6104a361049e366004614d6a565b610ebb565b005b3480156104b157600080fd5b506104566104c0366004614d26565b610ed4565b6104d86104d3366004614d94565b610fd5565b604051908152602001610438565b3480156104f257600080fd5b50610506610501366004614d6a565b611014565b6040516104389190614dc9565b34801561051f57600080fd5b506104a361052e366004614e0d565b6110cb565b34801561053f57600080fd5b50609d546104d8565b34801561055457600080fd5b506104a3610563366004614d26565b61112b565b6104a3610576366004614e28565b61117f565b34801561058757600080fd5b506104d8610596366004614d26565b6111c5565b3480156105a757600080fd5b5060cc54610483906001600160a01b031681565b3480156105c757600080fd5b506104d86105d6366004614d6a565b61120d565b6104a36105e9366004614e54565b6112ae565b3480156105fa57600080fd5b506104a3610609366004614ec1565b6112cb565b34801561061a57600080fd5b506104a3610629366004614e0d565b6114f0565b34801561063a57600080fd5b506104a3610649366004614d6a565b611504565b34801561065a57600080fd5b506104a3610669366004614e0d565b611521565b34801561067a57600080fd5b506104a3610689366004614fae565b6115e7565b34801561069a57600080fd5b50609a5460405160ff9091168152602001610438565b6104a36106be366004614e28565b61163d565b3480156106cf57600080fd5b506104a36106de366004614d26565b611658565b3480156106ef57600080fd5b506104a36106fe366004614e0d565b61166d565b6104a36107113660046150a6565b61169a565b34801561072257600080fd5b506104d8610731366004614d26565b611750565b34801561074257600080fd5b506104a36107513660046150f3565b6117e1565b34801561076257600080fd5b506104d861180b565b34801561077757600080fd5b5061042c610786366004614e0d565b6118b9565b34801561079757600080fd5b506104a36107a6366004614e0d565b6118d7565b3480156107b757600080fd5b506104a36107c636600461512d565b611907565b3480156107d757600080fd5b506104836107e6366004614d26565b61191d565b3480156107f757600080fd5b506104a3610806366004614d26565b61198d565b34801561081757600080fd5b5061042c610826366004614d6a565b6119a2565b34801561083757600080fd5b506104d86000805160206159ca83398151915281565b34801561085957600080fd5b506104d8610868366004614e0d565b6119bd565b34801561087957600080fd5b506104a3610888366004614d6a565b611a45565b34801561089957600080fd5b506104a3611a5e565b3480156108ae57600080fd5b506104a36108bd366004615168565b611a9e565b3480156108ce57600080fd5b506104a36108dd366004614d26565b611c8d565b3480156108ee57600080fd5b506104d860008051602061594a83398151915281565b34801561091057600080fd5b506104a361091f366004614d6a565b611d06565b34801561093057600080fd5b5060a054610483906001600160a01b031681565b34801561095057600080fd5b50600161042c565b6104a361049e366004614d94565b34801561097257600080fd5b506104a3610981366004614fae565b611d1b565b34801561099257600080fd5b506104a36109a1366004614d6a565b611d3b565b3480156109b257600080fd5b50610456611d54565b3480156109c757600080fd5b506104566109d6366004614d26565b611d63565b3480156109e757600080fd5b506104a36109f63660046151d7565b611e05565b348015610a0757600080fd5b506104d8610a16366004614d26565b611eb4565b348015610a2757600080fd5b506104d8610a36366004614d26565b611efc565b348015610a4757600080fd5b506104d8600081565b348015610a5c57600080fd5b506104a3610a6b366004615222565b611f1a565b348015610a7c57600080fd5b5061042c610a8b366004614d26565b60ce6020526000908152604090205460ff1681565b348015610aac57600080fd5b506104a3610abb366004614e28565b611f2c565b348015610acc57600080fd5b506104d8610adb366004614d26565b612085565b348015610aec57600080fd5b506104a3610afb366004614fae565b612099565b348015610b0c57600080fd5b506104a36120b9565b6104a3610b23366004615259565b6120f4565b348015610b3457600080fd5b5061042c610b43366004614fae565b612127565b348015610b5457600080fd5b5061042c610b63366004614d6a565b612158565b348015610b7457600080fd5b506104a3610b83366004614e0d565b612173565b348015610b9457600080fd5b50610456610ba3366004614d26565b6121d0565b348015610bb457600080fd5b506104d860008051602061596a83398151915281565b348015610bd657600080fd5b506104a3610be5366004614d26565b61226f565b348015610bf657600080fd5b506104d8610c053660046150f3565b612284565b348015610c1657600080fd5b5061042c610c25366004614e0d565b6001600160a01b0316600090815260cb602052604090205460ff1690565b348015610c4f57600080fd5b506104a3610c5e3660046152c0565b6122a3565b348015610c6f57600080fd5b506104d8610c7e366004615306565b6122ec565b348015610c8f57600080fd5b50610ca3610c9e366004614d26565b612320565b604051610438959493929190615332565b348015610cc057600080fd5b506104a3610ccf366004614e0d565b612380565b348015610ce057600080fd5b50610456612391565b348015610cf557600080fd5b5061042c610d04366004615373565b6001600160a01b039182166000908152609f602090815260408083209390941682526002909201909152205460ff1690565b348015610d4257600080fd5b5061042c610d51366004614d6a565b61249a565b348015610d6257600080fd5b5061042c610d71366004614d26565b61250b565b60006001600160e01b03198216630354d60560e61b1480610da757506001600160e01b031982166380ac58cd60e01b145b80610dc257506001600160e01b031982166370b0048160e11b145b80610dd15750610dd182612518565b92915050565b606060988054610de69061539d565b80601f0160208091040260200160405190810160405280929190818152602001828054610e129061539d565b8015610e5f5780601f10610e3457610100808354040283529160200191610e5f565b820191906000526020600020905b815481529060010190602001808311610e4257829003601f168201915b5050505050905090565b6000610e748261254d565b6000828152609e6020526040902054609d80549091908110610e9857610e986153d2565b60009182526020909120600460069092020101546001600160a01b031692915050565b60405163c03a3ff560e01b815260040160405180910390fd5b60606000610eed60408051602081019091526000815290565b60a0549091506001600160a01b0316610f4d576000815111610f1e5760405180602001604052806000815250610fce565b80610f2884612572565b604051602001610f399291906153e8565b604051602081830303815290604052610fce565b60a054604051633601bfc560e11b8152600481018590526001600160a01b0390911690636c037f8a906024015b60006040518083038186803b158015610f9257600080fd5b505afa158015610fa6573d6000803e3d6000fd5b505050506040513d6000823e601f3d908101601f19168201604052610fce9190810190615428565b9392505050565b6000610fe9610fe261260e565b858461261d565b610ff284612698565b90506110098382611002876111c5565b60006126a2565b610fce8482846127c9565b60606000806110238585612aa8565b915091506000816001600160401b0381111561104157611041614fe3565b60405190808252806020026020018201604052801561106a578160200160208202803683370190505b50905060005b828110156110c15783818151811061108a5761108a6153d2565b60200260200101518282815181106110a4576110a46153d2565b6020908102919091010152806110b9816154ab565b915050611070565b5095945050505050565b6110d3612b75565b6040516001600160a01b038216907f286f82d2b1e37b5e9f33e455d014b4a5f6c29388e6e41e1281d4c83e04f4265590600090a26001600160a01b0316600090815260cb60205260409020805460ff19166001179055565b61113c611137826111c5565b612b87565b600081815260cf6020526040808220805460ff191660021790555182917fdb43aa42235c8d63908794a952603e8d43a549383d13123c3d893a3fc2e6249591a250565b61119061118a61260e565b50600090565b6111b55760405162461bcd60e51b81526004016111ac906154dc565b60405180910390fd5b6111c0838383612b9f565b505050565b60006111d08261254d565b6000828152609e6020526040902054609d805490919081106111f4576111f46153d2565b9060005260206000209060060201600101549050919050565b6000611218836119bd565b82106112715760405162461bcd60e51b815260206004820152602260248201527f455243333532353a206f776e657220696e646578206f7574206f6620626f756e604482015261647360f01b60648201526084016111ac565b6001600160a01b0383166000908152609f6020526040902080548390811061129b5761129b6153d2565b9060005260206000200154905092915050565b6112c06112b961260e565b848361261d565b6111c08383836127c9565b600054610100900460ff16158080156112eb5750600054600160ff909116105b8061130c57506112fa30612cee565b15801561130c575060005460ff166001145b6113285760405162461bcd60e51b81526004016111ac9061552e565b6000805460ff19166001179055801561134b576000805461ff0019166101001790555b6001600160a01b03851661137257604051630ca2c90160e21b815260040160405180910390fd5b6001600160a01b03841661139957604051630ca2c90160e21b815260040160405180910390fd5b60005b828110156114075760008484838181106113b8576113b86153d2565b90506020020160208101906113cd9190614e0d565b6001600160a01b031614156113f557604051630ca2c90160e21b815260040160405180910390fd5b806113ff816154ab565b91505061139c565b5061147b89898080601f01602080910402602001604051908101604052809392919081815260200183838082843760009201919091525050604080516020601f8d018190048102820181019092528b815292508b91508a908190840183828082843760009201829052509250612cfd915050565b6114858383612d2f565b61148e84612df1565b6001600160a01b038516600090815260cb60205260409020805460ff1916600117905580156114e5576000805461ff0019169055604051600181526000805160206159ea8339815191529060200160405180910390a15b505050505050505050565b6114f8612b75565b61150181612df1565b50565b61151d60008051602061596a8339815191528284611d1b565b5050565b306001600160a01b037f000000000000000000000000000000000000000000000000000000000000000016141561156a5760405162461bcd60e51b81526004016111ac9061557c565b7f00000000000000000000000000000000000000000000000000000000000000006001600160a01b031661159c612e3b565b6001600160a01b0316146115c25760405162461bcd60e51b81526004016111ac906155c8565b6115cb81612e57565b6040805160008082526020820190925261150191839190612e5f565b6115ef61260e565b6001600160a01b0316816001600160a01b031614611632576040516307ca099360e31b8152600481018490526001600160a01b03821660248201526044016111ac565b6111c0838383612fd9565b6111c0838383604051806020016040528060008152506120f4565b611664611137826111c5565b61150181613075565b611675612b75565b611501816001600160a01b03166000908152609760205260409020805460ff19169055565b306001600160a01b037f00000000000000000000000000000000000000000000000000000000000000001614156116e35760405162461bcd60e51b81526004016111ac9061557c565b7f00000000000000000000000000000000000000000000000000000000000000006001600160a01b0316611715612e3b565b6001600160a01b03161461173b5760405162461bcd60e51b81526004016111ac906155c8565b61174482612e57565b61151d82826001612e5f565b600061175b609d5490565b82106117b55760405162461bcd60e51b815260206004820152602360248201527f455243333532353a20676c6f62616c20696e646578206f7574206f6620626f756044820152626e647360e81b60648201526084016111ac565b609d82815481106117c8576117c86153d2565b9060005260206000209060060201600001549050919050565b61180160008051602061596a8339815191526117fc846111c5565b613172565b61151d8282613184565b6000306001600160a01b037f000000000000000000000000000000000000000000000000000000000000000016146118a65760405162461bcd60e51b815260206004820152603860248201527f555550535570677261646561626c653a206d757374206e6f742062652063616c6044820152771b1959081d1a1c9bdd59da0819195b1959d85d1958d85b1b60421b60648201526084016111ac565b506000805160206159aa83398151915290565b6001600160a01b031660009081526097602052604090205460ff1690565b6118df612b75565b611501816001600160a01b03166000908152609760205260409020805460ff19166001179055565b611913611137846111c5565b6111c083836131d3565b60006119288261254d565b6000828152609e6020526040902054609d8054909190811061194c5761194c6153d2565b60009182526020909120600360069092020101546001600160a01b03169050806119885760405162461bcd60e51b81526004016111ac90615614565b919050565b611999611137826111c5565b6115018161322f565b6000610fce60008051602061596a8339815191528385612127565b60006001600160a01b038216611a295760405162461bcd60e51b815260206004820152602b60248201527f455243333532353a2062616c616e636520717565727920666f7220746865207a60448201526a65726f206164647265737360a81b60648201526084016111ac565b506001600160a01b03166000908152609f602052604090205490565b61151d60008051602061596a8339815191528284612099565b7f7bf2655c5b27bca5462f1f973c316c9537b2da6083e494b623f3313ad847ec08611a8761260e565b604051611a949190614d3f565b60405180910390a1565b600085815260d1602052604090208054611ab79061539d565b159050611ada57604051636f55f62b60e01b8152600481018690526024016111ac565b600085815260d160205260409020611af3908585614b08565b508115611c1857600085815260ce60205260409020805460ff19168315151790556001600160a01b038116611b3b57604051630ca2c90160e21b815260040160405180910390fd5b611b4d816001600160a01b0316612cee565b611b6c578060405163d4daafa160e01b81526004016111ac9190614d3f565b611b8560008051602061594a83398151915286836132d6565b611b9e6000805160206159ca83398151915286836132d6565b611bc56000805160206159ca8339815191528660008051602061594a833981519152613367565b611bec60008051602061596a8339815191528660008051602061594a833981519152613367565b611c1360008051602061594a8339815191528660008051602061594a833981519152613367565b611c86565b611c386000805160206159ca83398151915286611c3361260e565b6132d6565b611c5f6000805160206159ca833981519152866000805160206159ca833981519152613367565b611c8660008051602061596a833981519152866000805160206159ca833981519152613367565b5050505050565b611cc46040518060400160405280601581526020017443616c6c6564206765744d7367446174612825642960581b815250826133d2565b7fb7555489d68d7992c7b1a74fb60c1d5affc6c5cc407edaddcf435089a1a6b8a7611ced613417565b604051611cfb929190615647565b60405180910390a150565b61151d6000805160206159ca83398151915282845b611d258383612284565b82611d308282613172565b611c86858585612fd9565b61151d6000805160206159ca8339815191528284612099565b606060998054610de69061539d565b600081815260d160205260409020805460609190611d809061539d565b80601f0160208091040260200160405190810160405280929190818152602001828054611dac9061539d565b8015611df95780601f10611dce57610100808354040283529160200191611df9565b820191906000526020600020905b815481529060010190602001808311611ddc57829003601f168201915b50505050509050919050565b600083815260d1602052604090208054611e1e9061539d565b15159050611e4257604051630817886d60e41b8152600481018490526024016111ac565b611e5d6000805160206159ca83398151915284610b4361260e565b611e9557611e6961260e565b836000805160206159ca83398151915260405163c8c801a760e01b81526004016111ac93929190615676565b600083815260d160205260409020611eae908383614b08565b50505050565b6000611ebf8261254d565b6000828152609e6020526040902054609d80549091908110611ee357611ee36153d2565b9060005260206000209060060201600201549050919050565b6000611f078261342a565b50600090815260d0602052604090205490565b61151d611f2561260e565b8383613453565b600081815260ce602052604090205460ff16611f5e5760405163db53ce7160e01b8152600481018290526024016111ac565b611f7760008051602061594a8339815191528285613527565b6001600160a01b038216611f9e57604051630ca2c90160e21b815260040160405180910390fd5b611fb760008051602061594a8339815191528284612099565b611fd06000805160206159ca8339815191528284612099565b611fe960008051602061596a8339815191528284612099565b61200260008051602061596a8339815191528285611d1b565b61201b6000805160206159ca8339815191528285611d1b565b61203460008051602061594a8339815191528285611d1b565b604080516001600160a01b038086168252841660208201529081018290527f744258a28673e8738e2812c0ab8e8dbd70352f8871b1febac0dd753d96d79f58906060015b60405180910390a1505050565b600081815260cd6020526040812054610dd1565b6120a38383612284565b826120ae8282613172565b611c868585856132d6565b6120c96120c461260e565b612e57565b6040517f196e5e7c3b25979d0bf02b0f686399eb501ef6085673d009cf76369bdc11363890600090a1565b6120ff61118a61260e565b61211b5760405162461bcd60e51b81526004016111ac906154dc565b611eae84848484613555565b600091825260ca602090815260408084209484529381528383206001600160a01b0392909216835252205460ff1690565b6000610fce6000805160206159ca8339815191528385612127565b61217b612b75565b6040516001600160a01b038216907ffb445f6ec07647d2bb7af72821e6b8b7303ec375e934d4a338d38ed5846c2d5690600090a26001600160a01b0316600090815260cb60205260409020805460ff19169055565b60606121db8261254d565b60006121f260408051602081019091526000815290565b60a0549091506001600160a01b031661223e5760008151116122235760405180602001604052806000815250610fce565b8061222d84612572565b604051602001610f39929190615697565b60a0546040516344a5a61760e11b8152600481018590526001600160a01b039091169063894b4c2e90602401610f7a565b61227b611137826111c5565b611501816135c8565b600090815260ca60209081526040808320938352929052206001015490565b6122ac84612b87565b60006122ba86866001613616565b905083156122d457600081815260d0602052604090208490555b82156122e4576122e48184613184565b505050505050565b60006122f78361254d565b506000918252609c602090815260408084206001600160a01b0393909316845291905290205490565b60008060606000806123318661191d565b600087815260cf602052604090205490955060ff166002811115612357576123576154c6565b600096875260d0602090815260408089205460cd90925290972054959790969395939450915050565b612388612b75565b6115018161362e565b606060006123aa60408051602081019091526000815290565b60a0549091506001600160a01b031661240a5760008151116123db5760405180602001604052806000815250612494565b806123e530613678565b6040516020016123f69291906156c6565b604051602081830303815290604052612494565b60a060009054906101000a90046001600160a01b03166001600160a01b031663725fa09c6040518163ffffffff1660e01b815260040160006040518083038186803b15801561245857600080fd5b505afa15801561246c573d6000803e3d6000fd5b505050506040513d6000823e601f3d908101601f191682016040526124949190810190615428565b91505090565b60008060006124a98585612aa8565b9150915060005b818110156124ff576124dc8382815181106124cd576124cd6153d2565b6020026020010151600061368e565b156124ed5760019350505050610dd1565b806124f7816154ab565b9150506124b0565b50600095945050505050565b6000610dd182600061368e565b60006001600160e01b031982166333cb74f560e11b1480610dd157506301ffc9a760e01b6001600160e01b0319831614610dd1565b61255681613733565b6115015760405162461bcd60e51b81526004016111ac90615614565b6060600061257f8361377f565b60010190506000816001600160401b0381111561259e5761259e614fe3565b6040519080825280601f01601f1916602001820160405280156125c8576020820181803683370190505b5090508181016020015b600019016f181899199a1a9b1b9c1cb0b131b232b360811b600a86061a8153600a850494508461260157612606565b6125d2565b509392505050565b6000612618613857565b905090565b600061262983856122ec565b90506000198114611eae57818110156126845760405162461bcd60e51b815260206004820152601f60248201527f455243333532353a20696e73756666696369656e7420616c6c6f77616e63650060448201526064016111ac565b611eae8385612693858561570a565b613879565b6000610dd16139a8565b6001600160a01b0384166127025760405162461bcd60e51b815260206004820152602160248201527f455243333532353a206d696e7420746f20746865207a65726f206164647265736044820152607360f81b60648201526084016111ac565b826127595760405162461bcd60e51b815260206004820152602160248201527f455243333532353a2063616e6e6f74206d696e74207a65726f20746f6b656e496044820152601960fa1b60648201526084016111ac565b61276283613733565b156127af5760405162461bcd60e51b815260206004820152601d60248201527f455243333532353a20746f6b656e20616c7265616479206d696e74656400000060448201526064016111ac565b6127ba8484846139bf565b6127c48382613a73565b611eae565b6127d283613733565b61282e5760405162461bcd60e51b815260206004820152602760248201527f455243333532353a207472616e736665722066726f6d20696e76616c696420746044820152661bdad95b88125160ca1b60648201526084016111ac565b61283782613733565b6128915760405162461bcd60e51b815260206004820152602560248201527f455243333532353a207472616e7366657220746f20696e76616c696420746f6b604482015264195b88125160da1b60648201526084016111ac565b6000838152609e6020526040812054609d805490919081106128b5576128b56153d2565b906000526020600020906006020190506000609d609e600086815260200190815260200160002054815481106128ed576128ed6153d2565b9060005260206000209060060201905082826002015410156129645760405162461bcd60e51b815260206004820152602a60248201527f455243333532353a20696e73756666696369656e742062616c616e636520666f60448201526939103a3930b739b332b960b11b60648201526084016111ac565b80600101548260010154146129d25760405162461bcd60e51b815260206004820152602e60248201527f455243333532353a207472616e7366657220746f20746f6b656e20776974682060448201526d191a5999995c995b9d081cdb1bdd60921b60648201526084016111ac565b828260020160008282546129e6919061570a565b9250508190555082816002016000828254612a019190615721565b90915550506040518381528490869060008051602061598a8339815191529060200160405180910390a3612a4685858560405180602001604052806000815250613ae6565b611c865760405162461bcd60e51b815260206004820152602d60248201527f455243333532353a207472616e736665722072656a656374656420627920455260448201526c21999a991aa932b1b2b4bb32b960991b60648201526084016111ac565b6060600080612ab6856119bd565b90506000816001600160401b03811115612ad257612ad2614fe3565b604051908082528060200260200182016040528015612afb578160200160208202803683370190505b5090506000805b83811015612b66576000612b16898361120d565b905087612b22826111c5565b1415612b5357808484612b34816154ab565b955081518110612b4657612b466153d2565b6020026020010181815250505b5080612b5e816154ab565b915050612b02565b509093509150505b9250929050565b612b85612b8061260e565b613c47565b565b61150160008051602061596a83398151915282613172565b826001600160a01b0316612bb28261191d565b6001600160a01b031614612c145760405162461bcd60e51b8152602060048201526024808201527f455243333532353a207472616e736665722066726f6d20696e76616c6964206f6044820152633bb732b960e11b60648201526084016111ac565b6001600160a01b038216612c785760405162461bcd60e51b815260206004820152602560248201527f455243333532353a207472616e7366657220746f20746865207a65726f206164604482015264647265737360d81b60648201526084016111ac565b6000612c83826111c5565b90506000612c9083611eb4565b9050612c9d600084613c82565b612ca683613d19565b612cb08584613dc4565b612cba8484613ee5565b82846001600160a01b0316866001600160a01b0316600080516020615a3183398151915260405160405180910390a4611c86565b6001600160a01b03163b151590565b600054610100900460ff16612d245760405162461bcd60e51b81526004016111ac90615739565b6111c0838383613f6e565b600054610100900460ff1615808015612d4f5750600054600160ff909116105b80612d705750612d5e30612cee565b158015612d70575060005460ff166001145b612d8c5760405162461bcd60e51b81526004016111ac9061552e565b6000805460ff191660011790558015612daf576000805461ff0019166101001790555b612db7613fd5565b612dc18383613ffc565b80156111c0576000805461ff0019169055604051600181526000805160206159ea83398151915290602001612078565b60cc80546001600160a01b0319166001600160a01b0383169081179091556040517f5e4a30f4224898dbac86adca855a5edd3b8341a3aeb2b6ff0f0b5a82c013b65a90600090a250565b6000805160206159aa833981519152546001600160a01b031690565b611501612b75565b7f4910fdfa16fed3260ed0e7147f7cc6da11a60208b5b9406d12a635614ffd91435460ff1615612e92576111c08361411f565b826001600160a01b03166352d1902d6040518163ffffffff1660e01b815260040160206040518083038186803b158015612ecb57600080fd5b505afa925050508015612efb575060408051601f3d908101601f19168201909252612ef891810190615784565b60015b612f5e5760405162461bcd60e51b815260206004820152602e60248201527f45524331393637557067726164653a206e657720696d706c656d656e7461746960448201526d6f6e206973206e6f74205555505360901b60648201526084016111ac565b6000805160206159aa8339815191528114612fcd5760405162461bcd60e51b815260206004820152602960248201527f45524331393637557067726164653a20756e737570706f727465642070726f786044820152681a58589b195555525160ba1b60648201526084016111ac565b506111c08383836141b9565b612fe4838383612127565b156111c057600082815260ca6020908152604080832086845282528083206001600160a01b03851684529091529020805460ff1916905561302361260e565b6001600160a01b0316816001600160a01b0316847f6f9148fcdc32766ca802c14716295d56eab7ed848d0dba113966f40087c883908560405161306891815260200190565b60405180910390a4505050565b61307e8161254d565b6000818152609e6020526040812054609d805490919081106130a2576130a26153d2565b60009182526020909120600691909102016003810154600182015460028301549293506001600160a01b03909116916130da85613d19565b6130e48386613dc4565b6130ed856141de565b60008560008051602061598a8339815191528360405161310f91815260200190565b60405180910390a3600082867fe4f48c240d3b994948aa54f3e2f5fca59263dfe1d52b6e4cf39a5d249b5ccb6560405160405180910390a460405185906000906001600160a01b03861690600080516020615a31833981519152908390a4611c86565b61151d828261317f61260e565b613527565b600082815260cd602090815260409182902083905581518481529081018390527f5e07998cef9cea674942c66f0ea7b0bce89ab9473ce240cc93d616c3491f8aeb910160405180910390a15050565b6131de8260016143ec565b600082815260d06020526040908190208290555182907f1ebc57da8b3ebab98506502fbb73232ea29fbe86e4963a5a8c004810ad11190d906132239084815260200190565b60405180910390a25050565b6132388161342a565b6001600082815260cf602052604090205460ff16600281111561325d5761325d6154c6565b1461329657600081815260cf6020526040908190205490516308c9ef2d60e11b81526111ac91839160ff909116906001906004016157bf565b600081815260cf6020526040808220805460ff191690555182917fe2babfd5e77285a3c3dbc4b25592cbe4a7a26e97a7ac63067a22ebdaa9b82add91a250565b6132e1838383612127565b6111c057600082815260ca6020908152604080832086845282528083206001600160a01b03851684529091529020805460ff1916600117905561332261260e565b6001600160a01b0316816001600160a01b0316847f4dc88bd74ca601684356789d5b3dbc9cd44275b2544e8d35041203703b7682328560405161306891815260200190565b60006133738484612284565b600084815260ca6020908152604080832088845282529182902060010185905590518581529192508391839187917f15f4a36186b2284157fe71215a07487f6c8bdc1203b3307c3e1fd9693011d3d3910160405180910390a450505050565b61151d82826040516024016133e89291906157e0565b60408051601f198184030181529190526020810180516001600160e01b0316632d839cb360e21b17905261441e565b36600061342261443f565b915091509091565b61343381613733565b611501576040516321fbdd2b60e11b8152600481018290526024016111ac565b816001600160a01b0316836001600160a01b031614156134b55760405162461bcd60e51b815260206004820152601a60248201527f455243333532353a20617070726f766520746f2063616c6c657200000000000060448201526064016111ac565b6001600160a01b038381166000818152609f602090815260408083209487168084526002909501825291829020805460ff191686151590811790915591519182527f17307eab39ab6107e8899845ad3d59bd9653f200f220920489ca2b5937696c3191015b60405180910390a3505050565b613532838383612127565b6111c05780828460405163c8c801a760e01b81526004016111ac93929190615676565b613560848484612b9f565b61356c84848484614474565b611eae5760405162461bcd60e51b815260206004820152602760248201527f455243333532353a207472616e7366657220746f206e6f6e204552433732315260448201526632b1b2b4bb32b960c91b60648201526084016111ac565b6135d38160016143ec565b600081815260cf6020526040808220805460ff191660011790555182917f779fbee689bbd6f006ecb329206d35c7db7380f9837a8826fb8dc5cfcd3d33dd91a250565b60006136206139a8565b9050610fce848285856126a2565b60a080546001600160a01b0319166001600160a01b0383169081179091556040517f5252f52e45fc8ee6a7b43cef3645d23e9a470a34182b8b3a12627556635bfc9c90600090a250565b6060610dd16001600160a01b03831660146145d7565b600082815260cf602052604081205460ff16818160028111156136b3576136b36154c6565b146136c2576000915050610dd1565b60006136cd8561191d565b600086815260d06020526040902054909150158015906136eb575083155b1561371f576001600160a01b038116158015906137165750600085815260d060205260409020544211155b92505050610dd1565b6001600160a01b031615159150610dd19050565b609d5460009015801590610dd157506000828152609e6020526040902054609d80548492908110613766576137666153d2565b9060005260206000209060060201600001541492915050565b60008072184f03e93ff9f4daa797ed6e38ed64bf6a1f0160401b83106137be5772184f03e93ff9f4daa797ed6e38ed64bf6a1f0160401b830492506040015b6d04ee2d6d415b85acef810000000083106137ea576d04ee2d6d415b85acef8100000000830492506020015b662386f26fc10000831061380857662386f26fc10000830492506010015b6305f5e1008310613820576305f5e100830492506008015b612710831061383457612710830492506004015b60648310613846576064830492506002015b600a8310610dd15760010192915050565b6000613862336118b9565b15613874575060131936013560601c90565b503390565b6001600160a01b0382166138e25760405162461bcd60e51b815260206004820152602a60248201527f455243333532353a20617070726f76652076616c756520746f20746865207a65604482015269726f206164647265737360b01b60648201526084016111ac565b6138ec8284614772565b613952576000838152609e6020526040902054609d80549091908110613914576139146153d2565b60009182526020808320600692909202909101600501805460018101825590835291200180546001600160a01b0319166001600160a01b0384161790555b6000838152609c602090815260408083206001600160a01b038616808552908352928190208490555183815285917f621b050de0ad08b51d19b48b3e6df75348c4de6bdd93e81b252ca62e28265b1b910161351a565b60006139b8609b80546001019055565b50609b5490565b6040805160c081018252838152602080820184905260008284018190526001600160a01b038716606084015260808301819052835181815291820190935260a08201529050613a0d81614846565b613a178484613ee5565b60405183906001600160a01b03861690600090600080516020615a31833981519152908290a4816000847fe4f48c240d3b994948aa54f3e2f5fca59263dfe1d52b6e4cf39a5d249b5ccb6560405160405180910390a450505050565b6000828152609e6020526040902054609d80548392908110613a9757613a976153d2565b90600052602060002090600602016002016000828254613ab79190615721565b9091555050604051818152829060009060008051602061598a8339815191529060200160405180910390a35050565b600080613af28561191d565b9050613b06816001600160a01b0316612cee565b8015613b8a57506040516301ffc9a760e01b8152629ce20b60e01b60048201526001600160a01b038216906301ffc9a79060240160206040518083038186803b158015613b5257600080fd5b505afa158015613b66573d6000803e3d6000fd5b505050506040513d601f19601f82011682018060405250810190613b8a9190615802565b15613c39576000816001600160a01b0316629ce20b613ba761260e565b898989896040518663ffffffff1660e01b8152600401613bcb95949392919061581f565b602060405180830381600087803b158015613be557600080fd5b505af1158015613bf9573d6000803e3d6000fd5b505050506040513d601f19601f82011682018060405250810190613c1d919061585d565b6001600160e01b031916629ce20b60e01b149250613c3f915050565b60019150505b949350505050565b6001600160a01b038116600090815260cb602052604090205460ff166115015780604051632957ccdd60e21b81526004016111ac9190614d3f565b6000818152609e6020526040902054609d80548492908110613ca657613ca66153d2565b6000918252602090912060069091020160040180546001600160a01b0319166001600160a01b0392831617905581908316613ce08261191d565b6001600160a01b03167f8c5be1e5ebec7d5bd14f71427d1e84f3dd0314c0f7b2291e5b200ac8c7c3b92560405160405180910390a45050565b6000818152609e6020526040812054609d80549091908110613d3d57613d3d6153d2565b600091825260208220600560069092020190810154909250905b81811015613db5576000836005018281548110613d7657613d766153d2565b6000918252602080832090910154878352609c825260408084206001600160a01b03909216845291528120555080613dad816154ab565b915050613d57565b506111c0600583016000614b8c565b6000818152609e6020526040812054609d80549091908110613de857613de86153d2565b6000918252602080832060069290920290910160030180546001600160a01b0319166001600160a01b039485161790559184168152609f909152604081208054909190613e379060019061570a565b90506000826000018281548110613e5057613e506153d2565b90600052602060002001549050600083600101600086815260200190815260200160002054905081846000018281548110613e8d57613e8d6153d2565b60009182526020808320909101929092558381526001860190915260408082208390558682528120558354849080613ec757613ec761587a565b60019003818190600052602060002001600090559055505050505050565b6000818152609e6020526040902054609d80548492908110613f0957613f096153d2565b6000918252602080832060069290920290910160030180546001600160a01b0319166001600160a01b03948516179055939091168152609f80845260408083208054858552600182810188529285208190559286529082018155825292902090910155565b600054610100900460ff16613f955760405162461bcd60e51b81526004016111ac90615739565b8251613fa8906098906020860190614baa565b508151613fbc906099906020850190614baa565b50609a805460ff191660ff929092169190911790555050565b600054610100900460ff16612b855760405162461bcd60e51b81526004016111ac90615739565b600054610100900460ff161580801561401c5750600054600160ff909116105b8061403d575061402b30612cee565b15801561403d575060005460ff166001145b6140595760405162461bcd60e51b81526004016111ac9061552e565b6000805460ff19166001179055801561407c576000805461ff0019166101001790555b60005b828110156140ee5760016097600086868581811061409f5761409f6153d2565b90506020020160208101906140b49190614e0d565b6001600160a01b031681526020810191909152604001600020805460ff1916911515919091179055806140e6816154ab565b91505061407f565b5080156111c0576000805461ff0019169055604051600181526000805160206159ea83398151915290602001612078565b61412881612cee565b61418a5760405162461bcd60e51b815260206004820152602d60248201527f455243313936373a206e657720696d706c656d656e746174696f6e206973206e60448201526c1bdd08184818dbdb9d1c9858dd609a1b60648201526084016111ac565b6000805160206159aa83398151915280546001600160a01b0319166001600160a01b0392909216919091179055565b6141c283614998565b6000825111806141cf5750805b156111c057611eae83836149d8565b609d546000906141f09060019061570a565b6000838152609e6020526040812054609d8054939450909284908110614218576142186153d2565b60009182526020918290206040805160c08101825260069093029091018054835260018101548385015260028101548383015260038101546001600160a01b03908116606085015260048201541660808401526005810180548351818702810187019094528084529394919360a0860193928301828280156142c357602002820191906000526020600020905b81546001600160a01b031681526001909101906020018083116142a5575b505050505081525050905080609d83815481106142e2576142e26153d2565b600091825260209182902083516006909202019081558282015160018201556040830151600282015560608301516003820180546001600160a01b039283166001600160a01b031991821617909155608085015160048401805491909316911617905560a08301518051919261436092600585019290910190614c1e565b505081516000908152609e602052604080822085905586825281205550609d80548061438e5761438e61587a565b60008281526020812060066000199093019283020181815560018101829055600281018290556003810180546001600160a01b03199081169091556004820180549091169055906143e26005830182614b8c565b5050905550505050565b6143f6828261368e565b61151d576040516316af84a960e21b81526004810183905281151560248201526044016111ac565b80516a636f6e736f6c652e6c6f67602083016000808483855afa5050505050565b36600061444b336118b9565b1561446c576000803661445f60148261570a565b9261342293929190615890565b600036613422565b6000614488846001600160a01b0316612cee565b156145cf57836001600160a01b031663150b7a026144a461260e565b8786866040518563ffffffff1660e01b81526004016144c694939291906158ba565b602060405180830381600087803b1580156144e057600080fd5b505af1925050508015614510575060408051601f3d908101601f1916820190925261450d9181019061585d565b60015b6145b5573d80801561453e576040519150601f19603f3d011682016040523d82523d6000602084013e614543565b606091505b5080516145ad5760405162461bcd60e51b815260206004820152603260248201527f4552433732313a207472616e7366657220746f206e6f6e20455243373231526560448201527131b2b4bb32b91034b6b83632b6b2b73a32b960711b60648201526084016111ac565b805181602001fd5b6001600160e01b031916630a85bd0160e11b149050613c3f565b506001613c3f565b606060006145e68360026158f7565b6145f1906002615721565b6001600160401b0381111561460857614608614fe3565b6040519080825280601f01601f191660200182016040528015614632576020820181803683370190505b509050600360fc1b8160008151811061464d5761464d6153d2565b60200101906001600160f81b031916908160001a905350600f60fb1b8160018151811061467c5761467c6153d2565b60200101906001600160f81b031916908160001a90535060006146a08460026158f7565b6146ab906001615721565b90505b6001811115614723576f181899199a1a9b1b9c1cb0b131b232b360811b85600f16601081106146df576146df6153d2565b1a60f81b8282815181106146f5576146f56153d2565b60200101906001600160f81b031916908160001a90535060049490941c9361471c81615916565b90506146ae565b508315610fce5760405162461bcd60e51b815260206004820181905260248201527f537472696e67733a20686578206c656e67746820696e73756666696369656e7460448201526064016111ac565b6000818152609e6020526040812054609d80548392908110614796576147966153d2565b6000918252602082206005600690920201015491505b8181101561483b576000848152609e6020526040902054609d80546001600160a01b038816929081106147e1576147e16153d2565b90600052602060002090600602016005018281548110614803576148036153d2565b6000918252602090912001546001600160a01b0316141561482957600192505050610dd1565b80614833816154ab565b9150506147ac565b506000949350505050565b609d805482516000908152609e6020908152604080832084905560018401855593909152835160069092027fd26e832454299e9fabb89e0e5fffdc046d4e14431bc1bf607ffb2e8a1ddecf7b8101928355818501517fd26e832454299e9fabb89e0e5fffdc046d4e14431bc1bf607ffb2e8a1ddecf7c820155928401517fd26e832454299e9fabb89e0e5fffdc046d4e14431bc1bf607ffb2e8a1ddecf7d84015560608401517fd26e832454299e9fabb89e0e5fffdc046d4e14431bc1bf607ffb2e8a1ddecf7e840180546001600160a01b039283166001600160a01b03199182161790915560808601517fd26e832454299e9fabb89e0e5fffdc046d4e14431bc1bf607ffb2e8a1ddecf7f8601805491909316911617905560a084015180518594611eae937fd26e832454299e9fabb89e0e5fffdc046d4e14431bc1bf607ffb2e8a1ddecf80909101920190614c1e565b6149a18161411f565b6040516001600160a01b038216907fbc7cd75a20ee27fd9adebab32041f755214dbc6bffa90cc0225b39da2e5c2d3b90600090a250565b60606149e383612cee565b614a3e5760405162461bcd60e51b815260206004820152602660248201527f416464726573733a2064656c65676174652063616c6c20746f206e6f6e2d636f6044820152651b9d1c9858dd60d21b60648201526084016111ac565b600080846001600160a01b031684604051614a59919061592d565b600060405180830381855af49150503d8060008114614a94576040519150601f19603f3d011682016040523d82523d6000602084013e614a99565b606091505b5091509150614ac18282604051806060016040528060278152602001615a0a60279139614aca565b95945050505050565b60608315614ad9575081610fce565b610fce8383815115614aee5781518083602001fd5b8060405162461bcd60e51b81526004016111ac9190614d13565b828054614b149061539d565b90600052602060002090601f016020900481019282614b365760008555614b7c565b82601f10614b4f5782800160ff19823516178555614b7c565b82800160010185558215614b7c579182015b82811115614b7c578235825591602001919060010190614b61565b50614b88929150614c73565b5090565b50805460008255906000526020600020908101906115019190614c73565b828054614bb69061539d565b90600052602060002090601f016020900481019282614bd85760008555614b7c565b82601f10614bf157805160ff1916838001178555614b7c565b82800160010185558215614b7c579182015b82811115614b7c578251825591602001919060010190614c03565b828054828255906000526020600020908101928215614b7c579160200282015b82811115614b7c57825182546001600160a01b0319166001600160a01b03909116178255602090920191600190910190614c3e565b5b80821115614b885760008155600101614c74565b6001600160e01b03198116811461150157600080fd5b600060208284031215614cb057600080fd5b8135610fce81614c88565b60005b83811015614cd6578181015183820152602001614cbe565b83811115611eae5750506000910152565b60008151808452614cff816020860160208601614cbb565b601f01601f19169290920160200192915050565b602081526000610fce6020830184614ce7565b600060208284031215614d3857600080fd5b5035919050565b6001600160a01b0391909116815260200190565b80356001600160a01b038116811461198857600080fd5b60008060408385031215614d7d57600080fd5b614d8683614d53565b946020939093013593505050565b600080600060608486031215614da957600080fd5b83359250614db960208501614d53565b9150604084013590509250925092565b6020808252825182820181905260009190848201906040850190845b81811015614e0157835183529284019291840191600101614de5565b50909695505050505050565b600060208284031215614e1f57600080fd5b610fce82614d53565b600080600060608486031215614e3d57600080fd5b614e4684614d53565b9250614db960208501614d53565b600080600060608486031215614e6957600080fd5b505081359360208301359350604090920135919050565b60008083601f840112614e9257600080fd5b5081356001600160401b03811115614ea957600080fd5b602083019150836020828501011115612b6e57600080fd5b60008060008060008060008060a0898b031215614edd57600080fd5b88356001600160401b0380821115614ef457600080fd5b614f008c838d01614e80565b909a50985060208b0135915080821115614f1957600080fd5b614f258c838d01614e80565b9098509650869150614f3960408c01614d53565b9550614f4760608c01614d53565b945060808b0135915080821115614f5d57600080fd5b818b0191508b601f830112614f7157600080fd5b813581811115614f8057600080fd5b8c60208260051b8501011115614f9557600080fd5b6020830194508093505050509295985092959890939650565b600080600060608486031215614fc357600080fd5b8335925060208401359150614fda60408501614d53565b90509250925092565b634e487b7160e01b600052604160045260246000fd5b604051601f8201601f191681016001600160401b038111828210171561502157615021614fe3565b604052919050565b60006001600160401b0382111561504257615042614fe3565b50601f01601f191660200190565b600082601f83011261506157600080fd5b813561507461506f82615029565b614ff9565b81815284602083860101111561508957600080fd5b816020850160208301376000918101602001919091529392505050565b600080604083850312156150b957600080fd5b6150c283614d53565b915060208301356001600160401b038111156150dd57600080fd5b6150e985828601615050565b9150509250929050565b6000806040838503121561510657600080fd5b50508035926020909101359150565b60006080828403121561512757600080fd5b50919050565b600080600060c0848603121561514257600080fd5b8335925060208401359150614fda8560408601615115565b801515811461150157600080fd5b60008060008060006080868803121561518057600080fd5b8535945060208601356001600160401b0381111561519d57600080fd5b6151a988828901614e80565b90955093505060408601356151bd8161515a565b91506151cb60608701614d53565b90509295509295909350565b6000806000604084860312156151ec57600080fd5b8335925060208401356001600160401b0381111561520957600080fd5b61521586828701614e80565b9497909650939450505050565b6000806040838503121561523557600080fd5b61523e83614d53565b9150602083013561524e8161515a565b809150509250929050565b6000806000806080858703121561526f57600080fd5b61527885614d53565b935061528660208601614d53565b92506040850135915060608501356001600160401b038111156152a857600080fd5b6152b487828801615050565b91505092959194509250565b600080600080600061010086880312156152d957600080fd5b6152e286614d53565b94506020860135935060408601359250606086013591506151cb8760808801615115565b6000806040838503121561531957600080fd5b8235915061532960208401614d53565b90509250929050565b6001600160a01b038616815260ff8516602082015260a06040820181905260009061535f90830186614ce7565b606083019490945250608001529392505050565b6000806040838503121561538657600080fd5b61538f83614d53565b915061532960208401614d53565b600181811c908216806153b157607f821691505b6020821081141561512757634e487b7160e01b600052602260045260246000fd5b634e487b7160e01b600052603260045260246000fd5b600083516153fa818460208801614cbb565b64736c6f742f60d81b908301908152835161541c816005840160208801614cbb565b01600501949350505050565b60006020828403121561543a57600080fd5b81516001600160401b0381111561545057600080fd5b8201601f8101841361546157600080fd5b805161546f61506f82615029565b81815285602083850101111561548457600080fd5b614ac1826020830160208601614cbb565b634e487b7160e01b600052601160045260246000fd5b60006000198214156154bf576154bf615495565b5060010190565b634e487b7160e01b600052602160045260246000fd5b60208082526032908201527f455243333532353a207472616e736665722063616c6c6572206973206e6f74206040820152711bdddb995c881b9bdc88185c1c1c9bdd995960721b606082015260800190565b6020808252602e908201527f496e697469616c697a61626c653a20636f6e747261637420697320616c72656160408201526d191e481a5b9a5d1a585b1a5e995960921b606082015260800190565b6020808252602c908201527f46756e6374696f6e206d7573742062652063616c6c6564207468726f7567682060408201526b19195b1959d85d1958d85b1b60a21b606082015260800190565b6020808252602c908201527f46756e6374696f6e206d7573742062652063616c6c6564207468726f7567682060408201526b6163746976652070726f787960a01b606082015260800190565b602080825260199082015278115490cccd4c8d4e881a5b9d985b1a59081d1bdad95b881251603a1b604082015260600190565b60208152816020820152818360408301376000818301604090810191909152601f909201601f19160101919050565b6001600160a01b039390931683526020830191909152604082015260600190565b600083516156a9818460208801614cbb565b8351908301906156bd818360208801614cbb565b01949350505050565b600083516156d8818460208801614cbb565b68636f6e74726163742f60b81b90830190815283516156fe816009840160208801614cbb565b01600901949350505050565b60008282101561571c5761571c615495565b500390565b6000821982111561573457615734615495565b500190565b6020808252602b908201527f496e697469616c697a61626c653a20636f6e7472616374206973206e6f74206960408201526a6e697469616c697a696e6760a81b606082015260800190565b60006020828403121561579657600080fd5b5051919050565b600381106157bb57634e487b7160e01b600052602160045260246000fd5b9052565b838152606081016157d3602083018561579d565b613c3f604083018461579d565b6040815260006157f36040830185614ce7565b90508260208301529392505050565b60006020828403121561581457600080fd5b8151610fce8161515a565b60018060a01b038616815284602082015283604082015282606082015260a06080820152600061585260a0830184614ce7565b979650505050505050565b60006020828403121561586f57600080fd5b8151610fce81614c88565b634e487b7160e01b600052603160045260246000fd5b600080858511156158a057600080fd5b838611156158ad57600080fd5b5050820193919092039150565b6001600160a01b03858116825284166020820152604081018390526080606082018190526000906158ed90830184614ce7565b9695505050505050565b600081600019048311821515161561591157615911615495565b500290565b60008161592557615925615495565b506000190190565b6000825161593f818460208701614cbb565b919091019291505056fefca69b310bd19d275687ebe00b254b0772cf7a367c3f81a9a5a433f831fdc1dc3c63e605be3290ab6b04cfc46c6e1516e626d43236b034f09d7ede1d017beb0c0b2aac84f3ec956911fd78eae5311062972ff949f38412e8da39069d9f068cc6360894a13ba1a3210667c828492db98dca3e2076cc3735a920a3ca505d382bbc449b0a7e0acc0a95c71947cb19fdd122b42abca9bdfbd6707ca4f1e3fdaef05e7f26b83ff96e1f2b6a682f133852f6798a09c465da95921460cefb3847402498416464726573733a206c6f772d6c6576656c2064656c65676174652063616c6c206661696c6564ddf252ad1be2c89b69c2b068fc378daa952ba7f163c4a11628f55a4df523b3efa2646970667358221220acaab261bca1192f984247d297d900b4a0c87a59e17d290bcabe3523fc2aac2d64736f6c63430008090033",
  "linkReferences": {},
  "deployedLinkReferences": {}
}