{
  "address": "0x7aa0c390b25327776BF3B281dBB0a9642f6D7f20",
  "abi": [
    {
      "inputs": [
        {
          "internalType": "string",
          "name": "name",
          "type": "string"
        },
        {
          "internalType": "string",
          "name": "symbol",
          "type": "string"
        },
        {
          "internalType": "address",
          "name": "superAdmin",
          "type": "address"
        },
        {
          "internalType": "address",
          "name": "flagsStorage",
          "type": "address"
        },
        {
          "internalType": "address[]",
          "name": "trustedForwarders",
          "type": "address[]"
        }
      ],
      "stateMutability": "nonpayable",
      "type": "constructor"
    },
    {
      "anonymous": false,
      "inputs": [
        {
          "indexed": true,
          "internalType": "address",
          "name": "_owner",
          "type": "address"
        },
        {
          "indexed": true,
          "internalType": "address",
          "name": "_approved",
          "type": "address"
        },
        {
          "indexed": true,
          "internalType": "uint256",
          "name": "_tokenId",
          "type": "uint256"
        }
      ],
      "name": "Approval",
      "type": "event"
    },
    {
      "anonymous": false,
      "inputs": [
        {
          "indexed": true,
          "internalType": "address",
          "name": "_owner",
          "type": "address"
        },
        {
          "indexed": true,
          "internalType": "address",
          "name": "_operator",
          "type": "address"
        },
        {
          "indexed": false,
          "internalType": "bool",
          "name": "_approved",
          "type": "bool"
        }
      ],
      "name": "ApprovalForAll",
      "type": "event"
    },
    {
      "anonymous": false,
      "inputs": [
        {
          "indexed": true,
          "internalType": "uint256",
          "name": "_tokenId",
          "type": "uint256"
        },
        {
          "indexed": true,
          "internalType": "address",
          "name": "_operator",
          "type": "address"
        },
        {
          "indexed": false,
          "internalType": "uint256",
          "name": "_value",
          "type": "uint256"
        }
      ],
      "name": "ApprovalValue",
      "type": "event"
    },
    {
      "anonymous": false,
      "inputs": [
        {
          "indexed": false,
          "internalType": "uint256",
          "name": "tokenId",
          "type": "uint256"
        },
        {
          "indexed": false,
          "internalType": "uint256",
          "name": "bitmask",
          "type": "uint256"
        }
      ],
      "name": "BitMaskUpdated",
      "type": "event"
    },
    {
      "anonymous": false,
      "inputs": [
        {
          "indexed": false,
          "internalType": "address",
          "name": "previousDAOManager",
          "type": "address"
        },
        {
          "indexed": false,
          "internalType": "address",
          "name": "newDAOManager",
          "type": "address"
        },
        {
          "indexed": false,
          "internalType": "uint256",
          "name": "network",
          "type": "uint256"
        }
      ],
      "name": "DAOManagerTransferred",
      "type": "event"
    },
    {
      "anonymous": false,
      "inputs": [
        {
          "indexed": true,
          "internalType": "uint256",
          "name": "tokenId",
          "type": "uint256"
        },
        {
          "indexed": false,
          "internalType": "uint256",
          "name": "timestamp",
          "type": "uint256"
        }
      ],
      "name": "Expiration",
      "type": "event"
    },
    {
      "anonymous": false,
      "inputs": [
        {
          "indexed": true,
          "internalType": "address",
          "name": "flagsStorage",
          "type": "address"
        }
      ],
      "name": "FlagsStorageUpdated",
      "type": "event"
    },
    {
      "anonymous": false,
      "inputs": [
        {
          "indexed": true,
          "internalType": "uint256",
          "name": "tokenId",
          "type": "uint256"
        }
      ],
      "name": "Freeze",
      "type": "event"
    },
    {
      "anonymous": false,
      "inputs": [
        {
          "indexed": false,
          "internalType": "uint256",
          "name": "tokenId",
          "type": "uint256"
        }
      ],
      "name": "Revoke",
      "type": "event"
    },
    {
      "anonymous": false,
      "inputs": [
        {
          "indexed": true,
          "internalType": "bytes32",
          "name": "role",
          "type": "bytes32"
        },
        {
          "indexed": false,
          "internalType": "uint256",
          "name": "domain",
          "type": "uint256"
        },
        {
          "indexed": true,
          "internalType": "bytes32",
          "name": "previousAdminRole",
          "type": "bytes32"
        },
        {
          "indexed": true,
          "internalType": "bytes32",
          "name": "newAdminRole",
          "type": "bytes32"
        }
      ],
      "name": "RoleAdminChanged",
      "type": "event"
    },
    {
      "anonymous": false,
      "inputs": [
        {
          "indexed": true,
          "internalType": "bytes32",
          "name": "role",
          "type": "bytes32"
        },
        {
          "indexed": false,
          "internalType": "uint256",
          "name": "domain",
          "type": "uint256"
        },
        {
          "indexed": true,
          "internalType": "address",
          "name": "account",
          "type": "address"
        },
        {
          "indexed": true,
          "internalType": "address",
          "name": "sender",
          "type": "address"
        }
      ],
      "name": "RoleGranted",
      "type": "event"
    },
    {
      "anonymous": false,
      "inputs": [
        {
          "indexed": true,
          "internalType": "bytes32",
          "name": "role",
          "type": "bytes32"
        },
        {
          "indexed": false,
          "internalType": "uint256",
          "name": "domain",
          "type": "uint256"
        },
        {
          "indexed": true,
          "internalType": "address",
          "name": "account",
          "type": "address"
        },
        {
          "indexed": true,
          "internalType": "address",
          "name": "sender",
          "type": "address"
        }
      ],
      "name": "RoleRevoked",
      "type": "event"
    },
    {
      "anonymous": false,
      "inputs": [
        {
          "indexed": true,
          "internalType": "address",
          "name": "metadataDescriptor",
          "type": "address"
        }
      ],
      "name": "SetMetadataDescriptor",
      "type": "event"
    },
    {
      "anonymous": false,
      "inputs": [
        {
          "indexed": true,
          "internalType": "uint256",
          "name": "_tokenId",
          "type": "uint256"
        },
        {
          "indexed": true,
          "internalType": "uint256",
          "name": "_oldSlot",
          "type": "uint256"
        },
        {
          "indexed": true,
          "internalType": "uint256",
          "name": "_newSlot",
          "type": "uint256"
        }
      ],
      "name": "SlotChanged",
      "type": "event"
    },
    {
      "anonymous": false,
      "inputs": [
        {
          "indexed": true,
          "internalType": "address",
          "name": "account",
          "type": "address"
        }
      ],
      "name": "SuperAdminAdded",
      "type": "event"
    },
    {
      "anonymous": false,
      "inputs": [
        {
          "indexed": true,
          "internalType": "address",
          "name": "account",
          "type": "address"
        }
      ],
      "name": "SuperAdminRemoved",
      "type": "event"
    },
    {
      "anonymous": false,
      "inputs": [
        {
          "indexed": true,
          "internalType": "address",
          "name": "_from",
          "type": "address"
        },
        {
          "indexed": true,
          "internalType": "address",
          "name": "_to",
          "type": "address"
        },
        {
          "indexed": true,
          "internalType": "uint256",
          "name": "_tokenId",
          "type": "uint256"
        }
      ],
      "name": "Transfer",
      "type": "event"
    },
    {
      "anonymous": false,
      "inputs": [
        {
          "indexed": true,
          "internalType": "uint256",
          "name": "_fromTokenId",
          "type": "uint256"
        },
        {
          "indexed": true,
          "internalType": "uint256",
          "name": "_toTokenId",
          "type": "uint256"
        },
        {
          "indexed": false,
          "internalType": "uint256",
          "name": "_value",
          "type": "uint256"
        }
      ],
      "name": "TransferValue",
      "type": "event"
    },
    {
      "anonymous": false,
      "inputs": [
        {
          "indexed": true,
          "internalType": "uint256",
          "name": "tokenId",
          "type": "uint256"
        }
      ],
      "name": "Unfreeze",
      "type": "event"
    },
    {
      "inputs": [],
      "name": "DAO_MANAGER_ROLE",
      "outputs": [
        {
          "internalType": "bytes32",
          "name": "",
          "type": "bytes32"
        }
      ],
      "stateMutability": "view",
      "type": "function"
    },
    {
      "inputs": [],
      "name": "DEFAULT_ADMIN_ROLE",
      "outputs": [
        {
          "internalType": "bytes32",
          "name": "",
          "type": "bytes32"
        }
      ],
      "stateMutability": "view",
      "type": "function"
    },
    {
      "inputs": [],
      "name": "GATEKEEPER_ROLE",
      "outputs": [
        {
          "internalType": "bytes32",
          "name": "",
          "type": "bytes32"
        }
      ],
      "stateMutability": "view",
      "type": "function"
    },
    {
      "inputs": [],
      "name": "NETWORK_AUTHORITY_ROLE",
      "outputs": [
        {
          "internalType": "bytes32",
          "name": "",
          "type": "bytes32"
        }
      ],
      "stateMutability": "view",
      "type": "function"
    },
    {
      "inputs": [
        {
          "internalType": "uint256",
          "name": "tokenId",
          "type": "uint256"
        },
        {
          "internalType": "uint8",
          "name": "index",
          "type": "uint8"
        }
      ],
      "name": "addBit",
      "outputs": [],
      "stateMutability": "nonpayable",
      "type": "function"
    },
    {
      "inputs": [
        {
          "internalType": "uint256",
          "name": "tokenId",
          "type": "uint256"
        },
        {
          "internalType": "uint256",
          "name": "mask",
          "type": "uint256"
        }
      ],
      "name": "addBitmask",
      "outputs": [],
      "stateMutability": "nonpayable",
      "type": "function"
    },
    {
      "inputs": [
        {
          "internalType": "address",
          "name": "forwarder",
          "type": "address"
        }
      ],
      "name": "addForwarder",
      "outputs": [],
      "stateMutability": "nonpayable",
      "type": "function"
    },
    {
      "inputs": [
        {
          "internalType": "address",
          "name": "gatekeeper",
          "type": "address"
        },
        {
          "internalType": "uint256",
          "name": "network",
          "type": "uint256"
        }
      ],
      "name": "addGatekeeper",
      "outputs": [],
      "stateMutability": "nonpayable",
      "type": "function"
    },
    {
      "inputs": [
        {
          "internalType": "address",
          "name": "authority",
          "type": "address"
        },
        {
          "internalType": "uint256",
          "name": "network",
          "type": "uint256"
        }
      ],
      "name": "addNetworkAuthority",
      "outputs": [],
      "stateMutability": "nonpayable",
      "type": "function"
    },
    {
      "inputs": [
        {
          "internalType": "uint256",
          "name": "tokenId_",
          "type": "uint256"
        },
        {
          "internalType": "address",
          "name": "operator_",
          "type": "address"
        }
      ],
      "name": "allowance",
      "outputs": [
        {
          "internalType": "uint256",
          "name": "",
          "type": "uint256"
        }
      ],
      "stateMutability": "view",
      "type": "function"
    },
    {
      "inputs": [
        {
          "internalType": "address",
          "name": "to_",
          "type": "address"
        },
        {
          "internalType": "uint256",
          "name": "tokenId_",
          "type": "uint256"
        }
      ],
      "name": "approve",
      "outputs": [],
      "stateMutability": "payable",
      "type": "function"
    },
    {
      "inputs": [
        {
          "internalType": "uint256",
          "name": "tokenId_",
          "type": "uint256"
        },
        {
          "internalType": "address",
          "name": "to_",
          "type": "address"
        },
        {
          "internalType": "uint256",
          "name": "value_",
          "type": "uint256"
        }
      ],
      "name": "approve",
      "outputs": [],
      "stateMutability": "payable",
      "type": "function"
    },
    {
      "inputs": [
        {
          "internalType": "address",
          "name": "owner_",
          "type": "address"
        }
      ],
      "name": "balanceOf",
      "outputs": [
        {
          "internalType": "uint256",
          "name": "balance",
          "type": "uint256"
        }
      ],
      "stateMutability": "view",
      "type": "function"
    },
    {
      "inputs": [
        {
          "internalType": "uint256",
          "name": "tokenId_",
          "type": "uint256"
        }
      ],
      "name": "balanceOf",
      "outputs": [
        {
          "internalType": "uint256",
          "name": "",
          "type": "uint256"
        }
      ],
      "stateMutability": "view",
      "type": "function"
    },
    {
      "inputs": [
        {
          "internalType": "uint256",
          "name": "tokenId",
          "type": "uint256"
        }
      ],
      "name": "burn",
      "outputs": [],
      "stateMutability": "nonpayable",
      "type": "function"
    },
    {
      "inputs": [
        {
          "internalType": "uint256",
          "name": "tokenId",
          "type": "uint256"
        }
      ],
      "name": "clearBitmask",
      "outputs": [],
      "stateMutability": "nonpayable",
      "type": "function"
    },
    {
      "inputs": [],
      "name": "contractURI",
      "outputs": [
        {
          "internalType": "string",
          "name": "",
          "type": "string"
        }
      ],
      "stateMutability": "view",
      "type": "function"
    },
    {
      "inputs": [],
      "name": "controller",
      "outputs": [
        {
          "internalType": "address",
          "name": "",
          "type": "address"
        }
      ],
      "stateMutability": "view",
      "type": "function"
    },
    {
      "inputs": [
        {
          "internalType": "uint256",
          "name": "network",
          "type": "uint256"
        },
        {
          "internalType": "string",
          "name": "name",
          "type": "string"
        },
        {
          "internalType": "bool",
          "name": "daoGoverned",
          "type": "bool"
        },
        {
          "internalType": "address",
          "name": "daoManager",
          "type": "address"
        }
      ],
      "name": "createNetwork",
      "outputs": [],
      "stateMutability": "nonpayable",
      "type": "function"
    },
    {
      "inputs": [
        {
          "internalType": "uint256",
          "name": "tokenId",
          "type": "uint256"
        }
      ],
      "name": "expiration",
      "outputs": [
        {
          "internalType": "uint256",
          "name": "",
          "type": "uint256"
        }
      ],
      "stateMutability": "view",
      "type": "function"
    },
    {
      "inputs": [],
      "name": "flagsStorage",
      "outputs": [
        {
          "internalType": "contract IFlagsStorage",
          "name": "",
          "type": "address"
        }
      ],
      "stateMutability": "view",
      "type": "function"
    },
    {
      "inputs": [
        {
          "internalType": "uint256",
          "name": "tokenId",
          "type": "uint256"
        }
      ],
      "name": "freeze",
      "outputs": [],
      "stateMutability": "nonpayable",
      "type": "function"
    },
    {
      "inputs": [
        {
          "internalType": "uint256",
          "name": "tokenId_",
          "type": "uint256"
        }
      ],
      "name": "getApproved",
      "outputs": [
        {
          "internalType": "address",
          "name": "",
          "type": "address"
        }
      ],
      "stateMutability": "view",
      "type": "function"
    },
    {
      "inputs": [
        {
          "internalType": "uint256",
          "name": "tokenId",
          "type": "uint256"
        }
      ],
      "name": "getIdentity",
      "outputs": [
        {
          "internalType": "string",
          "name": "",
          "type": "string"
        }
      ],
      "stateMutability": "view",
      "type": "function"
    },
    {
      "inputs": [
        {
          "internalType": "bytes32",
          "name": "role",
          "type": "bytes32"
        },
        {
          "internalType": "uint256",
          "name": "domain",
          "type": "uint256"
        }
      ],
      "name": "getRoleAdmin",
      "outputs": [
        {
          "internalType": "bytes32",
          "name": "",
          "type": "bytes32"
        }
      ],
      "stateMutability": "view",
      "type": "function"
    },
    {
      "inputs": [
        {
          "internalType": "uint256",
          "name": "tokenId",
          "type": "uint256"
        }
      ],
      "name": "getToken",
      "outputs": [
        {
          "internalType": "address",
          "name": "owner",
          "type": "address"
        },
        {
          "internalType": "uint8",
          "name": "state",
          "type": "uint8"
        },
        {
          "internalType": "string",
          "name": "identity",
          "type": "string"
        },
        {
          "internalType": "uint256",
          "name": "expiration",
          "type": "uint256"
        },
        {
          "internalType": "uint256",
          "name": "bitmask",
          "type": "uint256"
        }
      ],
      "stateMutability": "view",
      "type": "function"
    },
    {
      "inputs": [
        {
          "internalType": "uint256",
          "name": "tokenId",
          "type": "uint256"
        }
      ],
      "name": "getTokenBitmask",
      "outputs": [
        {
          "internalType": "uint256",
          "name": "",
          "type": "uint256"
        }
      ],
      "stateMutability": "view",
      "type": "function"
    },
    {
      "inputs": [
        {
          "internalType": "address",
          "name": "owner",
          "type": "address"
        },
        {
          "internalType": "uint256",
          "name": "network",
          "type": "uint256"
        }
      ],
      "name": "getTokenIdsByOwnerAndNetwork",
      "outputs": [
        {
          "internalType": "uint256[]",
          "name": "",
          "type": "uint256[]"
        }
      ],
      "stateMutability": "view",
      "type": "function"
    },
    {
      "inputs": [
        {
          "internalType": "uint256",
          "name": "tokenId",
          "type": "uint256"
        }
      ],
      "name": "getTokenState",
      "outputs": [
        {
          "internalType": "uint8",
          "name": "state",
          "type": "uint8"
        }
      ],
      "stateMutability": "view",
      "type": "function"
    },
    {
      "inputs": [
        {
          "internalType": "bytes32",
          "name": "role",
          "type": "bytes32"
        },
        {
          "internalType": "uint256",
          "name": "domain",
          "type": "uint256"
        },
        {
          "internalType": "address",
          "name": "account",
          "type": "address"
        }
      ],
      "name": "grantRole",
      "outputs": [],
      "stateMutability": "nonpayable",
      "type": "function"
    },
    {
      "inputs": [
        {
          "internalType": "bytes32",
          "name": "role",
          "type": "bytes32"
        },
        {
          "internalType": "uint256",
          "name": "domain",
          "type": "uint256"
        },
        {
          "internalType": "address",
          "name": "account",
          "type": "address"
        }
      ],
      "name": "hasRole",
      "outputs": [
        {
          "internalType": "bool",
          "name": "",
          "type": "bool"
        }
      ],
      "stateMutability": "view",
      "type": "function"
    },
    {
      "inputs": [
        {
          "internalType": "address",
          "name": "owner_",
          "type": "address"
        },
        {
          "internalType": "address",
          "name": "operator_",
          "type": "address"
        }
      ],
      "name": "isApprovedForAll",
      "outputs": [
        {
          "internalType": "bool",
          "name": "",
          "type": "bool"
        }
      ],
      "stateMutability": "view",
      "type": "function"
    },
    {
      "inputs": [
        {
          "internalType": "address",
          "name": "gatekeeper",
          "type": "address"
        },
        {
          "internalType": "uint256",
          "name": "network",
          "type": "uint256"
        }
      ],
      "name": "isGatekeeper",
      "outputs": [
        {
          "internalType": "bool",
          "name": "",
          "type": "bool"
        }
      ],
      "stateMutability": "view",
      "type": "function"
    },
    {
      "inputs": [
        {
          "internalType": "address",
          "name": "authority",
          "type": "address"
        },
        {
          "internalType": "uint256",
          "name": "network",
          "type": "uint256"
        }
      ],
      "name": "isNetworkAuthority",
      "outputs": [
        {
          "internalType": "bool",
          "name": "",
          "type": "bool"
        }
      ],
      "stateMutability": "view",
      "type": "function"
    },
    {
      "inputs": [
        {
          "internalType": "uint256",
          "name": "",
          "type": "uint256"
        }
      ],
      "name": "isNetworkDAOGoverned",
      "outputs": [
        {
          "internalType": "bool",
          "name": "",
          "type": "bool"
        }
      ],
      "stateMutability": "view",
      "type": "function"
    },
    {
      "inputs": [
        {
          "internalType": "address",
          "name": "account",
          "type": "address"
        }
      ],
      "name": "isSuperAdmin",
      "outputs": [
        {
          "internalType": "bool",
          "name": "",
          "type": "bool"
        }
      ],
      "stateMutability": "view",
      "type": "function"
    },
    {
      "inputs": [],
      "name": "isTransfersRestricted",
      "outputs": [
        {
          "internalType": "bool",
          "name": "",
          "type": "bool"
        }
      ],
      "stateMutability": "view",
      "type": "function"
    },
    {
      "inputs": [
        {
          "internalType": "address",
          "name": "forwarder",
          "type": "address"
        }
      ],
      "name": "isTrustedForwarder",
      "outputs": [
        {
          "internalType": "bool",
          "name": "",
          "type": "bool"
        }
      ],
      "stateMutability": "view",
      "type": "function"
    },
    {
      "inputs": [],
      "name": "metadataDescriptor",
      "outputs": [
        {
          "internalType": "contract IERC3525MetadataDescriptor",
          "name": "",
          "type": "address"
        }
      ],
      "stateMutability": "view",
      "type": "function"
    },
    {
      "inputs": [
        {
          "internalType": "address",
          "name": "to",
          "type": "address"
        },
        {
          "internalType": "uint256",
          "name": "network",
          "type": "uint256"
        },
        {
          "internalType": "uint256",
          "name": "expiration",
          "type": "uint256"
        },
        {
          "internalType": "uint256",
          "name": "mask",
          "type": "uint256"
        },
        {
          "components": [
            {
              "internalType": "uint256",
              "name": "value",
              "type": "uint256"
            },
            {
              "internalType": "enum ChargeType",
              "name": "chargeType",
              "type": "uint8"
            },
            {
              "internalType": "address",
              "name": "token",
              "type": "address"
            },
            {
              "internalType": "address",
              "name": "recipient",
              "type": "address"
            }
          ],
          "internalType": "struct Charge",
          "name": "charge",
          "type": "tuple"
        }
      ],
      "name": "mint",
      "outputs": [],
      "stateMutability": "nonpayable",
      "type": "function"
    },
    {
      "inputs": [],
      "name": "name",
      "outputs": [
        {
          "internalType": "string",
          "name": "",
          "type": "string"
        }
      ],
      "stateMutability": "view",
      "type": "function"
    },
    {
      "inputs": [
        {
          "internalType": "uint256",
          "name": "tokenId_",
          "type": "uint256"
        }
      ],
      "name": "ownerOf",
      "outputs": [
        {
          "internalType": "address",
          "name": "owner_",
          "type": "address"
        }
      ],
      "stateMutability": "view",
      "type": "function"
    },
    {
      "inputs": [
        {
          "internalType": "uint256",
          "name": "tokenId",
          "type": "uint256"
        },
        {
          "internalType": "uint8",
          "name": "index",
          "type": "uint8"
        }
      ],
      "name": "removeBit",
      "outputs": [],
      "stateMutability": "nonpayable",
      "type": "function"
    },
    {
      "inputs": [
        {
          "internalType": "uint256",
          "name": "tokenId",
          "type": "uint256"
        },
        {
          "internalType": "uint8",
          "name": "removingMask",
          "type": "uint8"
        }
      ],
      "name": "removeBitmask",
      "outputs": [],
      "stateMutability": "nonpayable",
      "type": "function"
    },
    {
      "inputs": [
        {
          "internalType": "address",
          "name": "forwarder",
          "type": "address"
        }
      ],
      "name": "removeForwarder",
      "outputs": [],
      "stateMutability": "nonpayable",
      "type": "function"
    },
    {
      "inputs": [
        {
          "internalType": "address",
          "name": "gatekeeper",
          "type": "address"
        },
        {
          "internalType": "uint256",
          "name": "network",
          "type": "uint256"
        }
      ],
      "name": "removeGatekeeper",
      "outputs": [],
      "stateMutability": "nonpayable",
      "type": "function"
    },
    {
      "inputs": [
        {
          "internalType": "address",
          "name": "authority",
          "type": "address"
        },
        {
          "internalType": "uint256",
          "name": "network",
          "type": "uint256"
        }
      ],
      "name": "removeNetworkAuthority",
      "outputs": [],
      "stateMutability": "nonpayable",
      "type": "function"
    },
    {
      "inputs": [
        {
          "internalType": "uint256",
          "name": "network",
          "type": "uint256"
        },
        {
          "internalType": "string",
          "name": "name",
          "type": "string"
        }
      ],
      "name": "renameNetwork",
      "outputs": [],
      "stateMutability": "nonpayable",
      "type": "function"
    },
    {
      "inputs": [
        {
          "internalType": "bytes32",
          "name": "role",
          "type": "bytes32"
        },
        {
          "internalType": "uint256",
          "name": "domain",
          "type": "uint256"
        },
        {
          "internalType": "address",
          "name": "account",
          "type": "address"
        }
      ],
      "name": "renounceRole",
      "outputs": [],
      "stateMutability": "nonpayable",
      "type": "function"
    },
    {
      "inputs": [
        {
          "internalType": "uint256",
          "name": "tokenId",
          "type": "uint256"
        }
      ],
      "name": "revoke",
      "outputs": [],
      "stateMutability": "nonpayable",
      "type": "function"
    },
    {
      "inputs": [
        {
          "internalType": "bytes32",
          "name": "role",
          "type": "bytes32"
        },
        {
          "internalType": "uint256",
          "name": "domain",
          "type": "uint256"
        },
        {
          "internalType": "address",
          "name": "account",
          "type": "address"
        }
      ],
      "name": "revokeRole",
      "outputs": [],
      "stateMutability": "nonpayable",
      "type": "function"
    },
    {
      "inputs": [
        {
          "internalType": "address",
          "name": "account",
          "type": "address"
        }
      ],
      "name": "revokeSuperAdmin",
      "outputs": [],
      "stateMutability": "nonpayable",
      "type": "function"
    },
    {
      "inputs": [
        {
          "internalType": "address",
          "name": "from_",
          "type": "address"
        },
        {
          "internalType": "address",
          "name": "to_",
          "type": "address"
        },
        {
          "internalType": "uint256",
          "name": "tokenId_",
          "type": "uint256"
        }
      ],
      "name": "safeTransferFrom",
      "outputs": [],
      "stateMutability": "payable",
      "type": "function"
    },
    {
      "inputs": [
        {
          "internalType": "address",
          "name": "from_",
          "type": "address"
        },
        {
          "internalType": "address",
          "name": "to_",
          "type": "address"
        },
        {
          "internalType": "uint256",
          "name": "tokenId_",
          "type": "uint256"
        },
        {
          "internalType": "bytes",
          "name": "data_",
          "type": "bytes"
        }
      ],
      "name": "safeTransferFrom",
      "outputs": [],
      "stateMutability": "payable",
      "type": "function"
    },
    {
      "inputs": [
        {
          "internalType": "address",
          "name": "operator_",
          "type": "address"
        },
        {
          "internalType": "bool",
          "name": "approved_",
          "type": "bool"
        }
      ],
      "name": "setApprovalForAll",
      "outputs": [],
      "stateMutability": "nonpayable",
      "type": "function"
    },
    {
      "inputs": [
        {
          "internalType": "uint256",
          "name": "tokenId",
          "type": "uint256"
        },
        {
          "internalType": "uint256",
          "name": "mask",
          "type": "uint256"
        }
      ],
      "name": "setBitmask",
      "outputs": [],
      "stateMutability": "nonpayable",
      "type": "function"
    },
    {
      "inputs": [
        {
          "internalType": "uint256",
          "name": "tokenId",
          "type": "uint256"
        },
        {
          "internalType": "uint256",
          "name": "timestamp",
          "type": "uint256"
        },
        {
          "components": [
            {
              "internalType": "uint256",
              "name": "value",
              "type": "uint256"
            },
            {
              "internalType": "enum ChargeType",
              "name": "chargeType",
              "type": "uint8"
            },
            {
              "internalType": "address",
              "name": "token",
              "type": "address"
            },
            {
              "internalType": "address",
              "name": "recipient",
              "type": "address"
            }
          ],
          "internalType": "struct Charge",
          "name": "charge",
          "type": "tuple"
        }
      ],
      "name": "setExpiration",
      "outputs": [],
      "stateMutability": "nonpayable",
      "type": "function"
    },
    {
      "inputs": [
        {
          "internalType": "address",
          "name": "account",
          "type": "address"
        }
      ],
      "name": "setSuperAdmin",
      "outputs": [],
      "stateMutability": "nonpayable",
      "type": "function"
    },
    {
      "inputs": [
        {
          "internalType": "uint256",
          "name": "tokenId_",
          "type": "uint256"
        }
      ],
      "name": "slotOf",
      "outputs": [
        {
          "internalType": "uint256",
          "name": "",
          "type": "uint256"
        }
      ],
      "stateMutability": "view",
      "type": "function"
    },
    {
      "inputs": [
        {
          "internalType": "uint256",
          "name": "slot_",
          "type": "uint256"
        }
      ],
      "name": "slotURI",
      "outputs": [
        {
          "internalType": "string",
          "name": "",
          "type": "string"
        }
      ],
      "stateMutability": "view",
      "type": "function"
    },
    {
      "inputs": [
        {
          "internalType": "bytes4",
          "name": "interfaceId",
          "type": "bytes4"
        }
      ],
      "name": "supportsInterface",
      "outputs": [
        {
          "internalType": "bool",
          "name": "",
          "type": "bool"
        }
      ],
      "stateMutability": "view",
      "type": "function"
    },
    {
      "inputs": [],
      "name": "symbol",
      "outputs": [
        {
          "internalType": "string",
          "name": "",
          "type": "string"
        }
      ],
      "stateMutability": "view",
      "type": "function"
    },
    {
      "inputs": [
        {
          "internalType": "uint256",
          "name": "index_",
          "type": "uint256"
        }
      ],
      "name": "tokenByIndex",
      "outputs": [
        {
          "internalType": "uint256",
          "name": "",
          "type": "uint256"
        }
      ],
      "stateMutability": "view",
      "type": "function"
    },
    {
      "inputs": [
        {
          "internalType": "address",
          "name": "owner_",
          "type": "address"
        },
        {
          "internalType": "uint256",
          "name": "index_",
          "type": "uint256"
        }
      ],
      "name": "tokenOfOwnerByIndex",
      "outputs": [
        {
          "internalType": "uint256",
          "name": "",
          "type": "uint256"
        }
      ],
      "stateMutability": "view",
      "type": "function"
    },
    {
      "inputs": [
        {
          "internalType": "uint256",
          "name": "tokenId_",
          "type": "uint256"
        }
      ],
      "name": "tokenURI",
      "outputs": [
        {
          "internalType": "string",
          "name": "",
          "type": "string"
        }
      ],
      "stateMutability": "view",
      "type": "function"
    },
    {
      "inputs": [],
      "name": "totalSupply",
      "outputs": [
        {
          "internalType": "uint256",
          "name": "",
          "type": "uint256"
        }
      ],
      "stateMutability": "view",
      "type": "function"
    },
    {
      "inputs": [
        {
          "internalType": "address",
          "name": "previousManager",
          "type": "address"
        },
        {
          "internalType": "address",
          "name": "newManager",
          "type": "address"
        },
        {
          "internalType": "uint256",
          "name": "network",
          "type": "uint256"
        }
      ],
      "name": "transferDAOManager",
      "outputs": [],
      "stateMutability": "nonpayable",
      "type": "function"
    },
    {
      "inputs": [
        {
          "internalType": "uint256",
          "name": "fromTokenId_",
          "type": "uint256"
        },
        {
          "internalType": "address",
          "name": "to_",
          "type": "address"
        },
        {
          "internalType": "uint256",
          "name": "value_",
          "type": "uint256"
        }
      ],
      "name": "transferFrom",
      "outputs": [
        {
          "internalType": "uint256",
          "name": "",
          "type": "uint256"
        }
      ],
      "stateMutability": "payable",
      "type": "function"
    },
    {
      "inputs": [
        {
          "internalType": "address",
          "name": "from_",
          "type": "address"
        },
        {
          "internalType": "address",
          "name": "to_",
          "type": "address"
        },
        {
          "internalType": "uint256",
          "name": "tokenId_",
          "type": "uint256"
        }
      ],
      "name": "transferFrom",
      "outputs": [],
      "stateMutability": "payable",
      "type": "function"
    },
    {
      "inputs": [
        {
          "internalType": "uint256",
          "name": "fromTokenId_",
          "type": "uint256"
        },
        {
          "internalType": "uint256",
          "name": "toTokenId_",
          "type": "uint256"
        },
        {
          "internalType": "uint256",
          "name": "value_",
          "type": "uint256"
        }
      ],
      "name": "transferFrom",
      "outputs": [],
      "stateMutability": "payable",
      "type": "function"
    },
    {
      "inputs": [],
      "name": "transfersRestricted",
      "outputs": [
        {
          "internalType": "bool",
          "name": "",
          "type": "bool"
        }
      ],
      "stateMutability": "view",
      "type": "function"
    },
    {
      "inputs": [
        {
          "internalType": "uint256",
          "name": "tokenId",
          "type": "uint256"
        }
      ],
      "name": "unfreeze",
      "outputs": [],
      "stateMutability": "nonpayable",
      "type": "function"
    },
    {
      "inputs": [
        {
          "internalType": "address",
          "name": "flagsStorage",
          "type": "address"
        }
      ],
      "name": "updateFlagsStorage",
      "outputs": [],
      "stateMutability": "nonpayable",
      "type": "function"
    },
    {
      "inputs": [],
      "name": "valueDecimals",
      "outputs": [
        {
          "internalType": "uint8",
          "name": "",
          "type": "uint8"
        }
      ],
      "stateMutability": "view",
      "type": "function"
    },
    {
      "inputs": [
        {
          "internalType": "address",
          "name": "owner",
          "type": "address"
        },
        {
          "internalType": "uint256",
          "name": "network",
          "type": "uint256"
        }
      ],
      "name": "verifyToken",
      "outputs": [
        {
          "internalType": "bool",
          "name": "",
          "type": "bool"
        }
      ],
      "stateMutability": "view",
      "type": "function"
    },
    {
      "inputs": [
        {
          "internalType": "uint256",
          "name": "tokenId",
          "type": "uint256"
        }
      ],
      "name": "verifyToken",
      "outputs": [
        {
          "internalType": "bool",
          "name": "",
          "type": "bool"
        }
      ],
      "stateMutability": "view",
      "type": "function"
    }
  ],
  "transactionHash": "0x3dc64f3317f73697f48835c0d71dcb973916298044f3009e46843fa54cefde33",
  "args": [
    "Gateway Protocol",
    "PASS",
    "0xcbaA8FDf9A9673850cf75E6E42B4eA1aDaA87688",
    "0xd1895ce312dD4bACbb6bF7226222C237ad5a3767",
    [
      "0xa2C410cc10B4aDA3a1311435715e514bDBeD7D7C"
    ]
  ],
  "numDeployments": 3,
  "solcInputHash": "ff4d18cab683d86eade80bb0dce830fc",
  "bytecode": "0x60806040523480156200001157600080fd5b5060405162005b0338038062005b03833981016040819052620000349162000322565b848460008360005b8151811015620000a75760016000808484815181106200006057620000606200044e565b6020908102919091018101516001600160a01b03168252810191909152604001600020805460ff1916911515919091179055806200009e8162000464565b9150506200003c565b50508251620000be90600190602086019062000181565b508151620000d490600290602085019062000181565b506003805460ff90921660ff199092169190911790555050600e805460ff60a01b1916600160a01b1790556200010a8262000137565b50506001600160a01b03166000908152600b60205260409020805460ff1916600117905550620004cb9050565b600c80546001600160a01b0319166001600160a01b0383169081179091556040517f5e4a30f4224898dbac86adca855a5edd3b8341a3aeb2b6ff0f0b5a82c013b65a90600090a250565b8280546200018f906200048e565b90600052602060002090601f016020900481019282620001b35760008555620001fe565b82601f10620001ce57805160ff1916838001178555620001fe565b82800160010185558215620001fe579182015b82811115620001fe578251825591602001919060010190620001e1565b506200020c92915062000210565b5090565b5b808211156200020c576000815560010162000211565b634e487b7160e01b600052604160045260246000fd5b604051601f8201601f191681016001600160401b038111828210171562000268576200026862000227565b604052919050565b600082601f8301126200028257600080fd5b81516001600160401b038111156200029e576200029e62000227565b6020620002b4601f8301601f191682016200023d565b8281528582848701011115620002c957600080fd5b60005b83811015620002e9578581018301518282018401528201620002cc565b83811115620002fb5760008385840101525b5095945050505050565b80516001600160a01b03811681146200031d57600080fd5b919050565b600080600080600060a086880312156200033b57600080fd5b85516001600160401b03808211156200035357600080fd5b6200036189838a0162000270565b96506020915081880151818111156200037957600080fd5b620003878a828b0162000270565b965050620003986040890162000305565b9450620003a86060890162000305565b9350608088015181811115620003bd57600080fd5b8801601f81018a13620003cf57600080fd5b805182811115620003e457620003e462000227565b8060051b9250620003f78484016200023d565b818152928201840192848101908c8511156200041257600080fd5b928501925b848410156200043b576200042b8462000305565b8252928501929085019062000417565b8096505050505050509295509295909350565b634e487b7160e01b600052603260045260246000fd5b60006000198214156200048757634e487b7160e01b600052601160045260246000fd5b5060010190565b600181811c90821680620004a357607f821691505b60208210811415620004c557634e487b7160e01b600052602260045260246000fd5b50919050565b61562880620004db6000396000f3fe6080604052600436106104475760003560e01c806382d66d5f11610234578063babb898d1161012e578063e345e0bc116100b6578063f62bce7d1161007a578063f62bce7d14610d97578063f77c479114610db7578063fc9ca98714610dd7578063ff17e23214610df7578063ff85a97514610e1757600080fd5b8063e345e0bc14610cc4578063e4b50cb814610ce4578063e8a3d48514610d15578063e985e9c514610d2a578063f45fd0f314610d7757600080fd5b8063d6fd3175116100fd578063d6fd317514610bef578063d7a78db814610c11578063df2a7fe114610c31578063df7f453b14610c6b578063e0ed6a3114610ca457600080fd5b8063babb898d14610b6f578063c2a366fb14610b8f578063c58dbbed14610baf578063c87b56dd14610bcf57600080fd5b80639c7525e6116101bc578063a578c09311610180578063a578c09314610acc578063a8fa8e0d14610afc578063b4bd857914610b1c578063b5d6163514610b3c578063b88d4fde14610b5c57600080fd5b80639c7525e614610a375780639cc7f70814610a57578063a1e0891114610a77578063a217fddf14610a97578063a22cb46514610aac57600080fd5b80638cb0a511116102035780638cb0a511146109ae5780638eb7a776146109c157806390eddd52146109e157806395d89b4114610a015780639605f12f14610a1657600080fd5b806382d66d5f1461092f578063840f71131461094f5780638423df791461096f57806385e3f0581461098e57600080fd5b806342842e0e116103455780635e79b726116102cd5780636f7caf41116102915780636f7caf411461088b57806370a08231146108ad57806370f08160146108cd5780637dbded28146108ed57806381e9ff191461090d57600080fd5b80635e79b726146107eb578063603d01401461080b5780636352211e1461082b5780636623fc461461084b5780636dba27291461086b57600080fd5b80634f6ccce7116103145780634f6ccce71461073257806351da912d14610752578063572b6c0514610772578063598c064a146107ab5780635c41d2fe146107cb57600080fd5b806342842e0e146106bf57806342966c68146106d2578063443ff4a1146106f25780634d93172d1461071257600080fd5b806320c5429b116103d3578063310ed7f011610397578063310ed7f01461062657806334e37b8a146106395780633568dd291461065957806336e45041146106795780633e7e86691461069957600080fd5b806320c5429b1461059357806323b872dd146105b3578063263f3e7e146105c65780632d33d27a146105e65780632f745c591461060657600080fd5b806309c3dd871161041a57806309c3dd87146104f05780630f485c02146105105780631442f52114610531578063157000521461055e57806318160ddd1461057e57600080fd5b806301ffc9a71461044c57806306fdde0314610481578063081812fc146104a3578063095ea7b3146104db575b600080fd5b34801561045857600080fd5b5061046c610467366004614ac6565b610e37565b60405190151581526020015b60405180910390f35b34801561048d57600080fd5b50610496610e98565b6040516104789190614b3b565b3480156104af57600080fd5b506104c36104be366004614b4e565b610f2a565b6040516001600160a01b039091168152602001610478565b6104ee6104e9366004614b7e565b610f7c565b005b3480156104fc57600080fd5b5061049661050b366004614b4e565b61101d565b61052361051e366004614ba8565b61111e565b604051908152602001610478565b34801561053d57600080fd5b5061055161054c366004614b7e565b611167565b6040516104789190614bdd565b34801561056a57600080fd5b506104ee610579366004614c21565b61121f565b34801561058a57600080fd5b50600654610523565b34801561059f57600080fd5b506104ee6105ae366004614b4e565b61129e565b6104ee6105c1366004614c3c565b61132e565b3480156105d257600080fd5b506105236105e1366004614b4e565b611366565b3480156105f257600080fd5b50600c546104c3906001600160a01b031681565b34801561061257600080fd5b50610523610621366004614b7e565b6113ae565b6104ee610634366004614c68565b61144f565b34801561064557600080fd5b506104ee610654366004614c21565b61146c565b34801561066557600080fd5b506104ee610674366004614b7e565b61149f565b34801561068557600080fd5b506104ee610694366004614c94565b6114bc565b3480156106a557600080fd5b5060035460ff165b60405160ff9091168152602001610478565b6104ee6106cd366004614c3c565b611547565b3480156106de57600080fd5b506104ee6106ed366004614b4e565b611562565b3480156106fe57600080fd5b506104ee61070d366004614b4e565b6115a2565b34801561071e57600080fd5b506104ee61072d366004614c21565b6115e2565b34801561073e57600080fd5b5061052361074d366004614b4e565b61162e565b34801561075e57600080fd5b506104ee61076d366004614cc9565b6116bf565b34801561077e57600080fd5b5061046c61078d366004614c21565b6001600160a01b031660009081526020819052604090205460ff1690565b3480156107b757600080fd5b506104ee6107c6366004614cc9565b611700565b3480156107d757600080fd5b506104ee6107e6366004614c21565b611741565b3480156107f757600080fd5b506104ee610806366004614d03565b611790565b34801561081757600080fd5b506104ee610826366004614d30565b6117d1565b34801561083757600080fd5b506104c3610846366004614b4e565b611812565b34801561085757600080fd5b506104ee610866366004614b4e565b6118ae565b34801561087757600080fd5b5061046c610886366004614b7e565b6118ee565b34801561089757600080fd5b506105236000805160206155d383398151915281565b3480156108b957600080fd5b506105236108c8366004614c21565b611909565b3480156108d957600080fd5b506104ee6108e8366004614b7e565b611991565b3480156108f957600080fd5b506104ee610908366004614e41565b6119aa565b34801561091957600080fd5b5061052360008051602061559383398151915281565b34801561093b57600080fd5b506104ee61094a366004614b7e565b611b8e565b34801561095b57600080fd5b506009546104c3906001600160a01b031681565b34801561097b57600080fd5b50600e54600160a01b900460ff1661046c565b34801561099a57600080fd5b506104966109a9366004614b4e565b611ba7565b6104ee6109bc366004614ba8565b611bb2565b3480156109cd57600080fd5b506104ee6109dc366004614c94565b611c46565b3480156109ed57600080fd5b506104ee6109fc366004614b7e565b611c80565b348015610a0d57600080fd5b50610496611c99565b348015610a2257600080fd5b50600e5461046c90600160a01b900460ff1681565b348015610a4357600080fd5b506104ee610a52366004614eab565b611ca8565b348015610a6357600080fd5b50610523610a72366004614b4e565b611d81565b348015610a8357600080fd5b50610523610a92366004614b4e565b611dc9565b348015610aa357600080fd5b50610523600081565b348015610ab857600080fd5b506104ee610ac7366004614ef2565b611e33565b348015610ad857600080fd5b5061046c610ae7366004614b4e565b600f6020526000908152604090205460ff1681565b348015610b0857600080fd5b506104ee610b17366004614c3c565b611e45565b348015610b2857600080fd5b50610523610b37366004614b4e565b61207b565b348015610b4857600080fd5b506104ee610b57366004614c94565b612091565b6104ee610b6a366004614f1e565b6120c4565b348015610b7b57600080fd5b5061046c610b8a366004614c94565b6120fd565b348015610b9b57600080fd5b5061046c610baa366004614b7e565b61212e565b348015610bbb57600080fd5b506104ee610bca366004614c21565b612149565b348015610bdb57600080fd5b50610496610bea366004614b4e565b6121c5565b348015610bfb57600080fd5b506105236000805160206155b383398151915281565b348015610c1d57600080fd5b506104ee610c2c366004614b4e565b612264565b348015610c3d57600080fd5b50610523610c4c366004614cc9565b6000908152600a60209081526040808320938352929052206001015490565b348015610c7757600080fd5b5061046c610c86366004614c21565b6001600160a01b03166000908152600b602052604090205460ff1690565b348015610cb057600080fd5b506104ee610cbf366004614f9a565b6122a4565b348015610cd057600080fd5b50610523610cdf366004614fec565b61231b565b348015610cf057600080fd5b50610d04610cff366004614b4e565b61234f565b604051610478959493929190615018565b348015610d2157600080fd5b50610496612452565b348015610d3657600080fd5b5061046c610d45366004615059565b6001600160a01b0391821660009081526008602090815260408083209390941682526002909201909152205460ff1690565b348015610d8357600080fd5b506106ad610d92366004614b4e565b61255b565b348015610da357600080fd5b506104ee610db2366004614d30565b61257e565b348015610dc357600080fd5b50600e546104c3906001600160a01b031681565b348015610de357600080fd5b506104ee610df2366004614d30565b6125bf565b348015610e0357600080fd5b5061046c610e12366004614b7e565b612600565b348015610e2357600080fd5b5061046c610e32366004614b4e565b612692565b60006001600160e01b03198216630354d60560e61b1480610e6857506001600160e01b031982166380ac58cd60e01b145b80610e8357506001600160e01b03198216635b5e139f60e01b145b80610e925750610e928261269f565b92915050565b606060018054610ea790615083565b80601f0160208091040260200160405190810160405280929190818152602001828054610ed390615083565b8015610f205780601f10610ef557610100808354040283529160200191610f20565b820191906000526020600020905b815481529060010190602001808311610f0357829003601f168201915b5050505050905090565b6000610f35826126c4565b600082815260076020526040902054600680549091908110610f5957610f596150b8565b60009182526020909120600460069092020101546001600160a01b031692915050565b6000610f8782611812565b9050806001600160a01b0316836001600160a01b03161415610fc45760405162461bcd60e51b8152600401610fbb906150ce565b60405180910390fd5b806001600160a01b0316610fd6612715565b6001600160a01b03161480610ff25750610ff281610d45612715565b61100e5760405162461bcd60e51b8152600401610fbb90615110565b6110188383612724565b505050565b6060600061103660408051602081019091526000815290565b6009549091506001600160a01b03166110965760008151116110675760405180602001604052806000815250611117565b80611071846127bb565b60405160200161108292919061516d565b604051602081830303815290604052611117565b600954604051633601bfc560e11b8152600481018590526001600160a01b0390911690636c037f8a906024015b60006040518083038186803b1580156110db57600080fd5b505afa1580156110ef573d6000803e3d6000fd5b505050506040513d6000823e601f3d908101601f1916820160405261111791908101906151ad565b9392505050565b600061113261112b612715565b8584612858565b600061113d856128e8565b9050611154848261114d88611366565b60006128f2565b61115f858285612a14565b949350505050565b60606000806111768585612cbf565b9150915060008167ffffffffffffffff81111561119557611195614d66565b6040519080825280602002602001820160405280156111be578160200160208202803683370190505b50905060005b82811015611215578381815181106111de576111de6150b8565b60200260200101518282815181106111f8576111f86150b8565b60209081029190910101528061120d8161523a565b9150506111c4565b5095945050505050565b61122a610c86612715565b6112465760405162461bcd60e51b8152600401610fbb90615255565b6040516001600160a01b038216907f286f82d2b1e37b5e9f33e455d014b4a5f6c29388e6e41e1281d4c83e04f4265590600090a26001600160a01b03166000908152600b60205260409020805460ff19166001179055565b6112c16000805160206155b38339815191526112b983611366565b610b8a612715565b6112dd5760405162461bcd60e51b8152600401610fbb9061527e565b600081815260116020908152604091829020805460ff1916600217905590518281527fdb43aa42235c8d63908794a952603e8d43a549383d13123c3d893a3fc2e6249591015b60405180910390a150565b61133f611339612715565b82612d8b565b61135b5760405162461bcd60e51b8152600401610fbb906152c0565b611018838383612f01565b6000611371826126c4565b600082815260076020526040902054600680549091908110611395576113956150b8565b9060005260206000209060060201600101549050919050565b60006113b983611909565b82106114125760405162461bcd60e51b815260206004820152602260248201527f455243333532353a206f776e657220696e646578206f7574206f6620626f756e604482015261647360f01b6064820152608401610fbb565b6001600160a01b038316600090815260086020526040902080548390811061143c5761143c6150b8565b9060005260206000200154905092915050565b61146161145a612715565b8483612858565b611018838383612a14565b611477610c86612715565b6114935760405162461bcd60e51b8152600401610fbb90615255565b61149c81613062565b50565b6114b86000805160206155b38339815191528284611c46565b5050565b6114c4612715565b6001600160a01b0316816001600160a01b03161461153c5760405162461bcd60e51b815260206004820152602f60248201527f416363657373436f6e74726f6c3a2063616e206f6e6c792072656e6f756e636560448201526e103937b632b9903337b91039b2b63360891b6064820152608401610fbb565b6110188383836130ac565b611018838383604051806020016040528060008152506120c4565b61157d6000805160206155b38339815191526112b983611366565b6115995760405162461bcd60e51b8152600401610fbb9061527e565b61149c81613148565b6115bd6000805160206155b38339815191526112b983611366565b6115d95760405162461bcd60e51b8152600401610fbb9061527e565b61149c81613269565b6115ed610c86612715565b6116095760405162461bcd60e51b8152600401610fbb90615255565b61149c816001600160a01b03166000908152602081905260409020805460ff19169055565b600061163960065490565b82106116935760405162461bcd60e51b815260206004820152602360248201527f455243333532353a20676c6f62616c20696e646578206f7574206f6620626f756044820152626e647360e81b6064820152608401610fbb565b600682815481106116a6576116a66150b8565b9060005260206000209060060201600001549050919050565b6116da6000805160206155b38339815191526112b984611366565b6116f65760405162461bcd60e51b8152600401610fbb9061527e565b6114b882826132b3565b61171b6000805160206155b38339815191526112b984611366565b6117375760405162461bcd60e51b8152600401610fbb9061527e565b6114b88282613302565b61174c610c86612715565b6117685760405162461bcd60e51b8152600401610fbb90615255565b61149c816001600160a01b03166000908152602081905260409020805460ff19166001179055565b6117ab6000805160206155b38339815191526112b985611366565b6117c75760405162461bcd60e51b8152600401610fbb9061527e565b611018838361336a565b6117ec6000805160206155b38339815191526112b984611366565b6118085760405162461bcd60e51b8152600401610fbb9061527e565b6114b8828261341e565b600061181d826126c4565b600082815260076020526040902054600680549091908110611841576118416150b8565b60009182526020909120600360069092020101546001600160a01b03169050806118a95760405162461bcd60e51b8152602060048201526019602482015278115490cccd4c8d4e881a5b9d985b1a59081d1bdad95b881251603a1b6044820152606401610fbb565b919050565b6118c96000805160206155b38339815191526112b983611366565b6118e55760405162461bcd60e51b8152600401610fbb9061527e565b61149c8161343d565b60006111176000805160206155b383398151915283856120fd565b60006001600160a01b0382166119755760405162461bcd60e51b815260206004820152602b60248201527f455243333532353a2062616c616e636520717565727920666f7220746865207a60448201526a65726f206164647265737360a81b6064820152608401610fbb565b506001600160a01b031660009081526008602052604090205490565b6114b86000805160206155b38339815191528284612091565b600084815260136020526040902080546119c390615083565b159050611a0b5760405162461bcd60e51b81526020600482015260166024820152754e4554574f524b20414c52454144592045584953545360501b6044820152606401610fbb565b60008481526013602090815260409091208451611a2a928601906149a8565b50611a4b6000805160206155d383398151915285611a46612715565b61352e565b8115611b3a576000848152600f60205260409020805460ff19168315151790556001600160a01b038116611ab55760405162461bcd60e51b8152602060048201526011602482015270494e434f5252454354204144445245535360781b6044820152606401610fbb565b611ace600080516020615593833981519152858361352e565b611ae76000805160206155d3833981519152858361352e565b611b0e6000805160206155d383398151915285600080516020615593833981519152613539565b611b356000805160206155b383398151915285600080516020615593833981519152613539565b611b88565b611b616000805160206155d3833981519152856000805160206155d3833981519152613539565b611b886000805160206155b3833981519152856000805160206155d3833981519152613539565b50505050565b6114b86000805160206155d38339815191528284611c46565b6060610e92826121c5565b6000611bbd84611812565b9050806001600160a01b0316836001600160a01b03161415611bf15760405162461bcd60e51b8152600401610fbb906150ce565b806001600160a01b0316611c03612715565b6001600160a01b03161480611c1f5750611c1f81610d45612715565b611c3b5760405162461bcd60e51b8152600401610fbb90615110565b611b8884848461359a565b6000828152600a6020908152604080832086845290915290206001015482611c6e82826136d2565b611c798585856130ac565b5050505050565b6114b86000805160206155d38339815191528284612091565b606060028054610ea790615083565b60008281526013602052604090208054611cc190615083565b15159050611d0a5760405162461bcd60e51b815260206004820152601660248201527513915515d3d492c81113d154c81393d50811561254d560521b6044820152606401610fbb565b611d256000805160206155d383398151915283610b8a612715565b611d625760405162461bcd60e51b815260206004820152600e60248201526d1393d5081055551213d49256915160921b6044820152606401610fbb565b60008281526013602090815260409091208251611018928401906149a8565b6000611d8c826126c4565b600082815260076020526040902054600680549091908110611db057611db06150b8565b9060005260206000209060060201600201549050919050565b6000611dd4826136e4565b611e205760405162461bcd60e51b815260206004820152601d60248201527f544f4b454e20444f45534e2754204558495354204f522046524f5a454e0000006044820152606401610fbb565b5060009081526012602052604090205490565b6114b8611e3e612715565b8383613730565b6000818152600f602052604090205460ff16611e965760405162461bcd60e51b815260206004820152601060248201526f1393d508111053c811d3d5915493915160821b6044820152606401610fbb565b611eaf60008051602061559383398151915282856120fd565b611ef35760405162461bcd60e51b815260206004820152601560248201527424a721a7a92922a1aa1027a6221026a0a720a3a2a960591b6044820152606401610fbb565b611f0e60008051602061559383398151915282610b8a612715565b611f505760405162461bcd60e51b815260206004820152601360248201527226aaa9aa102122902220a79026a0a720a3a2a960691b6044820152606401610fbb565b6001600160a01b038216611f955760405162461bcd60e51b815260206004820152600c60248201526b5a45524f204144445245535360a01b6044820152606401610fbb565b611fae6000805160206155938339815191528284612091565b611fc76000805160206155d38339815191528284612091565b611fe06000805160206155b38339815191528284612091565b611ff96000805160206155b38339815191528285611c46565b6120126000805160206155d38339815191528285611c46565b61202b6000805160206155938339815191528285611c46565b604080516001600160a01b038086168252841660208201529081018290527f744258a28673e8738e2812c0ab8e8dbd70352f8871b1febac0dd753d96d79f589060600160405180910390a1505050565b6000818152600d60205260408120548190611117565b6000828152600a60209081526040808320868452909152902060010154826120b982826136d2565b611c798585856137fb565b6120d56120cf612715565b83612d8b565b6120f15760405162461bcd60e51b8152600401610fbb906152c0565b611b888484848461388c565b6000918252600a602090815260408084209484529381528383206001600160a01b0392909216835252205460ff1690565b60006111176000805160206155d383398151915283856120fd565b612154610c86612715565b6121705760405162461bcd60e51b8152600401610fbb90615255565b6040516001600160a01b038216907ffb445f6ec07647d2bb7af72821e6b8b7303ec375e934d4a338d38ed5846c2d5690600090a26001600160a01b03166000908152600b60205260409020805460ff19169055565b60606121d0826126c4565b60006121e760408051602081019091526000815290565b6009549091506001600160a01b03166122335760008151116122185760405180602001604052806000815250611117565b80612222846127bb565b604051602001611082929190615312565b6009546040516344a5a61760e11b8152600481018590526001600160a01b039091169063894b4c2e906024016110c3565b61227f6000805160206155b38339815191526112b983611366565b61229b5760405162461bcd60e51b8152600401610fbb9061527e565b61149c816138ff565b6122bf6000805160206155b383398151915285610b8a612715565b6122db5760405162461bcd60e51b8152600401610fbb9061527e565b60006122e9868660016139a4565b905083156123035760008181526012602052604090208490555b82156123135761231381846132b3565b505050505050565b6000612326836126c4565b5060009182526005602090815260408084206001600160a01b0393909316845291905290205490565b600080606060008061236086611812565b60008781526011602052604090205490955060ff166002811115612386576123866152aa565b60008781526010602052604090208054919550906123a390615083565b80601f01602080910402602001604051908101604052809291908181526020018280546123cf90615083565b801561241c5780601f106123f15761010080835404028352916020019161241c565b820191906000526020600020905b8154815290600101906020018083116123ff57829003601f168201915b505050600089815260126020908152604080832054600d909252909120549396509450612447915050565b905091939590929450565b6060600061246b60408051602081019091526000815290565b6009549091506001600160a01b03166124cb57600081511161249c5760405180602001604052806000815250612555565b806124a6306139bd565b6040516020016124b7929190615341565b604051602081830303815290604052612555565b600960009054906101000a90046001600160a01b03166001600160a01b031663725fa09c6040518163ffffffff1660e01b815260040160006040518083038186803b15801561251957600080fd5b505afa15801561252d573d6000803e3d6000fd5b505050506040513d6000823e601f3d908101601f1916820160405261255591908101906151ad565b91505090565b60008181526011602052604081205460ff166002811115610e9257610e926152aa565b6125996000805160206155b38339815191526112b984611366565b6125b55760405162461bcd60e51b8152600401610fbb9061527e565b6114b882826139d3565b6125da6000805160206155b38339815191526112b984611366565b6125f65760405162461bcd60e51b8152600401610fbb9061527e565b6114b882826139f9565b600080600061260f8585612cbf565b9150915060005b8181101561268657828181518110612630576126306150b8565b602002602001015160001461267457612663838281518110612654576126546150b8565b60200260200101516000613a17565b156126745760019350505050610e92565b8061267e8161523a565b915050612616565b50600095945050505050565b6000610e92826000613a17565b60006001600160e01b031982166333cb74f560e11b1480610e925750610e9282613abb565b6126cd816136e4565b61149c5760405162461bcd60e51b8152602060048201526019602482015278115490cccd4c8d4e881a5b9d985b1a59081d1bdad95b881251603a1b6044820152606401610fbb565b600061271f613b5d565b905090565b600081815260076020526040902054600680548492908110612748576127486150b8565b6000918252602090912060069091020160040180546001600160a01b0319166001600160a01b039283161790558190831661278282611812565b6001600160a01b03167f8c5be1e5ebec7d5bd14f71427d1e84f3dd0314c0f7b2291e5b200ac8c7c3b92560405160405180910390a45050565b606060006127c883613b87565b600101905060008167ffffffffffffffff8111156127e8576127e8614d66565b6040519080825280601f01601f191660200182016040528015612812576020820181803683370190505b5090508181016020015b600019016f181899199a1a9b1b9c1cb0b131b232b360811b600a86061a8153600a850494508461284b57612850565b61281c565b509392505050565b6000612864838561231b565b90506128708484612d8b565b15801561287f57506000198114155b15611b8857818110156128d45760405162461bcd60e51b815260206004820152601f60248201527f455243333532353a20696e73756666696369656e7420616c6c6f77616e6365006044820152606401610fbb565b611b8883856128e38585615385565b61359a565b6000610e92613c5f565b6001600160a01b0384166129525760405162461bcd60e51b815260206004820152602160248201527f455243333532353a206d696e7420746f20746865207a65726f206164647265736044820152607360f81b6064820152608401610fbb565b826129a95760405162461bcd60e51b815260206004820152602160248201527f455243333532353a2063616e6e6f74206d696e74207a65726f20746f6b656e496044820152601960fa1b6064820152608401610fbb565b6129b2836136e4565b156129ff5760405162461bcd60e51b815260206004820152601d60248201527f455243333532353a20746f6b656e20616c7265616479206d696e7465640000006044820152606401610fbb565b612a0a848484613c76565b611b358382613d3c565b612a1d836136e4565b612a795760405162461bcd60e51b815260206004820152602760248201527f455243333532353a207472616e736665722066726f6d20696e76616c696420746044820152661bdad95b88125160ca1b6064820152608401610fbb565b612a82826136e4565b612adc5760405162461bcd60e51b815260206004820152602560248201527f455243333532353a207472616e7366657220746f20696e76616c696420746f6b604482015264195b88125160da1b6064820152608401610fbb565b600083815260076020526040812054600680549091908110612b0057612b006150b8565b9060005260206000209060060201905060006006600760008681526020019081526020016000205481548110612b3857612b386150b8565b906000526020600020906006020190508282600201541015612baf5760405162461bcd60e51b815260206004820152602a60248201527f455243333532353a20696e73756666696369656e742062616c616e636520666f60448201526939103a3930b739b332b960b11b6064820152608401610fbb565b8060010154826001015414612c1d5760405162461bcd60e51b815260206004820152602e60248201527f455243333532353a207472616e7366657220746f20746f6b656e20776974682060448201526d191a5999995c995b9d081cdb1bdd60921b6064820152608401610fbb565b82826002016000828254612c319190615385565b9250508190555082816002016000828254612c4c919061539c565b9091555050604051838152849086907f0b2aac84f3ec956911fd78eae5311062972ff949f38412e8da39069d9f068cc69060200160405180910390a3612ca385858560405180602001604052806000815250613dc1565b611c795760405162461bcd60e51b8152600401610fbb906153b4565b6060600080612ccd85611909565b905060008167ffffffffffffffff811115612cea57612cea614d66565b604051908082528060200260200182016040528015612d13578160200160208202803683370190505b5090506000805b83811015612d7e576000612d2e89836113ae565b905087612d3a82611366565b1415612d6b57808484612d4c8161523a565b955081518110612d5e57612d5e6150b8565b6020026020010181815250505b5080612d768161523a565b915050612d1a565b5090969095509350505050565b600e54600090600160a01b900460ff1615612ddf5760405162461bcd60e51b81526020600482015260146024820152731514905394d1915494c8149154d5149250d5115160621b6044820152606401610fbb565b612de8826136e4565b612e495760405162461bcd60e51b815260206004820152602c60248201527f4552433732313a206f70657261746f7220717565727920666f72206e6f6e657860448201526b34b9ba32b73a103a37b5b2b760a11b6064820152608401610fbb565b6000612e5483611812565b90506000612e6184611366565b9050816001600160a01b0316856001600160a01b03161415612e8857600192505050610e92565b846001600160a01b0316612e9b85610f2a565b6001600160a01b03161480612ed957506001600160a01b038083166000908152600860209081526040808320938916835260029093019052205460ff165b80612ef85750612ef86000805160206155b383398151915282876120fd565b92505050610e92565b826001600160a01b0316612f1482611812565b6001600160a01b031614612f765760405162461bcd60e51b8152602060048201526024808201527f455243333532353a207472616e736665722066726f6d20696e76616c6964206f6044820152633bb732b960e11b6064820152608401610fbb565b6001600160a01b038216612fda5760405162461bcd60e51b815260206004820152602560248201527f455243333532353a207472616e7366657220746f20746865207a65726f206164604482015264647265737360d81b6064820152608401610fbb565b6000612fe582611366565b90506000612ff283611d81565b9050612fff600084612724565b61300883613f6a565b6130128584614006565b61301c8484614127565b82846001600160a01b0316866001600160a01b03167fddf252ad1be2c89b69c2b068fc378daa952ba7f163c4a11628f55a4df523b3ef60405160405180910390a4611c79565b600c80546001600160a01b0319166001600160a01b0383169081179091556040517f5e4a30f4224898dbac86adca855a5edd3b8341a3aeb2b6ff0f0b5a82c013b65a90600090a250565b6130b78383836120fd565b15611018576000828152600a6020908152604080832086845282528083206001600160a01b03851684529091529020805460ff191690556130f6612715565b6001600160a01b0316816001600160a01b0316847f6f9148fcdc32766ca802c14716295d56eab7ed848d0dba113966f40087c883908560405161313b91815260200190565b60405180910390a4505050565b613151816126c4565b600081815260076020526040812054600680549091908110613175576131756150b8565b60009182526020909120600691909102016003810154600182015460028301549293506001600160a01b03909116916131ad85613f6a565b6131b78386614006565b6131c0856141b0565b6000857f0b2aac84f3ec956911fd78eae5311062972ff949f38412e8da39069d9f068cc6836040516131f491815260200190565b60405180910390a3600082867fe4f48c240d3b994948aa54f3e2f5fca59263dfe1d52b6e4cf39a5d249b5ccb6560405160405180910390a460405185906000906001600160a01b038616907fddf252ad1be2c89b69c2b068fc378daa952ba7f163c4a11628f55a4df523b3ef908390a4611c79565b6000818152600d6020526040808220829055517f5e07998cef9cea674942c66f0ea7b0bce89ab9473ce240cc93d616c3491f8aeb9161132391849190918252602082015260400190565b6000828152600d602090815260409182902083905581518481529081018390527f5e07998cef9cea674942c66f0ea7b0bce89ab9473ce240cc93d616c3491f8aeb910160405180910390a15050565b6000828152600d6020526040812054908282175b6000858152600d602090815260409182902083905581518781529081018390529192507f5e07998cef9cea674942c66f0ea7b0bce89ab9473ce240cc93d616c3491f8aeb910160405180910390a150505050565b613375826001613a17565b6133cd5760405162461bcd60e51b815260206004820152602360248201527f544f4b454e20444f4553204e4f54204558495354204f5220495320494e41435460448201526249564560e81b6064820152608401610fbb565b600082815260126020526040908190208290555182907f1ebc57da8b3ebab98506502fbb73232ea29fbe86e4963a5a8c004810ad11190d906134129084815260200190565b60405180910390a25050565b6000828152600d602052604081205490600160ff84161b198216613316565b613446816136e4565b6134895760405162461bcd60e51b81526020600482015260146024820152731513d2d153881113d154c81393d50811561254d560621b6044820152606401610fbb565b600160008281526011602052604090205460ff1660028111156134ae576134ae6152aa565b146134ee5760405162461bcd60e51b815260206004820152601060248201526f2a27a5a2a7102727aa10232927ad22a760811b6044820152606401610fbb565b600081815260116020526040808220805460ff191690555182917fe2babfd5e77285a3c3dbc4b25592cbe4a7a26e97a7ac63067a22ebdaa9b82add91a250565b6110188383836137fb565b6000828152600a602090815260408083208684528252918290206001018054908490558251858152925190928492849288927f15f4a36186b2284157fe71215a07487f6c8bdc1203b3307c3e1fd9693011d3d392908290030190a450505050565b6001600160a01b0382166136035760405162461bcd60e51b815260206004820152602a60248201527f455243333532353a20617070726f76652076616c756520746f20746865207a65604482015269726f206164647265737360b01b6064820152608401610fbb565b61360d82846143be565b61367357600083815260076020526040902054600680549091908110613635576136356150b8565b60009182526020808320600692909202909101600501805460018101825590835291200180546001600160a01b0319166001600160a01b0384161790555b60008381526005602090815260408083206001600160a01b038616808552908352928190208490555183815285917f621b050de0ad08b51d19b48b3e6df75348c4de6bdd93e81b252ca62e28265b1b91015b60405180910390a3505050565b6114b882826136df612715565b614492565b60065460009015801590610e925750600082815260076020526040902054600680548492908110613717576137176150b8565b9060005260206000209060060201600001541492915050565b816001600160a01b0316836001600160a01b031614156137925760405162461bcd60e51b815260206004820152601a60248201527f455243333532353a20617070726f766520746f2063616c6c65720000000000006044820152606401610fbb565b6001600160a01b0383811660008181526008602090815260408083209487168084526002909501825291829020805460ff191686151590811790915591519182527f17307eab39ab6107e8899845ad3d59bd9653f200f220920489ca2b5937696c3191016136c5565b6138068383836120fd565b611018576000828152600a6020908152604080832086845282528083206001600160a01b03851684529091529020805460ff19166001179055613847612715565b6001600160a01b0316816001600160a01b0316847f4dc88bd74ca601684356789d5b3dbc9cd44275b2544e8d35041203703b7682328560405161313b91815260200190565b613897848484612f01565b6138a3848484846144ee565b611b885760405162461bcd60e51b815260206004820152602760248201527f455243333532353a207472616e7366657220746f206e6f6e204552433732315260448201526632b1b2b4bb32b960c91b6064820152608401610fbb565b61390a816001613a17565b6139615760405162461bcd60e51b815260206004820152602260248201527f544f4b454e20444f45534e275420455849535453204f52204e4f542041435449604482015261564560f01b6064820152608401610fbb565b600081815260116020526040808220805460ff191660011790555182917f779fbee689bbd6f006ecb329206d35c7db7380f9837a8826fb8dc5cfcd3d33dd91a250565b6000806139af613c5f565b905061115f858286866128f2565b6060610e926001600160a01b03831660146146bd565b6000828152600d6020526040902054600019811860ff8316811790506000198118613316565b6000828152600d602052604081205490600160ff84161b8217613316565b60008281526011602052604081205460ff1681816002811115613a3c57613a3c6152aa565b14613a4b576000915050610e92565b6000613a5685611812565b60008681526012602052604090205490915015801590613a74575083155b15613aa7576001600160a01b03811615801590612ef8575060008581526012602052604090205442111592505050610e92565b6001600160a01b031615159150610e929050565b60006001600160e01b031982166301ffc9a760e01b1480613aec57506001600160e01b03198216630354d60560e61b145b80613b0757506001600160e01b031982166380ac58cd60e01b145b80613b2257506001600160e01b031982166370b0048160e11b145b80613b3d57506001600160e01b0319821663780e9d6360e01b145b80610e9257506001600160e01b03198216635b5e139f60e01b1492915050565b3360009081526020819052604081205460ff1615613b82575060131936013560601c90565b503390565b60008072184f03e93ff9f4daa797ed6e38ed64bf6a1f0160401b8310613bc65772184f03e93ff9f4daa797ed6e38ed64bf6a1f0160401b830492506040015b6d04ee2d6d415b85acef81000000008310613bf2576d04ee2d6d415b85acef8100000000830492506020015b662386f26fc100008310613c1057662386f26fc10000830492506010015b6305f5e1008310613c28576305f5e100830492506008015b6127108310613c3c57612710830492506004015b60648310613c4e576064830492506002015b600a8310610e925760010192915050565b6000613c6f600480546001019055565b5060045490565b6040805160c081018252838152602080820184905260008284018190526001600160a01b038716606084015260808301819052835181815291820190935260a08201529050613cc481614859565b613cce8484614127565b60405183906001600160a01b038616906000907fddf252ad1be2c89b69c2b068fc378daa952ba7f163c4a11628f55a4df523b3ef908290a4816000847fe4f48c240d3b994948aa54f3e2f5fca59263dfe1d52b6e4cf39a5d249b5ccb6560405160405180910390a450505050565b600082815260076020526040902054600680548392908110613d6057613d606150b8565b90600052602060002090600602016002016000828254613d80919061539c565b909155505060405181815282906000907f0b2aac84f3ec956911fd78eae5311062972ff949f38412e8da39069d9f068cc69060200160405180910390a35050565b600080613dcd85611812565b90506001600160a01b0381163b15158015613e6057506040516301ffc9a760e01b8152629ce20b60e01b60048201526001600160a01b038216906301ffc9a79060240160206040518083038186803b158015613e2857600080fd5b505afa158015613e3c573d6000803e3d6000fd5b505050506040513d601f19601f82011682018060405250810190613e6091906153fc565b15613f5e57806001600160a01b0316629ce20b613e7b612715565b888888886040518663ffffffff1660e01b8152600401613e9f959493929190615419565b602060405180830381600087803b158015613eb957600080fd5b505af1925050508015613ee9575060408051601f3d908101601f19168201909252613ee691810190615457565b60015b613f43573d808015613f17576040519150601f19603f3d011682016040523d82523d6000602084013e613f1c565b606091505b508051613f3b5760405162461bcd60e51b8152600401610fbb906153b4565b805181602001fd5b6001600160e01b031916629ce20b60e01b14915061115f9050565b50600195945050505050565b600081815260076020526040812054600680549091908110613f8e57613f8e6150b8565b600091825260208220600560069092020190810154909250905b81811015611b88576000836005018281548110613fc757613fc76150b8565b60009182526020808320909101548783526005825260408084206001600160a01b03909216845291528120555080613ffe8161523a565b915050613fa8565b60008181526007602052604081205460068054909190811061402a5761402a6150b8565b6000918252602080832060069290920290910160030180546001600160a01b0319166001600160a01b039485161790559184168152600890915260408120805490919061407990600190615385565b90506000826000018281548110614092576140926150b8565b906000526020600020015490506000836001016000868152602001908152602001600020549050818460000182815481106140cf576140cf6150b8565b6000918252602080832090910192909255838152600186019091526040808220839055868252812055835484908061410957614109615474565b60019003818190600052602060002001600090559055505050505050565b60008181526007602052604090205460068054849290811061414b5761414b6150b8565b6000918252602080832060069290920290910160030180546001600160a01b0319166001600160a01b03948516179055939091168152600880845260408083208054858552600182810188529285208190559286529082018155825292902090910155565b6006546000906141c290600190615385565b600083815260076020526040812054600680549394509092849081106141ea576141ea6150b8565b60009182526020918290206040805160c08101825260069093029091018054835260018101548385015260028101548383015260038101546001600160a01b03908116606085015260048201541660808401526005810180548351818702810187019094528084529394919360a08601939283018282801561429557602002820191906000526020600020905b81546001600160a01b03168152600190910190602001808311614277575b505050505081525050905080600683815481106142b4576142b46150b8565b600091825260209182902083516006909202019081558282015160018201556040830151600282015560608301516003820180546001600160a01b039283166001600160a01b031991821617909155608085015160048401805491909316911617905560a08301518051919261433292600585019290910190614a2c565b5050815160009081526007602052604080822085905586825281205550600680548061436057614360615474565b60008281526020812060066000199093019283020181815560018101829055600281018290556003810180546001600160a01b03199081169091556004820180549091169055906143b46005830182614a81565b5050905550505050565b6000818152600760205260408120546006805483929081106143e2576143e26150b8565b6000918252602082206005600690920201015491505b8181101561448757600084815260076020526040902054600680546001600160a01b0388169290811061442d5761442d6150b8565b9060005260206000209060060201600501828154811061444f5761444f6150b8565b6000918252602090912001546001600160a01b0316141561447557600192505050610e92565b8061447f8161523a565b9150506143f8565b506000949350505050565b61449d8383836120fd565b611018576144aa816139bd565b6144b58460206146bd565b836040516020016144c89392919061548a565b60408051601f198184030181529082905262461bcd60e51b8252610fbb91600401614b3b565b60006001600160a01b0384163b1515801561458257506040516301ffc9a760e01b8152630a85bd0160e11b60048201526001600160a01b038516906301ffc9a79060240160206040518083038186803b15801561454a57600080fd5b505afa15801561455e573d6000803e3d6000fd5b505050506040513d601f19601f8201168201806040525081019061458291906153fc565b156146b557836001600160a01b031663150b7a0261459e612715565b8786866040518563ffffffff1660e01b81526004016145c0949392919061551f565b602060405180830381600087803b1580156145da57600080fd5b505af192505050801561460a575060408051601f3d908101601f1916820190925261460791810190615457565b60015b61469b573d808015614638576040519150601f19603f3d011682016040523d82523d6000602084013e61463d565b606091505b508051613f3b5760405162461bcd60e51b815260206004820152602660248201527f4552433732313a207472616e7366657220746f206e6f6e20455243373231526560448201526531b2b4bb32b960d11b6064820152608401610fbb565b6001600160e01b031916630a85bd0160e11b14905061115f565b50600161115f565b606060006146cc83600261555c565b6146d790600261539c565b67ffffffffffffffff8111156146ef576146ef614d66565b6040519080825280601f01601f191660200182016040528015614719576020820181803683370190505b509050600360fc1b81600081518110614734576147346150b8565b60200101906001600160f81b031916908160001a905350600f60fb1b81600181518110614763576147636150b8565b60200101906001600160f81b031916908160001a905350600061478784600261555c565b61479290600161539c565b90505b600181111561480a576f181899199a1a9b1b9c1cb0b131b232b360811b85600f16601081106147c6576147c66150b8565b1a60f81b8282815181106147dc576147dc6150b8565b60200101906001600160f81b031916908160001a90535060049490941c936148038161557b565b9050614795565b5083156111175760405162461bcd60e51b815260206004820181905260248201527f537472696e67733a20686578206c656e67746820696e73756666696369656e746044820152606401610fbb565b6006805482516000908152600760209081526040808320849055600184018555918490528451929093027ff652222313e28459528d920b65115c16c04f3efc82aaedc97be59f3f377c0d3f8101928355838501517ff652222313e28459528d920b65115c16c04f3efc82aaedc97be59f3f377c0d40820155908401517ff652222313e28459528d920b65115c16c04f3efc82aaedc97be59f3f377c0d4182015560608401517ff652222313e28459528d920b65115c16c04f3efc82aaedc97be59f3f377c0d42820180546001600160a01b039283166001600160a01b03199182161790915560808601517ff652222313e28459528d920b65115c16c04f3efc82aaedc97be59f3f377c0d438401805491909316911617905560a084015180518594611b88937ff652222313e28459528d920b65115c16c04f3efc82aaedc97be59f3f377c0d4401920190614a2c565b8280546149b490615083565b90600052602060002090601f0160209004810192826149d65760008555614a1c565b82601f106149ef57805160ff1916838001178555614a1c565b82800160010185558215614a1c579182015b82811115614a1c578251825591602001919060010190614a01565b50614a28929150614a9b565b5090565b828054828255906000526020600020908101928215614a1c579160200282015b82811115614a1c57825182546001600160a01b0319166001600160a01b03909116178255602090920191600190910190614a4c565b508054600082559060005260206000209081019061149c91905b5b80821115614a285760008155600101614a9c565b6001600160e01b03198116811461149c57600080fd5b600060208284031215614ad857600080fd5b813561111781614ab0565b60005b83811015614afe578181015183820152602001614ae6565b83811115611b885750506000910152565b60008151808452614b27816020860160208601614ae3565b601f01601f19169290920160200192915050565b6020815260006111176020830184614b0f565b600060208284031215614b6057600080fd5b5035919050565b80356001600160a01b03811681146118a957600080fd5b60008060408385031215614b9157600080fd5b614b9a83614b67565b946020939093013593505050565b600080600060608486031215614bbd57600080fd5b83359250614bcd60208501614b67565b9150604084013590509250925092565b6020808252825182820181905260009190848201906040850190845b81811015614c1557835183529284019291840191600101614bf9565b50909695505050505050565b600060208284031215614c3357600080fd5b61111782614b67565b600080600060608486031215614c5157600080fd5b614c5a84614b67565b9250614bcd60208501614b67565b600080600060608486031215614c7d57600080fd5b505081359360208301359350604090920135919050565b600080600060608486031215614ca957600080fd5b8335925060208401359150614cc060408501614b67565b90509250925092565b60008060408385031215614cdc57600080fd5b50508035926020909101359150565b600060808284031215614cfd57600080fd5b50919050565b600080600060c08486031215614d1857600080fd5b8335925060208401359150614cc08560408601614ceb565b60008060408385031215614d4357600080fd5b82359150602083013560ff81168114614d5b57600080fd5b809150509250929050565b634e487b7160e01b600052604160045260246000fd5b604051601f8201601f1916810167ffffffffffffffff81118282101715614da557614da5614d66565b604052919050565b600067ffffffffffffffff821115614dc757614dc7614d66565b50601f01601f191660200190565b6000614de8614de384614dad565b614d7c565b9050828152838383011115614dfc57600080fd5b828260208301376000602084830101529392505050565b600082601f830112614e2457600080fd5b61111783833560208501614dd5565b801515811461149c57600080fd5b60008060008060808587031215614e5757600080fd5b84359350602085013567ffffffffffffffff811115614e7557600080fd5b614e8187828801614e13565b9350506040850135614e9281614e33565b9150614ea060608601614b67565b905092959194509250565b60008060408385031215614ebe57600080fd5b82359150602083013567ffffffffffffffff811115614edc57600080fd5b614ee885828601614e13565b9150509250929050565b60008060408385031215614f0557600080fd5b614f0e83614b67565b91506020830135614d5b81614e33565b60008060008060808587031215614f3457600080fd5b614f3d85614b67565b9350614f4b60208601614b67565b925060408501359150606085013567ffffffffffffffff811115614f6e57600080fd5b8501601f81018713614f7f57600080fd5b614f8e87823560208401614dd5565b91505092959194509250565b60008060008060006101008688031215614fb357600080fd5b614fbc86614b67565b9450602086013593506040860135925060608601359150614fe08760808801614ceb565b90509295509295909350565b60008060408385031215614fff57600080fd5b8235915061500f60208401614b67565b90509250929050565b6001600160a01b038616815260ff8516602082015260a06040820181905260009061504590830186614b0f565b606083019490945250608001529392505050565b6000806040838503121561506c57600080fd5b61507583614b67565b915061500f60208401614b67565b600181811c9082168061509757607f821691505b60208210811415614cfd57634e487b7160e01b600052602260045260246000fd5b634e487b7160e01b600052603260045260246000fd5b60208082526022908201527f455243333532353a20617070726f76616c20746f2063757272656e74206f776e60408201526132b960f11b606082015260800190565b60208082526039908201527f455243333532353a20617070726f76652063616c6c6572206973206e6f74206f60408201527f776e6572206e6f7220617070726f76656420666f7220616c6c00000000000000606082015260800190565b6000835161517f818460208801614ae3565b64736c6f742f60d81b90830190815283516151a1816005840160208801614ae3565b01600501949350505050565b6000602082840312156151bf57600080fd5b815167ffffffffffffffff8111156151d657600080fd5b8201601f810184136151e757600080fd5b80516151f5614de382614dad565b81815285602083850101111561520a57600080fd5b61521b826020830160208601614ae3565b95945050505050565b634e487b7160e01b600052601160045260246000fd5b600060001982141561524e5761524e615224565b5060010190565b6020808252600f908201526e2727aa1029aaa822a91020a226a4a760891b604082015260600190565b60208082526012908201527126aaa9aa1021229023a0aa22a5a2a2a822a960711b604082015260600190565b634e487b7160e01b600052602160045260246000fd5b60208082526032908201527f455243333532353a207472616e736665722063616c6c6572206973206e6f74206040820152711bdddb995c881b9bdc88185c1c1c9bdd995960721b606082015260800190565b60008351615324818460208801614ae3565b835190830190615338818360208801614ae3565b01949350505050565b60008351615353818460208801614ae3565b68636f6e74726163742f60b81b9083019081528351615379816009840160208801614ae3565b01600901949350505050565b60008282101561539757615397615224565b500390565b600082198211156153af576153af615224565b500190565b60208082526028908201527f455243333532353a207472616e7366657220746f206e6f6e20455243333532356040820152672932b1b2b4bb32b960c11b606082015260800190565b60006020828403121561540e57600080fd5b815161111781614e33565b60018060a01b038616815284602082015283604082015282606082015260a06080820152600061544c60a0830184614b0f565b979650505050505050565b60006020828403121561546957600080fd5b815161111781614ab0565b634e487b7160e01b600052603160045260246000fd5b7f416363657373436f6e74726f6c3a206163636f756e74200000000000000000008152600084516154c2816017850160208901614ae3565b7001034b99036b4b9b9b4b733903937b6329607d1b60179184019182015284516154f3816028840160208901614ae3565b6a01037b7103237b6b0b4b7160ad1b602892909101918201526033810193909352505060530192915050565b6001600160a01b038581168252841660208201526040810183905260806060820181905260009061555290830184614b0f565b9695505050505050565b600081600019048311821515161561557657615576615224565b500290565b60008161558a5761558a615224565b50600019019056fefca69b310bd19d275687ebe00b254b0772cf7a367c3f81a9a5a433f831fdc1dc3c63e605be3290ab6b04cfc46c6e1516e626d43236b034f09d7ede1d017beb0c449b0a7e0acc0a95c71947cb19fdd122b42abca9bdfbd6707ca4f1e3fdaef05ea2646970667358221220e4df5c15428c678e9b661667fa6e3efef4b9205205ffd1907cb108250dccbf1b64736f6c63430008090033",
  "devdoc": {
    "details": "Gateway Token contract is responsible for managing Identity.com KYC gateway tokens  those tokens represent completed KYC with attached identity.  Gateway tokens using ERC721 standard with custom extentions. Contract handles multiple levels of access such as Network Authority (may represent a specific regulator body)  Gatekeepers (Identity.com network parties who can mint/burn/freeze gateway tokens) and overall system Admin who can add new Gatekeepers and Network Authorities",
    "kind": "dev",
    "methods": {
      "addBit(uint256,uint8)": {
        "details": "Triggers to add one bit at particular `index` for gateway token with `tokenId`"
      },
      "addBitmask(uint256,uint256)": {
        "details": "Triggers to add bitmask for gateway token with `tokenId`"
      },
      "addGatekeeper(address,uint256)": {
        "details": "Triggers to add new gatekeeper into the system. ",
        "params": {
          "gatekeeper": "Gatekeeper address"
        }
      },
      "addNetworkAuthority(address,uint256)": {
        "details": "Triggers to add new network authority into the system. ",
        "params": {
          "authority": "Network Authority address"
        }
      },
      "burn(uint256)": {
        "details": "Triggers to burn gateway token",
        "params": {
          "tokenId": "Gateway token id"
        }
      },
      "clearBitmask(uint256)": {
        "details": "Triggers to clear bitmask for gateway token with `tokenId`"
      },
      "constructor": {
        "details": "Gateway Token constructor initializes the contract by  setting a `name` and a `symbol` to the gateway token. Initiates gateway token roles with main system admin, `NETWORK_AUTHORITY_ROLE` responsible for adding/removing Gatekeepers and  `GATEKEEPER_ROLE` responsible for minting/burning/transferring tokens"
      },
      "contractURI()": {
        "details": "This function SHOULD return the URI for this contract in JSON format, starting with  header `data:application/json;`.  See https://eips.ethereum.org/EIPS/eip-3525 for the JSON schema for contract URI.",
        "returns": {
          "_0": "The JSON formatted URI of the current ERC3525 contract"
        }
      },
      "expiration(uint256)": {
        "details": "Triggers to get specificied `tokenId` expiration timestamp",
        "params": {
          "tokenId": "Gateway token id"
        }
      },
      "freeze(uint256)": {
        "details": "Triggers to freeze gateway token",
        "params": {
          "tokenId": "Gateway token id"
        }
      },
      "getIdentity(uint256)": {
        "details": "Triggers to get identity attached to specific gateway token",
        "params": {
          "tokenId": "Gateway token id"
        }
      },
      "getRoleAdmin(bytes32,uint256)": {
        "details": "Returns the admin role that controls `role`. See {grantRole} and {revokeRole}. To change a role's admin, use {_setRoleAdmin}."
      },
      "getToken(uint256)": {
        "details": "Triggers to get all information gateway token related to specified `tokenId`",
        "params": {
          "tokenId": "Gateway token id"
        }
      },
      "getTokenBitmask(uint256)": {
        "details": "Triggers to get gateway token bitmask"
      },
      "getTokenState(uint256)": {
        "details": "Triggers to get gateway token state with specified `tokenId`",
        "params": {
          "tokenId": "Gateway token id"
        }
      },
      "grantRole(bytes32,uint256,address)": {
        "details": "Grants `role` to `account`. If `account` had not been already granted `role`, emits a {RoleGranted} event. Requirements: - the caller must have ``role``'s admin role. May emit a {RoleGranted} event."
      },
      "hasRole(bytes32,uint256,address)": {
        "details": "Returns `true` if `account` has been granted `role`."
      },
      "isGatekeeper(address,uint256)": {
        "details": "Triggers to verify if address has a GATEKEEPER role. ",
        "params": {
          "gatekeeper": "Gatekeeper address"
        }
      },
      "isNetworkAuthority(address,uint256)": {
        "details": "Triggers to verify if authority has a NETWORK_AUTHORITY_ROLE role. ",
        "params": {
          "authority": "Network Authority address"
        }
      },
      "mint(address,uint256,uint256,uint256,(uint256,uint8,address,address))": {
        "details": "Triggers to mint gateway token",
        "params": {
          "charge": "The charge details for token issuance (ignored here - handled if at all by the forwarding contract)",
          "mask": "The bitmask for the token",
          "network": "Gateway token type",
          "to": "Gateway token owner"
        }
      },
      "name()": {
        "details": "Returns the token collection name."
      },
      "removeBit(uint256,uint8)": {
        "details": "Triggers to clear one bit at particular `index` for gateway token with `tokenId`"
      },
      "removeBitmask(uint256,uint8)": {
        "details": "Triggers to remove bits in `removingMask` for gateway token with `tokenId`"
      },
      "removeGatekeeper(address,uint256)": {
        "details": "Triggers to remove existing gatekeeper from gateway token. ",
        "params": {
          "gatekeeper": "Gatekeeper address"
        }
      },
      "removeNetworkAuthority(address,uint256)": {
        "details": "Triggers to remove existing network authority from gateway token. ",
        "params": {
          "authority": "Network Authority address"
        }
      },
      "renounceRole(bytes32,uint256,address)": {
        "details": "Revokes `role` from the calling account. Roles are often managed via {grantRole} and {revokeRole}: this function's purpose is to provide a mechanism for accounts to lose their privileges if they are compromised (such as when a trusted device is misplaced). If the calling account had been revoked `role`, emits a {RoleRevoked} event. Requirements: - the caller must be `account`. May emit a {RoleRevoked} event."
      },
      "revoke(uint256)": {
        "details": "Triggers to revoke gateway token",
        "params": {
          "tokenId": "Gateway token id"
        }
      },
      "revokeRole(bytes32,uint256,address)": {
        "details": "Revokes `role` from `account`. If `account` had been granted `role`, emits a {RoleRevoked} event. Requirements: - the caller must have ``role``'s admin role. May emit a {RoleRevoked} event."
      },
      "setBitmask(uint256,uint256)": {
        "details": "Triggers to set full bitmask for gateway token with `tokenId`"
      },
      "setExpiration(uint256,uint256,(uint256,uint8,address,address))": {
        "details": "Triggers to set expiration for tokenId",
        "params": {
          "charge": "The charge details for token refresh (ignored here - handled if at all by the forwarding contract)",
          "tokenId": "Gateway token id"
        }
      },
      "supportsInterface(bytes4)": {
        "details": "See {IERC165-supportsInterface}."
      },
      "symbol()": {
        "details": "Returns the token collection symbol."
      },
      "tokenURI(uint256)": {
        "details": "Returns the Uniform Resource Identifier (URI) for `tokenId` token."
      },
      "totalSupply()": {
        "returns": {
          "_0": "A count of valid NFTs tracked by this contract, where each one of  them has an assigned and queryable owner not equal to the zero address"
        }
      },
      "transferDAOManager(address,address,uint256)": {
        "details": "Transfers Gateway Token DAO Manager access from daoManager to `newManager`",
        "params": {
          "newManager": "Address to transfer DAO Manager role for."
        }
      },
      "transfersRestricted()": {
        "details": "Returns true if gateway token owner transfers restricted, and false otherwise."
      },
      "unfreeze(uint256)": {
        "details": "Triggers to unfreeze gateway token",
        "params": {
          "tokenId": "Gateway token id"
        }
      },
      "updateFlagsStorage(address)": {
        "details": "Triggers to update FlagsStorage contract address",
        "params": {
          "flagsStorage": "FlagsStorage contract address"
        }
      },
      "valueDecimals()": {
        "details": "Returns the number of decimals the token uses for value."
      },
      "verifyToken(address,uint256)": {
        "details": "Triggered by external contract to verify the validity of the default token for `owner`. Checks owner has any token on gateway token contract, `tokenId` still active, and not expired."
      },
      "verifyToken(uint256)": {
        "details": "Triggered by external contract to verify the validity of the default token for `owner`. Checks owner has any token on gateway token contract, `tokenId` still active, and not expired."
      }
    },
    "version": 1
  },
  "userdoc": {
    "kind": "user",
    "methods": {
      "addNetworkAuthority(address,uint256)": {
        "notice": "Can be triggered by Gateway Token Controller or any Network Authority"
      },
      "contractURI()": {
        "notice": "Returns the Uniform Resource Identifier (URI) for the current ERC3525 contract."
      },
      "removeNetworkAuthority(address,uint256)": {
        "notice": "Can be triggered by Gateway Token Controller or any Network Authority"
      },
      "totalSupply()": {
        "notice": "Count NFTs tracked by this contract"
      },
      "transferDAOManager(address,address,uint256)": {
        "notice": "GatewayToken contract has to be DAO Governed"
      }
    },
    "version": 1
  },
  "storageLayout": {
    "storage": [
      {
        "astId": 5925,
        "contract": "contracts/GatewayToken.sol:GatewayToken",
        "label": "_trustedForwarders",
        "offset": 0,
        "slot": "0",
        "type": "t_mapping(t_address,t_bool)"
      },
      {
        "astId": 1956,
        "contract": "contracts/GatewayToken.sol:GatewayToken",
        "label": "_name",
        "offset": 0,
        "slot": "1",
        "type": "t_string_storage"
      },
      {
        "astId": 1958,
        "contract": "contracts/GatewayToken.sol:GatewayToken",
        "label": "_symbol",
        "offset": 0,
        "slot": "2",
        "type": "t_string_storage"
      },
      {
        "astId": 1960,
        "contract": "contracts/GatewayToken.sol:GatewayToken",
        "label": "_decimals",
        "offset": 0,
        "slot": "3",
        "type": "t_uint8"
      },
      {
        "astId": 1963,
        "contract": "contracts/GatewayToken.sol:GatewayToken",
        "label": "_tokenIdGenerator",
        "offset": 0,
        "slot": "4",
        "type": "t_struct(Counter)746_storage"
      },
      {
        "astId": 1969,
        "contract": "contracts/GatewayToken.sol:GatewayToken",
        "label": "_approvedValues",
        "offset": 0,
        "slot": "5",
        "type": "t_mapping(t_uint256,t_mapping(t_address,t_uint256))"
      },
      {
        "astId": 1973,
        "contract": "contracts/GatewayToken.sol:GatewayToken",
        "label": "_allTokens",
        "offset": 0,
        "slot": "6",
        "type": "t_array(t_struct(TokenData)1942_storage)dyn_storage"
      },
      {
        "astId": 1977,
        "contract": "contracts/GatewayToken.sol:GatewayToken",
        "label": "_allTokensIndex",
        "offset": 0,
        "slot": "7",
        "type": "t_mapping(t_uint256,t_uint256)"
      },
      {
        "astId": 1982,
        "contract": "contracts/GatewayToken.sol:GatewayToken",
        "label": "_addressData",
        "offset": 0,
        "slot": "8",
        "type": "t_mapping(t_address,t_struct(AddressData)1954_storage)"
      },
      {
        "astId": 1985,
        "contract": "contracts/GatewayToken.sol:GatewayToken",
        "label": "metadataDescriptor",
        "offset": 0,
        "slot": "9",
        "type": "t_contract(IERC3525MetadataDescriptor)4439"
      },
      {
        "astId": 6068,
        "contract": "contracts/GatewayToken.sol:GatewayToken",
        "label": "_roleDomain",
        "offset": 0,
        "slot": "10",
        "type": "t_mapping(t_uint256,t_struct(RoleDomain)6063_storage)"
      },
      {
        "astId": 6072,
        "contract": "contracts/GatewayToken.sol:GatewayToken",
        "label": "_superAdmins",
        "offset": 0,
        "slot": "11",
        "type": "t_mapping(t_address,t_bool)"
      },
      {
        "astId": 6533,
        "contract": "contracts/GatewayToken.sol:GatewayToken",
        "label": "flagsStorage",
        "offset": 0,
        "slot": "12",
        "type": "t_contract(IFlagsStorage)6906"
      },
      {
        "astId": 6537,
        "contract": "contracts/GatewayToken.sol:GatewayToken",
        "label": "bitmasks",
        "offset": 0,
        "slot": "13",
        "type": "t_mapping(t_uint256,t_uint256)"
      },
      {
        "astId": 4487,
        "contract": "contracts/GatewayToken.sol:GatewayToken",
        "label": "controller",
        "offset": 0,
        "slot": "14",
        "type": "t_address"
      },
      {
        "astId": 4489,
        "contract": "contracts/GatewayToken.sol:GatewayToken",
        "label": "isTransfersRestricted",
        "offset": 20,
        "slot": "14",
        "type": "t_bool"
      },
      {
        "astId": 4493,
        "contract": "contracts/GatewayToken.sol:GatewayToken",
        "label": "isNetworkDAOGoverned",
        "offset": 0,
        "slot": "15",
        "type": "t_mapping(t_uint256,t_bool)"
      },
      {
        "astId": 4512,
        "contract": "contracts/GatewayToken.sol:GatewayToken",
        "label": "tokenURIs",
        "offset": 0,
        "slot": "16",
        "type": "t_mapping(t_uint256,t_string_storage)"
      },
      {
        "astId": 4517,
        "contract": "contracts/GatewayToken.sol:GatewayToken",
        "label": "tokenStates",
        "offset": 0,
        "slot": "17",
        "type": "t_mapping(t_uint256,t_enum(TokenState)4485)"
      },
      {
        "astId": 4521,
        "contract": "contracts/GatewayToken.sol:GatewayToken",
        "label": "expirations",
        "offset": 0,
        "slot": "18",
        "type": "t_mapping(t_uint256,t_uint256)"
      },
      {
        "astId": 4525,
        "contract": "contracts/GatewayToken.sol:GatewayToken",
        "label": "networks",
        "offset": 0,
        "slot": "19",
        "type": "t_mapping(t_uint256,t_string_storage)"
      }
    ],
    "types": {
      "t_address": {
        "encoding": "inplace",
        "label": "address",
        "numberOfBytes": "20"
      },
      "t_array(t_address)dyn_storage": {
        "base": "t_address",
        "encoding": "dynamic_array",
        "label": "address[]",
        "numberOfBytes": "32"
      },
      "t_array(t_struct(TokenData)1942_storage)dyn_storage": {
        "base": "t_struct(TokenData)1942_storage",
        "encoding": "dynamic_array",
        "label": "struct ERC3525.TokenData[]",
        "numberOfBytes": "32"
      },
      "t_array(t_uint256)dyn_storage": {
        "base": "t_uint256",
        "encoding": "dynamic_array",
        "label": "uint256[]",
        "numberOfBytes": "32"
      },
      "t_bool": {
        "encoding": "inplace",
        "label": "bool",
        "numberOfBytes": "1"
      },
      "t_bytes32": {
        "encoding": "inplace",
        "label": "bytes32",
        "numberOfBytes": "32"
      },
      "t_contract(IERC3525MetadataDescriptor)4439": {
        "encoding": "inplace",
        "label": "contract IERC3525MetadataDescriptor",
        "numberOfBytes": "20"
      },
      "t_contract(IFlagsStorage)6906": {
        "encoding": "inplace",
        "label": "contract IFlagsStorage",
        "numberOfBytes": "20"
      },
      "t_enum(TokenState)4485": {
        "encoding": "inplace",
        "label": "enum GatewayToken.TokenState",
        "numberOfBytes": "1"
      },
      "t_mapping(t_address,t_bool)": {
        "encoding": "mapping",
        "key": "t_address",
        "label": "mapping(address => bool)",
        "numberOfBytes": "32",
        "value": "t_bool"
      },
      "t_mapping(t_address,t_struct(AddressData)1954_storage)": {
        "encoding": "mapping",
        "key": "t_address",
        "label": "mapping(address => struct ERC3525.AddressData)",
        "numberOfBytes": "32",
        "value": "t_struct(AddressData)1954_storage"
      },
      "t_mapping(t_address,t_uint256)": {
        "encoding": "mapping",
        "key": "t_address",
        "label": "mapping(address => uint256)",
        "numberOfBytes": "32",
        "value": "t_uint256"
      },
      "t_mapping(t_bytes32,t_struct(RoleData)6057_storage)": {
        "encoding": "mapping",
        "key": "t_bytes32",
        "label": "mapping(bytes32 => struct ParameterizedAccessControl.RoleData)",
        "numberOfBytes": "32",
        "value": "t_struct(RoleData)6057_storage"
      },
      "t_mapping(t_uint256,t_bool)": {
        "encoding": "mapping",
        "key": "t_uint256",
        "label": "mapping(uint256 => bool)",
        "numberOfBytes": "32",
        "value": "t_bool"
      },
      "t_mapping(t_uint256,t_enum(TokenState)4485)": {
        "encoding": "mapping",
        "key": "t_uint256",
        "label": "mapping(uint256 => enum GatewayToken.TokenState)",
        "numberOfBytes": "32",
        "value": "t_enum(TokenState)4485"
      },
      "t_mapping(t_uint256,t_mapping(t_address,t_uint256))": {
        "encoding": "mapping",
        "key": "t_uint256",
        "label": "mapping(uint256 => mapping(address => uint256))",
        "numberOfBytes": "32",
        "value": "t_mapping(t_address,t_uint256)"
      },
      "t_mapping(t_uint256,t_string_storage)": {
        "encoding": "mapping",
        "key": "t_uint256",
        "label": "mapping(uint256 => string)",
        "numberOfBytes": "32",
        "value": "t_string_storage"
      },
      "t_mapping(t_uint256,t_struct(RoleDomain)6063_storage)": {
        "encoding": "mapping",
        "key": "t_uint256",
        "label": "mapping(uint256 => struct ParameterizedAccessControl.RoleDomain)",
        "numberOfBytes": "32",
        "value": "t_struct(RoleDomain)6063_storage"
      },
      "t_mapping(t_uint256,t_uint256)": {
        "encoding": "mapping",
        "key": "t_uint256",
        "label": "mapping(uint256 => uint256)",
        "numberOfBytes": "32",
        "value": "t_uint256"
      },
      "t_string_storage": {
        "encoding": "bytes",
        "label": "string",
        "numberOfBytes": "32"
      },
      "t_struct(AddressData)1954_storage": {
        "encoding": "inplace",
        "label": "struct ERC3525.AddressData",
        "members": [
          {
            "astId": 1945,
            "contract": "contracts/GatewayToken.sol:GatewayToken",
            "label": "ownedTokens",
            "offset": 0,
            "slot": "0",
            "type": "t_array(t_uint256)dyn_storage"
          },
          {
            "astId": 1949,
            "contract": "contracts/GatewayToken.sol:GatewayToken",
            "label": "ownedTokensIndex",
            "offset": 0,
            "slot": "1",
            "type": "t_mapping(t_uint256,t_uint256)"
          },
          {
            "astId": 1953,
            "contract": "contracts/GatewayToken.sol:GatewayToken",
            "label": "approvals",
            "offset": 0,
            "slot": "2",
            "type": "t_mapping(t_address,t_bool)"
          }
        ],
        "numberOfBytes": "96"
      },
      "t_struct(Counter)746_storage": {
        "encoding": "inplace",
        "label": "struct Counters.Counter",
        "members": [
          {
            "astId": 745,
            "contract": "contracts/GatewayToken.sol:GatewayToken",
            "label": "_value",
            "offset": 0,
            "slot": "0",
            "type": "t_uint256"
          }
        ],
        "numberOfBytes": "32"
      },
      "t_struct(RoleData)6057_storage": {
        "encoding": "inplace",
        "label": "struct ParameterizedAccessControl.RoleData",
        "members": [
          {
            "astId": 6054,
            "contract": "contracts/GatewayToken.sol:GatewayToken",
            "label": "members",
            "offset": 0,
            "slot": "0",
            "type": "t_mapping(t_address,t_bool)"
          },
          {
            "astId": 6056,
            "contract": "contracts/GatewayToken.sol:GatewayToken",
            "label": "adminRole",
            "offset": 0,
            "slot": "1",
            "type": "t_bytes32"
          }
        ],
        "numberOfBytes": "64"
      },
      "t_struct(RoleDomain)6063_storage": {
        "encoding": "inplace",
        "label": "struct ParameterizedAccessControl.RoleDomain",
        "members": [
          {
            "astId": 6062,
            "contract": "contracts/GatewayToken.sol:GatewayToken",
            "label": "roles",
            "offset": 0,
            "slot": "0",
            "type": "t_mapping(t_bytes32,t_struct(RoleData)6057_storage)"
          }
        ],
        "numberOfBytes": "32"
      },
      "t_struct(TokenData)1942_storage": {
        "encoding": "inplace",
        "label": "struct ERC3525.TokenData",
        "members": [
          {
            "astId": 1930,
            "contract": "contracts/GatewayToken.sol:GatewayToken",
            "label": "id",
            "offset": 0,
            "slot": "0",
            "type": "t_uint256"
          },
          {
            "astId": 1932,
            "contract": "contracts/GatewayToken.sol:GatewayToken",
            "label": "slot",
            "offset": 0,
            "slot": "1",
            "type": "t_uint256"
          },
          {
            "astId": 1934,
            "contract": "contracts/GatewayToken.sol:GatewayToken",
            "label": "balance",
            "offset": 0,
            "slot": "2",
            "type": "t_uint256"
          },
          {
            "astId": 1936,
            "contract": "contracts/GatewayToken.sol:GatewayToken",
            "label": "owner",
            "offset": 0,
            "slot": "3",
            "type": "t_address"
          },
          {
            "astId": 1938,
            "contract": "contracts/GatewayToken.sol:GatewayToken",
            "label": "approved",
            "offset": 0,
            "slot": "4",
            "type": "t_address"
          },
          {
            "astId": 1941,
            "contract": "contracts/GatewayToken.sol:GatewayToken",
            "label": "valueApprovals",
            "offset": 0,
            "slot": "5",
            "type": "t_array(t_address)dyn_storage"
          }
        ],
        "numberOfBytes": "192"
      },
      "t_uint256": {
        "encoding": "inplace",
        "label": "uint256",
        "numberOfBytes": "32"
      },
      "t_uint8": {
        "encoding": "inplace",
        "label": "uint8",
        "numberOfBytes": "1"
      }
    }
  }
}