{
  "address": "0xf00f779a0E54FA3191861e6f62262496590c6700",
  "abi": [
    {
      "inputs": [],
      "stateMutability": "nonpayable",
      "type": "constructor"
    },
    {
      "anonymous": false,
      "inputs": [
        {
          "indexed": false,
          "internalType": "address",
          "name": "previousAdmin",
          "type": "address"
        },
        {
          "indexed": false,
          "internalType": "address",
          "name": "newAdmin",
          "type": "address"
        }
      ],
      "name": "AdminChanged",
      "type": "event"
    },
    {
      "anonymous": false,
      "inputs": [
        {
          "indexed": true,
          "internalType": "address",
          "name": "_owner",
          "type": "address"
        },
        {
          "indexed": true,
          "internalType": "address",
          "name": "_approved",
          "type": "address"
        },
        {
          "indexed": true,
          "internalType": "uint256",
          "name": "_tokenId",
          "type": "uint256"
        }
      ],
      "name": "Approval",
      "type": "event"
    },
    {
      "anonymous": false,
      "inputs": [
        {
          "indexed": true,
          "internalType": "address",
          "name": "_owner",
          "type": "address"
        },
        {
          "indexed": true,
          "internalType": "address",
          "name": "_operator",
          "type": "address"
        },
        {
          "indexed": false,
          "internalType": "bool",
          "name": "_approved",
          "type": "bool"
        }
      ],
      "name": "ApprovalForAll",
      "type": "event"
    },
    {
      "anonymous": false,
      "inputs": [
        {
          "indexed": true,
          "internalType": "uint256",
          "name": "_tokenId",
          "type": "uint256"
        },
        {
          "indexed": true,
          "internalType": "address",
          "name": "_operator",
          "type": "address"
        },
        {
          "indexed": false,
          "internalType": "uint256",
          "name": "_value",
          "type": "uint256"
        }
      ],
      "name": "ApprovalValue",
      "type": "event"
    },
    {
      "anonymous": false,
      "inputs": [
        {
          "indexed": true,
          "internalType": "address",
          "name": "beacon",
          "type": "address"
        }
      ],
      "name": "BeaconUpgraded",
      "type": "event"
    },
    {
      "anonymous": false,
      "inputs": [
        {
          "indexed": false,
          "internalType": "uint256",
          "name": "tokenId",
          "type": "uint256"
        },
        {
          "indexed": false,
          "internalType": "uint256",
          "name": "bitmask",
          "type": "uint256"
        }
      ],
      "name": "BitMaskUpdated",
      "type": "event"
    },
    {
      "anonymous": false,
      "inputs": [
        {
          "indexed": false,
          "internalType": "address",
          "name": "previousDAOManager",
          "type": "address"
        },
        {
          "indexed": false,
          "internalType": "address",
          "name": "newDAOManager",
          "type": "address"
        },
        {
          "indexed": false,
          "internalType": "uint256",
          "name": "network",
          "type": "uint256"
        }
      ],
      "name": "DAOManagerTransferred",
      "type": "event"
    },
    {
      "anonymous": false,
      "inputs": [
        {
          "indexed": true,
          "internalType": "uint256",
          "name": "tokenId",
          "type": "uint256"
        },
        {
          "indexed": false,
          "internalType": "uint256",
          "name": "timestamp",
          "type": "uint256"
        }
      ],
      "name": "Expiration",
      "type": "event"
    },
    {
      "anonymous": false,
      "inputs": [
        {
          "indexed": true,
          "internalType": "address",
          "name": "flagsStorage",
          "type": "address"
        }
      ],
      "name": "FlagsStorageUpdated",
      "type": "event"
    },
    {
      "anonymous": false,
      "inputs": [
        {
          "indexed": true,
          "internalType": "uint256",
          "name": "tokenId",
          "type": "uint256"
        }
      ],
      "name": "Freeze",
      "type": "event"
    },
    {
      "anonymous": false,
      "inputs": [
        {
          "indexed": false,
          "internalType": "uint8",
          "name": "version",
          "type": "uint8"
        }
      ],
      "name": "Initialized",
      "type": "event"
    },
    {
      "anonymous": false,
      "inputs": [
        {
          "indexed": true,
          "internalType": "uint256",
          "name": "tokenId",
          "type": "uint256"
        }
      ],
      "name": "Revoke",
      "type": "event"
    },
    {
      "anonymous": false,
      "inputs": [
        {
          "indexed": true,
          "internalType": "bytes32",
          "name": "role",
          "type": "bytes32"
        },
        {
          "indexed": false,
          "internalType": "uint256",
          "name": "domain",
          "type": "uint256"
        },
        {
          "indexed": true,
          "internalType": "bytes32",
          "name": "previousAdminRole",
          "type": "bytes32"
        },
        {
          "indexed": true,
          "internalType": "bytes32",
          "name": "newAdminRole",
          "type": "bytes32"
        }
      ],
      "name": "RoleAdminChanged",
      "type": "event"
    },
    {
      "anonymous": false,
      "inputs": [
        {
          "indexed": true,
          "internalType": "bytes32",
          "name": "role",
          "type": "bytes32"
        },
        {
          "indexed": false,
          "internalType": "uint256",
          "name": "domain",
          "type": "uint256"
        },
        {
          "indexed": true,
          "internalType": "address",
          "name": "account",
          "type": "address"
        },
        {
          "indexed": true,
          "internalType": "address",
          "name": "sender",
          "type": "address"
        }
      ],
      "name": "RoleGranted",
      "type": "event"
    },
    {
      "anonymous": false,
      "inputs": [
        {
          "indexed": true,
          "internalType": "bytes32",
          "name": "role",
          "type": "bytes32"
        },
        {
          "indexed": false,
          "internalType": "uint256",
          "name": "domain",
          "type": "uint256"
        },
        {
          "indexed": true,
          "internalType": "address",
          "name": "account",
          "type": "address"
        },
        {
          "indexed": true,
          "internalType": "address",
          "name": "sender",
          "type": "address"
        }
      ],
      "name": "RoleRevoked",
      "type": "event"
    },
    {
      "anonymous": false,
      "inputs": [
        {
          "indexed": true,
          "internalType": "address",
          "name": "metadataDescriptor",
          "type": "address"
        }
      ],
      "name": "SetMetadataDescriptor",
      "type": "event"
    },
    {
      "anonymous": false,
      "inputs": [
        {
          "indexed": true,
          "internalType": "uint256",
          "name": "_tokenId",
          "type": "uint256"
        },
        {
          "indexed": true,
          "internalType": "uint256",
          "name": "_oldSlot",
          "type": "uint256"
        },
        {
          "indexed": true,
          "internalType": "uint256",
          "name": "_newSlot",
          "type": "uint256"
        }
      ],
      "name": "SlotChanged",
      "type": "event"
    },
    {
      "anonymous": false,
      "inputs": [
        {
          "indexed": true,
          "internalType": "address",
          "name": "account",
          "type": "address"
        }
      ],
      "name": "SuperAdminAdded",
      "type": "event"
    },
    {
      "anonymous": false,
      "inputs": [
        {
          "indexed": true,
          "internalType": "address",
          "name": "account",
          "type": "address"
        }
      ],
      "name": "SuperAdminRemoved",
      "type": "event"
    },
    {
      "anonymous": false,
      "inputs": [
        {
          "indexed": true,
          "internalType": "address",
          "name": "_from",
          "type": "address"
        },
        {
          "indexed": true,
          "internalType": "address",
          "name": "_to",
          "type": "address"
        },
        {
          "indexed": true,
          "internalType": "uint256",
          "name": "_tokenId",
          "type": "uint256"
        }
      ],
      "name": "Transfer",
      "type": "event"
    },
    {
      "anonymous": false,
      "inputs": [
        {
          "indexed": true,
          "internalType": "uint256",
          "name": "_fromTokenId",
          "type": "uint256"
        },
        {
          "indexed": true,
          "internalType": "uint256",
          "name": "_toTokenId",
          "type": "uint256"
        },
        {
          "indexed": false,
          "internalType": "uint256",
          "name": "_value",
          "type": "uint256"
        }
      ],
      "name": "TransferValue",
      "type": "event"
    },
    {
      "anonymous": false,
      "inputs": [
        {
          "indexed": true,
          "internalType": "uint256",
          "name": "tokenId",
          "type": "uint256"
        }
      ],
      "name": "Unfreeze",
      "type": "event"
    },
    {
      "anonymous": false,
      "inputs": [
        {
          "indexed": true,
          "internalType": "address",
          "name": "implementation",
          "type": "address"
        }
      ],
      "name": "Upgraded",
      "type": "event"
    },
    {
      "inputs": [],
      "name": "DAO_MANAGER_ROLE",
      "outputs": [
        {
          "internalType": "bytes32",
          "name": "",
          "type": "bytes32"
        }
      ],
      "stateMutability": "view",
      "type": "function"
    },
    {
      "inputs": [],
      "name": "DEFAULT_ADMIN_ROLE",
      "outputs": [
        {
          "internalType": "bytes32",
          "name": "",
          "type": "bytes32"
        }
      ],
      "stateMutability": "view",
      "type": "function"
    },
    {
      "inputs": [],
      "name": "GATEKEEPER_ROLE",
      "outputs": [
        {
          "internalType": "bytes32",
          "name": "",
          "type": "bytes32"
        }
      ],
      "stateMutability": "view",
      "type": "function"
    },
    {
      "inputs": [],
      "name": "NETWORK_AUTHORITY_ROLE",
      "outputs": [
        {
          "internalType": "bytes32",
          "name": "",
          "type": "bytes32"
        }
      ],
      "stateMutability": "view",
      "type": "function"
    },
    {
      "inputs": [
        {
          "internalType": "address",
          "name": "forwarder",
          "type": "address"
        }
      ],
      "name": "addForwarder",
      "outputs": [],
      "stateMutability": "nonpayable",
      "type": "function"
    },
    {
      "inputs": [
        {
          "internalType": "address",
          "name": "gatekeeper",
          "type": "address"
        },
        {
          "internalType": "uint256",
          "name": "network",
          "type": "uint256"
        }
      ],
      "name": "addGatekeeper",
      "outputs": [],
      "stateMutability": "nonpayable",
      "type": "function"
    },
    {
      "inputs": [
        {
          "internalType": "address",
          "name": "authority",
          "type": "address"
        },
        {
          "internalType": "uint256",
          "name": "network",
          "type": "uint256"
        }
      ],
      "name": "addNetworkAuthority",
      "outputs": [],
      "stateMutability": "nonpayable",
      "type": "function"
    },
    {
      "inputs": [
        {
          "internalType": "uint256",
          "name": "tokenId_",
          "type": "uint256"
        },
        {
          "internalType": "address",
          "name": "operator_",
          "type": "address"
        }
      ],
      "name": "allowance",
      "outputs": [
        {
          "internalType": "uint256",
          "name": "",
          "type": "uint256"
        }
      ],
      "stateMutability": "view",
      "type": "function"
    },
    {
      "inputs": [
        {
          "internalType": "address",
          "name": "to_",
          "type": "address"
        },
        {
          "internalType": "uint256",
          "name": "tokenId_",
          "type": "uint256"
        }
      ],
      "name": "approve",
      "outputs": [],
      "stateMutability": "payable",
      "type": "function"
    },
    {
      "inputs": [
        {
          "internalType": "uint256",
          "name": "tokenId_",
          "type": "uint256"
        },
        {
          "internalType": "address",
          "name": "to_",
          "type": "address"
        },
        {
          "internalType": "uint256",
          "name": "value_",
          "type": "uint256"
        }
      ],
      "name": "approve",
      "outputs": [],
      "stateMutability": "payable",
      "type": "function"
    },
    {
      "inputs": [
        {
          "internalType": "address",
          "name": "owner_",
          "type": "address"
        }
      ],
      "name": "balanceOf",
      "outputs": [
        {
          "internalType": "uint256",
          "name": "balance",
          "type": "uint256"
        }
      ],
      "stateMutability": "view",
      "type": "function"
    },
    {
      "inputs": [
        {
          "internalType": "uint256",
          "name": "tokenId_",
          "type": "uint256"
        }
      ],
      "name": "balanceOf",
      "outputs": [
        {
          "internalType": "uint256",
          "name": "",
          "type": "uint256"
        }
      ],
      "stateMutability": "view",
      "type": "function"
    },
    {
      "inputs": [
        {
          "internalType": "uint256",
          "name": "tokenId",
          "type": "uint256"
        }
      ],
      "name": "burn",
      "outputs": [],
      "stateMutability": "nonpayable",
      "type": "function"
    },
    {
      "inputs": [],
      "name": "contractURI",
      "outputs": [
        {
          "internalType": "string",
          "name": "",
          "type": "string"
        }
      ],
      "stateMutability": "view",
      "type": "function"
    },
    {
      "inputs": [],
      "name": "controller",
      "outputs": [
        {
          "internalType": "address",
          "name": "",
          "type": "address"
        }
      ],
      "stateMutability": "view",
      "type": "function"
    },
    {
      "inputs": [
        {
          "internalType": "uint256",
          "name": "network",
          "type": "uint256"
        },
        {
          "internalType": "string",
          "name": "name",
          "type": "string"
        },
        {
          "internalType": "bool",
          "name": "daoGoverned",
          "type": "bool"
        },
        {
          "internalType": "address",
          "name": "daoManager",
          "type": "address"
        }
      ],
      "name": "createNetwork",
      "outputs": [],
      "stateMutability": "nonpayable",
      "type": "function"
    },
    {
      "inputs": [],
      "name": "flagsStorage",
      "outputs": [
        {
          "internalType": "contract IFlagsStorage",
          "name": "",
          "type": "address"
        }
      ],
      "stateMutability": "view",
      "type": "function"
    },
    {
      "inputs": [
        {
          "internalType": "uint256",
          "name": "tokenId",
          "type": "uint256"
        }
      ],
      "name": "freeze",
      "outputs": [],
      "stateMutability": "nonpayable",
      "type": "function"
    },
    {
      "inputs": [
        {
          "internalType": "uint256",
          "name": "tokenId_",
          "type": "uint256"
        }
      ],
      "name": "getApproved",
      "outputs": [
        {
          "internalType": "address",
          "name": "",
          "type": "address"
        }
      ],
      "stateMutability": "view",
      "type": "function"
    },
    {
      "inputs": [
        {
          "internalType": "uint256",
          "name": "tokenId",
          "type": "uint256"
        }
      ],
      "name": "getExpiration",
      "outputs": [
        {
          "internalType": "uint256",
          "name": "",
          "type": "uint256"
        }
      ],
      "stateMutability": "view",
      "type": "function"
    },
    {
      "inputs": [
        {
          "internalType": "uint256",
          "name": "network",
          "type": "uint256"
        }
      ],
      "name": "getNetwork",
      "outputs": [
        {
          "internalType": "string",
          "name": "",
          "type": "string"
        }
      ],
      "stateMutability": "view",
      "type": "function"
    },
    {
      "inputs": [
        {
          "internalType": "bytes32",
          "name": "role",
          "type": "bytes32"
        },
        {
          "internalType": "uint256",
          "name": "domain",
          "type": "uint256"
        }
      ],
      "name": "getRoleAdmin",
      "outputs": [
        {
          "internalType": "bytes32",
          "name": "",
          "type": "bytes32"
        }
      ],
      "stateMutability": "view",
      "type": "function"
    },
    {
      "inputs": [
        {
          "internalType": "uint256",
          "name": "tokenId",
          "type": "uint256"
        }
      ],
      "name": "getToken",
      "outputs": [
        {
          "internalType": "address",
          "name": "owner",
          "type": "address"
        },
        {
          "internalType": "uint8",
          "name": "state",
          "type": "uint8"
        },
        {
          "internalType": "string",
          "name": "identity",
          "type": "string"
        },
        {
          "internalType": "uint256",
          "name": "expiration",
          "type": "uint256"
        },
        {
          "internalType": "uint256",
          "name": "bitmask",
          "type": "uint256"
        }
      ],
      "stateMutability": "view",
      "type": "function"
    },
    {
      "inputs": [
        {
          "internalType": "uint256",
          "name": "tokenId",
          "type": "uint256"
        }
      ],
      "name": "getTokenBitmask",
      "outputs": [
        {
          "internalType": "uint256",
          "name": "",
          "type": "uint256"
        }
      ],
      "stateMutability": "view",
      "type": "function"
    },
    {
      "inputs": [
        {
          "internalType": "address",
          "name": "owner",
          "type": "address"
        },
        {
          "internalType": "uint256",
          "name": "network",
          "type": "uint256"
        }
      ],
      "name": "getTokenIdsByOwnerAndNetwork",
      "outputs": [
        {
          "internalType": "uint256[]",
          "name": "",
          "type": "uint256[]"
        }
      ],
      "stateMutability": "view",
      "type": "function"
    },
    {
      "inputs": [
        {
          "internalType": "bytes32",
          "name": "role",
          "type": "bytes32"
        },
        {
          "internalType": "uint256",
          "name": "domain",
          "type": "uint256"
        },
        {
          "internalType": "address",
          "name": "account",
          "type": "address"
        }
      ],
      "name": "grantRole",
      "outputs": [],
      "stateMutability": "nonpayable",
      "type": "function"
    },
    {
      "inputs": [
        {
          "internalType": "bytes32",
          "name": "role",
          "type": "bytes32"
        },
        {
          "internalType": "uint256",
          "name": "domain",
          "type": "uint256"
        },
        {
          "internalType": "address",
          "name": "account",
          "type": "address"
        }
      ],
      "name": "hasRole",
      "outputs": [
        {
          "internalType": "bool",
          "name": "",
          "type": "bool"
        }
      ],
      "stateMutability": "view",
      "type": "function"
    },
    {
      "inputs": [
        {
          "internalType": "string",
          "name": "_name",
          "type": "string"
        },
        {
          "internalType": "string",
          "name": "_symbol",
          "type": "string"
        },
        {
          "internalType": "address",
          "name": "_superAdmin",
          "type": "address"
        },
        {
          "internalType": "address",
          "name": "_flagsStorage",
          "type": "address"
        },
        {
          "internalType": "address[]",
          "name": "_trustedForwarders",
          "type": "address[]"
        }
      ],
      "name": "initialize",
      "outputs": [],
      "stateMutability": "nonpayable",
      "type": "function"
    },
    {
      "inputs": [
        {
          "internalType": "address",
          "name": "owner_",
          "type": "address"
        },
        {
          "internalType": "address",
          "name": "operator_",
          "type": "address"
        }
      ],
      "name": "isApprovedForAll",
      "outputs": [
        {
          "internalType": "bool",
          "name": "",
          "type": "bool"
        }
      ],
      "stateMutability": "view",
      "type": "function"
    },
    {
      "inputs": [
        {
          "internalType": "address",
          "name": "gatekeeper",
          "type": "address"
        },
        {
          "internalType": "uint256",
          "name": "network",
          "type": "uint256"
        }
      ],
      "name": "isGatekeeper",
      "outputs": [
        {
          "internalType": "bool",
          "name": "",
          "type": "bool"
        }
      ],
      "stateMutability": "view",
      "type": "function"
    },
    {
      "inputs": [
        {
          "internalType": "address",
          "name": "authority",
          "type": "address"
        },
        {
          "internalType": "uint256",
          "name": "network",
          "type": "uint256"
        }
      ],
      "name": "isNetworkAuthority",
      "outputs": [
        {
          "internalType": "bool",
          "name": "",
          "type": "bool"
        }
      ],
      "stateMutability": "view",
      "type": "function"
    },
    {
      "inputs": [
        {
          "internalType": "uint256",
          "name": "",
          "type": "uint256"
        }
      ],
      "name": "isNetworkDAOGoverned",
      "outputs": [
        {
          "internalType": "bool",
          "name": "",
          "type": "bool"
        }
      ],
      "stateMutability": "view",
      "type": "function"
    },
    {
      "inputs": [
        {
          "internalType": "address",
          "name": "account",
          "type": "address"
        }
      ],
      "name": "isSuperAdmin",
      "outputs": [
        {
          "internalType": "bool",
          "name": "",
          "type": "bool"
        }
      ],
      "stateMutability": "view",
      "type": "function"
    },
    {
      "inputs": [
        {
          "internalType": "address",
          "name": "forwarder",
          "type": "address"
        }
      ],
      "name": "isTrustedForwarder",
      "outputs": [
        {
          "internalType": "bool",
          "name": "",
          "type": "bool"
        }
      ],
      "stateMutability": "view",
      "type": "function"
    },
    {
      "inputs": [],
      "name": "metadataDescriptor",
      "outputs": [
        {
          "internalType": "contract IERC3525MetadataDescriptorUpgradeable",
          "name": "",
          "type": "address"
        }
      ],
      "stateMutability": "view",
      "type": "function"
    },
    {
      "inputs": [
        {
          "internalType": "address",
          "name": "to",
          "type": "address"
        },
        {
          "internalType": "uint256",
          "name": "network",
          "type": "uint256"
        },
        {
          "internalType": "uint256",
          "name": "expiration",
          "type": "uint256"
        },
        {
          "internalType": "uint256",
          "name": "mask",
          "type": "uint256"
        },
        {
          "components": [
            {
              "internalType": "uint256",
              "name": "value",
              "type": "uint256"
            },
            {
              "internalType": "enum ChargeType",
              "name": "chargeType",
              "type": "uint8"
            },
            {
              "internalType": "address",
              "name": "token",
              "type": "address"
            },
            {
              "internalType": "address",
              "name": "recipient",
              "type": "address"
            }
          ],
          "internalType": "struct Charge",
          "name": "",
          "type": "tuple"
        }
      ],
      "name": "mint",
      "outputs": [],
      "stateMutability": "nonpayable",
      "type": "function"
    },
    {
      "inputs": [],
      "name": "name",
      "outputs": [
        {
          "internalType": "string",
          "name": "",
          "type": "string"
        }
      ],
      "stateMutability": "view",
      "type": "function"
    },
    {
      "inputs": [
        {
          "internalType": "uint256",
          "name": "tokenId_",
          "type": "uint256"
        }
      ],
      "name": "ownerOf",
      "outputs": [
        {
          "internalType": "address",
          "name": "owner_",
          "type": "address"
        }
      ],
      "stateMutability": "view",
      "type": "function"
    },
    {
      "inputs": [],
      "name": "proxiableUUID",
      "outputs": [
        {
          "internalType": "bytes32",
          "name": "",
          "type": "bytes32"
        }
      ],
      "stateMutability": "view",
      "type": "function"
    },
    {
      "inputs": [
        {
          "internalType": "address",
          "name": "forwarder",
          "type": "address"
        }
      ],
      "name": "removeForwarder",
      "outputs": [],
      "stateMutability": "nonpayable",
      "type": "function"
    },
    {
      "inputs": [
        {
          "internalType": "address",
          "name": "gatekeeper",
          "type": "address"
        },
        {
          "internalType": "uint256",
          "name": "network",
          "type": "uint256"
        }
      ],
      "name": "removeGatekeeper",
      "outputs": [],
      "stateMutability": "nonpayable",
      "type": "function"
    },
    {
      "inputs": [
        {
          "internalType": "address",
          "name": "authority",
          "type": "address"
        },
        {
          "internalType": "uint256",
          "name": "network",
          "type": "uint256"
        }
      ],
      "name": "removeNetworkAuthority",
      "outputs": [],
      "stateMutability": "nonpayable",
      "type": "function"
    },
    {
      "inputs": [
        {
          "internalType": "uint256",
          "name": "network",
          "type": "uint256"
        },
        {
          "internalType": "string",
          "name": "name",
          "type": "string"
        }
      ],
      "name": "renameNetwork",
      "outputs": [],
      "stateMutability": "nonpayable",
      "type": "function"
    },
    {
      "inputs": [
        {
          "internalType": "bytes32",
          "name": "role",
          "type": "bytes32"
        },
        {
          "internalType": "uint256",
          "name": "domain",
          "type": "uint256"
        },
        {
          "internalType": "address",
          "name": "account",
          "type": "address"
        }
      ],
      "name": "renounceRole",
      "outputs": [],
      "stateMutability": "nonpayable",
      "type": "function"
    },
    {
      "inputs": [
        {
          "internalType": "uint256",
          "name": "tokenId",
          "type": "uint256"
        }
      ],
      "name": "revoke",
      "outputs": [],
      "stateMutability": "nonpayable",
      "type": "function"
    },
    {
      "inputs": [
        {
          "internalType": "bytes32",
          "name": "role",
          "type": "bytes32"
        },
        {
          "internalType": "uint256",
          "name": "domain",
          "type": "uint256"
        },
        {
          "internalType": "address",
          "name": "account",
          "type": "address"
        }
      ],
      "name": "revokeRole",
      "outputs": [],
      "stateMutability": "nonpayable",
      "type": "function"
    },
    {
      "inputs": [
        {
          "internalType": "address",
          "name": "account",
          "type": "address"
        }
      ],
      "name": "revokeSuperAdmin",
      "outputs": [],
      "stateMutability": "nonpayable",
      "type": "function"
    },
    {
      "inputs": [
        {
          "internalType": "address",
          "name": "from_",
          "type": "address"
        },
        {
          "internalType": "address",
          "name": "to_",
          "type": "address"
        },
        {
          "internalType": "uint256",
          "name": "tokenId_",
          "type": "uint256"
        }
      ],
      "name": "safeTransferFrom",
      "outputs": [],
      "stateMutability": "payable",
      "type": "function"
    },
    {
      "inputs": [
        {
          "internalType": "address",
          "name": "from_",
          "type": "address"
        },
        {
          "internalType": "address",
          "name": "to_",
          "type": "address"
        },
        {
          "internalType": "uint256",
          "name": "tokenId_",
          "type": "uint256"
        },
        {
          "internalType": "bytes",
          "name": "data_",
          "type": "bytes"
        }
      ],
      "name": "safeTransferFrom",
      "outputs": [],
      "stateMutability": "payable",
      "type": "function"
    },
    {
      "inputs": [
        {
          "internalType": "address",
          "name": "operator_",
          "type": "address"
        },
        {
          "internalType": "bool",
          "name": "approved_",
          "type": "bool"
        }
      ],
      "name": "setApprovalForAll",
      "outputs": [],
      "stateMutability": "nonpayable",
      "type": "function"
    },
    {
      "inputs": [
        {
          "internalType": "uint256",
          "name": "tokenId",
          "type": "uint256"
        },
        {
          "internalType": "uint256",
          "name": "mask",
          "type": "uint256"
        }
      ],
      "name": "setBitmask",
      "outputs": [],
      "stateMutability": "nonpayable",
      "type": "function"
    },
    {
      "inputs": [
        {
          "internalType": "uint256",
          "name": "tokenId",
          "type": "uint256"
        },
        {
          "internalType": "uint256",
          "name": "timestamp",
          "type": "uint256"
        },
        {
          "components": [
            {
              "internalType": "uint256",
              "name": "value",
              "type": "uint256"
            },
            {
              "internalType": "enum ChargeType",
              "name": "chargeType",
              "type": "uint8"
            },
            {
              "internalType": "address",
              "name": "token",
              "type": "address"
            },
            {
              "internalType": "address",
              "name": "recipient",
              "type": "address"
            }
          ],
          "internalType": "struct Charge",
          "name": "",
          "type": "tuple"
        }
      ],
      "name": "setExpiration",
      "outputs": [],
      "stateMutability": "nonpayable",
      "type": "function"
    },
    {
      "inputs": [
        {
          "internalType": "address",
          "name": "_metadataDescriptor",
          "type": "address"
        }
      ],
      "name": "setMetadataDescriptor",
      "outputs": [],
      "stateMutability": "nonpayable",
      "type": "function"
    },
    {
      "inputs": [
        {
          "internalType": "address",
          "name": "account",
          "type": "address"
        }
      ],
      "name": "setSuperAdmin",
      "outputs": [],
      "stateMutability": "nonpayable",
      "type": "function"
    },
    {
      "inputs": [
        {
          "internalType": "uint256",
          "name": "tokenId_",
          "type": "uint256"
        }
      ],
      "name": "slotOf",
      "outputs": [
        {
          "internalType": "uint256",
          "name": "",
          "type": "uint256"
        }
      ],
      "stateMutability": "view",
      "type": "function"
    },
    {
      "inputs": [
        {
          "internalType": "uint256",
          "name": "slot_",
          "type": "uint256"
        }
      ],
      "name": "slotURI",
      "outputs": [
        {
          "internalType": "string",
          "name": "",
          "type": "string"
        }
      ],
      "stateMutability": "view",
      "type": "function"
    },
    {
      "inputs": [
        {
          "internalType": "bytes4",
          "name": "interfaceId",
          "type": "bytes4"
        }
      ],
      "name": "supportsInterface",
      "outputs": [
        {
          "internalType": "bool",
          "name": "",
          "type": "bool"
        }
      ],
      "stateMutability": "view",
      "type": "function"
    },
    {
      "inputs": [],
      "name": "symbol",
      "outputs": [
        {
          "internalType": "string",
          "name": "",
          "type": "string"
        }
      ],
      "stateMutability": "view",
      "type": "function"
    },
    {
      "inputs": [
        {
          "internalType": "uint256",
          "name": "index_",
          "type": "uint256"
        }
      ],
      "name": "tokenByIndex",
      "outputs": [
        {
          "internalType": "uint256",
          "name": "",
          "type": "uint256"
        }
      ],
      "stateMutability": "view",
      "type": "function"
    },
    {
      "inputs": [
        {
          "internalType": "address",
          "name": "owner_",
          "type": "address"
        },
        {
          "internalType": "uint256",
          "name": "index_",
          "type": "uint256"
        }
      ],
      "name": "tokenOfOwnerByIndex",
      "outputs": [
        {
          "internalType": "uint256",
          "name": "",
          "type": "uint256"
        }
      ],
      "stateMutability": "view",
      "type": "function"
    },
    {
      "inputs": [
        {
          "internalType": "uint256",
          "name": "tokenId_",
          "type": "uint256"
        }
      ],
      "name": "tokenURI",
      "outputs": [
        {
          "internalType": "string",
          "name": "",
          "type": "string"
        }
      ],
      "stateMutability": "view",
      "type": "function"
    },
    {
      "inputs": [],
      "name": "totalSupply",
      "outputs": [
        {
          "internalType": "uint256",
          "name": "",
          "type": "uint256"
        }
      ],
      "stateMutability": "view",
      "type": "function"
    },
    {
      "inputs": [
        {
          "internalType": "address",
          "name": "previousManager",
          "type": "address"
        },
        {
          "internalType": "address",
          "name": "newManager",
          "type": "address"
        },
        {
          "internalType": "uint256",
          "name": "network",
          "type": "uint256"
        }
      ],
      "name": "transferDAOManager",
      "outputs": [],
      "stateMutability": "nonpayable",
      "type": "function"
    },
    {
      "inputs": [
        {
          "internalType": "uint256",
          "name": "fromTokenId_",
          "type": "uint256"
        },
        {
          "internalType": "address",
          "name": "to_",
          "type": "address"
        },
        {
          "internalType": "uint256",
          "name": "value_",
          "type": "uint256"
        }
      ],
      "name": "transferFrom",
      "outputs": [
        {
          "internalType": "uint256",
          "name": "",
          "type": "uint256"
        }
      ],
      "stateMutability": "payable",
      "type": "function"
    },
    {
      "inputs": [
        {
          "internalType": "address",
          "name": "from_",
          "type": "address"
        },
        {
          "internalType": "address",
          "name": "to_",
          "type": "address"
        },
        {
          "internalType": "uint256",
          "name": "tokenId_",
          "type": "uint256"
        }
      ],
      "name": "transferFrom",
      "outputs": [],
      "stateMutability": "payable",
      "type": "function"
    },
    {
      "inputs": [
        {
          "internalType": "uint256",
          "name": "fromTokenId_",
          "type": "uint256"
        },
        {
          "internalType": "uint256",
          "name": "toTokenId_",
          "type": "uint256"
        },
        {
          "internalType": "uint256",
          "name": "value_",
          "type": "uint256"
        }
      ],
      "name": "transferFrom",
      "outputs": [],
      "stateMutability": "payable",
      "type": "function"
    },
    {
      "inputs": [],
      "name": "transfersRestricted",
      "outputs": [
        {
          "internalType": "bool",
          "name": "",
          "type": "bool"
        }
      ],
      "stateMutability": "view",
      "type": "function"
    },
    {
      "inputs": [
        {
          "internalType": "uint256",
          "name": "tokenId",
          "type": "uint256"
        }
      ],
      "name": "unfreeze",
      "outputs": [],
      "stateMutability": "nonpayable",
      "type": "function"
    },
    {
      "inputs": [
        {
          "internalType": "address",
          "name": "flagsStorage",
          "type": "address"
        }
      ],
      "name": "updateFlagsStorage",
      "outputs": [],
      "stateMutability": "nonpayable",
      "type": "function"
    },
    {
      "inputs": [
        {
          "internalType": "address",
          "name": "newImplementation",
          "type": "address"
        }
      ],
      "name": "upgradeTo",
      "outputs": [],
      "stateMutability": "nonpayable",
      "type": "function"
    },
    {
      "inputs": [
        {
          "internalType": "address",
          "name": "newImplementation",
          "type": "address"
        },
        {
          "internalType": "bytes",
          "name": "data",
          "type": "bytes"
        }
      ],
      "name": "upgradeToAndCall",
      "outputs": [],
      "stateMutability": "payable",
      "type": "function"
    },
    {
      "inputs": [],
      "name": "valueDecimals",
      "outputs": [
        {
          "internalType": "uint8",
          "name": "",
          "type": "uint8"
        }
      ],
      "stateMutability": "view",
      "type": "function"
    },
    {
      "inputs": [
        {
          "internalType": "address",
          "name": "owner",
          "type": "address"
        },
        {
          "internalType": "uint256",
          "name": "network",
          "type": "uint256"
        }
      ],
      "name": "verifyToken",
      "outputs": [
        {
          "internalType": "bool",
          "name": "",
          "type": "bool"
        }
      ],
      "stateMutability": "view",
      "type": "function"
    },
    {
      "inputs": [
        {
          "internalType": "uint256",
          "name": "tokenId",
          "type": "uint256"
        }
      ],
      "name": "verifyToken",
      "outputs": [
        {
          "internalType": "bool",
          "name": "",
          "type": "bool"
        }
      ],
      "stateMutability": "view",
      "type": "function"
    },
    {
      "inputs": [
        {
          "internalType": "uint256",
          "name": "amount",
          "type": "uint256"
        }
      ],
      "name": "withdraw",
      "outputs": [
        {
          "internalType": "bool",
          "name": "",
          "type": "bool"
        }
      ],
      "stateMutability": "nonpayable",
      "type": "function"
    }
  ],
  "transactionHash": "0x14c88b4979d682445ac72000e63fbe06ca20b2e4078260a7e61925b3adf0dc7c",
  "args": [],
  "numDeployments": 1,
  "solcInputHash": "76e92113c52a8abfd33c658208b56f30",
  "bytecode": "0x60a0604052306080523480156200001557600080fd5b50600054610100900460ff1615808015620000375750600054600160ff909116105b8062000067575062000054306200022060201b6200264f1760201c565b15801562000067575060005460ff166001145b620000bf5760405162461bcd60e51b815260206004820152602e602482015260008051602062005e4e83398151915260448201526d191e481a5b9a5d1a585b1a5e995960921b60648201526084015b60405180910390fd5b6000805460ff191660011790558015620000e3576000805461ff0019166101001790555b801562000119576000805461ff00191690556040516001815260008051602062005e6e8339815191529060200160405180910390a15b50600054610100900460ff16158080156200013b5750600054600160ff909116105b806200016b575062000158306200022060201b6200264f1760201c565b1580156200016b575060005460ff166001145b620001bf5760405162461bcd60e51b815260206004820152602e602482015260008051602062005e4e83398151915260448201526d191e481a5b9a5d1a585b1a5e995960921b6064820152608401620000b6565b6000805460ff191660011790558015620001e3576000805461ff0019166101001790555b801562000219576000805461ff00191690556040516001815260008051602062005e6e8339815191529060200160405180910390a15b506200022f565b6001600160a01b03163b151590565b608051615be7620002676000396000818161152601528181611566015281816116d40152818161171401526118660152615be76000f3fe6080604052600436106103ec5760003560e01c806370f0816011610214578063b5d616351161011e578063df7f453b116100b6578063e8a3d4851161007a578063e8a3d48514610cb8578063e985e9c514610ccd578063f77c479114610d1a578063ff17e23214610d3a578063ff85a97514610d5a57600080fd5b8063df7f453b14610bee578063e0ed6a3114610c27578063e345e0bc14610c47578063e4b50cb814610c67578063e71fb11014610c9857600080fd5b8063b5d6163514610ad9578063b88d4fde14610af9578063babb898d14610b0c578063c2a366fb14610b2c578063c58dbbed14610b4c578063c87b56dd14610b6c578063d6fd317514610b8c578063d7a78db814610bae578063df2a7fe114610bce57600080fd5b806395d89b41116101ac578063a217fddf11610170578063a217fddf14610a34578063a22cb46514610a49578063a578c09314610a69578063a8fa8e0d14610a99578063b4bd857914610ab957600080fd5b806395d89b411461099f57806395ea5717146109b45780639c7525e6146109d45780639cc7f708146109f4578063a05b775f14610a1457600080fd5b806370f08160146108965780637dbded28146108b657806381e9ff19146108d657806382d66d5f146108f8578063840f7113146109185780638423df79146109385780638cb0a5111461094c5780638eb7a7761461095f57806390eddd521461097f57600080fd5b80633568dd291161031557806351da912d116102ad5780636352211e116102715780636352211e146107f45780636623fc46146108145780636dba2729146108345780636f7caf411461085457806370a082311461087657600080fd5b806351da912d1461074657806352d1902d14610766578063572b6c051461077b5780635c41d2fe146107b45780635e79b726146107d457600080fd5b80633568dd291461063e5780633659cfe61461065e57806336e450411461067e5780633e7e86691461069e57806342842e0e146106c057806342966c68146106d35780634d93172d146106f35780634f1ef286146107135780634f6ccce71461072657600080fd5b806320c5429b1161038857806320c5429b1461053857806323b872dd14610558578063263f3e7e1461056b5780632d33d27a1461058b5780632e1a7d4d146105ab5780632f745c59146105cb578063310ed7f0146105eb57806331416a29146105fe57806334e37b8a1461061e57600080fd5b806301ffc9a7146103f157806306fdde0314610426578063081812fc14610448578063095ea7b31461048057806309c3dd87146104955780630f485c02146104b55780631442f521146104d6578063157000521461050357806318160ddd14610523575b600080fd5b3480156103fd57600080fd5b5061041161040c366004614dfc565b610d7a565b60405190151581526020015b60405180910390f35b34801561043257600080fd5b5061043b610ddb565b60405161041d9190614e71565b34801561045457600080fd5b50610468610463366004614e84565b610e6d565b6040516001600160a01b03909116815260200161041d565b61049361048e366004614eb4565b610ebf565b005b3480156104a157600080fd5b5061043b6104b0366004614e84565b610f60565b6104c86104c3366004614ede565b611061565b60405190815260200161041d565b3480156104e257600080fd5b506104f66104f1366004614eb4565b6110aa565b60405161041d9190614f13565b34801561050f57600080fd5b5061049361051e366004614f57565b611161565b34801561052f57600080fd5b50609d546104c8565b34801561054457600080fd5b50610493610553366004614e84565b6111c1565b610493610566366004614f72565b611215565b34801561057757600080fd5b506104c8610586366004614e84565b61124d565b34801561059757600080fd5b5060cc54610468906001600160a01b031681565b3480156105b757600080fd5b506104116105c6366004614e84565b611295565b3480156105d757600080fd5b506104c86105e6366004614eb4565b61132f565b6104936105f9366004614f9e565b6113d0565b34801561060a57600080fd5b5061049361061936600461508d565b6113ed565b34801561062a57600080fd5b50610493610639366004614f57565b6114ea565b34801561064a57600080fd5b50610493610659366004614eb4565b6114fe565b34801561066a57600080fd5b50610493610679366004614f57565b61151b565b34801561068a57600080fd5b506104936106993660046151a2565b6115e1565b3480156106aa57600080fd5b50609a5460405160ff909116815260200161041d565b6104936106ce366004614f72565b61166c565b3480156106df57600080fd5b506104936106ee366004614e84565b611687565b3480156106ff57600080fd5b5061049361070e366004614f57565b61169c565b6104936107213660046151d7565b6116c9565b34801561073257600080fd5b506104c8610741366004614e84565b61177f565b34801561075257600080fd5b50610493610761366004615224565b611810565b34801561077257600080fd5b506104c8611859565b34801561078757600080fd5b50610411610796366004614f57565b6001600160a01b031660009081526097602052604090205460ff1690565b3480156107c057600080fd5b506104936107cf366004614f57565b611907565b3480156107e057600080fd5b506104936107ef36600461525e565b611937565b34801561080057600080fd5b5061046861080f366004614e84565b61194d565b34801561082057600080fd5b5061049361082f366004614e84565b6119b8565b34801561084057600080fd5b5061041161084f366004614eb4565b6119cd565b34801561086057600080fd5b506104c8600080516020615b2b83398151915281565b34801561088257600080fd5b506104c8610891366004614f57565b6119e8565b3480156108a257600080fd5b506104936108b1366004614eb4565b611a70565b3480156108c257600080fd5b506104936108d1366004615299565b611a89565b3480156108e257600080fd5b506104c8600080516020615aab83398151915281565b34801561090457600080fd5b50610493610913366004614eb4565b611c6d565b34801561092457600080fd5b5060a054610468906001600160a01b031681565b34801561094457600080fd5b506001610411565b61049361095a366004614ede565b611c86565b34801561096b57600080fd5b5061049361097a3660046151a2565b611d1a565b34801561098b57600080fd5b5061049361099a366004614eb4565b611d41565b3480156109ab57600080fd5b5061043b611d5a565b3480156109c057600080fd5b5061043b6109cf366004614e84565b611d69565b3480156109e057600080fd5b506104936109ef366004615302565b611e0b565b348015610a0057600080fd5b506104c8610a0f366004614e84565b611ee4565b348015610a2057600080fd5b506104c8610a2f366004614e84565b611f2c565b348015610a4057600080fd5b506104c8600081565b348015610a5557600080fd5b50610493610a64366004615332565b611f96565b348015610a7557600080fd5b50610411610a84366004614e84565b60cf6020526000908152604090205460ff1681565b348015610aa557600080fd5b50610493610ab4366004614f72565b611fa8565b348015610ac557600080fd5b506104c8610ad4366004614e84565b6121de565b348015610ae557600080fd5b50610493610af43660046151a2565b6121f2565b610493610b07366004615369565b612212565b348015610b1857600080fd5b50610411610b273660046151a2565b612245565b348015610b3857600080fd5b50610411610b47366004614eb4565b612276565b348015610b5857600080fd5b50610493610b67366004614f57565b612291565b348015610b7857600080fd5b5061043b610b87366004614e84565b6122ee565b348015610b9857600080fd5b506104c8600080516020615acb83398151915281565b348015610bba57600080fd5b50610493610bc9366004614e84565b61238d565b348015610bda57600080fd5b506104c8610be9366004615224565b6123a2565b348015610bfa57600080fd5b50610411610c09366004614f57565b6001600160a01b0316600090815260cb602052604090205460ff1690565b348015610c3357600080fd5b50610493610c423660046153d0565b6123c1565b348015610c5357600080fd5b506104c8610c62366004615422565b612402565b348015610c7357600080fd5b50610c87610c82366004614e84565b612436565b60405161041d95949392919061544e565b348015610ca457600080fd5b50610493610cb3366004614f57565b612496565b348015610cc457600080fd5b5061043b6124a7565b348015610cd957600080fd5b50610411610ce836600461548f565b6001600160a01b039182166000908152609f602090815260408083209390941682526002909201909152205460ff1690565b348015610d2657600080fd5b5060ce54610468906001600160a01b031681565b348015610d4657600080fd5b50610411610d55366004614eb4565b6125b0565b348015610d6657600080fd5b50610411610d75366004614e84565b612642565b60006001600160e01b03198216630354d60560e61b1480610dab57506001600160e01b031982166380ac58cd60e01b145b80610dc657506001600160e01b031982166370b0048160e11b145b80610dd55750610dd58261265e565b92915050565b606060988054610dea906154b9565b80601f0160208091040260200160405190810160405280929190818152602001828054610e16906154b9565b8015610e635780601f10610e3857610100808354040283529160200191610e63565b820191906000526020600020905b815481529060010190602001808311610e4657829003601f168201915b5050505050905090565b6000610e7882612693565b6000828152609e6020526040902054609d80549091908110610e9c57610e9c6154ee565b60009182526020909120600460069092020101546001600160a01b031692915050565b6000610eca8261194d565b9050806001600160a01b0316836001600160a01b03161415610f075760405162461bcd60e51b8152600401610efe90615504565b60405180910390fd5b806001600160a01b0316610f196126b8565b6001600160a01b03161480610f355750610f3581610ce86126b8565b610f515760405162461bcd60e51b8152600401610efe90615546565b610f5b83836126c7565b505050565b60606000610f7960408051602081019091526000815290565b60a0549091506001600160a01b0316610fd9576000815111610faa576040518060200160405280600081525061105a565b80610fb48461275e565b604051602001610fc592919061559f565b60405160208183030381529060405261105a565b60a054604051633601bfc560e11b8152600481018590526001600160a01b0390911690636c037f8a906024015b60006040518083038186803b15801561101e57600080fd5b505afa158015611032573d6000803e3d6000fd5b505050506040513d6000823e601f3d908101601f1916820160405261105a91908101906155df565b9392505050565b600061107561106e6126b8565b85846127fa565b600061108085612875565b905061109784826110908861124d565b600061287f565b6110a28582856129a1565b949350505050565b60606000806110b98585612c3a565b915091506000816001600160401b038111156110d7576110d7614fca565b604051908082528060200260200182016040528015611100578160200160208202803683370190505b50905060005b8281101561115757838181518110611120576111206154ee565b602002602001015182828151811061113a5761113a6154ee565b60209081029190910101528061114f81615662565b915050611106565b5095945050505050565b611169612d00565b6040516001600160a01b038216907f286f82d2b1e37b5e9f33e455d014b4a5f6c29388e6e41e1281d4c83e04f4265590600090a26001600160a01b0316600090815260cb60205260409020805460ff19166001179055565b6111d26111cd8261124d565b612d4b565b600081815260d06020526040808220805460ff191660021790555182917fdb43aa42235c8d63908794a952603e8d43a549383d13123c3d893a3fc2e6249591a250565b6112266112206126b8565b50600090565b6112425760405162461bcd60e51b8152600401610efe90615693565b610f5b838383612d82565b600061125882612693565b6000828152609e6020526040902054609d8054909190811061127c5761127c6154ee565b9060005260206000209060060201600101549050919050565b600061129f612d00565b478211156112e45760405162461bcd60e51b8152602060048201526012602482015271494e53554646494349454e542046554e445360701b6044820152606401610efe565b6112ec6126b8565b6001600160a01b03166108fc839081150290604051600060405180830381858888f19350505050158015611324573d6000803e3d6000fd5b50600190505b919050565b600061133a836119e8565b82106113935760405162461bcd60e51b815260206004820152602260248201527f455243333532353a206f776e657220696e646578206f7574206f6620626f756e604482015261647360f01b6064820152608401610efe565b6001600160a01b0383166000908152609f602052604090208054839081106113bd576113bd6154ee565b9060005260206000200154905092915050565b6113e26113db6126b8565b84836127fa565b610f5b8383836129a1565b600054610100900460ff161580801561140d5750600054600160ff909116105b8061142e575061141c3061264f565b15801561142e575060005460ff166001145b61144a5760405162461bcd60e51b8152600401610efe906156e5565b6000805460ff19166001179055801561146d576000805461ff0019166101001790555b61147986866000612ed1565b61148282612f03565b61148b83612fcc565b6001600160a01b038416600090815260cb60205260409020805460ff1916600117905580156114e2576000805461ff001916905560405160018152600080516020615b4b8339815191529060200160405180910390a15b505050505050565b6114f2612d00565b6114fb81612fcc565b50565b611517600080516020615acb8339815191528284611d1a565b5050565b306001600160a01b037f00000000000000000000000000000000000000000000000000000000000000001614156115645760405162461bcd60e51b8152600401610efe90615733565b7f00000000000000000000000000000000000000000000000000000000000000006001600160a01b0316611596613016565b6001600160a01b0316146115bc5760405162461bcd60e51b8152600401610efe9061577f565b6115c581613032565b604080516000808252602082019092526114fb9183919061303a565b6115e96126b8565b6001600160a01b0316816001600160a01b0316146116615760405162461bcd60e51b815260206004820152602f60248201527f416363657373436f6e74726f6c3a2063616e206f6e6c792072656e6f756e636560448201526e103937b632b9903337b91039b2b63360891b6064820152608401610efe565b610f5b8383836131b4565b610f5b83838360405180602001604052806000815250612212565b6116936111cd8261124d565b6114fb81613250565b6116a4612d00565b6114fb816001600160a01b03166000908152609760205260409020805460ff19169055565b306001600160a01b037f00000000000000000000000000000000000000000000000000000000000000001614156117125760405162461bcd60e51b8152600401610efe90615733565b7f00000000000000000000000000000000000000000000000000000000000000006001600160a01b0316611744613016565b6001600160a01b03161461176a5760405162461bcd60e51b8152600401610efe9061577f565b61177382613032565b6115178282600161303a565b600061178a609d5490565b82106117e45760405162461bcd60e51b815260206004820152602360248201527f455243333532353a20676c6f62616c20696e646578206f7574206f6620626f756044820152626e647360e81b6064820152608401610efe565b609d82815481106117f7576117f76154ee565b9060005260206000209060060201600001549050919050565b611833600080516020615acb83398151915261182b8461124d565b610b276126b8565b61184f5760405162461bcd60e51b8152600401610efe906157cb565b611517828261334d565b6000306001600160a01b037f000000000000000000000000000000000000000000000000000000000000000016146118f45760405162461bcd60e51b815260206004820152603860248201527f555550535570677261646561626c653a206d757374206e6f742062652063616c6044820152771b1959081d1a1c9bdd59da0819195b1959d85d1958d85b1b60421b6064820152608401610efe565b50600080516020615b0b83398151915290565b61190f612d00565b6114fb816001600160a01b03166000908152609760205260409020805460ff19166001179055565b6119436111cd8461124d565b610f5b8383613395565b600061195882612693565b6000828152609e6020526040902054609d8054909190811061197c5761197c6154ee565b60009182526020909120600360069092020101546001600160a01b031690508061132a5760405162461bcd60e51b8152600401610efe906157f7565b6119c46111cd8261124d565b6114fb81613449565b600061105a600080516020615acb8339815191528385612245565b60006001600160a01b038216611a545760405162461bcd60e51b815260206004820152602b60248201527f455243333532353a2062616c616e636520717565727920666f7220746865207a60448201526a65726f206164647265737360a81b6064820152608401610efe565b506001600160a01b03166000908152609f602052604090205490565b611517600080516020615acb83398151915282846121f2565b600084815260d2602052604090208054611aa2906154b9565b159050611aea5760405162461bcd60e51b81526020600482015260166024820152754e4554574f524b20414c52454144592045584953545360501b6044820152606401610efe565b600084815260d2602090815260409091208451611b0992860190614cde565b50611b2a600080516020615b2b83398151915285611b256126b8565b61353a565b8115611c1957600084815260cf60205260409020805460ff19168315151790556001600160a01b038116611b945760405162461bcd60e51b8152602060048201526011602482015270494e434f5252454354204144445245535360781b6044820152606401610efe565b611bad600080516020615aab833981519152858361353a565b611bc6600080516020615b2b833981519152858361353a565b611bed600080516020615b2b83398151915285600080516020615aab833981519152613545565b611c14600080516020615acb83398151915285600080516020615aab833981519152613545565b611c67565b611c40600080516020615b2b83398151915285600080516020615b2b833981519152613545565b611c67600080516020615acb83398151915285600080516020615b2b833981519152613545565b50505050565b611517600080516020615b2b8339815191528284611d1a565b6000611c918461194d565b9050806001600160a01b0316836001600160a01b03161415611cc55760405162461bcd60e51b8152600401610efe90615504565b806001600160a01b0316611cd76126b8565b6001600160a01b03161480611cf35750611cf381610ce86126b8565b611d0f5760405162461bcd60e51b8152600401610efe90615546565b611c678484846135b0565b611d2483836123a2565b82611d2f82826136e8565b611d3a8585856131b4565b5050505050565b611517600080516020615b2b83398151915282846121f2565b606060998054610dea906154b9565b600081815260d260205260409020805460609190611d86906154b9565b80601f0160208091040260200160405190810160405280929190818152602001828054611db2906154b9565b8015611dff5780601f10611dd457610100808354040283529160200191611dff565b820191906000526020600020905b815481529060010190602001808311611de257829003601f168201915b50505050509050919050565b600082815260d2602052604090208054611e24906154b9565b15159050611e6d5760405162461bcd60e51b815260206004820152601660248201527513915515d3d492c81113d154c81393d50811561254d560521b6044820152606401610efe565b611e88600080516020615b2b83398151915283610b276126b8565b611ec55760405162461bcd60e51b815260206004820152600e60248201526d1393d5081055551213d49256915160921b6044820152606401610efe565b600082815260d2602090815260409091208251610f5b92840190614cde565b6000611eef82612693565b6000828152609e6020526040902054609d80549091908110611f1357611f136154ee565b9060005260206000209060060201600201549050919050565b6000611f37826136fa565b611f835760405162461bcd60e51b815260206004820152601d60248201527f544f4b454e20444f45534e2754204558495354204f522046524f5a454e0000006044820152606401610efe565b50600090815260d1602052604090205490565b611517611fa16126b8565b8383613746565b600081815260cf602052604090205460ff16611ff95760405162461bcd60e51b815260206004820152601060248201526f1393d508111053c811d3d5915493915160821b6044820152606401610efe565b612012600080516020615aab8339815191528285612245565b6120565760405162461bcd60e51b815260206004820152601560248201527424a721a7a92922a1aa1027a6221026a0a720a3a2a960591b6044820152606401610efe565b612071600080516020615aab83398151915282610b276126b8565b6120b35760405162461bcd60e51b815260206004820152601360248201527226aaa9aa102122902220a79026a0a720a3a2a960691b6044820152606401610efe565b6001600160a01b0382166120f85760405162461bcd60e51b815260206004820152600c60248201526b5a45524f204144445245535360a01b6044820152606401610efe565b612111600080516020615aab83398151915282846121f2565b61212a600080516020615b2b83398151915282846121f2565b612143600080516020615acb83398151915282846121f2565b61215c600080516020615acb8339815191528285611d1a565b612175600080516020615b2b8339815191528285611d1a565b61218e600080516020615aab8339815191528285611d1a565b604080516001600160a01b038086168252841660208201529081018290527f744258a28673e8738e2812c0ab8e8dbd70352f8871b1febac0dd753d96d79f589060600160405180910390a1505050565b600081815260cd6020526040812054610dd5565b6121fc83836123a2565b8261220782826136e8565b611d3a858585613811565b61221d6112206126b8565b6122395760405162461bcd60e51b8152600401610efe90615693565b611c67848484846138a2565b600091825260ca602090815260408084209484529381528383206001600160a01b0392909216835252205460ff1690565b600061105a600080516020615b2b8339815191528385612245565b612299612d00565b6040516001600160a01b038216907ffb445f6ec07647d2bb7af72821e6b8b7303ec375e934d4a338d38ed5846c2d5690600090a26001600160a01b0316600090815260cb60205260409020805460ff19169055565b60606122f982612693565b600061231060408051602081019091526000815290565b60a0549091506001600160a01b031661235c576000815111612341576040518060200160405280600081525061105a565b8061234b8461275e565b604051602001610fc592919061582a565b60a0546040516344a5a61760e11b8152600481018590526001600160a01b039091169063894b4c2e90602401611006565b6123996111cd8261124d565b6114fb81613915565b600090815260ca60209081526040808320938352929052206001015490565b6123ca84612d4b565b60006123d8868660016139b9565b905083156123f257600081815260d1602052604090208490555b82156114e2576114e2818461334d565b600061240d83612693565b506000918252609c602090815260408084206001600160a01b0393909316845291905290205490565b60008060606000806124478661194d565b600087815260d0602052604090205490955060ff16600281111561246d5761246d61567d565b600096875260d1602090815260408089205460cd90925290972054959790969395939450915050565b61249e612d00565b6114fb816139d2565b606060006124c060408051602081019091526000815290565b60a0549091506001600160a01b03166125205760008151116124f157604051806020016040528060008152506125aa565b806124fb30613a1c565b60405160200161250c929190615859565b6040516020818303038152906040526125aa565b60a060009054906101000a90046001600160a01b03166001600160a01b031663725fa09c6040518163ffffffff1660e01b815260040160006040518083038186803b15801561256e57600080fd5b505afa158015612582573d6000803e3d6000fd5b505050506040513d6000823e601f3d908101601f191682016040526125aa91908101906155df565b91505090565b60008060006125bf8585612c3a565b9150915060005b81811015612636578281815181106125e0576125e06154ee565b602002602001015160001461262457612613838281518110612604576126046154ee565b60200260200101516000613a32565b156126245760019350505050610dd5565b8061262e81615662565b9150506125c6565b50600095945050505050565b6000610dd5826000613a32565b6001600160a01b03163b151590565b60006001600160e01b031982166333cb74f560e11b1480610dd557506301ffc9a760e01b6001600160e01b0319831614610dd5565b61269c816136fa565b6114fb5760405162461bcd60e51b8152600401610efe906157f7565b60006126c2613ad7565b905090565b6000818152609e6020526040902054609d805484929081106126eb576126eb6154ee565b6000918252602090912060069091020160040180546001600160a01b0319166001600160a01b03928316179055819083166127258261194d565b6001600160a01b03167f8c5be1e5ebec7d5bd14f71427d1e84f3dd0314c0f7b2291e5b200ac8c7c3b92560405160405180910390a45050565b6060600061276b83613b01565b60010190506000816001600160401b0381111561278a5761278a614fca565b6040519080825280601f01601f1916602001820160405280156127b4576020820181803683370190505b5090508181016020015b600019016f181899199a1a9b1b9c1cb0b131b232b360811b600a86061a8153600a85049450846127ed576127f2565b6127be565b509392505050565b60006128068385612402565b90506000198114611c6757818110156128615760405162461bcd60e51b815260206004820152601f60248201527f455243333532353a20696e73756666696369656e7420616c6c6f77616e6365006044820152606401610efe565b611c678385612870858561589d565b6135b0565b6000610dd5613bd9565b6001600160a01b0384166128df5760405162461bcd60e51b815260206004820152602160248201527f455243333532353a206d696e7420746f20746865207a65726f206164647265736044820152607360f81b6064820152608401610efe565b826129365760405162461bcd60e51b815260206004820152602160248201527f455243333532353a2063616e6e6f74206d696e74207a65726f20746f6b656e496044820152601960fa1b6064820152608401610efe565b61293f836136fa565b1561298c5760405162461bcd60e51b815260206004820152601d60248201527f455243333532353a20746f6b656e20616c7265616479206d696e7465640000006044820152606401610efe565b612997848484613bf0565b611c148382613ca4565b6129aa836136fa565b612a065760405162461bcd60e51b815260206004820152602760248201527f455243333532353a207472616e736665722066726f6d20696e76616c696420746044820152661bdad95b88125160ca1b6064820152608401610efe565b612a0f826136fa565b612a695760405162461bcd60e51b815260206004820152602560248201527f455243333532353a207472616e7366657220746f20696e76616c696420746f6b604482015264195b88125160da1b6064820152608401610efe565b6000838152609e6020526040812054609d80549091908110612a8d57612a8d6154ee565b906000526020600020906006020190506000609d609e60008681526020019081526020016000205481548110612ac557612ac56154ee565b906000526020600020906006020190508282600201541015612b3c5760405162461bcd60e51b815260206004820152602a60248201527f455243333532353a20696e73756666696369656e742062616c616e636520666f60448201526939103a3930b739b332b960b11b6064820152608401610efe565b8060010154826001015414612baa5760405162461bcd60e51b815260206004820152602e60248201527f455243333532353a207472616e7366657220746f20746f6b656e20776974682060448201526d191a5999995c995b9d081cdb1bdd60921b6064820152608401610efe565b82826002016000828254612bbe919061589d565b9250508190555082816002016000828254612bd991906158b4565b909155505060405183815284908690600080516020615aeb8339815191529060200160405180910390a3612c1e85858560405180602001604052806000815250613d17565b611d3a5760405162461bcd60e51b8152600401610efe906158cc565b6060600080612c48856119e8565b6001600160401b03811115612c5f57612c5f614fca565b604051908082528060200260200182016040528015612c88578160200160208202803683370190505b5090506000805b8251811015612cf4576000612ca4888361132f565b905086612cb08261124d565b1415612ce157808484612cc281615662565b955081518110612cd457612cd46154ee565b6020026020010181815250505b5080612cec81615662565b915050612c8f565b50909590945092505050565b612d0b610c096126b8565b612d495760405162461bcd60e51b815260206004820152600f60248201526e2727aa1029aaa822a91020a226a4a760891b6044820152606401610efe565b565b612d66600080516020615acb83398151915282610b276126b8565b6114fb5760405162461bcd60e51b8152600401610efe906157cb565b826001600160a01b0316612d958261194d565b6001600160a01b031614612df75760405162461bcd60e51b8152602060048201526024808201527f455243333532353a207472616e736665722066726f6d20696e76616c6964206f6044820152633bb732b960e11b6064820152608401610efe565b6001600160a01b038216612e5b5760405162461bcd60e51b815260206004820152602560248201527f455243333532353a207472616e7366657220746f20746865207a65726f206164604482015264647265737360d81b6064820152608401610efe565b6000612e668261124d565b90506000612e7383611ee4565b9050612e806000846126c7565b612e8983613eca565b612e938584613f66565b612e9d8484614087565b82846001600160a01b0316866001600160a01b0316600080516020615b9283398151915260405160405180910390a4611d3a565b600054610100900460ff16612ef85760405162461bcd60e51b8152600401610efe90615914565b610f5b838383614110565b600054610100900460ff1615808015612f235750600054600160ff909116105b80612f445750612f323061264f565b158015612f44575060005460ff166001145b612f605760405162461bcd60e51b8152600401610efe906156e5565b6000805460ff191660011790558015612f83576000805461ff0019166101001790555b612f8b614177565b612f948261419e565b8015611517576000805461ff001916905560405160018152600080516020615b4b833981519152906020015b60405180910390a15050565b60cc80546001600160a01b0319166001600160a01b0383169081179091556040517f5e4a30f4224898dbac86adca855a5edd3b8341a3aeb2b6ff0f0b5a82c013b65a90600090a250565b600080516020615b0b833981519152546001600160a01b031690565b6114fb612d00565b7f4910fdfa16fed3260ed0e7147f7cc6da11a60208b5b9406d12a635614ffd91435460ff161561306d57610f5b836142b7565b826001600160a01b03166352d1902d6040518163ffffffff1660e01b815260040160206040518083038186803b1580156130a657600080fd5b505afa9250505080156130d6575060408051601f3d908101601f191682019092526130d39181019061595f565b60015b6131395760405162461bcd60e51b815260206004820152602e60248201527f45524331393637557067726164653a206e657720696d706c656d656e7461746960448201526d6f6e206973206e6f74205555505360901b6064820152608401610efe565b600080516020615b0b83398151915281146131a85760405162461bcd60e51b815260206004820152602960248201527f45524331393637557067726164653a20756e737570706f727465642070726f786044820152681a58589b195555525160ba1b6064820152608401610efe565b50610f5b838383614351565b6131bf838383612245565b15610f5b57600082815260ca6020908152604080832086845282528083206001600160a01b03851684529091529020805460ff191690556131fe6126b8565b6001600160a01b0316816001600160a01b0316847f6f9148fcdc32766ca802c14716295d56eab7ed848d0dba113966f40087c883908560405161324391815260200190565b60405180910390a4505050565b61325981612693565b6000818152609e6020526040812054609d8054909190811061327d5761327d6154ee565b60009182526020909120600691909102016003810154600182015460028301549293506001600160a01b03909116916132b585613eca565b6132bf8386613f66565b6132c885614376565b600085600080516020615aeb833981519152836040516132ea91815260200190565b60405180910390a3600082867fe4f48c240d3b994948aa54f3e2f5fca59263dfe1d52b6e4cf39a5d249b5ccb6560405160405180910390a460405185906000906001600160a01b03861690600080516020615b92833981519152908390a4611d3a565b600082815260cd602090815260409182902083905581518481529081018390527f5e07998cef9cea674942c66f0ea7b0bce89ab9473ce240cc93d616c3491f8aeb9101612fc0565b6133a0826001613a32565b6133f85760405162461bcd60e51b815260206004820152602360248201527f544f4b454e20444f4553204e4f54204558495354204f5220495320494e41435460448201526249564560e81b6064820152608401610efe565b600082815260d16020526040908190208290555182907f1ebc57da8b3ebab98506502fbb73232ea29fbe86e4963a5a8c004810ad11190d9061343d9084815260200190565b60405180910390a25050565b613452816136fa565b6134955760405162461bcd60e51b81526020600482015260146024820152731513d2d153881113d154c81393d50811561254d560621b6044820152606401610efe565b6001600082815260d0602052604090205460ff1660028111156134ba576134ba61567d565b146134fa5760405162461bcd60e51b815260206004820152601060248201526f2a27a5a2a7102727aa10232927ad22a760811b6044820152606401610efe565b600081815260d06020526040808220805460ff191690555182917fe2babfd5e77285a3c3dbc4b25592cbe4a7a26e97a7ac63067a22ebdaa9b82add91a250565b610f5b838383613811565b600061355184846123a2565b600084815260ca6020908152604080832088845282529182902060010185905590518581529192508391839187917f15f4a36186b2284157fe71215a07487f6c8bdc1203b3307c3e1fd9693011d3d3910160405180910390a450505050565b6001600160a01b0382166136195760405162461bcd60e51b815260206004820152602a60248201527f455243333532353a20617070726f76652076616c756520746f20746865207a65604482015269726f206164647265737360b01b6064820152608401610efe565b6136238284614584565b613689576000838152609e6020526040902054609d8054909190811061364b5761364b6154ee565b60009182526020808320600692909202909101600501805460018101825590835291200180546001600160a01b0319166001600160a01b0384161790555b6000838152609c602090815260408083206001600160a01b038616808552908352928190208490555183815285917f621b050de0ad08b51d19b48b3e6df75348c4de6bdd93e81b252ca62e28265b1b91015b60405180910390a3505050565b61151782826136f56126b8565b614658565b609d5460009015801590610dd557506000828152609e6020526040902054609d8054849290811061372d5761372d6154ee565b9060005260206000209060060201600001541492915050565b816001600160a01b0316836001600160a01b031614156137a85760405162461bcd60e51b815260206004820152601a60248201527f455243333532353a20617070726f766520746f2063616c6c65720000000000006044820152606401610efe565b6001600160a01b038381166000818152609f602090815260408083209487168084526002909501825291829020805460ff191686151590811790915591519182527f17307eab39ab6107e8899845ad3d59bd9653f200f220920489ca2b5937696c3191016136db565b61381c838383612245565b610f5b57600082815260ca6020908152604080832086845282528083206001600160a01b03851684529091529020805460ff1916600117905561385d6126b8565b6001600160a01b0316816001600160a01b0316847f4dc88bd74ca601684356789d5b3dbc9cd44275b2544e8d35041203703b7682328560405161324391815260200190565b6138ad848484612d82565b6138b9848484846146a8565b611c675760405162461bcd60e51b815260206004820152602760248201527f455243333532353a207472616e7366657220746f206e6f6e204552433732315260448201526632b1b2b4bb32b960c91b6064820152608401610efe565b613920816001613a32565b6139765760405162461bcd60e51b815260206004820152602160248201527f544f4b454e20444f45534e2754204558495354204f52204e4f542041435449566044820152604560f81b6064820152608401610efe565b600081815260d06020526040808220805460ff191660011790555182917f779fbee689bbd6f006ecb329206d35c7db7380f9837a8826fb8dc5cfcd3d33dd91a250565b6000806139c4613bd9565b90506110a28582868661287f565b60a080546001600160a01b0319166001600160a01b0383169081179091556040517f5252f52e45fc8ee6a7b43cef3645d23e9a470a34182b8b3a12627556635bfc9c90600090a250565b6060610dd56001600160a01b0383166014614881565b600082815260d0602052604081205460ff1681816002811115613a5757613a5761567d565b14613a66576000915050610dd5565b6000613a718561194d565b600086815260d1602052604090205490915015801590613a8f575083155b15613ac3576001600160a01b03811615801590613aba5750600085815260d160205260409020544211155b92505050610dd5565b6001600160a01b031615159150610dd59050565b3360009081526097602052604081205460ff1615613afc575060131936013560601c90565b503390565b60008072184f03e93ff9f4daa797ed6e38ed64bf6a1f0160401b8310613b405772184f03e93ff9f4daa797ed6e38ed64bf6a1f0160401b830492506040015b6d04ee2d6d415b85acef81000000008310613b6c576d04ee2d6d415b85acef8100000000830492506020015b662386f26fc100008310613b8a57662386f26fc10000830492506010015b6305f5e1008310613ba2576305f5e100830492506008015b6127108310613bb657612710830492506004015b60648310613bc8576064830492506002015b600a8310610dd55760010192915050565b6000613be9609b80546001019055565b50609b5490565b6040805160c081018252838152602080820184905260008284018190526001600160a01b038716606084015260808301819052835181815291820190935260a08201529050613c3e81614a1c565b613c488484614087565b60405183906001600160a01b03861690600090600080516020615b92833981519152908290a4816000847fe4f48c240d3b994948aa54f3e2f5fca59263dfe1d52b6e4cf39a5d249b5ccb6560405160405180910390a450505050565b6000828152609e6020526040902054609d80548392908110613cc857613cc86154ee565b90600052602060002090600602016002016000828254613ce891906158b4565b90915550506040518181528290600090600080516020615aeb8339815191529060200160405180910390a35050565b600080613d238561194d565b9050613d37816001600160a01b031661264f565b8015613dc057506040516301ffc9a760e01b81526001600160a01b038216906301ffc9a790613d7090629ce20b60e01b90600401615978565b60206040518083038186803b158015613d8857600080fd5b505afa158015613d9c573d6000803e3d6000fd5b505050506040513d601f19601f82011682018060405250810190613dc0919061598d565b15613ebe57806001600160a01b0316629ce20b613ddb6126b8565b888888886040518663ffffffff1660e01b8152600401613dff9594939291906159aa565b602060405180830381600087803b158015613e1957600080fd5b505af1925050508015613e49575060408051601f3d908101601f19168201909252613e46918101906159e8565b60015b613ea3573d808015613e77576040519150601f19603f3d011682016040523d82523d6000602084013e613e7c565b606091505b508051613e9b5760405162461bcd60e51b8152600401610efe906158cc565b805181602001fd5b6001600160e01b031916629ce20b60e01b1491506110a29050565b50600195945050505050565b6000818152609e6020526040812054609d80549091908110613eee57613eee6154ee565b600091825260208220600560069092020190810154909250905b81811015611c67576000836005018281548110613f2757613f276154ee565b6000918252602080832090910154878352609c825260408084206001600160a01b03909216845291528120555080613f5e81615662565b915050613f08565b6000818152609e6020526040812054609d80549091908110613f8a57613f8a6154ee565b6000918252602080832060069290920290910160030180546001600160a01b0319166001600160a01b039485161790559184168152609f909152604081208054909190613fd99060019061589d565b90506000826000018281548110613ff257613ff26154ee565b9060005260206000200154905060008360010160008681526020019081526020016000205490508184600001828154811061402f5761402f6154ee565b6000918252602080832090910192909255838152600186019091526040808220839055868252812055835484908061406957614069615a05565b60019003818190600052602060002001600090559055505050505050565b6000818152609e6020526040902054609d805484929081106140ab576140ab6154ee565b6000918252602080832060069290920290910160030180546001600160a01b0319166001600160a01b03948516179055939091168152609f80845260408083208054858552600182810188529285208190559286529082018155825292902090910155565b600054610100900460ff166141375760405162461bcd60e51b8152600401610efe90615914565b825161414a906098906020860190614cde565b50815161415e906099906020850190614cde565b50609a805460ff191660ff929092169190911790555050565b600054610100900460ff16612d495760405162461bcd60e51b8152600401610efe90615914565b600054610100900460ff16158080156141be5750600054600160ff909116105b806141df57506141cd3061264f565b1580156141df575060005460ff166001145b6141fb5760405162461bcd60e51b8152600401610efe906156e5565b6000805460ff19166001179055801561421e576000805461ff0019166101001790555b60005b825181101561428657600160976000858481518110614242576142426154ee565b6020908102919091018101516001600160a01b03168252810191909152604001600020805460ff19169115159190911790558061427e81615662565b915050614221565b508015611517576000805461ff001916905560405160018152600080516020615b4b83398151915290602001612fc0565b6142c08161264f565b6143225760405162461bcd60e51b815260206004820152602d60248201527f455243313936373a206e657720696d706c656d656e746174696f6e206973206e60448201526c1bdd08184818dbdb9d1c9858dd609a1b6064820152608401610efe565b600080516020615b0b83398151915280546001600160a01b0319166001600160a01b0392909216919091179055565b61435a83614b6e565b6000825111806143675750805b15610f5b57611c678383614bae565b609d546000906143889060019061589d565b6000838152609e6020526040812054609d80549394509092849081106143b0576143b06154ee565b60009182526020918290206040805160c08101825260069093029091018054835260018101548385015260028101548383015260038101546001600160a01b03908116606085015260048201541660808401526005810180548351818702810187019094528084529394919360a08601939283018282801561445b57602002820191906000526020600020905b81546001600160a01b0316815260019091019060200180831161443d575b505050505081525050905080609d838154811061447a5761447a6154ee565b600091825260209182902083516006909202019081558282015160018201556040830151600282015560608301516003820180546001600160a01b039283166001600160a01b031991821617909155608085015160048401805491909316911617905560a0830151805191926144f892600585019290910190614d62565b505081516000908152609e602052604080822085905586825281205550609d80548061452657614526615a05565b60008281526020812060066000199093019283020181815560018101829055600281018290556003810180546001600160a01b031990811690915560048201805490911690559061457a6005830182614db7565b5050905550505050565b6000818152609e6020526040812054609d805483929081106145a8576145a86154ee565b6000918252602082206005600690920201015491505b8181101561464d576000848152609e6020526040902054609d80546001600160a01b038816929081106145f3576145f36154ee565b90600052602060002090600602016005018281548110614615576146156154ee565b6000918252602090912001546001600160a01b0316141561463b57600192505050610dd5565b8061464581615662565b9150506145be565b506000949350505050565b614663838383612245565b610f5b576040516b496e76616c696420726f6c6560a01b6020820152602c0160408051601f198184030181529082905262461bcd60e51b8252610efe91600401614e71565b60006146bc846001600160a01b031661264f565b801561474657506040516301ffc9a760e01b81526001600160a01b038516906301ffc9a7906146f690630a85bd0160e11b90600401615978565b60206040518083038186803b15801561470e57600080fd5b505afa158015614722573d6000803e3d6000fd5b505050506040513d601f19601f82011682018060405250810190614746919061598d565b1561487957836001600160a01b031663150b7a026147626126b8565b8786866040518563ffffffff1660e01b81526004016147849493929190615a1b565b602060405180830381600087803b15801561479e57600080fd5b505af19250505080156147ce575060408051601f3d908101601f191682019092526147cb918101906159e8565b60015b61485f573d8080156147fc576040519150601f19603f3d011682016040523d82523d6000602084013e614801565b606091505b508051613e9b5760405162461bcd60e51b815260206004820152602660248201527f4552433732313a207472616e7366657220746f206e6f6e20455243373231526560448201526531b2b4bb32b960d11b6064820152608401610efe565b6001600160e01b031916630a85bd0160e11b1490506110a2565b5060016110a2565b60606000614890836002615a58565b61489b9060026158b4565b6001600160401b038111156148b2576148b2614fca565b6040519080825280601f01601f1916602001820160405280156148dc576020820181803683370190505b509050600360fc1b816000815181106148f7576148f76154ee565b60200101906001600160f81b031916908160001a905350600f60fb1b81600181518110614926576149266154ee565b60200101906001600160f81b031916908160001a905350600061494a846002615a58565b6149559060016158b4565b90505b60018111156149cd576f181899199a1a9b1b9c1cb0b131b232b360811b85600f1660108110614989576149896154ee565b1a60f81b82828151811061499f5761499f6154ee565b60200101906001600160f81b031916908160001a90535060049490941c936149c681615a77565b9050614958565b50831561105a5760405162461bcd60e51b815260206004820181905260248201527f537472696e67733a20686578206c656e67746820696e73756666696369656e746044820152606401610efe565b609d805482516000908152609e6020908152604080832084905560018401855593909152835160069092027fd26e832454299e9fabb89e0e5fffdc046d4e14431bc1bf607ffb2e8a1ddecf7b8101928355818501517fd26e832454299e9fabb89e0e5fffdc046d4e14431bc1bf607ffb2e8a1ddecf7c820155928401517fd26e832454299e9fabb89e0e5fffdc046d4e14431bc1bf607ffb2e8a1ddecf7d84015560608401517fd26e832454299e9fabb89e0e5fffdc046d4e14431bc1bf607ffb2e8a1ddecf7e840180546001600160a01b039283166001600160a01b03199182161790915560808601517fd26e832454299e9fabb89e0e5fffdc046d4e14431bc1bf607ffb2e8a1ddecf7f8601805491909316911617905560a084015180518594611c67937fd26e832454299e9fabb89e0e5fffdc046d4e14431bc1bf607ffb2e8a1ddecf80909101920190614d62565b614b77816142b7565b6040516001600160a01b038216907fbc7cd75a20ee27fd9adebab32041f755214dbc6bffa90cc0225b39da2e5c2d3b90600090a250565b6060614bb98361264f565b614c145760405162461bcd60e51b815260206004820152602660248201527f416464726573733a2064656c65676174652063616c6c20746f206e6f6e2d636f6044820152651b9d1c9858dd60d21b6064820152608401610efe565b600080846001600160a01b031684604051614c2f9190615a8e565b600060405180830381855af49150503d8060008114614c6a576040519150601f19603f3d011682016040523d82523d6000602084013e614c6f565b606091505b5091509150614c978282604051806060016040528060278152602001615b6b60279139614ca0565b95945050505050565b60608315614caf57508161105a565b61105a8383815115614cc45781518083602001fd5b8060405162461bcd60e51b8152600401610efe9190614e71565b828054614cea906154b9565b90600052602060002090601f016020900481019282614d0c5760008555614d52565b82601f10614d2557805160ff1916838001178555614d52565b82800160010185558215614d52579182015b82811115614d52578251825591602001919060010190614d37565b50614d5e929150614dd1565b5090565b828054828255906000526020600020908101928215614d52579160200282015b82811115614d5257825182546001600160a01b0319166001600160a01b03909116178255602090920191600190910190614d82565b50805460008255906000526020600020908101906114fb91905b5b80821115614d5e5760008155600101614dd2565b6001600160e01b0319811681146114fb57600080fd5b600060208284031215614e0e57600080fd5b813561105a81614de6565b60005b83811015614e34578181015183820152602001614e1c565b83811115611c675750506000910152565b60008151808452614e5d816020860160208601614e19565b601f01601f19169290920160200192915050565b60208152600061105a6020830184614e45565b600060208284031215614e9657600080fd5b5035919050565b80356001600160a01b038116811461132a57600080fd5b60008060408385031215614ec757600080fd5b614ed083614e9d565b946020939093013593505050565b600080600060608486031215614ef357600080fd5b83359250614f0360208501614e9d565b9150604084013590509250925092565b6020808252825182820181905260009190848201906040850190845b81811015614f4b57835183529284019291840191600101614f2f565b50909695505050505050565b600060208284031215614f6957600080fd5b61105a82614e9d565b600080600060608486031215614f8757600080fd5b614f9084614e9d565b9250614f0360208501614e9d565b600080600060608486031215614fb357600080fd5b505081359360208301359350604090920135919050565b634e487b7160e01b600052604160045260246000fd5b604051601f8201601f191681016001600160401b038111828210171561500857615008614fca565b604052919050565b60006001600160401b0382111561502957615029614fca565b50601f01601f191660200190565b600082601f83011261504857600080fd5b813561505b61505682615010565b614fe0565b81815284602083860101111561507057600080fd5b816020850160208301376000918101602001919091529392505050565b600080600080600060a086880312156150a557600080fd5b85356001600160401b03808211156150bc57600080fd5b6150c889838a01615037565b96506020915081880135818111156150df57600080fd5b6150eb8a828b01615037565b9650506150fa60408901614e9d565b945061510860608901614e9d565b935060808801358181111561511c57600080fd5b8801601f81018a1361512d57600080fd5b80358281111561513f5761513f614fca565b8060051b9250615150848401614fe0565b818152928201840192848101908c85111561516a57600080fd5b928501925b8484101561518f5761518084614e9d565b8252928501929085019061516f565b8096505050505050509295509295909350565b6000806000606084860312156151b757600080fd5b83359250602084013591506151ce60408501614e9d565b90509250925092565b600080604083850312156151ea57600080fd5b6151f383614e9d565b915060208301356001600160401b0381111561520e57600080fd5b61521a85828601615037565b9150509250929050565b6000806040838503121561523757600080fd5b50508035926020909101359150565b60006080828403121561525857600080fd5b50919050565b600080600060c0848603121561527357600080fd5b83359250602084013591506151ce8560408601615246565b80151581146114fb57600080fd5b600080600080608085870312156152af57600080fd5b8435935060208501356001600160401b038111156152cc57600080fd5b6152d887828801615037565b93505060408501356152e98161528b565b91506152f760608601614e9d565b905092959194509250565b6000806040838503121561531557600080fd5b8235915060208301356001600160401b0381111561520e57600080fd5b6000806040838503121561534557600080fd5b61534e83614e9d565b9150602083013561535e8161528b565b809150509250929050565b6000806000806080858703121561537f57600080fd5b61538885614e9d565b935061539660208601614e9d565b92506040850135915060608501356001600160401b038111156153b857600080fd5b6153c487828801615037565b91505092959194509250565b600080600080600061010086880312156153e957600080fd5b6153f286614e9d565b94506020860135935060408601359250606086013591506154168760808801615246565b90509295509295909350565b6000806040838503121561543557600080fd5b8235915061544560208401614e9d565b90509250929050565b6001600160a01b038616815260ff8516602082015260a06040820181905260009061547b90830186614e45565b606083019490945250608001529392505050565b600080604083850312156154a257600080fd5b6154ab83614e9d565b915061544560208401614e9d565b600181811c908216806154cd57607f821691505b6020821081141561525857634e487b7160e01b600052602260045260246000fd5b634e487b7160e01b600052603260045260246000fd5b60208082526022908201527f455243333532353a20617070726f76616c20746f2063757272656e74206f776e60408201526132b960f11b606082015260800190565b60208082526039908201527f455243333532353a20617070726f76652063616c6c6572206973206e6f74206f6040820152781ddb995c881b9bdc88185c1c1c9bdd995908199bdc88185b1b603a1b606082015260800190565b600083516155b1818460208801614e19565b64736c6f742f60d81b90830190815283516155d3816005840160208801614e19565b01600501949350505050565b6000602082840312156155f157600080fd5b81516001600160401b0381111561560757600080fd5b8201601f8101841361561857600080fd5b805161562661505682615010565b81815285602083850101111561563b57600080fd5b614c97826020830160208601614e19565b634e487b7160e01b600052601160045260246000fd5b60006000198214156156765761567661564c565b5060010190565b634e487b7160e01b600052602160045260246000fd5b60208082526032908201527f455243333532353a207472616e736665722063616c6c6572206973206e6f74206040820152711bdddb995c881b9bdc88185c1c1c9bdd995960721b606082015260800190565b6020808252602e908201527f496e697469616c697a61626c653a20636f6e747261637420697320616c72656160408201526d191e481a5b9a5d1a585b1a5e995960921b606082015260800190565b6020808252602c908201527f46756e6374696f6e206d7573742062652063616c6c6564207468726f7567682060408201526b19195b1959d85d1958d85b1b60a21b606082015260800190565b6020808252602c908201527f46756e6374696f6e206d7573742062652063616c6c6564207468726f7567682060408201526b6163746976652070726f787960a01b606082015260800190565b60208082526012908201527126aaa9aa1021229023a0aa22a5a2a2a822a960711b604082015260600190565b602080825260199082015278115490cccd4c8d4e881a5b9d985b1a59081d1bdad95b881251603a1b604082015260600190565b6000835161583c818460208801614e19565b835190830190615850818360208801614e19565b01949350505050565b6000835161586b818460208801614e19565b68636f6e74726163742f60b81b9083019081528351615891816009840160208801614e19565b01600901949350505050565b6000828210156158af576158af61564c565b500390565b600082198211156158c7576158c761564c565b500190565b60208082526028908201527f455243333532353a207472616e7366657220746f206e6f6e20455243333532356040820152672932b1b2b4bb32b960c11b606082015260800190565b6020808252602b908201527f496e697469616c697a61626c653a20636f6e7472616374206973206e6f74206960408201526a6e697469616c697a696e6760a81b606082015260800190565b60006020828403121561597157600080fd5b5051919050565b6001600160e01b031991909116815260200190565b60006020828403121561599f57600080fd5b815161105a8161528b565b60018060a01b038616815284602082015283604082015282606082015260a0608082015260006159dd60a0830184614e45565b979650505050505050565b6000602082840312156159fa57600080fd5b815161105a81614de6565b634e487b7160e01b600052603160045260246000fd5b6001600160a01b0385811682528416602082015260408101839052608060608201819052600090615a4e90830184614e45565b9695505050505050565b6000816000190483118215151615615a7257615a7261564c565b500290565b600081615a8657615a8661564c565b506000190190565b60008251615aa0818460208701614e19565b919091019291505056fefca69b310bd19d275687ebe00b254b0772cf7a367c3f81a9a5a433f831fdc1dc3c63e605be3290ab6b04cfc46c6e1516e626d43236b034f09d7ede1d017beb0c0b2aac84f3ec956911fd78eae5311062972ff949f38412e8da39069d9f068cc6360894a13ba1a3210667c828492db98dca3e2076cc3735a920a3ca505d382bbc449b0a7e0acc0a95c71947cb19fdd122b42abca9bdfbd6707ca4f1e3fdaef05e7f26b83ff96e1f2b6a682f133852f6798a09c465da95921460cefb3847402498416464726573733a206c6f772d6c6576656c2064656c65676174652063616c6c206661696c6564ddf252ad1be2c89b69c2b068fc378daa952ba7f163c4a11628f55a4df523b3efa26469706673582212204653e48c0bf74841181e24a49c893f6b3109bfb2ec87b1f7341c5c5bee07175464736f6c63430008090033496e697469616c697a61626c653a20636f6e747261637420697320616c7265617f26b83ff96e1f2b6a682f133852f6798a09c465da95921460cefb3847402498",
  "devdoc": {
    "details": "Gateway Token contract is responsible for managing Identity.com KYC gateway tokens  those tokens represent completed KYC with attached identity.  Gateway tokens using ERC721 standard with custom extensions. Contract handles multiple levels of access such as Network Authority (may represent a specific regulator body)  Gatekeepers (Identity.com network parties who can mint/burn/freeze gateway tokens) and overall system Admin who can add new Gatekeepers and Network Authorities",
    "kind": "dev",
    "methods": {
      "addGatekeeper(address,uint256)": {
        "details": "Triggers to add new gatekeeper into the system. ",
        "params": {
          "gatekeeper": "Gatekeeper address"
        }
      },
      "addNetworkAuthority(address,uint256)": {
        "details": "Triggers to add new network authority into the system. ",
        "params": {
          "authority": "Network Authority address"
        }
      },
      "burn(uint256)": {
        "details": "Triggers to burn gateway token",
        "params": {
          "tokenId": "Gateway token id"
        }
      },
      "constructor": {
        "custom:oz-upgrades-unsafe-allow": "constructor"
      },
      "contractURI()": {
        "details": "This function SHOULD return the URI for this contract in JSON format, starting with  header `data:application/json;`.  See https://eips.ethereum.org/EIPS/eip-3525 for the JSON schema for contract URI.",
        "returns": {
          "_0": "The JSON formatted URI of the current ERC3525 contract"
        }
      },
      "freeze(uint256)": {
        "details": "Triggers to freeze gateway token",
        "params": {
          "tokenId": "Gateway token id"
        }
      },
      "getExpiration(uint256)": {
        "details": "Triggers to get specified `tokenId` expiration timestamp",
        "params": {
          "tokenId": "Gateway token id"
        }
      },
      "getRoleAdmin(bytes32,uint256)": {
        "details": "Returns the admin role that controls `role`. See {grantRole} and {revokeRole}. To change a role's admin, use {_setRoleAdmin}."
      },
      "getToken(uint256)": {
        "details": "Triggers to get all information gateway token related to specified `tokenId`",
        "params": {
          "tokenId": "Gateway token id"
        }
      },
      "getTokenBitmask(uint256)": {
        "details": "Triggers to get gateway token bitmask"
      },
      "grantRole(bytes32,uint256,address)": {
        "details": "Grants `role` to `account`. If `account` had not been already granted `role`, emits a {RoleGranted} event. Requirements: - the caller must have ``role``'s admin role. May emit a {RoleGranted} event."
      },
      "hasRole(bytes32,uint256,address)": {
        "details": "Returns `true` if `account` has been granted `role`."
      },
      "isGatekeeper(address,uint256)": {
        "details": "Triggers to verify if address has a GATEKEEPER role. ",
        "params": {
          "gatekeeper": "Gatekeeper address"
        }
      },
      "isNetworkAuthority(address,uint256)": {
        "details": "Triggers to verify if authority has a NETWORK_AUTHORITY_ROLE role. ",
        "params": {
          "authority": "Network Authority address"
        }
      },
      "mint(address,uint256,uint256,uint256,(uint256,uint8,address,address))": {
        "details": "Triggers to mint gateway token",
        "params": {
          "mask": "The bitmask for the token",
          "network": "Gateway token type",
          "to": "Gateway token owner"
        }
      },
      "name()": {
        "details": "Returns the token collection name."
      },
      "proxiableUUID()": {
        "details": "Implementation of the ERC1822 {proxiableUUID} function. This returns the storage slot used by the implementation. It is used to validate the implementation's compatibility when performing an upgrade. IMPORTANT: A proxy pointing at a proxiable contract should not be considered proxiable itself, because this risks bricking a proxy that upgrades to it, by delegating to itself until out of gas. Thus it is critical that this function revert if invoked through a proxy. This is guaranteed by the `notDelegated` modifier."
      },
      "removeGatekeeper(address,uint256)": {
        "details": "Triggers to remove existing gatekeeper from gateway token. ",
        "params": {
          "gatekeeper": "Gatekeeper address"
        }
      },
      "removeNetworkAuthority(address,uint256)": {
        "details": "Triggers to remove existing network authority from gateway token. ",
        "params": {
          "authority": "Network Authority address"
        }
      },
      "renounceRole(bytes32,uint256,address)": {
        "details": "Revokes `role` from the calling account. Roles are often managed via {grantRole} and {revokeRole}: this function's purpose is to provide a mechanism for accounts to lose their privileges if they are compromised (such as when a trusted device is misplaced). If the calling account had been revoked `role`, emits a {RoleRevoked} event. Requirements: - the caller must be `account`. May emit a {RoleRevoked} event."
      },
      "revoke(uint256)": {
        "details": "Triggers to revoke gateway token",
        "params": {
          "tokenId": "Gateway token id"
        }
      },
      "revokeRole(bytes32,uint256,address)": {
        "details": "Revokes `role` from `account`. If `account` had been granted `role`, emits a {RoleRevoked} event. Requirements: - the caller must have ``role``'s admin role. May emit a {RoleRevoked} event."
      },
      "setBitmask(uint256,uint256)": {
        "details": "Triggers to set full bitmask for gateway token with `tokenId`"
      },
      "setExpiration(uint256,uint256,(uint256,uint8,address,address))": {
        "details": "Triggers to set expiration for tokenId",
        "params": {
          "tokenId": "Gateway token id"
        }
      },
      "supportsInterface(bytes4)": {
        "details": "See {IERC165-supportsInterface}."
      },
      "symbol()": {
        "details": "Returns the token collection symbol."
      },
      "tokenURI(uint256)": {
        "details": "Returns the Uniform Resource Identifier (URI) for `tokenId` token."
      },
      "totalSupply()": {
        "returns": {
          "_0": "A count of valid NFTs tracked by this contract, where each one of  them has an assigned and queryable owner not equal to the zero address"
        }
      },
      "transferDAOManager(address,address,uint256)": {
        "details": "Transfers Gateway Token DAO Manager access from daoManager to `newManager`",
        "params": {
          "newManager": "Address to transfer DAO Manager role for."
        }
      },
      "transfersRestricted()": {
        "details": "Returns true if gateway token owner transfers restricted, and false otherwise."
      },
      "unfreeze(uint256)": {
        "details": "Triggers to unfreeze gateway token",
        "params": {
          "tokenId": "Gateway token id"
        }
      },
      "updateFlagsStorage(address)": {
        "details": "Triggers to update FlagsStorage contract address",
        "params": {
          "flagsStorage": "FlagsStorage contract address"
        }
      },
      "upgradeTo(address)": {
        "details": "Upgrade the implementation of the proxy to `newImplementation`. Calls {_authorizeUpgrade}. Emits an {Upgraded} event."
      },
      "upgradeToAndCall(address,bytes)": {
        "details": "Upgrade the implementation of the proxy to `newImplementation`, and subsequently execute the function call encoded in `data`. Calls {_authorizeUpgrade}. Emits an {Upgraded} event."
      },
      "valueDecimals()": {
        "details": "Returns the number of decimals the token uses for value."
      },
      "verifyToken(address,uint256)": {
        "details": "Triggered by external contract to verify the validity of the default token for `owner`. Checks owner has any token on gateway token contract, `tokenId` still active, and not expired."
      },
      "verifyToken(uint256)": {
        "details": "Triggered by external contract to verify the validity of the default token for `owner`. Checks owner has any token on gateway token contract, `tokenId` still active, and not expired."
      }
    },
    "version": 1
  },
  "userdoc": {
    "kind": "user",
    "methods": {
      "addNetworkAuthority(address,uint256)": {
        "notice": "Can be triggered by Gateway Token Controller or any Network Authority"
      },
      "contractURI()": {
        "notice": "Returns the Uniform Resource Identifier (URI) for the current ERC3525 contract."
      },
      "removeNetworkAuthority(address,uint256)": {
        "notice": "Can be triggered by Gateway Token Controller or any Network Authority"
      },
      "totalSupply()": {
        "notice": "Count NFTs tracked by this contract"
      },
      "transferDAOManager(address,address,uint256)": {
        "notice": "GatewayToken contract has to be DAO Governed"
      }
    },
    "version": 1
  },
  "storageLayout": {
    "storage": [
      {
        "astId": 527,
        "contract": "contracts/GatewayToken.sol:GatewayToken",
        "label": "_initialized",
        "offset": 0,
        "slot": "0",
        "type": "t_uint8"
      },
      {
        "astId": 530,
        "contract": "contracts/GatewayToken.sol:GatewayToken",
        "label": "_initializing",
        "offset": 1,
        "slot": "0",
        "type": "t_bool"
      },
      {
        "astId": 509,
        "contract": "contracts/GatewayToken.sol:GatewayToken",
        "label": "__gap",
        "offset": 0,
        "slot": "1",
        "type": "t_array(t_uint256)50_storage"
      },
      {
        "astId": 824,
        "contract": "contracts/GatewayToken.sol:GatewayToken",
        "label": "__gap",
        "offset": 0,
        "slot": "51",
        "type": "t_array(t_uint256)50_storage"
      },
      {
        "astId": 1150,
        "contract": "contracts/GatewayToken.sol:GatewayToken",
        "label": "__gap",
        "offset": 0,
        "slot": "101",
        "type": "t_array(t_uint256)50_storage"
      },
      {
        "astId": 11054,
        "contract": "contracts/GatewayToken.sol:GatewayToken",
        "label": "_trustedForwarders",
        "offset": 0,
        "slot": "151",
        "type": "t_mapping(t_address,t_bool)"
      },
      {
        "astId": 5155,
        "contract": "contracts/GatewayToken.sol:GatewayToken",
        "label": "_name",
        "offset": 0,
        "slot": "152",
        "type": "t_string_storage"
      },
      {
        "astId": 5157,
        "contract": "contracts/GatewayToken.sol:GatewayToken",
        "label": "_symbol",
        "offset": 0,
        "slot": "153",
        "type": "t_string_storage"
      },
      {
        "astId": 5159,
        "contract": "contracts/GatewayToken.sol:GatewayToken",
        "label": "_decimals",
        "offset": 0,
        "slot": "154",
        "type": "t_uint8"
      },
      {
        "astId": 5162,
        "contract": "contracts/GatewayToken.sol:GatewayToken",
        "label": "_tokenIdGenerator",
        "offset": 0,
        "slot": "155",
        "type": "t_struct(Counter)1157_storage"
      },
      {
        "astId": 5168,
        "contract": "contracts/GatewayToken.sol:GatewayToken",
        "label": "_approvedValues",
        "offset": 0,
        "slot": "156",
        "type": "t_mapping(t_uint256,t_mapping(t_address,t_uint256))"
      },
      {
        "astId": 5172,
        "contract": "contracts/GatewayToken.sol:GatewayToken",
        "label": "_allTokens",
        "offset": 0,
        "slot": "157",
        "type": "t_array(t_struct(TokenData)5141_storage)dyn_storage"
      },
      {
        "astId": 5176,
        "contract": "contracts/GatewayToken.sol:GatewayToken",
        "label": "_allTokensIndex",
        "offset": 0,
        "slot": "158",
        "type": "t_mapping(t_uint256,t_uint256)"
      },
      {
        "astId": 5181,
        "contract": "contracts/GatewayToken.sol:GatewayToken",
        "label": "_addressData",
        "offset": 0,
        "slot": "159",
        "type": "t_mapping(t_address,t_struct(AddressData)5153_storage)"
      },
      {
        "astId": 5184,
        "contract": "contracts/GatewayToken.sol:GatewayToken",
        "label": "metadataDescriptor",
        "offset": 0,
        "slot": "160",
        "type": "t_contract(IERC3525MetadataDescriptorUpgradeable)7880"
      },
      {
        "astId": 7303,
        "contract": "contracts/GatewayToken.sol:GatewayToken",
        "label": "__gap",
        "offset": 0,
        "slot": "161",
        "type": "t_array(t_uint256)41_storage"
      },
      {
        "astId": 11221,
        "contract": "contracts/GatewayToken.sol:GatewayToken",
        "label": "_roleDomain",
        "offset": 0,
        "slot": "202",
        "type": "t_mapping(t_uint256,t_struct(RoleDomain)11216_storage)"
      },
      {
        "astId": 11225,
        "contract": "contracts/GatewayToken.sol:GatewayToken",
        "label": "_superAdmins",
        "offset": 0,
        "slot": "203",
        "type": "t_mapping(t_address,t_bool)"
      },
      {
        "astId": 11678,
        "contract": "contracts/GatewayToken.sol:GatewayToken",
        "label": "flagsStorage",
        "offset": 0,
        "slot": "204",
        "type": "t_contract(IFlagsStorage)11890"
      },
      {
        "astId": 11682,
        "contract": "contracts/GatewayToken.sol:GatewayToken",
        "label": "bitmasks",
        "offset": 0,
        "slot": "205",
        "type": "t_mapping(t_uint256,t_uint256)"
      },
      {
        "astId": 8538,
        "contract": "contracts/GatewayToken.sol:GatewayToken",
        "label": "controller",
        "offset": 0,
        "slot": "206",
        "type": "t_address"
      },
      {
        "astId": 8542,
        "contract": "contracts/GatewayToken.sol:GatewayToken",
        "label": "isNetworkDAOGoverned",
        "offset": 0,
        "slot": "207",
        "type": "t_mapping(t_uint256,t_bool)"
      },
      {
        "astId": 8562,
        "contract": "contracts/GatewayToken.sol:GatewayToken",
        "label": "tokenStates",
        "offset": 0,
        "slot": "208",
        "type": "t_mapping(t_uint256,t_enum(TokenState)8536)"
      },
      {
        "astId": 8566,
        "contract": "contracts/GatewayToken.sol:GatewayToken",
        "label": "expirations",
        "offset": 0,
        "slot": "209",
        "type": "t_mapping(t_uint256,t_uint256)"
      },
      {
        "astId": 8570,
        "contract": "contracts/GatewayToken.sol:GatewayToken",
        "label": "networks",
        "offset": 0,
        "slot": "210",
        "type": "t_mapping(t_uint256,t_string_storage)"
      }
    ],
    "types": {
      "t_address": {
        "encoding": "inplace",
        "label": "address",
        "numberOfBytes": "20"
      },
      "t_array(t_address)dyn_storage": {
        "base": "t_address",
        "encoding": "dynamic_array",
        "label": "address[]",
        "numberOfBytes": "32"
      },
      "t_array(t_struct(TokenData)5141_storage)dyn_storage": {
        "base": "t_struct(TokenData)5141_storage",
        "encoding": "dynamic_array",
        "label": "struct ERC3525Upgradeable.TokenData[]",
        "numberOfBytes": "32"
      },
      "t_array(t_uint256)41_storage": {
        "base": "t_uint256",
        "encoding": "inplace",
        "label": "uint256[41]",
        "numberOfBytes": "1312"
      },
      "t_array(t_uint256)50_storage": {
        "base": "t_uint256",
        "encoding": "inplace",
        "label": "uint256[50]",
        "numberOfBytes": "1600"
      },
      "t_array(t_uint256)dyn_storage": {
        "base": "t_uint256",
        "encoding": "dynamic_array",
        "label": "uint256[]",
        "numberOfBytes": "32"
      },
      "t_bool": {
        "encoding": "inplace",
        "label": "bool",
        "numberOfBytes": "1"
      },
      "t_bytes32": {
        "encoding": "inplace",
        "label": "bytes32",
        "numberOfBytes": "32"
      },
      "t_contract(IERC3525MetadataDescriptorUpgradeable)7880": {
        "encoding": "inplace",
        "label": "contract IERC3525MetadataDescriptorUpgradeable",
        "numberOfBytes": "20"
      },
      "t_contract(IFlagsStorage)11890": {
        "encoding": "inplace",
        "label": "contract IFlagsStorage",
        "numberOfBytes": "20"
      },
      "t_enum(TokenState)8536": {
        "encoding": "inplace",
        "label": "enum GatewayToken.TokenState",
        "numberOfBytes": "1"
      },
      "t_mapping(t_address,t_bool)": {
        "encoding": "mapping",
        "key": "t_address",
        "label": "mapping(address => bool)",
        "numberOfBytes": "32",
        "value": "t_bool"
      },
      "t_mapping(t_address,t_struct(AddressData)5153_storage)": {
        "encoding": "mapping",
        "key": "t_address",
        "label": "mapping(address => struct ERC3525Upgradeable.AddressData)",
        "numberOfBytes": "32",
        "value": "t_struct(AddressData)5153_storage"
      },
      "t_mapping(t_address,t_uint256)": {
        "encoding": "mapping",
        "key": "t_address",
        "label": "mapping(address => uint256)",
        "numberOfBytes": "32",
        "value": "t_uint256"
      },
      "t_mapping(t_bytes32,t_struct(RoleData)11210_storage)": {
        "encoding": "mapping",
        "key": "t_bytes32",
        "label": "mapping(bytes32 => struct ParameterizedAccessControl.RoleData)",
        "numberOfBytes": "32",
        "value": "t_struct(RoleData)11210_storage"
      },
      "t_mapping(t_uint256,t_bool)": {
        "encoding": "mapping",
        "key": "t_uint256",
        "label": "mapping(uint256 => bool)",
        "numberOfBytes": "32",
        "value": "t_bool"
      },
      "t_mapping(t_uint256,t_enum(TokenState)8536)": {
        "encoding": "mapping",
        "key": "t_uint256",
        "label": "mapping(uint256 => enum GatewayToken.TokenState)",
        "numberOfBytes": "32",
        "value": "t_enum(TokenState)8536"
      },
      "t_mapping(t_uint256,t_mapping(t_address,t_uint256))": {
        "encoding": "mapping",
        "key": "t_uint256",
        "label": "mapping(uint256 => mapping(address => uint256))",
        "numberOfBytes": "32",
        "value": "t_mapping(t_address,t_uint256)"
      },
      "t_mapping(t_uint256,t_string_storage)": {
        "encoding": "mapping",
        "key": "t_uint256",
        "label": "mapping(uint256 => string)",
        "numberOfBytes": "32",
        "value": "t_string_storage"
      },
      "t_mapping(t_uint256,t_struct(RoleDomain)11216_storage)": {
        "encoding": "mapping",
        "key": "t_uint256",
        "label": "mapping(uint256 => struct ParameterizedAccessControl.RoleDomain)",
        "numberOfBytes": "32",
        "value": "t_struct(RoleDomain)11216_storage"
      },
      "t_mapping(t_uint256,t_uint256)": {
        "encoding": "mapping",
        "key": "t_uint256",
        "label": "mapping(uint256 => uint256)",
        "numberOfBytes": "32",
        "value": "t_uint256"
      },
      "t_string_storage": {
        "encoding": "bytes",
        "label": "string",
        "numberOfBytes": "32"
      },
      "t_struct(AddressData)5153_storage": {
        "encoding": "inplace",
        "label": "struct ERC3525Upgradeable.AddressData",
        "members": [
          {
            "astId": 5144,
            "contract": "contracts/GatewayToken.sol:GatewayToken",
            "label": "ownedTokens",
            "offset": 0,
            "slot": "0",
            "type": "t_array(t_uint256)dyn_storage"
          },
          {
            "astId": 5148,
            "contract": "contracts/GatewayToken.sol:GatewayToken",
            "label": "ownedTokensIndex",
            "offset": 0,
            "slot": "1",
            "type": "t_mapping(t_uint256,t_uint256)"
          },
          {
            "astId": 5152,
            "contract": "contracts/GatewayToken.sol:GatewayToken",
            "label": "approvals",
            "offset": 0,
            "slot": "2",
            "type": "t_mapping(t_address,t_bool)"
          }
        ],
        "numberOfBytes": "96"
      },
      "t_struct(Counter)1157_storage": {
        "encoding": "inplace",
        "label": "struct CountersUpgradeable.Counter",
        "members": [
          {
            "astId": 1156,
            "contract": "contracts/GatewayToken.sol:GatewayToken",
            "label": "_value",
            "offset": 0,
            "slot": "0",
            "type": "t_uint256"
          }
        ],
        "numberOfBytes": "32"
      },
      "t_struct(RoleData)11210_storage": {
        "encoding": "inplace",
        "label": "struct ParameterizedAccessControl.RoleData",
        "members": [
          {
            "astId": 11207,
            "contract": "contracts/GatewayToken.sol:GatewayToken",
            "label": "members",
            "offset": 0,
            "slot": "0",
            "type": "t_mapping(t_address,t_bool)"
          },
          {
            "astId": 11209,
            "contract": "contracts/GatewayToken.sol:GatewayToken",
            "label": "adminRole",
            "offset": 0,
            "slot": "1",
            "type": "t_bytes32"
          }
        ],
        "numberOfBytes": "64"
      },
      "t_struct(RoleDomain)11216_storage": {
        "encoding": "inplace",
        "label": "struct ParameterizedAccessControl.RoleDomain",
        "members": [
          {
            "astId": 11215,
            "contract": "contracts/GatewayToken.sol:GatewayToken",
            "label": "roles",
            "offset": 0,
            "slot": "0",
            "type": "t_mapping(t_bytes32,t_struct(RoleData)11210_storage)"
          }
        ],
        "numberOfBytes": "32"
      },
      "t_struct(TokenData)5141_storage": {
        "encoding": "inplace",
        "label": "struct ERC3525Upgradeable.TokenData",
        "members": [
          {
            "astId": 5129,
            "contract": "contracts/GatewayToken.sol:GatewayToken",
            "label": "id",
            "offset": 0,
            "slot": "0",
            "type": "t_uint256"
          },
          {
            "astId": 5131,
            "contract": "contracts/GatewayToken.sol:GatewayToken",
            "label": "slot",
            "offset": 0,
            "slot": "1",
            "type": "t_uint256"
          },
          {
            "astId": 5133,
            "contract": "contracts/GatewayToken.sol:GatewayToken",
            "label": "balance",
            "offset": 0,
            "slot": "2",
            "type": "t_uint256"
          },
          {
            "astId": 5135,
            "contract": "contracts/GatewayToken.sol:GatewayToken",
            "label": "owner",
            "offset": 0,
            "slot": "3",
            "type": "t_address"
          },
          {
            "astId": 5137,
            "contract": "contracts/GatewayToken.sol:GatewayToken",
            "label": "approved",
            "offset": 0,
            "slot": "4",
            "type": "t_address"
          },
          {
            "astId": 5140,
            "contract": "contracts/GatewayToken.sol:GatewayToken",
            "label": "valueApprovals",
            "offset": 0,
            "slot": "5",
            "type": "t_array(t_address)dyn_storage"
          }
        ],
        "numberOfBytes": "192"
      },
      "t_uint256": {
        "encoding": "inplace",
        "label": "uint256",
        "numberOfBytes": "32"
      },
      "t_uint8": {
        "encoding": "inplace",
        "label": "uint8",
        "numberOfBytes": "1"
      }
    }
  }
}