{
  "_format": "hh-sol-artifact-1",
  "contractName": "StubMultisig",
  "sourceName": "contracts/StubMultisig.sol",
  "abi": [
    {
      "inputs": [
        {
          "internalType": "address",
          "name": "gatewayTokenContract",
          "type": "address"
        },
        {
          "internalType": "uint256",
          "name": "gatekeeperNetwork",
          "type": "uint256"
        }
      ],
      "stateMutability": "nonpayable",
      "type": "constructor"
    },
    {
      "inputs": [
        {
          "internalType": "address",
          "name": "newOwner",
          "type": "address"
        }
      ],
      "name": "reassignOwnership",
      "outputs": [],
      "stateMutability": "nonpayable",
      "type": "function"
    }
  ],
  "bytecode": "0x608060405234801561001057600080fd5b506040516101b63803806101b683398101604081905261002f91610058565b600080546001600160a01b0319166001600160a01b039390931692909217909155600155610092565b6000806040838503121561006b57600080fd5b82516001600160a01b038116811461008257600080fd5b6020939093015192949293505050565b610115806100a16000396000f3fe6080604052348015600f57600080fd5b506004361060285760003560e01c8063c93f9b6314602d575b600080fd5b603c603836600460b1565b603e565b005b60005460015460405163a8fa8e0d60e01b81523060048201526001600160a01b0384811660248301526044820192909252911690819063a8fa8e0d90606401600060405180830381600087803b158015609657600080fd5b505af115801560a9573d6000803e3d6000fd5b505050505050565b60006020828403121560c257600080fd5b81356001600160a01b038116811460d857600080fd5b939250505056fea2646970667358221220ab261379accb24fe93b1b80f9c9a8195429e9b0559f930c992381c676cc927b964736f6c63430008090033",
  "linkReferences": {},
  "deployedLinkReferences": {}
}