{
  "_format": "hh-sol-artifact-1",
  "contractName": "GatewayTokenController",
  "sourceName": "contracts/GatewayTokenController.sol",
  "abi": [
    {
      "inputs": [
        {
          "internalType": "address",
          "name": "_flagsStorage",
          "type": "address"
        }
      ],
      "stateMutability": "nonpayable",
      "type": "constructor"
    },
    {
      "anonymous": false,
      "inputs": [
        {
          "indexed": true,
          "internalType": "address",
          "name": "previousAdmin",
          "type": "address"
        },
        {
          "indexed": true,
          "internalType": "address",
          "name": "admin",
          "type": "address"
        }
      ],
      "name": "AdminTransfered",
      "type": "event"
    },
    {
      "anonymous": false,
      "inputs": [
        {
          "indexed": true,
          "internalType": "address",
          "name": "user",
          "type": "address"
        }
      ],
      "name": "Blacklisted",
      "type": "event"
    },
    {
      "anonymous": false,
      "inputs": [
        {
          "indexed": false,
          "internalType": "address[]",
          "name": "users",
          "type": "address[]"
        }
      ],
      "name": "BlacklistedBatch",
      "type": "event"
    },
    {
      "anonymous": false,
      "inputs": [
        {
          "indexed": true,
          "internalType": "address",
          "name": "previousFlagsStorage",
          "type": "address"
        },
        {
          "indexed": true,
          "internalType": "address",
          "name": "flagsStorage",
          "type": "address"
        }
      ],
      "name": "FlagsStorageUpdated",
      "type": "event"
    },
    {
      "anonymous": false,
      "inputs": [
        {
          "indexed": true,
          "internalType": "address",
          "name": "tokenAddress",
          "type": "address"
        },
        {
          "indexed": false,
          "internalType": "string",
          "name": "name",
          "type": "string"
        },
        {
          "indexed": false,
          "internalType": "string",
          "name": "symbol",
          "type": "string"
        },
        {
          "indexed": false,
          "internalType": "address",
          "name": "deployer",
          "type": "address"
        }
      ],
      "name": "GatekeeperNetworkCreated",
      "type": "event"
    },
    {
      "anonymous": false,
      "inputs": [
        {
          "indexed": false,
          "internalType": "address[]",
          "name": "tokens",
          "type": "address[]"
        },
        {
          "indexed": false,
          "internalType": "address",
          "name": "account",
          "type": "address"
        }
      ],
      "name": "TransfersAcceptedBatch",
      "type": "event"
    },
    {
      "anonymous": false,
      "inputs": [
        {
          "indexed": false,
          "internalType": "address[]",
          "name": "tokens",
          "type": "address[]"
        },
        {
          "indexed": false,
          "internalType": "address",
          "name": "account",
          "type": "address"
        }
      ],
      "name": "TransfersRestrictedBatch",
      "type": "event"
    },
    {
      "inputs": [
        {
          "internalType": "address[]",
          "name": "tokens",
          "type": "address[]"
        }
      ],
      "name": "acceptTransfersBatch",
      "outputs": [],
      "stateMutability": "nonpayable",
      "type": "function"
    },
    {
      "inputs": [
        {
          "internalType": "address",
          "name": "token",
          "type": "address"
        },
        {
          "internalType": "address[]",
          "name": "authorities",
          "type": "address[]"
        }
      ],
      "name": "addNetworkAuthorities",
      "outputs": [],
      "stateMutability": "nonpayable",
      "type": "function"
    },
    {
      "inputs": [
        {
          "internalType": "address",
          "name": "user",
          "type": "address"
        }
      ],
      "name": "blacklist",
      "outputs": [],
      "stateMutability": "nonpayable",
      "type": "function"
    },
    {
      "inputs": [
        {
          "internalType": "address[]",
          "name": "users",
          "type": "address[]"
        }
      ],
      "name": "blacklistBatch",
      "outputs": [],
      "stateMutability": "nonpayable",
      "type": "function"
    },
    {
      "inputs": [
        {
          "internalType": "string",
          "name": "_name",
          "type": "string"
        },
        {
          "internalType": "string",
          "name": "_symbol",
          "type": "string"
        },
        {
          "internalType": "bool",
          "name": "_isDAOGoverned",
          "type": "bool"
        },
        {
          "internalType": "address",
          "name": "_daoExecutor",
          "type": "address"
        },
        {
          "internalType": "address",
          "name": "trustedForwarder",
          "type": "address"
        }
      ],
      "name": "createGatekeeperNetwork",
      "outputs": [
        {
          "internalType": "address",
          "name": "tokenAddress",
          "type": "address"
        }
      ],
      "stateMutability": "nonpayable",
      "type": "function"
    },
    {
      "inputs": [],
      "name": "flagsStorage",
      "outputs": [
        {
          "internalType": "address",
          "name": "",
          "type": "address"
        }
      ],
      "stateMutability": "view",
      "type": "function"
    },
    {
      "inputs": [],
      "name": "identityAdmin",
      "outputs": [
        {
          "internalType": "address",
          "name": "",
          "type": "address"
        }
      ],
      "stateMutability": "view",
      "type": "function"
    },
    {
      "inputs": [
        {
          "internalType": "address",
          "name": "user",
          "type": "address"
        }
      ],
      "name": "isBlacklisted",
      "outputs": [
        {
          "internalType": "bool",
          "name": "",
          "type": "bool"
        }
      ],
      "stateMutability": "view",
      "type": "function"
    },
    {
      "inputs": [
        {
          "internalType": "address",
          "name": "token",
          "type": "address"
        },
        {
          "internalType": "address[]",
          "name": "authorities",
          "type": "address[]"
        }
      ],
      "name": "removeNetworkAuthorities",
      "outputs": [],
      "stateMutability": "nonpayable",
      "type": "function"
    },
    {
      "inputs": [
        {
          "internalType": "address[]",
          "name": "tokens",
          "type": "address[]"
        }
      ],
      "name": "restrictTransfersBatch",
      "outputs": [],
      "stateMutability": "nonpayable",
      "type": "function"
    },
    {
      "inputs": [
        {
          "internalType": "address",
          "name": "newAdmin",
          "type": "address"
        }
      ],
      "name": "transferAdmin",
      "outputs": [],
      "stateMutability": "nonpayable",
      "type": "function"
    }
  ],
  "bytecode": "0x608060405234801561001057600080fd5b506040516154c73803806154c783398101604081905261002f916100c0565b600280546001600160a01b031916331790556001600160a01b03811661009b5760405162461bcd60e51b815260206004820152601e60248201527f496e636f727265637420466c61677353746f7261676520616464726573730000604482015260640160405180910390fd5b600380546001600160a01b0319166001600160a01b03929092169190911790556100f0565b6000602082840312156100d257600080fd5b81516001600160a01b03811681146100e957600080fd5b9392505050565b6153c8806100ff6000396000f3fe60806040523480156200001157600080fd5b5060043610620000b75760003560e01c8063726b5771116200007a578063726b5771146200014b57806375829def14620001625780637e8895371462000179578063f2ec3450146200018d578063f9f92be414620001a4578063fe575a8714620001bb57600080fd5b80630dd05e5f14620000bc57806324b776c914620000d55780632d33d27a14620000ec5780633403ff1e146200011d5780635647bfa51462000134575b600080fd5b620000d3620000cd36600462000f0d565b620001fb565b005b620000d3620000e636600462000f0d565b620003ab565b60035462000100906001600160a01b031681565b6040516001600160a01b0390911681526020015b60405180910390f35b620001006200012e36600462000fd4565b62000547565b620000d3620001453660046200107f565b62000603565b620000d36200015c36600462000f0d565b6200089c565b620000d362000173366004620010d5565b620009b2565b60025462000100906001600160a01b031681565b620000d36200019e3660046200107f565b62000a2b565b620000d3620001b5366004620010d5565b62000cbe565b620001ea620001cc366004620010d5565b6001600160a01b031660009081526004602052604090205460ff1690565b604051901515815260200162000114565b6002546001600160a01b03163314620002315760405162461bcd60e51b81526004016200022890620010fc565b60405180910390fd5b60005b81518110156200036c5760008282815181106200025557620002556200112c565b602002602001015190506200027581600062000d7e90919063ffffffff16565b620002945760405162461bcd60e51b8152600401620002289062001142565b6000819050806001600160a01b0316637adac0e66040518163ffffffff1660e01b8152600401602060405180830381600087803b158015620002d557600080fd5b505af1158015620002ea573d6000803e3d6000fd5b505050506040513d601f19601f820116820180604052508101906200031091906200116d565b620003565760405162461bcd60e51b81526020600482015260156024820152741514905394d1915494c81393d50810531313d5d151605a1b604482015260640162000228565b50508062000364906200118d565b905062000234565b507f58631eee773f0fec6b0e2e8bd8eb7250c0941d22e2ac58787e3428a693745a248133604051620003a0929190620011fd565b60405180910390a150565b6002546001600160a01b03163314620003d85760405162461bcd60e51b81526004016200022890620010fc565b60005b815181101562000513576000828281518110620003fc57620003fc6200112c565b602002602001015190506200041c81600062000d7e90919063ffffffff16565b6200043b5760405162461bcd60e51b8152600401620002289062001142565b6000819050806001600160a01b0316632185810b6040518163ffffffff1660e01b8152600401602060405180830381600087803b1580156200047c57600080fd5b505af115801562000491573d6000803e3d6000fd5b505050506040513d601f19601f82011682018060405250810190620004b791906200116d565b620004fd5760405162461bcd60e51b81526020600482015260156024820152741514905394d1915494c81393d50810531313d5d151605a1b604482015260640162000228565b5050806200050b906200118d565b9050620003db565b507f404f02b9c73e30734207749f2fc6f5e4d1e2fba7649223798308d3a63014f4fc8133604051620003a0929190620011fd565b60008585338686600360009054906101000a90046001600160a01b031687604051620005739062000e08565b62000585979695949392919062001279565b604051809103906000f080158015620005a2573d6000803e3d6000fd5b509050620005b260008262000da5565b50806001600160a01b03167ff9d549554121b54eb289ca81e131436ff67c712259c89fb3c00e36d793efeece878733604051620005f293929190620012de565b60405180910390a295945050505050565b6200061060008362000d7e565b6200062f5760405162461bcd60e51b8152600401620002289062001142565b8160005b8251811015620008965760008382815181106200065457620006546200112c565b60200260200101519050826001600160a01b031663304743156040518163ffffffff1660e01b8152600401602060405180830381600087803b1580156200069a57600080fd5b505af1158015620006af573d6000803e3d6000fd5b505050506040513d601f19601f82011682018060405250810190620006d591906200116d565b1562000788576000836001600160a01b031663f322c7556040518163ffffffff1660e01b8152600401602060405180830381600087803b1580156200071957600080fd5b505af11580156200072e573d6000803e3d6000fd5b505050506040513d601f19601f8201168201806040525081019062000754919062001320565b9050336001600160a01b03821614620007815760405162461bcd60e51b8152600401620002289062001340565b5062000824565b60405163bb909c2b60e01b81523360048201526001600160a01b0384169063bb909c2b90602401602060405180830381600087803b158015620007ca57600080fd5b505af1158015620007df573d6000803e3d6000fd5b505050506040513d601f19601f820116820180604052508101906200080591906200116d565b620008245760405162461bcd60e51b8152600401620002289062001340565b604051633746948f60e11b81526001600160a01b038281166004830152841690636e8d291e90602401600060405180830381600087803b1580156200086857600080fd5b505af11580156200087d573d6000803e3d6000fd5b5050505050806200088e906200118d565b905062000633565b50505050565b6002546001600160a01b03163314620008c95760405162461bcd60e51b81526004016200022890620010fc565b60005b815181101562000980576000828281518110620008ed57620008ed6200112c565b6020026020010151905060006001600160a01b0316816001600160a01b031614156200094b5760405162461bcd60e51b815260206004820152600c60248201526b5a45524f204144445245535360a01b604482015260640162000228565b6001600160a01b03166000908152600460205260409020805460ff1916600117905562000978816200118d565b9050620008cc565b507fe1083d5cef2dbb8a2482660e37a8229667000029c2686255cef786c905cad3e281604051620003a091906200136a565b6002546001600160a01b03163314620009df5760405162461bcd60e51b81526004016200022890620010fc565b600280546001600160a01b0319166001600160a01b03831690811790915560405133907f173de3514d8508f36ce8c81d509adcd8c8c76098400f685d3042b36f9a4160c390600090a350565b62000a3860008362000d7e565b62000a575760405162461bcd60e51b8152600401620002289062001142565b8160005b82518110156200089657600083828151811062000a7c5762000a7c6200112c565b60200260200101519050826001600160a01b031663304743156040518163ffffffff1660e01b8152600401602060405180830381600087803b15801562000ac257600080fd5b505af115801562000ad7573d6000803e3d6000fd5b505050506040513d601f19601f8201168201806040525081019062000afd91906200116d565b1562000bb0576000836001600160a01b031663f322c7556040518163ffffffff1660e01b8152600401602060405180830381600087803b15801562000b4157600080fd5b505af115801562000b56573d6000803e3d6000fd5b505050506040513d601f19601f8201168201806040525081019062000b7c919062001320565b9050336001600160a01b0382161462000ba95760405162461bcd60e51b8152600401620002289062001340565b5062000c4c565b60405163bb909c2b60e01b81523360048201526001600160a01b0384169063bb909c2b90602401602060405180830381600087803b15801562000bf257600080fd5b505af115801562000c07573d6000803e3d6000fd5b505050506040513d601f19601f8201168201806040525081019062000c2d91906200116d565b62000c4c5760405162461bcd60e51b8152600401620002289062001340565b6040516302519eb160e61b81526001600160a01b038281166004830152841690639467ac4090602401600060405180830381600087803b15801562000c9057600080fd5b505af115801562000ca5573d6000803e3d6000fd5b50505050508062000cb6906200118d565b905062000a5b565b6002546001600160a01b0316331462000ceb5760405162461bcd60e51b81526004016200022890620010fc565b6001600160a01b03811662000d325760405162461bcd60e51b815260206004820152600c60248201526b5a45524f204144445245535360a01b604482015260640162000228565b6001600160a01b038116600081815260046020526040808220805460ff19166001179055517fffa4e6181777692565cf28528fc88fd1516ea86b56da075235fa575af6a4b8559190a250565b6001600160a01b038116600090815260018301602052604081205415155b90505b92915050565b600062000d9c836001600160a01b038416600081815260018301602052604081205462000dff5750815460018181018455600084815260208082209093018490558454848252828601909352604090209190915562000d9f565b50600062000d9f565b614013806200138083390190565b634e487b7160e01b600052604160045260246000fd5b604051601f8201601f1916810167ffffffffffffffff8111828210171562000e585762000e5862000e16565b604052919050565b6001600160a01b038116811462000e7657600080fd5b50565b600082601f83011262000e8b57600080fd5b8135602067ffffffffffffffff82111562000eaa5762000eaa62000e16565b8160051b62000ebb82820162000e2c565b928352848101820192828101908785111562000ed657600080fd5b83870192505b8483101562000f0257823562000ef28162000e60565b8252918301919083019062000edc565b979650505050505050565b60006020828403121562000f2057600080fd5b813567ffffffffffffffff81111562000f3857600080fd5b62000f468482850162000e79565b949350505050565b600082601f83011262000f6057600080fd5b813567ffffffffffffffff81111562000f7d5762000f7d62000e16565b62000f92601f8201601f191660200162000e2c565b81815284602083860101111562000fa857600080fd5b816020850160208301376000918101602001919091529392505050565b801515811462000e7657600080fd5b600080600080600060a0868803121562000fed57600080fd5b853567ffffffffffffffff808211156200100657600080fd5b6200101489838a0162000f4e565b965060208801359150808211156200102b57600080fd5b506200103a8882890162000f4e565b94505060408601356200104d8162000fc5565b925060608601356200105f8162000e60565b91506080860135620010718162000e60565b809150509295509295909350565b600080604083850312156200109357600080fd5b8235620010a08162000e60565b9150602083013567ffffffffffffffff811115620010bd57600080fd5b620010cb8582860162000e79565b9150509250929050565b600060208284031215620010e857600080fd5b8135620010f58162000e60565b9392505050565b6020808252601690820152752727aa1024a222a72a24aa2cafa1a7a6afa0a226a4a760511b604082015260600190565b634e487b7160e01b600052603260045260246000fd5b6020808252601190820152702727aa1023a0aa22aba0ac902a27a5a2a760791b604082015260600190565b6000602082840312156200118057600080fd5b8151620010f58162000fc5565b6000600019821415620011b057634e487b7160e01b600052601160045260246000fd5b5060010190565b600081518084526020808501945080840160005b83811015620011f25781516001600160a01b031687529582019590820190600101620011cb565b509495945050505050565b604081526000620012126040830185620011b7565b905060018060a01b03831660208301529392505050565b6000815180845260005b81811015620012515760208185018101518683018201520162001233565b8181111562001264576000602083870101525b50601f01601f19169290920160200192915050565b60e0815260006200128e60e083018a62001229565b8281036020840152620012a2818a62001229565b6001600160a01b03988916604085015296151560608401525050928516608084015290841660a083015290921660c09092019190915292915050565b606081526000620012f3606083018662001229565b828103602084015262001307818662001229565b91505060018060a01b0383166040830152949350505050565b6000602082840312156200133357600080fd5b8151620010f58162000e60565b60208082526010908201526f494e434f52524543542041434345535360801b604082015260600190565b60208152600062000d9c6020830184620011b756fe60a06040523480156200001157600080fd5b506040516200401338038062004013833981016040819052620000349162000606565b6001600160a01b0381166080528651620000569060039060208a019062000476565b5085516200006c90600490602089019062000476565b5062000077620002d6565b600580546001600160a01b039283166001600160a01b0319909116179055600680549187166001600160a81b031990921691909117600160a01b179055620000bf82620002f2565b620000e360008051602062003ff3833981519152620000dd620002d6565b6200033c565b6006546200010b9060008051602062003ff3833981519152906001600160a01b03166200033c565b600654620001339060008051602062003fd3833981519152906001600160a01b03166200033c565b831562000284576006805460ff60a81b1916600160a81b861515021790556001600160a01b038316620001a05760405162461bcd60e51b8152602060048201526011602482015270494e434f5252454354204144445245535360781b604482015260640160405180910390fd5b600780546001600160a01b0319166001600160a01b038516179055620001d660008051602062003fb3833981519152846200033c565b620001f460008051602062003fb3833981519152620000dd620002d6565b6200020f60008051602062003ff3833981519152846200033c565b6200022a60008051602062003fd3833981519152846200033c565b6200025460008051602062003ff383398151915260008051602062003fb38339815191526200034c565b6200027e60008051602062003fd383398151915260008051602062003fb38339815191526200034c565b620002c9565b6200029f60008051602062003ff3833981519152806200034c565b620002c960008051602062003fd383398151915260008051602062003ff38339815191526200034c565b5050505050505062000710565b6000620002ed6200039760201b62001d891760201c565b905090565b600180546001600160a01b0319166001600160a01b0383169081179091556040517f5e4a30f4224898dbac86adca855a5edd3b8341a3aeb2b6ff0f0b5a82c013b65a90600090a250565b620003488282620003d0565b5050565b600082815260208190526040808220600101805490849055905190918391839186917fbd79b86ffe0ab8e8776151514217cd7cacd52c909f66475c3af44e129f0b00ff9190a4505050565b6080516000906001600160a01b0316331415620003bb575060131936013560601c90565b620002ed6200047260201b62001dd31760201c565b6000828152602081815260408083206001600160a01b038516845290915290205460ff1662000348576000828152602081815260408083206001600160a01b03851684529091529020805460ff191660011790556200042e620002d6565b6001600160a01b0316816001600160a01b0316837f2f8788117e7eff1d82e926ec794901d17c78024a50270940304540a733656f0d60405160405180910390a45050565b3390565b8280546200048490620006d3565b90600052602060002090601f016020900481019282620004a85760008555620004f3565b82601f10620004c357805160ff1916838001178555620004f3565b82800160010185558215620004f3579182015b82811115620004f3578251825591602001919060010190620004d6565b506200050192915062000505565b5090565b5b8082111562000501576000815560010162000506565b634e487b7160e01b600052604160045260246000fd5b600082601f8301126200054457600080fd5b81516001600160401b03808211156200056157620005616200051c565b604051601f8301601f19908116603f011681019082821181831017156200058c576200058c6200051c565b81604052838152602092508683858801011115620005a957600080fd5b600091505b83821015620005cd5785820183015181830184015290820190620005ae565b83821115620005df5760008385830101525b9695505050505050565b80516001600160a01b03811681146200060157600080fd5b919050565b600080600080600080600060e0888a0312156200062257600080fd5b87516001600160401b03808211156200063a57600080fd5b620006488b838c0162000532565b985060208a01519150808211156200065f57600080fd5b506200066e8a828b0162000532565b9650506200067f60408901620005e9565b9450606088015180151581146200069557600080fd5b9350620006a560808901620005e9565b9250620006b560a08901620005e9565b9150620006c560c08901620005e9565b905092959891949750929550565b600181811c90821680620006e857607f821691505b602082108114156200070a57634e487b7160e01b600052602260045260246000fd5b50919050565b60805161388062000733600039600081816105b90152611d8d01526138806000f3fe608060405234801561001057600080fd5b50600436106103d05760003560e01c80638423df79116101ff578063b88d4fde1161011a578063e985e9c5116100ad578063f62bce7d1161007c578063f62bce7d1461090b578063f77c47911461091e578063fc9ca98714610931578063ff17e2321461094457600080fd5b8063e985e9c514610884578063f1537686146108c0578063f322c755146108d3578063f45fd0f3146108e657600080fd5b8063d5f39488116100e9578063d5f3948814610825578063d6fd317514610838578063d7a78db81461084d578063e4b50cb81461086057600080fd5b8063b88d4fde146107d9578063bb909c2b146107ec578063c87b56dd146107ff578063d547741f1461081257600080fd5b8063a1ac301711610192578063a647e8ec11610161578063a647e8ec14610780578063a9a3258314610793578063ab736d4f146107a6578063b4bd8579146107b957600080fd5b8063a1ac30171461073f578063a1e0891114610752578063a217fddf14610765578063a22cb4651461076d57600080fd5b806391d14854116101ce57806391d14854146106fd5780639467ac401461071057806395d89b41146107235780639605f12f1461072b57600080fd5b80638423df79146106b257806385e3f058146106c457806387b6aef5146106d757806389f698e4146106ea57600080fd5b80634130276b116102ef5780636352211e116102825780636f7caf41116102515780636f7caf411461065b57806370a08231146106705780637adac0e61461068357806381e9ff191461068b57600080fd5b80636352211e1461060f5780636623fc46146106225780636bd27471146106355780636e8d291e1461064857600080fd5b806351da912d116102be57806351da912d14610596578063572b6c05146105a9578063598c064a146105e9578063603d0140146105fc57600080fd5b80634130276b1461054a57806342842e0e1461055d57806342966c6814610570578063443ff4a11461058357600080fd5b806323b872dd11610367578063304743151161033657806330474315146104fd57806334e37b8a1461051157806336568abe14610524578063368e63331461053757600080fd5b806323b872dd14610493578063248a9ca3146104a65780632d33d27a146104d75780632f2ff15d146104ea57600080fd5b8063095ea7b3116103a3578063095ea7b314610452578063162094c41461046557806320c5429b146104785780632185810b1461048b57600080fd5b806301ffc9a7146103d557806306fdde03146103fd5780630703130514610412578063081812fc14610427575b600080fd5b6103e86103e336600461309b565b610957565b60405190151581526020015b60405180910390f35b61040561099d565b6040516103f49190613110565b610425610420366004613123565b610a2b565b005b61043a610435366004613145565b610aac565b6040516001600160a01b0390911681526020016103f4565b610425610460366004613173565b610b15565b61042561047336600461322b565b610c0e565b610425610486366004613145565b610cc1565b6103e8610d48565b6104256104a1366004613286565b610ec6565b6104c96104b4366004613145565b60009081526020819052604090206001015490565b6040519081526020016103f4565b60015461043a906001600160a01b031681565b6104256104f83660046132c7565b610efe565b6006546103e890600160a81b900460ff1681565b61042561051f3660046132f7565b610f23565b6104256105323660046132c7565b610f65565b610425610545366004613173565b610ff3565b6103e86105583660046132f7565b6110cb565b61042561056b366004613286565b611148565b61042561057e366004613145565b611163565b610425610591366004613145565b6111a2565b6104256105a4366004613123565b6111e1565b6103e86105b73660046132f7565b7f00000000000000000000000000000000000000000000000000000000000000006001600160a01b0390811691161490565b6104256105f7366004613123565b611221565b61042561060a366004613314565b611261565b61043a61061d366004613145565b6112a1565b610425610630366004613145565b6112d6565b6104256106433660046132f7565b611348565b6104256106563660046132f7565b611360565b6104c960008051602061382b83398151915281565b6104c961067e3660046132f7565b611378565b6103e86113bc565b6104c97ffca69b310bd19d275687ebe00b254b0772cf7a367c3f81a9a5a433f831fdc1dc81565b600654600160a01b900460ff166103e8565b6104056106d2366004613145565b611517565b6104256106e53660046132f7565b611522565b6104256106f8366004613145565b611710565b6103e861070b3660046132c7565b61174f565b61042561071e3660046132f7565b611778565b610405611790565b6006546103e890600160a01b900460ff1681565b61042561074d3660046132f7565b61179d565b6104c9610760366004613145565b6117b5565b6104c9600081565b61042561077b36600461334d565b6117ef565b61042561078e36600461337b565b6118e5565b6103e86107a1366004613123565b611955565b6103e86107b43660046132f7565b611970565b6104c96107c7366004613145565b60009081526002602052604090205490565b6104256107e73660046133b6565b61198a565b6103e86107fa3660046132f7565b6119c3565b61040561080d366004613145565b6119dd565b6104256108203660046132c7565b611aa3565b60065461043a906001600160a01b031681565b6104c960008051602061380b83398151915281565b61042561085b366004613145565b611ac8565b61087361086e366004613145565b611b3a565b6040516103f4959493929190613436565b6103e8610892366004613477565b6001600160a01b039182166000908152600b6020908152604080832093909416825291909152205460ff1690565b6104c96108ce3660046132f7565b611c3d565b60075461043a906001600160a01b031681565b6108f96108f4366004613145565b611c81565b60405160ff90911681526020016103f4565b610425610919366004613314565b611ca4565b60055461043a906001600160a01b031681565b61042561093f366004613314565b611ce4565b6103e8610952366004613173565b611d24565b60006001600160e01b031982166380ac58cd60e01b148061098857506001600160e01b03198216635b5e139f60e01b145b80610997575061099782611dd7565b92915050565b600380546109aa906134a5565b80601f01602080910402602001604051908101604052809291908181526020018280546109d6906134a5565b8015610a235780601f106109f857610100808354040283529160200191610a23565b820191906000526020600020905b815481529060010190602001808311610a0657829003601f168201915b505050505081565b610a4560008051602061380b83398151915261070b611e0c565b610a6a5760405162461bcd60e51b8152600401610a61906134e0565b60405180910390fd5b6000610a75836112a1565b9050610a8081611e16565b15610a9d5760405162461bcd60e51b8152600401610a619061350c565b610aa78383611e94565b505050565b6000610ab782611f3a565b610af95760405162461bcd60e51b81526020600482015260136024820152721513d2d153881113d154d389d50811561254d5606a1b6044820152606401610a61565b506000908152600a60205260409020546001600160a01b031690565b6000610b20826112a1565b9050806001600160a01b0316836001600160a01b03161415610b845760405162461bcd60e51b815260206004820152601d60248201527f494e434f525245435420415050524f56452044455354494e4154494f4e0000006044820152606401610a61565b806001600160a01b0316610b96611e0c565b6001600160a01b031614610bde5760405162461bcd60e51b815260206004820152600f60248201526e24a721a7a92922a1aa1027aba722a960891b6044820152606401610a61565b610be781611e16565b15610c045760405162461bcd60e51b8152600401610a619061350c565b610aa78383611ffc565b610c2860008051602061380b83398151915261070b611e0c565b610c445760405162461bcd60e51b8152600401610a61906134e0565b610c4d82611f3a565b610c695760405162461bcd60e51b8152600401610a6190613536565b6000610c74836112a1565b9050610c7f81611e16565b15610c9c5760405162461bcd60e51b8152600401610a619061350c565b6000838152600c602090815260409091208351610cbb92850190612fb6565b50505050565b610cdb60008051602061380b83398151915261070b611e0c565b610cf75760405162461bcd60e51b8152600401610a61906134e0565b6000818152600d6020908152604091829020805460ff1916600217905590518281527fdb43aa42235c8d63908794a952603e8d43a549383d13123c3d893a3fc2e6249591015b60405180910390a150565b600654600090600160a01b900460ff16610da45760405162461bcd60e51b815260206004820152601860248201527f5452414e5346455253204e4f54205245535452494354454400000000000000006044820152606401610a61565b600560009054906101000a90046001600160a01b03166001600160a01b0316637e8895376040518163ffffffff1660e01b815260040160206040518083038186803b158015610df257600080fd5b505afa158015610e06573d6000803e3d6000fd5b505050506040513d601f19601f82011682018060405250810190610e2a9190613583565b6001600160a01b0316336001600160a01b03161480610e5357506005546001600160a01b031633145b610e6f5760405162461bcd60e51b8152600401610a61906135a0565b6006805460ff60a01b191690557f3e9a3af5b34dbcee8465c0ec9f4f535cb0e3c6a44d1179ae105ced0edbc6d92e610ea5611e0c565b6040516001600160a01b03909116815260200160405180910390a150600190565b610ed7610ed1611e0c565b8261206a565b610ef35760405162461bcd60e51b8152600401610a61906135eb565b610aa7838383612186565b600082815260208190526040902060010154610f1981612347565b610aa78383612358565b610f3d60008051602061380b83398151915261070b611e0c565b610f595760405162461bcd60e51b8152600401610a61906134e0565b610f62816123dd565b50565b610f6d611e0c565b6001600160a01b0316816001600160a01b031614610fe55760405162461bcd60e51b815260206004820152602f60248201527f416363657373436f6e74726f6c3a2063616e206f6e6c792072656e6f756e636560448201526e103937b632b9903337b91039b2b63360891b6064820152608401610a61565b610fef8282612427565b5050565b610ffc816124aa565b6110185760405162461bcd60e51b8152600401610a6190613536565b61103260008051602061380b83398151915261070b611e0c565b61104e5760405162461bcd60e51b8152600401610a61906134e0565b6000611059826112a1565b9050826001600160a01b0316816001600160a01b0316146110ae5760405162461bcd60e51b815260206004820152600f60248201526e24a721a7a92922a1aa1027aba722a960891b6044820152606401610a61565b506001600160a01b039091166000908152600f6020526040902055565b6000806110d783611c3d565b90506110e281611f3a565b6110ef5750600092915050565b60006110fa826112a1565b9050836001600160a01b0316816001600160a01b03161461111f575060009392505050565b600061112a85611e16565b9050801561113d57506000949350505050565b506001949350505050565b610aa78383836040518060200160405280600081525061198a565b61117d60008051602061380b83398151915261070b611e0c565b6111995760405162461bcd60e51b8152600401610a61906134e0565b610f62816124c7565b6111bc60008051602061380b83398151915261070b611e0c565b6111d85760405162461bcd60e51b8152600401610a61906134e0565b610f62816125f8565b6111fb60008051602061380b83398151915261070b611e0c565b6112175760405162461bcd60e51b8152600401610a61906134e0565b610fef8282612630565b61123b60008051602061380b83398151915261070b611e0c565b6112575760405162461bcd60e51b8152600401610a61906134e0565b610fef8282612676565b61127b60008051602061380b83398151915261070b611e0c565b6112975760405162461bcd60e51b8152600401610a61906134e0565b610fef82826126d5565b6000818152600860205260408120546001600160a01b0316806109975760405162461bcd60e51b8152600401610a619061362e565b6112f060008051602061380b83398151915261070b611e0c565b61130c5760405162461bcd60e51b8152600401610a61906134e0565b6000611317826112a1565b905061132281611e16565b1561133f5760405162461bcd60e51b8152600401610a619061350c565b610fef826126f4565b610f6260008051602061380b83398151915282610efe565b610f6260008051602061382b83398151915282611aa3565b60006001600160a01b0382166113a05760405162461bcd60e51b8152600401610a619061362e565b506001600160a01b031660009081526009602052604090205490565b600654600090600160a01b900460ff16156114105760405162461bcd60e51b81526020600482015260146024820152731514905394d1915494c8149154d5149250d5115160621b6044820152606401610a61565b600560009054906101000a90046001600160a01b03166001600160a01b0316637e8895376040518163ffffffff1660e01b815260040160206040518083038186803b15801561145e57600080fd5b505afa158015611472573d6000803e3d6000fd5b505050506040513d601f19601f820116820180604052508101906114969190613583565b6001600160a01b0316336001600160a01b031614806114bf57506005546001600160a01b031633145b6114db5760405162461bcd60e51b8152600401610a61906135a0565b6006805460ff60a01b1916600160a01b1790557fe4c361b3d777a0427514a30f90e63bc5728cf1365a8b12e93ae0bf113d8669be610ea5611e0c565b6060610997826119dd565b600654600160a81b900460ff1661156e5760405162461bcd60e51b815260206004820152601060248201526f1393d508111053c811d3d5915493915160821b6044820152606401610a61565b6007546001600160a01b031633146115ba5760405162461bcd60e51b815260206004820152600f60248201526e2727aa102220a79026a0a720a3a2a960891b6044820152606401610a61565b6001600160a01b0381166115e05760405162461bcd60e51b8152600401610a619061362e565b61160a7ffca69b310bd19d275687ebe00b254b0772cf7a367c3f81a9a5a433f831fdc1dc82610efe565b61162260008051602061382b83398151915282610efe565b61163a60008051602061380b83398151915282610efe565b60075461165f9060008051602061380b833981519152906001600160a01b0316611aa3565b6007546116849060008051602061382b833981519152906001600160a01b0316611aa3565b6007546116bb907ffca69b310bd19d275687ebe00b254b0772cf7a367c3f81a9a5a433f831fdc1dc906001600160a01b0316611aa3565b600780546001600160a01b0319166001600160a01b0383169081179091556040805133815260208101929092527f0f682333a6fa3e76317e29f29765b707dba149e3449fa176a2191835342ab30f9101610d3d565b61172a60008051602061380b83398151915261070b611e0c565b6117465760405162461bcd60e51b8152600401610a61906134e0565b610f62816127e5565b6000918252602082815260408084206001600160a01b0393909316845291905290205460ff1690565b610f6260008051602061382b83398151915282610efe565b600480546109aa906134a5565b610f6260008051602061380b83398151915282611aa3565b60006117c0826124aa565b6117dc5760405162461bcd60e51b8152600401610a6190613536565b506000908152600e602052604090205490565b6117f7611e0c565b6001600160a01b0316826001600160a01b0316141561184c5760405162461bcd60e51b8152602060048201526011602482015270494e434f525245435420415050524f564560781b6044820152606401610a61565b80600b6000611859611e0c565b6001600160a01b03908116825260208083019390935260409182016000908120918716808252919093529120805460ff19169215159290921790915561189d611e0c565b6001600160a01b03167f17307eab39ab6107e8899845ad3d59bd9653f200f220920489ca2b5937696c31836040516118d9911515815260200190565b60405180910390a35050565b836118ef81611e16565b1561190c5760405162461bcd60e51b8152600401610a619061350c565b61192660008051602061380b83398151915261070b611e0c565b6119425760405162461bcd60e51b8152600401610a61906134e0565b61194e858585856128bf565b5050505050565b600082815260026020526040812054821615155b9392505050565b600061099760008051602061380b8339815191528361174f565b61199b611995611e0c565b8361206a565b6119b75760405162461bcd60e51b8152600401610a61906135eb565b610cbb84848484612a1d565b600061099760008051602061382b8339815191528361174f565b60606119e8826124aa565b611a045760405162461bcd60e51b8152600401610a6190613536565b6000828152600c602052604081208054611a1d906134a5565b80601f0160208091040260200160405190810160405280929190818152602001828054611a49906134a5565b8015611a965780601f10611a6b57610100808354040283529160200191611a96565b820191906000526020600020905b815481529060010190602001808311611a7957829003601f168201915b5093979650505050505050565b600082815260208190526040902060010154611abe81612347565b610aa78383612427565b611ae260008051602061380b83398151915261070b611e0c565b611afe5760405162461bcd60e51b8152600401610a61906134e0565b6000611b09826112a1565b9050611b1481611e16565b15611b315760405162461bcd60e51b8152600401610a619061350c565b610fef82612a93565b6000806060600080611b4b866112a1565b6000878152600d602052604090205490955060ff166002811115611b7157611b7161356d565b6000878152600c60205260409020805491955090611b8e906134a5565b80601f0160208091040260200160405190810160405280929190818152602001828054611bba906134a5565b8015611c075780601f10611bdc57610100808354040283529160200191611c07565b820191906000526020600020905b815481529060010190602001808311611bea57829003601f168201915b5050506000898152600e60209081526040808320546002909252909120549396509450611c32915050565b905091939590929450565b60006001600160a01b038216611c655760405162461bcd60e51b8152600401610a619061362e565b506001600160a01b03166000908152600f602052604090205490565b6000818152600d602052604081205460ff1660028111156109975761099761356d565b611cbe60008051602061380b83398151915261070b611e0c565b611cda5760405162461bcd60e51b8152600401610a61906134e0565b610fef8282612b36565b611cfe60008051602061380b83398151915261070b611e0c565b611d1a5760405162461bcd60e51b8152600401610a61906134e0565b610fef8282612b7e565b6000611d2f82611f3a565b611d3b57506000610997565b6000611d46836112a1565b9050836001600160a01b0316816001600160a01b031614611d6b576000915050610997565b6000611d7685611e16565b9050801561113d57600092505050610997565b60007f00000000000000000000000000000000000000000000000000000000000000006001600160a01b0316331415611dc9575060131936013560601c90565b503390565b905090565b3390565b60006001600160e01b03198216637965db0b60e01b148061099757506301ffc9a760e01b6001600160e01b0319831614610997565b6000611dce611d89565b60055460405163fe575a8760e01b81526001600160a01b038381166004830152600092169063fe575a879060240160206040518083038186803b158015611e5c57600080fd5b505afa158015611e70573d6000803e3d6000fd5b505050506040513d601f19601f820116820180604052508101906109979190613654565b611e9d82611f3a565b611ee95760405162461bcd60e51b815260206004820152601e60248201527f544f4b454e20444f45534e275420455849535453204f522041435449564500006044820152606401610a61565b6000828152600e6020526040908190208290555182907f1ebc57da8b3ebab98506502fbb73232ea29fbe86e4963a5a8c004810ad11190d90611f2e9084815260200190565b60405180910390a25050565b6000818152600e602052604081205415611fb1576000828152600860205260409020546001600160a01b031615801590611f9457506000828152600d602052604081205460ff166002811115611f9257611f9261356d565b145b80156109975750506000908152600e602052604090205442111590565b6000828152600860205260409020546001600160a01b03161580159061099757506000828152600d602052604081205460ff166002811115611ff557611ff561356d565b1492915050565b6000818152600a6020526040902080546001600160a01b0319166001600160a01b0384169081179091558190612031826112a1565b6001600160a01b03167f8c5be1e5ebec7d5bd14f71427d1e84f3dd0314c0f7b2291e5b200ac8c7c3b92560405160405180910390a45050565b6000612075826124aa565b6120d65760405162461bcd60e51b815260206004820152602c60248201527f4552433732313a206f70657261746f7220717565727920666f72206e6f6e657860448201526b34b9ba32b73a103a37b5b2b760a11b6064820152608401610a61565b60006120e1836112a1565b9050806001600160a01b0316846001600160a01b0316141561211357600654600160a01b900460ff1615915050610997565b836001600160a01b031661212684610aac565b6001600160a01b0316148061216057506001600160a01b038082166000908152600b602090815260408083209388168352929052205460ff165b8061217e575061217e60008051602061380b8339815191528561174f565b915050610997565b826001600160a01b0316612199826112a1565b6001600160a01b0316146121e75760405162461bcd60e51b815260206004820152601560248201527424a721a7a92922a1aa102a27a5a2a71027aba722a960591b6044820152606401610a61565b6001600160a01b03821661223d5760405162461bcd60e51b815260206004820152601860248201527f5452414e5346455220544f205a45524f204144445245535300000000000000006044820152606401610a61565b612248600082611ffc565b6001600160a01b0383166000908152600f602052604090205481141561228f576001600160a01b038084166000908152600f60205260408082208290559184168152208190555b6001600160a01b03831660009081526009602052604081208054600192906122b8908490613687565b90915550506001600160a01b03821660009081526009602052604081208054600192906122e690849061369e565b909155505060008181526008602052604080822080546001600160a01b0319166001600160a01b0386811691821790925591518493918716917fddf252ad1be2c89b69c2b068fc378daa952ba7f163c4a11628f55a4df523b3ef91a4505050565b610f6281612353611e0c565b612b9c565b612362828261174f565b610fef576000828152602081815260408083206001600160a01b03851684529091529020805460ff19166001179055612399611e0c565b6001600160a01b0316816001600160a01b0316837f2f8788117e7eff1d82e926ec794901d17c78024a50270940304540a733656f0d60405160405180910390a45050565b600180546001600160a01b0319166001600160a01b0383169081179091556040517f5e4a30f4224898dbac86adca855a5edd3b8341a3aeb2b6ff0f0b5a82c013b65a90600090a250565b612431828261174f565b15610fef576000828152602081815260408083206001600160a01b03851684529091529020805460ff19169055612466611e0c565b6001600160a01b0316816001600160a01b0316837ff6391f5c32d9c69d2a47ea670b442974b53935d1edc7fd64eb21e047a839171b60405160405180910390a45050565b6000908152600860205260409020546001600160a01b0316151590565b60006124d2826112a1565b90506124df600083611ffc565b6000828152600d60209081526040808320805460ff19169055600e8252808320839055600c90915290208054612514906134a5565b159050612532576000828152600c602052604081206125329161303a565b61253b826125f8565b6001600160a01b0381166000908152600f6020526040902054821415612575576001600160a01b0381166000908152600f60205260408120555b6001600160a01b038116600090815260096020526040812080546001929061259e908490613687565b909155505060008281526008602052604080822080546001600160a01b0319169055518391906001600160a01b038416907fddf252ad1be2c89b69c2b068fc378daa952ba7f163c4a11628f55a4df523b3ef908390a45050565b600081815260026020526040808220829055516000805160206137eb83398151915291610d3d91849190918252602082015260400190565b61263981612c00565b60008281526002602090815260409182902083905581518481529081018390526000805160206137eb833981519152910160405180910390a15050565b600082815260026020526040812054908282175b905061269581612c00565b60008481526002602090815260409182902083905581518681529081018390526000805160206137eb83398151915291015b60405180910390a150505050565b60008281526002602052604081205490600160ff84161b19821661268a565b6126fd816124aa565b6127405760405162461bcd60e51b8152602060048201526014602482015273544f4b454e20444f45534e27542045584953545360601b6044820152606401610a61565b60016000828152600d602052604090205460ff1660028111156127655761276561356d565b146127a55760405162461bcd60e51b815260206004820152601060248201526f2a27a5a2a7102727aa10232927ad22a760811b6044820152606401610a61565b6000818152600d6020526040808220805460ff191690555182917fe2babfd5e77285a3c3dbc4b25592cbe4a7a26e97a7ac63067a22ebdaa9b82add91a250565b600154604080516326bc72ad60e11b815290516000926001600160a01b031691634d78e55a916004808301926020929190829003018186803b15801561282a57600080fd5b505afa15801561283e573d6000803e3d6000fd5b505050506040513d601f19601f8201168201806040525081019061286291906136b6565b6000838152600260205260409020549091508181168015610cbb5760008481526002602090815260409182902060001994851884179094189384905581518681529081018490526000805160206137eb83398151915291016126c7565b6001600160a01b0384166128e55760405162461bcd60e51b8152600401610a619061362e565b6128ee836124aa565b156129325760405162461bcd60e51b8152602060048201526014602482015273544f4b454e20414c52454144592045584953545360601b6044820152606401610a61565b6001600160a01b038416600090815260096020526040812080546001929061295b90849061369e565b9091555050600083815260086020908152604080832080546001600160a01b0319166001600160a01b0389169081179091558352600f9091529020546129b7576001600160a01b0384166000908152600f602052604090208390555b81156129cf576000838152600e602052604090208290555b80156129df576129df8382612630565b60405183906001600160a01b038616906000907fddf252ad1be2c89b69c2b068fc378daa952ba7f163c4a11628f55a4df523b3ef908290a450505050565b612a28848484612186565b612a3484848484612cc3565b610cbb5760405162461bcd60e51b815260206004820152602a60248201527f5452414e5346455220544f204e4f4e204552433732315265636569766572204960448201526926a82622a6a2a72a22a960b11b6064820152608401610a61565b612a9c81611f3a565b612af35760405162461bcd60e51b815260206004820152602260248201527f544f4b454e20444f45534e275420455849535453204f52204e4f542041435449604482015261564560f01b6064820152608401610a61565b6000818152600d6020526040808220805460ff191660011790555182917f779fbee689bbd6f006ecb329206d35c7db7380f9837a8826fb8dc5cfcd3d33dd91a250565b600082815260026020908152604091829020805460001980821860ff871617189182905583518681529283018290529290916000805160206137eb83398151915291016126c7565b60008281526002602052604081205490600160ff84161b821761268a565b612ba6828261174f565b610fef57612bbe816001600160a01b03166014612e1a565b612bc9836020612e1a565b604051602001612bda9291906136cf565b60408051601f198184030181529082905262461bcd60e51b8252610a6191600401613110565b6001546040805163243da6a760e01b815290516000926001600160a01b03169163243da6a7916004808301926020929190829003018186803b158015612c4557600080fd5b505afa158015612c59573d6000803e3d6000fd5b505050506040513d601f19601f82011682018060405250810190612c7d91906136b6565b90508181178114610fef5760405162461bcd60e51b815260206004820152601060248201526f554e535550504f52544544204249545360801b6044820152606401610a61565b60006001600160a01b0384163b1561113d57836001600160a01b031663150b7a02612cec611e0c565b8786866040518563ffffffff1660e01b8152600401612d0e9493929190613744565b602060405180830381600087803b158015612d2857600080fd5b505af1925050508015612d58575060408051601f3d908101601f19168201909252612d5591810190613781565b60015b612dfd573d808015612d86576040519150601f19603f3d011682016040523d82523d6000602084013e612d8b565b606091505b508051612df55760405162461bcd60e51b815260206004820152603260248201527f4552433732313a207472616e7366657220746f206e6f6e20455243373231526560448201527131b2b4bb32b91034b6b83632b6b2b73a32b960711b6064820152608401610a61565b805181602001fd5b6001600160e01b031916630a85bd0160e11b149050949350505050565b60606000612e2983600261379e565b612e3490600261369e565b67ffffffffffffffff811115612e4c57612e4c61319f565b6040519080825280601f01601f191660200182016040528015612e76576020820181803683370190505b509050600360fc1b81600081518110612e9157612e916137bd565b60200101906001600160f81b031916908160001a905350600f60fb1b81600181518110612ec057612ec06137bd565b60200101906001600160f81b031916908160001a9053506000612ee484600261379e565b612eef90600161369e565b90505b6001811115612f67576f181899199a1a9b1b9c1cb0b131b232b360811b85600f1660108110612f2357612f236137bd565b1a60f81b828281518110612f3957612f396137bd565b60200101906001600160f81b031916908160001a90535060049490941c93612f60816137d3565b9050612ef2565b5083156119695760405162461bcd60e51b815260206004820181905260248201527f537472696e67733a20686578206c656e67746820696e73756666696369656e746044820152606401610a61565b828054612fc2906134a5565b90600052602060002090601f016020900481019282612fe4576000855561302a565b82601f10612ffd57805160ff191683800117855561302a565b8280016001018555821561302a579182015b8281111561302a57825182559160200191906001019061300f565b50613036929150613070565b5090565b508054613046906134a5565b6000825580601f10613056575050565b601f016020900490600052602060002090810190610f6291905b5b808211156130365760008155600101613071565b6001600160e01b031981168114610f6257600080fd5b6000602082840312156130ad57600080fd5b813561196981613085565b60005b838110156130d35781810151838201526020016130bb565b83811115610cbb5750506000910152565b600081518084526130fc8160208601602086016130b8565b601f01601f19169290920160200192915050565b60208152600061196960208301846130e4565b6000806040838503121561313657600080fd5b50508035926020909101359150565b60006020828403121561315757600080fd5b5035919050565b6001600160a01b0381168114610f6257600080fd5b6000806040838503121561318657600080fd5b82356131918161315e565b946020939093013593505050565b634e487b7160e01b600052604160045260246000fd5b600067ffffffffffffffff808411156131d0576131d061319f565b604051601f8501601f19908116603f011681019082821181831017156131f8576131f861319f565b8160405280935085815286868601111561321157600080fd5b858560208301376000602087830101525050509392505050565b6000806040838503121561323e57600080fd5b82359150602083013567ffffffffffffffff81111561325c57600080fd5b8301601f8101851361326d57600080fd5b61327c858235602084016131b5565b9150509250929050565b60008060006060848603121561329b57600080fd5b83356132a68161315e565b925060208401356132b68161315e565b929592945050506040919091013590565b600080604083850312156132da57600080fd5b8235915060208301356132ec8161315e565b809150509250929050565b60006020828403121561330957600080fd5b81356119698161315e565b6000806040838503121561332757600080fd5b82359150602083013560ff811681146132ec57600080fd5b8015158114610f6257600080fd5b6000806040838503121561336057600080fd5b823561336b8161315e565b915060208301356132ec8161333f565b6000806000806080858703121561339157600080fd5b843561339c8161315e565b966020860135965060408601359560600135945092505050565b600080600080608085870312156133cc57600080fd5b84356133d78161315e565b935060208501356133e78161315e565b925060408501359150606085013567ffffffffffffffff81111561340a57600080fd5b8501601f8101871361341b57600080fd5b61342a878235602084016131b5565b91505092959194509250565b6001600160a01b038616815260ff8516602082015260a060408201819052600090613463908301866130e4565b606083019490945250608001529392505050565b6000806040838503121561348a57600080fd5b82356134958161315e565b915060208301356132ec8161315e565b600181811c908216806134b957607f821691505b602082108114156134da57634e487b7160e01b600052602260045260246000fd5b50919050565b60208082526012908201527126aaa9aa1021229023a0aa22a5a2a2a822a960711b604082015260600190565b60208082526010908201526f212620a1a5a624a9aa22a2102aa9a2a960811b604082015260600190565b6020808252601d908201527f544f4b454e20444f45534e2754204558495354204f522046524f5a454e000000604082015260600190565b634e487b7160e01b600052602160045260246000fd5b60006020828403121561359557600080fd5b81516119698161315e565b6020808252602b908201527f4e4f54204944454e544954592e434f4d2041444d494e204e4f5220544f4b454e60408201526a1021a7a72a2927a62622a960a91b606082015260800190565b60208082526023908201527f4d53472e53454e444552204e4f54204f574e4552204e4f5220474154454b45456040820152622822a960e91b606082015260800190565b6020808252600c908201526b5a45524f204144445245535360a01b604082015260600190565b60006020828403121561366657600080fd5b81516119698161333f565b634e487b7160e01b600052601160045260246000fd5b60008282101561369957613699613671565b500390565b600082198211156136b1576136b1613671565b500190565b6000602082840312156136c857600080fd5b5051919050565b7f416363657373436f6e74726f6c3a206163636f756e74200000000000000000008152600083516137078160178501602088016130b8565b7001034b99036b4b9b9b4b733903937b6329607d1b60179184019182015283516137388160288401602088016130b8565b01602801949350505050565b6001600160a01b0385811682528416602082015260408101839052608060608201819052600090613777908301846130e4565b9695505050505050565b60006020828403121561379357600080fd5b815161196981613085565b60008160001904831182151516156137b8576137b8613671565b500290565b634e487b7160e01b600052603260045260246000fd5b6000816137e2576137e2613671565b50600019019056fe5e07998cef9cea674942c66f0ea7b0bce89ab9473ce240cc93d616c3491f8aeb3c63e605be3290ab6b04cfc46c6e1516e626d43236b034f09d7ede1d017beb0c449b0a7e0acc0a95c71947cb19fdd122b42abca9bdfbd6707ca4f1e3fdaef05ea26469706673582212200ecc0d7b4e04fbc1ef53f5ce588781defc9ea0eb6fa7d4c03fb986cf9605876c64736f6c63430008090033fca69b310bd19d275687ebe00b254b0772cf7a367c3f81a9a5a433f831fdc1dc3c63e605be3290ab6b04cfc46c6e1516e626d43236b034f09d7ede1d017beb0c449b0a7e0acc0a95c71947cb19fdd122b42abca9bdfbd6707ca4f1e3fdaef05ea264697066735822122024f6901397725d3ab07400dc0cd2e5581771627720430e21c7f49c898670431164736f6c63430008090033",
  "linkReferences": {},
  "deployedLinkReferences": {}
}