{
  "address": "0xC05bf37E589Ba20d2f416E9611cE1DAf1bf686a5",
  "abi": [
    {
      "inputs": [
        {
          "internalType": "address",
          "name": "_daoController",
          "type": "address"
        }
      ],
      "stateMutability": "nonpayable",
      "type": "constructor"
    },
    {
      "anonymous": false,
      "inputs": [
        {
          "indexed": true,
          "internalType": "address",
          "name": "prevDAOController",
          "type": "address"
        },
        {
          "indexed": true,
          "internalType": "address",
          "name": "daoController",
          "type": "address"
        }
      ],
      "name": "DAOControllerUpdated",
      "type": "event"
    },
    {
      "anonymous": false,
      "inputs": [
        {
          "indexed": true,
          "internalType": "bytes32",
          "name": "flag",
          "type": "bytes32"
        },
        {
          "indexed": false,
          "internalType": "uint8",
          "name": "index",
          "type": "uint8"
        }
      ],
      "name": "FlagAdded",
      "type": "event"
    },
    {
      "anonymous": false,
      "inputs": [
        {
          "indexed": true,
          "internalType": "bytes32",
          "name": "flag",
          "type": "bytes32"
        }
      ],
      "name": "FlagRemoved",
      "type": "event"
    },
    {
      "inputs": [
        {
          "internalType": "bytes32",
          "name": "_flag",
          "type": "bytes32"
        },
        {
          "internalType": "uint8",
          "name": "_index",
          "type": "uint8"
        }
      ],
      "name": "addFlag",
      "outputs": [],
      "stateMutability": "nonpayable",
      "type": "function"
    },
    {
      "inputs": [
        {
          "internalType": "bytes32[]",
          "name": "_flags",
          "type": "bytes32[]"
        },
        {
          "internalType": "uint8[]",
          "name": "_indexes",
          "type": "uint8[]"
        }
      ],
      "name": "addFlags",
      "outputs": [],
      "stateMutability": "nonpayable",
      "type": "function"
    },
    {
      "inputs": [],
      "name": "daoController",
      "outputs": [
        {
          "internalType": "address",
          "name": "",
          "type": "address"
        }
      ],
      "stateMutability": "view",
      "type": "function"
    },
    {
      "inputs": [
        {
          "internalType": "bytes32",
          "name": "",
          "type": "bytes32"
        }
      ],
      "name": "flagIndexes",
      "outputs": [
        {
          "internalType": "uint8",
          "name": "",
          "type": "uint8"
        }
      ],
      "stateMutability": "view",
      "type": "function"
    },
    {
      "inputs": [
        {
          "internalType": "bytes32",
          "name": "_flag",
          "type": "bytes32"
        }
      ],
      "name": "isFlagSupported",
      "outputs": [
        {
          "internalType": "bool",
          "name": "",
          "type": "bool"
        }
      ],
      "stateMutability": "view",
      "type": "function"
    },
    {
      "inputs": [
        {
          "internalType": "bytes32[]",
          "name": "_flags",
          "type": "bytes32[]"
        }
      ],
      "name": "isFlagsSupported",
      "outputs": [
        {
          "internalType": "bool[]",
          "name": "",
          "type": "bool[]"
        }
      ],
      "stateMutability": "view",
      "type": "function"
    },
    {
      "inputs": [
        {
          "internalType": "bytes32",
          "name": "_flag",
          "type": "bytes32"
        }
      ],
      "name": "removeFlag",
      "outputs": [],
      "stateMutability": "nonpayable",
      "type": "function"
    },
    {
      "inputs": [
        {
          "internalType": "bytes32[]",
          "name": "_flags",
          "type": "bytes32[]"
        }
      ],
      "name": "removeFlags",
      "outputs": [],
      "stateMutability": "nonpayable",
      "type": "function"
    },
    {
      "inputs": [],
      "name": "supportedFlagsMask",
      "outputs": [
        {
          "internalType": "uint256",
          "name": "",
          "type": "uint256"
        }
      ],
      "stateMutability": "view",
      "type": "function"
    },
    {
      "inputs": [],
      "name": "unsupportedFlagsMask",
      "outputs": [
        {
          "internalType": "uint256",
          "name": "",
          "type": "uint256"
        }
      ],
      "stateMutability": "view",
      "type": "function"
    },
    {
      "inputs": [
        {
          "internalType": "address",
          "name": "_newDAOController",
          "type": "address"
        }
      ],
      "name": "updateDAOManager",
      "outputs": [],
      "stateMutability": "nonpayable",
      "type": "function"
    }
  ],
  "transactionHash": "0x3c228d7b6437563f6bb24985da4b0cbfbb602d4bff1634d945fbbd4e301d419d",
  "args": [
    "0x74489ac99AE3cE1428Ce8C8dBE374CFFc009081E"
  ],
  "solcInputHash": "b91b177a56dfa38137b4f6e499ef3c98",
  "bytecode": "0x608060405234801561001057600080fd5b50604051610d8c380380610d8c83398101604081905261002f91610054565b600280546001600160a01b0319166001600160a01b0392909216919091179055610084565b60006020828403121561006657600080fd5b81516001600160a01b038116811461007d57600080fd5b9392505050565b610cf9806100936000396000f3fe608060405234801561001057600080fd5b50600436106100a95760003560e01c80638e7de730116100715780638e7de73014610141578063a3d0bb2a14610154578063a64a095614610177578063b3b48bc21461018a578063d48de6221461019d578063d9478c9c146101c857600080fd5b8063012099e9146100ae578063243da6a7146100d75780633551f2e3146100ee5780634d78e55a14610103578063661870b11461010c575b600080fd5b6100c16100bc366004610a58565b6101db565b6040516100ce9190610a95565b60405180910390f35b6100e060035481565b6040519081526020016100ce565b6101016100fc366004610a58565b6102a5565b005b6100e060045481565b61012f61011a366004610adb565b60056020526000908152604090205460ff1681565b60405160ff90911681526020016100ce565b61010161014f366004610adb565b61037b565b610167610162366004610adb565b6103fd565b60405190151581526020016100ce565b610101610185366004610b0a565b61040f565b610101610198366004610b36565b610443565b6002546101b0906001600160a01b031681565b6040516001600160a01b0390911681526020016100ce565b6101016101d6366004610bf8565b610526565b805160609060008167ffffffffffffffff8111156101fb576101fb610982565b604051908082528060200260200182016040528015610224578160200160208202803683370190505b50905060005b84518160ff16101561029d57610266858260ff168151811061024e5761024e610c21565b6020026020010151600061067090919063ffffffff16565b828260ff168151811061027b5761027b610c21565b911515602092830291909101909101528061029581610c4d565b91505061022a565b509392505050565b6002546001600160a01b031633146102d85760405162461bcd60e51b81526004016102cf90610c6d565b60405180910390fd5b60005b81518160ff161015610377576102ff828260ff168151811061024e5761024e610c21565b6103405760405162461bcd60e51b8152602060048201526012602482015271119b1859c81b9bdd081cdd5c1c1bdc9d195960721b60448201526064016102cf565b610365828260ff168151811061035857610358610c21565b602002602001015161068b565b8061036f81610c4d565b9150506102db565b5050565b6002546001600160a01b031633146103a55760405162461bcd60e51b81526004016102cf90610c6d565b6103b0600082610670565b6103f15760405162461bcd60e51b8152602060048201526012602482015271119b1859c81b9bdd081cdd5c1c1bdc9d195960721b60448201526064016102cf565b6103fa8161068b565b50565b60006104098183610670565b92915050565b6002546001600160a01b031633146104395760405162461bcd60e51b81526004016102cf90610c6d565b61037782826106fe565b6002546001600160a01b0316331461046d5760405162461bcd60e51b81526004016102cf90610c6d565b80518251146104be5760405162461bcd60e51b815260206004820152601960248201527f496e636f72656374207661726961626c6573206c656e6774680000000000000060448201526064016102cf565b60005b82518160ff1610156105215761050f838260ff16815181106104e5576104e5610c21565b6020026020010151838360ff168151811061050257610502610c21565b60200260200101516106fe565b8061051981610c4d565b9150506104c1565b505050565b6002546001600160a01b031633146105505760405162461bcd60e51b81526004016102cf90610c6d565b6001600160a01b0381166105b15760405162461bcd60e51b815260206004820152602260248201527f4e45572044414f20434f4e54524f4c4c4552204953205a45524f204144445245604482015261535360f01b60648201526084016102cf565b6001600160a01b0381163b6106145760405162461bcd60e51b8152602060048201526024808201527f4e45572044414f20434f4e54524f4c4c4552204953204e4f54204120434f4e54604482015263149050d560e21b60648201526084016102cf565b6002546040516001600160a01b038084169216907fd762aaa784672d83e06643704b648e39604214f821b8761fa9812e17bfb0444990600090a3600280546001600160a01b0319166001600160a01b0392909216919091179055565b600081815260018301602052604081205415155b9392505050565b610696600082610828565b50600081815260056020526040808220805460038054600160ff90931692831b8019909116909155600480549091179055815460ff19169091559051909183917fb4e020b0ecc1c15088dc1d0790a96729268843758491c25d3fa0450d8a9ad34d9190a25050565b600354600160ff83161b161561074b5760405162461bcd60e51b8152602060048201526012602482015271125b99195e08185b1c9958591e481d5cd95960721b60448201526064016102cf565b610756600083610670565b156107985760405162461bcd60e51b8152602060048201526012602482015271119b1859c8185b1c9958591e48195e1a5cdd60721b60448201526064016102cf565b600454600160ff83161b16156107b857600454600160ff83161b19166004555b6000828152600560205260408120805460ff191660ff84161790556107dd9083610834565b50600354600160ff83161b1760035560405160ff8216815282907fdd0fa0fc5900cc449b60e07ecc54e117f3828a22f16d74c408c3d456d69f25fe9060200160405180910390a25050565b60006106848383610840565b60006106848383610933565b60008181526001830160205260408120548015610929576000610864600183610c96565b855490915060009061087890600190610c96565b90508181146108dd57600086600001828154811061089857610898610c21565b90600052602060002001549050808760000184815481106108bb576108bb610c21565b6000918252602080832090910192909255918252600188019052604090208390555b85548690806108ee576108ee610cad565b600190038181906000526020600020016000905590558560010160008681526020019081526020016000206000905560019350505050610409565b6000915050610409565b600081815260018301602052604081205461097a57508154600181810184556000848152602080822090930184905584548482528286019093526040902091909155610409565b506000610409565b634e487b7160e01b600052604160045260246000fd5b604051601f8201601f1916810167ffffffffffffffff811182821017156109c1576109c1610982565b604052919050565b600067ffffffffffffffff8211156109e3576109e3610982565b5060051b60200190565b600082601f8301126109fe57600080fd5b81356020610a13610a0e836109c9565b610998565b82815260059290921b84018101918181019086841115610a3257600080fd5b8286015b84811015610a4d5780358352918301918301610a36565b509695505050505050565b600060208284031215610a6a57600080fd5b813567ffffffffffffffff811115610a8157600080fd5b610a8d848285016109ed565b949350505050565b6020808252825182820181905260009190848201906040850190845b81811015610acf578351151583529284019291840191600101610ab1565b50909695505050505050565b600060208284031215610aed57600080fd5b5035919050565b803560ff81168114610b0557600080fd5b919050565b60008060408385031215610b1d57600080fd5b82359150610b2d60208401610af4565b90509250929050565b60008060408385031215610b4957600080fd5b823567ffffffffffffffff80821115610b6157600080fd5b610b6d868387016109ed565b9350602091508185013581811115610b8457600080fd5b85019050601f81018613610b9757600080fd5b8035610ba5610a0e826109c9565b81815260059190911b82018301908381019088831115610bc457600080fd5b928401925b82841015610be957610bda84610af4565b82529284019290840190610bc9565b80955050505050509250929050565b600060208284031215610c0a57600080fd5b81356001600160a01b038116811461068457600080fd5b634e487b7160e01b600052603260045260246000fd5b634e487b7160e01b600052601160045260246000fd5b600060ff821660ff811415610c6457610c64610c37565b60010192915050565b6020808252600f908201526e4e4f542044414f204144445245535360881b604082015260600190565b600082821015610ca857610ca8610c37565b500390565b634e487b7160e01b600052603160045260246000fdfea26469706673582212206c50d85f51f1d7554a37eed9ad65f32861715b3777425222558f38accf87379c64736f6c63430008090033",
  "devdoc": {
    "details": "FlagsStorage is the main contract to store KYC-related flags for Gateway Token System. KYC flags are identifiable by short identifiers in bytes32 strings. After adding flags  those bit indexes could be used by GatewayToken implementations to associate flags per token.",
    "kind": "dev",
    "methods": {
      "addFlag(bytes32,uint8)": {
        "details": "Triggers to add new flag into gateway token system",
        "params": {
          "_flag": "Flag short identifier",
          "_index": "Flag index (limited to 255)"
        }
      },
      "addFlags(bytes32[],uint8[])": {
        "details": "Triggers to add multiple flags into gateway token system",
        "params": {
          "_flags": "Array of flag short identifiers",
          "_indexes": "Array of flag indexes (limited to 255)"
        }
      },
      "isFlagSupported(bytes32)": {
        "details": "Triggers to check if a particular flag is supported",
        "params": {
          "_flag": "Flag short identifier"
        },
        "returns": {
          "_0": "Boolean for flag support"
        }
      },
      "isFlagsSupported(bytes32[])": {
        "details": "Triggers to check if several flags are supported",
        "params": {
          "_flags": "Array of flags"
        },
        "returns": {
          "_0": "Array of booleans with support per flag"
        }
      },
      "removeFlag(bytes32)": {
        "details": "Triggers to remove existing flag from gateway token system",
        "params": {
          "_flag": "Flag short identifier"
        }
      },
      "removeFlags(bytes32[])": {
        "details": "Triggers to remove multiple existing flags from gateway token system",
        "params": {
          "_flags": "Array of flag short identifiers"
        }
      },
      "updateDAOManager(address)": {
        "details": "Triggers to transfer ownership of this contract to new DAO Controller, reverts on zero address and wallet addresses",
        "params": {
          "_newDAOController": "New DAO Controller contract address"
        }
      }
    },
    "stateVariables": {
      "daoController": {
        "details": "Triggers to get DAO Controller address"
      },
      "flagIndexes": {
        "details": "Triggers to get flag index from flags mapping"
      },
      "supportedFlagsMask": {
        "details": "Triggers to get bitmask of all supported flags"
      },
      "unsupportedFlagsMask": {
        "details": "Triggers to get bitmask of all unsupported flags"
      }
    },
    "version": 1
  },
  "userdoc": {
    "kind": "user",
    "methods": {
      "addFlag(bytes32,uint8)": {
        "notice": "Only executed by existing DAO Manager"
      },
      "addFlags(bytes32[],uint8[])": {
        "notice": "Only executed by existing DAO Manager"
      },
      "removeFlag(bytes32)": {
        "notice": "Only executed by existing DAO Manager"
      },
      "removeFlags(bytes32[])": {
        "notice": "Only executed by existing DAO Manager"
      },
      "updateDAOManager(address)": {
        "notice": "Only executed by existing DAO Manager"
      }
    },
    "version": 1
  },
  "storageLayout": {
    "storage": [
      {
        "astId": 2483,
        "contract": "contracts/FlagsStorage.sol:FlagsStorage",
        "label": "supportedFlags",
        "offset": 0,
        "slot": "0",
        "type": "t_struct(Bytes32Set)2066_storage"
      },
      {
        "astId": 2486,
        "contract": "contracts/FlagsStorage.sol:FlagsStorage",
        "label": "daoController",
        "offset": 0,
        "slot": "2",
        "type": "t_address"
      },
      {
        "astId": 2489,
        "contract": "contracts/FlagsStorage.sol:FlagsStorage",
        "label": "supportedFlagsMask",
        "offset": 0,
        "slot": "3",
        "type": "t_uint256"
      },
      {
        "astId": 2492,
        "contract": "contracts/FlagsStorage.sol:FlagsStorage",
        "label": "unsupportedFlagsMask",
        "offset": 0,
        "slot": "4",
        "type": "t_uint256"
      },
      {
        "astId": 2497,
        "contract": "contracts/FlagsStorage.sol:FlagsStorage",
        "label": "flagIndexes",
        "offset": 0,
        "slot": "5",
        "type": "t_mapping(t_bytes32,t_uint8)"
      }
    ],
    "types": {
      "t_address": {
        "encoding": "inplace",
        "label": "address",
        "numberOfBytes": "20"
      },
      "t_array(t_bytes32)dyn_storage": {
        "base": "t_bytes32",
        "encoding": "dynamic_array",
        "label": "bytes32[]",
        "numberOfBytes": "32"
      },
      "t_bytes32": {
        "encoding": "inplace",
        "label": "bytes32",
        "numberOfBytes": "32"
      },
      "t_mapping(t_bytes32,t_uint256)": {
        "encoding": "mapping",
        "key": "t_bytes32",
        "label": "mapping(bytes32 => uint256)",
        "numberOfBytes": "32",
        "value": "t_uint256"
      },
      "t_mapping(t_bytes32,t_uint8)": {
        "encoding": "mapping",
        "key": "t_bytes32",
        "label": "mapping(bytes32 => uint8)",
        "numberOfBytes": "32",
        "value": "t_uint8"
      },
      "t_struct(Bytes32Set)2066_storage": {
        "encoding": "inplace",
        "label": "struct EnumerableSet.Bytes32Set",
        "members": [
          {
            "astId": 2065,
            "contract": "contracts/FlagsStorage.sol:FlagsStorage",
            "label": "_inner",
            "offset": 0,
            "slot": "0",
            "type": "t_struct(Set)1872_storage"
          }
        ],
        "numberOfBytes": "64"
      },
      "t_struct(Set)1872_storage": {
        "encoding": "inplace",
        "label": "struct EnumerableSet.Set",
        "members": [
          {
            "astId": 1867,
            "contract": "contracts/FlagsStorage.sol:FlagsStorage",
            "label": "_values",
            "offset": 0,
            "slot": "0",
            "type": "t_array(t_bytes32)dyn_storage"
          },
          {
            "astId": 1871,
            "contract": "contracts/FlagsStorage.sol:FlagsStorage",
            "label": "_indexes",
            "offset": 0,
            "slot": "1",
            "type": "t_mapping(t_bytes32,t_uint256)"
          }
        ],
        "numberOfBytes": "64"
      },
      "t_uint256": {
        "encoding": "inplace",
        "label": "uint256",
        "numberOfBytes": "32"
      },
      "t_uint8": {
        "encoding": "inplace",
        "label": "uint8",
        "numberOfBytes": "1"
      }
    }
  }
}